{
    "contractName": "ZombieFactory",
    "abi": [
        {
            "inputs": [],
            "stateMutability": "nonpayable",
            "type": "constructor"
        },
        {
            "anonymous": false,
            "inputs": [
                {
                    "indexed": true,
                    "internalType": "address",
                    "name": "previousOwner",
                    "type": "address"
                },
                {
                    "indexed": true,
                    "internalType": "address",
                    "name": "newOwner",
                    "type": "address"
                }
            ],
            "name": "OwnershipTransferred",
            "type": "event"
        },
        {
            "inputs": [],
            "name": "checkDeployTest",
            "outputs": [
                {
                    "internalType": "bool",
                    "name": "",
                    "type": "bool"
                }
            ],
            "stateMutability": "view",
            "type": "function"
        },
        {
            "inputs": [],
            "name": "owner",
            "outputs": [
                {
                    "internalType": "address",
                    "name": "",
                    "type": "address"
                }
            ],
            "stateMutability": "view",
            "type": "function"
        },
        {
            "inputs": [
                {
                    "internalType": "address payable",
                    "name": "newOwner",
                    "type": "address"
                }
            ],
            "name": "transferOwnership",
            "outputs": [],
            "stateMutability": "nonpayable",
            "type": "function"
        }
    ],
    "bytecode": "60806040526000805460ff60a01b1916905534801561001d57600080fd5b50600080546001600160a01b031916331790556102118061003f6000396000f3fe608060405234801561001057600080fd5b50600436106100415760003560e01c8063206c8db4146100465780638da5cb5b1461006f578063f2fde38b1461009a575b600080fd5b60005461005a90600160a01b900460ff1681565b60405190151581526020015b60405180910390f35b600054610082906001600160a01b031681565b6040516001600160a01b039091168152602001610066565b6100ad6100a83660046101ab565b6100af565b005b6000546001600160a01b031633146101045760405162461bcd60e51b815260206004820152601360248201527226bab9ba1031b7b73a3930b1ba1037bbb732b960691b60448201526064015b60405180910390fd5b6001600160a01b0381166101505760405162461bcd60e51b815260206004820152601360248201527226bab9ba1031b7b73a3930b1ba1037bbb732b960691b60448201526064016100fb565b600080546040516001600160a01b03808516939216917f8be0079c531659141344cd1fd0a4f28419497f9722a3daafe3b4186f6b6457e091a3600080546001600160a01b0319166001600160a01b0392909216919091179055565b6000602082840312156101bd57600080fd5b81356001600160a01b03811681146101d457600080fd5b939250505056fea26469706673582212205424100be9513bf42b85445523bf90ecd391add8bc9f0d47f39f3cd27529443764736f6c63430008130033",
    "sourcePath": "/Users/fudongguang/git/test/sol-test/contracts/ZombieFactory.sol",
    "compiler": {
        "name": "solc",
        "version": "0.8.19+commit.7dd6d404"
    },
    "functionHashes": {
        "checkDeployTest()": "206c8db4",
        "owner()": "8da5cb5b",
        "transferOwnership(address)": "f2fde38b"
    },
    "gasEstimates": {
        "creation": {
            "codeDepositCost": "105800",
            "executionCost": "48612",
            "totalCost": "154412"
        },
        "external": {
            "checkDeployTest()": "2294",
            "owner()": "2337",
            "transferOwnership(address)": "30387"
        }
    }
}