{
	"contracts/ZombieFactory.sol": {
		"ZombicFactory": {
			"abi": [
				{
					"anonymous": false,
					"inputs": [
						{
							"indexed": false,
							"internalType": "uint256",
							"name": "zombicId",
							"type": "uint256"
						},
						{
							"indexed": false,
							"internalType": "string",
							"name": "name",
							"type": "string"
						},
						{
							"indexed": false,
							"internalType": "uint256",
							"name": "dna",
							"type": "uint256"
						}
					],
					"name": "NewZombic",
					"type": "event"
				},
				{
					"anonymous": false,
					"inputs": [
						{
							"indexed": true,
							"internalType": "address",
							"name": "previousOwner",
							"type": "address"
						},
						{
							"indexed": true,
							"internalType": "address",
							"name": "newOwner",
							"type": "address"
						}
					],
					"name": "OwnershipTransferred",
					"type": "event"
				},
				{
					"inputs": [
						{
							"internalType": "string",
							"name": "_name",
							"type": "string"
						}
					],
					"name": "buyZombic",
					"outputs": [],
					"stateMutability": "payable",
					"type": "function"
				},
				{
					"inputs": [],
					"name": "checkDeployTest",
					"outputs": [
						{
							"internalType": "bool",
							"name": "",
							"type": "bool"
						}
					],
					"stateMutability": "view",
					"type": "function"
				},
				{
					"inputs": [],
					"name": "cooldownTime",
					"outputs": [
						{
							"internalType": "uint256",
							"name": "",
							"type": "uint256"
						}
					],
					"stateMutability": "view",
					"type": "function"
				},
				{
					"inputs": [
						{
							"internalType": "string",
							"name": "_name",
							"type": "string"
						}
					],
					"name": "createZombic",
					"outputs": [],
					"stateMutability": "nonpayable",
					"type": "function"
				},
				{
					"inputs": [],
					"name": "owner",
					"outputs": [
						{
							"internalType": "address",
							"name": "",
							"type": "address"
						}
					],
					"stateMutability": "view",
					"type": "function"
				},
				{
					"inputs": [
						{
							"internalType": "uint256",
							"name": "_price",
							"type": "uint256"
						}
					],
					"name": "setZombicPrice",
					"outputs": [],
					"stateMutability": "nonpayable",
					"type": "function"
				},
				{
					"inputs": [
						{
							"internalType": "address payable",
							"name": "newOwner",
							"type": "address"
						}
					],
					"name": "transferOwnership",
					"outputs": [],
					"stateMutability": "nonpayable",
					"type": "function"
				},
				{
					"inputs": [],
					"name": "zombicCount",
					"outputs": [
						{
							"internalType": "uint256",
							"name": "",
							"type": "uint256"
						}
					],
					"stateMutability": "view",
					"type": "function"
				},
				{
					"inputs": [],
					"name": "zombicPrice",
					"outputs": [
						{
							"internalType": "uint256",
							"name": "",
							"type": "uint256"
						}
					],
					"stateMutability": "view",
					"type": "function"
				},
				{
					"inputs": [
						{
							"internalType": "uint256",
							"name": "",
							"type": "uint256"
						}
					],
					"name": "zombicToOwber",
					"outputs": [
						{
							"internalType": "address",
							"name": "",
							"type": "address"
						}
					],
					"stateMutability": "view",
					"type": "function"
				},
				{
					"inputs": [
						{
							"internalType": "uint256",
							"name": "",
							"type": "uint256"
						}
					],
					"name": "zombics",
					"outputs": [
						{
							"internalType": "string",
							"name": "name",
							"type": "string"
						},
						{
							"internalType": "uint16",
							"name": "dna",
							"type": "uint16"
						},
						{
							"internalType": "uint16",
							"name": "winCount",
							"type": "uint16"
						},
						{
							"internalType": "uint16",
							"name": "loseCount",
							"type": "uint16"
						},
						{
							"internalType": "uint32",
							"name": "level",
							"type": "uint32"
						},
						{
							"internalType": "uint32",
							"name": "cooldownTime",
							"type": "uint32"
						}
					],
					"stateMutability": "view",
					"type": "function"
				}
			],
			"devdoc": {
				"kind": "dev",
				"methods": {
					"transferOwnership(address)": {
						"details": "Allows the current owner to transfer control of the contract to a newOwner.",
						"params": {
							"newOwner": "The address to transfer ownership to."
						}
					}
				},
				"version": 1
			},
			"evm": {
				"assembly": "    /* \"contracts/ZombieFactory.sol\":115:2332  contract ZombicFactory is Ownable {... */\n  mstore(0x40, 0x80)\n    /* \"contracts/ZombieFactory.sol\":236:241  false */\n  0x00\n    /* \"contracts/ZombieFactory.sol\":206:241  bool public checkDeployTest = false */\n  dup1\n  exp(0x0100, 0x14)\n  dup2\n  sload\n  dup2\n  0xff\n  mul\n  not\n  and\n  swap1\n  dup4\n  iszero\n  iszero\n  mul\n  or\n  swap1\n  sstore\n  pop\n    /* \"contracts/ZombieFactory.sol\":284:286  16 */\n  0x10\n    /* \"contracts/ZombieFactory.sol\":267:286  uint dnaDigits = 16 */\n  0x01\n  sstore\n    /* \"contracts/ZombieFactory.sol\":316:325  dnaDigits */\n  sload(0x01)\n    /* \"contracts/ZombieFactory.sol\":310:312  10 */\n  0x0a\n    /* \"contracts/ZombieFactory.sol\":310:325  10 ** dnaDigits */\n  tag_1\n  swap2\n  swap1\n  tag_2\n  jump\t// in\ntag_1:\n    /* \"contracts/ZombieFactory.sol\":292:325  uint dnaModulus = 10 ** dnaDigits */\n  0x02\n  sstore\n    /* \"contracts/ZombieFactory.sol\":377:383  1 days */\n  0x015180\n    /* \"contracts/ZombieFactory.sol\":350:383  uint public cooldownTime = 1 days */\n  0x03\n  sstore\n    /* \"contracts/ZombieFactory.sol\":434:444  0.01 ether */\n  0x2386f26fc10000\n    /* \"contracts/ZombieFactory.sol\":408:444  uint public zombicPrice = 0.01 ether */\n  0x04\n  sstore\n    /* \"contracts/ZombieFactory.sol\":495:496  0 */\n  0x00\n    /* \"contracts/ZombieFactory.sol\":469:496  uint public zombicCount = 0 */\n  0x05\n  sstore\n    /* \"contracts/ZombieFactory.sol\":115:2332  contract ZombicFactory is Ownable {... */\n  callvalue\n  dup1\n  iszero\n  tag_3\n  jumpi\n  0x00\n  dup1\n  revert\ntag_3:\n  pop\n    /* \"contracts/Ownable.sol\":533:543  msg.sender */\n  caller\n    /* \"contracts/Ownable.sol\":525:530  owner */\n  0x00\n  dup1\n    /* \"contracts/Ownable.sol\":525:543  owner = msg.sender */\n  0x0100\n  exp\n  dup2\n  sload\n  dup2\n  0xffffffffffffffffffffffffffffffffffffffff\n  mul\n  not\n  and\n  swap1\n  dup4\n  0xffffffffffffffffffffffffffffffffffffffff\n  and\n  mul\n  or\n  swap1\n  sstore\n  pop\n    /* \"contracts/ZombieFactory.sol\":115:2332  contract ZombicFactory is Ownable {... */\n  jump(tag_6)\n    /* \"#utility.yul\":7:187   */\ntag_7:\n    /* \"#utility.yul\":55:132   */\n  0x4e487b7100000000000000000000000000000000000000000000000000000000\n    /* \"#utility.yul\":52:53   */\n  0x00\n    /* \"#utility.yul\":45:133   */\n  mstore\n    /* \"#utility.yul\":152:156   */\n  0x11\n    /* \"#utility.yul\":149:150   */\n  0x04\n    /* \"#utility.yul\":142:157   */\n  mstore\n    /* \"#utility.yul\":176:180   */\n  0x24\n    /* \"#utility.yul\":173:174   */\n  0x00\n    /* \"#utility.yul\":166:181   */\n  revert\n    /* \"#utility.yul\":193:295   */\ntag_8:\n    /* \"#utility.yul\":235:243   */\n  0x00\n    /* \"#utility.yul\":282:287   */\n  dup2\n    /* \"#utility.yul\":279:280   */\n  0x01\n    /* \"#utility.yul\":275:288   */\n  shr\n    /* \"#utility.yul\":254:288   */\n  swap1\n  pop\n    /* \"#utility.yul\":193:295   */\n  swap2\n  swap1\n  pop\n  jump\t// out\n    /* \"#utility.yul\":301:1149   */\ntag_9:\n    /* \"#utility.yul\":362:367   */\n  0x00\n    /* \"#utility.yul\":369:373   */\n  dup1\n    /* \"#utility.yul\":393:399   */\n  dup3\n    /* \"#utility.yul\":384:399   */\n  swap2\n  pop\n    /* \"#utility.yul\":417:422   */\n  dup4\n    /* \"#utility.yul\":408:422   */\n  swap1\n  pop\n    /* \"#utility.yul\":431:1143   */\ntag_16:\n    /* \"#utility.yul\":452:453   */\n  0x01\n    /* \"#utility.yul\":442:450   */\n  dup6\n    /* \"#utility.yul\":439:454   */\n  gt\n    /* \"#utility.yul\":431:1143   */\n  iszero\n  tag_18\n  jumpi\n    /* \"#utility.yul\":547:551   */\n  dup1\n    /* \"#utility.yul\":542:545   */\n  dup7\n    /* \"#utility.yul\":538:552   */\n  div\n    /* \"#utility.yul\":532:536   */\n  dup2\n    /* \"#utility.yul\":529:553   */\n  gt\n    /* \"#utility.yul\":526:576   */\n  iszero\n  tag_19\n  jumpi\n    /* \"#utility.yul\":556:574   */\n  tag_20\n  tag_7\n  jump\t// in\ntag_20:\n    /* \"#utility.yul\":526:576   */\ntag_19:\n    /* \"#utility.yul\":606:607   */\n  0x01\n    /* \"#utility.yul\":596:604   */\n  dup6\n    /* \"#utility.yul\":592:608   */\n  and\n    /* \"#utility.yul\":589:1040   */\n  iszero\n  tag_21\n  jumpi\n    /* \"#utility.yul\":1021:1025   */\n  dup1\n    /* \"#utility.yul\":1014:1019   */\n  dup3\n    /* \"#utility.yul\":1010:1026   */\n  mul\n    /* \"#utility.yul\":1001:1026   */\n  swap2\n  pop\n    /* \"#utility.yul\":589:1040   */\ntag_21:\n    /* \"#utility.yul\":1071:1075   */\n  dup1\n    /* \"#utility.yul\":1065:1069   */\n  dup2\n    /* \"#utility.yul\":1061:1076   */\n  mul\n    /* \"#utility.yul\":1053:1076   */\n  swap1\n  pop\n    /* \"#utility.yul\":1101:1133   */\n  tag_22\n    /* \"#utility.yul\":1124:1132   */\n  dup6\n    /* \"#utility.yul\":1101:1133   */\n  tag_8\n  jump\t// in\ntag_22:\n    /* \"#utility.yul\":1089:1133   */\n  swap5\n  pop\n    /* \"#utility.yul\":431:1143   */\n  jump(tag_16)\ntag_18:\n    /* \"#utility.yul\":301:1149   */\n  swap5\n  pop\n  swap5\n  swap3\n  pop\n  pop\n  pop\n  jump\t// out\n    /* \"#utility.yul\":1155:2228   */\ntag_10:\n    /* \"#utility.yul\":1209:1214   */\n  0x00\n    /* \"#utility.yul\":1400:1408   */\n  dup3\n    /* \"#utility.yul\":1390:1430   */\n  tag_24\n  jumpi\n    /* \"#utility.yul\":1421:1422   */\n  0x01\n    /* \"#utility.yul\":1412:1422   */\n  swap1\n  pop\n    /* \"#utility.yul\":1423:1428   */\n  jump(tag_23)\n    /* \"#utility.yul\":1390:1430   */\ntag_24:\n    /* \"#utility.yul\":1449:1453   */\n  dup2\n    /* \"#utility.yul\":1439:1475   */\n  tag_25\n  jumpi\n    /* \"#utility.yul\":1466:1467   */\n  0x00\n    /* \"#utility.yul\":1457:1467   */\n  swap1\n  pop\n    /* \"#utility.yul\":1468:1473   */\n  jump(tag_23)\n    /* \"#utility.yul\":1439:1475   */\ntag_25:\n    /* \"#utility.yul\":1535:1539   */\n  dup2\n    /* \"#utility.yul\":1583:1584   */\n  0x01\n    /* \"#utility.yul\":1578:1605   */\n  dup2\n  eq\n  tag_27\n  jumpi\n    /* \"#utility.yul\":1619:1620   */\n  0x02\n    /* \"#utility.yul\":1614:1805   */\n  dup2\n  eq\n  tag_28\n  jumpi\n    /* \"#utility.yul\":1528:1805   */\n  jump(tag_26)\n    /* \"#utility.yul\":1578:1605   */\ntag_27:\n    /* \"#utility.yul\":1596:1597   */\n  0x01\n    /* \"#utility.yul\":1587:1597   */\n  swap2\n  pop\n    /* \"#utility.yul\":1598:1603   */\n  pop\n  jump(tag_23)\n    /* \"#utility.yul\":1614:1805   */\ntag_28:\n    /* \"#utility.yul\":1659:1662   */\n  0xff\n    /* \"#utility.yul\":1649:1657   */\n  dup5\n    /* \"#utility.yul\":1646:1663   */\n  gt\n    /* \"#utility.yul\":1643:1686   */\n  iszero\n  tag_29\n  jumpi\n    /* \"#utility.yul\":1666:1684   */\n  tag_30\n  tag_7\n  jump\t// in\ntag_30:\n    /* \"#utility.yul\":1643:1686   */\ntag_29:\n    /* \"#utility.yul\":1715:1723   */\n  dup4\n    /* \"#utility.yul\":1712:1713   */\n  0x02\n    /* \"#utility.yul\":1708:1724   */\n  exp\n    /* \"#utility.yul\":1699:1724   */\n  swap2\n  pop\n    /* \"#utility.yul\":1750:1753   */\n  dup5\n    /* \"#utility.yul\":1743:1748   */\n  dup3\n    /* \"#utility.yul\":1740:1754   */\n  gt\n    /* \"#utility.yul\":1737:1777   */\n  iszero\n  tag_31\n  jumpi\n    /* \"#utility.yul\":1757:1775   */\n  tag_32\n  tag_7\n  jump\t// in\ntag_32:\n    /* \"#utility.yul\":1737:1777   */\ntag_31:\n    /* \"#utility.yul\":1790:1795   */\n  pop\n  jump(tag_23)\n    /* \"#utility.yul\":1528:1805   */\ntag_26:\n  pop\n    /* \"#utility.yul\":1914:1916   */\n  0x20\n    /* \"#utility.yul\":1904:1912   */\n  dup4\n    /* \"#utility.yul\":1901:1917   */\n  lt\n    /* \"#utility.yul\":1895:1898   */\n  0x0133\n    /* \"#utility.yul\":1889:1893   */\n  dup4\n    /* \"#utility.yul\":1886:1899   */\n  lt\n    /* \"#utility.yul\":1882:1918   */\n  and\n    /* \"#utility.yul\":1864:1866   */\n  0x4e\n    /* \"#utility.yul\":1854:1862   */\n  dup5\n    /* \"#utility.yul\":1851:1867   */\n  lt\n    /* \"#utility.yul\":1846:1848   */\n  0x0b\n    /* \"#utility.yul\":1840:1844   */\n  dup5\n    /* \"#utility.yul\":1837:1849   */\n  lt\n    /* \"#utility.yul\":1833:1868   */\n  and\n    /* \"#utility.yul\":1817:1928   */\n  or\n    /* \"#utility.yul\":1814:2060   */\n  iszero\n  tag_33\n  jumpi\n    /* \"#utility.yul\":1970:1978   */\n  dup3\n    /* \"#utility.yul\":1964:1968   */\n  dup3\n    /* \"#utility.yul\":1960:1979   */\n  exp\n    /* \"#utility.yul\":1951:1979   */\n  swap1\n  pop\n    /* \"#utility.yul\":2005:2008   */\n  dup4\n    /* \"#utility.yul\":1998:2003   */\n  dup2\n    /* \"#utility.yul\":1995:2009   */\n  gt\n    /* \"#utility.yul\":1992:2032   */\n  iszero\n  tag_34\n  jumpi\n    /* \"#utility.yul\":2012:2030   */\n  tag_35\n  tag_7\n  jump\t// in\ntag_35:\n    /* \"#utility.yul\":1992:2032   */\ntag_34:\n    /* \"#utility.yul\":2045:2050   */\n  jump(tag_23)\n    /* \"#utility.yul\":1814:2060   */\ntag_33:\n    /* \"#utility.yul\":2085:2127   */\n  tag_36\n    /* \"#utility.yul\":2123:2126   */\n  dup5\n    /* \"#utility.yul\":2113:2121   */\n  dup5\n    /* \"#utility.yul\":2107:2111   */\n  dup5\n    /* \"#utility.yul\":2104:2105   */\n  0x01\n    /* \"#utility.yul\":2085:2127   */\n  tag_9\n  jump\t// in\ntag_36:\n    /* \"#utility.yul\":2070:2127   */\n  swap3\n  pop\n  swap1\n  pop\n    /* \"#utility.yul\":2159:2163   */\n  dup2\n    /* \"#utility.yul\":2154:2157   */\n  dup5\n    /* \"#utility.yul\":2150:2164   */\n  div\n    /* \"#utility.yul\":2143:2148   */\n  dup2\n    /* \"#utility.yul\":2140:2165   */\n  gt\n    /* \"#utility.yul\":2137:2188   */\n  iszero\n  tag_37\n  jumpi\n    /* \"#utility.yul\":2168:2186   */\n  tag_38\n  tag_7\n  jump\t// in\ntag_38:\n    /* \"#utility.yul\":2137:2188   */\ntag_37:\n    /* \"#utility.yul\":2217:2221   */\n  dup2\n    /* \"#utility.yul\":2210:2215   */\n  dup2\n    /* \"#utility.yul\":2206:2222   */\n  mul\n    /* \"#utility.yul\":2197:2222   */\n  swap1\n  pop\n    /* \"#utility.yul\":1155:2228   */\ntag_23:\n  swap4\n  swap3\n  pop\n  pop\n  pop\n  jump\t// out\n    /* \"#utility.yul\":2234:2311   */\ntag_11:\n    /* \"#utility.yul\":2271:2278   */\n  0x00\n    /* \"#utility.yul\":2300:2305   */\n  dup2\n    /* \"#utility.yul\":2289:2305   */\n  swap1\n  pop\n    /* \"#utility.yul\":2234:2311   */\n  swap2\n  swap1\n  pop\n  jump\t// out\n    /* \"#utility.yul\":2317:2602   */\ntag_2:\n    /* \"#utility.yul\":2377:2382   */\n  0x00\n    /* \"#utility.yul\":2401:2424   */\n  tag_41\n    /* \"#utility.yul\":2419:2423   */\n  dup3\n    /* \"#utility.yul\":2401:2424   */\n  tag_11\n  jump\t// in\ntag_41:\n    /* \"#utility.yul\":2393:2424   */\n  swap2\n  pop\n    /* \"#utility.yul\":2445:2472   */\n  tag_42\n    /* \"#utility.yul\":2463:2471   */\n  dup4\n    /* \"#utility.yul\":2445:2472   */\n  tag_11\n  jump\t// in\ntag_42:\n    /* \"#utility.yul\":2433:2472   */\n  swap3\n  pop\n    /* \"#utility.yul\":2491:2595   */\n  tag_43\n    /* \"#utility.yul\":2528:2594   */\n  0xffffffffffffffffffffffffffffffffffffffffffffffffffffffffffffffff\n    /* \"#utility.yul\":2518:2526   */\n  dup5\n    /* \"#utility.yul\":2512:2516   */\n  dup5\n    /* \"#utility.yul\":2491:2595   */\n  tag_10\n  jump\t// in\ntag_43:\n    /* \"#utility.yul\":2482:2595   */\n  swap1\n  pop\n    /* \"#utility.yul\":2317:2602   */\n  swap3\n  swap2\n  pop\n  pop\n  jump\t// out\n    /* \"contracts/ZombieFactory.sol\":115:2332  contract ZombicFactory is Ownable {... */\ntag_6:\n  dataSize(sub_0)\n  dup1\n  dataOffset(sub_0)\n  0x00\n  codecopy\n  0x00\n  return\nstop\n\nsub_0: assembly {\n        /* \"contracts/ZombieFactory.sol\":115:2332  contract ZombicFactory is Ownable {... */\n      mstore(0x40, 0x80)\n      jumpi(tag_1, lt(calldatasize, 0x04))\n      shr(0xe0, calldataload(0x00))\n      dup1\n      0x8da5cb5b\n      gt\n      tag_13\n      jumpi\n      dup1\n      0x8da5cb5b\n      eq\n      tag_7\n      jumpi\n      dup1\n      0xa38d7e5b\n      eq\n      tag_8\n      jumpi\n      dup1\n      0xb319c6b7\n      eq\n      tag_9\n      jumpi\n      dup1\n      0xe7eb1214\n      eq\n      tag_10\n      jumpi\n      dup1\n      0xf2fde38b\n      eq\n      tag_11\n      jumpi\n      dup1\n      0xf94f0593\n      eq\n      tag_12\n      jumpi\n      jump(tag_1)\n    tag_13:\n      dup1\n      0x02f4db2f\n      eq\n      tag_2\n      jumpi\n      dup1\n      0x206c8db4\n      eq\n      tag_3\n      jumpi\n      dup1\n      0x3ece8f6f\n      eq\n      tag_4\n      jumpi\n      dup1\n      0x5e0b8654\n      eq\n      tag_5\n      jumpi\n      dup1\n      0x6de2e36c\n      eq\n      tag_6\n      jumpi\n    tag_1:\n      0x00\n      dup1\n      revert\n        /* \"contracts/ZombieFactory.sol\":469:496  uint public zombicCount = 0 */\n    tag_2:\n      callvalue\n      dup1\n      iszero\n      tag_14\n      jumpi\n      0x00\n      dup1\n      revert\n    tag_14:\n      pop\n      tag_15\n      tag_16\n      jump\t// in\n    tag_15:\n      mload(0x40)\n      tag_17\n      swap2\n      swap1\n      tag_18\n      jump\t// in\n    tag_17:\n      mload(0x40)\n      dup1\n      swap2\n      sub\n      swap1\n      return\n        /* \"contracts/ZombieFactory.sol\":206:241  bool public checkDeployTest = false */\n    tag_3:\n      callvalue\n      dup1\n      iszero\n      tag_19\n      jumpi\n      0x00\n      dup1\n      revert\n    tag_19:\n      pop\n      tag_20\n      tag_21\n      jump\t// in\n    tag_20:\n      mload(0x40)\n      tag_22\n      swap2\n      swap1\n      tag_23\n      jump\t// in\n    tag_22:\n      mload(0x40)\n      dup1\n      swap2\n      sub\n      swap1\n      return\n        /* \"contracts/ZombieFactory.sol\":408:444  uint public zombicPrice = 0.01 ether */\n    tag_4:\n      callvalue\n      dup1\n      iszero\n      tag_24\n      jumpi\n      0x00\n      dup1\n      revert\n    tag_24:\n      pop\n      tag_25\n      tag_26\n      jump\t// in\n    tag_25:\n      mload(0x40)\n      tag_27\n      swap2\n      swap1\n      tag_18\n      jump\t// in\n    tag_27:\n      mload(0x40)\n      dup1\n      swap2\n      sub\n      swap1\n      return\n        /* \"contracts/ZombieFactory.sol\":723:746  Zombic[] public zombics */\n    tag_5:\n      callvalue\n      dup1\n      iszero\n      tag_28\n      jumpi\n      0x00\n      dup1\n      revert\n    tag_28:\n      pop\n      tag_29\n      0x04\n      dup1\n      calldatasize\n      sub\n      dup2\n      add\n      swap1\n      tag_30\n      swap2\n      swap1\n      tag_31\n      jump\t// in\n    tag_30:\n      tag_32\n      jump\t// in\n    tag_29:\n      mload(0x40)\n      tag_33\n      swap7\n      swap6\n      swap5\n      swap4\n      swap3\n      swap2\n      swap1\n      tag_34\n      jump\t// in\n    tag_33:\n      mload(0x40)\n      dup1\n      swap2\n      sub\n      swap1\n      return\n        /* \"contracts/ZombieFactory.sol\":785:830  mapping(uint => address) public zombicToOwber */\n    tag_6:\n      callvalue\n      dup1\n      iszero\n      tag_35\n      jumpi\n      0x00\n      dup1\n      revert\n    tag_35:\n      pop\n      tag_36\n      0x04\n      dup1\n      calldatasize\n      sub\n      dup2\n      add\n      swap1\n      tag_37\n      swap2\n      swap1\n      tag_31\n      jump\t// in\n    tag_37:\n      tag_38\n      jump\t// in\n    tag_36:\n      mload(0x40)\n      tag_39\n      swap2\n      swap1\n      tag_40\n      jump\t// in\n    tag_39:\n      mload(0x40)\n      dup1\n      swap2\n      sub\n      swap1\n      return\n        /* \"contracts/Ownable.sol\":277:297  address public owner */\n    tag_7:\n      callvalue\n      dup1\n      iszero\n      tag_41\n      jumpi\n      0x00\n      dup1\n      revert\n    tag_41:\n      pop\n      tag_42\n      tag_43\n      jump\t// in\n    tag_42:\n      mload(0x40)\n      tag_44\n      swap2\n      swap1\n      tag_40\n      jump\t// in\n    tag_44:\n      mload(0x40)\n      dup1\n      swap2\n      sub\n      swap1\n      return\n        /* \"contracts/ZombieFactory.sol\":1680:1933  function createZombic(string memory _name) public {... */\n    tag_8:\n      callvalue\n      dup1\n      iszero\n      tag_45\n      jumpi\n      0x00\n      dup1\n      revert\n    tag_45:\n      pop\n      tag_46\n      0x04\n      dup1\n      calldatasize\n      sub\n      dup2\n      add\n      swap1\n      tag_47\n      swap2\n      swap1\n      tag_48\n      jump\t// in\n    tag_47:\n      tag_49\n      jump\t// in\n    tag_46:\n      stop\n        /* \"contracts/ZombieFactory.sol\":350:383  uint public cooldownTime = 1 days */\n    tag_9:\n      callvalue\n      dup1\n      iszero\n      tag_50\n      jumpi\n      0x00\n      dup1\n      revert\n    tag_50:\n      pop\n      tag_51\n      tag_52\n      jump\t// in\n    tag_51:\n      mload(0x40)\n      tag_53\n      swap2\n      swap1\n      tag_18\n      jump\t// in\n    tag_53:\n      mload(0x40)\n      dup1\n      swap2\n      sub\n      swap1\n      return\n        /* \"contracts/ZombieFactory.sol\":2238:2330  function setZombicPrice(uint _price) external onlyOwner{... */\n    tag_10:\n      callvalue\n      dup1\n      iszero\n      tag_54\n      jumpi\n      0x00\n      dup1\n      revert\n    tag_54:\n      pop\n      tag_55\n      0x04\n      dup1\n      calldatasize\n      sub\n      dup2\n      add\n      swap1\n      tag_56\n      swap2\n      swap1\n      tag_31\n      jump\t// in\n    tag_56:\n      tag_57\n      jump\t// in\n    tag_55:\n      stop\n        /* \"contracts/Ownable.sol\":880:1084  function transferOwnership(address payable newOwner) public onlyOwner {... */\n    tag_11:\n      callvalue\n      dup1\n      iszero\n      tag_58\n      jumpi\n      0x00\n      dup1\n      revert\n    tag_58:\n      pop\n      tag_59\n      0x04\n      dup1\n      calldatasize\n      sub\n      dup2\n      add\n      swap1\n      tag_60\n      swap2\n      swap1\n      tag_61\n      jump\t// in\n    tag_60:\n      tag_62\n      jump\t// in\n    tag_59:\n      stop\n        /* \"contracts/ZombieFactory.sol\":1939:2232  function buyZombic(string memory _name) public payable {... */\n    tag_12:\n      tag_63\n      0x04\n      dup1\n      calldatasize\n      sub\n      dup2\n      add\n      swap1\n      tag_64\n      swap2\n      swap1\n      tag_48\n      jump\t// in\n    tag_64:\n      tag_65\n      jump\t// in\n    tag_63:\n      stop\n        /* \"contracts/ZombieFactory.sol\":469:496  uint public zombicCount = 0 */\n    tag_16:\n      sload(0x05)\n      dup2\n      jump\t// out\n        /* \"contracts/ZombieFactory.sol\":206:241  bool public checkDeployTest = false */\n    tag_21:\n      0x00\n      0x14\n      swap1\n      sload\n      swap1\n      0x0100\n      exp\n      swap1\n      div\n      0xff\n      and\n      dup2\n      jump\t// out\n        /* \"contracts/ZombieFactory.sol\":408:444  uint public zombicPrice = 0.01 ether */\n    tag_26:\n      sload(0x04)\n      dup2\n      jump\t// out\n        /* \"contracts/ZombieFactory.sol\":723:746  Zombic[] public zombics */\n    tag_32:\n      0x06\n      dup2\n      dup2\n      sload\n      dup2\n      lt\n      tag_66\n      jumpi\n      0x00\n      dup1\n      revert\n    tag_66:\n      swap1\n      0x00\n      mstore\n      keccak256(0x00, 0x20)\n      swap1\n      0x02\n      mul\n      add\n      0x00\n      swap2\n      pop\n      swap1\n      pop\n      dup1\n      0x00\n      add\n      dup1\n      sload\n      tag_68\n      swap1\n      tag_69\n      jump\t// in\n    tag_68:\n      dup1\n      0x1f\n      add\n      0x20\n      dup1\n      swap2\n      div\n      mul\n      0x20\n      add\n      mload(0x40)\n      swap1\n      dup2\n      add\n      0x40\n      mstore\n      dup1\n      swap3\n      swap2\n      swap1\n      dup2\n      dup2\n      mstore\n      0x20\n      add\n      dup3\n      dup1\n      sload\n      tag_70\n      swap1\n      tag_69\n      jump\t// in\n    tag_70:\n      dup1\n      iszero\n      tag_71\n      jumpi\n      dup1\n      0x1f\n      lt\n      tag_72\n      jumpi\n      0x0100\n      dup1\n      dup4\n      sload\n      div\n      mul\n      dup4\n      mstore\n      swap2\n      0x20\n      add\n      swap2\n      jump(tag_71)\n    tag_72:\n      dup3\n      add\n      swap2\n      swap1\n      0x00\n      mstore\n      keccak256(0x00, 0x20)\n      swap1\n    tag_73:\n      dup2\n      sload\n      dup2\n      mstore\n      swap1\n      0x01\n      add\n      swap1\n      0x20\n      add\n      dup1\n      dup4\n      gt\n      tag_73\n      jumpi\n      dup3\n      swap1\n      sub\n      0x1f\n      and\n      dup3\n      add\n      swap2\n    tag_71:\n      pop\n      pop\n      pop\n      pop\n      pop\n      swap1\n      dup1\n      0x01\n      add\n      0x00\n      swap1\n      sload\n      swap1\n      0x0100\n      exp\n      swap1\n      div\n      0xffff\n      and\n      swap1\n      dup1\n      0x01\n      add\n      0x02\n      swap1\n      sload\n      swap1\n      0x0100\n      exp\n      swap1\n      div\n      0xffff\n      and\n      swap1\n      dup1\n      0x01\n      add\n      0x04\n      swap1\n      sload\n      swap1\n      0x0100\n      exp\n      swap1\n      div\n      0xffff\n      and\n      swap1\n      dup1\n      0x01\n      add\n      0x06\n      swap1\n      sload\n      swap1\n      0x0100\n      exp\n      swap1\n      div\n      0xffffffff\n      and\n      swap1\n      dup1\n      0x01\n      add\n      0x0a\n      swap1\n      sload\n      swap1\n      0x0100\n      exp\n      swap1\n      div\n      0xffffffff\n      and\n      swap1\n      pop\n      dup7\n      jump\t// out\n        /* \"contracts/ZombieFactory.sol\":785:830  mapping(uint => address) public zombicToOwber */\n    tag_38:\n      mstore(0x20, 0x07)\n      dup1\n      0x00\n      mstore\n      keccak256(0x00, 0x40)\n      0x00\n      swap2\n      pop\n      sload\n      swap1\n      0x0100\n      exp\n      swap1\n      div\n      0xffffffffffffffffffffffffffffffffffffffff\n      and\n      dup2\n      jump\t// out\n        /* \"contracts/Ownable.sol\":277:297  address public owner */\n    tag_43:\n      0x00\n      dup1\n      sload\n      swap1\n      0x0100\n      exp\n      swap1\n      div\n      0xffffffffffffffffffffffffffffffffffffffff\n      and\n      dup2\n      jump\t// out\n        /* \"contracts/ZombieFactory.sol\":1680:1933  function createZombic(string memory _name) public {... */\n    tag_49:\n        /* \"contracts/ZombieFactory.sol\":1780:1781  0 */\n      0x00\n        /* \"contracts/ZombieFactory.sol\":1748:1764  ownerZombicCount */\n      0x08\n        /* \"contracts/ZombieFactory.sol\":1748:1776  ownerZombicCount[msg.sender] */\n      0x00\n        /* \"contracts/ZombieFactory.sol\":1765:1775  msg.sender */\n      caller\n        /* \"contracts/ZombieFactory.sol\":1748:1776  ownerZombicCount[msg.sender] */\n      0xffffffffffffffffffffffffffffffffffffffff\n      and\n      0xffffffffffffffffffffffffffffffffffffffff\n      and\n      dup2\n      mstore\n      0x20\n      add\n      swap1\n      dup2\n      mstore\n      0x20\n      add\n      0x00\n      keccak256\n      sload\n        /* \"contracts/ZombieFactory.sol\":1748:1781  ownerZombicCount[msg.sender] == 0 */\n      eq\n        /* \"contracts/ZombieFactory.sol\":1740:1791  require(ownerZombicCount[msg.sender] == 0, \"error\") */\n      tag_75\n      jumpi\n      mload(0x40)\n      0x08c379a000000000000000000000000000000000000000000000000000000000\n      dup2\n      mstore\n      0x04\n      add\n      tag_76\n      swap1\n      tag_77\n      jump\t// in\n    tag_76:\n      mload(0x40)\n      dup1\n      swap2\n      sub\n      swap1\n      revert\n    tag_75:\n        /* \"contracts/ZombieFactory.sol\":1801:1815  uint16 randDna */\n      0x00\n        /* \"contracts/ZombieFactory.sol\":1818:1843  _generateRandomDna(_name) */\n      tag_78\n        /* \"contracts/ZombieFactory.sol\":1837:1842  _name */\n      dup3\n        /* \"contracts/ZombieFactory.sol\":1818:1836  _generateRandomDna */\n      tag_79\n        /* \"contracts/ZombieFactory.sol\":1818:1843  _generateRandomDna(_name) */\n      jump\t// in\n    tag_78:\n        /* \"contracts/ZombieFactory.sol\":1801:1843  uint16 randDna = _generateRandomDna(_name) */\n      swap1\n      pop\n        /* \"contracts/ZombieFactory.sol\":1884:1886  10 */\n      0x0a\n        /* \"contracts/ZombieFactory.sol\":1874:1881  randDna */\n      dup2\n        /* \"contracts/ZombieFactory.sol\":1874:1886  randDna % 10 */\n      tag_80\n      swap2\n      swap1\n      tag_81\n      jump\t// in\n    tag_80:\n        /* \"contracts/ZombieFactory.sol\":1863:1870  randDna */\n      dup2\n        /* \"contracts/ZombieFactory.sol\":1863:1887  randDna - (randDna % 10) */\n      tag_82\n      swap2\n      swap1\n      tag_83\n      jump\t// in\n    tag_82:\n        /* \"contracts/ZombieFactory.sol\":1853:1887  randDna = randDna - (randDna % 10) */\n      swap1\n      pop\n        /* \"contracts/ZombieFactory.sol\":1897:1926  _createZombic(_name, randDna) */\n      tag_84\n        /* \"contracts/ZombieFactory.sol\":1911:1916  _name */\n      dup3\n        /* \"contracts/ZombieFactory.sol\":1918:1925  randDna */\n      dup3\n        /* \"contracts/ZombieFactory.sol\":1897:1910  _createZombic */\n      tag_85\n        /* \"contracts/ZombieFactory.sol\":1897:1926  _createZombic(_name, randDna) */\n      jump\t// in\n    tag_84:\n        /* \"contracts/ZombieFactory.sol\":1730:1933  {... */\n      pop\n        /* \"contracts/ZombieFactory.sol\":1680:1933  function createZombic(string memory _name) public {... */\n      pop\n      jump\t// out\n        /* \"contracts/ZombieFactory.sol\":350:383  uint public cooldownTime = 1 days */\n    tag_52:\n      sload(0x03)\n      dup2\n      jump\t// out\n        /* \"contracts/ZombieFactory.sol\":2238:2330  function setZombicPrice(uint _price) external onlyOwner{... */\n    tag_57:\n        /* \"contracts/Ownable.sol\":678:683  owner */\n      0x00\n      dup1\n      sload\n      swap1\n      0x0100\n      exp\n      swap1\n      div\n      0xffffffffffffffffffffffffffffffffffffffff\n      and\n        /* \"contracts/Ownable.sol\":664:683  msg.sender == owner */\n      0xffffffffffffffffffffffffffffffffffffffff\n      and\n        /* \"contracts/Ownable.sol\":664:674  msg.sender */\n      caller\n        /* \"contracts/Ownable.sol\":664:683  msg.sender == owner */\n      0xffffffffffffffffffffffffffffffffffffffff\n      and\n      eq\n        /* \"contracts/Ownable.sol\":656:706  require(msg.sender == owner,'Must contract owner') */\n      tag_87\n      jumpi\n      mload(0x40)\n      0x08c379a000000000000000000000000000000000000000000000000000000000\n      dup2\n      mstore\n      0x04\n      add\n      tag_88\n      swap1\n      tag_89\n      jump\t// in\n    tag_88:\n      mload(0x40)\n      dup1\n      swap2\n      sub\n      swap1\n      revert\n    tag_87:\n        /* \"contracts/ZombieFactory.sol\":2317:2323  _price */\n      dup1\n        /* \"contracts/ZombieFactory.sol\":2303:2314  zombicPrice */\n      0x04\n        /* \"contracts/ZombieFactory.sol\":2303:2323  zombicPrice = _price */\n      dup2\n      swap1\n      sstore\n      pop\n        /* \"contracts/ZombieFactory.sol\":2238:2330  function setZombicPrice(uint _price) external onlyOwner{... */\n      pop\n      jump\t// out\n        /* \"contracts/Ownable.sol\":880:1084  function transferOwnership(address payable newOwner) public onlyOwner {... */\n    tag_62:\n        /* \"contracts/Ownable.sol\":678:683  owner */\n      0x00\n      dup1\n      sload\n      swap1\n      0x0100\n      exp\n      swap1\n      div\n      0xffffffffffffffffffffffffffffffffffffffff\n      and\n        /* \"contracts/Ownable.sol\":664:683  msg.sender == owner */\n      0xffffffffffffffffffffffffffffffffffffffff\n      and\n        /* \"contracts/Ownable.sol\":664:674  msg.sender */\n      caller\n        /* \"contracts/Ownable.sol\":664:683  msg.sender == owner */\n      0xffffffffffffffffffffffffffffffffffffffff\n      and\n      eq\n        /* \"contracts/Ownable.sol\":656:706  require(msg.sender == owner,'Must contract owner') */\n      tag_92\n      jumpi\n      mload(0x40)\n      0x08c379a000000000000000000000000000000000000000000000000000000000\n      dup2\n      mstore\n      0x04\n      add\n      tag_93\n      swap1\n      tag_89\n      jump\t// in\n    tag_93:\n      mload(0x40)\n      dup1\n      swap2\n      sub\n      swap1\n      revert\n    tag_92:\n        /* \"contracts/Ownable.sol\":984:985  0 */\n      0x00\n        /* \"contracts/Ownable.sol\":964:986  newOwner != address(0) */\n      0xffffffffffffffffffffffffffffffffffffffff\n      and\n        /* \"contracts/Ownable.sol\":964:972  newOwner */\n      dup2\n        /* \"contracts/Ownable.sol\":964:986  newOwner != address(0) */\n      0xffffffffffffffffffffffffffffffffffffffff\n      and\n      sub\n        /* \"contracts/Ownable.sol\":956:1009  require(newOwner != address(0),'Must contract owner') */\n      tag_95\n      jumpi\n      mload(0x40)\n      0x08c379a000000000000000000000000000000000000000000000000000000000\n      dup2\n      mstore\n      0x04\n      add\n      tag_96\n      swap1\n      tag_89\n      jump\t// in\n    tag_96:\n      mload(0x40)\n      dup1\n      swap2\n      sub\n      swap1\n      revert\n    tag_95:\n        /* \"contracts/Ownable.sol\":1048:1056  newOwner */\n      dup1\n        /* \"contracts/Ownable.sol\":1020:1057  OwnershipTransferred(owner, newOwner) */\n      0xffffffffffffffffffffffffffffffffffffffff\n      and\n        /* \"contracts/Ownable.sol\":1041:1046  owner */\n      0x00\n      dup1\n      sload\n      swap1\n      0x0100\n      exp\n      swap1\n      div\n      0xffffffffffffffffffffffffffffffffffffffff\n      and\n        /* \"contracts/Ownable.sol\":1020:1057  OwnershipTransferred(owner, newOwner) */\n      0xffffffffffffffffffffffffffffffffffffffff\n      and\n      0x8be0079c531659141344cd1fd0a4f28419497f9722a3daafe3b4186f6b6457e0\n      mload(0x40)\n      mload(0x40)\n      dup1\n      swap2\n      sub\n      swap1\n      log3\n        /* \"contracts/Ownable.sol\":1071:1079  newOwner */\n      dup1\n        /* \"contracts/Ownable.sol\":1063:1068  owner */\n      0x00\n      dup1\n        /* \"contracts/Ownable.sol\":1063:1079  owner = newOwner */\n      0x0100\n      exp\n      dup2\n      sload\n      dup2\n      0xffffffffffffffffffffffffffffffffffffffff\n      mul\n      not\n      and\n      swap1\n      dup4\n      0xffffffffffffffffffffffffffffffffffffffff\n      and\n      mul\n      or\n      swap1\n      sstore\n      pop\n        /* \"contracts/Ownable.sol\":880:1084  function transferOwnership(address payable newOwner) public onlyOwner {... */\n      pop\n      jump\t// out\n        /* \"contracts/ZombieFactory.sol\":1939:2232  function buyZombic(string memory _name) public payable {... */\n    tag_65:\n        /* \"contracts/ZombieFactory.sol\":2043:2044  0 */\n      0x00\n        /* \"contracts/ZombieFactory.sol\":2012:2028  ownerZombicCount */\n      0x08\n        /* \"contracts/ZombieFactory.sol\":2012:2040  ownerZombicCount[msg.sender] */\n      0x00\n        /* \"contracts/ZombieFactory.sol\":2029:2039  msg.sender */\n      caller\n        /* \"contracts/ZombieFactory.sol\":2012:2040  ownerZombicCount[msg.sender] */\n      0xffffffffffffffffffffffffffffffffffffffff\n      and\n      0xffffffffffffffffffffffffffffffffffffffff\n      and\n      dup2\n      mstore\n      0x20\n      add\n      swap1\n      dup2\n      mstore\n      0x20\n      add\n      0x00\n      keccak256\n      sload\n        /* \"contracts/ZombieFactory.sol\":2012:2044  ownerZombicCount[msg.sender] > 0 */\n      gt\n        /* \"contracts/ZombieFactory.sol\":2004:2054  require(ownerZombicCount[msg.sender] > 0, \"error\") */\n      tag_98\n      jumpi\n      mload(0x40)\n      0x08c379a000000000000000000000000000000000000000000000000000000000\n      dup2\n      mstore\n      0x04\n      add\n      tag_99\n      swap1\n      tag_77\n      jump\t// in\n    tag_99:\n      mload(0x40)\n      dup1\n      swap2\n      sub\n      swap1\n      revert\n    tag_98:\n        /* \"contracts/ZombieFactory.sol\":2084:2095  zombicPrice */\n      sload(0x04)\n        /* \"contracts/ZombieFactory.sol\":2072:2081  msg.value */\n      callvalue\n        /* \"contracts/ZombieFactory.sol\":2072:2095  msg.value > zombicPrice */\n      gt\n        /* \"contracts/ZombieFactory.sol\":2064:2105  require(msg.value > zombicPrice, \"error\") */\n      tag_100\n      jumpi\n      mload(0x40)\n      0x08c379a000000000000000000000000000000000000000000000000000000000\n      dup2\n      mstore\n      0x04\n      add\n      tag_101\n      swap1\n      tag_77\n      jump\t// in\n    tag_101:\n      mload(0x40)\n      dup1\n      swap2\n      sub\n      swap1\n      revert\n    tag_100:\n        /* \"contracts/ZombieFactory.sol\":2116:2126  uint16 dna */\n      0x00\n        /* \"contracts/ZombieFactory.sol\":2129:2154  _generateRandomDna(_name) */\n      tag_102\n        /* \"contracts/ZombieFactory.sol\":2148:2153  _name */\n      dup3\n        /* \"contracts/ZombieFactory.sol\":2129:2147  _generateRandomDna */\n      tag_79\n        /* \"contracts/ZombieFactory.sol\":2129:2154  _generateRandomDna(_name) */\n      jump\t// in\n    tag_102:\n        /* \"contracts/ZombieFactory.sol\":2116:2154  uint16 dna = _generateRandomDna(_name) */\n      swap1\n      pop\n        /* \"contracts/ZombieFactory.sol\":2189:2190  1 */\n      0x01\n        /* \"contracts/ZombieFactory.sol\":2183:2185  10 */\n      0x0a\n        /* \"contracts/ZombieFactory.sol\":2177:2180  dna */\n      dup3\n        /* \"contracts/ZombieFactory.sol\":2177:2185  dna % 10 */\n      tag_103\n      swap2\n      swap1\n      tag_81\n      jump\t// in\n    tag_103:\n        /* \"contracts/ZombieFactory.sol\":2170:2173  dna */\n      dup3\n        /* \"contracts/ZombieFactory.sol\":2170:2186  dna - (dna % 10) */\n      tag_104\n      swap2\n      swap1\n      tag_83\n      jump\t// in\n    tag_104:\n        /* \"contracts/ZombieFactory.sol\":2170:2190  dna - (dna % 10) + 1 */\n      tag_105\n      swap2\n      swap1\n      tag_106\n      jump\t// in\n    tag_105:\n        /* \"contracts/ZombieFactory.sol\":2164:2190  dna = dna - (dna % 10) + 1 */\n      swap1\n      pop\n        /* \"contracts/ZombieFactory.sol\":2200:2225  _createZombic(_name, dna) */\n      tag_107\n        /* \"contracts/ZombieFactory.sol\":2214:2219  _name */\n      dup3\n        /* \"contracts/ZombieFactory.sol\":2221:2224  dna */\n      dup3\n        /* \"contracts/ZombieFactory.sol\":2200:2213  _createZombic */\n      tag_85\n        /* \"contracts/ZombieFactory.sol\":2200:2225  _createZombic(_name, dna) */\n      jump\t// in\n    tag_107:\n        /* \"contracts/ZombieFactory.sol\":1994:2232  {... */\n      pop\n        /* \"contracts/ZombieFactory.sol\":1939:2232  function buyZombic(string memory _name) public payable {... */\n      pop\n      jump\t// out\n        /* \"contracts/ZombieFactory.sol\":1048:1303  function _generateRandomDna(... */\n    tag_79:\n        /* \"contracts/ZombieFactory.sol\":1132:1138  uint16 */\n      0x00\n        /* \"contracts/ZombieFactory.sol\":1272:1282  dnaModulus */\n      sload(0x02)\n        /* \"contracts/ZombieFactory.sol\":1225:1229  _str */\n      dup3\n        /* \"contracts/ZombieFactory.sol\":1231:1246  block.timestamp */\n      timestamp\n        /* \"contracts/ZombieFactory.sol\":1208:1247  abi.encodePacked(_str, block.timestamp) */\n      add(0x20, mload(0x40))\n      tag_109\n      swap3\n      swap2\n      swap1\n      tag_110\n      jump\t// in\n    tag_109:\n      mload(0x40)\n      0x20\n      dup2\n      dup4\n      sub\n      sub\n      dup2\n      mstore\n      swap1\n      0x40\n      mstore\n        /* \"contracts/ZombieFactory.sol\":1198:1248  keccak256(abi.encodePacked(_str, block.timestamp)) */\n      dup1\n      mload\n      swap1\n      0x20\n      add\n      keccak256\n        /* \"contracts/ZombieFactory.sol\":1193:1249  uint(keccak256(abi.encodePacked(_str, block.timestamp))) */\n      0x00\n      shr\n        /* \"contracts/ZombieFactory.sol\":1193:1282  uint(keccak256(abi.encodePacked(_str, block.timestamp))) %... */\n      tag_111\n      swap2\n      swap1\n      tag_112\n      jump\t// in\n    tag_111:\n        /* \"contracts/ZombieFactory.sol\":1150:1296  return... */\n      swap1\n      pop\n        /* \"contracts/ZombieFactory.sol\":1048:1303  function _generateRandomDna(... */\n      swap2\n      swap1\n      pop\n      jump\t// out\n        /* \"contracts/ZombieFactory.sol\":1309:1674  function _createZombic(string memory _name, uint16 _dna) internal {... */\n    tag_85:\n        /* \"contracts/ZombieFactory.sol\":1385:1392  zombics */\n      0x06\n        /* \"contracts/ZombieFactory.sol\":1398:1429  Zombic(_name, _dna, 0, 0, 1, 0) */\n      mload(0x40)\n      dup1\n      0xc0\n      add\n      0x40\n      mstore\n      dup1\n        /* \"contracts/ZombieFactory.sol\":1405:1410  _name */\n      dup5\n        /* \"contracts/ZombieFactory.sol\":1398:1429  Zombic(_name, _dna, 0, 0, 1, 0) */\n      dup2\n      mstore\n      0x20\n      add\n        /* \"contracts/ZombieFactory.sol\":1412:1416  _dna */\n      dup4\n        /* \"contracts/ZombieFactory.sol\":1398:1429  Zombic(_name, _dna, 0, 0, 1, 0) */\n      0xffff\n      and\n      dup2\n      mstore\n      0x20\n      add\n        /* \"contracts/ZombieFactory.sol\":1418:1419  0 */\n      0x00\n        /* \"contracts/ZombieFactory.sol\":1398:1429  Zombic(_name, _dna, 0, 0, 1, 0) */\n      0xffff\n      and\n      dup2\n      mstore\n      0x20\n      add\n        /* \"contracts/ZombieFactory.sol\":1421:1422  0 */\n      0x00\n        /* \"contracts/ZombieFactory.sol\":1398:1429  Zombic(_name, _dna, 0, 0, 1, 0) */\n      0xffff\n      and\n      dup2\n      mstore\n      0x20\n      add\n        /* \"contracts/ZombieFactory.sol\":1424:1425  1 */\n      0x01\n        /* \"contracts/ZombieFactory.sol\":1398:1429  Zombic(_name, _dna, 0, 0, 1, 0) */\n      0xffffffff\n      and\n      dup2\n      mstore\n      0x20\n      add\n        /* \"contracts/ZombieFactory.sol\":1427:1428  0 */\n      0x00\n        /* \"contracts/ZombieFactory.sol\":1398:1429  Zombic(_name, _dna, 0, 0, 1, 0) */\n      0xffffffff\n      and\n      dup2\n      mstore\n      pop\n        /* \"contracts/ZombieFactory.sol\":1385:1430  zombics.push(Zombic(_name, _dna, 0, 0, 1, 0)) */\n      swap1\n      dup1\n      0x01\n      dup2\n      sload\n      add\n      dup1\n      dup3\n      sstore\n      dup1\n      swap2\n      pop\n      pop\n      0x01\n      swap1\n      sub\n      swap1\n      0x00\n      mstore\n      keccak256(0x00, 0x20)\n      swap1\n      0x02\n      mul\n      add\n      0x00\n      swap1\n      swap2\n      swap1\n      swap2\n      swap1\n      swap2\n      pop\n      0x00\n      dup3\n      add\n      mload\n      dup2\n      0x00\n      add\n      swap1\n      dup2\n      tag_115\n      swap2\n      swap1\n      tag_116\n      jump\t// in\n    tag_115:\n      pop\n      0x20\n      dup3\n      add\n      mload\n      dup2\n      0x01\n      add\n      exp(0x0100, 0x00)\n      dup2\n      sload\n      dup2\n      0xffff\n      mul\n      not\n      and\n      swap1\n      dup4\n      0xffff\n      and\n      mul\n      or\n      swap1\n      sstore\n      pop\n      0x40\n      dup3\n      add\n      mload\n      dup2\n      0x01\n      add\n      exp(0x0100, 0x02)\n      dup2\n      sload\n      dup2\n      0xffff\n      mul\n      not\n      and\n      swap1\n      dup4\n      0xffff\n      and\n      mul\n      or\n      swap1\n      sstore\n      pop\n      0x60\n      dup3\n      add\n      mload\n      dup2\n      0x01\n      add\n      exp(0x0100, 0x04)\n      dup2\n      sload\n      dup2\n      0xffff\n      mul\n      not\n      and\n      swap1\n      dup4\n      0xffff\n      and\n      mul\n      or\n      swap1\n      sstore\n      pop\n      0x80\n      dup3\n      add\n      mload\n      dup2\n      0x01\n      add\n      exp(0x0100, 0x06)\n      dup2\n      sload\n      dup2\n      0xffffffff\n      mul\n      not\n      and\n      swap1\n      dup4\n      0xffffffff\n      and\n      mul\n      or\n      swap1\n      sstore\n      pop\n      0xa0\n      dup3\n      add\n      mload\n      dup2\n      0x01\n      add\n      exp(0x0100, 0x0a)\n      dup2\n      sload\n      dup2\n      0xffffffff\n      mul\n      not\n      and\n      swap1\n      dup4\n      0xffffffff\n      and\n      mul\n      or\n      swap1\n      sstore\n      pop\n      pop\n      pop\n        /* \"contracts/ZombieFactory.sol\":1440:1447  uint id */\n      0x00\n        /* \"contracts/ZombieFactory.sol\":1467:1468  1 */\n      0x01\n        /* \"contracts/ZombieFactory.sol\":1450:1457  zombics */\n      0x06\n        /* \"contracts/ZombieFactory.sol\":1450:1464  zombics.length */\n      dup1\n      sload\n      swap1\n      pop\n        /* \"contracts/ZombieFactory.sol\":1450:1468  zombics.length - 1 */\n      tag_117\n      swap2\n      swap1\n      tag_118\n      jump\t// in\n    tag_117:\n        /* \"contracts/ZombieFactory.sol\":1440:1468  uint id = zombics.length - 1 */\n      swap1\n      pop\n        /* \"contracts/ZombieFactory.sol\":1498:1508  msg.sender */\n      caller\n        /* \"contracts/ZombieFactory.sol\":1478:1491  zombicToOwber */\n      0x07\n        /* \"contracts/ZombieFactory.sol\":1478:1495  zombicToOwber[id] */\n      0x00\n        /* \"contracts/ZombieFactory.sol\":1492:1494  id */\n      dup4\n        /* \"contracts/ZombieFactory.sol\":1478:1495  zombicToOwber[id] */\n      dup2\n      mstore\n      0x20\n      add\n      swap1\n      dup2\n      mstore\n      0x20\n      add\n      0x00\n      keccak256\n      0x00\n        /* \"contracts/ZombieFactory.sol\":1478:1508  zombicToOwber[id] = msg.sender */\n      0x0100\n      exp\n      dup2\n      sload\n      dup2\n      0xffffffffffffffffffffffffffffffffffffffff\n      mul\n      not\n      and\n      swap1\n      dup4\n      0xffffffffffffffffffffffffffffffffffffffff\n      and\n      mul\n      or\n      swap1\n      sstore\n      pop\n        /* \"contracts/ZombieFactory.sol\":1549:1584  ownerZombicCount[msg.sender].add(1) */\n      tag_119\n        /* \"contracts/ZombieFactory.sol\":1582:1583  1 */\n      0x01\n        /* \"contracts/ZombieFactory.sol\":1549:1565  ownerZombicCount */\n      0x08\n        /* \"contracts/ZombieFactory.sol\":1549:1577  ownerZombicCount[msg.sender] */\n      0x00\n        /* \"contracts/ZombieFactory.sol\":1566:1576  msg.sender */\n      caller\n        /* \"contracts/ZombieFactory.sol\":1549:1577  ownerZombicCount[msg.sender] */\n      0xffffffffffffffffffffffffffffffffffffffff\n      and\n      0xffffffffffffffffffffffffffffffffffffffff\n      and\n      dup2\n      mstore\n      0x20\n      add\n      swap1\n      dup2\n      mstore\n      0x20\n      add\n      0x00\n      keccak256\n      sload\n        /* \"contracts/ZombieFactory.sol\":1549:1581  ownerZombicCount[msg.sender].add */\n      tag_120\n      swap1\n        /* \"contracts/ZombieFactory.sol\":1549:1584  ownerZombicCount[msg.sender].add(1) */\n      swap2\n      swap1\n      0xffffffff\n      and\n      jump\t// in\n    tag_119:\n        /* \"contracts/ZombieFactory.sol\":1518:1534  ownerZombicCount */\n      0x08\n        /* \"contracts/ZombieFactory.sol\":1518:1546  ownerZombicCount[msg.sender] */\n      0x00\n        /* \"contracts/ZombieFactory.sol\":1535:1545  msg.sender */\n      caller\n        /* \"contracts/ZombieFactory.sol\":1518:1546  ownerZombicCount[msg.sender] */\n      0xffffffffffffffffffffffffffffffffffffffff\n      and\n      0xffffffffffffffffffffffffffffffffffffffff\n      and\n      dup2\n      mstore\n      0x20\n      add\n      swap1\n      dup2\n      mstore\n      0x20\n      add\n      0x00\n      keccak256\n        /* \"contracts/ZombieFactory.sol\":1518:1584  ownerZombicCount[msg.sender] = ownerZombicCount[msg.sender].add(1) */\n      dup2\n      swap1\n      sstore\n      pop\n        /* \"contracts/ZombieFactory.sol\":1608:1626  zombicCount.add(1) */\n      tag_121\n        /* \"contracts/ZombieFactory.sol\":1624:1625  1 */\n      0x01\n        /* \"contracts/ZombieFactory.sol\":1608:1619  zombicCount */\n      sload(0x05)\n        /* \"contracts/ZombieFactory.sol\":1608:1623  zombicCount.add */\n      tag_120\n      swap1\n        /* \"contracts/ZombieFactory.sol\":1608:1626  zombicCount.add(1) */\n      swap2\n      swap1\n      0xffffffff\n      and\n      jump\t// in\n    tag_121:\n        /* \"contracts/ZombieFactory.sol\":1594:1605  zombicCount */\n      0x05\n        /* \"contracts/ZombieFactory.sol\":1594:1626  zombicCount = zombicCount.add(1) */\n      dup2\n      swap1\n      sstore\n      pop\n        /* \"contracts/ZombieFactory.sol\":1641:1667  NewZombic(id, _name, _dna) */\n      0xffb2fb18e6d3ec7ef368d2f329ef22f9431aaebe0fcbc9282d7770949ac8cd31\n        /* \"contracts/ZombieFactory.sol\":1651:1653  id */\n      dup2\n        /* \"contracts/ZombieFactory.sol\":1655:1660  _name */\n      dup5\n        /* \"contracts/ZombieFactory.sol\":1662:1666  _dna */\n      dup5\n        /* \"contracts/ZombieFactory.sol\":1641:1667  NewZombic(id, _name, _dna) */\n      mload(0x40)\n      tag_122\n      swap4\n      swap3\n      swap2\n      swap1\n      tag_123\n      jump\t// in\n    tag_122:\n      mload(0x40)\n      dup1\n      swap2\n      sub\n      swap1\n      log1\n        /* \"contracts/ZombieFactory.sol\":1375:1674  {... */\n      pop\n        /* \"contracts/ZombieFactory.sol\":1309:1674  function _createZombic(string memory _name, uint16 _dna) internal {... */\n      pop\n      pop\n      jump\t// out\n        /* \"contracts/SafeMath.sol\":1047:1176  function add(uint256 a, uint256 b) internal pure returns (uint256) {... */\n    tag_120:\n        /* \"contracts/SafeMath.sol\":1105:1112  uint256 */\n      0x00\n        /* \"contracts/SafeMath.sol\":1120:1129  uint256 c */\n      dup1\n        /* \"contracts/SafeMath.sol\":1136:1137  b */\n      dup3\n        /* \"contracts/SafeMath.sol\":1132:1133  a */\n      dup5\n        /* \"contracts/SafeMath.sol\":1132:1137  a + b */\n      tag_125\n      swap2\n      swap1\n      tag_126\n      jump\t// in\n    tag_125:\n        /* \"contracts/SafeMath.sol\":1120:1137  uint256 c = a + b */\n      swap1\n      pop\n        /* \"contracts/SafeMath.sol\":1155:1156  a */\n      dup4\n        /* \"contracts/SafeMath.sol\":1150:1151  c */\n      dup2\n        /* \"contracts/SafeMath.sol\":1150:1156  c >= a */\n      lt\n      iszero\n        /* \"contracts/SafeMath.sol\":1143:1157  assert(c >= a) */\n      tag_127\n      jumpi\n      tag_128\n      tag_129\n      jump\t// in\n    tag_128:\n    tag_127:\n        /* \"contracts/SafeMath.sol\":1170:1171  c */\n      dup1\n        /* \"contracts/SafeMath.sol\":1163:1171  return c */\n      swap2\n      pop\n      pop\n        /* \"contracts/SafeMath.sol\":1047:1176  function add(uint256 a, uint256 b) internal pure returns (uint256) {... */\n      swap3\n      swap2\n      pop\n      pop\n      jump\t// out\n        /* \"#utility.yul\":7:84   */\n    tag_130:\n        /* \"#utility.yul\":44:51   */\n      0x00\n        /* \"#utility.yul\":73:78   */\n      dup2\n        /* \"#utility.yul\":62:78   */\n      swap1\n      pop\n        /* \"#utility.yul\":7:84   */\n      swap2\n      swap1\n      pop\n      jump\t// out\n        /* \"#utility.yul\":90:208   */\n    tag_131:\n        /* \"#utility.yul\":177:201   */\n      tag_194\n        /* \"#utility.yul\":195:200   */\n      dup2\n        /* \"#utility.yul\":177:201   */\n      tag_130\n      jump\t// in\n    tag_194:\n        /* \"#utility.yul\":172:175   */\n      dup3\n        /* \"#utility.yul\":165:202   */\n      mstore\n        /* \"#utility.yul\":90:208   */\n      pop\n      pop\n      jump\t// out\n        /* \"#utility.yul\":214:436   */\n    tag_18:\n        /* \"#utility.yul\":307:311   */\n      0x00\n        /* \"#utility.yul\":345:347   */\n      0x20\n        /* \"#utility.yul\":334:343   */\n      dup3\n        /* \"#utility.yul\":330:348   */\n      add\n        /* \"#utility.yul\":322:348   */\n      swap1\n      pop\n        /* \"#utility.yul\":358:429   */\n      tag_196\n        /* \"#utility.yul\":426:427   */\n      0x00\n        /* \"#utility.yul\":415:424   */\n      dup4\n        /* \"#utility.yul\":411:428   */\n      add\n        /* \"#utility.yul\":402:408   */\n      dup5\n        /* \"#utility.yul\":358:429   */\n      tag_131\n      jump\t// in\n    tag_196:\n        /* \"#utility.yul\":214:436   */\n      swap3\n      swap2\n      pop\n      pop\n      jump\t// out\n        /* \"#utility.yul\":442:532   */\n    tag_132:\n        /* \"#utility.yul\":476:483   */\n      0x00\n        /* \"#utility.yul\":519:524   */\n      dup2\n        /* \"#utility.yul\":512:525   */\n      iszero\n        /* \"#utility.yul\":505:526   */\n      iszero\n        /* \"#utility.yul\":494:526   */\n      swap1\n      pop\n        /* \"#utility.yul\":442:532   */\n      swap2\n      swap1\n      pop\n      jump\t// out\n        /* \"#utility.yul\":538:647   */\n    tag_133:\n        /* \"#utility.yul\":619:640   */\n      tag_199\n        /* \"#utility.yul\":634:639   */\n      dup2\n        /* \"#utility.yul\":619:640   */\n      tag_132\n      jump\t// in\n    tag_199:\n        /* \"#utility.yul\":614:617   */\n      dup3\n        /* \"#utility.yul\":607:641   */\n      mstore\n        /* \"#utility.yul\":538:647   */\n      pop\n      pop\n      jump\t// out\n        /* \"#utility.yul\":653:863   */\n    tag_23:\n        /* \"#utility.yul\":740:744   */\n      0x00\n        /* \"#utility.yul\":778:780   */\n      0x20\n        /* \"#utility.yul\":767:776   */\n      dup3\n        /* \"#utility.yul\":763:781   */\n      add\n        /* \"#utility.yul\":755:781   */\n      swap1\n      pop\n        /* \"#utility.yul\":791:856   */\n      tag_201\n        /* \"#utility.yul\":853:854   */\n      0x00\n        /* \"#utility.yul\":842:851   */\n      dup4\n        /* \"#utility.yul\":838:855   */\n      add\n        /* \"#utility.yul\":829:835   */\n      dup5\n        /* \"#utility.yul\":791:856   */\n      tag_133\n      jump\t// in\n    tag_201:\n        /* \"#utility.yul\":653:863   */\n      swap3\n      swap2\n      pop\n      pop\n      jump\t// out\n        /* \"#utility.yul\":869:944   */\n    tag_134:\n        /* \"#utility.yul\":902:908   */\n      0x00\n        /* \"#utility.yul\":935:937   */\n      0x40\n        /* \"#utility.yul\":929:938   */\n      mload\n        /* \"#utility.yul\":919:938   */\n      swap1\n      pop\n        /* \"#utility.yul\":869:944   */\n      swap1\n      jump\t// out\n        /* \"#utility.yul\":950:1067   */\n    tag_135:\n        /* \"#utility.yul\":1059:1060   */\n      0x00\n        /* \"#utility.yul\":1056:1057   */\n      dup1\n        /* \"#utility.yul\":1049:1061   */\n      revert\n        /* \"#utility.yul\":1073:1190   */\n    tag_136:\n        /* \"#utility.yul\":1182:1183   */\n      0x00\n        /* \"#utility.yul\":1179:1180   */\n      dup1\n        /* \"#utility.yul\":1172:1184   */\n      revert\n        /* \"#utility.yul\":1196:1318   */\n    tag_137:\n        /* \"#utility.yul\":1269:1293   */\n      tag_206\n        /* \"#utility.yul\":1287:1292   */\n      dup2\n        /* \"#utility.yul\":1269:1293   */\n      tag_130\n      jump\t// in\n    tag_206:\n        /* \"#utility.yul\":1262:1267   */\n      dup2\n        /* \"#utility.yul\":1259:1294   */\n      eq\n        /* \"#utility.yul\":1249:1312   */\n      tag_207\n      jumpi\n        /* \"#utility.yul\":1308:1309   */\n      0x00\n        /* \"#utility.yul\":1305:1306   */\n      dup1\n        /* \"#utility.yul\":1298:1310   */\n      revert\n        /* \"#utility.yul\":1249:1312   */\n    tag_207:\n        /* \"#utility.yul\":1196:1318   */\n      pop\n      jump\t// out\n        /* \"#utility.yul\":1324:1463   */\n    tag_138:\n        /* \"#utility.yul\":1370:1375   */\n      0x00\n        /* \"#utility.yul\":1408:1414   */\n      dup2\n        /* \"#utility.yul\":1395:1415   */\n      calldataload\n        /* \"#utility.yul\":1386:1415   */\n      swap1\n      pop\n        /* \"#utility.yul\":1424:1457   */\n      tag_209\n        /* \"#utility.yul\":1451:1456   */\n      dup2\n        /* \"#utility.yul\":1424:1457   */\n      tag_137\n      jump\t// in\n    tag_209:\n        /* \"#utility.yul\":1324:1463   */\n      swap3\n      swap2\n      pop\n      pop\n      jump\t// out\n        /* \"#utility.yul\":1469:1798   */\n    tag_31:\n        /* \"#utility.yul\":1528:1534   */\n      0x00\n        /* \"#utility.yul\":1577:1579   */\n      0x20\n        /* \"#utility.yul\":1565:1574   */\n      dup3\n        /* \"#utility.yul\":1556:1563   */\n      dup5\n        /* \"#utility.yul\":1552:1575   */\n      sub\n        /* \"#utility.yul\":1548:1580   */\n      slt\n        /* \"#utility.yul\":1545:1664   */\n      iszero\n      tag_211\n      jumpi\n        /* \"#utility.yul\":1583:1662   */\n      tag_212\n      tag_135\n      jump\t// in\n    tag_212:\n        /* \"#utility.yul\":1545:1664   */\n    tag_211:\n        /* \"#utility.yul\":1703:1704   */\n      0x00\n        /* \"#utility.yul\":1728:1781   */\n      tag_213\n        /* \"#utility.yul\":1773:1780   */\n      dup5\n        /* \"#utility.yul\":1764:1770   */\n      dup3\n        /* \"#utility.yul\":1753:1762   */\n      dup6\n        /* \"#utility.yul\":1749:1771   */\n      add\n        /* \"#utility.yul\":1728:1781   */\n      tag_138\n      jump\t// in\n    tag_213:\n        /* \"#utility.yul\":1718:1781   */\n      swap2\n      pop\n        /* \"#utility.yul\":1674:1791   */\n      pop\n        /* \"#utility.yul\":1469:1798   */\n      swap3\n      swap2\n      pop\n      pop\n      jump\t// out\n        /* \"#utility.yul\":1804:1903   */\n    tag_139:\n        /* \"#utility.yul\":1856:1862   */\n      0x00\n        /* \"#utility.yul\":1890:1895   */\n      dup2\n        /* \"#utility.yul\":1884:1896   */\n      mload\n        /* \"#utility.yul\":1874:1896   */\n      swap1\n      pop\n        /* \"#utility.yul\":1804:1903   */\n      swap2\n      swap1\n      pop\n      jump\t// out\n        /* \"#utility.yul\":1909:2078   */\n    tag_140:\n        /* \"#utility.yul\":1993:2004   */\n      0x00\n        /* \"#utility.yul\":2027:2033   */\n      dup3\n        /* \"#utility.yul\":2022:2025   */\n      dup3\n        /* \"#utility.yul\":2015:2034   */\n      mstore\n        /* \"#utility.yul\":2067:2071   */\n      0x20\n        /* \"#utility.yul\":2062:2065   */\n      dup3\n        /* \"#utility.yul\":2058:2072   */\n      add\n        /* \"#utility.yul\":2043:2072   */\n      swap1\n      pop\n        /* \"#utility.yul\":1909:2078   */\n      swap3\n      swap2\n      pop\n      pop\n      jump\t// out\n        /* \"#utility.yul\":2084:2330   */\n    tag_141:\n        /* \"#utility.yul\":2165:2166   */\n      0x00\n        /* \"#utility.yul\":2175:2288   */\n    tag_217:\n        /* \"#utility.yul\":2189:2195   */\n      dup4\n        /* \"#utility.yul\":2186:2187   */\n      dup2\n        /* \"#utility.yul\":2183:2196   */\n      lt\n        /* \"#utility.yul\":2175:2288   */\n      iszero\n      tag_219\n      jumpi\n        /* \"#utility.yul\":2274:2275   */\n      dup1\n        /* \"#utility.yul\":2269:2272   */\n      dup3\n        /* \"#utility.yul\":2265:2276   */\n      add\n        /* \"#utility.yul\":2259:2277   */\n      mload\n        /* \"#utility.yul\":2255:2256   */\n      dup2\n        /* \"#utility.yul\":2250:2253   */\n      dup5\n        /* \"#utility.yul\":2246:2257   */\n      add\n        /* \"#utility.yul\":2239:2278   */\n      mstore\n        /* \"#utility.yul\":2211:2213   */\n      0x20\n        /* \"#utility.yul\":2208:2209   */\n      dup2\n        /* \"#utility.yul\":2204:2214   */\n      add\n        /* \"#utility.yul\":2199:2214   */\n      swap1\n      pop\n        /* \"#utility.yul\":2175:2288   */\n      jump(tag_217)\n    tag_219:\n        /* \"#utility.yul\":2322:2323   */\n      0x00\n        /* \"#utility.yul\":2313:2319   */\n      dup5\n        /* \"#utility.yul\":2308:2311   */\n      dup5\n        /* \"#utility.yul\":2304:2320   */\n      add\n        /* \"#utility.yul\":2297:2324   */\n      mstore\n        /* \"#utility.yul\":2146:2330   */\n      pop\n        /* \"#utility.yul\":2084:2330   */\n      pop\n      pop\n      pop\n      jump\t// out\n        /* \"#utility.yul\":2336:2438   */\n    tag_142:\n        /* \"#utility.yul\":2377:2383   */\n      0x00\n        /* \"#utility.yul\":2428:2430   */\n      0x1f\n        /* \"#utility.yul\":2424:2431   */\n      not\n        /* \"#utility.yul\":2419:2421   */\n      0x1f\n        /* \"#utility.yul\":2412:2417   */\n      dup4\n        /* \"#utility.yul\":2408:2422   */\n      add\n        /* \"#utility.yul\":2404:2432   */\n      and\n        /* \"#utility.yul\":2394:2432   */\n      swap1\n      pop\n        /* \"#utility.yul\":2336:2438   */\n      swap2\n      swap1\n      pop\n      jump\t// out\n        /* \"#utility.yul\":2444:2821   */\n    tag_143:\n        /* \"#utility.yul\":2532:2535   */\n      0x00\n        /* \"#utility.yul\":2560:2599   */\n      tag_222\n        /* \"#utility.yul\":2593:2598   */\n      dup3\n        /* \"#utility.yul\":2560:2599   */\n      tag_139\n      jump\t// in\n    tag_222:\n        /* \"#utility.yul\":2615:2686   */\n      tag_223\n        /* \"#utility.yul\":2679:2685   */\n      dup2\n        /* \"#utility.yul\":2674:2677   */\n      dup6\n        /* \"#utility.yul\":2615:2686   */\n      tag_140\n      jump\t// in\n    tag_223:\n        /* \"#utility.yul\":2608:2686   */\n      swap4\n      pop\n        /* \"#utility.yul\":2695:2760   */\n      tag_224\n        /* \"#utility.yul\":2753:2759   */\n      dup2\n        /* \"#utility.yul\":2748:2751   */\n      dup6\n        /* \"#utility.yul\":2741:2745   */\n      0x20\n        /* \"#utility.yul\":2734:2739   */\n      dup7\n        /* \"#utility.yul\":2730:2746   */\n      add\n        /* \"#utility.yul\":2695:2760   */\n      tag_141\n      jump\t// in\n    tag_224:\n        /* \"#utility.yul\":2785:2814   */\n      tag_225\n        /* \"#utility.yul\":2807:2813   */\n      dup2\n        /* \"#utility.yul\":2785:2814   */\n      tag_142\n      jump\t// in\n    tag_225:\n        /* \"#utility.yul\":2780:2783   */\n      dup5\n        /* \"#utility.yul\":2776:2815   */\n      add\n        /* \"#utility.yul\":2769:2815   */\n      swap2\n      pop\n        /* \"#utility.yul\":2536:2821   */\n      pop\n        /* \"#utility.yul\":2444:2821   */\n      swap3\n      swap2\n      pop\n      pop\n      jump\t// out\n        /* \"#utility.yul\":2827:2916   */\n    tag_144:\n        /* \"#utility.yul\":2863:2870   */\n      0x00\n        /* \"#utility.yul\":2903:2909   */\n      0xffff\n        /* \"#utility.yul\":2896:2901   */\n      dup3\n        /* \"#utility.yul\":2892:2910   */\n      and\n        /* \"#utility.yul\":2881:2910   */\n      swap1\n      pop\n        /* \"#utility.yul\":2827:2916   */\n      swap2\n      swap1\n      pop\n      jump\t// out\n        /* \"#utility.yul\":2922:3037   */\n    tag_145:\n        /* \"#utility.yul\":3007:3030   */\n      tag_228\n        /* \"#utility.yul\":3024:3029   */\n      dup2\n        /* \"#utility.yul\":3007:3030   */\n      tag_144\n      jump\t// in\n    tag_228:\n        /* \"#utility.yul\":3002:3005   */\n      dup3\n        /* \"#utility.yul\":2995:3031   */\n      mstore\n        /* \"#utility.yul\":2922:3037   */\n      pop\n      pop\n      jump\t// out\n        /* \"#utility.yul\":3043:3136   */\n    tag_146:\n        /* \"#utility.yul\":3079:3086   */\n      0x00\n        /* \"#utility.yul\":3119:3129   */\n      0xffffffff\n        /* \"#utility.yul\":3112:3117   */\n      dup3\n        /* \"#utility.yul\":3108:3130   */\n      and\n        /* \"#utility.yul\":3097:3130   */\n      swap1\n      pop\n        /* \"#utility.yul\":3043:3136   */\n      swap2\n      swap1\n      pop\n      jump\t// out\n        /* \"#utility.yul\":3142:3257   */\n    tag_147:\n        /* \"#utility.yul\":3227:3250   */\n      tag_231\n        /* \"#utility.yul\":3244:3249   */\n      dup2\n        /* \"#utility.yul\":3227:3250   */\n      tag_146\n      jump\t// in\n    tag_231:\n        /* \"#utility.yul\":3222:3225   */\n      dup3\n        /* \"#utility.yul\":3215:3251   */\n      mstore\n        /* \"#utility.yul\":3142:3257   */\n      pop\n      pop\n      jump\t// out\n        /* \"#utility.yul\":3263:4109   */\n    tag_34:\n        /* \"#utility.yul\":3506:3510   */\n      0x00\n        /* \"#utility.yul\":3544:3547   */\n      0xc0\n        /* \"#utility.yul\":3533:3542   */\n      dup3\n        /* \"#utility.yul\":3529:3548   */\n      add\n        /* \"#utility.yul\":3521:3548   */\n      swap1\n      pop\n        /* \"#utility.yul\":3594:3603   */\n      dup2\n        /* \"#utility.yul\":3588:3592   */\n      dup2\n        /* \"#utility.yul\":3584:3604   */\n      sub\n        /* \"#utility.yul\":3580:3581   */\n      0x00\n        /* \"#utility.yul\":3569:3578   */\n      dup4\n        /* \"#utility.yul\":3565:3582   */\n      add\n        /* \"#utility.yul\":3558:3605   */\n      mstore\n        /* \"#utility.yul\":3622:3700   */\n      tag_233\n        /* \"#utility.yul\":3695:3699   */\n      dup2\n        /* \"#utility.yul\":3686:3692   */\n      dup10\n        /* \"#utility.yul\":3622:3700   */\n      tag_143\n      jump\t// in\n    tag_233:\n        /* \"#utility.yul\":3614:3700   */\n      swap1\n      pop\n        /* \"#utility.yul\":3710:3780   */\n      tag_234\n        /* \"#utility.yul\":3776:3778   */\n      0x20\n        /* \"#utility.yul\":3765:3774   */\n      dup4\n        /* \"#utility.yul\":3761:3779   */\n      add\n        /* \"#utility.yul\":3752:3758   */\n      dup9\n        /* \"#utility.yul\":3710:3780   */\n      tag_145\n      jump\t// in\n    tag_234:\n        /* \"#utility.yul\":3790:3860   */\n      tag_235\n        /* \"#utility.yul\":3856:3858   */\n      0x40\n        /* \"#utility.yul\":3845:3854   */\n      dup4\n        /* \"#utility.yul\":3841:3859   */\n      add\n        /* \"#utility.yul\":3832:3838   */\n      dup8\n        /* \"#utility.yul\":3790:3860   */\n      tag_145\n      jump\t// in\n    tag_235:\n        /* \"#utility.yul\":3870:3940   */\n      tag_236\n        /* \"#utility.yul\":3936:3938   */\n      0x60\n        /* \"#utility.yul\":3925:3934   */\n      dup4\n        /* \"#utility.yul\":3921:3939   */\n      add\n        /* \"#utility.yul\":3912:3918   */\n      dup7\n        /* \"#utility.yul\":3870:3940   */\n      tag_145\n      jump\t// in\n    tag_236:\n        /* \"#utility.yul\":3950:4021   */\n      tag_237\n        /* \"#utility.yul\":4016:4019   */\n      0x80\n        /* \"#utility.yul\":4005:4014   */\n      dup4\n        /* \"#utility.yul\":4001:4020   */\n      add\n        /* \"#utility.yul\":3992:3998   */\n      dup6\n        /* \"#utility.yul\":3950:4021   */\n      tag_147\n      jump\t// in\n    tag_237:\n        /* \"#utility.yul\":4031:4102   */\n      tag_238\n        /* \"#utility.yul\":4097:4100   */\n      0xa0\n        /* \"#utility.yul\":4086:4095   */\n      dup4\n        /* \"#utility.yul\":4082:4101   */\n      add\n        /* \"#utility.yul\":4073:4079   */\n      dup5\n        /* \"#utility.yul\":4031:4102   */\n      tag_147\n      jump\t// in\n    tag_238:\n        /* \"#utility.yul\":3263:4109   */\n      swap8\n      swap7\n      pop\n      pop\n      pop\n      pop\n      pop\n      pop\n      pop\n      jump\t// out\n        /* \"#utility.yul\":4115:4241   */\n    tag_148:\n        /* \"#utility.yul\":4152:4159   */\n      0x00\n        /* \"#utility.yul\":4192:4234   */\n      0xffffffffffffffffffffffffffffffffffffffff\n        /* \"#utility.yul\":4185:4190   */\n      dup3\n        /* \"#utility.yul\":4181:4235   */\n      and\n        /* \"#utility.yul\":4170:4235   */\n      swap1\n      pop\n        /* \"#utility.yul\":4115:4241   */\n      swap2\n      swap1\n      pop\n      jump\t// out\n        /* \"#utility.yul\":4247:4343   */\n    tag_149:\n        /* \"#utility.yul\":4284:4291   */\n      0x00\n        /* \"#utility.yul\":4313:4337   */\n      tag_241\n        /* \"#utility.yul\":4331:4336   */\n      dup3\n        /* \"#utility.yul\":4313:4337   */\n      tag_148\n      jump\t// in\n    tag_241:\n        /* \"#utility.yul\":4302:4337   */\n      swap1\n      pop\n        /* \"#utility.yul\":4247:4343   */\n      swap2\n      swap1\n      pop\n      jump\t// out\n        /* \"#utility.yul\":4349:4467   */\n    tag_150:\n        /* \"#utility.yul\":4436:4460   */\n      tag_243\n        /* \"#utility.yul\":4454:4459   */\n      dup2\n        /* \"#utility.yul\":4436:4460   */\n      tag_149\n      jump\t// in\n    tag_243:\n        /* \"#utility.yul\":4431:4434   */\n      dup3\n        /* \"#utility.yul\":4424:4461   */\n      mstore\n        /* \"#utility.yul\":4349:4467   */\n      pop\n      pop\n      jump\t// out\n        /* \"#utility.yul\":4473:4695   */\n    tag_40:\n        /* \"#utility.yul\":4566:4570   */\n      0x00\n        /* \"#utility.yul\":4604:4606   */\n      0x20\n        /* \"#utility.yul\":4593:4602   */\n      dup3\n        /* \"#utility.yul\":4589:4607   */\n      add\n        /* \"#utility.yul\":4581:4607   */\n      swap1\n      pop\n        /* \"#utility.yul\":4617:4688   */\n      tag_245\n        /* \"#utility.yul\":4685:4686   */\n      0x00\n        /* \"#utility.yul\":4674:4683   */\n      dup4\n        /* \"#utility.yul\":4670:4687   */\n      add\n        /* \"#utility.yul\":4661:4667   */\n      dup5\n        /* \"#utility.yul\":4617:4688   */\n      tag_150\n      jump\t// in\n    tag_245:\n        /* \"#utility.yul\":4473:4695   */\n      swap3\n      swap2\n      pop\n      pop\n      jump\t// out\n        /* \"#utility.yul\":4701:4818   */\n    tag_151:\n        /* \"#utility.yul\":4810:4811   */\n      0x00\n        /* \"#utility.yul\":4807:4808   */\n      dup1\n        /* \"#utility.yul\":4800:4812   */\n      revert\n        /* \"#utility.yul\":4824:4941   */\n    tag_152:\n        /* \"#utility.yul\":4933:4934   */\n      0x00\n        /* \"#utility.yul\":4930:4931   */\n      dup1\n        /* \"#utility.yul\":4923:4935   */\n      revert\n        /* \"#utility.yul\":4947:5127   */\n    tag_153:\n        /* \"#utility.yul\":4995:5072   */\n      0x4e487b7100000000000000000000000000000000000000000000000000000000\n        /* \"#utility.yul\":4992:4993   */\n      0x00\n        /* \"#utility.yul\":4985:5073   */\n      mstore\n        /* \"#utility.yul\":5092:5096   */\n      0x41\n        /* \"#utility.yul\":5089:5090   */\n      0x04\n        /* \"#utility.yul\":5082:5097   */\n      mstore\n        /* \"#utility.yul\":5116:5120   */\n      0x24\n        /* \"#utility.yul\":5113:5114   */\n      0x00\n        /* \"#utility.yul\":5106:5121   */\n      revert\n        /* \"#utility.yul\":5133:5414   */\n    tag_154:\n        /* \"#utility.yul\":5216:5243   */\n      tag_250\n        /* \"#utility.yul\":5238:5242   */\n      dup3\n        /* \"#utility.yul\":5216:5243   */\n      tag_142\n      jump\t// in\n    tag_250:\n        /* \"#utility.yul\":5208:5214   */\n      dup2\n        /* \"#utility.yul\":5204:5244   */\n      add\n        /* \"#utility.yul\":5346:5352   */\n      dup2\n        /* \"#utility.yul\":5334:5344   */\n      dup2\n        /* \"#utility.yul\":5331:5353   */\n      lt\n        /* \"#utility.yul\":5310:5328   */\n      0xffffffffffffffff\n        /* \"#utility.yul\":5298:5308   */\n      dup3\n        /* \"#utility.yul\":5295:5329   */\n      gt\n        /* \"#utility.yul\":5292:5354   */\n      or\n        /* \"#utility.yul\":5289:5377   */\n      iszero\n      tag_251\n      jumpi\n        /* \"#utility.yul\":5357:5375   */\n      tag_252\n      tag_153\n      jump\t// in\n    tag_252:\n        /* \"#utility.yul\":5289:5377   */\n    tag_251:\n        /* \"#utility.yul\":5397:5407   */\n      dup1\n        /* \"#utility.yul\":5393:5395   */\n      0x40\n        /* \"#utility.yul\":5386:5408   */\n      mstore\n        /* \"#utility.yul\":5176:5414   */\n      pop\n        /* \"#utility.yul\":5133:5414   */\n      pop\n      pop\n      jump\t// out\n        /* \"#utility.yul\":5420:5549   */\n    tag_155:\n        /* \"#utility.yul\":5454:5460   */\n      0x00\n        /* \"#utility.yul\":5481:5501   */\n      tag_254\n      tag_134\n      jump\t// in\n    tag_254:\n        /* \"#utility.yul\":5471:5501   */\n      swap1\n      pop\n        /* \"#utility.yul\":5510:5543   */\n      tag_255\n        /* \"#utility.yul\":5538:5542   */\n      dup3\n        /* \"#utility.yul\":5530:5536   */\n      dup3\n        /* \"#utility.yul\":5510:5543   */\n      tag_154\n      jump\t// in\n    tag_255:\n        /* \"#utility.yul\":5420:5549   */\n      swap2\n      swap1\n      pop\n      jump\t// out\n        /* \"#utility.yul\":5555:5863   */\n    tag_156:\n        /* \"#utility.yul\":5617:5621   */\n      0x00\n        /* \"#utility.yul\":5707:5725   */\n      0xffffffffffffffff\n        /* \"#utility.yul\":5699:5705   */\n      dup3\n        /* \"#utility.yul\":5696:5726   */\n      gt\n        /* \"#utility.yul\":5693:5749   */\n      iszero\n      tag_257\n      jumpi\n        /* \"#utility.yul\":5729:5747   */\n      tag_258\n      tag_153\n      jump\t// in\n    tag_258:\n        /* \"#utility.yul\":5693:5749   */\n    tag_257:\n        /* \"#utility.yul\":5767:5796   */\n      tag_259\n        /* \"#utility.yul\":5789:5795   */\n      dup3\n        /* \"#utility.yul\":5767:5796   */\n      tag_142\n      jump\t// in\n    tag_259:\n        /* \"#utility.yul\":5759:5796   */\n      swap1\n      pop\n        /* \"#utility.yul\":5851:5855   */\n      0x20\n        /* \"#utility.yul\":5845:5849   */\n      dup2\n        /* \"#utility.yul\":5841:5856   */\n      add\n        /* \"#utility.yul\":5833:5856   */\n      swap1\n      pop\n        /* \"#utility.yul\":5555:5863   */\n      swap2\n      swap1\n      pop\n      jump\t// out\n        /* \"#utility.yul\":5869:6015   */\n    tag_157:\n        /* \"#utility.yul\":5966:5972   */\n      dup3\n        /* \"#utility.yul\":5961:5964   */\n      dup2\n        /* \"#utility.yul\":5956:5959   */\n      dup4\n        /* \"#utility.yul\":5943:5973   */\n      calldatacopy\n        /* \"#utility.yul\":6007:6008   */\n      0x00\n        /* \"#utility.yul\":5998:6004   */\n      dup4\n        /* \"#utility.yul\":5993:5996   */\n      dup4\n        /* \"#utility.yul\":5989:6005   */\n      add\n        /* \"#utility.yul\":5982:6009   */\n      mstore\n        /* \"#utility.yul\":5869:6015   */\n      pop\n      pop\n      pop\n      jump\t// out\n        /* \"#utility.yul\":6021:6446   */\n    tag_158:\n        /* \"#utility.yul\":6099:6104   */\n      0x00\n        /* \"#utility.yul\":6124:6190   */\n      tag_262\n        /* \"#utility.yul\":6140:6189   */\n      tag_263\n        /* \"#utility.yul\":6182:6188   */\n      dup5\n        /* \"#utility.yul\":6140:6189   */\n      tag_156\n      jump\t// in\n    tag_263:\n        /* \"#utility.yul\":6124:6190   */\n      tag_155\n      jump\t// in\n    tag_262:\n        /* \"#utility.yul\":6115:6190   */\n      swap1\n      pop\n        /* \"#utility.yul\":6213:6219   */\n      dup3\n        /* \"#utility.yul\":6206:6211   */\n      dup2\n        /* \"#utility.yul\":6199:6220   */\n      mstore\n        /* \"#utility.yul\":6251:6255   */\n      0x20\n        /* \"#utility.yul\":6244:6249   */\n      dup2\n        /* \"#utility.yul\":6240:6256   */\n      add\n        /* \"#utility.yul\":6289:6292   */\n      dup5\n        /* \"#utility.yul\":6280:6286   */\n      dup5\n        /* \"#utility.yul\":6275:6278   */\n      dup5\n        /* \"#utility.yul\":6271:6287   */\n      add\n        /* \"#utility.yul\":6268:6293   */\n      gt\n        /* \"#utility.yul\":6265:6377   */\n      iszero\n      tag_264\n      jumpi\n        /* \"#utility.yul\":6296:6375   */\n      tag_265\n      tag_152\n      jump\t// in\n    tag_265:\n        /* \"#utility.yul\":6265:6377   */\n    tag_264:\n        /* \"#utility.yul\":6386:6440   */\n      tag_266\n        /* \"#utility.yul\":6433:6439   */\n      dup5\n        /* \"#utility.yul\":6428:6431   */\n      dup3\n        /* \"#utility.yul\":6423:6426   */\n      dup6\n        /* \"#utility.yul\":6386:6440   */\n      tag_157\n      jump\t// in\n    tag_266:\n        /* \"#utility.yul\":6105:6446   */\n      pop\n        /* \"#utility.yul\":6021:6446   */\n      swap4\n      swap3\n      pop\n      pop\n      pop\n      jump\t// out\n        /* \"#utility.yul\":6466:6806   */\n    tag_159:\n        /* \"#utility.yul\":6522:6527   */\n      0x00\n        /* \"#utility.yul\":6571:6574   */\n      dup3\n        /* \"#utility.yul\":6564:6568   */\n      0x1f\n        /* \"#utility.yul\":6556:6562   */\n      dup4\n        /* \"#utility.yul\":6552:6569   */\n      add\n        /* \"#utility.yul\":6548:6575   */\n      slt\n        /* \"#utility.yul\":6538:6660   */\n      tag_268\n      jumpi\n        /* \"#utility.yul\":6579:6658   */\n      tag_269\n      tag_151\n      jump\t// in\n    tag_269:\n        /* \"#utility.yul\":6538:6660   */\n    tag_268:\n        /* \"#utility.yul\":6696:6702   */\n      dup2\n        /* \"#utility.yul\":6683:6703   */\n      calldataload\n        /* \"#utility.yul\":6721:6800   */\n      tag_270\n        /* \"#utility.yul\":6796:6799   */\n      dup5\n        /* \"#utility.yul\":6788:6794   */\n      dup3\n        /* \"#utility.yul\":6781:6785   */\n      0x20\n        /* \"#utility.yul\":6773:6779   */\n      dup7\n        /* \"#utility.yul\":6769:6786   */\n      add\n        /* \"#utility.yul\":6721:6800   */\n      tag_158\n      jump\t// in\n    tag_270:\n        /* \"#utility.yul\":6712:6800   */\n      swap2\n      pop\n        /* \"#utility.yul\":6528:6806   */\n      pop\n        /* \"#utility.yul\":6466:6806   */\n      swap3\n      swap2\n      pop\n      pop\n      jump\t// out\n        /* \"#utility.yul\":6812:7321   */\n    tag_48:\n        /* \"#utility.yul\":6881:6887   */\n      0x00\n        /* \"#utility.yul\":6930:6932   */\n      0x20\n        /* \"#utility.yul\":6918:6927   */\n      dup3\n        /* \"#utility.yul\":6909:6916   */\n      dup5\n        /* \"#utility.yul\":6905:6928   */\n      sub\n        /* \"#utility.yul\":6901:6933   */\n      slt\n        /* \"#utility.yul\":6898:7017   */\n      iszero\n      tag_272\n      jumpi\n        /* \"#utility.yul\":6936:7015   */\n      tag_273\n      tag_135\n      jump\t// in\n    tag_273:\n        /* \"#utility.yul\":6898:7017   */\n    tag_272:\n        /* \"#utility.yul\":7084:7085   */\n      0x00\n        /* \"#utility.yul\":7073:7082   */\n      dup3\n        /* \"#utility.yul\":7069:7086   */\n      add\n        /* \"#utility.yul\":7056:7087   */\n      calldataload\n        /* \"#utility.yul\":7114:7132   */\n      0xffffffffffffffff\n        /* \"#utility.yul\":7106:7112   */\n      dup2\n        /* \"#utility.yul\":7103:7133   */\n      gt\n        /* \"#utility.yul\":7100:7217   */\n      iszero\n      tag_274\n      jumpi\n        /* \"#utility.yul\":7136:7215   */\n      tag_275\n      tag_136\n      jump\t// in\n    tag_275:\n        /* \"#utility.yul\":7100:7217   */\n    tag_274:\n        /* \"#utility.yul\":7241:7304   */\n      tag_276\n        /* \"#utility.yul\":7296:7303   */\n      dup5\n        /* \"#utility.yul\":7287:7293   */\n      dup3\n        /* \"#utility.yul\":7276:7285   */\n      dup6\n        /* \"#utility.yul\":7272:7294   */\n      add\n        /* \"#utility.yul\":7241:7304   */\n      tag_159\n      jump\t// in\n    tag_276:\n        /* \"#utility.yul\":7231:7304   */\n      swap2\n      pop\n        /* \"#utility.yul\":7027:7314   */\n      pop\n        /* \"#utility.yul\":6812:7321   */\n      swap3\n      swap2\n      pop\n      pop\n      jump\t// out\n        /* \"#utility.yul\":7327:7431   */\n    tag_160:\n        /* \"#utility.yul\":7372:7379   */\n      0x00\n        /* \"#utility.yul\":7401:7425   */\n      tag_278\n        /* \"#utility.yul\":7419:7424   */\n      dup3\n        /* \"#utility.yul\":7401:7425   */\n      tag_148\n      jump\t// in\n    tag_278:\n        /* \"#utility.yul\":7390:7425   */\n      swap1\n      pop\n        /* \"#utility.yul\":7327:7431   */\n      swap2\n      swap1\n      pop\n      jump\t// out\n        /* \"#utility.yul\":7437:7575   */\n    tag_161:\n        /* \"#utility.yul\":7518:7550   */\n      tag_280\n        /* \"#utility.yul\":7544:7549   */\n      dup2\n        /* \"#utility.yul\":7518:7550   */\n      tag_160\n      jump\t// in\n    tag_280:\n        /* \"#utility.yul\":7511:7516   */\n      dup2\n        /* \"#utility.yul\":7508:7551   */\n      eq\n        /* \"#utility.yul\":7498:7569   */\n      tag_281\n      jumpi\n        /* \"#utility.yul\":7565:7566   */\n      0x00\n        /* \"#utility.yul\":7562:7563   */\n      dup1\n        /* \"#utility.yul\":7555:7567   */\n      revert\n        /* \"#utility.yul\":7498:7569   */\n    tag_281:\n        /* \"#utility.yul\":7437:7575   */\n      pop\n      jump\t// out\n        /* \"#utility.yul\":7581:7736   */\n    tag_162:\n        /* \"#utility.yul\":7635:7640   */\n      0x00\n        /* \"#utility.yul\":7673:7679   */\n      dup2\n        /* \"#utility.yul\":7660:7680   */\n      calldataload\n        /* \"#utility.yul\":7651:7680   */\n      swap1\n      pop\n        /* \"#utility.yul\":7689:7730   */\n      tag_283\n        /* \"#utility.yul\":7724:7729   */\n      dup2\n        /* \"#utility.yul\":7689:7730   */\n      tag_161\n      jump\t// in\n    tag_283:\n        /* \"#utility.yul\":7581:7736   */\n      swap3\n      swap2\n      pop\n      pop\n      jump\t// out\n        /* \"#utility.yul\":7742:8087   */\n    tag_61:\n        /* \"#utility.yul\":7809:7815   */\n      0x00\n        /* \"#utility.yul\":7858:7860   */\n      0x20\n        /* \"#utility.yul\":7846:7855   */\n      dup3\n        /* \"#utility.yul\":7837:7844   */\n      dup5\n        /* \"#utility.yul\":7833:7856   */\n      sub\n        /* \"#utility.yul\":7829:7861   */\n      slt\n        /* \"#utility.yul\":7826:7945   */\n      iszero\n      tag_285\n      jumpi\n        /* \"#utility.yul\":7864:7943   */\n      tag_286\n      tag_135\n      jump\t// in\n    tag_286:\n        /* \"#utility.yul\":7826:7945   */\n    tag_285:\n        /* \"#utility.yul\":7984:7985   */\n      0x00\n        /* \"#utility.yul\":8009:8070   */\n      tag_287\n        /* \"#utility.yul\":8062:8069   */\n      dup5\n        /* \"#utility.yul\":8053:8059   */\n      dup3\n        /* \"#utility.yul\":8042:8051   */\n      dup6\n        /* \"#utility.yul\":8038:8060   */\n      add\n        /* \"#utility.yul\":8009:8070   */\n      tag_162\n      jump\t// in\n    tag_287:\n        /* \"#utility.yul\":7999:8070   */\n      swap2\n      pop\n        /* \"#utility.yul\":7955:8080   */\n      pop\n        /* \"#utility.yul\":7742:8087   */\n      swap3\n      swap2\n      pop\n      pop\n      jump\t// out\n        /* \"#utility.yul\":8093:8273   */\n    tag_163:\n        /* \"#utility.yul\":8141:8218   */\n      0x4e487b7100000000000000000000000000000000000000000000000000000000\n        /* \"#utility.yul\":8138:8139   */\n      0x00\n        /* \"#utility.yul\":8131:8219   */\n      mstore\n        /* \"#utility.yul\":8238:8242   */\n      0x22\n        /* \"#utility.yul\":8235:8236   */\n      0x04\n        /* \"#utility.yul\":8228:8243   */\n      mstore\n        /* \"#utility.yul\":8262:8266   */\n      0x24\n        /* \"#utility.yul\":8259:8260   */\n      0x00\n        /* \"#utility.yul\":8252:8267   */\n      revert\n        /* \"#utility.yul\":8279:8599   */\n    tag_69:\n        /* \"#utility.yul\":8323:8329   */\n      0x00\n        /* \"#utility.yul\":8360:8361   */\n      0x02\n        /* \"#utility.yul\":8354:8358   */\n      dup3\n        /* \"#utility.yul\":8350:8362   */\n      div\n        /* \"#utility.yul\":8340:8362   */\n      swap1\n      pop\n        /* \"#utility.yul\":8407:8408   */\n      0x01\n        /* \"#utility.yul\":8401:8405   */\n      dup3\n        /* \"#utility.yul\":8397:8409   */\n      and\n        /* \"#utility.yul\":8428:8446   */\n      dup1\n        /* \"#utility.yul\":8418:8499   */\n      tag_290\n      jumpi\n        /* \"#utility.yul\":8484:8488   */\n      0x7f\n        /* \"#utility.yul\":8476:8482   */\n      dup3\n        /* \"#utility.yul\":8472:8489   */\n      and\n        /* \"#utility.yul\":8462:8489   */\n      swap2\n      pop\n        /* \"#utility.yul\":8418:8499   */\n    tag_290:\n        /* \"#utility.yul\":8546:8548   */\n      0x20\n        /* \"#utility.yul\":8538:8544   */\n      dup3\n        /* \"#utility.yul\":8535:8549   */\n      lt\n        /* \"#utility.yul\":8515:8533   */\n      dup2\n        /* \"#utility.yul\":8512:8550   */\n      sub\n        /* \"#utility.yul\":8509:8593   */\n      tag_291\n      jumpi\n        /* \"#utility.yul\":8565:8583   */\n      tag_292\n      tag_163\n      jump\t// in\n    tag_292:\n        /* \"#utility.yul\":8509:8593   */\n    tag_291:\n        /* \"#utility.yul\":8330:8599   */\n      pop\n        /* \"#utility.yul\":8279:8599   */\n      swap2\n      swap1\n      pop\n      jump\t// out\n        /* \"#utility.yul\":8605:8760   */\n    tag_164:\n        /* \"#utility.yul\":8745:8752   */\n      0x6572726f72000000000000000000000000000000000000000000000000000000\n        /* \"#utility.yul\":8741:8742   */\n      0x00\n        /* \"#utility.yul\":8733:8739   */\n      dup3\n        /* \"#utility.yul\":8729:8743   */\n      add\n        /* \"#utility.yul\":8722:8753   */\n      mstore\n        /* \"#utility.yul\":8605:8760   */\n      pop\n      jump\t// out\n        /* \"#utility.yul\":8766:9131   */\n    tag_165:\n        /* \"#utility.yul\":8908:8911   */\n      0x00\n        /* \"#utility.yul\":8929:8995   */\n      tag_295\n        /* \"#utility.yul\":8993:8994   */\n      0x05\n        /* \"#utility.yul\":8988:8991   */\n      dup4\n        /* \"#utility.yul\":8929:8995   */\n      tag_140\n      jump\t// in\n    tag_295:\n        /* \"#utility.yul\":8922:8995   */\n      swap2\n      pop\n        /* \"#utility.yul\":9004:9097   */\n      tag_296\n        /* \"#utility.yul\":9093:9096   */\n      dup3\n        /* \"#utility.yul\":9004:9097   */\n      tag_164\n      jump\t// in\n    tag_296:\n        /* \"#utility.yul\":9122:9124   */\n      0x20\n        /* \"#utility.yul\":9117:9120   */\n      dup3\n        /* \"#utility.yul\":9113:9125   */\n      add\n        /* \"#utility.yul\":9106:9125   */\n      swap1\n      pop\n        /* \"#utility.yul\":8766:9131   */\n      swap2\n      swap1\n      pop\n      jump\t// out\n        /* \"#utility.yul\":9137:9556   */\n    tag_77:\n        /* \"#utility.yul\":9303:9307   */\n      0x00\n        /* \"#utility.yul\":9341:9343   */\n      0x20\n        /* \"#utility.yul\":9330:9339   */\n      dup3\n        /* \"#utility.yul\":9326:9344   */\n      add\n        /* \"#utility.yul\":9318:9344   */\n      swap1\n      pop\n        /* \"#utility.yul\":9390:9399   */\n      dup2\n        /* \"#utility.yul\":9384:9388   */\n      dup2\n        /* \"#utility.yul\":9380:9400   */\n      sub\n        /* \"#utility.yul\":9376:9377   */\n      0x00\n        /* \"#utility.yul\":9365:9374   */\n      dup4\n        /* \"#utility.yul\":9361:9378   */\n      add\n        /* \"#utility.yul\":9354:9401   */\n      mstore\n        /* \"#utility.yul\":9418:9549   */\n      tag_298\n        /* \"#utility.yul\":9544:9548   */\n      dup2\n        /* \"#utility.yul\":9418:9549   */\n      tag_165\n      jump\t// in\n    tag_298:\n        /* \"#utility.yul\":9410:9549   */\n      swap1\n      pop\n        /* \"#utility.yul\":9137:9556   */\n      swap2\n      swap1\n      pop\n      jump\t// out\n        /* \"#utility.yul\":9562:9742   */\n    tag_166:\n        /* \"#utility.yul\":9610:9687   */\n      0x4e487b7100000000000000000000000000000000000000000000000000000000\n        /* \"#utility.yul\":9607:9608   */\n      0x00\n        /* \"#utility.yul\":9600:9688   */\n      mstore\n        /* \"#utility.yul\":9707:9711   */\n      0x12\n        /* \"#utility.yul\":9704:9705   */\n      0x04\n        /* \"#utility.yul\":9697:9712   */\n      mstore\n        /* \"#utility.yul\":9731:9735   */\n      0x24\n        /* \"#utility.yul\":9728:9729   */\n      0x00\n        /* \"#utility.yul\":9721:9736   */\n      revert\n        /* \"#utility.yul\":9748:9921   */\n    tag_81:\n        /* \"#utility.yul\":9779:9780   */\n      0x00\n        /* \"#utility.yul\":9796:9815   */\n      tag_301\n        /* \"#utility.yul\":9813:9814   */\n      dup3\n        /* \"#utility.yul\":9796:9815   */\n      tag_144\n      jump\t// in\n    tag_301:\n        /* \"#utility.yul\":9791:9815   */\n      swap2\n      pop\n        /* \"#utility.yul\":9829:9848   */\n      tag_302\n        /* \"#utility.yul\":9846:9847   */\n      dup4\n        /* \"#utility.yul\":9829:9848   */\n      tag_144\n      jump\t// in\n    tag_302:\n        /* \"#utility.yul\":9824:9848   */\n      swap3\n      pop\n        /* \"#utility.yul\":9867:9868   */\n      dup3\n        /* \"#utility.yul\":9857:9892   */\n      tag_303\n      jumpi\n        /* \"#utility.yul\":9872:9890   */\n      tag_304\n      tag_166\n      jump\t// in\n    tag_304:\n        /* \"#utility.yul\":9857:9892   */\n    tag_303:\n        /* \"#utility.yul\":9913:9914   */\n      dup3\n        /* \"#utility.yul\":9910:9911   */\n      dup3\n        /* \"#utility.yul\":9906:9915   */\n      mod\n        /* \"#utility.yul\":9901:9915   */\n      swap1\n      pop\n        /* \"#utility.yul\":9748:9921   */\n      swap3\n      swap2\n      pop\n      pop\n      jump\t// out\n        /* \"#utility.yul\":9927:10107   */\n    tag_167:\n        /* \"#utility.yul\":9975:10052   */\n      0x4e487b7100000000000000000000000000000000000000000000000000000000\n        /* \"#utility.yul\":9972:9973   */\n      0x00\n        /* \"#utility.yul\":9965:10053   */\n      mstore\n        /* \"#utility.yul\":10072:10076   */\n      0x11\n        /* \"#utility.yul\":10069:10070   */\n      0x04\n        /* \"#utility.yul\":10062:10077   */\n      mstore\n        /* \"#utility.yul\":10096:10100   */\n      0x24\n        /* \"#utility.yul\":10093:10094   */\n      0x00\n        /* \"#utility.yul\":10086:10101   */\n      revert\n        /* \"#utility.yul\":10113:10309   */\n    tag_83:\n        /* \"#utility.yul\":10152:10156   */\n      0x00\n        /* \"#utility.yul\":10172:10191   */\n      tag_307\n        /* \"#utility.yul\":10189:10190   */\n      dup3\n        /* \"#utility.yul\":10172:10191   */\n      tag_144\n      jump\t// in\n    tag_307:\n        /* \"#utility.yul\":10167:10191   */\n      swap2\n      pop\n        /* \"#utility.yul\":10205:10224   */\n      tag_308\n        /* \"#utility.yul\":10222:10223   */\n      dup4\n        /* \"#utility.yul\":10205:10224   */\n      tag_144\n      jump\t// in\n    tag_308:\n        /* \"#utility.yul\":10200:10224   */\n      swap3\n      pop\n        /* \"#utility.yul\":10248:10249   */\n      dup3\n        /* \"#utility.yul\":10245:10246   */\n      dup3\n        /* \"#utility.yul\":10241:10250   */\n      sub\n        /* \"#utility.yul\":10233:10250   */\n      swap1\n      pop\n        /* \"#utility.yul\":10272:10278   */\n      0xffff\n        /* \"#utility.yul\":10266:10270   */\n      dup2\n        /* \"#utility.yul\":10263:10279   */\n      gt\n        /* \"#utility.yul\":10260:10302   */\n      iszero\n      tag_309\n      jumpi\n        /* \"#utility.yul\":10282:10300   */\n      tag_310\n      tag_167\n      jump\t// in\n    tag_310:\n        /* \"#utility.yul\":10260:10302   */\n    tag_309:\n        /* \"#utility.yul\":10113:10309   */\n      swap3\n      swap2\n      pop\n      pop\n      jump\t// out\n        /* \"#utility.yul\":10315:10484   */\n    tag_168:\n        /* \"#utility.yul\":10455:10476   */\n      0x4d75737420636f6e7472616374206f776e657200000000000000000000000000\n        /* \"#utility.yul\":10451:10452   */\n      0x00\n        /* \"#utility.yul\":10443:10449   */\n      dup3\n        /* \"#utility.yul\":10439:10453   */\n      add\n        /* \"#utility.yul\":10432:10477   */\n      mstore\n        /* \"#utility.yul\":10315:10484   */\n      pop\n      jump\t// out\n        /* \"#utility.yul\":10490:10856   */\n    tag_169:\n        /* \"#utility.yul\":10632:10635   */\n      0x00\n        /* \"#utility.yul\":10653:10720   */\n      tag_313\n        /* \"#utility.yul\":10717:10719   */\n      0x13\n        /* \"#utility.yul\":10712:10715   */\n      dup4\n        /* \"#utility.yul\":10653:10720   */\n      tag_140\n      jump\t// in\n    tag_313:\n        /* \"#utility.yul\":10646:10720   */\n      swap2\n      pop\n        /* \"#utility.yul\":10729:10822   */\n      tag_314\n        /* \"#utility.yul\":10818:10821   */\n      dup3\n        /* \"#utility.yul\":10729:10822   */\n      tag_168\n      jump\t// in\n    tag_314:\n        /* \"#utility.yul\":10847:10849   */\n      0x20\n        /* \"#utility.yul\":10842:10845   */\n      dup3\n        /* \"#utility.yul\":10838:10850   */\n      add\n        /* \"#utility.yul\":10831:10850   */\n      swap1\n      pop\n        /* \"#utility.yul\":10490:10856   */\n      swap2\n      swap1\n      pop\n      jump\t// out\n        /* \"#utility.yul\":10862:11281   */\n    tag_89:\n        /* \"#utility.yul\":11028:11032   */\n      0x00\n        /* \"#utility.yul\":11066:11068   */\n      0x20\n        /* \"#utility.yul\":11055:11064   */\n      dup3\n        /* \"#utility.yul\":11051:11069   */\n      add\n        /* \"#utility.yul\":11043:11069   */\n      swap1\n      pop\n        /* \"#utility.yul\":11115:11124   */\n      dup2\n        /* \"#utility.yul\":11109:11113   */\n      dup2\n        /* \"#utility.yul\":11105:11125   */\n      sub\n        /* \"#utility.yul\":11101:11102   */\n      0x00\n        /* \"#utility.yul\":11090:11099   */\n      dup4\n        /* \"#utility.yul\":11086:11103   */\n      add\n        /* \"#utility.yul\":11079:11126   */\n      mstore\n        /* \"#utility.yul\":11143:11274   */\n      tag_316\n        /* \"#utility.yul\":11269:11273   */\n      dup2\n        /* \"#utility.yul\":11143:11274   */\n      tag_169\n      jump\t// in\n    tag_316:\n        /* \"#utility.yul\":11135:11274   */\n      swap1\n      pop\n        /* \"#utility.yul\":10862:11281   */\n      swap2\n      swap1\n      pop\n      jump\t// out\n        /* \"#utility.yul\":11287:11480   */\n    tag_106:\n        /* \"#utility.yul\":11326:11329   */\n      0x00\n        /* \"#utility.yul\":11345:11364   */\n      tag_318\n        /* \"#utility.yul\":11362:11363   */\n      dup3\n        /* \"#utility.yul\":11345:11364   */\n      tag_144\n      jump\t// in\n    tag_318:\n        /* \"#utility.yul\":11340:11364   */\n      swap2\n      pop\n        /* \"#utility.yul\":11378:11397   */\n      tag_319\n        /* \"#utility.yul\":11395:11396   */\n      dup4\n        /* \"#utility.yul\":11378:11397   */\n      tag_144\n      jump\t// in\n    tag_319:\n        /* \"#utility.yul\":11373:11397   */\n      swap3\n      pop\n        /* \"#utility.yul\":11420:11421   */\n      dup3\n        /* \"#utility.yul\":11417:11418   */\n      dup3\n        /* \"#utility.yul\":11413:11422   */\n      add\n        /* \"#utility.yul\":11406:11422   */\n      swap1\n      pop\n        /* \"#utility.yul\":11443:11449   */\n      0xffff\n        /* \"#utility.yul\":11438:11441   */\n      dup2\n        /* \"#utility.yul\":11435:11450   */\n      gt\n        /* \"#utility.yul\":11432:11473   */\n      iszero\n      tag_320\n      jumpi\n        /* \"#utility.yul\":11453:11471   */\n      tag_321\n      tag_167\n      jump\t// in\n    tag_321:\n        /* \"#utility.yul\":11432:11473   */\n    tag_320:\n        /* \"#utility.yul\":11287:11480   */\n      swap3\n      swap2\n      pop\n      pop\n      jump\t// out\n        /* \"#utility.yul\":11486:11634   */\n    tag_170:\n        /* \"#utility.yul\":11588:11599   */\n      0x00\n        /* \"#utility.yul\":11625:11628   */\n      dup2\n        /* \"#utility.yul\":11610:11628   */\n      swap1\n      pop\n        /* \"#utility.yul\":11486:11634   */\n      swap3\n      swap2\n      pop\n      pop\n      jump\t// out\n        /* \"#utility.yul\":11640:12030   */\n    tag_171:\n        /* \"#utility.yul\":11746:11749   */\n      0x00\n        /* \"#utility.yul\":11774:11813   */\n      tag_324\n        /* \"#utility.yul\":11807:11812   */\n      dup3\n        /* \"#utility.yul\":11774:11813   */\n      tag_139\n      jump\t// in\n    tag_324:\n        /* \"#utility.yul\":11829:11918   */\n      tag_325\n        /* \"#utility.yul\":11911:11917   */\n      dup2\n        /* \"#utility.yul\":11906:11909   */\n      dup6\n        /* \"#utility.yul\":11829:11918   */\n      tag_170\n      jump\t// in\n    tag_325:\n        /* \"#utility.yul\":11822:11918   */\n      swap4\n      pop\n        /* \"#utility.yul\":11927:11992   */\n      tag_326\n        /* \"#utility.yul\":11985:11991   */\n      dup2\n        /* \"#utility.yul\":11980:11983   */\n      dup6\n        /* \"#utility.yul\":11973:11977   */\n      0x20\n        /* \"#utility.yul\":11966:11971   */\n      dup7\n        /* \"#utility.yul\":11962:11978   */\n      add\n        /* \"#utility.yul\":11927:11992   */\n      tag_141\n      jump\t// in\n    tag_326:\n        /* \"#utility.yul\":12017:12023   */\n      dup1\n        /* \"#utility.yul\":12012:12015   */\n      dup5\n        /* \"#utility.yul\":12008:12024   */\n      add\n        /* \"#utility.yul\":12001:12024   */\n      swap2\n      pop\n        /* \"#utility.yul\":11750:12030   */\n      pop\n        /* \"#utility.yul\":11640:12030   */\n      swap3\n      swap2\n      pop\n      pop\n      jump\t// out\n        /* \"#utility.yul\":12036:12115   */\n    tag_172:\n        /* \"#utility.yul\":12075:12082   */\n      0x00\n        /* \"#utility.yul\":12104:12109   */\n      dup2\n        /* \"#utility.yul\":12093:12109   */\n      swap1\n      pop\n        /* \"#utility.yul\":12036:12115   */\n      swap2\n      swap1\n      pop\n      jump\t// out\n        /* \"#utility.yul\":12121:12278   */\n    tag_173:\n        /* \"#utility.yul\":12226:12271   */\n      tag_329\n        /* \"#utility.yul\":12246:12270   */\n      tag_330\n        /* \"#utility.yul\":12264:12269   */\n      dup3\n        /* \"#utility.yul\":12246:12270   */\n      tag_130\n      jump\t// in\n    tag_330:\n        /* \"#utility.yul\":12226:12271   */\n      tag_172\n      jump\t// in\n    tag_329:\n        /* \"#utility.yul\":12221:12224   */\n      dup3\n        /* \"#utility.yul\":12214:12272   */\n      mstore\n        /* \"#utility.yul\":12121:12278   */\n      pop\n      pop\n      jump\t// out\n        /* \"#utility.yul\":12284:12700   */\n    tag_110:\n        /* \"#utility.yul\":12444:12447   */\n      0x00\n        /* \"#utility.yul\":12466:12561   */\n      tag_332\n        /* \"#utility.yul\":12557:12560   */\n      dup3\n        /* \"#utility.yul\":12548:12554   */\n      dup6\n        /* \"#utility.yul\":12466:12561   */\n      tag_171\n      jump\t// in\n    tag_332:\n        /* \"#utility.yul\":12459:12561   */\n      swap2\n      pop\n        /* \"#utility.yul\":12571:12646   */\n      tag_333\n        /* \"#utility.yul\":12642:12645   */\n      dup3\n        /* \"#utility.yul\":12633:12639   */\n      dup5\n        /* \"#utility.yul\":12571:12646   */\n      tag_173\n      jump\t// in\n    tag_333:\n        /* \"#utility.yul\":12671:12673   */\n      0x20\n        /* \"#utility.yul\":12666:12669   */\n      dup3\n        /* \"#utility.yul\":12662:12674   */\n      add\n        /* \"#utility.yul\":12655:12674   */\n      swap2\n      pop\n        /* \"#utility.yul\":12691:12694   */\n      dup2\n        /* \"#utility.yul\":12684:12694   */\n      swap1\n      pop\n        /* \"#utility.yul\":12284:12700   */\n      swap4\n      swap3\n      pop\n      pop\n      pop\n      jump\t// out\n        /* \"#utility.yul\":12706:12882   */\n    tag_112:\n        /* \"#utility.yul\":12738:12739   */\n      0x00\n        /* \"#utility.yul\":12755:12775   */\n      tag_335\n        /* \"#utility.yul\":12773:12774   */\n      dup3\n        /* \"#utility.yul\":12755:12775   */\n      tag_130\n      jump\t// in\n    tag_335:\n        /* \"#utility.yul\":12750:12775   */\n      swap2\n      pop\n        /* \"#utility.yul\":12789:12809   */\n      tag_336\n        /* \"#utility.yul\":12807:12808   */\n      dup4\n        /* \"#utility.yul\":12789:12809   */\n      tag_130\n      jump\t// in\n    tag_336:\n        /* \"#utility.yul\":12784:12809   */\n      swap3\n      pop\n        /* \"#utility.yul\":12828:12829   */\n      dup3\n        /* \"#utility.yul\":12818:12853   */\n      tag_337\n      jumpi\n        /* \"#utility.yul\":12833:12851   */\n      tag_338\n      tag_166\n      jump\t// in\n    tag_338:\n        /* \"#utility.yul\":12818:12853   */\n    tag_337:\n        /* \"#utility.yul\":12874:12875   */\n      dup3\n        /* \"#utility.yul\":12871:12872   */\n      dup3\n        /* \"#utility.yul\":12867:12876   */\n      mod\n        /* \"#utility.yul\":12862:12876   */\n      swap1\n      pop\n        /* \"#utility.yul\":12706:12882   */\n      swap3\n      swap2\n      pop\n      pop\n      jump\t// out\n        /* \"#utility.yul\":12888:13029   */\n    tag_174:\n        /* \"#utility.yul\":12937:12941   */\n      0x00\n        /* \"#utility.yul\":12960:12963   */\n      dup2\n        /* \"#utility.yul\":12952:12963   */\n      swap1\n      pop\n        /* \"#utility.yul\":12983:12986   */\n      dup2\n        /* \"#utility.yul\":12980:12981   */\n      0x00\n        /* \"#utility.yul\":12973:12987   */\n      mstore\n        /* \"#utility.yul\":13017:13021   */\n      0x20\n        /* \"#utility.yul\":13014:13015   */\n      0x00\n        /* \"#utility.yul\":13004:13022   */\n      keccak256\n        /* \"#utility.yul\":12996:13022   */\n      swap1\n      pop\n        /* \"#utility.yul\":12888:13029   */\n      swap2\n      swap1\n      pop\n      jump\t// out\n        /* \"#utility.yul\":13035:13128   */\n    tag_175:\n        /* \"#utility.yul\":13072:13078   */\n      0x00\n        /* \"#utility.yul\":13119:13121   */\n      0x20\n        /* \"#utility.yul\":13114:13116   */\n      0x1f\n        /* \"#utility.yul\":13107:13112   */\n      dup4\n        /* \"#utility.yul\":13103:13117   */\n      add\n        /* \"#utility.yul\":13099:13122   */\n      div\n        /* \"#utility.yul\":13089:13122   */\n      swap1\n      pop\n        /* \"#utility.yul\":13035:13128   */\n      swap2\n      swap1\n      pop\n      jump\t// out\n        /* \"#utility.yul\":13134:13241   */\n    tag_176:\n        /* \"#utility.yul\":13178:13186   */\n      0x00\n        /* \"#utility.yul\":13228:13233   */\n      dup3\n        /* \"#utility.yul\":13222:13226   */\n      dup3\n        /* \"#utility.yul\":13218:13234   */\n      shl\n        /* \"#utility.yul\":13197:13234   */\n      swap1\n      pop\n        /* \"#utility.yul\":13134:13241   */\n      swap3\n      swap2\n      pop\n      pop\n      jump\t// out\n        /* \"#utility.yul\":13247:13640   */\n    tag_177:\n        /* \"#utility.yul\":13316:13322   */\n      0x00\n        /* \"#utility.yul\":13366:13367   */\n      0x08\n        /* \"#utility.yul\":13354:13364   */\n      dup4\n        /* \"#utility.yul\":13350:13368   */\n      mul\n        /* \"#utility.yul\":13389:13486   */\n      tag_343\n        /* \"#utility.yul\":13419:13485   */\n      0xffffffffffffffffffffffffffffffffffffffffffffffffffffffffffffffff\n        /* \"#utility.yul\":13408:13417   */\n      dup3\n        /* \"#utility.yul\":13389:13486   */\n      tag_176\n      jump\t// in\n    tag_343:\n        /* \"#utility.yul\":13507:13546   */\n      tag_344\n        /* \"#utility.yul\":13537:13545   */\n      dup7\n        /* \"#utility.yul\":13526:13535   */\n      dup4\n        /* \"#utility.yul\":13507:13546   */\n      tag_176\n      jump\t// in\n    tag_344:\n        /* \"#utility.yul\":13495:13546   */\n      swap6\n      pop\n        /* \"#utility.yul\":13579:13583   */\n      dup1\n        /* \"#utility.yul\":13575:13584   */\n      not\n        /* \"#utility.yul\":13568:13573   */\n      dup5\n        /* \"#utility.yul\":13564:13585   */\n      and\n        /* \"#utility.yul\":13555:13585   */\n      swap4\n      pop\n        /* \"#utility.yul\":13628:13632   */\n      dup1\n        /* \"#utility.yul\":13618:13626   */\n      dup7\n        /* \"#utility.yul\":13614:13633   */\n      and\n        /* \"#utility.yul\":13607:13612   */\n      dup5\n        /* \"#utility.yul\":13604:13634   */\n      or\n        /* \"#utility.yul\":13594:13634   */\n      swap3\n      pop\n        /* \"#utility.yul\":13323:13640   */\n      pop\n      pop\n        /* \"#utility.yul\":13247:13640   */\n      swap4\n      swap3\n      pop\n      pop\n      pop\n      jump\t// out\n        /* \"#utility.yul\":13646:13706   */\n    tag_178:\n        /* \"#utility.yul\":13674:13677   */\n      0x00\n        /* \"#utility.yul\":13695:13700   */\n      dup2\n        /* \"#utility.yul\":13688:13700   */\n      swap1\n      pop\n        /* \"#utility.yul\":13646:13706   */\n      swap2\n      swap1\n      pop\n      jump\t// out\n        /* \"#utility.yul\":13712:13854   */\n    tag_179:\n        /* \"#utility.yul\":13762:13771   */\n      0x00\n        /* \"#utility.yul\":13795:13848   */\n      tag_347\n        /* \"#utility.yul\":13813:13847   */\n      tag_348\n        /* \"#utility.yul\":13822:13846   */\n      tag_349\n        /* \"#utility.yul\":13840:13845   */\n      dup5\n        /* \"#utility.yul\":13822:13846   */\n      tag_130\n      jump\t// in\n    tag_349:\n        /* \"#utility.yul\":13813:13847   */\n      tag_178\n      jump\t// in\n    tag_348:\n        /* \"#utility.yul\":13795:13848   */\n      tag_130\n      jump\t// in\n    tag_347:\n        /* \"#utility.yul\":13782:13848   */\n      swap1\n      pop\n        /* \"#utility.yul\":13712:13854   */\n      swap2\n      swap1\n      pop\n      jump\t// out\n        /* \"#utility.yul\":13860:13935   */\n    tag_180:\n        /* \"#utility.yul\":13903:13906   */\n      0x00\n        /* \"#utility.yul\":13924:13929   */\n      dup2\n        /* \"#utility.yul\":13917:13929   */\n      swap1\n      pop\n        /* \"#utility.yul\":13860:13935   */\n      swap2\n      swap1\n      pop\n      jump\t// out\n        /* \"#utility.yul\":13941:14210   */\n    tag_181:\n        /* \"#utility.yul\":14051:14090   */\n      tag_352\n        /* \"#utility.yul\":14082:14089   */\n      dup4\n        /* \"#utility.yul\":14051:14090   */\n      tag_179\n      jump\t// in\n    tag_352:\n        /* \"#utility.yul\":14112:14203   */\n      tag_353\n        /* \"#utility.yul\":14161:14202   */\n      tag_354\n        /* \"#utility.yul\":14185:14201   */\n      dup3\n        /* \"#utility.yul\":14161:14202   */\n      tag_180\n      jump\t// in\n    tag_354:\n        /* \"#utility.yul\":14153:14159   */\n      dup5\n        /* \"#utility.yul\":14146:14150   */\n      dup5\n        /* \"#utility.yul\":14140:14151   */\n      sload\n        /* \"#utility.yul\":14112:14203   */\n      tag_177\n      jump\t// in\n    tag_353:\n        /* \"#utility.yul\":14106:14110   */\n      dup3\n        /* \"#utility.yul\":14099:14204   */\n      sstore\n        /* \"#utility.yul\":14017:14210   */\n      pop\n        /* \"#utility.yul\":13941:14210   */\n      pop\n      pop\n      pop\n      jump\t// out\n        /* \"#utility.yul\":14216:14289   */\n    tag_182:\n        /* \"#utility.yul\":14261:14264   */\n      0x00\n        /* \"#utility.yul\":14216:14289   */\n      swap1\n      jump\t// out\n        /* \"#utility.yul\":14295:14484   */\n    tag_183:\n        /* \"#utility.yul\":14372:14404   */\n      tag_357\n      tag_182\n      jump\t// in\n    tag_357:\n        /* \"#utility.yul\":14413:14478   */\n      tag_358\n        /* \"#utility.yul\":14471:14477   */\n      dup2\n        /* \"#utility.yul\":14463:14469   */\n      dup5\n        /* \"#utility.yul\":14457:14461   */\n      dup5\n        /* \"#utility.yul\":14413:14478   */\n      tag_181\n      jump\t// in\n    tag_358:\n        /* \"#utility.yul\":14348:14484   */\n      pop\n        /* \"#utility.yul\":14295:14484   */\n      pop\n      pop\n      jump\t// out\n        /* \"#utility.yul\":14490:14676   */\n    tag_184:\n        /* \"#utility.yul\":14550:14670   */\n    tag_360:\n        /* \"#utility.yul\":14567:14570   */\n      dup2\n        /* \"#utility.yul\":14560:14565   */\n      dup2\n        /* \"#utility.yul\":14557:14571   */\n      lt\n        /* \"#utility.yul\":14550:14670   */\n      iszero\n      tag_362\n      jumpi\n        /* \"#utility.yul\":14621:14660   */\n      tag_363\n        /* \"#utility.yul\":14658:14659   */\n      0x00\n        /* \"#utility.yul\":14651:14656   */\n      dup3\n        /* \"#utility.yul\":14621:14660   */\n      tag_183\n      jump\t// in\n    tag_363:\n        /* \"#utility.yul\":14594:14595   */\n      0x01\n        /* \"#utility.yul\":14587:14592   */\n      dup2\n        /* \"#utility.yul\":14583:14596   */\n      add\n        /* \"#utility.yul\":14574:14596   */\n      swap1\n      pop\n        /* \"#utility.yul\":14550:14670   */\n      jump(tag_360)\n    tag_362:\n        /* \"#utility.yul\":14490:14676   */\n      pop\n      pop\n      jump\t// out\n        /* \"#utility.yul\":14682:15225   */\n    tag_185:\n        /* \"#utility.yul\":14783:14785   */\n      0x1f\n        /* \"#utility.yul\":14778:14781   */\n      dup3\n        /* \"#utility.yul\":14775:14786   */\n      gt\n        /* \"#utility.yul\":14772:15218   */\n      iszero\n      tag_365\n      jumpi\n        /* \"#utility.yul\":14817:14855   */\n      tag_366\n        /* \"#utility.yul\":14849:14854   */\n      dup2\n        /* \"#utility.yul\":14817:14855   */\n      tag_174\n      jump\t// in\n    tag_366:\n        /* \"#utility.yul\":14901:14930   */\n      tag_367\n        /* \"#utility.yul\":14919:14929   */\n      dup5\n        /* \"#utility.yul\":14901:14930   */\n      tag_175\n      jump\t// in\n    tag_367:\n        /* \"#utility.yul\":14891:14899   */\n      dup2\n        /* \"#utility.yul\":14887:14931   */\n      add\n        /* \"#utility.yul\":15084:15086   */\n      0x20\n        /* \"#utility.yul\":15072:15082   */\n      dup6\n        /* \"#utility.yul\":15069:15087   */\n      lt\n        /* \"#utility.yul\":15066:15115   */\n      iszero\n      tag_368\n      jumpi\n        /* \"#utility.yul\":15105:15113   */\n      dup2\n        /* \"#utility.yul\":15090:15113   */\n      swap1\n      pop\n        /* \"#utility.yul\":15066:15115   */\n    tag_368:\n        /* \"#utility.yul\":15128:15208   */\n      tag_369\n        /* \"#utility.yul\":15184:15206   */\n      tag_370\n        /* \"#utility.yul\":15202:15205   */\n      dup6\n        /* \"#utility.yul\":15184:15206   */\n      tag_175\n      jump\t// in\n    tag_370:\n        /* \"#utility.yul\":15174:15182   */\n      dup4\n        /* \"#utility.yul\":15170:15207   */\n      add\n        /* \"#utility.yul\":15157:15168   */\n      dup3\n        /* \"#utility.yul\":15128:15208   */\n      tag_184\n      jump\t// in\n    tag_369:\n        /* \"#utility.yul\":14787:15218   */\n      pop\n      pop\n        /* \"#utility.yul\":14772:15218   */\n    tag_365:\n        /* \"#utility.yul\":14682:15225   */\n      pop\n      pop\n      pop\n      jump\t// out\n        /* \"#utility.yul\":15231:15348   */\n    tag_186:\n        /* \"#utility.yul\":15285:15293   */\n      0x00\n        /* \"#utility.yul\":15335:15340   */\n      dup3\n        /* \"#utility.yul\":15329:15333   */\n      dup3\n        /* \"#utility.yul\":15325:15341   */\n      shr\n        /* \"#utility.yul\":15304:15341   */\n      swap1\n      pop\n        /* \"#utility.yul\":15231:15348   */\n      swap3\n      swap2\n      pop\n      pop\n      jump\t// out\n        /* \"#utility.yul\":15354:15523   */\n    tag_187:\n        /* \"#utility.yul\":15398:15404   */\n      0x00\n        /* \"#utility.yul\":15431:15482   */\n      tag_373\n        /* \"#utility.yul\":15479:15480   */\n      0x00\n        /* \"#utility.yul\":15475:15481   */\n      not\n        /* \"#utility.yul\":15467:15472   */\n      dup5\n        /* \"#utility.yul\":15464:15465   */\n      0x08\n        /* \"#utility.yul\":15460:15473   */\n      mul\n        /* \"#utility.yul\":15431:15482   */\n      tag_186\n      jump\t// in\n    tag_373:\n        /* \"#utility.yul\":15427:15483   */\n      not\n        /* \"#utility.yul\":15512:15516   */\n      dup1\n        /* \"#utility.yul\":15506:15510   */\n      dup4\n        /* \"#utility.yul\":15502:15517   */\n      and\n        /* \"#utility.yul\":15492:15517   */\n      swap2\n      pop\n        /* \"#utility.yul\":15405:15523   */\n      pop\n        /* \"#utility.yul\":15354:15523   */\n      swap3\n      swap2\n      pop\n      pop\n      jump\t// out\n        /* \"#utility.yul\":15528:15823   */\n    tag_188:\n        /* \"#utility.yul\":15604:15608   */\n      0x00\n        /* \"#utility.yul\":15750:15779   */\n      tag_375\n        /* \"#utility.yul\":15775:15778   */\n      dup4\n        /* \"#utility.yul\":15769:15773   */\n      dup4\n        /* \"#utility.yul\":15750:15779   */\n      tag_187\n      jump\t// in\n    tag_375:\n        /* \"#utility.yul\":15742:15779   */\n      swap2\n      pop\n        /* \"#utility.yul\":15812:15815   */\n      dup3\n        /* \"#utility.yul\":15809:15810   */\n      0x02\n        /* \"#utility.yul\":15805:15816   */\n      mul\n        /* \"#utility.yul\":15799:15803   */\n      dup3\n        /* \"#utility.yul\":15796:15817   */\n      or\n        /* \"#utility.yul\":15788:15817   */\n      swap1\n      pop\n        /* \"#utility.yul\":15528:15823   */\n      swap3\n      swap2\n      pop\n      pop\n      jump\t// out\n        /* \"#utility.yul\":15828:17223   */\n    tag_116:\n        /* \"#utility.yul\":15945:15982   */\n      tag_377\n        /* \"#utility.yul\":15978:15981   */\n      dup3\n        /* \"#utility.yul\":15945:15982   */\n      tag_139\n      jump\t// in\n    tag_377:\n        /* \"#utility.yul\":16047:16065   */\n      0xffffffffffffffff\n        /* \"#utility.yul\":16039:16045   */\n      dup2\n        /* \"#utility.yul\":16036:16066   */\n      gt\n        /* \"#utility.yul\":16033:16089   */\n      iszero\n      tag_378\n      jumpi\n        /* \"#utility.yul\":16069:16087   */\n      tag_379\n      tag_153\n      jump\t// in\n    tag_379:\n        /* \"#utility.yul\":16033:16089   */\n    tag_378:\n        /* \"#utility.yul\":16113:16151   */\n      tag_380\n        /* \"#utility.yul\":16145:16149   */\n      dup3\n        /* \"#utility.yul\":16139:16150   */\n      sload\n        /* \"#utility.yul\":16113:16151   */\n      tag_69\n      jump\t// in\n    tag_380:\n        /* \"#utility.yul\":16198:16265   */\n      tag_381\n        /* \"#utility.yul\":16258:16264   */\n      dup3\n        /* \"#utility.yul\":16250:16256   */\n      dup3\n        /* \"#utility.yul\":16244:16248   */\n      dup6\n        /* \"#utility.yul\":16198:16265   */\n      tag_185\n      jump\t// in\n    tag_381:\n        /* \"#utility.yul\":16292:16293   */\n      0x00\n        /* \"#utility.yul\":16316:16320   */\n      0x20\n        /* \"#utility.yul\":16303:16320   */\n      swap1\n      pop\n        /* \"#utility.yul\":16348:16350   */\n      0x1f\n        /* \"#utility.yul\":16340:16346   */\n      dup4\n        /* \"#utility.yul\":16337:16351   */\n      gt\n        /* \"#utility.yul\":16365:16366   */\n      0x01\n        /* \"#utility.yul\":16360:16978   */\n      dup2\n      eq\n      tag_383\n      jumpi\n        /* \"#utility.yul\":17022:17023   */\n      0x00\n        /* \"#utility.yul\":17039:17045   */\n      dup5\n        /* \"#utility.yul\":17036:17113   */\n      iszero\n      tag_384\n      jumpi\n        /* \"#utility.yul\":17088:17097   */\n      dup3\n        /* \"#utility.yul\":17083:17086   */\n      dup8\n        /* \"#utility.yul\":17079:17098   */\n      add\n        /* \"#utility.yul\":17073:17099   */\n      mload\n        /* \"#utility.yul\":17064:17099   */\n      swap1\n      pop\n        /* \"#utility.yul\":17036:17113   */\n    tag_384:\n        /* \"#utility.yul\":17139:17206   */\n      tag_385\n        /* \"#utility.yul\":17199:17205   */\n      dup6\n        /* \"#utility.yul\":17192:17197   */\n      dup3\n        /* \"#utility.yul\":17139:17206   */\n      tag_188\n      jump\t// in\n    tag_385:\n        /* \"#utility.yul\":17133:17137   */\n      dup7\n        /* \"#utility.yul\":17126:17207   */\n      sstore\n        /* \"#utility.yul\":16995:17217   */\n      pop\n        /* \"#utility.yul\":16330:17217   */\n      jump(tag_382)\n        /* \"#utility.yul\":16360:16978   */\n    tag_383:\n        /* \"#utility.yul\":16412:16416   */\n      0x1f\n        /* \"#utility.yul\":16408:16417   */\n      not\n        /* \"#utility.yul\":16400:16406   */\n      dup5\n        /* \"#utility.yul\":16396:16418   */\n      and\n        /* \"#utility.yul\":16446:16483   */\n      tag_386\n        /* \"#utility.yul\":16478:16482   */\n      dup7\n        /* \"#utility.yul\":16446:16483   */\n      tag_174\n      jump\t// in\n    tag_386:\n        /* \"#utility.yul\":16505:16506   */\n      0x00\n        /* \"#utility.yul\":16519:16727   */\n    tag_387:\n        /* \"#utility.yul\":16533:16540   */\n      dup3\n        /* \"#utility.yul\":16530:16531   */\n      dup2\n        /* \"#utility.yul\":16527:16541   */\n      lt\n        /* \"#utility.yul\":16519:16727   */\n      iszero\n      tag_389\n      jumpi\n        /* \"#utility.yul\":16612:16621   */\n      dup5\n        /* \"#utility.yul\":16607:16610   */\n      dup10\n        /* \"#utility.yul\":16603:16622   */\n      add\n        /* \"#utility.yul\":16597:16623   */\n      mload\n        /* \"#utility.yul\":16589:16595   */\n      dup3\n        /* \"#utility.yul\":16582:16624   */\n      sstore\n        /* \"#utility.yul\":16663:16664   */\n      0x01\n        /* \"#utility.yul\":16655:16661   */\n      dup3\n        /* \"#utility.yul\":16651:16665   */\n      add\n        /* \"#utility.yul\":16641:16665   */\n      swap2\n      pop\n        /* \"#utility.yul\":16710:16712   */\n      0x20\n        /* \"#utility.yul\":16699:16708   */\n      dup6\n        /* \"#utility.yul\":16695:16713   */\n      add\n        /* \"#utility.yul\":16682:16713   */\n      swap5\n      pop\n        /* \"#utility.yul\":16556:16560   */\n      0x20\n        /* \"#utility.yul\":16553:16554   */\n      dup2\n        /* \"#utility.yul\":16549:16561   */\n      add\n        /* \"#utility.yul\":16544:16561   */\n      swap1\n      pop\n        /* \"#utility.yul\":16519:16727   */\n      jump(tag_387)\n    tag_389:\n        /* \"#utility.yul\":16755:16761   */\n      dup7\n        /* \"#utility.yul\":16746:16753   */\n      dup4\n        /* \"#utility.yul\":16743:16762   */\n      lt\n        /* \"#utility.yul\":16740:16919   */\n      iszero\n      tag_390\n      jumpi\n        /* \"#utility.yul\":16813:16822   */\n      dup5\n        /* \"#utility.yul\":16808:16811   */\n      dup10\n        /* \"#utility.yul\":16804:16823   */\n      add\n        /* \"#utility.yul\":16798:16824   */\n      mload\n        /* \"#utility.yul\":16856:16904   */\n      tag_391\n        /* \"#utility.yul\":16898:16902   */\n      0x1f\n        /* \"#utility.yul\":16890:16896   */\n      dup10\n        /* \"#utility.yul\":16886:16903   */\n      and\n        /* \"#utility.yul\":16875:16884   */\n      dup3\n        /* \"#utility.yul\":16856:16904   */\n      tag_187\n      jump\t// in\n    tag_391:\n        /* \"#utility.yul\":16848:16854   */\n      dup4\n        /* \"#utility.yul\":16841:16905   */\n      sstore\n        /* \"#utility.yul\":16763:16919   */\n      pop\n        /* \"#utility.yul\":16740:16919   */\n    tag_390:\n        /* \"#utility.yul\":16965:16966   */\n      0x01\n        /* \"#utility.yul\":16961:16962   */\n      0x02\n        /* \"#utility.yul\":16953:16959   */\n      dup9\n        /* \"#utility.yul\":16949:16963   */\n      mul\n        /* \"#utility.yul\":16945:16967   */\n      add\n        /* \"#utility.yul\":16939:16943   */\n      dup9\n        /* \"#utility.yul\":16932:16968   */\n      sstore\n        /* \"#utility.yul\":16367:16978   */\n      pop\n      pop\n      pop\n        /* \"#utility.yul\":16330:17217   */\n    tag_382:\n      pop\n        /* \"#utility.yul\":15920:17223   */\n      pop\n      pop\n      pop\n        /* \"#utility.yul\":15828:17223   */\n      pop\n      pop\n      jump\t// out\n        /* \"#utility.yul\":17229:17423   */\n    tag_118:\n        /* \"#utility.yul\":17269:17273   */\n      0x00\n        /* \"#utility.yul\":17289:17309   */\n      tag_393\n        /* \"#utility.yul\":17307:17308   */\n      dup3\n        /* \"#utility.yul\":17289:17309   */\n      tag_130\n      jump\t// in\n    tag_393:\n        /* \"#utility.yul\":17284:17309   */\n      swap2\n      pop\n        /* \"#utility.yul\":17323:17343   */\n      tag_394\n        /* \"#utility.yul\":17341:17342   */\n      dup4\n        /* \"#utility.yul\":17323:17343   */\n      tag_130\n      jump\t// in\n    tag_394:\n        /* \"#utility.yul\":17318:17343   */\n      swap3\n      pop\n        /* \"#utility.yul\":17367:17368   */\n      dup3\n        /* \"#utility.yul\":17364:17365   */\n      dup3\n        /* \"#utility.yul\":17360:17369   */\n      sub\n        /* \"#utility.yul\":17352:17369   */\n      swap1\n      pop\n        /* \"#utility.yul\":17391:17392   */\n      dup2\n        /* \"#utility.yul\":17385:17389   */\n      dup2\n        /* \"#utility.yul\":17382:17393   */\n      gt\n        /* \"#utility.yul\":17379:17416   */\n      iszero\n      tag_395\n      jumpi\n        /* \"#utility.yul\":17396:17414   */\n      tag_396\n      tag_167\n      jump\t// in\n    tag_396:\n        /* \"#utility.yul\":17379:17416   */\n    tag_395:\n        /* \"#utility.yul\":17229:17423   */\n      swap3\n      swap2\n      pop\n      pop\n      jump\t// out\n        /* \"#utility.yul\":17429:17569   */\n    tag_189:\n        /* \"#utility.yul\":17478:17487   */\n      0x00\n        /* \"#utility.yul\":17511:17563   */\n      tag_398\n        /* \"#utility.yul\":17529:17562   */\n      tag_399\n        /* \"#utility.yul\":17538:17561   */\n      tag_400\n        /* \"#utility.yul\":17555:17560   */\n      dup5\n        /* \"#utility.yul\":17538:17561   */\n      tag_144\n      jump\t// in\n    tag_400:\n        /* \"#utility.yul\":17529:17562   */\n      tag_178\n      jump\t// in\n    tag_399:\n        /* \"#utility.yul\":17511:17563   */\n      tag_130\n      jump\t// in\n    tag_398:\n        /* \"#utility.yul\":17498:17563   */\n      swap1\n      pop\n        /* \"#utility.yul\":17429:17569   */\n      swap2\n      swap1\n      pop\n      jump\t// out\n        /* \"#utility.yul\":17575:17704   */\n    tag_190:\n        /* \"#utility.yul\":17661:17697   */\n      tag_402\n        /* \"#utility.yul\":17691:17696   */\n      dup2\n        /* \"#utility.yul\":17661:17697   */\n      tag_189\n      jump\t// in\n    tag_402:\n        /* \"#utility.yul\":17656:17659   */\n      dup3\n        /* \"#utility.yul\":17649:17698   */\n      mstore\n        /* \"#utility.yul\":17575:17704   */\n      pop\n      pop\n      jump\t// out\n        /* \"#utility.yul\":17710:18241   */\n    tag_123:\n        /* \"#utility.yul\":17878:17882   */\n      0x00\n        /* \"#utility.yul\":17916:17918   */\n      0x60\n        /* \"#utility.yul\":17905:17914   */\n      dup3\n        /* \"#utility.yul\":17901:17919   */\n      add\n        /* \"#utility.yul\":17893:17919   */\n      swap1\n      pop\n        /* \"#utility.yul\":17929:18000   */\n      tag_404\n        /* \"#utility.yul\":17997:17998   */\n      0x00\n        /* \"#utility.yul\":17986:17995   */\n      dup4\n        /* \"#utility.yul\":17982:17999   */\n      add\n        /* \"#utility.yul\":17973:17979   */\n      dup7\n        /* \"#utility.yul\":17929:18000   */\n      tag_131\n      jump\t// in\n    tag_404:\n        /* \"#utility.yul\":18047:18056   */\n      dup2\n        /* \"#utility.yul\":18041:18045   */\n      dup2\n        /* \"#utility.yul\":18037:18057   */\n      sub\n        /* \"#utility.yul\":18032:18034   */\n      0x20\n        /* \"#utility.yul\":18021:18030   */\n      dup4\n        /* \"#utility.yul\":18017:18035   */\n      add\n        /* \"#utility.yul\":18010:18058   */\n      mstore\n        /* \"#utility.yul\":18075:18153   */\n      tag_405\n        /* \"#utility.yul\":18148:18152   */\n      dup2\n        /* \"#utility.yul\":18139:18145   */\n      dup6\n        /* \"#utility.yul\":18075:18153   */\n      tag_143\n      jump\t// in\n    tag_405:\n        /* \"#utility.yul\":18067:18153   */\n      swap1\n      pop\n        /* \"#utility.yul\":18163:18234   */\n      tag_406\n        /* \"#utility.yul\":18230:18232   */\n      0x40\n        /* \"#utility.yul\":18219:18228   */\n      dup4\n        /* \"#utility.yul\":18215:18233   */\n      add\n        /* \"#utility.yul\":18206:18212   */\n      dup5\n        /* \"#utility.yul\":18163:18234   */\n      tag_190\n      jump\t// in\n    tag_406:\n        /* \"#utility.yul\":17710:18241   */\n      swap5\n      swap4\n      pop\n      pop\n      pop\n      pop\n      jump\t// out\n        /* \"#utility.yul\":18247:18438   */\n    tag_126:\n        /* \"#utility.yul\":18287:18290   */\n      0x00\n        /* \"#utility.yul\":18306:18326   */\n      tag_408\n        /* \"#utility.yul\":18324:18325   */\n      dup3\n        /* \"#utility.yul\":18306:18326   */\n      tag_130\n      jump\t// in\n    tag_408:\n        /* \"#utility.yul\":18301:18326   */\n      swap2\n      pop\n        /* \"#utility.yul\":18340:18360   */\n      tag_409\n        /* \"#utility.yul\":18358:18359   */\n      dup4\n        /* \"#utility.yul\":18340:18360   */\n      tag_130\n      jump\t// in\n    tag_409:\n        /* \"#utility.yul\":18335:18360   */\n      swap3\n      pop\n        /* \"#utility.yul\":18383:18384   */\n      dup3\n        /* \"#utility.yul\":18380:18381   */\n      dup3\n        /* \"#utility.yul\":18376:18385   */\n      add\n        /* \"#utility.yul\":18369:18385   */\n      swap1\n      pop\n        /* \"#utility.yul\":18404:18407   */\n      dup1\n        /* \"#utility.yul\":18401:18402   */\n      dup3\n        /* \"#utility.yul\":18398:18408   */\n      gt\n        /* \"#utility.yul\":18395:18431   */\n      iszero\n      tag_410\n      jumpi\n        /* \"#utility.yul\":18411:18429   */\n      tag_411\n      tag_167\n      jump\t// in\n    tag_411:\n        /* \"#utility.yul\":18395:18431   */\n    tag_410:\n        /* \"#utility.yul\":18247:18438   */\n      swap3\n      swap2\n      pop\n      pop\n      jump\t// out\n        /* \"#utility.yul\":18444:18624   */\n    tag_129:\n        /* \"#utility.yul\":18492:18569   */\n      0x4e487b7100000000000000000000000000000000000000000000000000000000\n        /* \"#utility.yul\":18489:18490   */\n      0x00\n        /* \"#utility.yul\":18482:18570   */\n      mstore\n        /* \"#utility.yul\":18589:18593   */\n      0x01\n        /* \"#utility.yul\":18586:18587   */\n      0x04\n        /* \"#utility.yul\":18579:18594   */\n      mstore\n        /* \"#utility.yul\":18613:18617   */\n      0x24\n        /* \"#utility.yul\":18610:18611   */\n      0x00\n        /* \"#utility.yul\":18603:18618   */\n      revert\n\n    auxdata: 0xa2646970667358221220d7b477dcd2662b0a844aa18e059cef0d0d2da953c67ff1d8378ca7b4ad8023cd64736f6c63430008110033\n}\n",
				"bytecode": {
					"linkReferences": {},
					"object": "608060405260008060146101000a81548160ff0219169083151502179055506010600155600154600a6200003491906200022f565b60025562015180600355662386f26fc1000060045560006005553480156200005b57600080fd5b50336000806101000a81548173ffffffffffffffffffffffffffffffffffffffff021916908373ffffffffffffffffffffffffffffffffffffffff16021790555062000280565b7f4e487b7100000000000000000000000000000000000000000000000000000000600052601160045260246000fd5b60008160011c9050919050565b6000808291508390505b60018511156200013057808604811115620001085762000107620000a2565b5b6001851615620001185780820291505b80810290506200012885620000d1565b9450620000e8565b94509492505050565b6000826200014b57600190506200021e565b816200015b57600090506200021e565b81600181146200017457600281146200017f57620001b5565b60019150506200021e565b60ff841115620001945762000193620000a2565b5b8360020a915084821115620001ae57620001ad620000a2565b5b506200021e565b5060208310610133831016604e8410600b8410161715620001ef5782820a905083811115620001e957620001e8620000a2565b5b6200021e565b620001fe8484846001620000de565b92509050818404811115620002185762000217620000a2565b5b81810290505b9392505050565b6000819050919050565b60006200023c8262000225565b9150620002498362000225565b9250620002787fffffffffffffffffffffffffffffffffffffffffffffffffffffffffffffffff848462000139565b905092915050565b61163680620002906000396000f3fe60806040526004361061009c5760003560e01c80638da5cb5b116100645780638da5cb5b146101a1578063a38d7e5b146101cc578063b319c6b7146101f5578063e7eb121414610220578063f2fde38b14610249578063f94f0593146102725761009c565b806302f4db2f146100a1578063206c8db4146100cc5780633ece8f6f146100f75780635e0b8654146101225780636de2e36c14610164575b600080fd5b3480156100ad57600080fd5b506100b661028e565b6040516100c39190610b5c565b60405180910390f35b3480156100d857600080fd5b506100e1610294565b6040516100ee9190610b92565b60405180910390f35b34801561010357600080fd5b5061010c6102a7565b6040516101199190610b5c565b60405180910390f35b34801561012e57600080fd5b5061014960048036038101906101449190610bed565b6102ad565b60405161015b96959493929190610ce6565b60405180910390f35b34801561017057600080fd5b5061018b60048036038101906101869190610bed565b6103cb565b6040516101989190610d8f565b60405180910390f35b3480156101ad57600080fd5b506101b66103fe565b6040516101c39190610d8f565b60405180910390f35b3480156101d857600080fd5b506101f360048036038101906101ee9190610edf565b610422565b005b34801561020157600080fd5b5061020a6104d9565b6040516102179190610b5c565b60405180910390f35b34801561022c57600080fd5b5061024760048036038101906102429190610bed565b6104df565b005b34801561025557600080fd5b50610270600480360381019061026b9190610f66565b610577565b005b61028c60048036038101906102879190610edf565b610731565b005b60055481565b600060149054906101000a900460ff1681565b60045481565b600681815481106102bd57600080fd5b90600052602060002090600202016000915090508060000180546102e090610fc2565b80601f016020809104026020016040519081016040528092919081815260200182805461030c90610fc2565b80156103595780601f1061032e57610100808354040283529160200191610359565b820191906000526020600020905b81548152906001019060200180831161033c57829003601f168201915b5050505050908060010160009054906101000a900461ffff16908060010160029054906101000a900461ffff16908060010160049054906101000a900461ffff16908060010160069054906101000a900463ffffffff169080600101600a9054906101000a900463ffffffff16905086565b60076020528060005260406000206000915054906101000a900473ffffffffffffffffffffffffffffffffffffffff1681565b60008054906101000a900473ffffffffffffffffffffffffffffffffffffffff1681565b6000600860003373ffffffffffffffffffffffffffffffffffffffff1673ffffffffffffffffffffffffffffffffffffffff16815260200190815260200160002054146104a4576040517f08c379a000000000000000000000000000000000000000000000000000000000815260040161049b9061103f565b60405180910390fd5b60006104af82610838565b9050600a816104be919061108e565b816104c991906110ee565b90506104d5828261087a565b5050565b60035481565b60008054906101000a900473ffffffffffffffffffffffffffffffffffffffff1673ffffffffffffffffffffffffffffffffffffffff163373ffffffffffffffffffffffffffffffffffffffff161461056d576040517f08c379a000000000000000000000000000000000000000000000000000000000815260040161056490611170565b60405180910390fd5b8060048190555050565b60008054906101000a900473ffffffffffffffffffffffffffffffffffffffff1673ffffffffffffffffffffffffffffffffffffffff163373ffffffffffffffffffffffffffffffffffffffff1614610605576040517f08c379a00000000000000000000000000000000000000000000000000000000081526004016105fc90611170565b60405180910390fd5b600073ffffffffffffffffffffffffffffffffffffffff168173ffffffffffffffffffffffffffffffffffffffff1603610674576040517f08c379a000000000000000000000000000000000000000000000000000000000815260040161066b90611170565b60405180910390fd5b8073ffffffffffffffffffffffffffffffffffffffff1660008054906101000a900473ffffffffffffffffffffffffffffffffffffffff1673ffffffffffffffffffffffffffffffffffffffff167f8be0079c531659141344cd1fd0a4f28419497f9722a3daafe3b4186f6b6457e060405160405180910390a3806000806101000a81548173ffffffffffffffffffffffffffffffffffffffff021916908373ffffffffffffffffffffffffffffffffffffffff16021790555050565b6000600860003373ffffffffffffffffffffffffffffffffffffffff1673ffffffffffffffffffffffffffffffffffffffff16815260200190815260200160002054116107b3576040517f08c379a00000000000000000000000000000000000000000000000000000000081526004016107aa9061103f565b60405180910390fd5b60045434116107f7576040517f08c379a00000000000000000000000000000000000000000000000000000000081526004016107ee9061103f565b60405180910390fd5b600061080282610838565b90506001600a82610813919061108e565b8261081e91906110ee565b6108289190611190565b9050610834828261087a565b5050565b60006002548242604051602001610850929190611223565b6040516020818303038152906040528051906020012060001c610873919061124b565b9050919050565b60066040518060c001604052808481526020018361ffff168152602001600061ffff168152602001600061ffff168152602001600163ffffffff168152602001600063ffffffff16815250908060018154018082558091505060019003906000526020600020906002020160009091909190915060008201518160000190816109039190611428565b5060208201518160010160006101000a81548161ffff021916908361ffff16021790555060408201518160010160026101000a81548161ffff021916908361ffff16021790555060608201518160010160046101000a81548161ffff021916908361ffff16021790555060808201518160010160066101000a81548163ffffffff021916908363ffffffff16021790555060a082015181600101600a6101000a81548163ffffffff021916908363ffffffff1602179055505050600060016006805490506109d191906114fa565b9050336007600083815260200190815260200160002060006101000a81548173ffffffffffffffffffffffffffffffffffffffff021916908373ffffffffffffffffffffffffffffffffffffffff160217905550610a786001600860003373ffffffffffffffffffffffffffffffffffffffff1673ffffffffffffffffffffffffffffffffffffffff16815260200190815260200160002054610b1790919063ffffffff16565b600860003373ffffffffffffffffffffffffffffffffffffffff1673ffffffffffffffffffffffffffffffffffffffff16815260200190815260200160002081905550610ad16001600554610b1790919063ffffffff16565b6005819055507fffb2fb18e6d3ec7ef368d2f329ef22f9431aaebe0fcbc9282d7770949ac8cd31818484604051610b0a9392919061155f565b60405180910390a1505050565b6000808284610b26919061159d565b905083811015610b3957610b386115d1565b5b8091505092915050565b6000819050919050565b610b5681610b43565b82525050565b6000602082019050610b716000830184610b4d565b92915050565b60008115159050919050565b610b8c81610b77565b82525050565b6000602082019050610ba76000830184610b83565b92915050565b6000604051905090565b600080fd5b600080fd5b610bca81610b43565b8114610bd557600080fd5b50565b600081359050610be781610bc1565b92915050565b600060208284031215610c0357610c02610bb7565b5b6000610c1184828501610bd8565b91505092915050565b600081519050919050565b600082825260208201905092915050565b60005b83811015610c54578082015181840152602081019050610c39565b60008484015250505050565b6000601f19601f8301169050919050565b6000610c7c82610c1a565b610c868185610c25565b9350610c96818560208601610c36565b610c9f81610c60565b840191505092915050565b600061ffff82169050919050565b610cc181610caa565b82525050565b600063ffffffff82169050919050565b610ce081610cc7565b82525050565b600060c0820190508181036000830152610d008189610c71565b9050610d0f6020830188610cb8565b610d1c6040830187610cb8565b610d296060830186610cb8565b610d366080830185610cd7565b610d4360a0830184610cd7565b979650505050505050565b600073ffffffffffffffffffffffffffffffffffffffff82169050919050565b6000610d7982610d4e565b9050919050565b610d8981610d6e565b82525050565b6000602082019050610da46000830184610d80565b92915050565b600080fd5b600080fd5b7f4e487b7100000000000000000000000000000000000000000000000000000000600052604160045260246000fd5b610dec82610c60565b810181811067ffffffffffffffff82111715610e0b57610e0a610db4565b5b80604052505050565b6000610e1e610bad565b9050610e2a8282610de3565b919050565b600067ffffffffffffffff821115610e4a57610e49610db4565b5b610e5382610c60565b9050602081019050919050565b82818337600083830152505050565b6000610e82610e7d84610e2f565b610e14565b905082815260208101848484011115610e9e57610e9d610daf565b5b610ea9848285610e60565b509392505050565b600082601f830112610ec657610ec5610daa565b5b8135610ed6848260208601610e6f565b91505092915050565b600060208284031215610ef557610ef4610bb7565b5b600082013567ffffffffffffffff811115610f1357610f12610bbc565b5b610f1f84828501610eb1565b91505092915050565b6000610f3382610d4e565b9050919050565b610f4381610f28565b8114610f4e57600080fd5b50565b600081359050610f6081610f3a565b92915050565b600060208284031215610f7c57610f7b610bb7565b5b6000610f8a84828501610f51565b91505092915050565b7f4e487b7100000000000000000000000000000000000000000000000000000000600052602260045260246000fd5b60006002820490506001821680610fda57607f821691505b602082108103610fed57610fec610f93565b5b50919050565b7f6572726f72000000000000000000000000000000000000000000000000000000600082015250565b6000611029600583610c25565b915061103482610ff3565b602082019050919050565b600060208201905081810360008301526110588161101c565b9050919050565b7f4e487b7100000000000000000000000000000000000000000000000000000000600052601260045260246000fd5b600061109982610caa565b91506110a483610caa565b9250826110b4576110b361105f565b5b828206905092915050565b7f4e487b7100000000000000000000000000000000000000000000000000000000600052601160045260246000fd5b60006110f982610caa565b915061110483610caa565b9250828203905061ffff81111561111e5761111d6110bf565b5b92915050565b7f4d75737420636f6e7472616374206f776e657200000000000000000000000000600082015250565b600061115a601383610c25565b915061116582611124565b602082019050919050565b600060208201905081810360008301526111898161114d565b9050919050565b600061119b82610caa565b91506111a683610caa565b9250828201905061ffff8111156111c0576111bf6110bf565b5b92915050565b600081905092915050565b60006111dc82610c1a565b6111e681856111c6565b93506111f6818560208601610c36565b80840191505092915050565b6000819050919050565b61121d61121882610b43565b611202565b82525050565b600061122f82856111d1565b915061123b828461120c565b6020820191508190509392505050565b600061125682610b43565b915061126183610b43565b9250826112715761127061105f565b5b828206905092915050565b60008190508160005260206000209050919050565b60006020601f8301049050919050565b600082821b905092915050565b6000600883026112de7fffffffffffffffffffffffffffffffffffffffffffffffffffffffffffffffff826112a1565b6112e886836112a1565b95508019841693508086168417925050509392505050565b6000819050919050565b600061132561132061131b84610b43565b611300565b610b43565b9050919050565b6000819050919050565b61133f8361130a565b61135361134b8261132c565b8484546112ae565b825550505050565b600090565b61136861135b565b611373818484611336565b505050565b5b818110156113975761138c600082611360565b600181019050611379565b5050565b601f8211156113dc576113ad8161127c565b6113b684611291565b810160208510156113c5578190505b6113d96113d185611291565b830182611378565b50505b505050565b600082821c905092915050565b60006113ff600019846008026113e1565b1980831691505092915050565b600061141883836113ee565b9150826002028217905092915050565b61143182610c1a565b67ffffffffffffffff81111561144a57611449610db4565b5b6114548254610fc2565b61145f82828561139b565b600060209050601f8311600181146114925760008415611480578287015190505b61148a858261140c565b8655506114f2565b601f1984166114a08661127c565b60005b828110156114c8578489015182556001820191506020850194506020810190506114a3565b868310156114e557848901516114e1601f8916826113ee565b8355505b6001600288020188555050505b505050505050565b600061150582610b43565b915061151083610b43565b9250828203905081811115611528576115276110bf565b5b92915050565b600061154961154461153f84610caa565b611300565b610b43565b9050919050565b6115598161152e565b82525050565b60006060820190506115746000830186610b4d565b81810360208301526115868185610c71565b90506115956040830184611550565b949350505050565b60006115a882610b43565b91506115b383610b43565b92508282019050808211156115cb576115ca6110bf565b5b92915050565b7f4e487b7100000000000000000000000000000000000000000000000000000000600052600160045260246000fdfea2646970667358221220d7b477dcd2662b0a844aa18e059cef0d0d2da953c67ff1d8378ca7b4ad8023cd64736f6c63430008110033",
					"opcodes": "PUSH1 0x80 PUSH1 0x40 MSTORE PUSH1 0x0 DUP1 PUSH1 0x14 PUSH2 0x100 EXP DUP2 SLOAD DUP2 PUSH1 0xFF MUL NOT AND SWAP1 DUP4 ISZERO ISZERO MUL OR SWAP1 SSTORE POP PUSH1 0x10 PUSH1 0x1 SSTORE PUSH1 0x1 SLOAD PUSH1 0xA PUSH3 0x34 SWAP2 SWAP1 PUSH3 0x22F JUMP JUMPDEST PUSH1 0x2 SSTORE PUSH3 0x15180 PUSH1 0x3 SSTORE PUSH7 0x2386F26FC10000 PUSH1 0x4 SSTORE PUSH1 0x0 PUSH1 0x5 SSTORE CALLVALUE DUP1 ISZERO PUSH3 0x5B JUMPI PUSH1 0x0 DUP1 REVERT JUMPDEST POP CALLER PUSH1 0x0 DUP1 PUSH2 0x100 EXP DUP2 SLOAD DUP2 PUSH20 0xFFFFFFFFFFFFFFFFFFFFFFFFFFFFFFFFFFFFFFFF MUL NOT AND SWAP1 DUP4 PUSH20 0xFFFFFFFFFFFFFFFFFFFFFFFFFFFFFFFFFFFFFFFF AND MUL OR SWAP1 SSTORE POP PUSH3 0x280 JUMP JUMPDEST PUSH32 0x4E487B7100000000000000000000000000000000000000000000000000000000 PUSH1 0x0 MSTORE PUSH1 0x11 PUSH1 0x4 MSTORE PUSH1 0x24 PUSH1 0x0 REVERT JUMPDEST PUSH1 0x0 DUP2 PUSH1 0x1 SHR SWAP1 POP SWAP2 SWAP1 POP JUMP JUMPDEST PUSH1 0x0 DUP1 DUP3 SWAP2 POP DUP4 SWAP1 POP JUMPDEST PUSH1 0x1 DUP6 GT ISZERO PUSH3 0x130 JUMPI DUP1 DUP7 DIV DUP2 GT ISZERO PUSH3 0x108 JUMPI PUSH3 0x107 PUSH3 0xA2 JUMP JUMPDEST JUMPDEST PUSH1 0x1 DUP6 AND ISZERO PUSH3 0x118 JUMPI DUP1 DUP3 MUL SWAP2 POP JUMPDEST DUP1 DUP2 MUL SWAP1 POP PUSH3 0x128 DUP6 PUSH3 0xD1 JUMP JUMPDEST SWAP5 POP PUSH3 0xE8 JUMP JUMPDEST SWAP5 POP SWAP5 SWAP3 POP POP POP JUMP JUMPDEST PUSH1 0x0 DUP3 PUSH3 0x14B JUMPI PUSH1 0x1 SWAP1 POP PUSH3 0x21E JUMP JUMPDEST DUP2 PUSH3 0x15B JUMPI PUSH1 0x0 SWAP1 POP PUSH3 0x21E JUMP JUMPDEST DUP2 PUSH1 0x1 DUP2 EQ PUSH3 0x174 JUMPI PUSH1 0x2 DUP2 EQ PUSH3 0x17F JUMPI PUSH3 0x1B5 JUMP JUMPDEST PUSH1 0x1 SWAP2 POP POP PUSH3 0x21E JUMP JUMPDEST PUSH1 0xFF DUP5 GT ISZERO PUSH3 0x194 JUMPI PUSH3 0x193 PUSH3 0xA2 JUMP JUMPDEST JUMPDEST DUP4 PUSH1 0x2 EXP SWAP2 POP DUP5 DUP3 GT ISZERO PUSH3 0x1AE JUMPI PUSH3 0x1AD PUSH3 0xA2 JUMP JUMPDEST JUMPDEST POP PUSH3 0x21E JUMP JUMPDEST POP PUSH1 0x20 DUP4 LT PUSH2 0x133 DUP4 LT AND PUSH1 0x4E DUP5 LT PUSH1 0xB DUP5 LT AND OR ISZERO PUSH3 0x1EF JUMPI DUP3 DUP3 EXP SWAP1 POP DUP4 DUP2 GT ISZERO PUSH3 0x1E9 JUMPI PUSH3 0x1E8 PUSH3 0xA2 JUMP JUMPDEST JUMPDEST PUSH3 0x21E JUMP JUMPDEST PUSH3 0x1FE DUP5 DUP5 DUP5 PUSH1 0x1 PUSH3 0xDE JUMP JUMPDEST SWAP3 POP SWAP1 POP DUP2 DUP5 DIV DUP2 GT ISZERO PUSH3 0x218 JUMPI PUSH3 0x217 PUSH3 0xA2 JUMP JUMPDEST JUMPDEST DUP2 DUP2 MUL SWAP1 POP JUMPDEST SWAP4 SWAP3 POP POP POP JUMP JUMPDEST PUSH1 0x0 DUP2 SWAP1 POP SWAP2 SWAP1 POP JUMP JUMPDEST PUSH1 0x0 PUSH3 0x23C DUP3 PUSH3 0x225 JUMP JUMPDEST SWAP2 POP PUSH3 0x249 DUP4 PUSH3 0x225 JUMP JUMPDEST SWAP3 POP PUSH3 0x278 PUSH32 0xFFFFFFFFFFFFFFFFFFFFFFFFFFFFFFFFFFFFFFFFFFFFFFFFFFFFFFFFFFFFFFFF DUP5 DUP5 PUSH3 0x139 JUMP JUMPDEST SWAP1 POP SWAP3 SWAP2 POP POP JUMP JUMPDEST PUSH2 0x1636 DUP1 PUSH3 0x290 PUSH1 0x0 CODECOPY PUSH1 0x0 RETURN INVALID PUSH1 0x80 PUSH1 0x40 MSTORE PUSH1 0x4 CALLDATASIZE LT PUSH2 0x9C JUMPI PUSH1 0x0 CALLDATALOAD PUSH1 0xE0 SHR DUP1 PUSH4 0x8DA5CB5B GT PUSH2 0x64 JUMPI DUP1 PUSH4 0x8DA5CB5B EQ PUSH2 0x1A1 JUMPI DUP1 PUSH4 0xA38D7E5B EQ PUSH2 0x1CC JUMPI DUP1 PUSH4 0xB319C6B7 EQ PUSH2 0x1F5 JUMPI DUP1 PUSH4 0xE7EB1214 EQ PUSH2 0x220 JUMPI DUP1 PUSH4 0xF2FDE38B EQ PUSH2 0x249 JUMPI DUP1 PUSH4 0xF94F0593 EQ PUSH2 0x272 JUMPI PUSH2 0x9C JUMP JUMPDEST DUP1 PUSH4 0x2F4DB2F EQ PUSH2 0xA1 JUMPI DUP1 PUSH4 0x206C8DB4 EQ PUSH2 0xCC JUMPI DUP1 PUSH4 0x3ECE8F6F EQ PUSH2 0xF7 JUMPI DUP1 PUSH4 0x5E0B8654 EQ PUSH2 0x122 JUMPI DUP1 PUSH4 0x6DE2E36C EQ PUSH2 0x164 JUMPI JUMPDEST PUSH1 0x0 DUP1 REVERT JUMPDEST CALLVALUE DUP1 ISZERO PUSH2 0xAD JUMPI PUSH1 0x0 DUP1 REVERT JUMPDEST POP PUSH2 0xB6 PUSH2 0x28E JUMP JUMPDEST PUSH1 0x40 MLOAD PUSH2 0xC3 SWAP2 SWAP1 PUSH2 0xB5C JUMP JUMPDEST PUSH1 0x40 MLOAD DUP1 SWAP2 SUB SWAP1 RETURN JUMPDEST CALLVALUE DUP1 ISZERO PUSH2 0xD8 JUMPI PUSH1 0x0 DUP1 REVERT JUMPDEST POP PUSH2 0xE1 PUSH2 0x294 JUMP JUMPDEST PUSH1 0x40 MLOAD PUSH2 0xEE SWAP2 SWAP1 PUSH2 0xB92 JUMP JUMPDEST PUSH1 0x40 MLOAD DUP1 SWAP2 SUB SWAP1 RETURN JUMPDEST CALLVALUE DUP1 ISZERO PUSH2 0x103 JUMPI PUSH1 0x0 DUP1 REVERT JUMPDEST POP PUSH2 0x10C PUSH2 0x2A7 JUMP JUMPDEST PUSH1 0x40 MLOAD PUSH2 0x119 SWAP2 SWAP1 PUSH2 0xB5C JUMP JUMPDEST PUSH1 0x40 MLOAD DUP1 SWAP2 SUB SWAP1 RETURN JUMPDEST CALLVALUE DUP1 ISZERO PUSH2 0x12E JUMPI PUSH1 0x0 DUP1 REVERT JUMPDEST POP PUSH2 0x149 PUSH1 0x4 DUP1 CALLDATASIZE SUB DUP2 ADD SWAP1 PUSH2 0x144 SWAP2 SWAP1 PUSH2 0xBED JUMP JUMPDEST PUSH2 0x2AD JUMP JUMPDEST PUSH1 0x40 MLOAD PUSH2 0x15B SWAP7 SWAP6 SWAP5 SWAP4 SWAP3 SWAP2 SWAP1 PUSH2 0xCE6 JUMP JUMPDEST PUSH1 0x40 MLOAD DUP1 SWAP2 SUB SWAP1 RETURN JUMPDEST CALLVALUE DUP1 ISZERO PUSH2 0x170 JUMPI PUSH1 0x0 DUP1 REVERT JUMPDEST POP PUSH2 0x18B PUSH1 0x4 DUP1 CALLDATASIZE SUB DUP2 ADD SWAP1 PUSH2 0x186 SWAP2 SWAP1 PUSH2 0xBED JUMP JUMPDEST PUSH2 0x3CB JUMP JUMPDEST PUSH1 0x40 MLOAD PUSH2 0x198 SWAP2 SWAP1 PUSH2 0xD8F JUMP JUMPDEST PUSH1 0x40 MLOAD DUP1 SWAP2 SUB SWAP1 RETURN JUMPDEST CALLVALUE DUP1 ISZERO PUSH2 0x1AD JUMPI PUSH1 0x0 DUP1 REVERT JUMPDEST POP PUSH2 0x1B6 PUSH2 0x3FE JUMP JUMPDEST PUSH1 0x40 MLOAD PUSH2 0x1C3 SWAP2 SWAP1 PUSH2 0xD8F JUMP JUMPDEST PUSH1 0x40 MLOAD DUP1 SWAP2 SUB SWAP1 RETURN JUMPDEST CALLVALUE DUP1 ISZERO PUSH2 0x1D8 JUMPI PUSH1 0x0 DUP1 REVERT JUMPDEST POP PUSH2 0x1F3 PUSH1 0x4 DUP1 CALLDATASIZE SUB DUP2 ADD SWAP1 PUSH2 0x1EE SWAP2 SWAP1 PUSH2 0xEDF JUMP JUMPDEST PUSH2 0x422 JUMP JUMPDEST STOP JUMPDEST CALLVALUE DUP1 ISZERO PUSH2 0x201 JUMPI PUSH1 0x0 DUP1 REVERT JUMPDEST POP PUSH2 0x20A PUSH2 0x4D9 JUMP JUMPDEST PUSH1 0x40 MLOAD PUSH2 0x217 SWAP2 SWAP1 PUSH2 0xB5C JUMP JUMPDEST PUSH1 0x40 MLOAD DUP1 SWAP2 SUB SWAP1 RETURN JUMPDEST CALLVALUE DUP1 ISZERO PUSH2 0x22C JUMPI PUSH1 0x0 DUP1 REVERT JUMPDEST POP PUSH2 0x247 PUSH1 0x4 DUP1 CALLDATASIZE SUB DUP2 ADD SWAP1 PUSH2 0x242 SWAP2 SWAP1 PUSH2 0xBED JUMP JUMPDEST PUSH2 0x4DF JUMP JUMPDEST STOP JUMPDEST CALLVALUE DUP1 ISZERO PUSH2 0x255 JUMPI PUSH1 0x0 DUP1 REVERT JUMPDEST POP PUSH2 0x270 PUSH1 0x4 DUP1 CALLDATASIZE SUB DUP2 ADD SWAP1 PUSH2 0x26B SWAP2 SWAP1 PUSH2 0xF66 JUMP JUMPDEST PUSH2 0x577 JUMP JUMPDEST STOP JUMPDEST PUSH2 0x28C PUSH1 0x4 DUP1 CALLDATASIZE SUB DUP2 ADD SWAP1 PUSH2 0x287 SWAP2 SWAP1 PUSH2 0xEDF JUMP JUMPDEST PUSH2 0x731 JUMP JUMPDEST STOP JUMPDEST PUSH1 0x5 SLOAD DUP2 JUMP JUMPDEST PUSH1 0x0 PUSH1 0x14 SWAP1 SLOAD SWAP1 PUSH2 0x100 EXP SWAP1 DIV PUSH1 0xFF AND DUP2 JUMP JUMPDEST PUSH1 0x4 SLOAD DUP2 JUMP JUMPDEST PUSH1 0x6 DUP2 DUP2 SLOAD DUP2 LT PUSH2 0x2BD JUMPI PUSH1 0x0 DUP1 REVERT JUMPDEST SWAP1 PUSH1 0x0 MSTORE PUSH1 0x20 PUSH1 0x0 KECCAK256 SWAP1 PUSH1 0x2 MUL ADD PUSH1 0x0 SWAP2 POP SWAP1 POP DUP1 PUSH1 0x0 ADD DUP1 SLOAD PUSH2 0x2E0 SWAP1 PUSH2 0xFC2 JUMP JUMPDEST DUP1 PUSH1 0x1F ADD PUSH1 0x20 DUP1 SWAP2 DIV MUL PUSH1 0x20 ADD PUSH1 0x40 MLOAD SWAP1 DUP2 ADD PUSH1 0x40 MSTORE DUP1 SWAP3 SWAP2 SWAP1 DUP2 DUP2 MSTORE PUSH1 0x20 ADD DUP3 DUP1 SLOAD PUSH2 0x30C SWAP1 PUSH2 0xFC2 JUMP JUMPDEST DUP1 ISZERO PUSH2 0x359 JUMPI DUP1 PUSH1 0x1F LT PUSH2 0x32E JUMPI PUSH2 0x100 DUP1 DUP4 SLOAD DIV MUL DUP4 MSTORE SWAP2 PUSH1 0x20 ADD SWAP2 PUSH2 0x359 JUMP JUMPDEST DUP3 ADD SWAP2 SWAP1 PUSH1 0x0 MSTORE PUSH1 0x20 PUSH1 0x0 KECCAK256 SWAP1 JUMPDEST DUP2 SLOAD DUP2 MSTORE SWAP1 PUSH1 0x1 ADD SWAP1 PUSH1 0x20 ADD DUP1 DUP4 GT PUSH2 0x33C JUMPI DUP3 SWAP1 SUB PUSH1 0x1F AND DUP3 ADD SWAP2 JUMPDEST POP POP POP POP POP SWAP1 DUP1 PUSH1 0x1 ADD PUSH1 0x0 SWAP1 SLOAD SWAP1 PUSH2 0x100 EXP SWAP1 DIV PUSH2 0xFFFF AND SWAP1 DUP1 PUSH1 0x1 ADD PUSH1 0x2 SWAP1 SLOAD SWAP1 PUSH2 0x100 EXP SWAP1 DIV PUSH2 0xFFFF AND SWAP1 DUP1 PUSH1 0x1 ADD PUSH1 0x4 SWAP1 SLOAD SWAP1 PUSH2 0x100 EXP SWAP1 DIV PUSH2 0xFFFF AND SWAP1 DUP1 PUSH1 0x1 ADD PUSH1 0x6 SWAP1 SLOAD SWAP1 PUSH2 0x100 EXP SWAP1 DIV PUSH4 0xFFFFFFFF AND SWAP1 DUP1 PUSH1 0x1 ADD PUSH1 0xA SWAP1 SLOAD SWAP1 PUSH2 0x100 EXP SWAP1 DIV PUSH4 0xFFFFFFFF AND SWAP1 POP DUP7 JUMP JUMPDEST PUSH1 0x7 PUSH1 0x20 MSTORE DUP1 PUSH1 0x0 MSTORE PUSH1 0x40 PUSH1 0x0 KECCAK256 PUSH1 0x0 SWAP2 POP SLOAD SWAP1 PUSH2 0x100 EXP SWAP1 DIV PUSH20 0xFFFFFFFFFFFFFFFFFFFFFFFFFFFFFFFFFFFFFFFF AND DUP2 JUMP JUMPDEST PUSH1 0x0 DUP1 SLOAD SWAP1 PUSH2 0x100 EXP SWAP1 DIV PUSH20 0xFFFFFFFFFFFFFFFFFFFFFFFFFFFFFFFFFFFFFFFF AND DUP2 JUMP JUMPDEST PUSH1 0x0 PUSH1 0x8 PUSH1 0x0 CALLER PUSH20 0xFFFFFFFFFFFFFFFFFFFFFFFFFFFFFFFFFFFFFFFF AND PUSH20 0xFFFFFFFFFFFFFFFFFFFFFFFFFFFFFFFFFFFFFFFF AND DUP2 MSTORE PUSH1 0x20 ADD SWAP1 DUP2 MSTORE PUSH1 0x20 ADD PUSH1 0x0 KECCAK256 SLOAD EQ PUSH2 0x4A4 JUMPI PUSH1 0x40 MLOAD PUSH32 0x8C379A000000000000000000000000000000000000000000000000000000000 DUP2 MSTORE PUSH1 0x4 ADD PUSH2 0x49B SWAP1 PUSH2 0x103F JUMP JUMPDEST PUSH1 0x40 MLOAD DUP1 SWAP2 SUB SWAP1 REVERT JUMPDEST PUSH1 0x0 PUSH2 0x4AF DUP3 PUSH2 0x838 JUMP JUMPDEST SWAP1 POP PUSH1 0xA DUP2 PUSH2 0x4BE SWAP2 SWAP1 PUSH2 0x108E JUMP JUMPDEST DUP2 PUSH2 0x4C9 SWAP2 SWAP1 PUSH2 0x10EE JUMP JUMPDEST SWAP1 POP PUSH2 0x4D5 DUP3 DUP3 PUSH2 0x87A JUMP JUMPDEST POP POP JUMP JUMPDEST PUSH1 0x3 SLOAD DUP2 JUMP JUMPDEST PUSH1 0x0 DUP1 SLOAD SWAP1 PUSH2 0x100 EXP SWAP1 DIV PUSH20 0xFFFFFFFFFFFFFFFFFFFFFFFFFFFFFFFFFFFFFFFF AND PUSH20 0xFFFFFFFFFFFFFFFFFFFFFFFFFFFFFFFFFFFFFFFF AND CALLER PUSH20 0xFFFFFFFFFFFFFFFFFFFFFFFFFFFFFFFFFFFFFFFF AND EQ PUSH2 0x56D JUMPI PUSH1 0x40 MLOAD PUSH32 0x8C379A000000000000000000000000000000000000000000000000000000000 DUP2 MSTORE PUSH1 0x4 ADD PUSH2 0x564 SWAP1 PUSH2 0x1170 JUMP JUMPDEST PUSH1 0x40 MLOAD DUP1 SWAP2 SUB SWAP1 REVERT JUMPDEST DUP1 PUSH1 0x4 DUP2 SWAP1 SSTORE POP POP JUMP JUMPDEST PUSH1 0x0 DUP1 SLOAD SWAP1 PUSH2 0x100 EXP SWAP1 DIV PUSH20 0xFFFFFFFFFFFFFFFFFFFFFFFFFFFFFFFFFFFFFFFF AND PUSH20 0xFFFFFFFFFFFFFFFFFFFFFFFFFFFFFFFFFFFFFFFF AND CALLER PUSH20 0xFFFFFFFFFFFFFFFFFFFFFFFFFFFFFFFFFFFFFFFF AND EQ PUSH2 0x605 JUMPI PUSH1 0x40 MLOAD PUSH32 0x8C379A000000000000000000000000000000000000000000000000000000000 DUP2 MSTORE PUSH1 0x4 ADD PUSH2 0x5FC SWAP1 PUSH2 0x1170 JUMP JUMPDEST PUSH1 0x40 MLOAD DUP1 SWAP2 SUB SWAP1 REVERT JUMPDEST PUSH1 0x0 PUSH20 0xFFFFFFFFFFFFFFFFFFFFFFFFFFFFFFFFFFFFFFFF AND DUP2 PUSH20 0xFFFFFFFFFFFFFFFFFFFFFFFFFFFFFFFFFFFFFFFF AND SUB PUSH2 0x674 JUMPI PUSH1 0x40 MLOAD PUSH32 0x8C379A000000000000000000000000000000000000000000000000000000000 DUP2 MSTORE PUSH1 0x4 ADD PUSH2 0x66B SWAP1 PUSH2 0x1170 JUMP JUMPDEST PUSH1 0x40 MLOAD DUP1 SWAP2 SUB SWAP1 REVERT JUMPDEST DUP1 PUSH20 0xFFFFFFFFFFFFFFFFFFFFFFFFFFFFFFFFFFFFFFFF AND PUSH1 0x0 DUP1 SLOAD SWAP1 PUSH2 0x100 EXP SWAP1 DIV PUSH20 0xFFFFFFFFFFFFFFFFFFFFFFFFFFFFFFFFFFFFFFFF AND PUSH20 0xFFFFFFFFFFFFFFFFFFFFFFFFFFFFFFFFFFFFFFFF AND PUSH32 0x8BE0079C531659141344CD1FD0A4F28419497F9722A3DAAFE3B4186F6B6457E0 PUSH1 0x40 MLOAD PUSH1 0x40 MLOAD DUP1 SWAP2 SUB SWAP1 LOG3 DUP1 PUSH1 0x0 DUP1 PUSH2 0x100 EXP DUP2 SLOAD DUP2 PUSH20 0xFFFFFFFFFFFFFFFFFFFFFFFFFFFFFFFFFFFFFFFF MUL NOT AND SWAP1 DUP4 PUSH20 0xFFFFFFFFFFFFFFFFFFFFFFFFFFFFFFFFFFFFFFFF AND MUL OR SWAP1 SSTORE POP POP JUMP JUMPDEST PUSH1 0x0 PUSH1 0x8 PUSH1 0x0 CALLER PUSH20 0xFFFFFFFFFFFFFFFFFFFFFFFFFFFFFFFFFFFFFFFF AND PUSH20 0xFFFFFFFFFFFFFFFFFFFFFFFFFFFFFFFFFFFFFFFF AND DUP2 MSTORE PUSH1 0x20 ADD SWAP1 DUP2 MSTORE PUSH1 0x20 ADD PUSH1 0x0 KECCAK256 SLOAD GT PUSH2 0x7B3 JUMPI PUSH1 0x40 MLOAD PUSH32 0x8C379A000000000000000000000000000000000000000000000000000000000 DUP2 MSTORE PUSH1 0x4 ADD PUSH2 0x7AA SWAP1 PUSH2 0x103F JUMP JUMPDEST PUSH1 0x40 MLOAD DUP1 SWAP2 SUB SWAP1 REVERT JUMPDEST PUSH1 0x4 SLOAD CALLVALUE GT PUSH2 0x7F7 JUMPI PUSH1 0x40 MLOAD PUSH32 0x8C379A000000000000000000000000000000000000000000000000000000000 DUP2 MSTORE PUSH1 0x4 ADD PUSH2 0x7EE SWAP1 PUSH2 0x103F JUMP JUMPDEST PUSH1 0x40 MLOAD DUP1 SWAP2 SUB SWAP1 REVERT JUMPDEST PUSH1 0x0 PUSH2 0x802 DUP3 PUSH2 0x838 JUMP JUMPDEST SWAP1 POP PUSH1 0x1 PUSH1 0xA DUP3 PUSH2 0x813 SWAP2 SWAP1 PUSH2 0x108E JUMP JUMPDEST DUP3 PUSH2 0x81E SWAP2 SWAP1 PUSH2 0x10EE JUMP JUMPDEST PUSH2 0x828 SWAP2 SWAP1 PUSH2 0x1190 JUMP JUMPDEST SWAP1 POP PUSH2 0x834 DUP3 DUP3 PUSH2 0x87A JUMP JUMPDEST POP POP JUMP JUMPDEST PUSH1 0x0 PUSH1 0x2 SLOAD DUP3 TIMESTAMP PUSH1 0x40 MLOAD PUSH1 0x20 ADD PUSH2 0x850 SWAP3 SWAP2 SWAP1 PUSH2 0x1223 JUMP JUMPDEST PUSH1 0x40 MLOAD PUSH1 0x20 DUP2 DUP4 SUB SUB DUP2 MSTORE SWAP1 PUSH1 0x40 MSTORE DUP1 MLOAD SWAP1 PUSH1 0x20 ADD KECCAK256 PUSH1 0x0 SHR PUSH2 0x873 SWAP2 SWAP1 PUSH2 0x124B JUMP JUMPDEST SWAP1 POP SWAP2 SWAP1 POP JUMP JUMPDEST PUSH1 0x6 PUSH1 0x40 MLOAD DUP1 PUSH1 0xC0 ADD PUSH1 0x40 MSTORE DUP1 DUP5 DUP2 MSTORE PUSH1 0x20 ADD DUP4 PUSH2 0xFFFF AND DUP2 MSTORE PUSH1 0x20 ADD PUSH1 0x0 PUSH2 0xFFFF AND DUP2 MSTORE PUSH1 0x20 ADD PUSH1 0x0 PUSH2 0xFFFF AND DUP2 MSTORE PUSH1 0x20 ADD PUSH1 0x1 PUSH4 0xFFFFFFFF AND DUP2 MSTORE PUSH1 0x20 ADD PUSH1 0x0 PUSH4 0xFFFFFFFF AND DUP2 MSTORE POP SWAP1 DUP1 PUSH1 0x1 DUP2 SLOAD ADD DUP1 DUP3 SSTORE DUP1 SWAP2 POP POP PUSH1 0x1 SWAP1 SUB SWAP1 PUSH1 0x0 MSTORE PUSH1 0x20 PUSH1 0x0 KECCAK256 SWAP1 PUSH1 0x2 MUL ADD PUSH1 0x0 SWAP1 SWAP2 SWAP1 SWAP2 SWAP1 SWAP2 POP PUSH1 0x0 DUP3 ADD MLOAD DUP2 PUSH1 0x0 ADD SWAP1 DUP2 PUSH2 0x903 SWAP2 SWAP1 PUSH2 0x1428 JUMP JUMPDEST POP PUSH1 0x20 DUP3 ADD MLOAD DUP2 PUSH1 0x1 ADD PUSH1 0x0 PUSH2 0x100 EXP DUP2 SLOAD DUP2 PUSH2 0xFFFF MUL NOT AND SWAP1 DUP4 PUSH2 0xFFFF AND MUL OR SWAP1 SSTORE POP PUSH1 0x40 DUP3 ADD MLOAD DUP2 PUSH1 0x1 ADD PUSH1 0x2 PUSH2 0x100 EXP DUP2 SLOAD DUP2 PUSH2 0xFFFF MUL NOT AND SWAP1 DUP4 PUSH2 0xFFFF AND MUL OR SWAP1 SSTORE POP PUSH1 0x60 DUP3 ADD MLOAD DUP2 PUSH1 0x1 ADD PUSH1 0x4 PUSH2 0x100 EXP DUP2 SLOAD DUP2 PUSH2 0xFFFF MUL NOT AND SWAP1 DUP4 PUSH2 0xFFFF AND MUL OR SWAP1 SSTORE POP PUSH1 0x80 DUP3 ADD MLOAD DUP2 PUSH1 0x1 ADD PUSH1 0x6 PUSH2 0x100 EXP DUP2 SLOAD DUP2 PUSH4 0xFFFFFFFF MUL NOT AND SWAP1 DUP4 PUSH4 0xFFFFFFFF AND MUL OR SWAP1 SSTORE POP PUSH1 0xA0 DUP3 ADD MLOAD DUP2 PUSH1 0x1 ADD PUSH1 0xA PUSH2 0x100 EXP DUP2 SLOAD DUP2 PUSH4 0xFFFFFFFF MUL NOT AND SWAP1 DUP4 PUSH4 0xFFFFFFFF AND MUL OR SWAP1 SSTORE POP POP POP PUSH1 0x0 PUSH1 0x1 PUSH1 0x6 DUP1 SLOAD SWAP1 POP PUSH2 0x9D1 SWAP2 SWAP1 PUSH2 0x14FA JUMP JUMPDEST SWAP1 POP CALLER PUSH1 0x7 PUSH1 0x0 DUP4 DUP2 MSTORE PUSH1 0x20 ADD SWAP1 DUP2 MSTORE PUSH1 0x20 ADD PUSH1 0x0 KECCAK256 PUSH1 0x0 PUSH2 0x100 EXP DUP2 SLOAD DUP2 PUSH20 0xFFFFFFFFFFFFFFFFFFFFFFFFFFFFFFFFFFFFFFFF MUL NOT AND SWAP1 DUP4 PUSH20 0xFFFFFFFFFFFFFFFFFFFFFFFFFFFFFFFFFFFFFFFF AND MUL OR SWAP1 SSTORE POP PUSH2 0xA78 PUSH1 0x1 PUSH1 0x8 PUSH1 0x0 CALLER PUSH20 0xFFFFFFFFFFFFFFFFFFFFFFFFFFFFFFFFFFFFFFFF AND PUSH20 0xFFFFFFFFFFFFFFFFFFFFFFFFFFFFFFFFFFFFFFFF AND DUP2 MSTORE PUSH1 0x20 ADD SWAP1 DUP2 MSTORE PUSH1 0x20 ADD PUSH1 0x0 KECCAK256 SLOAD PUSH2 0xB17 SWAP1 SWAP2 SWAP1 PUSH4 0xFFFFFFFF AND JUMP JUMPDEST PUSH1 0x8 PUSH1 0x0 CALLER PUSH20 0xFFFFFFFFFFFFFFFFFFFFFFFFFFFFFFFFFFFFFFFF AND PUSH20 0xFFFFFFFFFFFFFFFFFFFFFFFFFFFFFFFFFFFFFFFF AND DUP2 MSTORE PUSH1 0x20 ADD SWAP1 DUP2 MSTORE PUSH1 0x20 ADD PUSH1 0x0 KECCAK256 DUP2 SWAP1 SSTORE POP PUSH2 0xAD1 PUSH1 0x1 PUSH1 0x5 SLOAD PUSH2 0xB17 SWAP1 SWAP2 SWAP1 PUSH4 0xFFFFFFFF AND JUMP JUMPDEST PUSH1 0x5 DUP2 SWAP1 SSTORE POP PUSH32 0xFFB2FB18E6D3EC7EF368D2F329EF22F9431AAEBE0FCBC9282D7770949AC8CD31 DUP2 DUP5 DUP5 PUSH1 0x40 MLOAD PUSH2 0xB0A SWAP4 SWAP3 SWAP2 SWAP1 PUSH2 0x155F JUMP JUMPDEST PUSH1 0x40 MLOAD DUP1 SWAP2 SUB SWAP1 LOG1 POP POP POP JUMP JUMPDEST PUSH1 0x0 DUP1 DUP3 DUP5 PUSH2 0xB26 SWAP2 SWAP1 PUSH2 0x159D JUMP JUMPDEST SWAP1 POP DUP4 DUP2 LT ISZERO PUSH2 0xB39 JUMPI PUSH2 0xB38 PUSH2 0x15D1 JUMP JUMPDEST JUMPDEST DUP1 SWAP2 POP POP SWAP3 SWAP2 POP POP JUMP JUMPDEST PUSH1 0x0 DUP2 SWAP1 POP SWAP2 SWAP1 POP JUMP JUMPDEST PUSH2 0xB56 DUP2 PUSH2 0xB43 JUMP JUMPDEST DUP3 MSTORE POP POP JUMP JUMPDEST PUSH1 0x0 PUSH1 0x20 DUP3 ADD SWAP1 POP PUSH2 0xB71 PUSH1 0x0 DUP4 ADD DUP5 PUSH2 0xB4D JUMP JUMPDEST SWAP3 SWAP2 POP POP JUMP JUMPDEST PUSH1 0x0 DUP2 ISZERO ISZERO SWAP1 POP SWAP2 SWAP1 POP JUMP JUMPDEST PUSH2 0xB8C DUP2 PUSH2 0xB77 JUMP JUMPDEST DUP3 MSTORE POP POP JUMP JUMPDEST PUSH1 0x0 PUSH1 0x20 DUP3 ADD SWAP1 POP PUSH2 0xBA7 PUSH1 0x0 DUP4 ADD DUP5 PUSH2 0xB83 JUMP JUMPDEST SWAP3 SWAP2 POP POP JUMP JUMPDEST PUSH1 0x0 PUSH1 0x40 MLOAD SWAP1 POP SWAP1 JUMP JUMPDEST PUSH1 0x0 DUP1 REVERT JUMPDEST PUSH1 0x0 DUP1 REVERT JUMPDEST PUSH2 0xBCA DUP2 PUSH2 0xB43 JUMP JUMPDEST DUP2 EQ PUSH2 0xBD5 JUMPI PUSH1 0x0 DUP1 REVERT JUMPDEST POP JUMP JUMPDEST PUSH1 0x0 DUP2 CALLDATALOAD SWAP1 POP PUSH2 0xBE7 DUP2 PUSH2 0xBC1 JUMP JUMPDEST SWAP3 SWAP2 POP POP JUMP JUMPDEST PUSH1 0x0 PUSH1 0x20 DUP3 DUP5 SUB SLT ISZERO PUSH2 0xC03 JUMPI PUSH2 0xC02 PUSH2 0xBB7 JUMP JUMPDEST JUMPDEST PUSH1 0x0 PUSH2 0xC11 DUP5 DUP3 DUP6 ADD PUSH2 0xBD8 JUMP JUMPDEST SWAP2 POP POP SWAP3 SWAP2 POP POP JUMP JUMPDEST PUSH1 0x0 DUP2 MLOAD SWAP1 POP SWAP2 SWAP1 POP JUMP JUMPDEST PUSH1 0x0 DUP3 DUP3 MSTORE PUSH1 0x20 DUP3 ADD SWAP1 POP SWAP3 SWAP2 POP POP JUMP JUMPDEST PUSH1 0x0 JUMPDEST DUP4 DUP2 LT ISZERO PUSH2 0xC54 JUMPI DUP1 DUP3 ADD MLOAD DUP2 DUP5 ADD MSTORE PUSH1 0x20 DUP2 ADD SWAP1 POP PUSH2 0xC39 JUMP JUMPDEST PUSH1 0x0 DUP5 DUP5 ADD MSTORE POP POP POP POP JUMP JUMPDEST PUSH1 0x0 PUSH1 0x1F NOT PUSH1 0x1F DUP4 ADD AND SWAP1 POP SWAP2 SWAP1 POP JUMP JUMPDEST PUSH1 0x0 PUSH2 0xC7C DUP3 PUSH2 0xC1A JUMP JUMPDEST PUSH2 0xC86 DUP2 DUP6 PUSH2 0xC25 JUMP JUMPDEST SWAP4 POP PUSH2 0xC96 DUP2 DUP6 PUSH1 0x20 DUP7 ADD PUSH2 0xC36 JUMP JUMPDEST PUSH2 0xC9F DUP2 PUSH2 0xC60 JUMP JUMPDEST DUP5 ADD SWAP2 POP POP SWAP3 SWAP2 POP POP JUMP JUMPDEST PUSH1 0x0 PUSH2 0xFFFF DUP3 AND SWAP1 POP SWAP2 SWAP1 POP JUMP JUMPDEST PUSH2 0xCC1 DUP2 PUSH2 0xCAA JUMP JUMPDEST DUP3 MSTORE POP POP JUMP JUMPDEST PUSH1 0x0 PUSH4 0xFFFFFFFF DUP3 AND SWAP1 POP SWAP2 SWAP1 POP JUMP JUMPDEST PUSH2 0xCE0 DUP2 PUSH2 0xCC7 JUMP JUMPDEST DUP3 MSTORE POP POP JUMP JUMPDEST PUSH1 0x0 PUSH1 0xC0 DUP3 ADD SWAP1 POP DUP2 DUP2 SUB PUSH1 0x0 DUP4 ADD MSTORE PUSH2 0xD00 DUP2 DUP10 PUSH2 0xC71 JUMP JUMPDEST SWAP1 POP PUSH2 0xD0F PUSH1 0x20 DUP4 ADD DUP9 PUSH2 0xCB8 JUMP JUMPDEST PUSH2 0xD1C PUSH1 0x40 DUP4 ADD DUP8 PUSH2 0xCB8 JUMP JUMPDEST PUSH2 0xD29 PUSH1 0x60 DUP4 ADD DUP7 PUSH2 0xCB8 JUMP JUMPDEST PUSH2 0xD36 PUSH1 0x80 DUP4 ADD DUP6 PUSH2 0xCD7 JUMP JUMPDEST PUSH2 0xD43 PUSH1 0xA0 DUP4 ADD DUP5 PUSH2 0xCD7 JUMP JUMPDEST SWAP8 SWAP7 POP POP POP POP POP POP POP JUMP JUMPDEST PUSH1 0x0 PUSH20 0xFFFFFFFFFFFFFFFFFFFFFFFFFFFFFFFFFFFFFFFF DUP3 AND SWAP1 POP SWAP2 SWAP1 POP JUMP JUMPDEST PUSH1 0x0 PUSH2 0xD79 DUP3 PUSH2 0xD4E JUMP JUMPDEST SWAP1 POP SWAP2 SWAP1 POP JUMP JUMPDEST PUSH2 0xD89 DUP2 PUSH2 0xD6E JUMP JUMPDEST DUP3 MSTORE POP POP JUMP JUMPDEST PUSH1 0x0 PUSH1 0x20 DUP3 ADD SWAP1 POP PUSH2 0xDA4 PUSH1 0x0 DUP4 ADD DUP5 PUSH2 0xD80 JUMP JUMPDEST SWAP3 SWAP2 POP POP JUMP JUMPDEST PUSH1 0x0 DUP1 REVERT JUMPDEST PUSH1 0x0 DUP1 REVERT JUMPDEST PUSH32 0x4E487B7100000000000000000000000000000000000000000000000000000000 PUSH1 0x0 MSTORE PUSH1 0x41 PUSH1 0x4 MSTORE PUSH1 0x24 PUSH1 0x0 REVERT JUMPDEST PUSH2 0xDEC DUP3 PUSH2 0xC60 JUMP JUMPDEST DUP2 ADD DUP2 DUP2 LT PUSH8 0xFFFFFFFFFFFFFFFF DUP3 GT OR ISZERO PUSH2 0xE0B JUMPI PUSH2 0xE0A PUSH2 0xDB4 JUMP JUMPDEST JUMPDEST DUP1 PUSH1 0x40 MSTORE POP POP POP JUMP JUMPDEST PUSH1 0x0 PUSH2 0xE1E PUSH2 0xBAD JUMP JUMPDEST SWAP1 POP PUSH2 0xE2A DUP3 DUP3 PUSH2 0xDE3 JUMP JUMPDEST SWAP2 SWAP1 POP JUMP JUMPDEST PUSH1 0x0 PUSH8 0xFFFFFFFFFFFFFFFF DUP3 GT ISZERO PUSH2 0xE4A JUMPI PUSH2 0xE49 PUSH2 0xDB4 JUMP JUMPDEST JUMPDEST PUSH2 0xE53 DUP3 PUSH2 0xC60 JUMP JUMPDEST SWAP1 POP PUSH1 0x20 DUP2 ADD SWAP1 POP SWAP2 SWAP1 POP JUMP JUMPDEST DUP3 DUP2 DUP4 CALLDATACOPY PUSH1 0x0 DUP4 DUP4 ADD MSTORE POP POP POP JUMP JUMPDEST PUSH1 0x0 PUSH2 0xE82 PUSH2 0xE7D DUP5 PUSH2 0xE2F JUMP JUMPDEST PUSH2 0xE14 JUMP JUMPDEST SWAP1 POP DUP3 DUP2 MSTORE PUSH1 0x20 DUP2 ADD DUP5 DUP5 DUP5 ADD GT ISZERO PUSH2 0xE9E JUMPI PUSH2 0xE9D PUSH2 0xDAF JUMP JUMPDEST JUMPDEST PUSH2 0xEA9 DUP5 DUP3 DUP6 PUSH2 0xE60 JUMP JUMPDEST POP SWAP4 SWAP3 POP POP POP JUMP JUMPDEST PUSH1 0x0 DUP3 PUSH1 0x1F DUP4 ADD SLT PUSH2 0xEC6 JUMPI PUSH2 0xEC5 PUSH2 0xDAA JUMP JUMPDEST JUMPDEST DUP2 CALLDATALOAD PUSH2 0xED6 DUP5 DUP3 PUSH1 0x20 DUP7 ADD PUSH2 0xE6F JUMP JUMPDEST SWAP2 POP POP SWAP3 SWAP2 POP POP JUMP JUMPDEST PUSH1 0x0 PUSH1 0x20 DUP3 DUP5 SUB SLT ISZERO PUSH2 0xEF5 JUMPI PUSH2 0xEF4 PUSH2 0xBB7 JUMP JUMPDEST JUMPDEST PUSH1 0x0 DUP3 ADD CALLDATALOAD PUSH8 0xFFFFFFFFFFFFFFFF DUP2 GT ISZERO PUSH2 0xF13 JUMPI PUSH2 0xF12 PUSH2 0xBBC JUMP JUMPDEST JUMPDEST PUSH2 0xF1F DUP5 DUP3 DUP6 ADD PUSH2 0xEB1 JUMP JUMPDEST SWAP2 POP POP SWAP3 SWAP2 POP POP JUMP JUMPDEST PUSH1 0x0 PUSH2 0xF33 DUP3 PUSH2 0xD4E JUMP JUMPDEST SWAP1 POP SWAP2 SWAP1 POP JUMP JUMPDEST PUSH2 0xF43 DUP2 PUSH2 0xF28 JUMP JUMPDEST DUP2 EQ PUSH2 0xF4E JUMPI PUSH1 0x0 DUP1 REVERT JUMPDEST POP JUMP JUMPDEST PUSH1 0x0 DUP2 CALLDATALOAD SWAP1 POP PUSH2 0xF60 DUP2 PUSH2 0xF3A JUMP JUMPDEST SWAP3 SWAP2 POP POP JUMP JUMPDEST PUSH1 0x0 PUSH1 0x20 DUP3 DUP5 SUB SLT ISZERO PUSH2 0xF7C JUMPI PUSH2 0xF7B PUSH2 0xBB7 JUMP JUMPDEST JUMPDEST PUSH1 0x0 PUSH2 0xF8A DUP5 DUP3 DUP6 ADD PUSH2 0xF51 JUMP JUMPDEST SWAP2 POP POP SWAP3 SWAP2 POP POP JUMP JUMPDEST PUSH32 0x4E487B7100000000000000000000000000000000000000000000000000000000 PUSH1 0x0 MSTORE PUSH1 0x22 PUSH1 0x4 MSTORE PUSH1 0x24 PUSH1 0x0 REVERT JUMPDEST PUSH1 0x0 PUSH1 0x2 DUP3 DIV SWAP1 POP PUSH1 0x1 DUP3 AND DUP1 PUSH2 0xFDA JUMPI PUSH1 0x7F DUP3 AND SWAP2 POP JUMPDEST PUSH1 0x20 DUP3 LT DUP2 SUB PUSH2 0xFED JUMPI PUSH2 0xFEC PUSH2 0xF93 JUMP JUMPDEST JUMPDEST POP SWAP2 SWAP1 POP JUMP JUMPDEST PUSH32 0x6572726F72000000000000000000000000000000000000000000000000000000 PUSH1 0x0 DUP3 ADD MSTORE POP JUMP JUMPDEST PUSH1 0x0 PUSH2 0x1029 PUSH1 0x5 DUP4 PUSH2 0xC25 JUMP JUMPDEST SWAP2 POP PUSH2 0x1034 DUP3 PUSH2 0xFF3 JUMP JUMPDEST PUSH1 0x20 DUP3 ADD SWAP1 POP SWAP2 SWAP1 POP JUMP JUMPDEST PUSH1 0x0 PUSH1 0x20 DUP3 ADD SWAP1 POP DUP2 DUP2 SUB PUSH1 0x0 DUP4 ADD MSTORE PUSH2 0x1058 DUP2 PUSH2 0x101C JUMP JUMPDEST SWAP1 POP SWAP2 SWAP1 POP JUMP JUMPDEST PUSH32 0x4E487B7100000000000000000000000000000000000000000000000000000000 PUSH1 0x0 MSTORE PUSH1 0x12 PUSH1 0x4 MSTORE PUSH1 0x24 PUSH1 0x0 REVERT JUMPDEST PUSH1 0x0 PUSH2 0x1099 DUP3 PUSH2 0xCAA JUMP JUMPDEST SWAP2 POP PUSH2 0x10A4 DUP4 PUSH2 0xCAA JUMP JUMPDEST SWAP3 POP DUP3 PUSH2 0x10B4 JUMPI PUSH2 0x10B3 PUSH2 0x105F JUMP JUMPDEST JUMPDEST DUP3 DUP3 MOD SWAP1 POP SWAP3 SWAP2 POP POP JUMP JUMPDEST PUSH32 0x4E487B7100000000000000000000000000000000000000000000000000000000 PUSH1 0x0 MSTORE PUSH1 0x11 PUSH1 0x4 MSTORE PUSH1 0x24 PUSH1 0x0 REVERT JUMPDEST PUSH1 0x0 PUSH2 0x10F9 DUP3 PUSH2 0xCAA JUMP JUMPDEST SWAP2 POP PUSH2 0x1104 DUP4 PUSH2 0xCAA JUMP JUMPDEST SWAP3 POP DUP3 DUP3 SUB SWAP1 POP PUSH2 0xFFFF DUP2 GT ISZERO PUSH2 0x111E JUMPI PUSH2 0x111D PUSH2 0x10BF JUMP JUMPDEST JUMPDEST SWAP3 SWAP2 POP POP JUMP JUMPDEST PUSH32 0x4D75737420636F6E7472616374206F776E657200000000000000000000000000 PUSH1 0x0 DUP3 ADD MSTORE POP JUMP JUMPDEST PUSH1 0x0 PUSH2 0x115A PUSH1 0x13 DUP4 PUSH2 0xC25 JUMP JUMPDEST SWAP2 POP PUSH2 0x1165 DUP3 PUSH2 0x1124 JUMP JUMPDEST PUSH1 0x20 DUP3 ADD SWAP1 POP SWAP2 SWAP1 POP JUMP JUMPDEST PUSH1 0x0 PUSH1 0x20 DUP3 ADD SWAP1 POP DUP2 DUP2 SUB PUSH1 0x0 DUP4 ADD MSTORE PUSH2 0x1189 DUP2 PUSH2 0x114D JUMP JUMPDEST SWAP1 POP SWAP2 SWAP1 POP JUMP JUMPDEST PUSH1 0x0 PUSH2 0x119B DUP3 PUSH2 0xCAA JUMP JUMPDEST SWAP2 POP PUSH2 0x11A6 DUP4 PUSH2 0xCAA JUMP JUMPDEST SWAP3 POP DUP3 DUP3 ADD SWAP1 POP PUSH2 0xFFFF DUP2 GT ISZERO PUSH2 0x11C0 JUMPI PUSH2 0x11BF PUSH2 0x10BF JUMP JUMPDEST JUMPDEST SWAP3 SWAP2 POP POP JUMP JUMPDEST PUSH1 0x0 DUP2 SWAP1 POP SWAP3 SWAP2 POP POP JUMP JUMPDEST PUSH1 0x0 PUSH2 0x11DC DUP3 PUSH2 0xC1A JUMP JUMPDEST PUSH2 0x11E6 DUP2 DUP6 PUSH2 0x11C6 JUMP JUMPDEST SWAP4 POP PUSH2 0x11F6 DUP2 DUP6 PUSH1 0x20 DUP7 ADD PUSH2 0xC36 JUMP JUMPDEST DUP1 DUP5 ADD SWAP2 POP POP SWAP3 SWAP2 POP POP JUMP JUMPDEST PUSH1 0x0 DUP2 SWAP1 POP SWAP2 SWAP1 POP JUMP JUMPDEST PUSH2 0x121D PUSH2 0x1218 DUP3 PUSH2 0xB43 JUMP JUMPDEST PUSH2 0x1202 JUMP JUMPDEST DUP3 MSTORE POP POP JUMP JUMPDEST PUSH1 0x0 PUSH2 0x122F DUP3 DUP6 PUSH2 0x11D1 JUMP JUMPDEST SWAP2 POP PUSH2 0x123B DUP3 DUP5 PUSH2 0x120C JUMP JUMPDEST PUSH1 0x20 DUP3 ADD SWAP2 POP DUP2 SWAP1 POP SWAP4 SWAP3 POP POP POP JUMP JUMPDEST PUSH1 0x0 PUSH2 0x1256 DUP3 PUSH2 0xB43 JUMP JUMPDEST SWAP2 POP PUSH2 0x1261 DUP4 PUSH2 0xB43 JUMP JUMPDEST SWAP3 POP DUP3 PUSH2 0x1271 JUMPI PUSH2 0x1270 PUSH2 0x105F JUMP JUMPDEST JUMPDEST DUP3 DUP3 MOD SWAP1 POP SWAP3 SWAP2 POP POP JUMP JUMPDEST PUSH1 0x0 DUP2 SWAP1 POP DUP2 PUSH1 0x0 MSTORE PUSH1 0x20 PUSH1 0x0 KECCAK256 SWAP1 POP SWAP2 SWAP1 POP JUMP JUMPDEST PUSH1 0x0 PUSH1 0x20 PUSH1 0x1F DUP4 ADD DIV SWAP1 POP SWAP2 SWAP1 POP JUMP JUMPDEST PUSH1 0x0 DUP3 DUP3 SHL SWAP1 POP SWAP3 SWAP2 POP POP JUMP JUMPDEST PUSH1 0x0 PUSH1 0x8 DUP4 MUL PUSH2 0x12DE PUSH32 0xFFFFFFFFFFFFFFFFFFFFFFFFFFFFFFFFFFFFFFFFFFFFFFFFFFFFFFFFFFFFFFFF DUP3 PUSH2 0x12A1 JUMP JUMPDEST PUSH2 0x12E8 DUP7 DUP4 PUSH2 0x12A1 JUMP JUMPDEST SWAP6 POP DUP1 NOT DUP5 AND SWAP4 POP DUP1 DUP7 AND DUP5 OR SWAP3 POP POP POP SWAP4 SWAP3 POP POP POP JUMP JUMPDEST PUSH1 0x0 DUP2 SWAP1 POP SWAP2 SWAP1 POP JUMP JUMPDEST PUSH1 0x0 PUSH2 0x1325 PUSH2 0x1320 PUSH2 0x131B DUP5 PUSH2 0xB43 JUMP JUMPDEST PUSH2 0x1300 JUMP JUMPDEST PUSH2 0xB43 JUMP JUMPDEST SWAP1 POP SWAP2 SWAP1 POP JUMP JUMPDEST PUSH1 0x0 DUP2 SWAP1 POP SWAP2 SWAP1 POP JUMP JUMPDEST PUSH2 0x133F DUP4 PUSH2 0x130A JUMP JUMPDEST PUSH2 0x1353 PUSH2 0x134B DUP3 PUSH2 0x132C JUMP JUMPDEST DUP5 DUP5 SLOAD PUSH2 0x12AE JUMP JUMPDEST DUP3 SSTORE POP POP POP POP JUMP JUMPDEST PUSH1 0x0 SWAP1 JUMP JUMPDEST PUSH2 0x1368 PUSH2 0x135B JUMP JUMPDEST PUSH2 0x1373 DUP2 DUP5 DUP5 PUSH2 0x1336 JUMP JUMPDEST POP POP POP JUMP JUMPDEST JUMPDEST DUP2 DUP2 LT ISZERO PUSH2 0x1397 JUMPI PUSH2 0x138C PUSH1 0x0 DUP3 PUSH2 0x1360 JUMP JUMPDEST PUSH1 0x1 DUP2 ADD SWAP1 POP PUSH2 0x1379 JUMP JUMPDEST POP POP JUMP JUMPDEST PUSH1 0x1F DUP3 GT ISZERO PUSH2 0x13DC JUMPI PUSH2 0x13AD DUP2 PUSH2 0x127C JUMP JUMPDEST PUSH2 0x13B6 DUP5 PUSH2 0x1291 JUMP JUMPDEST DUP2 ADD PUSH1 0x20 DUP6 LT ISZERO PUSH2 0x13C5 JUMPI DUP2 SWAP1 POP JUMPDEST PUSH2 0x13D9 PUSH2 0x13D1 DUP6 PUSH2 0x1291 JUMP JUMPDEST DUP4 ADD DUP3 PUSH2 0x1378 JUMP JUMPDEST POP POP JUMPDEST POP POP POP JUMP JUMPDEST PUSH1 0x0 DUP3 DUP3 SHR SWAP1 POP SWAP3 SWAP2 POP POP JUMP JUMPDEST PUSH1 0x0 PUSH2 0x13FF PUSH1 0x0 NOT DUP5 PUSH1 0x8 MUL PUSH2 0x13E1 JUMP JUMPDEST NOT DUP1 DUP4 AND SWAP2 POP POP SWAP3 SWAP2 POP POP JUMP JUMPDEST PUSH1 0x0 PUSH2 0x1418 DUP4 DUP4 PUSH2 0x13EE JUMP JUMPDEST SWAP2 POP DUP3 PUSH1 0x2 MUL DUP3 OR SWAP1 POP SWAP3 SWAP2 POP POP JUMP JUMPDEST PUSH2 0x1431 DUP3 PUSH2 0xC1A JUMP JUMPDEST PUSH8 0xFFFFFFFFFFFFFFFF DUP2 GT ISZERO PUSH2 0x144A JUMPI PUSH2 0x1449 PUSH2 0xDB4 JUMP JUMPDEST JUMPDEST PUSH2 0x1454 DUP3 SLOAD PUSH2 0xFC2 JUMP JUMPDEST PUSH2 0x145F DUP3 DUP3 DUP6 PUSH2 0x139B JUMP JUMPDEST PUSH1 0x0 PUSH1 0x20 SWAP1 POP PUSH1 0x1F DUP4 GT PUSH1 0x1 DUP2 EQ PUSH2 0x1492 JUMPI PUSH1 0x0 DUP5 ISZERO PUSH2 0x1480 JUMPI DUP3 DUP8 ADD MLOAD SWAP1 POP JUMPDEST PUSH2 0x148A DUP6 DUP3 PUSH2 0x140C JUMP JUMPDEST DUP7 SSTORE POP PUSH2 0x14F2 JUMP JUMPDEST PUSH1 0x1F NOT DUP5 AND PUSH2 0x14A0 DUP7 PUSH2 0x127C JUMP JUMPDEST PUSH1 0x0 JUMPDEST DUP3 DUP2 LT ISZERO PUSH2 0x14C8 JUMPI DUP5 DUP10 ADD MLOAD DUP3 SSTORE PUSH1 0x1 DUP3 ADD SWAP2 POP PUSH1 0x20 DUP6 ADD SWAP5 POP PUSH1 0x20 DUP2 ADD SWAP1 POP PUSH2 0x14A3 JUMP JUMPDEST DUP7 DUP4 LT ISZERO PUSH2 0x14E5 JUMPI DUP5 DUP10 ADD MLOAD PUSH2 0x14E1 PUSH1 0x1F DUP10 AND DUP3 PUSH2 0x13EE JUMP JUMPDEST DUP4 SSTORE POP JUMPDEST PUSH1 0x1 PUSH1 0x2 DUP9 MUL ADD DUP9 SSTORE POP POP POP JUMPDEST POP POP POP POP POP POP JUMP JUMPDEST PUSH1 0x0 PUSH2 0x1505 DUP3 PUSH2 0xB43 JUMP JUMPDEST SWAP2 POP PUSH2 0x1510 DUP4 PUSH2 0xB43 JUMP JUMPDEST SWAP3 POP DUP3 DUP3 SUB SWAP1 POP DUP2 DUP2 GT ISZERO PUSH2 0x1528 JUMPI PUSH2 0x1527 PUSH2 0x10BF JUMP JUMPDEST JUMPDEST SWAP3 SWAP2 POP POP JUMP JUMPDEST PUSH1 0x0 PUSH2 0x1549 PUSH2 0x1544 PUSH2 0x153F DUP5 PUSH2 0xCAA JUMP JUMPDEST PUSH2 0x1300 JUMP JUMPDEST PUSH2 0xB43 JUMP JUMPDEST SWAP1 POP SWAP2 SWAP1 POP JUMP JUMPDEST PUSH2 0x1559 DUP2 PUSH2 0x152E JUMP JUMPDEST DUP3 MSTORE POP POP JUMP JUMPDEST PUSH1 0x0 PUSH1 0x60 DUP3 ADD SWAP1 POP PUSH2 0x1574 PUSH1 0x0 DUP4 ADD DUP7 PUSH2 0xB4D JUMP JUMPDEST DUP2 DUP2 SUB PUSH1 0x20 DUP4 ADD MSTORE PUSH2 0x1586 DUP2 DUP6 PUSH2 0xC71 JUMP JUMPDEST SWAP1 POP PUSH2 0x1595 PUSH1 0x40 DUP4 ADD DUP5 PUSH2 0x1550 JUMP JUMPDEST SWAP5 SWAP4 POP POP POP POP JUMP JUMPDEST PUSH1 0x0 PUSH2 0x15A8 DUP3 PUSH2 0xB43 JUMP JUMPDEST SWAP2 POP PUSH2 0x15B3 DUP4 PUSH2 0xB43 JUMP JUMPDEST SWAP3 POP DUP3 DUP3 ADD SWAP1 POP DUP1 DUP3 GT ISZERO PUSH2 0x15CB JUMPI PUSH2 0x15CA PUSH2 0x10BF JUMP JUMPDEST JUMPDEST SWAP3 SWAP2 POP POP JUMP JUMPDEST PUSH32 0x4E487B7100000000000000000000000000000000000000000000000000000000 PUSH1 0x0 MSTORE PUSH1 0x1 PUSH1 0x4 MSTORE PUSH1 0x24 PUSH1 0x0 REVERT INVALID LOG2 PUSH5 0x6970667358 0x22 SLT KECCAK256 0xD7 0xB4 PUSH24 0xDCD2662B0A844AA18E059CEF0D0D2DA953C67FF1D8378CA7 0xB4 0xAD DUP1 0x23 0xCD PUSH5 0x736F6C6343 STOP ADDMOD GT STOP CALLER "
				},
				"gasEstimates": {
					"creation": {
						"codeDepositCost": "1137200",
						"executionCost": "infinite",
						"totalCost": "infinite"
					},
					"external": {
						"buyZombic(string)": "infinite",
						"checkDeployTest()": "2544",
						"cooldownTime()": "2473",
						"createZombic(string)": "infinite",
						"owner()": "2511",
						"setZombicPrice(uint256)": "24753",
						"transferOwnership(address)": "30690",
						"zombicCount()": "2430",
						"zombicPrice()": "2474",
						"zombicToOwber(uint256)": "2928",
						"zombics(uint256)": "infinite"
					},
					"internal": {
						"_createZombic(string memory,uint16)": "infinite",
						"_generateRandomDna(string memory)": "infinite"
					}
				},
				"methodIdentifiers": {
					"buyZombic(string)": "f94f0593",
					"checkDeployTest()": "206c8db4",
					"cooldownTime()": "b319c6b7",
					"createZombic(string)": "a38d7e5b",
					"owner()": "8da5cb5b",
					"setZombicPrice(uint256)": "e7eb1214",
					"transferOwnership(address)": "f2fde38b",
					"zombicCount()": "02f4db2f",
					"zombicPrice()": "3ece8f6f",
					"zombicToOwber(uint256)": "6de2e36c",
					"zombics(uint256)": "5e0b8654"
				}
			},
			"storageLayout": {
				"storage": [
					{
						"astId": 4,
						"contract": "contracts/ZombieFactory.sol:ZombicFactory",
						"label": "owner",
						"offset": 0,
						"slot": "0",
						"type": "t_address"
					},
					{
						"astId": 177,
						"contract": "contracts/ZombieFactory.sol:ZombicFactory",
						"label": "checkDeployTest",
						"offset": 20,
						"slot": "0",
						"type": "t_bool"
					},
					{
						"astId": 180,
						"contract": "contracts/ZombieFactory.sol:ZombicFactory",
						"label": "dnaDigits",
						"offset": 0,
						"slot": "1",
						"type": "t_uint256"
					},
					{
						"astId": 185,
						"contract": "contracts/ZombieFactory.sol:ZombicFactory",
						"label": "dnaModulus",
						"offset": 0,
						"slot": "2",
						"type": "t_uint256"
					},
					{
						"astId": 188,
						"contract": "contracts/ZombieFactory.sol:ZombicFactory",
						"label": "cooldownTime",
						"offset": 0,
						"slot": "3",
						"type": "t_uint256"
					},
					{
						"astId": 191,
						"contract": "contracts/ZombieFactory.sol:ZombicFactory",
						"label": "zombicPrice",
						"offset": 0,
						"slot": "4",
						"type": "t_uint256"
					},
					{
						"astId": 194,
						"contract": "contracts/ZombieFactory.sol:ZombicFactory",
						"label": "zombicCount",
						"offset": 0,
						"slot": "5",
						"type": "t_uint256"
					},
					{
						"astId": 213,
						"contract": "contracts/ZombieFactory.sol:ZombicFactory",
						"label": "zombics",
						"offset": 0,
						"slot": "6",
						"type": "t_array(t_struct(Zombic)209_storage)dyn_storage"
					},
					{
						"astId": 218,
						"contract": "contracts/ZombieFactory.sol:ZombicFactory",
						"label": "zombicToOwber",
						"offset": 0,
						"slot": "7",
						"type": "t_mapping(t_uint256,t_address)"
					},
					{
						"astId": 223,
						"contract": "contracts/ZombieFactory.sol:ZombicFactory",
						"label": "ownerZombicCount",
						"offset": 0,
						"slot": "8",
						"type": "t_mapping(t_address,t_uint256)"
					},
					{
						"astId": 228,
						"contract": "contracts/ZombieFactory.sol:ZombicFactory",
						"label": "zombicFeedTimes",
						"offset": 0,
						"slot": "9",
						"type": "t_mapping(t_uint256,t_uint256)"
					}
				],
				"types": {
					"t_address": {
						"encoding": "inplace",
						"label": "address",
						"numberOfBytes": "20"
					},
					"t_array(t_struct(Zombic)209_storage)dyn_storage": {
						"base": "t_struct(Zombic)209_storage",
						"encoding": "dynamic_array",
						"label": "struct ZombicFactory.Zombic[]",
						"numberOfBytes": "32"
					},
					"t_bool": {
						"encoding": "inplace",
						"label": "bool",
						"numberOfBytes": "1"
					},
					"t_mapping(t_address,t_uint256)": {
						"encoding": "mapping",
						"key": "t_address",
						"label": "mapping(address => uint256)",
						"numberOfBytes": "32",
						"value": "t_uint256"
					},
					"t_mapping(t_uint256,t_address)": {
						"encoding": "mapping",
						"key": "t_uint256",
						"label": "mapping(uint256 => address)",
						"numberOfBytes": "32",
						"value": "t_address"
					},
					"t_mapping(t_uint256,t_uint256)": {
						"encoding": "mapping",
						"key": "t_uint256",
						"label": "mapping(uint256 => uint256)",
						"numberOfBytes": "32",
						"value": "t_uint256"
					},
					"t_string_storage": {
						"encoding": "bytes",
						"label": "string",
						"numberOfBytes": "32"
					},
					"t_struct(Zombic)209_storage": {
						"encoding": "inplace",
						"label": "struct ZombicFactory.Zombic",
						"members": [
							{
								"astId": 196,
								"contract": "contracts/ZombieFactory.sol:ZombicFactory",
								"label": "name",
								"offset": 0,
								"slot": "0",
								"type": "t_string_storage"
							},
							{
								"astId": 198,
								"contract": "contracts/ZombieFactory.sol:ZombicFactory",
								"label": "dna",
								"offset": 0,
								"slot": "1",
								"type": "t_uint16"
							},
							{
								"astId": 200,
								"contract": "contracts/ZombieFactory.sol:ZombicFactory",
								"label": "winCount",
								"offset": 2,
								"slot": "1",
								"type": "t_uint16"
							},
							{
								"astId": 202,
								"contract": "contracts/ZombieFactory.sol:ZombicFactory",
								"label": "loseCount",
								"offset": 4,
								"slot": "1",
								"type": "t_uint16"
							},
							{
								"astId": 205,
								"contract": "contracts/ZombieFactory.sol:ZombicFactory",
								"label": "level",
								"offset": 6,
								"slot": "1",
								"type": "t_uint32"
							},
							{
								"astId": 208,
								"contract": "contracts/ZombieFactory.sol:ZombicFactory",
								"label": "cooldownTime",
								"offset": 10,
								"slot": "1",
								"type": "t_uint32"
							}
						],
						"numberOfBytes": "64"
					},
					"t_uint16": {
						"encoding": "inplace",
						"label": "uint16",
						"numberOfBytes": "2"
					},
					"t_uint256": {
						"encoding": "inplace",
						"label": "uint256",
						"numberOfBytes": "32"
					},
					"t_uint32": {
						"encoding": "inplace",
						"label": "uint32",
						"numberOfBytes": "4"
					}
				}
			},
			"userdoc": {
				"kind": "user",
				"methods": {
					"zombicToOwber(uint256)": {
						"notice": "僵尸id=》拥有者 "
					}
				},
				"version": 1
			}
		}
	}
}