{
	"contracts/ZombicHelper.sol": {
		"ZombicHelper": {
			"abi": [
				{
					"anonymous": false,
					"inputs": [
						{
							"indexed": false,
							"internalType": "uint256",
							"name": "zombicId",
							"type": "uint256"
						},
						{
							"indexed": false,
							"internalType": "string",
							"name": "name",
							"type": "string"
						},
						{
							"indexed": false,
							"internalType": "uint256",
							"name": "dna",
							"type": "uint256"
						}
					],
					"name": "NewZombic",
					"type": "event"
				},
				{
					"anonymous": false,
					"inputs": [
						{
							"indexed": true,
							"internalType": "address",
							"name": "previousOwner",
							"type": "address"
						},
						{
							"indexed": true,
							"internalType": "address",
							"name": "newOwner",
							"type": "address"
						}
					],
					"name": "OwnershipTransferred",
					"type": "event"
				},
				{
					"inputs": [
						{
							"internalType": "string",
							"name": "_name",
							"type": "string"
						}
					],
					"name": "buyZombic",
					"outputs": [],
					"stateMutability": "payable",
					"type": "function"
				},
				{
					"inputs": [
						{
							"internalType": "string",
							"name": "_name",
							"type": "string"
						},
						{
							"internalType": "uint256",
							"name": "_zombicId",
							"type": "uint256"
						}
					],
					"name": "changeName",
					"outputs": [],
					"stateMutability": "nonpayable",
					"type": "function"
				},
				{
					"inputs": [],
					"name": "checkDeployTest",
					"outputs": [
						{
							"internalType": "bool",
							"name": "",
							"type": "bool"
						}
					],
					"stateMutability": "view",
					"type": "function"
				},
				{
					"inputs": [],
					"name": "cooldownTime",
					"outputs": [
						{
							"internalType": "uint256",
							"name": "",
							"type": "uint256"
						}
					],
					"stateMutability": "view",
					"type": "function"
				},
				{
					"inputs": [
						{
							"internalType": "string",
							"name": "_name",
							"type": "string"
						}
					],
					"name": "createZombic",
					"outputs": [],
					"stateMutability": "nonpayable",
					"type": "function"
				},
				{
					"inputs": [
						{
							"internalType": "address",
							"name": "_owner",
							"type": "address"
						}
					],
					"name": "getZombicsByOwner",
					"outputs": [
						{
							"internalType": "uint256[]",
							"name": "",
							"type": "uint256[]"
						}
					],
					"stateMutability": "view",
					"type": "function"
				},
				{
					"inputs": [
						{
							"internalType": "uint256",
							"name": "_zombicId",
							"type": "uint256"
						}
					],
					"name": "leveUp",
					"outputs": [],
					"stateMutability": "payable",
					"type": "function"
				},
				{
					"inputs": [],
					"name": "owner",
					"outputs": [
						{
							"internalType": "address",
							"name": "",
							"type": "address"
						}
					],
					"stateMutability": "view",
					"type": "function"
				},
				{
					"inputs": [
						{
							"internalType": "uint256",
							"name": "_fee",
							"type": "uint256"
						}
					],
					"name": "setUpLevelFee",
					"outputs": [],
					"stateMutability": "nonpayable",
					"type": "function"
				},
				{
					"inputs": [
						{
							"internalType": "uint256",
							"name": "_price",
							"type": "uint256"
						}
					],
					"name": "setZombicPrice",
					"outputs": [],
					"stateMutability": "nonpayable",
					"type": "function"
				},
				{
					"inputs": [
						{
							"internalType": "address payable",
							"name": "newOwner",
							"type": "address"
						}
					],
					"name": "transferOwnership",
					"outputs": [],
					"stateMutability": "nonpayable",
					"type": "function"
				},
				{
					"inputs": [],
					"name": "zombicCount",
					"outputs": [
						{
							"internalType": "uint256",
							"name": "",
							"type": "uint256"
						}
					],
					"stateMutability": "view",
					"type": "function"
				},
				{
					"inputs": [],
					"name": "zombicPrice",
					"outputs": [
						{
							"internalType": "uint256",
							"name": "",
							"type": "uint256"
						}
					],
					"stateMutability": "view",
					"type": "function"
				},
				{
					"inputs": [
						{
							"internalType": "uint256",
							"name": "",
							"type": "uint256"
						}
					],
					"name": "zombicToOwber",
					"outputs": [
						{
							"internalType": "address",
							"name": "",
							"type": "address"
						}
					],
					"stateMutability": "view",
					"type": "function"
				},
				{
					"inputs": [
						{
							"internalType": "uint256",
							"name": "",
							"type": "uint256"
						}
					],
					"name": "zombics",
					"outputs": [
						{
							"internalType": "string",
							"name": "name",
							"type": "string"
						},
						{
							"internalType": "uint16",
							"name": "dna",
							"type": "uint16"
						},
						{
							"internalType": "uint16",
							"name": "winCount",
							"type": "uint16"
						},
						{
							"internalType": "uint16",
							"name": "loseCount",
							"type": "uint16"
						},
						{
							"internalType": "uint32",
							"name": "level",
							"type": "uint32"
						},
						{
							"internalType": "uint32",
							"name": "cooldownTime",
							"type": "uint32"
						}
					],
					"stateMutability": "view",
					"type": "function"
				}
			],
			"devdoc": {
				"kind": "dev",
				"methods": {
					"transferOwnership(address)": {
						"details": "Allows the current owner to transfer control of the contract to a newOwner.",
						"params": {
							"newOwner": "The address to transfer ownership to."
						}
					}
				},
				"version": 1
			},
			"evm": {
				"assembly": "    /* \"contracts/ZombicHelper.sol\":96:2142  contract ZombicHelper is ZombicFactory{... */\n  mstore(0x40, 0x80)\n    /* \"contracts/ZombicFactory.sol\":236:241  false */\n  0x00\n    /* \"contracts/ZombicFactory.sol\":206:241  bool public checkDeployTest = false */\n  dup1\n  exp(0x0100, 0x14)\n  dup2\n  sload\n  dup2\n  0xff\n  mul\n  not\n  and\n  swap1\n  dup4\n  iszero\n  iszero\n  mul\n  or\n  swap1\n  sstore\n  pop\n    /* \"contracts/ZombicFactory.sol\":284:286  16 */\n  0x10\n    /* \"contracts/ZombicFactory.sol\":267:286  uint dnaDigits = 16 */\n  0x01\n  sstore\n    /* \"contracts/ZombicFactory.sol\":316:325  dnaDigits */\n  sload(0x01)\n    /* \"contracts/ZombicFactory.sol\":310:312  10 */\n  0x0a\n    /* \"contracts/ZombicFactory.sol\":310:325  10 ** dnaDigits */\n  tag_1\n  swap2\n  swap1\n  tag_2\n  jump\t// in\ntag_1:\n    /* \"contracts/ZombicFactory.sol\":292:325  uint dnaModulus = 10 ** dnaDigits */\n  0x02\n  sstore\n    /* \"contracts/ZombicFactory.sol\":377:383  1 days */\n  0x015180\n    /* \"contracts/ZombicFactory.sol\":350:383  uint public cooldownTime = 1 days */\n  0x03\n  sstore\n    /* \"contracts/ZombicFactory.sol\":434:444  0.01 ether */\n  0x2386f26fc10000\n    /* \"contracts/ZombicFactory.sol\":408:444  uint public zombicPrice = 0.01 ether */\n  0x04\n  sstore\n    /* \"contracts/ZombicFactory.sol\":495:496  0 */\n  0x00\n    /* \"contracts/ZombicFactory.sol\":469:496  uint public zombicCount = 0 */\n  0x05\n  sstore\n    /* \"contracts/ZombicHelper.sol\":181:192  0.001 ether */\n  0x038d7ea4c68000\n    /* \"contracts/ZombicHelper.sol\":164:192  uint leveUpFee = 0.001 ether */\n  0x0a\n  sstore\n    /* \"contracts/ZombicHelper.sol\":96:2142  contract ZombicHelper is ZombicFactory{... */\n  callvalue\n  dup1\n  iszero\n  tag_3\n  jumpi\n  0x00\n  dup1\n  revert\ntag_3:\n  pop\n    /* \"contracts/Ownable.sol\":533:543  msg.sender */\n  caller\n    /* \"contracts/Ownable.sol\":525:530  owner */\n  0x00\n  dup1\n    /* \"contracts/Ownable.sol\":525:543  owner = msg.sender */\n  0x0100\n  exp\n  dup2\n  sload\n  dup2\n  0xffffffffffffffffffffffffffffffffffffffff\n  mul\n  not\n  and\n  swap1\n  dup4\n  0xffffffffffffffffffffffffffffffffffffffff\n  and\n  mul\n  or\n  swap1\n  sstore\n  pop\n    /* \"contracts/ZombicHelper.sol\":96:2142  contract ZombicHelper is ZombicFactory{... */\n  jump(tag_6)\n    /* \"#utility.yul\":7:187   */\ntag_7:\n    /* \"#utility.yul\":55:132   */\n  0x4e487b7100000000000000000000000000000000000000000000000000000000\n    /* \"#utility.yul\":52:53   */\n  0x00\n    /* \"#utility.yul\":45:133   */\n  mstore\n    /* \"#utility.yul\":152:156   */\n  0x11\n    /* \"#utility.yul\":149:150   */\n  0x04\n    /* \"#utility.yul\":142:157   */\n  mstore\n    /* \"#utility.yul\":176:180   */\n  0x24\n    /* \"#utility.yul\":173:174   */\n  0x00\n    /* \"#utility.yul\":166:181   */\n  revert\n    /* \"#utility.yul\":193:295   */\ntag_8:\n    /* \"#utility.yul\":235:243   */\n  0x00\n    /* \"#utility.yul\":282:287   */\n  dup2\n    /* \"#utility.yul\":279:280   */\n  0x01\n    /* \"#utility.yul\":275:288   */\n  shr\n    /* \"#utility.yul\":254:288   */\n  swap1\n  pop\n    /* \"#utility.yul\":193:295   */\n  swap2\n  swap1\n  pop\n  jump\t// out\n    /* \"#utility.yul\":301:1149   */\ntag_9:\n    /* \"#utility.yul\":362:367   */\n  0x00\n    /* \"#utility.yul\":369:373   */\n  dup1\n    /* \"#utility.yul\":393:399   */\n  dup3\n    /* \"#utility.yul\":384:399   */\n  swap2\n  pop\n    /* \"#utility.yul\":417:422   */\n  dup4\n    /* \"#utility.yul\":408:422   */\n  swap1\n  pop\n    /* \"#utility.yul\":431:1143   */\ntag_16:\n    /* \"#utility.yul\":452:453   */\n  0x01\n    /* \"#utility.yul\":442:450   */\n  dup6\n    /* \"#utility.yul\":439:454   */\n  gt\n    /* \"#utility.yul\":431:1143   */\n  iszero\n  tag_18\n  jumpi\n    /* \"#utility.yul\":547:551   */\n  dup1\n    /* \"#utility.yul\":542:545   */\n  dup7\n    /* \"#utility.yul\":538:552   */\n  div\n    /* \"#utility.yul\":532:536   */\n  dup2\n    /* \"#utility.yul\":529:553   */\n  gt\n    /* \"#utility.yul\":526:576   */\n  iszero\n  tag_19\n  jumpi\n    /* \"#utility.yul\":556:574   */\n  tag_20\n  tag_7\n  jump\t// in\ntag_20:\n    /* \"#utility.yul\":526:576   */\ntag_19:\n    /* \"#utility.yul\":606:607   */\n  0x01\n    /* \"#utility.yul\":596:604   */\n  dup6\n    /* \"#utility.yul\":592:608   */\n  and\n    /* \"#utility.yul\":589:1040   */\n  iszero\n  tag_21\n  jumpi\n    /* \"#utility.yul\":1021:1025   */\n  dup1\n    /* \"#utility.yul\":1014:1019   */\n  dup3\n    /* \"#utility.yul\":1010:1026   */\n  mul\n    /* \"#utility.yul\":1001:1026   */\n  swap2\n  pop\n    /* \"#utility.yul\":589:1040   */\ntag_21:\n    /* \"#utility.yul\":1071:1075   */\n  dup1\n    /* \"#utility.yul\":1065:1069   */\n  dup2\n    /* \"#utility.yul\":1061:1076   */\n  mul\n    /* \"#utility.yul\":1053:1076   */\n  swap1\n  pop\n    /* \"#utility.yul\":1101:1133   */\n  tag_22\n    /* \"#utility.yul\":1124:1132   */\n  dup6\n    /* \"#utility.yul\":1101:1133   */\n  tag_8\n  jump\t// in\ntag_22:\n    /* \"#utility.yul\":1089:1133   */\n  swap5\n  pop\n    /* \"#utility.yul\":431:1143   */\n  jump(tag_16)\ntag_18:\n    /* \"#utility.yul\":301:1149   */\n  swap5\n  pop\n  swap5\n  swap3\n  pop\n  pop\n  pop\n  jump\t// out\n    /* \"#utility.yul\":1155:2228   */\ntag_10:\n    /* \"#utility.yul\":1209:1214   */\n  0x00\n    /* \"#utility.yul\":1400:1408   */\n  dup3\n    /* \"#utility.yul\":1390:1430   */\n  tag_24\n  jumpi\n    /* \"#utility.yul\":1421:1422   */\n  0x01\n    /* \"#utility.yul\":1412:1422   */\n  swap1\n  pop\n    /* \"#utility.yul\":1423:1428   */\n  jump(tag_23)\n    /* \"#utility.yul\":1390:1430   */\ntag_24:\n    /* \"#utility.yul\":1449:1453   */\n  dup2\n    /* \"#utility.yul\":1439:1475   */\n  tag_25\n  jumpi\n    /* \"#utility.yul\":1466:1467   */\n  0x00\n    /* \"#utility.yul\":1457:1467   */\n  swap1\n  pop\n    /* \"#utility.yul\":1468:1473   */\n  jump(tag_23)\n    /* \"#utility.yul\":1439:1475   */\ntag_25:\n    /* \"#utility.yul\":1535:1539   */\n  dup2\n    /* \"#utility.yul\":1583:1584   */\n  0x01\n    /* \"#utility.yul\":1578:1605   */\n  dup2\n  eq\n  tag_27\n  jumpi\n    /* \"#utility.yul\":1619:1620   */\n  0x02\n    /* \"#utility.yul\":1614:1805   */\n  dup2\n  eq\n  tag_28\n  jumpi\n    /* \"#utility.yul\":1528:1805   */\n  jump(tag_26)\n    /* \"#utility.yul\":1578:1605   */\ntag_27:\n    /* \"#utility.yul\":1596:1597   */\n  0x01\n    /* \"#utility.yul\":1587:1597   */\n  swap2\n  pop\n    /* \"#utility.yul\":1598:1603   */\n  pop\n  jump(tag_23)\n    /* \"#utility.yul\":1614:1805   */\ntag_28:\n    /* \"#utility.yul\":1659:1662   */\n  0xff\n    /* \"#utility.yul\":1649:1657   */\n  dup5\n    /* \"#utility.yul\":1646:1663   */\n  gt\n    /* \"#utility.yul\":1643:1686   */\n  iszero\n  tag_29\n  jumpi\n    /* \"#utility.yul\":1666:1684   */\n  tag_30\n  tag_7\n  jump\t// in\ntag_30:\n    /* \"#utility.yul\":1643:1686   */\ntag_29:\n    /* \"#utility.yul\":1715:1723   */\n  dup4\n    /* \"#utility.yul\":1712:1713   */\n  0x02\n    /* \"#utility.yul\":1708:1724   */\n  exp\n    /* \"#utility.yul\":1699:1724   */\n  swap2\n  pop\n    /* \"#utility.yul\":1750:1753   */\n  dup5\n    /* \"#utility.yul\":1743:1748   */\n  dup3\n    /* \"#utility.yul\":1740:1754   */\n  gt\n    /* \"#utility.yul\":1737:1777   */\n  iszero\n  tag_31\n  jumpi\n    /* \"#utility.yul\":1757:1775   */\n  tag_32\n  tag_7\n  jump\t// in\ntag_32:\n    /* \"#utility.yul\":1737:1777   */\ntag_31:\n    /* \"#utility.yul\":1790:1795   */\n  pop\n  jump(tag_23)\n    /* \"#utility.yul\":1528:1805   */\ntag_26:\n  pop\n    /* \"#utility.yul\":1914:1916   */\n  0x20\n    /* \"#utility.yul\":1904:1912   */\n  dup4\n    /* \"#utility.yul\":1901:1917   */\n  lt\n    /* \"#utility.yul\":1895:1898   */\n  0x0133\n    /* \"#utility.yul\":1889:1893   */\n  dup4\n    /* \"#utility.yul\":1886:1899   */\n  lt\n    /* \"#utility.yul\":1882:1918   */\n  and\n    /* \"#utility.yul\":1864:1866   */\n  0x4e\n    /* \"#utility.yul\":1854:1862   */\n  dup5\n    /* \"#utility.yul\":1851:1867   */\n  lt\n    /* \"#utility.yul\":1846:1848   */\n  0x0b\n    /* \"#utility.yul\":1840:1844   */\n  dup5\n    /* \"#utility.yul\":1837:1849   */\n  lt\n    /* \"#utility.yul\":1833:1868   */\n  and\n    /* \"#utility.yul\":1817:1928   */\n  or\n    /* \"#utility.yul\":1814:2060   */\n  iszero\n  tag_33\n  jumpi\n    /* \"#utility.yul\":1970:1978   */\n  dup3\n    /* \"#utility.yul\":1964:1968   */\n  dup3\n    /* \"#utility.yul\":1960:1979   */\n  exp\n    /* \"#utility.yul\":1951:1979   */\n  swap1\n  pop\n    /* \"#utility.yul\":2005:2008   */\n  dup4\n    /* \"#utility.yul\":1998:2003   */\n  dup2\n    /* \"#utility.yul\":1995:2009   */\n  gt\n    /* \"#utility.yul\":1992:2032   */\n  iszero\n  tag_34\n  jumpi\n    /* \"#utility.yul\":2012:2030   */\n  tag_35\n  tag_7\n  jump\t// in\ntag_35:\n    /* \"#utility.yul\":1992:2032   */\ntag_34:\n    /* \"#utility.yul\":2045:2050   */\n  jump(tag_23)\n    /* \"#utility.yul\":1814:2060   */\ntag_33:\n    /* \"#utility.yul\":2085:2127   */\n  tag_36\n    /* \"#utility.yul\":2123:2126   */\n  dup5\n    /* \"#utility.yul\":2113:2121   */\n  dup5\n    /* \"#utility.yul\":2107:2111   */\n  dup5\n    /* \"#utility.yul\":2104:2105   */\n  0x01\n    /* \"#utility.yul\":2085:2127   */\n  tag_9\n  jump\t// in\ntag_36:\n    /* \"#utility.yul\":2070:2127   */\n  swap3\n  pop\n  swap1\n  pop\n    /* \"#utility.yul\":2159:2163   */\n  dup2\n    /* \"#utility.yul\":2154:2157   */\n  dup5\n    /* \"#utility.yul\":2150:2164   */\n  div\n    /* \"#utility.yul\":2143:2148   */\n  dup2\n    /* \"#utility.yul\":2140:2165   */\n  gt\n    /* \"#utility.yul\":2137:2188   */\n  iszero\n  tag_37\n  jumpi\n    /* \"#utility.yul\":2168:2186   */\n  tag_38\n  tag_7\n  jump\t// in\ntag_38:\n    /* \"#utility.yul\":2137:2188   */\ntag_37:\n    /* \"#utility.yul\":2217:2221   */\n  dup2\n    /* \"#utility.yul\":2210:2215   */\n  dup2\n    /* \"#utility.yul\":2206:2222   */\n  mul\n    /* \"#utility.yul\":2197:2222   */\n  swap1\n  pop\n    /* \"#utility.yul\":1155:2228   */\ntag_23:\n  swap4\n  swap3\n  pop\n  pop\n  pop\n  jump\t// out\n    /* \"#utility.yul\":2234:2311   */\ntag_11:\n    /* \"#utility.yul\":2271:2278   */\n  0x00\n    /* \"#utility.yul\":2300:2305   */\n  dup2\n    /* \"#utility.yul\":2289:2305   */\n  swap1\n  pop\n    /* \"#utility.yul\":2234:2311   */\n  swap2\n  swap1\n  pop\n  jump\t// out\n    /* \"#utility.yul\":2317:2602   */\ntag_2:\n    /* \"#utility.yul\":2377:2382   */\n  0x00\n    /* \"#utility.yul\":2401:2424   */\n  tag_41\n    /* \"#utility.yul\":2419:2423   */\n  dup3\n    /* \"#utility.yul\":2401:2424   */\n  tag_11\n  jump\t// in\ntag_41:\n    /* \"#utility.yul\":2393:2424   */\n  swap2\n  pop\n    /* \"#utility.yul\":2445:2472   */\n  tag_42\n    /* \"#utility.yul\":2463:2471   */\n  dup4\n    /* \"#utility.yul\":2445:2472   */\n  tag_11\n  jump\t// in\ntag_42:\n    /* \"#utility.yul\":2433:2472   */\n  swap3\n  pop\n    /* \"#utility.yul\":2491:2595   */\n  tag_43\n    /* \"#utility.yul\":2528:2594   */\n  0xffffffffffffffffffffffffffffffffffffffffffffffffffffffffffffffff\n    /* \"#utility.yul\":2518:2526   */\n  dup5\n    /* \"#utility.yul\":2512:2516   */\n  dup5\n    /* \"#utility.yul\":2491:2595   */\n  tag_10\n  jump\t// in\ntag_43:\n    /* \"#utility.yul\":2482:2595   */\n  swap1\n  pop\n    /* \"#utility.yul\":2317:2602   */\n  swap3\n  swap2\n  pop\n  pop\n  jump\t// out\n    /* \"contracts/ZombicHelper.sol\":96:2142  contract ZombicHelper is ZombicFactory{... */\ntag_6:\n  dataSize(sub_0)\n  dup1\n  dataOffset(sub_0)\n  0x00\n  codecopy\n  0x00\n  return\nstop\n\nsub_0: assembly {\n        /* \"contracts/ZombicHelper.sol\":96:2142  contract ZombicHelper is ZombicFactory{... */\n      mstore(0x40, 0x80)\n      jumpi(tag_1, lt(calldatasize, 0x04))\n      shr(0xe0, calldataload(0x00))\n      dup1\n      0x5e0b8654\n      gt\n      tag_17\n      jumpi\n      dup1\n      0xb319c6b7\n      gt\n      tag_18\n      jumpi\n      dup1\n      0xb319c6b7\n      eq\n      tag_13\n      jumpi\n      dup1\n      0xe7eb1214\n      eq\n      tag_14\n      jumpi\n      dup1\n      0xf2fde38b\n      eq\n      tag_15\n      jumpi\n      dup1\n      0xf94f0593\n      eq\n      tag_16\n      jumpi\n      jump(tag_1)\n    tag_18:\n      dup1\n      0x5e0b8654\n      eq\n      tag_9\n      jumpi\n      dup1\n      0x6de2e36c\n      eq\n      tag_10\n      jumpi\n      dup1\n      0x8da5cb5b\n      eq\n      tag_11\n      jumpi\n      dup1\n      0xa38d7e5b\n      eq\n      tag_12\n      jumpi\n      jump(tag_1)\n    tag_17:\n      dup1\n      0x270dc9fd\n      gt\n      tag_19\n      jumpi\n      dup1\n      0x270dc9fd\n      eq\n      tag_5\n      jumpi\n      dup1\n      0x3a42c900\n      eq\n      tag_6\n      jumpi\n      dup1\n      0x3ece8f6f\n      eq\n      tag_7\n      jumpi\n      dup1\n      0x43d5d022\n      eq\n      tag_8\n      jumpi\n      jump(tag_1)\n    tag_19:\n      dup1\n      0x02f4db2f\n      eq\n      tag_2\n      jumpi\n      dup1\n      0x206c8db4\n      eq\n      tag_3\n      jumpi\n      dup1\n      0x227c59e6\n      eq\n      tag_4\n      jumpi\n    tag_1:\n      0x00\n      dup1\n      revert\n        /* \"contracts/ZombicFactory.sol\":469:496  uint public zombicCount = 0 */\n    tag_2:\n      callvalue\n      dup1\n      iszero\n      tag_20\n      jumpi\n      0x00\n      dup1\n      revert\n    tag_20:\n      pop\n      tag_21\n      tag_22\n      jump\t// in\n    tag_21:\n      mload(0x40)\n      tag_23\n      swap2\n      swap1\n      tag_24\n      jump\t// in\n    tag_23:\n      mload(0x40)\n      dup1\n      swap2\n      sub\n      swap1\n      return\n        /* \"contracts/ZombicFactory.sol\":206:241  bool public checkDeployTest = false */\n    tag_3:\n      callvalue\n      dup1\n      iszero\n      tag_25\n      jumpi\n      0x00\n      dup1\n      revert\n    tag_25:\n      pop\n      tag_26\n      tag_27\n      jump\t// in\n    tag_26:\n      mload(0x40)\n      tag_28\n      swap2\n      swap1\n      tag_29\n      jump\t// in\n    tag_28:\n      mload(0x40)\n      dup1\n      swap2\n      sub\n      swap1\n      return\n        /* \"contracts/ZombicHelper.sol\":653:789  function leveUp(uint _zombicId) external payable{... */\n    tag_4:\n      tag_30\n      0x04\n      dup1\n      calldatasize\n      sub\n      dup2\n      add\n      swap1\n      tag_31\n      swap2\n      swap1\n      tag_32\n      jump\t// in\n    tag_31:\n      tag_33\n      jump\t// in\n    tag_30:\n      stop\n        /* \"contracts/ZombicHelper.sol\":875:1035  function changeName(string calldata _name,uint _zombicId) external aboveLevel(2, _zombicId) onlyOwnerOf(_zombicId){... */\n    tag_5:\n      callvalue\n      dup1\n      iszero\n      tag_34\n      jumpi\n      0x00\n      dup1\n      revert\n    tag_34:\n      pop\n      tag_35\n      0x04\n      dup1\n      calldatasize\n      sub\n      dup2\n      add\n      swap1\n      tag_36\n      swap2\n      swap1\n      tag_37\n      jump\t// in\n    tag_36:\n      tag_38\n      jump\t// in\n    tag_35:\n      stop\n        /* \"contracts/ZombicHelper.sol\":562:647  function setUpLevelFee(uint _fee) external onlyOwner{... */\n    tag_6:\n      callvalue\n      dup1\n      iszero\n      tag_39\n      jumpi\n      0x00\n      dup1\n      revert\n    tag_39:\n      pop\n      tag_40\n      0x04\n      dup1\n      calldatasize\n      sub\n      dup2\n      add\n      swap1\n      tag_41\n      swap2\n      swap1\n      tag_32\n      jump\t// in\n    tag_41:\n      tag_42\n      jump\t// in\n    tag_40:\n      stop\n        /* \"contracts/ZombicFactory.sol\":408:444  uint public zombicPrice = 0.01 ether */\n    tag_7:\n      callvalue\n      dup1\n      iszero\n      tag_43\n      jumpi\n      0x00\n      dup1\n      revert\n    tag_43:\n      pop\n      tag_44\n      tag_45\n      jump\t// in\n    tag_44:\n      mload(0x40)\n      tag_46\n      swap2\n      swap1\n      tag_24\n      jump\t// in\n    tag_46:\n      mload(0x40)\n      dup1\n      swap2\n      sub\n      swap1\n      return\n        /* \"contracts/ZombicHelper.sol\":1041:1420  function getZombicsByOwner(address _owner) external view returns(uint[] memory) {... */\n    tag_8:\n      callvalue\n      dup1\n      iszero\n      tag_47\n      jumpi\n      0x00\n      dup1\n      revert\n    tag_47:\n      pop\n      tag_48\n      0x04\n      dup1\n      calldatasize\n      sub\n      dup2\n      add\n      swap1\n      tag_49\n      swap2\n      swap1\n      tag_50\n      jump\t// in\n    tag_49:\n      tag_51\n      jump\t// in\n    tag_48:\n      mload(0x40)\n      tag_52\n      swap2\n      swap1\n      tag_53\n      jump\t// in\n    tag_52:\n      mload(0x40)\n      dup1\n      swap2\n      sub\n      swap1\n      return\n        /* \"contracts/ZombicFactory.sol\":723:746  Zombic[] public zombics */\n    tag_9:\n      callvalue\n      dup1\n      iszero\n      tag_54\n      jumpi\n      0x00\n      dup1\n      revert\n    tag_54:\n      pop\n      tag_55\n      0x04\n      dup1\n      calldatasize\n      sub\n      dup2\n      add\n      swap1\n      tag_56\n      swap2\n      swap1\n      tag_32\n      jump\t// in\n    tag_56:\n      tag_57\n      jump\t// in\n    tag_55:\n      mload(0x40)\n      tag_58\n      swap7\n      swap6\n      swap5\n      swap4\n      swap3\n      swap2\n      swap1\n      tag_59\n      jump\t// in\n    tag_58:\n      mload(0x40)\n      dup1\n      swap2\n      sub\n      swap1\n      return\n        /* \"contracts/ZombicFactory.sol\":785:830  mapping(uint => address) public zombicToOwber */\n    tag_10:\n      callvalue\n      dup1\n      iszero\n      tag_60\n      jumpi\n      0x00\n      dup1\n      revert\n    tag_60:\n      pop\n      tag_61\n      0x04\n      dup1\n      calldatasize\n      sub\n      dup2\n      add\n      swap1\n      tag_62\n      swap2\n      swap1\n      tag_32\n      jump\t// in\n    tag_62:\n      tag_63\n      jump\t// in\n    tag_61:\n      mload(0x40)\n      tag_64\n      swap2\n      swap1\n      tag_65\n      jump\t// in\n    tag_64:\n      mload(0x40)\n      dup1\n      swap2\n      sub\n      swap1\n      return\n        /* \"contracts/Ownable.sol\":277:297  address public owner */\n    tag_11:\n      callvalue\n      dup1\n      iszero\n      tag_66\n      jumpi\n      0x00\n      dup1\n      revert\n    tag_66:\n      pop\n      tag_67\n      tag_68\n      jump\t// in\n    tag_67:\n      mload(0x40)\n      tag_69\n      swap2\n      swap1\n      tag_65\n      jump\t// in\n    tag_69:\n      mload(0x40)\n      dup1\n      swap2\n      sub\n      swap1\n      return\n        /* \"contracts/ZombicFactory.sol\":1680:1933  function createZombic(string memory _name) public {... */\n    tag_12:\n      callvalue\n      dup1\n      iszero\n      tag_70\n      jumpi\n      0x00\n      dup1\n      revert\n    tag_70:\n      pop\n      tag_71\n      0x04\n      dup1\n      calldatasize\n      sub\n      dup2\n      add\n      swap1\n      tag_72\n      swap2\n      swap1\n      tag_73\n      jump\t// in\n    tag_72:\n      tag_74\n      jump\t// in\n    tag_71:\n      stop\n        /* \"contracts/ZombicFactory.sol\":350:383  uint public cooldownTime = 1 days */\n    tag_13:\n      callvalue\n      dup1\n      iszero\n      tag_75\n      jumpi\n      0x00\n      dup1\n      revert\n    tag_75:\n      pop\n      tag_76\n      tag_77\n      jump\t// in\n    tag_76:\n      mload(0x40)\n      tag_78\n      swap2\n      swap1\n      tag_24\n      jump\t// in\n    tag_78:\n      mload(0x40)\n      dup1\n      swap2\n      sub\n      swap1\n      return\n        /* \"contracts/ZombicFactory.sol\":2238:2330  function setZombicPrice(uint _price) external onlyOwner{... */\n    tag_14:\n      callvalue\n      dup1\n      iszero\n      tag_79\n      jumpi\n      0x00\n      dup1\n      revert\n    tag_79:\n      pop\n      tag_80\n      0x04\n      dup1\n      calldatasize\n      sub\n      dup2\n      add\n      swap1\n      tag_81\n      swap2\n      swap1\n      tag_32\n      jump\t// in\n    tag_81:\n      tag_82\n      jump\t// in\n    tag_80:\n      stop\n        /* \"contracts/Ownable.sol\":880:1084  function transferOwnership(address payable newOwner) public onlyOwner {... */\n    tag_15:\n      callvalue\n      dup1\n      iszero\n      tag_83\n      jumpi\n      0x00\n      dup1\n      revert\n    tag_83:\n      pop\n      tag_84\n      0x04\n      dup1\n      calldatasize\n      sub\n      dup2\n      add\n      swap1\n      tag_85\n      swap2\n      swap1\n      tag_86\n      jump\t// in\n    tag_85:\n      tag_87\n      jump\t// in\n    tag_84:\n      stop\n        /* \"contracts/ZombicFactory.sol\":1939:2232  function buyZombic(string memory _name) public payable {... */\n    tag_16:\n      tag_88\n      0x04\n      dup1\n      calldatasize\n      sub\n      dup2\n      add\n      swap1\n      tag_89\n      swap2\n      swap1\n      tag_73\n      jump\t// in\n    tag_89:\n      tag_90\n      jump\t// in\n    tag_88:\n      stop\n        /* \"contracts/ZombicFactory.sol\":469:496  uint public zombicCount = 0 */\n    tag_22:\n      sload(0x05)\n      dup2\n      jump\t// out\n        /* \"contracts/ZombicFactory.sol\":206:241  bool public checkDeployTest = false */\n    tag_27:\n      0x00\n      0x14\n      swap1\n      sload\n      swap1\n      0x0100\n      exp\n      swap1\n      div\n      0xff\n      and\n      dup2\n      jump\t// out\n        /* \"contracts/ZombicHelper.sol\":653:789  function leveUp(uint _zombicId) external payable{... */\n    tag_33:\n        /* \"contracts/ZombicHelper.sol\":730:739  leveUpFee */\n      sload(0x0a)\n        /* \"contracts/ZombicHelper.sol\":719:728  msg.value */\n      callvalue\n        /* \"contracts/ZombicHelper.sol\":719:739  msg.value>=leveUpFee */\n      lt\n      iszero\n        /* \"contracts/ZombicHelper.sol\":711:746  require(msg.value>=leveUpFee,'sdf') */\n      tag_92\n      jumpi\n      mload(0x40)\n      0x08c379a000000000000000000000000000000000000000000000000000000000\n      dup2\n      mstore\n      0x04\n      add\n      tag_93\n      swap1\n      tag_94\n      jump\t// in\n    tag_93:\n      mload(0x40)\n      dup1\n      swap2\n      sub\n      swap1\n      revert\n    tag_92:\n        /* \"contracts/ZombicHelper.sol\":756:763  zombics */\n      0x06\n        /* \"contracts/ZombicHelper.sol\":764:773  _zombicId */\n      dup2\n        /* \"contracts/ZombicHelper.sol\":756:774  zombics[_zombicId] */\n      dup2\n      sload\n      dup2\n      lt\n      tag_95\n      jumpi\n      tag_96\n      tag_97\n      jump\t// in\n    tag_96:\n    tag_95:\n      swap1\n      0x00\n      mstore\n      keccak256(0x00, 0x20)\n      swap1\n      0x02\n      mul\n      add\n        /* \"contracts/ZombicHelper.sol\":756:780  zombics[_zombicId].level */\n      0x01\n      add\n      0x06\n        /* \"contracts/ZombicHelper.sol\":756:782  zombics[_zombicId].level++ */\n      dup2\n      dup2\n      swap1\n      sload\n      swap1\n      0x0100\n      exp\n      swap1\n      div\n      0xffffffff\n      and\n      dup1\n      swap3\n      swap2\n      swap1\n      tag_99\n      swap1\n      tag_100\n      jump\t// in\n    tag_99:\n      swap2\n      swap1\n      0x0100\n      exp\n      dup2\n      sload\n      dup2\n      0xffffffff\n      mul\n      not\n      and\n      swap1\n      dup4\n      0xffffffff\n      and\n      mul\n      or\n      swap1\n      sstore\n      pop\n      pop\n        /* \"contracts/ZombicHelper.sol\":653:789  function leveUp(uint _zombicId) external payable{... */\n      pop\n      jump\t// out\n        /* \"contracts/ZombicHelper.sol\":875:1035  function changeName(string calldata _name,uint _zombicId) external aboveLevel(2, _zombicId) onlyOwnerOf(_zombicId){... */\n    tag_38:\n        /* \"contracts/ZombicHelper.sol\":953:954  2 */\n      0x02\n        /* \"contracts/ZombicHelper.sol\":956:965  _zombicId */\n      dup2\n        /* \"contracts/ZombicHelper.sol\":290:296  _level */\n      dup2\n        /* \"contracts/ZombicHelper.sol\":264:271  zombics */\n      0x06\n        /* \"contracts/ZombicHelper.sol\":272:281  _zombicId */\n      dup3\n        /* \"contracts/ZombicHelper.sol\":264:282  zombics[_zombicId] */\n      dup2\n      sload\n      dup2\n      lt\n      tag_102\n      jumpi\n      tag_103\n      tag_97\n      jump\t// in\n    tag_103:\n    tag_102:\n      swap1\n      0x00\n      mstore\n      keccak256(0x00, 0x20)\n      swap1\n      0x02\n      mul\n      add\n        /* \"contracts/ZombicHelper.sol\":264:288  zombics[_zombicId].level */\n      0x01\n      add\n      0x06\n      swap1\n      sload\n      swap1\n      0x0100\n      exp\n      swap1\n      div\n      0xffffffff\n      and\n        /* \"contracts/ZombicHelper.sol\":264:296  zombics[_zombicId].level>=_level */\n      0xffffffff\n      and\n      lt\n      iszero\n        /* \"contracts/ZombicHelper.sol\":256:305  require(zombics[_zombicId].level>=_level,'error') */\n      tag_105\n      jumpi\n      mload(0x40)\n      0x08c379a000000000000000000000000000000000000000000000000000000000\n      dup2\n      mstore\n      0x04\n      add\n      tag_106\n      swap1\n      tag_107\n      jump\t// in\n    tag_106:\n      mload(0x40)\n      dup1\n      swap2\n      sub\n      swap1\n      revert\n    tag_105:\n        /* \"contracts/ZombicHelper.sol\":979:988  _zombicId */\n      dup3\n        /* \"contracts/ZombicHelper.sol\":397:410  zombicToOwber */\n      0x07\n        /* \"contracts/ZombicHelper.sol\":397:421  zombicToOwber[_zombicId] */\n      0x00\n        /* \"contracts/ZombicHelper.sol\":411:420  _zombicId */\n      dup3\n        /* \"contracts/ZombicHelper.sol\":397:421  zombicToOwber[_zombicId] */\n      dup2\n      mstore\n      0x20\n      add\n      swap1\n      dup2\n      mstore\n      0x20\n      add\n      0x00\n      keccak256\n      0x00\n      swap1\n      sload\n      swap1\n      0x0100\n      exp\n      swap1\n      div\n      0xffffffffffffffffffffffffffffffffffffffff\n      and\n        /* \"contracts/ZombicHelper.sol\":383:421  msg.sender == zombicToOwber[_zombicId] */\n      0xffffffffffffffffffffffffffffffffffffffff\n      and\n        /* \"contracts/ZombicHelper.sol\":383:393  msg.sender */\n      caller\n        /* \"contracts/ZombicHelper.sol\":383:421  msg.sender == zombicToOwber[_zombicId] */\n      0xffffffffffffffffffffffffffffffffffffffff\n      and\n      eq\n        /* \"contracts/ZombicHelper.sol\":375:430  require(msg.sender == zombicToOwber[_zombicId],'error') */\n      tag_109\n      jumpi\n      mload(0x40)\n      0x08c379a000000000000000000000000000000000000000000000000000000000\n      dup2\n      mstore\n      0x04\n      add\n      tag_110\n      swap1\n      tag_107\n      jump\t// in\n    tag_110:\n      mload(0x40)\n      dup1\n      swap2\n      sub\n      swap1\n      revert\n    tag_109:\n        /* \"contracts/ZombicHelper.sol\":1023:1028  _name */\n      dup6\n      dup6\n        /* \"contracts/ZombicHelper.sol\":999:1006  zombics */\n      0x06\n        /* \"contracts/ZombicHelper.sol\":1007:1016  _zombicId */\n      dup7\n        /* \"contracts/ZombicHelper.sol\":999:1017  zombics[_zombicId] */\n      dup2\n      sload\n      dup2\n      lt\n      tag_112\n      jumpi\n      tag_113\n      tag_97\n      jump\t// in\n    tag_113:\n    tag_112:\n      swap1\n      0x00\n      mstore\n      keccak256(0x00, 0x20)\n      swap1\n      0x02\n      mul\n      add\n        /* \"contracts/ZombicHelper.sol\":999:1022  zombics[_zombicId].name */\n      0x00\n      add\n        /* \"contracts/ZombicHelper.sol\":999:1028  zombics[_zombicId].name=_name */\n      swap2\n      dup3\n      tag_115\n      swap3\n      swap2\n      swap1\n      tag_116\n      jump\t// in\n    tag_115:\n      pop\n        /* \"contracts/ZombicHelper.sol\":315:316  _ */\n      pop\n        /* \"contracts/ZombicHelper.sol\":875:1035  function changeName(string calldata _name,uint _zombicId) external aboveLevel(2, _zombicId) onlyOwnerOf(_zombicId){... */\n      pop\n      pop\n      pop\n      pop\n      pop\n      jump\t// out\n        /* \"contracts/ZombicHelper.sol\":562:647  function setUpLevelFee(uint _fee) external onlyOwner{... */\n    tag_42:\n        /* \"contracts/Ownable.sol\":678:683  owner */\n      0x00\n      dup1\n      sload\n      swap1\n      0x0100\n      exp\n      swap1\n      div\n      0xffffffffffffffffffffffffffffffffffffffff\n      and\n        /* \"contracts/Ownable.sol\":664:683  msg.sender == owner */\n      0xffffffffffffffffffffffffffffffffffffffff\n      and\n        /* \"contracts/Ownable.sol\":664:674  msg.sender */\n      caller\n        /* \"contracts/Ownable.sol\":664:683  msg.sender == owner */\n      0xffffffffffffffffffffffffffffffffffffffff\n      and\n      eq\n        /* \"contracts/Ownable.sol\":656:706  require(msg.sender == owner,'Must contract owner') */\n      tag_118\n      jumpi\n      mload(0x40)\n      0x08c379a000000000000000000000000000000000000000000000000000000000\n      dup2\n      mstore\n      0x04\n      add\n      tag_119\n      swap1\n      tag_120\n      jump\t// in\n    tag_119:\n      mload(0x40)\n      dup1\n      swap2\n      sub\n      swap1\n      revert\n    tag_118:\n        /* \"contracts/ZombicHelper.sol\":636:640  _fee */\n      dup1\n        /* \"contracts/ZombicHelper.sol\":624:633  leveUpFee */\n      0x0a\n        /* \"contracts/ZombicHelper.sol\":624:640  leveUpFee = _fee */\n      dup2\n      swap1\n      sstore\n      pop\n        /* \"contracts/ZombicHelper.sol\":562:647  function setUpLevelFee(uint _fee) external onlyOwner{... */\n      pop\n      jump\t// out\n        /* \"contracts/ZombicFactory.sol\":408:444  uint public zombicPrice = 0.01 ether */\n    tag_45:\n      sload(0x04)\n      dup2\n      jump\t// out\n        /* \"contracts/ZombicHelper.sol\":1041:1420  function getZombicsByOwner(address _owner) external view returns(uint[] memory) {... */\n    tag_51:\n        /* \"contracts/ZombicHelper.sol\":1106:1119  uint[] memory */\n      0x60\n        /* \"contracts/ZombicHelper.sol\":1131:1151  uint[] memory result */\n      0x00\n        /* \"contracts/ZombicHelper.sol\":1165:1181  ownerZombicCount */\n      0x08\n        /* \"contracts/ZombicHelper.sol\":1165:1189  ownerZombicCount[_owner] */\n      0x00\n        /* \"contracts/ZombicHelper.sol\":1182:1188  _owner */\n      dup5\n        /* \"contracts/ZombicHelper.sol\":1165:1189  ownerZombicCount[_owner] */\n      0xffffffffffffffffffffffffffffffffffffffff\n      and\n      0xffffffffffffffffffffffffffffffffffffffff\n      and\n      dup2\n      mstore\n      0x20\n      add\n      swap1\n      dup2\n      mstore\n      0x20\n      add\n      0x00\n      keccak256\n      sload\n        /* \"contracts/ZombicHelper.sol\":1154:1190  new uint[](ownerZombicCount[_owner]) */\n      0xffffffffffffffff\n      dup2\n      gt\n      iszero\n      tag_123\n      jumpi\n      tag_124\n      tag_125\n      jump\t// in\n    tag_124:\n    tag_123:\n      mload(0x40)\n      swap1\n      dup1\n      dup3\n      mstore\n      dup1\n      0x20\n      mul\n      0x20\n      add\n      dup3\n      add\n      0x40\n      mstore\n      dup1\n      iszero\n      tag_126\n      jumpi\n      dup2\n      0x20\n      add\n      0x20\n      dup3\n      mul\n      dup1\n      calldatasize\n      dup4\n      calldatacopy\n      dup1\n      dup3\n      add\n      swap2\n      pop\n      pop\n      swap1\n      pop\n    tag_126:\n      pop\n        /* \"contracts/ZombicHelper.sol\":1131:1190  uint[] memory result = new uint[](ownerZombicCount[_owner]) */\n      swap1\n      pop\n        /* \"contracts/ZombicHelper.sol\":1200:1212  uint counter */\n      0x00\n        /* \"contracts/ZombicHelper.sol\":1230:1236  uint i */\n      dup1\n        /* \"contracts/ZombicHelper.sol\":1226:1391  for(uint i=0;i<zombics.length;i++){... */\n    tag_127:\n        /* \"contracts/ZombicHelper.sol\":1241:1248  zombics */\n      0x06\n        /* \"contracts/ZombicHelper.sol\":1241:1255  zombics.length */\n      dup1\n      sload\n      swap1\n      pop\n        /* \"contracts/ZombicHelper.sol\":1239:1240  i */\n      dup2\n        /* \"contracts/ZombicHelper.sol\":1239:1255  i<zombics.length */\n      lt\n        /* \"contracts/ZombicHelper.sol\":1226:1391  for(uint i=0;i<zombics.length;i++){... */\n      iszero\n      tag_128\n      jumpi\n        /* \"contracts/ZombicHelper.sol\":1295:1301  _owner */\n      dup5\n        /* \"contracts/ZombicHelper.sol\":1277:1301  zombicToOwber[i]==_owner */\n      0xffffffffffffffffffffffffffffffffffffffff\n      and\n        /* \"contracts/ZombicHelper.sol\":1277:1290  zombicToOwber */\n      0x07\n        /* \"contracts/ZombicHelper.sol\":1277:1293  zombicToOwber[i] */\n      0x00\n        /* \"contracts/ZombicHelper.sol\":1291:1292  i */\n      dup4\n        /* \"contracts/ZombicHelper.sol\":1277:1293  zombicToOwber[i] */\n      dup2\n      mstore\n      0x20\n      add\n      swap1\n      dup2\n      mstore\n      0x20\n      add\n      0x00\n      keccak256\n      0x00\n      swap1\n      sload\n      swap1\n      0x0100\n      exp\n      swap1\n      div\n      0xffffffffffffffffffffffffffffffffffffffff\n      and\n        /* \"contracts/ZombicHelper.sol\":1277:1301  zombicToOwber[i]==_owner */\n      0xffffffffffffffffffffffffffffffffffffffff\n      and\n      sub\n        /* \"contracts/ZombicHelper.sol\":1274:1381  if(zombicToOwber[i]==_owner){... */\n      tag_130\n      jumpi\n        /* \"contracts/ZombicHelper.sol\":1338:1339  i */\n      dup1\n        /* \"contracts/ZombicHelper.sol\":1320:1326  result */\n      dup4\n        /* \"contracts/ZombicHelper.sol\":1327:1334  counter */\n      dup4\n        /* \"contracts/ZombicHelper.sol\":1320:1335  result[counter] */\n      dup2\n      mload\n      dup2\n      lt\n      tag_131\n      jumpi\n      tag_132\n      tag_97\n      jump\t// in\n    tag_132:\n    tag_131:\n      0x20\n      mul\n      0x20\n      add\n      add\n        /* \"contracts/ZombicHelper.sol\":1320:1339  result[counter] = i */\n      dup2\n      dup2\n      mstore\n      pop\n      pop\n        /* \"contracts/ZombicHelper.sol\":1357:1366  counter++ */\n      dup2\n      dup1\n      tag_133\n      swap1\n      tag_134\n      jump\t// in\n    tag_133:\n      swap3\n      pop\n      pop\n        /* \"contracts/ZombicHelper.sol\":1274:1381  if(zombicToOwber[i]==_owner){... */\n    tag_130:\n        /* \"contracts/ZombicHelper.sol\":1256:1259  i++ */\n      dup1\n      dup1\n      tag_135\n      swap1\n      tag_134\n      jump\t// in\n    tag_135:\n      swap2\n      pop\n      pop\n        /* \"contracts/ZombicHelper.sol\":1226:1391  for(uint i=0;i<zombics.length;i++){... */\n      jump(tag_127)\n    tag_128:\n      pop\n        /* \"contracts/ZombicHelper.sol\":1407:1413  result */\n      dup2\n        /* \"contracts/ZombicHelper.sol\":1400:1413  return result */\n      swap3\n      pop\n      pop\n      pop\n        /* \"contracts/ZombicHelper.sol\":1041:1420  function getZombicsByOwner(address _owner) external view returns(uint[] memory) {... */\n      swap2\n      swap1\n      pop\n      jump\t// out\n        /* \"contracts/ZombicFactory.sol\":723:746  Zombic[] public zombics */\n    tag_57:\n      0x06\n      dup2\n      dup2\n      sload\n      dup2\n      lt\n      tag_136\n      jumpi\n      0x00\n      dup1\n      revert\n    tag_136:\n      swap1\n      0x00\n      mstore\n      keccak256(0x00, 0x20)\n      swap1\n      0x02\n      mul\n      add\n      0x00\n      swap2\n      pop\n      swap1\n      pop\n      dup1\n      0x00\n      add\n      dup1\n      sload\n      tag_138\n      swap1\n      tag_139\n      jump\t// in\n    tag_138:\n      dup1\n      0x1f\n      add\n      0x20\n      dup1\n      swap2\n      div\n      mul\n      0x20\n      add\n      mload(0x40)\n      swap1\n      dup2\n      add\n      0x40\n      mstore\n      dup1\n      swap3\n      swap2\n      swap1\n      dup2\n      dup2\n      mstore\n      0x20\n      add\n      dup3\n      dup1\n      sload\n      tag_140\n      swap1\n      tag_139\n      jump\t// in\n    tag_140:\n      dup1\n      iszero\n      tag_141\n      jumpi\n      dup1\n      0x1f\n      lt\n      tag_142\n      jumpi\n      0x0100\n      dup1\n      dup4\n      sload\n      div\n      mul\n      dup4\n      mstore\n      swap2\n      0x20\n      add\n      swap2\n      jump(tag_141)\n    tag_142:\n      dup3\n      add\n      swap2\n      swap1\n      0x00\n      mstore\n      keccak256(0x00, 0x20)\n      swap1\n    tag_143:\n      dup2\n      sload\n      dup2\n      mstore\n      swap1\n      0x01\n      add\n      swap1\n      0x20\n      add\n      dup1\n      dup4\n      gt\n      tag_143\n      jumpi\n      dup3\n      swap1\n      sub\n      0x1f\n      and\n      dup3\n      add\n      swap2\n    tag_141:\n      pop\n      pop\n      pop\n      pop\n      pop\n      swap1\n      dup1\n      0x01\n      add\n      0x00\n      swap1\n      sload\n      swap1\n      0x0100\n      exp\n      swap1\n      div\n      0xffff\n      and\n      swap1\n      dup1\n      0x01\n      add\n      0x02\n      swap1\n      sload\n      swap1\n      0x0100\n      exp\n      swap1\n      div\n      0xffff\n      and\n      swap1\n      dup1\n      0x01\n      add\n      0x04\n      swap1\n      sload\n      swap1\n      0x0100\n      exp\n      swap1\n      div\n      0xffff\n      and\n      swap1\n      dup1\n      0x01\n      add\n      0x06\n      swap1\n      sload\n      swap1\n      0x0100\n      exp\n      swap1\n      div\n      0xffffffff\n      and\n      swap1\n      dup1\n      0x01\n      add\n      0x0a\n      swap1\n      sload\n      swap1\n      0x0100\n      exp\n      swap1\n      div\n      0xffffffff\n      and\n      swap1\n      pop\n      dup7\n      jump\t// out\n        /* \"contracts/ZombicFactory.sol\":785:830  mapping(uint => address) public zombicToOwber */\n    tag_63:\n      mstore(0x20, 0x07)\n      dup1\n      0x00\n      mstore\n      keccak256(0x00, 0x40)\n      0x00\n      swap2\n      pop\n      sload\n      swap1\n      0x0100\n      exp\n      swap1\n      div\n      0xffffffffffffffffffffffffffffffffffffffff\n      and\n      dup2\n      jump\t// out\n        /* \"contracts/Ownable.sol\":277:297  address public owner */\n    tag_68:\n      0x00\n      dup1\n      sload\n      swap1\n      0x0100\n      exp\n      swap1\n      div\n      0xffffffffffffffffffffffffffffffffffffffff\n      and\n      dup2\n      jump\t// out\n        /* \"contracts/ZombicFactory.sol\":1680:1933  function createZombic(string memory _name) public {... */\n    tag_74:\n        /* \"contracts/ZombicFactory.sol\":1780:1781  0 */\n      0x00\n        /* \"contracts/ZombicFactory.sol\":1748:1764  ownerZombicCount */\n      0x08\n        /* \"contracts/ZombicFactory.sol\":1748:1776  ownerZombicCount[msg.sender] */\n      0x00\n        /* \"contracts/ZombicFactory.sol\":1765:1775  msg.sender */\n      caller\n        /* \"contracts/ZombicFactory.sol\":1748:1776  ownerZombicCount[msg.sender] */\n      0xffffffffffffffffffffffffffffffffffffffff\n      and\n      0xffffffffffffffffffffffffffffffffffffffff\n      and\n      dup2\n      mstore\n      0x20\n      add\n      swap1\n      dup2\n      mstore\n      0x20\n      add\n      0x00\n      keccak256\n      sload\n        /* \"contracts/ZombicFactory.sol\":1748:1781  ownerZombicCount[msg.sender] == 0 */\n      eq\n        /* \"contracts/ZombicFactory.sol\":1740:1791  require(ownerZombicCount[msg.sender] == 0, \"error\") */\n      tag_145\n      jumpi\n      mload(0x40)\n      0x08c379a000000000000000000000000000000000000000000000000000000000\n      dup2\n      mstore\n      0x04\n      add\n      tag_146\n      swap1\n      tag_107\n      jump\t// in\n    tag_146:\n      mload(0x40)\n      dup1\n      swap2\n      sub\n      swap1\n      revert\n    tag_145:\n        /* \"contracts/ZombicFactory.sol\":1801:1815  uint16 randDna */\n      0x00\n        /* \"contracts/ZombicFactory.sol\":1818:1843  _generateRandomDna(_name) */\n      tag_147\n        /* \"contracts/ZombicFactory.sol\":1837:1842  _name */\n      dup3\n        /* \"contracts/ZombicFactory.sol\":1818:1836  _generateRandomDna */\n      tag_148\n        /* \"contracts/ZombicFactory.sol\":1818:1843  _generateRandomDna(_name) */\n      jump\t// in\n    tag_147:\n        /* \"contracts/ZombicFactory.sol\":1801:1843  uint16 randDna = _generateRandomDna(_name) */\n      swap1\n      pop\n        /* \"contracts/ZombicFactory.sol\":1884:1886  10 */\n      0x0a\n        /* \"contracts/ZombicFactory.sol\":1874:1881  randDna */\n      dup2\n        /* \"contracts/ZombicFactory.sol\":1874:1886  randDna % 10 */\n      tag_149\n      swap2\n      swap1\n      tag_150\n      jump\t// in\n    tag_149:\n        /* \"contracts/ZombicFactory.sol\":1863:1870  randDna */\n      dup2\n        /* \"contracts/ZombicFactory.sol\":1863:1887  randDna - (randDna % 10) */\n      tag_151\n      swap2\n      swap1\n      tag_152\n      jump\t// in\n    tag_151:\n        /* \"contracts/ZombicFactory.sol\":1853:1887  randDna = randDna - (randDna % 10) */\n      swap1\n      pop\n        /* \"contracts/ZombicFactory.sol\":1897:1926  _createZombic(_name, randDna) */\n      tag_153\n        /* \"contracts/ZombicFactory.sol\":1911:1916  _name */\n      dup3\n        /* \"contracts/ZombicFactory.sol\":1918:1925  randDna */\n      dup3\n        /* \"contracts/ZombicFactory.sol\":1897:1910  _createZombic */\n      tag_154\n        /* \"contracts/ZombicFactory.sol\":1897:1926  _createZombic(_name, randDna) */\n      jump\t// in\n    tag_153:\n        /* \"contracts/ZombicFactory.sol\":1730:1933  {... */\n      pop\n        /* \"contracts/ZombicFactory.sol\":1680:1933  function createZombic(string memory _name) public {... */\n      pop\n      jump\t// out\n        /* \"contracts/ZombicFactory.sol\":350:383  uint public cooldownTime = 1 days */\n    tag_77:\n      sload(0x03)\n      dup2\n      jump\t// out\n        /* \"contracts/ZombicFactory.sol\":2238:2330  function setZombicPrice(uint _price) external onlyOwner{... */\n    tag_82:\n        /* \"contracts/Ownable.sol\":678:683  owner */\n      0x00\n      dup1\n      sload\n      swap1\n      0x0100\n      exp\n      swap1\n      div\n      0xffffffffffffffffffffffffffffffffffffffff\n      and\n        /* \"contracts/Ownable.sol\":664:683  msg.sender == owner */\n      0xffffffffffffffffffffffffffffffffffffffff\n      and\n        /* \"contracts/Ownable.sol\":664:674  msg.sender */\n      caller\n        /* \"contracts/Ownable.sol\":664:683  msg.sender == owner */\n      0xffffffffffffffffffffffffffffffffffffffff\n      and\n      eq\n        /* \"contracts/Ownable.sol\":656:706  require(msg.sender == owner,'Must contract owner') */\n      tag_156\n      jumpi\n      mload(0x40)\n      0x08c379a000000000000000000000000000000000000000000000000000000000\n      dup2\n      mstore\n      0x04\n      add\n      tag_157\n      swap1\n      tag_120\n      jump\t// in\n    tag_157:\n      mload(0x40)\n      dup1\n      swap2\n      sub\n      swap1\n      revert\n    tag_156:\n        /* \"contracts/ZombicFactory.sol\":2317:2323  _price */\n      dup1\n        /* \"contracts/ZombicFactory.sol\":2303:2314  zombicPrice */\n      0x04\n        /* \"contracts/ZombicFactory.sol\":2303:2323  zombicPrice = _price */\n      dup2\n      swap1\n      sstore\n      pop\n        /* \"contracts/ZombicFactory.sol\":2238:2330  function setZombicPrice(uint _price) external onlyOwner{... */\n      pop\n      jump\t// out\n        /* \"contracts/Ownable.sol\":880:1084  function transferOwnership(address payable newOwner) public onlyOwner {... */\n    tag_87:\n        /* \"contracts/Ownable.sol\":678:683  owner */\n      0x00\n      dup1\n      sload\n      swap1\n      0x0100\n      exp\n      swap1\n      div\n      0xffffffffffffffffffffffffffffffffffffffff\n      and\n        /* \"contracts/Ownable.sol\":664:683  msg.sender == owner */\n      0xffffffffffffffffffffffffffffffffffffffff\n      and\n        /* \"contracts/Ownable.sol\":664:674  msg.sender */\n      caller\n        /* \"contracts/Ownable.sol\":664:683  msg.sender == owner */\n      0xffffffffffffffffffffffffffffffffffffffff\n      and\n      eq\n        /* \"contracts/Ownable.sol\":656:706  require(msg.sender == owner,'Must contract owner') */\n      tag_160\n      jumpi\n      mload(0x40)\n      0x08c379a000000000000000000000000000000000000000000000000000000000\n      dup2\n      mstore\n      0x04\n      add\n      tag_161\n      swap1\n      tag_120\n      jump\t// in\n    tag_161:\n      mload(0x40)\n      dup1\n      swap2\n      sub\n      swap1\n      revert\n    tag_160:\n        /* \"contracts/Ownable.sol\":984:985  0 */\n      0x00\n        /* \"contracts/Ownable.sol\":964:986  newOwner != address(0) */\n      0xffffffffffffffffffffffffffffffffffffffff\n      and\n        /* \"contracts/Ownable.sol\":964:972  newOwner */\n      dup2\n        /* \"contracts/Ownable.sol\":964:986  newOwner != address(0) */\n      0xffffffffffffffffffffffffffffffffffffffff\n      and\n      sub\n        /* \"contracts/Ownable.sol\":956:1009  require(newOwner != address(0),'Must contract owner') */\n      tag_163\n      jumpi\n      mload(0x40)\n      0x08c379a000000000000000000000000000000000000000000000000000000000\n      dup2\n      mstore\n      0x04\n      add\n      tag_164\n      swap1\n      tag_120\n      jump\t// in\n    tag_164:\n      mload(0x40)\n      dup1\n      swap2\n      sub\n      swap1\n      revert\n    tag_163:\n        /* \"contracts/Ownable.sol\":1048:1056  newOwner */\n      dup1\n        /* \"contracts/Ownable.sol\":1020:1057  OwnershipTransferred(owner, newOwner) */\n      0xffffffffffffffffffffffffffffffffffffffff\n      and\n        /* \"contracts/Ownable.sol\":1041:1046  owner */\n      0x00\n      dup1\n      sload\n      swap1\n      0x0100\n      exp\n      swap1\n      div\n      0xffffffffffffffffffffffffffffffffffffffff\n      and\n        /* \"contracts/Ownable.sol\":1020:1057  OwnershipTransferred(owner, newOwner) */\n      0xffffffffffffffffffffffffffffffffffffffff\n      and\n      0x8be0079c531659141344cd1fd0a4f28419497f9722a3daafe3b4186f6b6457e0\n      mload(0x40)\n      mload(0x40)\n      dup1\n      swap2\n      sub\n      swap1\n      log3\n        /* \"contracts/Ownable.sol\":1071:1079  newOwner */\n      dup1\n        /* \"contracts/Ownable.sol\":1063:1068  owner */\n      0x00\n      dup1\n        /* \"contracts/Ownable.sol\":1063:1079  owner = newOwner */\n      0x0100\n      exp\n      dup2\n      sload\n      dup2\n      0xffffffffffffffffffffffffffffffffffffffff\n      mul\n      not\n      and\n      swap1\n      dup4\n      0xffffffffffffffffffffffffffffffffffffffff\n      and\n      mul\n      or\n      swap1\n      sstore\n      pop\n        /* \"contracts/Ownable.sol\":880:1084  function transferOwnership(address payable newOwner) public onlyOwner {... */\n      pop\n      jump\t// out\n        /* \"contracts/ZombicFactory.sol\":1939:2232  function buyZombic(string memory _name) public payable {... */\n    tag_90:\n        /* \"contracts/ZombicFactory.sol\":2043:2044  0 */\n      0x00\n        /* \"contracts/ZombicFactory.sol\":2012:2028  ownerZombicCount */\n      0x08\n        /* \"contracts/ZombicFactory.sol\":2012:2040  ownerZombicCount[msg.sender] */\n      0x00\n        /* \"contracts/ZombicFactory.sol\":2029:2039  msg.sender */\n      caller\n        /* \"contracts/ZombicFactory.sol\":2012:2040  ownerZombicCount[msg.sender] */\n      0xffffffffffffffffffffffffffffffffffffffff\n      and\n      0xffffffffffffffffffffffffffffffffffffffff\n      and\n      dup2\n      mstore\n      0x20\n      add\n      swap1\n      dup2\n      mstore\n      0x20\n      add\n      0x00\n      keccak256\n      sload\n        /* \"contracts/ZombicFactory.sol\":2012:2044  ownerZombicCount[msg.sender] > 0 */\n      gt\n        /* \"contracts/ZombicFactory.sol\":2004:2054  require(ownerZombicCount[msg.sender] > 0, \"error\") */\n      tag_166\n      jumpi\n      mload(0x40)\n      0x08c379a000000000000000000000000000000000000000000000000000000000\n      dup2\n      mstore\n      0x04\n      add\n      tag_167\n      swap1\n      tag_107\n      jump\t// in\n    tag_167:\n      mload(0x40)\n      dup1\n      swap2\n      sub\n      swap1\n      revert\n    tag_166:\n        /* \"contracts/ZombicFactory.sol\":2084:2095  zombicPrice */\n      sload(0x04)\n        /* \"contracts/ZombicFactory.sol\":2072:2081  msg.value */\n      callvalue\n        /* \"contracts/ZombicFactory.sol\":2072:2095  msg.value > zombicPrice */\n      gt\n        /* \"contracts/ZombicFactory.sol\":2064:2105  require(msg.value > zombicPrice, \"error\") */\n      tag_168\n      jumpi\n      mload(0x40)\n      0x08c379a000000000000000000000000000000000000000000000000000000000\n      dup2\n      mstore\n      0x04\n      add\n      tag_169\n      swap1\n      tag_107\n      jump\t// in\n    tag_169:\n      mload(0x40)\n      dup1\n      swap2\n      sub\n      swap1\n      revert\n    tag_168:\n        /* \"contracts/ZombicFactory.sol\":2116:2126  uint16 dna */\n      0x00\n        /* \"contracts/ZombicFactory.sol\":2129:2154  _generateRandomDna(_name) */\n      tag_170\n        /* \"contracts/ZombicFactory.sol\":2148:2153  _name */\n      dup3\n        /* \"contracts/ZombicFactory.sol\":2129:2147  _generateRandomDna */\n      tag_148\n        /* \"contracts/ZombicFactory.sol\":2129:2154  _generateRandomDna(_name) */\n      jump\t// in\n    tag_170:\n        /* \"contracts/ZombicFactory.sol\":2116:2154  uint16 dna = _generateRandomDna(_name) */\n      swap1\n      pop\n        /* \"contracts/ZombicFactory.sol\":2189:2190  1 */\n      0x01\n        /* \"contracts/ZombicFactory.sol\":2183:2185  10 */\n      0x0a\n        /* \"contracts/ZombicFactory.sol\":2177:2180  dna */\n      dup3\n        /* \"contracts/ZombicFactory.sol\":2177:2185  dna % 10 */\n      tag_171\n      swap2\n      swap1\n      tag_150\n      jump\t// in\n    tag_171:\n        /* \"contracts/ZombicFactory.sol\":2170:2173  dna */\n      dup3\n        /* \"contracts/ZombicFactory.sol\":2170:2186  dna - (dna % 10) */\n      tag_172\n      swap2\n      swap1\n      tag_152\n      jump\t// in\n    tag_172:\n        /* \"contracts/ZombicFactory.sol\":2170:2190  dna - (dna % 10) + 1 */\n      tag_173\n      swap2\n      swap1\n      tag_174\n      jump\t// in\n    tag_173:\n        /* \"contracts/ZombicFactory.sol\":2164:2190  dna = dna - (dna % 10) + 1 */\n      swap1\n      pop\n        /* \"contracts/ZombicFactory.sol\":2200:2225  _createZombic(_name, dna) */\n      tag_175\n        /* \"contracts/ZombicFactory.sol\":2214:2219  _name */\n      dup3\n        /* \"contracts/ZombicFactory.sol\":2221:2224  dna */\n      dup3\n        /* \"contracts/ZombicFactory.sol\":2200:2213  _createZombic */\n      tag_154\n        /* \"contracts/ZombicFactory.sol\":2200:2225  _createZombic(_name, dna) */\n      jump\t// in\n    tag_175:\n        /* \"contracts/ZombicFactory.sol\":1994:2232  {... */\n      pop\n        /* \"contracts/ZombicFactory.sol\":1939:2232  function buyZombic(string memory _name) public payable {... */\n      pop\n      jump\t// out\n        /* \"contracts/ZombicFactory.sol\":1048:1303  function _generateRandomDna(... */\n    tag_148:\n        /* \"contracts/ZombicFactory.sol\":1132:1138  uint16 */\n      0x00\n        /* \"contracts/ZombicFactory.sol\":1272:1282  dnaModulus */\n      sload(0x02)\n        /* \"contracts/ZombicFactory.sol\":1225:1229  _str */\n      dup3\n        /* \"contracts/ZombicFactory.sol\":1231:1246  block.timestamp */\n      timestamp\n        /* \"contracts/ZombicFactory.sol\":1208:1247  abi.encodePacked(_str, block.timestamp) */\n      add(0x20, mload(0x40))\n      tag_177\n      swap3\n      swap2\n      swap1\n      tag_178\n      jump\t// in\n    tag_177:\n      mload(0x40)\n      0x20\n      dup2\n      dup4\n      sub\n      sub\n      dup2\n      mstore\n      swap1\n      0x40\n      mstore\n        /* \"contracts/ZombicFactory.sol\":1198:1248  keccak256(abi.encodePacked(_str, block.timestamp)) */\n      dup1\n      mload\n      swap1\n      0x20\n      add\n      keccak256\n        /* \"contracts/ZombicFactory.sol\":1193:1249  uint(keccak256(abi.encodePacked(_str, block.timestamp))) */\n      0x00\n      shr\n        /* \"contracts/ZombicFactory.sol\":1193:1282  uint(keccak256(abi.encodePacked(_str, block.timestamp))) %... */\n      tag_179\n      swap2\n      swap1\n      tag_180\n      jump\t// in\n    tag_179:\n        /* \"contracts/ZombicFactory.sol\":1150:1296  return... */\n      swap1\n      pop\n        /* \"contracts/ZombicFactory.sol\":1048:1303  function _generateRandomDna(... */\n      swap2\n      swap1\n      pop\n      jump\t// out\n        /* \"contracts/ZombicFactory.sol\":1309:1674  function _createZombic(string memory _name, uint16 _dna) internal {... */\n    tag_154:\n        /* \"contracts/ZombicFactory.sol\":1385:1392  zombics */\n      0x06\n        /* \"contracts/ZombicFactory.sol\":1398:1429  Zombic(_name, _dna, 0, 0, 1, 0) */\n      mload(0x40)\n      dup1\n      0xc0\n      add\n      0x40\n      mstore\n      dup1\n        /* \"contracts/ZombicFactory.sol\":1405:1410  _name */\n      dup5\n        /* \"contracts/ZombicFactory.sol\":1398:1429  Zombic(_name, _dna, 0, 0, 1, 0) */\n      dup2\n      mstore\n      0x20\n      add\n        /* \"contracts/ZombicFactory.sol\":1412:1416  _dna */\n      dup4\n        /* \"contracts/ZombicFactory.sol\":1398:1429  Zombic(_name, _dna, 0, 0, 1, 0) */\n      0xffff\n      and\n      dup2\n      mstore\n      0x20\n      add\n        /* \"contracts/ZombicFactory.sol\":1418:1419  0 */\n      0x00\n        /* \"contracts/ZombicFactory.sol\":1398:1429  Zombic(_name, _dna, 0, 0, 1, 0) */\n      0xffff\n      and\n      dup2\n      mstore\n      0x20\n      add\n        /* \"contracts/ZombicFactory.sol\":1421:1422  0 */\n      0x00\n        /* \"contracts/ZombicFactory.sol\":1398:1429  Zombic(_name, _dna, 0, 0, 1, 0) */\n      0xffff\n      and\n      dup2\n      mstore\n      0x20\n      add\n        /* \"contracts/ZombicFactory.sol\":1424:1425  1 */\n      0x01\n        /* \"contracts/ZombicFactory.sol\":1398:1429  Zombic(_name, _dna, 0, 0, 1, 0) */\n      0xffffffff\n      and\n      dup2\n      mstore\n      0x20\n      add\n        /* \"contracts/ZombicFactory.sol\":1427:1428  0 */\n      0x00\n        /* \"contracts/ZombicFactory.sol\":1398:1429  Zombic(_name, _dna, 0, 0, 1, 0) */\n      0xffffffff\n      and\n      dup2\n      mstore\n      pop\n        /* \"contracts/ZombicFactory.sol\":1385:1430  zombics.push(Zombic(_name, _dna, 0, 0, 1, 0)) */\n      swap1\n      dup1\n      0x01\n      dup2\n      sload\n      add\n      dup1\n      dup3\n      sstore\n      dup1\n      swap2\n      pop\n      pop\n      0x01\n      swap1\n      sub\n      swap1\n      0x00\n      mstore\n      keccak256(0x00, 0x20)\n      swap1\n      0x02\n      mul\n      add\n      0x00\n      swap1\n      swap2\n      swap1\n      swap2\n      swap1\n      swap2\n      pop\n      0x00\n      dup3\n      add\n      mload\n      dup2\n      0x00\n      add\n      swap1\n      dup2\n      tag_183\n      swap2\n      swap1\n      tag_184\n      jump\t// in\n    tag_183:\n      pop\n      0x20\n      dup3\n      add\n      mload\n      dup2\n      0x01\n      add\n      exp(0x0100, 0x00)\n      dup2\n      sload\n      dup2\n      0xffff\n      mul\n      not\n      and\n      swap1\n      dup4\n      0xffff\n      and\n      mul\n      or\n      swap1\n      sstore\n      pop\n      0x40\n      dup3\n      add\n      mload\n      dup2\n      0x01\n      add\n      exp(0x0100, 0x02)\n      dup2\n      sload\n      dup2\n      0xffff\n      mul\n      not\n      and\n      swap1\n      dup4\n      0xffff\n      and\n      mul\n      or\n      swap1\n      sstore\n      pop\n      0x60\n      dup3\n      add\n      mload\n      dup2\n      0x01\n      add\n      exp(0x0100, 0x04)\n      dup2\n      sload\n      dup2\n      0xffff\n      mul\n      not\n      and\n      swap1\n      dup4\n      0xffff\n      and\n      mul\n      or\n      swap1\n      sstore\n      pop\n      0x80\n      dup3\n      add\n      mload\n      dup2\n      0x01\n      add\n      exp(0x0100, 0x06)\n      dup2\n      sload\n      dup2\n      0xffffffff\n      mul\n      not\n      and\n      swap1\n      dup4\n      0xffffffff\n      and\n      mul\n      or\n      swap1\n      sstore\n      pop\n      0xa0\n      dup3\n      add\n      mload\n      dup2\n      0x01\n      add\n      exp(0x0100, 0x0a)\n      dup2\n      sload\n      dup2\n      0xffffffff\n      mul\n      not\n      and\n      swap1\n      dup4\n      0xffffffff\n      and\n      mul\n      or\n      swap1\n      sstore\n      pop\n      pop\n      pop\n        /* \"contracts/ZombicFactory.sol\":1440:1447  uint id */\n      0x00\n        /* \"contracts/ZombicFactory.sol\":1467:1468  1 */\n      0x01\n        /* \"contracts/ZombicFactory.sol\":1450:1457  zombics */\n      0x06\n        /* \"contracts/ZombicFactory.sol\":1450:1464  zombics.length */\n      dup1\n      sload\n      swap1\n      pop\n        /* \"contracts/ZombicFactory.sol\":1450:1468  zombics.length - 1 */\n      tag_185\n      swap2\n      swap1\n      tag_186\n      jump\t// in\n    tag_185:\n        /* \"contracts/ZombicFactory.sol\":1440:1468  uint id = zombics.length - 1 */\n      swap1\n      pop\n        /* \"contracts/ZombicFactory.sol\":1498:1508  msg.sender */\n      caller\n        /* \"contracts/ZombicFactory.sol\":1478:1491  zombicToOwber */\n      0x07\n        /* \"contracts/ZombicFactory.sol\":1478:1495  zombicToOwber[id] */\n      0x00\n        /* \"contracts/ZombicFactory.sol\":1492:1494  id */\n      dup4\n        /* \"contracts/ZombicFactory.sol\":1478:1495  zombicToOwber[id] */\n      dup2\n      mstore\n      0x20\n      add\n      swap1\n      dup2\n      mstore\n      0x20\n      add\n      0x00\n      keccak256\n      0x00\n        /* \"contracts/ZombicFactory.sol\":1478:1508  zombicToOwber[id] = msg.sender */\n      0x0100\n      exp\n      dup2\n      sload\n      dup2\n      0xffffffffffffffffffffffffffffffffffffffff\n      mul\n      not\n      and\n      swap1\n      dup4\n      0xffffffffffffffffffffffffffffffffffffffff\n      and\n      mul\n      or\n      swap1\n      sstore\n      pop\n        /* \"contracts/ZombicFactory.sol\":1549:1584  ownerZombicCount[msg.sender].add(1) */\n      tag_187\n        /* \"contracts/ZombicFactory.sol\":1582:1583  1 */\n      0x01\n        /* \"contracts/ZombicFactory.sol\":1549:1565  ownerZombicCount */\n      0x08\n        /* \"contracts/ZombicFactory.sol\":1549:1577  ownerZombicCount[msg.sender] */\n      0x00\n        /* \"contracts/ZombicFactory.sol\":1566:1576  msg.sender */\n      caller\n        /* \"contracts/ZombicFactory.sol\":1549:1577  ownerZombicCount[msg.sender] */\n      0xffffffffffffffffffffffffffffffffffffffff\n      and\n      0xffffffffffffffffffffffffffffffffffffffff\n      and\n      dup2\n      mstore\n      0x20\n      add\n      swap1\n      dup2\n      mstore\n      0x20\n      add\n      0x00\n      keccak256\n      sload\n        /* \"contracts/ZombicFactory.sol\":1549:1581  ownerZombicCount[msg.sender].add */\n      tag_188\n      swap1\n        /* \"contracts/ZombicFactory.sol\":1549:1584  ownerZombicCount[msg.sender].add(1) */\n      swap2\n      swap1\n      0xffffffff\n      and\n      jump\t// in\n    tag_187:\n        /* \"contracts/ZombicFactory.sol\":1518:1534  ownerZombicCount */\n      0x08\n        /* \"contracts/ZombicFactory.sol\":1518:1546  ownerZombicCount[msg.sender] */\n      0x00\n        /* \"contracts/ZombicFactory.sol\":1535:1545  msg.sender */\n      caller\n        /* \"contracts/ZombicFactory.sol\":1518:1546  ownerZombicCount[msg.sender] */\n      0xffffffffffffffffffffffffffffffffffffffff\n      and\n      0xffffffffffffffffffffffffffffffffffffffff\n      and\n      dup2\n      mstore\n      0x20\n      add\n      swap1\n      dup2\n      mstore\n      0x20\n      add\n      0x00\n      keccak256\n        /* \"contracts/ZombicFactory.sol\":1518:1584  ownerZombicCount[msg.sender] = ownerZombicCount[msg.sender].add(1) */\n      dup2\n      swap1\n      sstore\n      pop\n        /* \"contracts/ZombicFactory.sol\":1608:1626  zombicCount.add(1) */\n      tag_189\n        /* \"contracts/ZombicFactory.sol\":1624:1625  1 */\n      0x01\n        /* \"contracts/ZombicFactory.sol\":1608:1619  zombicCount */\n      sload(0x05)\n        /* \"contracts/ZombicFactory.sol\":1608:1623  zombicCount.add */\n      tag_188\n      swap1\n        /* \"contracts/ZombicFactory.sol\":1608:1626  zombicCount.add(1) */\n      swap2\n      swap1\n      0xffffffff\n      and\n      jump\t// in\n    tag_189:\n        /* \"contracts/ZombicFactory.sol\":1594:1605  zombicCount */\n      0x05\n        /* \"contracts/ZombicFactory.sol\":1594:1626  zombicCount = zombicCount.add(1) */\n      dup2\n      swap1\n      sstore\n      pop\n        /* \"contracts/ZombicFactory.sol\":1641:1667  NewZombic(id, _name, _dna) */\n      0xffb2fb18e6d3ec7ef368d2f329ef22f9431aaebe0fcbc9282d7770949ac8cd31\n        /* \"contracts/ZombicFactory.sol\":1651:1653  id */\n      dup2\n        /* \"contracts/ZombicFactory.sol\":1655:1660  _name */\n      dup5\n        /* \"contracts/ZombicFactory.sol\":1662:1666  _dna */\n      dup5\n        /* \"contracts/ZombicFactory.sol\":1641:1667  NewZombic(id, _name, _dna) */\n      mload(0x40)\n      tag_190\n      swap4\n      swap3\n      swap2\n      swap1\n      tag_191\n      jump\t// in\n    tag_190:\n      mload(0x40)\n      dup1\n      swap2\n      sub\n      swap1\n      log1\n        /* \"contracts/ZombicFactory.sol\":1375:1674  {... */\n      pop\n        /* \"contracts/ZombicFactory.sol\":1309:1674  function _createZombic(string memory _name, uint16 _dna) internal {... */\n      pop\n      pop\n      jump\t// out\n        /* \"contracts/SafeMath.sol\":1047:1176  function add(uint256 a, uint256 b) internal pure returns (uint256) {... */\n    tag_188:\n        /* \"contracts/SafeMath.sol\":1105:1112  uint256 */\n      0x00\n        /* \"contracts/SafeMath.sol\":1120:1129  uint256 c */\n      dup1\n        /* \"contracts/SafeMath.sol\":1136:1137  b */\n      dup3\n        /* \"contracts/SafeMath.sol\":1132:1133  a */\n      dup5\n        /* \"contracts/SafeMath.sol\":1132:1137  a + b */\n      tag_193\n      swap2\n      swap1\n      tag_194\n      jump\t// in\n    tag_193:\n        /* \"contracts/SafeMath.sol\":1120:1137  uint256 c = a + b */\n      swap1\n      pop\n        /* \"contracts/SafeMath.sol\":1155:1156  a */\n      dup4\n        /* \"contracts/SafeMath.sol\":1150:1151  c */\n      dup2\n        /* \"contracts/SafeMath.sol\":1150:1156  c >= a */\n      lt\n      iszero\n        /* \"contracts/SafeMath.sol\":1143:1157  assert(c >= a) */\n      tag_195\n      jumpi\n      tag_196\n      tag_197\n      jump\t// in\n    tag_196:\n    tag_195:\n        /* \"contracts/SafeMath.sol\":1170:1171  c */\n      dup1\n        /* \"contracts/SafeMath.sol\":1163:1171  return c */\n      swap2\n      pop\n      pop\n        /* \"contracts/SafeMath.sol\":1047:1176  function add(uint256 a, uint256 b) internal pure returns (uint256) {... */\n      swap3\n      swap2\n      pop\n      pop\n      jump\t// out\n        /* \"#utility.yul\":7:84   */\n    tag_198:\n        /* \"#utility.yul\":44:51   */\n      0x00\n        /* \"#utility.yul\":73:78   */\n      dup2\n        /* \"#utility.yul\":62:78   */\n      swap1\n      pop\n        /* \"#utility.yul\":7:84   */\n      swap2\n      swap1\n      pop\n      jump\t// out\n        /* \"#utility.yul\":90:208   */\n    tag_199:\n        /* \"#utility.yul\":177:201   */\n      tag_276\n        /* \"#utility.yul\":195:200   */\n      dup2\n        /* \"#utility.yul\":177:201   */\n      tag_198\n      jump\t// in\n    tag_276:\n        /* \"#utility.yul\":172:175   */\n      dup3\n        /* \"#utility.yul\":165:202   */\n      mstore\n        /* \"#utility.yul\":90:208   */\n      pop\n      pop\n      jump\t// out\n        /* \"#utility.yul\":214:436   */\n    tag_24:\n        /* \"#utility.yul\":307:311   */\n      0x00\n        /* \"#utility.yul\":345:347   */\n      0x20\n        /* \"#utility.yul\":334:343   */\n      dup3\n        /* \"#utility.yul\":330:348   */\n      add\n        /* \"#utility.yul\":322:348   */\n      swap1\n      pop\n        /* \"#utility.yul\":358:429   */\n      tag_278\n        /* \"#utility.yul\":426:427   */\n      0x00\n        /* \"#utility.yul\":415:424   */\n      dup4\n        /* \"#utility.yul\":411:428   */\n      add\n        /* \"#utility.yul\":402:408   */\n      dup5\n        /* \"#utility.yul\":358:429   */\n      tag_199\n      jump\t// in\n    tag_278:\n        /* \"#utility.yul\":214:436   */\n      swap3\n      swap2\n      pop\n      pop\n      jump\t// out\n        /* \"#utility.yul\":442:532   */\n    tag_200:\n        /* \"#utility.yul\":476:483   */\n      0x00\n        /* \"#utility.yul\":519:524   */\n      dup2\n        /* \"#utility.yul\":512:525   */\n      iszero\n        /* \"#utility.yul\":505:526   */\n      iszero\n        /* \"#utility.yul\":494:526   */\n      swap1\n      pop\n        /* \"#utility.yul\":442:532   */\n      swap2\n      swap1\n      pop\n      jump\t// out\n        /* \"#utility.yul\":538:647   */\n    tag_201:\n        /* \"#utility.yul\":619:640   */\n      tag_281\n        /* \"#utility.yul\":634:639   */\n      dup2\n        /* \"#utility.yul\":619:640   */\n      tag_200\n      jump\t// in\n    tag_281:\n        /* \"#utility.yul\":614:617   */\n      dup3\n        /* \"#utility.yul\":607:641   */\n      mstore\n        /* \"#utility.yul\":538:647   */\n      pop\n      pop\n      jump\t// out\n        /* \"#utility.yul\":653:863   */\n    tag_29:\n        /* \"#utility.yul\":740:744   */\n      0x00\n        /* \"#utility.yul\":778:780   */\n      0x20\n        /* \"#utility.yul\":767:776   */\n      dup3\n        /* \"#utility.yul\":763:781   */\n      add\n        /* \"#utility.yul\":755:781   */\n      swap1\n      pop\n        /* \"#utility.yul\":791:856   */\n      tag_283\n        /* \"#utility.yul\":853:854   */\n      0x00\n        /* \"#utility.yul\":842:851   */\n      dup4\n        /* \"#utility.yul\":838:855   */\n      add\n        /* \"#utility.yul\":829:835   */\n      dup5\n        /* \"#utility.yul\":791:856   */\n      tag_201\n      jump\t// in\n    tag_283:\n        /* \"#utility.yul\":653:863   */\n      swap3\n      swap2\n      pop\n      pop\n      jump\t// out\n        /* \"#utility.yul\":869:944   */\n    tag_202:\n        /* \"#utility.yul\":902:908   */\n      0x00\n        /* \"#utility.yul\":935:937   */\n      0x40\n        /* \"#utility.yul\":929:938   */\n      mload\n        /* \"#utility.yul\":919:938   */\n      swap1\n      pop\n        /* \"#utility.yul\":869:944   */\n      swap1\n      jump\t// out\n        /* \"#utility.yul\":950:1067   */\n    tag_203:\n        /* \"#utility.yul\":1059:1060   */\n      0x00\n        /* \"#utility.yul\":1056:1057   */\n      dup1\n        /* \"#utility.yul\":1049:1061   */\n      revert\n        /* \"#utility.yul\":1073:1190   */\n    tag_204:\n        /* \"#utility.yul\":1182:1183   */\n      0x00\n        /* \"#utility.yul\":1179:1180   */\n      dup1\n        /* \"#utility.yul\":1172:1184   */\n      revert\n        /* \"#utility.yul\":1196:1318   */\n    tag_205:\n        /* \"#utility.yul\":1269:1293   */\n      tag_288\n        /* \"#utility.yul\":1287:1292   */\n      dup2\n        /* \"#utility.yul\":1269:1293   */\n      tag_198\n      jump\t// in\n    tag_288:\n        /* \"#utility.yul\":1262:1267   */\n      dup2\n        /* \"#utility.yul\":1259:1294   */\n      eq\n        /* \"#utility.yul\":1249:1312   */\n      tag_289\n      jumpi\n        /* \"#utility.yul\":1308:1309   */\n      0x00\n        /* \"#utility.yul\":1305:1306   */\n      dup1\n        /* \"#utility.yul\":1298:1310   */\n      revert\n        /* \"#utility.yul\":1249:1312   */\n    tag_289:\n        /* \"#utility.yul\":1196:1318   */\n      pop\n      jump\t// out\n        /* \"#utility.yul\":1324:1463   */\n    tag_206:\n        /* \"#utility.yul\":1370:1375   */\n      0x00\n        /* \"#utility.yul\":1408:1414   */\n      dup2\n        /* \"#utility.yul\":1395:1415   */\n      calldataload\n        /* \"#utility.yul\":1386:1415   */\n      swap1\n      pop\n        /* \"#utility.yul\":1424:1457   */\n      tag_291\n        /* \"#utility.yul\":1451:1456   */\n      dup2\n        /* \"#utility.yul\":1424:1457   */\n      tag_205\n      jump\t// in\n    tag_291:\n        /* \"#utility.yul\":1324:1463   */\n      swap3\n      swap2\n      pop\n      pop\n      jump\t// out\n        /* \"#utility.yul\":1469:1798   */\n    tag_32:\n        /* \"#utility.yul\":1528:1534   */\n      0x00\n        /* \"#utility.yul\":1577:1579   */\n      0x20\n        /* \"#utility.yul\":1565:1574   */\n      dup3\n        /* \"#utility.yul\":1556:1563   */\n      dup5\n        /* \"#utility.yul\":1552:1575   */\n      sub\n        /* \"#utility.yul\":1548:1580   */\n      slt\n        /* \"#utility.yul\":1545:1664   */\n      iszero\n      tag_293\n      jumpi\n        /* \"#utility.yul\":1583:1662   */\n      tag_294\n      tag_203\n      jump\t// in\n    tag_294:\n        /* \"#utility.yul\":1545:1664   */\n    tag_293:\n        /* \"#utility.yul\":1703:1704   */\n      0x00\n        /* \"#utility.yul\":1728:1781   */\n      tag_295\n        /* \"#utility.yul\":1773:1780   */\n      dup5\n        /* \"#utility.yul\":1764:1770   */\n      dup3\n        /* \"#utility.yul\":1753:1762   */\n      dup6\n        /* \"#utility.yul\":1749:1771   */\n      add\n        /* \"#utility.yul\":1728:1781   */\n      tag_206\n      jump\t// in\n    tag_295:\n        /* \"#utility.yul\":1718:1781   */\n      swap2\n      pop\n        /* \"#utility.yul\":1674:1791   */\n      pop\n        /* \"#utility.yul\":1469:1798   */\n      swap3\n      swap2\n      pop\n      pop\n      jump\t// out\n        /* \"#utility.yul\":1804:1921   */\n    tag_207:\n        /* \"#utility.yul\":1913:1914   */\n      0x00\n        /* \"#utility.yul\":1910:1911   */\n      dup1\n        /* \"#utility.yul\":1903:1915   */\n      revert\n        /* \"#utility.yul\":1927:2044   */\n    tag_208:\n        /* \"#utility.yul\":2036:2037   */\n      0x00\n        /* \"#utility.yul\":2033:2034   */\n      dup1\n        /* \"#utility.yul\":2026:2038   */\n      revert\n        /* \"#utility.yul\":2050:2167   */\n    tag_209:\n        /* \"#utility.yul\":2159:2160   */\n      0x00\n        /* \"#utility.yul\":2156:2157   */\n      dup1\n        /* \"#utility.yul\":2149:2161   */\n      revert\n        /* \"#utility.yul\":2187:2740   */\n    tag_210:\n        /* \"#utility.yul\":2245:2253   */\n      0x00\n        /* \"#utility.yul\":2255:2261   */\n      dup1\n        /* \"#utility.yul\":2305:2308   */\n      dup4\n        /* \"#utility.yul\":2298:2302   */\n      0x1f\n        /* \"#utility.yul\":2290:2296   */\n      dup5\n        /* \"#utility.yul\":2286:2303   */\n      add\n        /* \"#utility.yul\":2282:2309   */\n      slt\n        /* \"#utility.yul\":2272:2394   */\n      tag_300\n      jumpi\n        /* \"#utility.yul\":2313:2392   */\n      tag_301\n      tag_207\n      jump\t// in\n    tag_301:\n        /* \"#utility.yul\":2272:2394   */\n    tag_300:\n        /* \"#utility.yul\":2426:2432   */\n      dup3\n        /* \"#utility.yul\":2413:2433   */\n      calldataload\n        /* \"#utility.yul\":2403:2433   */\n      swap1\n      pop\n        /* \"#utility.yul\":2456:2474   */\n      0xffffffffffffffff\n        /* \"#utility.yul\":2448:2454   */\n      dup2\n        /* \"#utility.yul\":2445:2475   */\n      gt\n        /* \"#utility.yul\":2442:2559   */\n      iszero\n      tag_302\n      jumpi\n        /* \"#utility.yul\":2478:2557   */\n      tag_303\n      tag_208\n      jump\t// in\n    tag_303:\n        /* \"#utility.yul\":2442:2559   */\n    tag_302:\n        /* \"#utility.yul\":2592:2596   */\n      0x20\n        /* \"#utility.yul\":2584:2590   */\n      dup4\n        /* \"#utility.yul\":2580:2597   */\n      add\n        /* \"#utility.yul\":2568:2597   */\n      swap2\n      pop\n        /* \"#utility.yul\":2646:2649   */\n      dup4\n        /* \"#utility.yul\":2638:2642   */\n      0x01\n        /* \"#utility.yul\":2630:2636   */\n      dup3\n        /* \"#utility.yul\":2626:2643   */\n      mul\n        /* \"#utility.yul\":2616:2624   */\n      dup4\n        /* \"#utility.yul\":2612:2644   */\n      add\n        /* \"#utility.yul\":2609:2650   */\n      gt\n        /* \"#utility.yul\":2606:2734   */\n      iszero\n      tag_304\n      jumpi\n        /* \"#utility.yul\":2653:2732   */\n      tag_305\n      tag_209\n      jump\t// in\n    tag_305:\n        /* \"#utility.yul\":2606:2734   */\n    tag_304:\n        /* \"#utility.yul\":2187:2740   */\n      swap3\n      pop\n      swap3\n      swap1\n      pop\n      jump\t// out\n        /* \"#utility.yul\":2746:3420   */\n    tag_37:\n        /* \"#utility.yul\":2826:2832   */\n      0x00\n        /* \"#utility.yul\":2834:2840   */\n      dup1\n        /* \"#utility.yul\":2842:2848   */\n      0x00\n        /* \"#utility.yul\":2891:2893   */\n      0x40\n        /* \"#utility.yul\":2879:2888   */\n      dup5\n        /* \"#utility.yul\":2870:2877   */\n      dup7\n        /* \"#utility.yul\":2866:2889   */\n      sub\n        /* \"#utility.yul\":2862:2894   */\n      slt\n        /* \"#utility.yul\":2859:2978   */\n      iszero\n      tag_307\n      jumpi\n        /* \"#utility.yul\":2897:2976   */\n      tag_308\n      tag_203\n      jump\t// in\n    tag_308:\n        /* \"#utility.yul\":2859:2978   */\n    tag_307:\n        /* \"#utility.yul\":3045:3046   */\n      0x00\n        /* \"#utility.yul\":3034:3043   */\n      dup5\n        /* \"#utility.yul\":3030:3047   */\n      add\n        /* \"#utility.yul\":3017:3048   */\n      calldataload\n        /* \"#utility.yul\":3075:3093   */\n      0xffffffffffffffff\n        /* \"#utility.yul\":3067:3073   */\n      dup2\n        /* \"#utility.yul\":3064:3094   */\n      gt\n        /* \"#utility.yul\":3061:3178   */\n      iszero\n      tag_309\n      jumpi\n        /* \"#utility.yul\":3097:3176   */\n      tag_310\n      tag_204\n      jump\t// in\n    tag_310:\n        /* \"#utility.yul\":3061:3178   */\n    tag_309:\n        /* \"#utility.yul\":3210:3275   */\n      tag_311\n        /* \"#utility.yul\":3267:3274   */\n      dup7\n        /* \"#utility.yul\":3258:3264   */\n      dup3\n        /* \"#utility.yul\":3247:3256   */\n      dup8\n        /* \"#utility.yul\":3243:3265   */\n      add\n        /* \"#utility.yul\":3210:3275   */\n      tag_210\n      jump\t// in\n    tag_311:\n        /* \"#utility.yul\":3192:3275   */\n      swap4\n      pop\n      swap4\n      pop\n        /* \"#utility.yul\":2988:3285   */\n      pop\n        /* \"#utility.yul\":3324:3326   */\n      0x20\n        /* \"#utility.yul\":3350:3403   */\n      tag_312\n        /* \"#utility.yul\":3395:3402   */\n      dup7\n        /* \"#utility.yul\":3386:3392   */\n      dup3\n        /* \"#utility.yul\":3375:3384   */\n      dup8\n        /* \"#utility.yul\":3371:3393   */\n      add\n        /* \"#utility.yul\":3350:3403   */\n      tag_206\n      jump\t// in\n    tag_312:\n        /* \"#utility.yul\":3340:3403   */\n      swap2\n      pop\n        /* \"#utility.yul\":3295:3413   */\n      pop\n        /* \"#utility.yul\":2746:3420   */\n      swap3\n      pop\n      swap3\n      pop\n      swap3\n      jump\t// out\n        /* \"#utility.yul\":3426:3552   */\n    tag_211:\n        /* \"#utility.yul\":3463:3470   */\n      0x00\n        /* \"#utility.yul\":3503:3545   */\n      0xffffffffffffffffffffffffffffffffffffffff\n        /* \"#utility.yul\":3496:3501   */\n      dup3\n        /* \"#utility.yul\":3492:3546   */\n      and\n        /* \"#utility.yul\":3481:3546   */\n      swap1\n      pop\n        /* \"#utility.yul\":3426:3552   */\n      swap2\n      swap1\n      pop\n      jump\t// out\n        /* \"#utility.yul\":3558:3654   */\n    tag_212:\n        /* \"#utility.yul\":3595:3602   */\n      0x00\n        /* \"#utility.yul\":3624:3648   */\n      tag_315\n        /* \"#utility.yul\":3642:3647   */\n      dup3\n        /* \"#utility.yul\":3624:3648   */\n      tag_211\n      jump\t// in\n    tag_315:\n        /* \"#utility.yul\":3613:3648   */\n      swap1\n      pop\n        /* \"#utility.yul\":3558:3654   */\n      swap2\n      swap1\n      pop\n      jump\t// out\n        /* \"#utility.yul\":3660:3782   */\n    tag_213:\n        /* \"#utility.yul\":3733:3757   */\n      tag_317\n        /* \"#utility.yul\":3751:3756   */\n      dup2\n        /* \"#utility.yul\":3733:3757   */\n      tag_212\n      jump\t// in\n    tag_317:\n        /* \"#utility.yul\":3726:3731   */\n      dup2\n        /* \"#utility.yul\":3723:3758   */\n      eq\n        /* \"#utility.yul\":3713:3776   */\n      tag_318\n      jumpi\n        /* \"#utility.yul\":3772:3773   */\n      0x00\n        /* \"#utility.yul\":3769:3770   */\n      dup1\n        /* \"#utility.yul\":3762:3774   */\n      revert\n        /* \"#utility.yul\":3713:3776   */\n    tag_318:\n        /* \"#utility.yul\":3660:3782   */\n      pop\n      jump\t// out\n        /* \"#utility.yul\":3788:3927   */\n    tag_214:\n        /* \"#utility.yul\":3834:3839   */\n      0x00\n        /* \"#utility.yul\":3872:3878   */\n      dup2\n        /* \"#utility.yul\":3859:3879   */\n      calldataload\n        /* \"#utility.yul\":3850:3879   */\n      swap1\n      pop\n        /* \"#utility.yul\":3888:3921   */\n      tag_320\n        /* \"#utility.yul\":3915:3920   */\n      dup2\n        /* \"#utility.yul\":3888:3921   */\n      tag_213\n      jump\t// in\n    tag_320:\n        /* \"#utility.yul\":3788:3927   */\n      swap3\n      swap2\n      pop\n      pop\n      jump\t// out\n        /* \"#utility.yul\":3933:4262   */\n    tag_50:\n        /* \"#utility.yul\":3992:3998   */\n      0x00\n        /* \"#utility.yul\":4041:4043   */\n      0x20\n        /* \"#utility.yul\":4029:4038   */\n      dup3\n        /* \"#utility.yul\":4020:4027   */\n      dup5\n        /* \"#utility.yul\":4016:4039   */\n      sub\n        /* \"#utility.yul\":4012:4044   */\n      slt\n        /* \"#utility.yul\":4009:4128   */\n      iszero\n      tag_322\n      jumpi\n        /* \"#utility.yul\":4047:4126   */\n      tag_323\n      tag_203\n      jump\t// in\n    tag_323:\n        /* \"#utility.yul\":4009:4128   */\n    tag_322:\n        /* \"#utility.yul\":4167:4168   */\n      0x00\n        /* \"#utility.yul\":4192:4245   */\n      tag_324\n        /* \"#utility.yul\":4237:4244   */\n      dup5\n        /* \"#utility.yul\":4228:4234   */\n      dup3\n        /* \"#utility.yul\":4217:4226   */\n      dup6\n        /* \"#utility.yul\":4213:4235   */\n      add\n        /* \"#utility.yul\":4192:4245   */\n      tag_214\n      jump\t// in\n    tag_324:\n        /* \"#utility.yul\":4182:4245   */\n      swap2\n      pop\n        /* \"#utility.yul\":4138:4255   */\n      pop\n        /* \"#utility.yul\":3933:4262   */\n      swap3\n      swap2\n      pop\n      pop\n      jump\t// out\n        /* \"#utility.yul\":4268:4382   */\n    tag_215:\n        /* \"#utility.yul\":4335:4341   */\n      0x00\n        /* \"#utility.yul\":4369:4374   */\n      dup2\n        /* \"#utility.yul\":4363:4375   */\n      mload\n        /* \"#utility.yul\":4353:4375   */\n      swap1\n      pop\n        /* \"#utility.yul\":4268:4382   */\n      swap2\n      swap1\n      pop\n      jump\t// out\n        /* \"#utility.yul\":4388:4572   */\n    tag_216:\n        /* \"#utility.yul\":4487:4498   */\n      0x00\n        /* \"#utility.yul\":4521:4527   */\n      dup3\n        /* \"#utility.yul\":4516:4519   */\n      dup3\n        /* \"#utility.yul\":4509:4528   */\n      mstore\n        /* \"#utility.yul\":4561:4565   */\n      0x20\n        /* \"#utility.yul\":4556:4559   */\n      dup3\n        /* \"#utility.yul\":4552:4566   */\n      add\n        /* \"#utility.yul\":4537:4566   */\n      swap1\n      pop\n        /* \"#utility.yul\":4388:4572   */\n      swap3\n      swap2\n      pop\n      pop\n      jump\t// out\n        /* \"#utility.yul\":4578:4710   */\n    tag_217:\n        /* \"#utility.yul\":4645:4649   */\n      0x00\n        /* \"#utility.yul\":4668:4671   */\n      dup2\n        /* \"#utility.yul\":4660:4671   */\n      swap1\n      pop\n        /* \"#utility.yul\":4698:4702   */\n      0x20\n        /* \"#utility.yul\":4693:4696   */\n      dup3\n        /* \"#utility.yul\":4689:4703   */\n      add\n        /* \"#utility.yul\":4681:4703   */\n      swap1\n      pop\n        /* \"#utility.yul\":4578:4710   */\n      swap2\n      swap1\n      pop\n      jump\t// out\n        /* \"#utility.yul\":4716:4824   */\n    tag_218:\n        /* \"#utility.yul\":4793:4817   */\n      tag_329\n        /* \"#utility.yul\":4811:4816   */\n      dup2\n        /* \"#utility.yul\":4793:4817   */\n      tag_198\n      jump\t// in\n    tag_329:\n        /* \"#utility.yul\":4788:4791   */\n      dup3\n        /* \"#utility.yul\":4781:4818   */\n      mstore\n        /* \"#utility.yul\":4716:4824   */\n      pop\n      pop\n      jump\t// out\n        /* \"#utility.yul\":4830:5009   */\n    tag_219:\n        /* \"#utility.yul\":4899:4909   */\n      0x00\n        /* \"#utility.yul\":4920:4966   */\n      tag_331\n        /* \"#utility.yul\":4962:4965   */\n      dup4\n        /* \"#utility.yul\":4954:4960   */\n      dup4\n        /* \"#utility.yul\":4920:4966   */\n      tag_218\n      jump\t// in\n    tag_331:\n        /* \"#utility.yul\":4998:5002   */\n      0x20\n        /* \"#utility.yul\":4993:4996   */\n      dup4\n        /* \"#utility.yul\":4989:5003   */\n      add\n        /* \"#utility.yul\":4975:5003   */\n      swap1\n      pop\n        /* \"#utility.yul\":4830:5009   */\n      swap3\n      swap2\n      pop\n      pop\n      jump\t// out\n        /* \"#utility.yul\":5015:5128   */\n    tag_220:\n        /* \"#utility.yul\":5085:5089   */\n      0x00\n        /* \"#utility.yul\":5117:5121   */\n      0x20\n        /* \"#utility.yul\":5112:5115   */\n      dup3\n        /* \"#utility.yul\":5108:5122   */\n      add\n        /* \"#utility.yul\":5100:5122   */\n      swap1\n      pop\n        /* \"#utility.yul\":5015:5128   */\n      swap2\n      swap1\n      pop\n      jump\t// out\n        /* \"#utility.yul\":5164:5896   */\n    tag_221:\n        /* \"#utility.yul\":5283:5286   */\n      0x00\n        /* \"#utility.yul\":5312:5366   */\n      tag_334\n        /* \"#utility.yul\":5360:5365   */\n      dup3\n        /* \"#utility.yul\":5312:5366   */\n      tag_215\n      jump\t// in\n    tag_334:\n        /* \"#utility.yul\":5382:5468   */\n      tag_335\n        /* \"#utility.yul\":5461:5467   */\n      dup2\n        /* \"#utility.yul\":5456:5459   */\n      dup6\n        /* \"#utility.yul\":5382:5468   */\n      tag_216\n      jump\t// in\n    tag_335:\n        /* \"#utility.yul\":5375:5468   */\n      swap4\n      pop\n        /* \"#utility.yul\":5492:5548   */\n      tag_336\n        /* \"#utility.yul\":5542:5547   */\n      dup4\n        /* \"#utility.yul\":5492:5548   */\n      tag_217\n      jump\t// in\n    tag_336:\n        /* \"#utility.yul\":5571:5578   */\n      dup1\n        /* \"#utility.yul\":5602:5603   */\n      0x00\n        /* \"#utility.yul\":5587:5871   */\n    tag_337:\n        /* \"#utility.yul\":5612:5618   */\n      dup4\n        /* \"#utility.yul\":5609:5610   */\n      dup2\n        /* \"#utility.yul\":5606:5619   */\n      lt\n        /* \"#utility.yul\":5587:5871   */\n      iszero\n      tag_339\n      jumpi\n        /* \"#utility.yul\":5688:5694   */\n      dup2\n        /* \"#utility.yul\":5682:5695   */\n      mload\n        /* \"#utility.yul\":5715:5778   */\n      tag_340\n        /* \"#utility.yul\":5774:5777   */\n      dup9\n        /* \"#utility.yul\":5759:5772   */\n      dup3\n        /* \"#utility.yul\":5715:5778   */\n      tag_219\n      jump\t// in\n    tag_340:\n        /* \"#utility.yul\":5708:5778   */\n      swap8\n      pop\n        /* \"#utility.yul\":5801:5861   */\n      tag_341\n        /* \"#utility.yul\":5854:5860   */\n      dup4\n        /* \"#utility.yul\":5801:5861   */\n      tag_220\n      jump\t// in\n    tag_341:\n        /* \"#utility.yul\":5791:5861   */\n      swap3\n      pop\n        /* \"#utility.yul\":5647:5871   */\n      pop\n        /* \"#utility.yul\":5634:5635   */\n      0x01\n        /* \"#utility.yul\":5631:5632   */\n      dup2\n        /* \"#utility.yul\":5627:5636   */\n      add\n        /* \"#utility.yul\":5622:5636   */\n      swap1\n      pop\n        /* \"#utility.yul\":5587:5871   */\n      jump(tag_337)\n    tag_339:\n        /* \"#utility.yul\":5591:5605   */\n      pop\n        /* \"#utility.yul\":5887:5890   */\n      dup6\n        /* \"#utility.yul\":5880:5890   */\n      swap4\n      pop\n        /* \"#utility.yul\":5288:5896   */\n      pop\n      pop\n      pop\n        /* \"#utility.yul\":5164:5896   */\n      swap3\n      swap2\n      pop\n      pop\n      jump\t// out\n        /* \"#utility.yul\":5902:6275   */\n    tag_53:\n        /* \"#utility.yul\":6045:6049   */\n      0x00\n        /* \"#utility.yul\":6083:6085   */\n      0x20\n        /* \"#utility.yul\":6072:6081   */\n      dup3\n        /* \"#utility.yul\":6068:6086   */\n      add\n        /* \"#utility.yul\":6060:6086   */\n      swap1\n      pop\n        /* \"#utility.yul\":6132:6141   */\n      dup2\n        /* \"#utility.yul\":6126:6130   */\n      dup2\n        /* \"#utility.yul\":6122:6142   */\n      sub\n        /* \"#utility.yul\":6118:6119   */\n      0x00\n        /* \"#utility.yul\":6107:6116   */\n      dup4\n        /* \"#utility.yul\":6103:6120   */\n      add\n        /* \"#utility.yul\":6096:6143   */\n      mstore\n        /* \"#utility.yul\":6160:6268   */\n      tag_343\n        /* \"#utility.yul\":6263:6267   */\n      dup2\n        /* \"#utility.yul\":6254:6260   */\n      dup5\n        /* \"#utility.yul\":6160:6268   */\n      tag_221\n      jump\t// in\n    tag_343:\n        /* \"#utility.yul\":6152:6268   */\n      swap1\n      pop\n        /* \"#utility.yul\":5902:6275   */\n      swap3\n      swap2\n      pop\n      pop\n      jump\t// out\n        /* \"#utility.yul\":6281:6380   */\n    tag_222:\n        /* \"#utility.yul\":6333:6339   */\n      0x00\n        /* \"#utility.yul\":6367:6372   */\n      dup2\n        /* \"#utility.yul\":6361:6373   */\n      mload\n        /* \"#utility.yul\":6351:6373   */\n      swap1\n      pop\n        /* \"#utility.yul\":6281:6380   */\n      swap2\n      swap1\n      pop\n      jump\t// out\n        /* \"#utility.yul\":6386:6555   */\n    tag_223:\n        /* \"#utility.yul\":6470:6481   */\n      0x00\n        /* \"#utility.yul\":6504:6510   */\n      dup3\n        /* \"#utility.yul\":6499:6502   */\n      dup3\n        /* \"#utility.yul\":6492:6511   */\n      mstore\n        /* \"#utility.yul\":6544:6548   */\n      0x20\n        /* \"#utility.yul\":6539:6542   */\n      dup3\n        /* \"#utility.yul\":6535:6549   */\n      add\n        /* \"#utility.yul\":6520:6549   */\n      swap1\n      pop\n        /* \"#utility.yul\":6386:6555   */\n      swap3\n      swap2\n      pop\n      pop\n      jump\t// out\n        /* \"#utility.yul\":6561:6807   */\n    tag_224:\n        /* \"#utility.yul\":6642:6643   */\n      0x00\n        /* \"#utility.yul\":6652:6765   */\n    tag_347:\n        /* \"#utility.yul\":6666:6672   */\n      dup4\n        /* \"#utility.yul\":6663:6664   */\n      dup2\n        /* \"#utility.yul\":6660:6673   */\n      lt\n        /* \"#utility.yul\":6652:6765   */\n      iszero\n      tag_349\n      jumpi\n        /* \"#utility.yul\":6751:6752   */\n      dup1\n        /* \"#utility.yul\":6746:6749   */\n      dup3\n        /* \"#utility.yul\":6742:6753   */\n      add\n        /* \"#utility.yul\":6736:6754   */\n      mload\n        /* \"#utility.yul\":6732:6733   */\n      dup2\n        /* \"#utility.yul\":6727:6730   */\n      dup5\n        /* \"#utility.yul\":6723:6734   */\n      add\n        /* \"#utility.yul\":6716:6755   */\n      mstore\n        /* \"#utility.yul\":6688:6690   */\n      0x20\n        /* \"#utility.yul\":6685:6686   */\n      dup2\n        /* \"#utility.yul\":6681:6691   */\n      add\n        /* \"#utility.yul\":6676:6691   */\n      swap1\n      pop\n        /* \"#utility.yul\":6652:6765   */\n      jump(tag_347)\n    tag_349:\n        /* \"#utility.yul\":6799:6800   */\n      0x00\n        /* \"#utility.yul\":6790:6796   */\n      dup5\n        /* \"#utility.yul\":6785:6788   */\n      dup5\n        /* \"#utility.yul\":6781:6797   */\n      add\n        /* \"#utility.yul\":6774:6801   */\n      mstore\n        /* \"#utility.yul\":6623:6807   */\n      pop\n        /* \"#utility.yul\":6561:6807   */\n      pop\n      pop\n      pop\n      jump\t// out\n        /* \"#utility.yul\":6813:6915   */\n    tag_225:\n        /* \"#utility.yul\":6854:6860   */\n      0x00\n        /* \"#utility.yul\":6905:6907   */\n      0x1f\n        /* \"#utility.yul\":6901:6908   */\n      not\n        /* \"#utility.yul\":6896:6898   */\n      0x1f\n        /* \"#utility.yul\":6889:6894   */\n      dup4\n        /* \"#utility.yul\":6885:6899   */\n      add\n        /* \"#utility.yul\":6881:6909   */\n      and\n        /* \"#utility.yul\":6871:6909   */\n      swap1\n      pop\n        /* \"#utility.yul\":6813:6915   */\n      swap2\n      swap1\n      pop\n      jump\t// out\n        /* \"#utility.yul\":6921:7298   */\n    tag_226:\n        /* \"#utility.yul\":7009:7012   */\n      0x00\n        /* \"#utility.yul\":7037:7076   */\n      tag_352\n        /* \"#utility.yul\":7070:7075   */\n      dup3\n        /* \"#utility.yul\":7037:7076   */\n      tag_222\n      jump\t// in\n    tag_352:\n        /* \"#utility.yul\":7092:7163   */\n      tag_353\n        /* \"#utility.yul\":7156:7162   */\n      dup2\n        /* \"#utility.yul\":7151:7154   */\n      dup6\n        /* \"#utility.yul\":7092:7163   */\n      tag_223\n      jump\t// in\n    tag_353:\n        /* \"#utility.yul\":7085:7163   */\n      swap4\n      pop\n        /* \"#utility.yul\":7172:7237   */\n      tag_354\n        /* \"#utility.yul\":7230:7236   */\n      dup2\n        /* \"#utility.yul\":7225:7228   */\n      dup6\n        /* \"#utility.yul\":7218:7222   */\n      0x20\n        /* \"#utility.yul\":7211:7216   */\n      dup7\n        /* \"#utility.yul\":7207:7223   */\n      add\n        /* \"#utility.yul\":7172:7237   */\n      tag_224\n      jump\t// in\n    tag_354:\n        /* \"#utility.yul\":7262:7291   */\n      tag_355\n        /* \"#utility.yul\":7284:7290   */\n      dup2\n        /* \"#utility.yul\":7262:7291   */\n      tag_225\n      jump\t// in\n    tag_355:\n        /* \"#utility.yul\":7257:7260   */\n      dup5\n        /* \"#utility.yul\":7253:7292   */\n      add\n        /* \"#utility.yul\":7246:7292   */\n      swap2\n      pop\n        /* \"#utility.yul\":7013:7298   */\n      pop\n        /* \"#utility.yul\":6921:7298   */\n      swap3\n      swap2\n      pop\n      pop\n      jump\t// out\n        /* \"#utility.yul\":7304:7393   */\n    tag_227:\n        /* \"#utility.yul\":7340:7347   */\n      0x00\n        /* \"#utility.yul\":7380:7386   */\n      0xffff\n        /* \"#utility.yul\":7373:7378   */\n      dup3\n        /* \"#utility.yul\":7369:7387   */\n      and\n        /* \"#utility.yul\":7358:7387   */\n      swap1\n      pop\n        /* \"#utility.yul\":7304:7393   */\n      swap2\n      swap1\n      pop\n      jump\t// out\n        /* \"#utility.yul\":7399:7514   */\n    tag_228:\n        /* \"#utility.yul\":7484:7507   */\n      tag_358\n        /* \"#utility.yul\":7501:7506   */\n      dup2\n        /* \"#utility.yul\":7484:7507   */\n      tag_227\n      jump\t// in\n    tag_358:\n        /* \"#utility.yul\":7479:7482   */\n      dup3\n        /* \"#utility.yul\":7472:7508   */\n      mstore\n        /* \"#utility.yul\":7399:7514   */\n      pop\n      pop\n      jump\t// out\n        /* \"#utility.yul\":7520:7613   */\n    tag_229:\n        /* \"#utility.yul\":7556:7563   */\n      0x00\n        /* \"#utility.yul\":7596:7606   */\n      0xffffffff\n        /* \"#utility.yul\":7589:7594   */\n      dup3\n        /* \"#utility.yul\":7585:7607   */\n      and\n        /* \"#utility.yul\":7574:7607   */\n      swap1\n      pop\n        /* \"#utility.yul\":7520:7613   */\n      swap2\n      swap1\n      pop\n      jump\t// out\n        /* \"#utility.yul\":7619:7734   */\n    tag_230:\n        /* \"#utility.yul\":7704:7727   */\n      tag_361\n        /* \"#utility.yul\":7721:7726   */\n      dup2\n        /* \"#utility.yul\":7704:7727   */\n      tag_229\n      jump\t// in\n    tag_361:\n        /* \"#utility.yul\":7699:7702   */\n      dup3\n        /* \"#utility.yul\":7692:7728   */\n      mstore\n        /* \"#utility.yul\":7619:7734   */\n      pop\n      pop\n      jump\t// out\n        /* \"#utility.yul\":7740:8586   */\n    tag_59:\n        /* \"#utility.yul\":7983:7987   */\n      0x00\n        /* \"#utility.yul\":8021:8024   */\n      0xc0\n        /* \"#utility.yul\":8010:8019   */\n      dup3\n        /* \"#utility.yul\":8006:8025   */\n      add\n        /* \"#utility.yul\":7998:8025   */\n      swap1\n      pop\n        /* \"#utility.yul\":8071:8080   */\n      dup2\n        /* \"#utility.yul\":8065:8069   */\n      dup2\n        /* \"#utility.yul\":8061:8081   */\n      sub\n        /* \"#utility.yul\":8057:8058   */\n      0x00\n        /* \"#utility.yul\":8046:8055   */\n      dup4\n        /* \"#utility.yul\":8042:8059   */\n      add\n        /* \"#utility.yul\":8035:8082   */\n      mstore\n        /* \"#utility.yul\":8099:8177   */\n      tag_363\n        /* \"#utility.yul\":8172:8176   */\n      dup2\n        /* \"#utility.yul\":8163:8169   */\n      dup10\n        /* \"#utility.yul\":8099:8177   */\n      tag_226\n      jump\t// in\n    tag_363:\n        /* \"#utility.yul\":8091:8177   */\n      swap1\n      pop\n        /* \"#utility.yul\":8187:8257   */\n      tag_364\n        /* \"#utility.yul\":8253:8255   */\n      0x20\n        /* \"#utility.yul\":8242:8251   */\n      dup4\n        /* \"#utility.yul\":8238:8256   */\n      add\n        /* \"#utility.yul\":8229:8235   */\n      dup9\n        /* \"#utility.yul\":8187:8257   */\n      tag_228\n      jump\t// in\n    tag_364:\n        /* \"#utility.yul\":8267:8337   */\n      tag_365\n        /* \"#utility.yul\":8333:8335   */\n      0x40\n        /* \"#utility.yul\":8322:8331   */\n      dup4\n        /* \"#utility.yul\":8318:8336   */\n      add\n        /* \"#utility.yul\":8309:8315   */\n      dup8\n        /* \"#utility.yul\":8267:8337   */\n      tag_228\n      jump\t// in\n    tag_365:\n        /* \"#utility.yul\":8347:8417   */\n      tag_366\n        /* \"#utility.yul\":8413:8415   */\n      0x60\n        /* \"#utility.yul\":8402:8411   */\n      dup4\n        /* \"#utility.yul\":8398:8416   */\n      add\n        /* \"#utility.yul\":8389:8395   */\n      dup7\n        /* \"#utility.yul\":8347:8417   */\n      tag_228\n      jump\t// in\n    tag_366:\n        /* \"#utility.yul\":8427:8498   */\n      tag_367\n        /* \"#utility.yul\":8493:8496   */\n      0x80\n        /* \"#utility.yul\":8482:8491   */\n      dup4\n        /* \"#utility.yul\":8478:8497   */\n      add\n        /* \"#utility.yul\":8469:8475   */\n      dup6\n        /* \"#utility.yul\":8427:8498   */\n      tag_230\n      jump\t// in\n    tag_367:\n        /* \"#utility.yul\":8508:8579   */\n      tag_368\n        /* \"#utility.yul\":8574:8577   */\n      0xa0\n        /* \"#utility.yul\":8563:8572   */\n      dup4\n        /* \"#utility.yul\":8559:8578   */\n      add\n        /* \"#utility.yul\":8550:8556   */\n      dup5\n        /* \"#utility.yul\":8508:8579   */\n      tag_230\n      jump\t// in\n    tag_368:\n        /* \"#utility.yul\":7740:8586   */\n      swap8\n      swap7\n      pop\n      pop\n      pop\n      pop\n      pop\n      pop\n      pop\n      jump\t// out\n        /* \"#utility.yul\":8592:8710   */\n    tag_231:\n        /* \"#utility.yul\":8679:8703   */\n      tag_370\n        /* \"#utility.yul\":8697:8702   */\n      dup2\n        /* \"#utility.yul\":8679:8703   */\n      tag_212\n      jump\t// in\n    tag_370:\n        /* \"#utility.yul\":8674:8677   */\n      dup3\n        /* \"#utility.yul\":8667:8704   */\n      mstore\n        /* \"#utility.yul\":8592:8710   */\n      pop\n      pop\n      jump\t// out\n        /* \"#utility.yul\":8716:8938   */\n    tag_65:\n        /* \"#utility.yul\":8809:8813   */\n      0x00\n        /* \"#utility.yul\":8847:8849   */\n      0x20\n        /* \"#utility.yul\":8836:8845   */\n      dup3\n        /* \"#utility.yul\":8832:8850   */\n      add\n        /* \"#utility.yul\":8824:8850   */\n      swap1\n      pop\n        /* \"#utility.yul\":8860:8931   */\n      tag_372\n        /* \"#utility.yul\":8928:8929   */\n      0x00\n        /* \"#utility.yul\":8917:8926   */\n      dup4\n        /* \"#utility.yul\":8913:8930   */\n      add\n        /* \"#utility.yul\":8904:8910   */\n      dup5\n        /* \"#utility.yul\":8860:8931   */\n      tag_231\n      jump\t// in\n    tag_372:\n        /* \"#utility.yul\":8716:8938   */\n      swap3\n      swap2\n      pop\n      pop\n      jump\t// out\n        /* \"#utility.yul\":8944:9061   */\n    tag_232:\n        /* \"#utility.yul\":9053:9054   */\n      0x00\n        /* \"#utility.yul\":9050:9051   */\n      dup1\n        /* \"#utility.yul\":9043:9055   */\n      revert\n        /* \"#utility.yul\":9067:9247   */\n    tag_125:\n        /* \"#utility.yul\":9115:9192   */\n      0x4e487b7100000000000000000000000000000000000000000000000000000000\n        /* \"#utility.yul\":9112:9113   */\n      0x00\n        /* \"#utility.yul\":9105:9193   */\n      mstore\n        /* \"#utility.yul\":9212:9216   */\n      0x41\n        /* \"#utility.yul\":9209:9210   */\n      0x04\n        /* \"#utility.yul\":9202:9217   */\n      mstore\n        /* \"#utility.yul\":9236:9240   */\n      0x24\n        /* \"#utility.yul\":9233:9234   */\n      0x00\n        /* \"#utility.yul\":9226:9241   */\n      revert\n        /* \"#utility.yul\":9253:9534   */\n    tag_233:\n        /* \"#utility.yul\":9336:9363   */\n      tag_376\n        /* \"#utility.yul\":9358:9362   */\n      dup3\n        /* \"#utility.yul\":9336:9363   */\n      tag_225\n      jump\t// in\n    tag_376:\n        /* \"#utility.yul\":9328:9334   */\n      dup2\n        /* \"#utility.yul\":9324:9364   */\n      add\n        /* \"#utility.yul\":9466:9472   */\n      dup2\n        /* \"#utility.yul\":9454:9464   */\n      dup2\n        /* \"#utility.yul\":9451:9473   */\n      lt\n        /* \"#utility.yul\":9430:9448   */\n      0xffffffffffffffff\n        /* \"#utility.yul\":9418:9428   */\n      dup3\n        /* \"#utility.yul\":9415:9449   */\n      gt\n        /* \"#utility.yul\":9412:9474   */\n      or\n        /* \"#utility.yul\":9409:9497   */\n      iszero\n      tag_377\n      jumpi\n        /* \"#utility.yul\":9477:9495   */\n      tag_378\n      tag_125\n      jump\t// in\n    tag_378:\n        /* \"#utility.yul\":9409:9497   */\n    tag_377:\n        /* \"#utility.yul\":9517:9527   */\n      dup1\n        /* \"#utility.yul\":9513:9515   */\n      0x40\n        /* \"#utility.yul\":9506:9528   */\n      mstore\n        /* \"#utility.yul\":9296:9534   */\n      pop\n        /* \"#utility.yul\":9253:9534   */\n      pop\n      pop\n      jump\t// out\n        /* \"#utility.yul\":9540:9669   */\n    tag_234:\n        /* \"#utility.yul\":9574:9580   */\n      0x00\n        /* \"#utility.yul\":9601:9621   */\n      tag_380\n      tag_202\n      jump\t// in\n    tag_380:\n        /* \"#utility.yul\":9591:9621   */\n      swap1\n      pop\n        /* \"#utility.yul\":9630:9663   */\n      tag_381\n        /* \"#utility.yul\":9658:9662   */\n      dup3\n        /* \"#utility.yul\":9650:9656   */\n      dup3\n        /* \"#utility.yul\":9630:9663   */\n      tag_233\n      jump\t// in\n    tag_381:\n        /* \"#utility.yul\":9540:9669   */\n      swap2\n      swap1\n      pop\n      jump\t// out\n        /* \"#utility.yul\":9675:9983   */\n    tag_235:\n        /* \"#utility.yul\":9737:9741   */\n      0x00\n        /* \"#utility.yul\":9827:9845   */\n      0xffffffffffffffff\n        /* \"#utility.yul\":9819:9825   */\n      dup3\n        /* \"#utility.yul\":9816:9846   */\n      gt\n        /* \"#utility.yul\":9813:9869   */\n      iszero\n      tag_383\n      jumpi\n        /* \"#utility.yul\":9849:9867   */\n      tag_384\n      tag_125\n      jump\t// in\n    tag_384:\n        /* \"#utility.yul\":9813:9869   */\n    tag_383:\n        /* \"#utility.yul\":9887:9916   */\n      tag_385\n        /* \"#utility.yul\":9909:9915   */\n      dup3\n        /* \"#utility.yul\":9887:9916   */\n      tag_225\n      jump\t// in\n    tag_385:\n        /* \"#utility.yul\":9879:9916   */\n      swap1\n      pop\n        /* \"#utility.yul\":9971:9975   */\n      0x20\n        /* \"#utility.yul\":9965:9969   */\n      dup2\n        /* \"#utility.yul\":9961:9976   */\n      add\n        /* \"#utility.yul\":9953:9976   */\n      swap1\n      pop\n        /* \"#utility.yul\":9675:9983   */\n      swap2\n      swap1\n      pop\n      jump\t// out\n        /* \"#utility.yul\":9989:10135   */\n    tag_236:\n        /* \"#utility.yul\":10086:10092   */\n      dup3\n        /* \"#utility.yul\":10081:10084   */\n      dup2\n        /* \"#utility.yul\":10076:10079   */\n      dup4\n        /* \"#utility.yul\":10063:10093   */\n      calldatacopy\n        /* \"#utility.yul\":10127:10128   */\n      0x00\n        /* \"#utility.yul\":10118:10124   */\n      dup4\n        /* \"#utility.yul\":10113:10116   */\n      dup4\n        /* \"#utility.yul\":10109:10125   */\n      add\n        /* \"#utility.yul\":10102:10129   */\n      mstore\n        /* \"#utility.yul\":9989:10135   */\n      pop\n      pop\n      pop\n      jump\t// out\n        /* \"#utility.yul\":10141:10566   */\n    tag_237:\n        /* \"#utility.yul\":10219:10224   */\n      0x00\n        /* \"#utility.yul\":10244:10310   */\n      tag_388\n        /* \"#utility.yul\":10260:10309   */\n      tag_389\n        /* \"#utility.yul\":10302:10308   */\n      dup5\n        /* \"#utility.yul\":10260:10309   */\n      tag_235\n      jump\t// in\n    tag_389:\n        /* \"#utility.yul\":10244:10310   */\n      tag_234\n      jump\t// in\n    tag_388:\n        /* \"#utility.yul\":10235:10310   */\n      swap1\n      pop\n        /* \"#utility.yul\":10333:10339   */\n      dup3\n        /* \"#utility.yul\":10326:10331   */\n      dup2\n        /* \"#utility.yul\":10319:10340   */\n      mstore\n        /* \"#utility.yul\":10371:10375   */\n      0x20\n        /* \"#utility.yul\":10364:10369   */\n      dup2\n        /* \"#utility.yul\":10360:10376   */\n      add\n        /* \"#utility.yul\":10409:10412   */\n      dup5\n        /* \"#utility.yul\":10400:10406   */\n      dup5\n        /* \"#utility.yul\":10395:10398   */\n      dup5\n        /* \"#utility.yul\":10391:10407   */\n      add\n        /* \"#utility.yul\":10388:10413   */\n      gt\n        /* \"#utility.yul\":10385:10497   */\n      iszero\n      tag_390\n      jumpi\n        /* \"#utility.yul\":10416:10495   */\n      tag_391\n      tag_232\n      jump\t// in\n    tag_391:\n        /* \"#utility.yul\":10385:10497   */\n    tag_390:\n        /* \"#utility.yul\":10506:10560   */\n      tag_392\n        /* \"#utility.yul\":10553:10559   */\n      dup5\n        /* \"#utility.yul\":10548:10551   */\n      dup3\n        /* \"#utility.yul\":10543:10546   */\n      dup6\n        /* \"#utility.yul\":10506:10560   */\n      tag_236\n      jump\t// in\n    tag_392:\n        /* \"#utility.yul\":10225:10566   */\n      pop\n        /* \"#utility.yul\":10141:10566   */\n      swap4\n      swap3\n      pop\n      pop\n      pop\n      jump\t// out\n        /* \"#utility.yul\":10586:10926   */\n    tag_238:\n        /* \"#utility.yul\":10642:10647   */\n      0x00\n        /* \"#utility.yul\":10691:10694   */\n      dup3\n        /* \"#utility.yul\":10684:10688   */\n      0x1f\n        /* \"#utility.yul\":10676:10682   */\n      dup4\n        /* \"#utility.yul\":10672:10689   */\n      add\n        /* \"#utility.yul\":10668:10695   */\n      slt\n        /* \"#utility.yul\":10658:10780   */\n      tag_394\n      jumpi\n        /* \"#utility.yul\":10699:10778   */\n      tag_395\n      tag_207\n      jump\t// in\n    tag_395:\n        /* \"#utility.yul\":10658:10780   */\n    tag_394:\n        /* \"#utility.yul\":10816:10822   */\n      dup2\n        /* \"#utility.yul\":10803:10823   */\n      calldataload\n        /* \"#utility.yul\":10841:10920   */\n      tag_396\n        /* \"#utility.yul\":10916:10919   */\n      dup5\n        /* \"#utility.yul\":10908:10914   */\n      dup3\n        /* \"#utility.yul\":10901:10905   */\n      0x20\n        /* \"#utility.yul\":10893:10899   */\n      dup7\n        /* \"#utility.yul\":10889:10906   */\n      add\n        /* \"#utility.yul\":10841:10920   */\n      tag_237\n      jump\t// in\n    tag_396:\n        /* \"#utility.yul\":10832:10920   */\n      swap2\n      pop\n        /* \"#utility.yul\":10648:10926   */\n      pop\n        /* \"#utility.yul\":10586:10926   */\n      swap3\n      swap2\n      pop\n      pop\n      jump\t// out\n        /* \"#utility.yul\":10932:11441   */\n    tag_73:\n        /* \"#utility.yul\":11001:11007   */\n      0x00\n        /* \"#utility.yul\":11050:11052   */\n      0x20\n        /* \"#utility.yul\":11038:11047   */\n      dup3\n        /* \"#utility.yul\":11029:11036   */\n      dup5\n        /* \"#utility.yul\":11025:11048   */\n      sub\n        /* \"#utility.yul\":11021:11053   */\n      slt\n        /* \"#utility.yul\":11018:11137   */\n      iszero\n      tag_398\n      jumpi\n        /* \"#utility.yul\":11056:11135   */\n      tag_399\n      tag_203\n      jump\t// in\n    tag_399:\n        /* \"#utility.yul\":11018:11137   */\n    tag_398:\n        /* \"#utility.yul\":11204:11205   */\n      0x00\n        /* \"#utility.yul\":11193:11202   */\n      dup3\n        /* \"#utility.yul\":11189:11206   */\n      add\n        /* \"#utility.yul\":11176:11207   */\n      calldataload\n        /* \"#utility.yul\":11234:11252   */\n      0xffffffffffffffff\n        /* \"#utility.yul\":11226:11232   */\n      dup2\n        /* \"#utility.yul\":11223:11253   */\n      gt\n        /* \"#utility.yul\":11220:11337   */\n      iszero\n      tag_400\n      jumpi\n        /* \"#utility.yul\":11256:11335   */\n      tag_401\n      tag_204\n      jump\t// in\n    tag_401:\n        /* \"#utility.yul\":11220:11337   */\n    tag_400:\n        /* \"#utility.yul\":11361:11424   */\n      tag_402\n        /* \"#utility.yul\":11416:11423   */\n      dup5\n        /* \"#utility.yul\":11407:11413   */\n      dup3\n        /* \"#utility.yul\":11396:11405   */\n      dup6\n        /* \"#utility.yul\":11392:11414   */\n      add\n        /* \"#utility.yul\":11361:11424   */\n      tag_238\n      jump\t// in\n    tag_402:\n        /* \"#utility.yul\":11351:11424   */\n      swap2\n      pop\n        /* \"#utility.yul\":11147:11434   */\n      pop\n        /* \"#utility.yul\":10932:11441   */\n      swap3\n      swap2\n      pop\n      pop\n      jump\t// out\n        /* \"#utility.yul\":11447:11551   */\n    tag_239:\n        /* \"#utility.yul\":11492:11499   */\n      0x00\n        /* \"#utility.yul\":11521:11545   */\n      tag_404\n        /* \"#utility.yul\":11539:11544   */\n      dup3\n        /* \"#utility.yul\":11521:11545   */\n      tag_211\n      jump\t// in\n    tag_404:\n        /* \"#utility.yul\":11510:11545   */\n      swap1\n      pop\n        /* \"#utility.yul\":11447:11551   */\n      swap2\n      swap1\n      pop\n      jump\t// out\n        /* \"#utility.yul\":11557:11695   */\n    tag_240:\n        /* \"#utility.yul\":11638:11670   */\n      tag_406\n        /* \"#utility.yul\":11664:11669   */\n      dup2\n        /* \"#utility.yul\":11638:11670   */\n      tag_239\n      jump\t// in\n    tag_406:\n        /* \"#utility.yul\":11631:11636   */\n      dup2\n        /* \"#utility.yul\":11628:11671   */\n      eq\n        /* \"#utility.yul\":11618:11689   */\n      tag_407\n      jumpi\n        /* \"#utility.yul\":11685:11686   */\n      0x00\n        /* \"#utility.yul\":11682:11683   */\n      dup1\n        /* \"#utility.yul\":11675:11687   */\n      revert\n        /* \"#utility.yul\":11618:11689   */\n    tag_407:\n        /* \"#utility.yul\":11557:11695   */\n      pop\n      jump\t// out\n        /* \"#utility.yul\":11701:11856   */\n    tag_241:\n        /* \"#utility.yul\":11755:11760   */\n      0x00\n        /* \"#utility.yul\":11793:11799   */\n      dup2\n        /* \"#utility.yul\":11780:11800   */\n      calldataload\n        /* \"#utility.yul\":11771:11800   */\n      swap1\n      pop\n        /* \"#utility.yul\":11809:11850   */\n      tag_409\n        /* \"#utility.yul\":11844:11849   */\n      dup2\n        /* \"#utility.yul\":11809:11850   */\n      tag_240\n      jump\t// in\n    tag_409:\n        /* \"#utility.yul\":11701:11856   */\n      swap3\n      swap2\n      pop\n      pop\n      jump\t// out\n        /* \"#utility.yul\":11862:12207   */\n    tag_86:\n        /* \"#utility.yul\":11929:11935   */\n      0x00\n        /* \"#utility.yul\":11978:11980   */\n      0x20\n        /* \"#utility.yul\":11966:11975   */\n      dup3\n        /* \"#utility.yul\":11957:11964   */\n      dup5\n        /* \"#utility.yul\":11953:11976   */\n      sub\n        /* \"#utility.yul\":11949:11981   */\n      slt\n        /* \"#utility.yul\":11946:12065   */\n      iszero\n      tag_411\n      jumpi\n        /* \"#utility.yul\":11984:12063   */\n      tag_412\n      tag_203\n      jump\t// in\n    tag_412:\n        /* \"#utility.yul\":11946:12065   */\n    tag_411:\n        /* \"#utility.yul\":12104:12105   */\n      0x00\n        /* \"#utility.yul\":12129:12190   */\n      tag_413\n        /* \"#utility.yul\":12182:12189   */\n      dup5\n        /* \"#utility.yul\":12173:12179   */\n      dup3\n        /* \"#utility.yul\":12162:12171   */\n      dup6\n        /* \"#utility.yul\":12158:12180   */\n      add\n        /* \"#utility.yul\":12129:12190   */\n      tag_241\n      jump\t// in\n    tag_413:\n        /* \"#utility.yul\":12119:12190   */\n      swap2\n      pop\n        /* \"#utility.yul\":12075:12200   */\n      pop\n        /* \"#utility.yul\":11862:12207   */\n      swap3\n      swap2\n      pop\n      pop\n      jump\t// out\n        /* \"#utility.yul\":12213:12366   */\n    tag_242:\n        /* \"#utility.yul\":12353:12358   */\n      0x7364660000000000000000000000000000000000000000000000000000000000\n        /* \"#utility.yul\":12349:12350   */\n      0x00\n        /* \"#utility.yul\":12341:12347   */\n      dup3\n        /* \"#utility.yul\":12337:12351   */\n      add\n        /* \"#utility.yul\":12330:12359   */\n      mstore\n        /* \"#utility.yul\":12213:12366   */\n      pop\n      jump\t// out\n        /* \"#utility.yul\":12372:12737   */\n    tag_243:\n        /* \"#utility.yul\":12514:12517   */\n      0x00\n        /* \"#utility.yul\":12535:12601   */\n      tag_416\n        /* \"#utility.yul\":12599:12600   */\n      0x03\n        /* \"#utility.yul\":12594:12597   */\n      dup4\n        /* \"#utility.yul\":12535:12601   */\n      tag_223\n      jump\t// in\n    tag_416:\n        /* \"#utility.yul\":12528:12601   */\n      swap2\n      pop\n        /* \"#utility.yul\":12610:12703   */\n      tag_417\n        /* \"#utility.yul\":12699:12702   */\n      dup3\n        /* \"#utility.yul\":12610:12703   */\n      tag_242\n      jump\t// in\n    tag_417:\n        /* \"#utility.yul\":12728:12730   */\n      0x20\n        /* \"#utility.yul\":12723:12726   */\n      dup3\n        /* \"#utility.yul\":12719:12731   */\n      add\n        /* \"#utility.yul\":12712:12731   */\n      swap1\n      pop\n        /* \"#utility.yul\":12372:12737   */\n      swap2\n      swap1\n      pop\n      jump\t// out\n        /* \"#utility.yul\":12743:13162   */\n    tag_94:\n        /* \"#utility.yul\":12909:12913   */\n      0x00\n        /* \"#utility.yul\":12947:12949   */\n      0x20\n        /* \"#utility.yul\":12936:12945   */\n      dup3\n        /* \"#utility.yul\":12932:12950   */\n      add\n        /* \"#utility.yul\":12924:12950   */\n      swap1\n      pop\n        /* \"#utility.yul\":12996:13005   */\n      dup2\n        /* \"#utility.yul\":12990:12994   */\n      dup2\n        /* \"#utility.yul\":12986:13006   */\n      sub\n        /* \"#utility.yul\":12982:12983   */\n      0x00\n        /* \"#utility.yul\":12971:12980   */\n      dup4\n        /* \"#utility.yul\":12967:12984   */\n      add\n        /* \"#utility.yul\":12960:13007   */\n      mstore\n        /* \"#utility.yul\":13024:13155   */\n      tag_419\n        /* \"#utility.yul\":13150:13154   */\n      dup2\n        /* \"#utility.yul\":13024:13155   */\n      tag_243\n      jump\t// in\n    tag_419:\n        /* \"#utility.yul\":13016:13155   */\n      swap1\n      pop\n        /* \"#utility.yul\":12743:13162   */\n      swap2\n      swap1\n      pop\n      jump\t// out\n        /* \"#utility.yul\":13168:13348   */\n    tag_97:\n        /* \"#utility.yul\":13216:13293   */\n      0x4e487b7100000000000000000000000000000000000000000000000000000000\n        /* \"#utility.yul\":13213:13214   */\n      0x00\n        /* \"#utility.yul\":13206:13294   */\n      mstore\n        /* \"#utility.yul\":13313:13317   */\n      0x32\n        /* \"#utility.yul\":13310:13311   */\n      0x04\n        /* \"#utility.yul\":13303:13318   */\n      mstore\n        /* \"#utility.yul\":13337:13341   */\n      0x24\n        /* \"#utility.yul\":13334:13335   */\n      0x00\n        /* \"#utility.yul\":13327:13342   */\n      revert\n        /* \"#utility.yul\":13354:13534   */\n    tag_244:\n        /* \"#utility.yul\":13402:13479   */\n      0x4e487b7100000000000000000000000000000000000000000000000000000000\n        /* \"#utility.yul\":13399:13400   */\n      0x00\n        /* \"#utility.yul\":13392:13480   */\n      mstore\n        /* \"#utility.yul\":13499:13503   */\n      0x11\n        /* \"#utility.yul\":13496:13497   */\n      0x04\n        /* \"#utility.yul\":13489:13504   */\n      mstore\n        /* \"#utility.yul\":13523:13527   */\n      0x24\n        /* \"#utility.yul\":13520:13521   */\n      0x00\n        /* \"#utility.yul\":13513:13528   */\n      revert\n        /* \"#utility.yul\":13540:13715   */\n    tag_100:\n        /* \"#utility.yul\":13578:13581   */\n      0x00\n        /* \"#utility.yul\":13601:13624   */\n      tag_423\n        /* \"#utility.yul\":13618:13623   */\n      dup3\n        /* \"#utility.yul\":13601:13624   */\n      tag_229\n      jump\t// in\n    tag_423:\n        /* \"#utility.yul\":13592:13624   */\n      swap2\n      pop\n        /* \"#utility.yul\":13646:13656   */\n      0xffffffff\n        /* \"#utility.yul\":13639:13644   */\n      dup3\n        /* \"#utility.yul\":13636:13657   */\n      sub\n        /* \"#utility.yul\":13633:13680   */\n      tag_424\n      jumpi\n        /* \"#utility.yul\":13660:13678   */\n      tag_425\n      tag_244\n      jump\t// in\n    tag_425:\n        /* \"#utility.yul\":13633:13680   */\n    tag_424:\n        /* \"#utility.yul\":13707:13708   */\n      0x01\n        /* \"#utility.yul\":13700:13705   */\n      dup3\n        /* \"#utility.yul\":13696:13709   */\n      add\n        /* \"#utility.yul\":13689:13709   */\n      swap1\n      pop\n        /* \"#utility.yul\":13540:13715   */\n      swap2\n      swap1\n      pop\n      jump\t// out\n        /* \"#utility.yul\":13721:13876   */\n    tag_245:\n        /* \"#utility.yul\":13861:13868   */\n      0x6572726f72000000000000000000000000000000000000000000000000000000\n        /* \"#utility.yul\":13857:13858   */\n      0x00\n        /* \"#utility.yul\":13849:13855   */\n      dup3\n        /* \"#utility.yul\":13845:13859   */\n      add\n        /* \"#utility.yul\":13838:13869   */\n      mstore\n        /* \"#utility.yul\":13721:13876   */\n      pop\n      jump\t// out\n        /* \"#utility.yul\":13882:14247   */\n    tag_246:\n        /* \"#utility.yul\":14024:14027   */\n      0x00\n        /* \"#utility.yul\":14045:14111   */\n      tag_428\n        /* \"#utility.yul\":14109:14110   */\n      0x05\n        /* \"#utility.yul\":14104:14107   */\n      dup4\n        /* \"#utility.yul\":14045:14111   */\n      tag_223\n      jump\t// in\n    tag_428:\n        /* \"#utility.yul\":14038:14111   */\n      swap2\n      pop\n        /* \"#utility.yul\":14120:14213   */\n      tag_429\n        /* \"#utility.yul\":14209:14212   */\n      dup3\n        /* \"#utility.yul\":14120:14213   */\n      tag_245\n      jump\t// in\n    tag_429:\n        /* \"#utility.yul\":14238:14240   */\n      0x20\n        /* \"#utility.yul\":14233:14236   */\n      dup3\n        /* \"#utility.yul\":14229:14241   */\n      add\n        /* \"#utility.yul\":14222:14241   */\n      swap1\n      pop\n        /* \"#utility.yul\":13882:14247   */\n      swap2\n      swap1\n      pop\n      jump\t// out\n        /* \"#utility.yul\":14253:14672   */\n    tag_107:\n        /* \"#utility.yul\":14419:14423   */\n      0x00\n        /* \"#utility.yul\":14457:14459   */\n      0x20\n        /* \"#utility.yul\":14446:14455   */\n      dup3\n        /* \"#utility.yul\":14442:14460   */\n      add\n        /* \"#utility.yul\":14434:14460   */\n      swap1\n      pop\n        /* \"#utility.yul\":14506:14515   */\n      dup2\n        /* \"#utility.yul\":14500:14504   */\n      dup2\n        /* \"#utility.yul\":14496:14516   */\n      sub\n        /* \"#utility.yul\":14492:14493   */\n      0x00\n        /* \"#utility.yul\":14481:14490   */\n      dup4\n        /* \"#utility.yul\":14477:14494   */\n      add\n        /* \"#utility.yul\":14470:14517   */\n      mstore\n        /* \"#utility.yul\":14534:14665   */\n      tag_431\n        /* \"#utility.yul\":14660:14664   */\n      dup2\n        /* \"#utility.yul\":14534:14665   */\n      tag_246\n      jump\t// in\n    tag_431:\n        /* \"#utility.yul\":14526:14665   */\n      swap1\n      pop\n        /* \"#utility.yul\":14253:14672   */\n      swap2\n      swap1\n      pop\n      jump\t// out\n        /* \"#utility.yul\":14678:14775   */\n    tag_247:\n        /* \"#utility.yul\":14737:14743   */\n      0x00\n        /* \"#utility.yul\":14765:14768   */\n      dup3\n        /* \"#utility.yul\":14755:14768   */\n      swap1\n      pop\n        /* \"#utility.yul\":14678:14775   */\n      swap3\n      swap2\n      pop\n      pop\n      jump\t// out\n        /* \"#utility.yul\":14781:14961   */\n    tag_248:\n        /* \"#utility.yul\":14829:14906   */\n      0x4e487b7100000000000000000000000000000000000000000000000000000000\n        /* \"#utility.yul\":14826:14827   */\n      0x00\n        /* \"#utility.yul\":14819:14907   */\n      mstore\n        /* \"#utility.yul\":14926:14930   */\n      0x22\n        /* \"#utility.yul\":14923:14924   */\n      0x04\n        /* \"#utility.yul\":14916:14931   */\n      mstore\n        /* \"#utility.yul\":14950:14954   */\n      0x24\n        /* \"#utility.yul\":14947:14948   */\n      0x00\n        /* \"#utility.yul\":14940:14955   */\n      revert\n        /* \"#utility.yul\":14967:15287   */\n    tag_139:\n        /* \"#utility.yul\":15011:15017   */\n      0x00\n        /* \"#utility.yul\":15048:15049   */\n      0x02\n        /* \"#utility.yul\":15042:15046   */\n      dup3\n        /* \"#utility.yul\":15038:15050   */\n      div\n        /* \"#utility.yul\":15028:15050   */\n      swap1\n      pop\n        /* \"#utility.yul\":15095:15096   */\n      0x01\n        /* \"#utility.yul\":15089:15093   */\n      dup3\n        /* \"#utility.yul\":15085:15097   */\n      and\n        /* \"#utility.yul\":15116:15134   */\n      dup1\n        /* \"#utility.yul\":15106:15187   */\n      tag_435\n      jumpi\n        /* \"#utility.yul\":15172:15176   */\n      0x7f\n        /* \"#utility.yul\":15164:15170   */\n      dup3\n        /* \"#utility.yul\":15160:15177   */\n      and\n        /* \"#utility.yul\":15150:15177   */\n      swap2\n      pop\n        /* \"#utility.yul\":15106:15187   */\n    tag_435:\n        /* \"#utility.yul\":15234:15236   */\n      0x20\n        /* \"#utility.yul\":15226:15232   */\n      dup3\n        /* \"#utility.yul\":15223:15237   */\n      lt\n        /* \"#utility.yul\":15203:15221   */\n      dup2\n        /* \"#utility.yul\":15200:15238   */\n      sub\n        /* \"#utility.yul\":15197:15281   */\n      tag_436\n      jumpi\n        /* \"#utility.yul\":15253:15271   */\n      tag_437\n      tag_248\n      jump\t// in\n    tag_437:\n        /* \"#utility.yul\":15197:15281   */\n    tag_436:\n        /* \"#utility.yul\":15018:15287   */\n      pop\n        /* \"#utility.yul\":14967:15287   */\n      swap2\n      swap1\n      pop\n      jump\t// out\n        /* \"#utility.yul\":15293:15434   */\n    tag_249:\n        /* \"#utility.yul\":15342:15346   */\n      0x00\n        /* \"#utility.yul\":15365:15368   */\n      dup2\n        /* \"#utility.yul\":15357:15368   */\n      swap1\n      pop\n        /* \"#utility.yul\":15388:15391   */\n      dup2\n        /* \"#utility.yul\":15385:15386   */\n      0x00\n        /* \"#utility.yul\":15378:15392   */\n      mstore\n        /* \"#utility.yul\":15422:15426   */\n      0x20\n        /* \"#utility.yul\":15419:15420   */\n      0x00\n        /* \"#utility.yul\":15409:15427   */\n      keccak256\n        /* \"#utility.yul\":15401:15427   */\n      swap1\n      pop\n        /* \"#utility.yul\":15293:15434   */\n      swap2\n      swap1\n      pop\n      jump\t// out\n        /* \"#utility.yul\":15440:15533   */\n    tag_250:\n        /* \"#utility.yul\":15477:15483   */\n      0x00\n        /* \"#utility.yul\":15524:15526   */\n      0x20\n        /* \"#utility.yul\":15519:15521   */\n      0x1f\n        /* \"#utility.yul\":15512:15517   */\n      dup4\n        /* \"#utility.yul\":15508:15522   */\n      add\n        /* \"#utility.yul\":15504:15527   */\n      div\n        /* \"#utility.yul\":15494:15527   */\n      swap1\n      pop\n        /* \"#utility.yul\":15440:15533   */\n      swap2\n      swap1\n      pop\n      jump\t// out\n        /* \"#utility.yul\":15539:15646   */\n    tag_251:\n        /* \"#utility.yul\":15583:15591   */\n      0x00\n        /* \"#utility.yul\":15633:15638   */\n      dup3\n        /* \"#utility.yul\":15627:15631   */\n      dup3\n        /* \"#utility.yul\":15623:15639   */\n      shl\n        /* \"#utility.yul\":15602:15639   */\n      swap1\n      pop\n        /* \"#utility.yul\":15539:15646   */\n      swap3\n      swap2\n      pop\n      pop\n      jump\t// out\n        /* \"#utility.yul\":15652:16045   */\n    tag_252:\n        /* \"#utility.yul\":15721:15727   */\n      0x00\n        /* \"#utility.yul\":15771:15772   */\n      0x08\n        /* \"#utility.yul\":15759:15769   */\n      dup4\n        /* \"#utility.yul\":15755:15773   */\n      mul\n        /* \"#utility.yul\":15794:15891   */\n      tag_442\n        /* \"#utility.yul\":15824:15890   */\n      0xffffffffffffffffffffffffffffffffffffffffffffffffffffffffffffffff\n        /* \"#utility.yul\":15813:15822   */\n      dup3\n        /* \"#utility.yul\":15794:15891   */\n      tag_251\n      jump\t// in\n    tag_442:\n        /* \"#utility.yul\":15912:15951   */\n      tag_443\n        /* \"#utility.yul\":15942:15950   */\n      dup7\n        /* \"#utility.yul\":15931:15940   */\n      dup4\n        /* \"#utility.yul\":15912:15951   */\n      tag_251\n      jump\t// in\n    tag_443:\n        /* \"#utility.yul\":15900:15951   */\n      swap6\n      pop\n        /* \"#utility.yul\":15984:15988   */\n      dup1\n        /* \"#utility.yul\":15980:15989   */\n      not\n        /* \"#utility.yul\":15973:15978   */\n      dup5\n        /* \"#utility.yul\":15969:15990   */\n      and\n        /* \"#utility.yul\":15960:15990   */\n      swap4\n      pop\n        /* \"#utility.yul\":16033:16037   */\n      dup1\n        /* \"#utility.yul\":16023:16031   */\n      dup7\n        /* \"#utility.yul\":16019:16038   */\n      and\n        /* \"#utility.yul\":16012:16017   */\n      dup5\n        /* \"#utility.yul\":16009:16039   */\n      or\n        /* \"#utility.yul\":15999:16039   */\n      swap3\n      pop\n        /* \"#utility.yul\":15728:16045   */\n      pop\n      pop\n        /* \"#utility.yul\":15652:16045   */\n      swap4\n      swap3\n      pop\n      pop\n      pop\n      jump\t// out\n        /* \"#utility.yul\":16051:16111   */\n    tag_253:\n        /* \"#utility.yul\":16079:16082   */\n      0x00\n        /* \"#utility.yul\":16100:16105   */\n      dup2\n        /* \"#utility.yul\":16093:16105   */\n      swap1\n      pop\n        /* \"#utility.yul\":16051:16111   */\n      swap2\n      swap1\n      pop\n      jump\t// out\n        /* \"#utility.yul\":16117:16259   */\n    tag_254:\n        /* \"#utility.yul\":16167:16176   */\n      0x00\n        /* \"#utility.yul\":16200:16253   */\n      tag_446\n        /* \"#utility.yul\":16218:16252   */\n      tag_447\n        /* \"#utility.yul\":16227:16251   */\n      tag_448\n        /* \"#utility.yul\":16245:16250   */\n      dup5\n        /* \"#utility.yul\":16227:16251   */\n      tag_198\n      jump\t// in\n    tag_448:\n        /* \"#utility.yul\":16218:16252   */\n      tag_253\n      jump\t// in\n    tag_447:\n        /* \"#utility.yul\":16200:16253   */\n      tag_198\n      jump\t// in\n    tag_446:\n        /* \"#utility.yul\":16187:16253   */\n      swap1\n      pop\n        /* \"#utility.yul\":16117:16259   */\n      swap2\n      swap1\n      pop\n      jump\t// out\n        /* \"#utility.yul\":16265:16340   */\n    tag_255:\n        /* \"#utility.yul\":16308:16311   */\n      0x00\n        /* \"#utility.yul\":16329:16334   */\n      dup2\n        /* \"#utility.yul\":16322:16334   */\n      swap1\n      pop\n        /* \"#utility.yul\":16265:16340   */\n      swap2\n      swap1\n      pop\n      jump\t// out\n        /* \"#utility.yul\":16346:16615   */\n    tag_256:\n        /* \"#utility.yul\":16456:16495   */\n      tag_451\n        /* \"#utility.yul\":16487:16494   */\n      dup4\n        /* \"#utility.yul\":16456:16495   */\n      tag_254\n      jump\t// in\n    tag_451:\n        /* \"#utility.yul\":16517:16608   */\n      tag_452\n        /* \"#utility.yul\":16566:16607   */\n      tag_453\n        /* \"#utility.yul\":16590:16606   */\n      dup3\n        /* \"#utility.yul\":16566:16607   */\n      tag_255\n      jump\t// in\n    tag_453:\n        /* \"#utility.yul\":16558:16564   */\n      dup5\n        /* \"#utility.yul\":16551:16555   */\n      dup5\n        /* \"#utility.yul\":16545:16556   */\n      sload\n        /* \"#utility.yul\":16517:16608   */\n      tag_252\n      jump\t// in\n    tag_452:\n        /* \"#utility.yul\":16511:16515   */\n      dup3\n        /* \"#utility.yul\":16504:16609   */\n      sstore\n        /* \"#utility.yul\":16422:16615   */\n      pop\n        /* \"#utility.yul\":16346:16615   */\n      pop\n      pop\n      pop\n      jump\t// out\n        /* \"#utility.yul\":16621:16694   */\n    tag_257:\n        /* \"#utility.yul\":16666:16669   */\n      0x00\n        /* \"#utility.yul\":16621:16694   */\n      swap1\n      jump\t// out\n        /* \"#utility.yul\":16700:16889   */\n    tag_258:\n        /* \"#utility.yul\":16777:16809   */\n      tag_456\n      tag_257\n      jump\t// in\n    tag_456:\n        /* \"#utility.yul\":16818:16883   */\n      tag_457\n        /* \"#utility.yul\":16876:16882   */\n      dup2\n        /* \"#utility.yul\":16868:16874   */\n      dup5\n        /* \"#utility.yul\":16862:16866   */\n      dup5\n        /* \"#utility.yul\":16818:16883   */\n      tag_256\n      jump\t// in\n    tag_457:\n        /* \"#utility.yul\":16753:16889   */\n      pop\n        /* \"#utility.yul\":16700:16889   */\n      pop\n      pop\n      jump\t// out\n        /* \"#utility.yul\":16895:17081   */\n    tag_259:\n        /* \"#utility.yul\":16955:17075   */\n    tag_459:\n        /* \"#utility.yul\":16972:16975   */\n      dup2\n        /* \"#utility.yul\":16965:16970   */\n      dup2\n        /* \"#utility.yul\":16962:16976   */\n      lt\n        /* \"#utility.yul\":16955:17075   */\n      iszero\n      tag_461\n      jumpi\n        /* \"#utility.yul\":17026:17065   */\n      tag_462\n        /* \"#utility.yul\":17063:17064   */\n      0x00\n        /* \"#utility.yul\":17056:17061   */\n      dup3\n        /* \"#utility.yul\":17026:17065   */\n      tag_258\n      jump\t// in\n    tag_462:\n        /* \"#utility.yul\":16999:17000   */\n      0x01\n        /* \"#utility.yul\":16992:16997   */\n      dup2\n        /* \"#utility.yul\":16988:17001   */\n      add\n        /* \"#utility.yul\":16979:17001   */\n      swap1\n      pop\n        /* \"#utility.yul\":16955:17075   */\n      jump(tag_459)\n    tag_461:\n        /* \"#utility.yul\":16895:17081   */\n      pop\n      pop\n      jump\t// out\n        /* \"#utility.yul\":17087:17630   */\n    tag_260:\n        /* \"#utility.yul\":17188:17190   */\n      0x1f\n        /* \"#utility.yul\":17183:17186   */\n      dup3\n        /* \"#utility.yul\":17180:17191   */\n      gt\n        /* \"#utility.yul\":17177:17623   */\n      iszero\n      tag_464\n      jumpi\n        /* \"#utility.yul\":17222:17260   */\n      tag_465\n        /* \"#utility.yul\":17254:17259   */\n      dup2\n        /* \"#utility.yul\":17222:17260   */\n      tag_249\n      jump\t// in\n    tag_465:\n        /* \"#utility.yul\":17306:17335   */\n      tag_466\n        /* \"#utility.yul\":17324:17334   */\n      dup5\n        /* \"#utility.yul\":17306:17335   */\n      tag_250\n      jump\t// in\n    tag_466:\n        /* \"#utility.yul\":17296:17304   */\n      dup2\n        /* \"#utility.yul\":17292:17336   */\n      add\n        /* \"#utility.yul\":17489:17491   */\n      0x20\n        /* \"#utility.yul\":17477:17487   */\n      dup6\n        /* \"#utility.yul\":17474:17492   */\n      lt\n        /* \"#utility.yul\":17471:17520   */\n      iszero\n      tag_467\n      jumpi\n        /* \"#utility.yul\":17510:17518   */\n      dup2\n        /* \"#utility.yul\":17495:17518   */\n      swap1\n      pop\n        /* \"#utility.yul\":17471:17520   */\n    tag_467:\n        /* \"#utility.yul\":17533:17613   */\n      tag_468\n        /* \"#utility.yul\":17589:17611   */\n      tag_469\n        /* \"#utility.yul\":17607:17610   */\n      dup6\n        /* \"#utility.yul\":17589:17611   */\n      tag_250\n      jump\t// in\n    tag_469:\n        /* \"#utility.yul\":17579:17587   */\n      dup4\n        /* \"#utility.yul\":17575:17612   */\n      add\n        /* \"#utility.yul\":17562:17573   */\n      dup3\n        /* \"#utility.yul\":17533:17613   */\n      tag_259\n      jump\t// in\n    tag_468:\n        /* \"#utility.yul\":17192:17623   */\n      pop\n      pop\n        /* \"#utility.yul\":17177:17623   */\n    tag_464:\n        /* \"#utility.yul\":17087:17630   */\n      pop\n      pop\n      pop\n      jump\t// out\n        /* \"#utility.yul\":17636:17753   */\n    tag_261:\n        /* \"#utility.yul\":17690:17698   */\n      0x00\n        /* \"#utility.yul\":17740:17745   */\n      dup3\n        /* \"#utility.yul\":17734:17738   */\n      dup3\n        /* \"#utility.yul\":17730:17746   */\n      shr\n        /* \"#utility.yul\":17709:17746   */\n      swap1\n      pop\n        /* \"#utility.yul\":17636:17753   */\n      swap3\n      swap2\n      pop\n      pop\n      jump\t// out\n        /* \"#utility.yul\":17759:17928   */\n    tag_262:\n        /* \"#utility.yul\":17803:17809   */\n      0x00\n        /* \"#utility.yul\":17836:17887   */\n      tag_472\n        /* \"#utility.yul\":17884:17885   */\n      0x00\n        /* \"#utility.yul\":17880:17886   */\n      not\n        /* \"#utility.yul\":17872:17877   */\n      dup5\n        /* \"#utility.yul\":17869:17870   */\n      0x08\n        /* \"#utility.yul\":17865:17878   */\n      mul\n        /* \"#utility.yul\":17836:17887   */\n      tag_261\n      jump\t// in\n    tag_472:\n        /* \"#utility.yul\":17832:17888   */\n      not\n        /* \"#utility.yul\":17917:17921   */\n      dup1\n        /* \"#utility.yul\":17911:17915   */\n      dup4\n        /* \"#utility.yul\":17907:17922   */\n      and\n        /* \"#utility.yul\":17897:17922   */\n      swap2\n      pop\n        /* \"#utility.yul\":17810:17928   */\n      pop\n        /* \"#utility.yul\":17759:17928   */\n      swap3\n      swap2\n      pop\n      pop\n      jump\t// out\n        /* \"#utility.yul\":17933:18228   */\n    tag_263:\n        /* \"#utility.yul\":18009:18013   */\n      0x00\n        /* \"#utility.yul\":18155:18184   */\n      tag_474\n        /* \"#utility.yul\":18180:18183   */\n      dup4\n        /* \"#utility.yul\":18174:18178   */\n      dup4\n        /* \"#utility.yul\":18155:18184   */\n      tag_262\n      jump\t// in\n    tag_474:\n        /* \"#utility.yul\":18147:18184   */\n      swap2\n      pop\n        /* \"#utility.yul\":18217:18220   */\n      dup3\n        /* \"#utility.yul\":18214:18215   */\n      0x02\n        /* \"#utility.yul\":18210:18221   */\n      mul\n        /* \"#utility.yul\":18204:18208   */\n      dup3\n        /* \"#utility.yul\":18201:18222   */\n      or\n        /* \"#utility.yul\":18193:18222   */\n      swap1\n      pop\n        /* \"#utility.yul\":17933:18228   */\n      swap3\n      swap2\n      pop\n      pop\n      jump\t// out\n        /* \"#utility.yul\":18233:19636   */\n    tag_116:\n        /* \"#utility.yul\":18357:18401   */\n      tag_476\n        /* \"#utility.yul\":18397:18400   */\n      dup4\n        /* \"#utility.yul\":18392:18395   */\n      dup4\n        /* \"#utility.yul\":18357:18401   */\n      tag_247\n      jump\t// in\n    tag_476:\n        /* \"#utility.yul\":18466:18484   */\n      0xffffffffffffffff\n        /* \"#utility.yul\":18458:18464   */\n      dup2\n        /* \"#utility.yul\":18455:18485   */\n      gt\n        /* \"#utility.yul\":18452:18508   */\n      iszero\n      tag_477\n      jumpi\n        /* \"#utility.yul\":18488:18506   */\n      tag_478\n      tag_125\n      jump\t// in\n    tag_478:\n        /* \"#utility.yul\":18452:18508   */\n    tag_477:\n        /* \"#utility.yul\":18532:18570   */\n      tag_479\n        /* \"#utility.yul\":18564:18568   */\n      dup3\n        /* \"#utility.yul\":18558:18569   */\n      sload\n        /* \"#utility.yul\":18532:18570   */\n      tag_139\n      jump\t// in\n    tag_479:\n        /* \"#utility.yul\":18617:18684   */\n      tag_480\n        /* \"#utility.yul\":18677:18683   */\n      dup3\n        /* \"#utility.yul\":18669:18675   */\n      dup3\n        /* \"#utility.yul\":18663:18667   */\n      dup6\n        /* \"#utility.yul\":18617:18684   */\n      tag_260\n      jump\t// in\n    tag_480:\n        /* \"#utility.yul\":18711:18712   */\n      0x00\n        /* \"#utility.yul\":18740:18742   */\n      0x1f\n        /* \"#utility.yul\":18732:18738   */\n      dup4\n        /* \"#utility.yul\":18729:18743   */\n      gt\n        /* \"#utility.yul\":18757:18758   */\n      0x01\n        /* \"#utility.yul\":18752:19384   */\n      dup2\n      eq\n      tag_482\n      jumpi\n        /* \"#utility.yul\":19428:19429   */\n      0x00\n        /* \"#utility.yul\":19445:19451   */\n      dup5\n        /* \"#utility.yul\":19442:19526   */\n      iszero\n      tag_483\n      jumpi\n        /* \"#utility.yul\":19501:19510   */\n      dup3\n        /* \"#utility.yul\":19496:19499   */\n      dup8\n        /* \"#utility.yul\":19492:19511   */\n      add\n        /* \"#utility.yul\":19479:19512   */\n      calldataload\n        /* \"#utility.yul\":19470:19512   */\n      swap1\n      pop\n        /* \"#utility.yul\":19442:19526   */\n    tag_483:\n        /* \"#utility.yul\":19552:19619   */\n      tag_484\n        /* \"#utility.yul\":19612:19618   */\n      dup6\n        /* \"#utility.yul\":19605:19610   */\n      dup3\n        /* \"#utility.yul\":19552:19619   */\n      tag_263\n      jump\t// in\n    tag_484:\n        /* \"#utility.yul\":19546:19550   */\n      dup7\n        /* \"#utility.yul\":19539:19620   */\n      sstore\n        /* \"#utility.yul\":19401:19630   */\n      pop\n        /* \"#utility.yul\":18722:19630   */\n      jump(tag_481)\n        /* \"#utility.yul\":18752:19384   */\n    tag_482:\n        /* \"#utility.yul\":18804:18808   */\n      0x1f\n        /* \"#utility.yul\":18800:18809   */\n      not\n        /* \"#utility.yul\":18792:18798   */\n      dup5\n        /* \"#utility.yul\":18788:18810   */\n      and\n        /* \"#utility.yul\":18838:18875   */\n      tag_485\n        /* \"#utility.yul\":18870:18874   */\n      dup7\n        /* \"#utility.yul\":18838:18875   */\n      tag_249\n      jump\t// in\n    tag_485:\n        /* \"#utility.yul\":18897:18898   */\n      0x00\n        /* \"#utility.yul\":18911:19126   */\n    tag_486:\n        /* \"#utility.yul\":18925:18932   */\n      dup3\n        /* \"#utility.yul\":18922:18923   */\n      dup2\n        /* \"#utility.yul\":18919:18933   */\n      lt\n        /* \"#utility.yul\":18911:19126   */\n      iszero\n      tag_488\n      jumpi\n        /* \"#utility.yul\":19011:19020   */\n      dup5\n        /* \"#utility.yul\":19006:19009   */\n      dup10\n        /* \"#utility.yul\":19002:19021   */\n      add\n        /* \"#utility.yul\":18989:19022   */\n      calldataload\n        /* \"#utility.yul\":18981:18987   */\n      dup3\n        /* \"#utility.yul\":18974:19023   */\n      sstore\n        /* \"#utility.yul\":19062:19063   */\n      0x01\n        /* \"#utility.yul\":19054:19060   */\n      dup3\n        /* \"#utility.yul\":19050:19064   */\n      add\n        /* \"#utility.yul\":19040:19064   */\n      swap2\n      pop\n        /* \"#utility.yul\":19109:19111   */\n      0x20\n        /* \"#utility.yul\":19098:19107   */\n      dup6\n        /* \"#utility.yul\":19094:19112   */\n      add\n        /* \"#utility.yul\":19081:19112   */\n      swap5\n      pop\n        /* \"#utility.yul\":18948:18952   */\n      0x20\n        /* \"#utility.yul\":18945:18946   */\n      dup2\n        /* \"#utility.yul\":18941:18953   */\n      add\n        /* \"#utility.yul\":18936:18953   */\n      swap1\n      pop\n        /* \"#utility.yul\":18911:19126   */\n      jump(tag_486)\n    tag_488:\n        /* \"#utility.yul\":19154:19160   */\n      dup7\n        /* \"#utility.yul\":19145:19152   */\n      dup4\n        /* \"#utility.yul\":19142:19161   */\n      lt\n        /* \"#utility.yul\":19139:19325   */\n      iszero\n      tag_489\n      jumpi\n        /* \"#utility.yul\":19219:19228   */\n      dup5\n        /* \"#utility.yul\":19214:19217   */\n      dup10\n        /* \"#utility.yul\":19210:19229   */\n      add\n        /* \"#utility.yul\":19197:19230   */\n      calldataload\n        /* \"#utility.yul\":19262:19310   */\n      tag_490\n        /* \"#utility.yul\":19304:19308   */\n      0x1f\n        /* \"#utility.yul\":19296:19302   */\n      dup10\n        /* \"#utility.yul\":19292:19309   */\n      and\n        /* \"#utility.yul\":19281:19290   */\n      dup3\n        /* \"#utility.yul\":19262:19310   */\n      tag_262\n      jump\t// in\n    tag_490:\n        /* \"#utility.yul\":19254:19260   */\n      dup4\n        /* \"#utility.yul\":19247:19311   */\n      sstore\n        /* \"#utility.yul\":19162:19325   */\n      pop\n        /* \"#utility.yul\":19139:19325   */\n    tag_489:\n        /* \"#utility.yul\":19371:19372   */\n      0x01\n        /* \"#utility.yul\":19367:19368   */\n      0x02\n        /* \"#utility.yul\":19359:19365   */\n      dup9\n        /* \"#utility.yul\":19355:19369   */\n      mul\n        /* \"#utility.yul\":19351:19373   */\n      add\n        /* \"#utility.yul\":19345:19349   */\n      dup9\n        /* \"#utility.yul\":19338:19374   */\n      sstore\n        /* \"#utility.yul\":18759:19384   */\n      pop\n      pop\n      pop\n        /* \"#utility.yul\":18722:19630   */\n    tag_481:\n      pop\n        /* \"#utility.yul\":18332:19636   */\n      pop\n      pop\n      pop\n        /* \"#utility.yul\":18233:19636   */\n      pop\n      pop\n      pop\n      jump\t// out\n        /* \"#utility.yul\":19642:19811   */\n    tag_264:\n        /* \"#utility.yul\":19782:19803   */\n      0x4d75737420636f6e7472616374206f776e657200000000000000000000000000\n        /* \"#utility.yul\":19778:19779   */\n      0x00\n        /* \"#utility.yul\":19770:19776   */\n      dup3\n        /* \"#utility.yul\":19766:19780   */\n      add\n        /* \"#utility.yul\":19759:19804   */\n      mstore\n        /* \"#utility.yul\":19642:19811   */\n      pop\n      jump\t// out\n        /* \"#utility.yul\":19817:20183   */\n    tag_265:\n        /* \"#utility.yul\":19959:19962   */\n      0x00\n        /* \"#utility.yul\":19980:20047   */\n      tag_493\n        /* \"#utility.yul\":20044:20046   */\n      0x13\n        /* \"#utility.yul\":20039:20042   */\n      dup4\n        /* \"#utility.yul\":19980:20047   */\n      tag_223\n      jump\t// in\n    tag_493:\n        /* \"#utility.yul\":19973:20047   */\n      swap2\n      pop\n        /* \"#utility.yul\":20056:20149   */\n      tag_494\n        /* \"#utility.yul\":20145:20148   */\n      dup3\n        /* \"#utility.yul\":20056:20149   */\n      tag_264\n      jump\t// in\n    tag_494:\n        /* \"#utility.yul\":20174:20176   */\n      0x20\n        /* \"#utility.yul\":20169:20172   */\n      dup3\n        /* \"#utility.yul\":20165:20177   */\n      add\n        /* \"#utility.yul\":20158:20177   */\n      swap1\n      pop\n        /* \"#utility.yul\":19817:20183   */\n      swap2\n      swap1\n      pop\n      jump\t// out\n        /* \"#utility.yul\":20189:20608   */\n    tag_120:\n        /* \"#utility.yul\":20355:20359   */\n      0x00\n        /* \"#utility.yul\":20393:20395   */\n      0x20\n        /* \"#utility.yul\":20382:20391   */\n      dup3\n        /* \"#utility.yul\":20378:20396   */\n      add\n        /* \"#utility.yul\":20370:20396   */\n      swap1\n      pop\n        /* \"#utility.yul\":20442:20451   */\n      dup2\n        /* \"#utility.yul\":20436:20440   */\n      dup2\n        /* \"#utility.yul\":20432:20452   */\n      sub\n        /* \"#utility.yul\":20428:20429   */\n      0x00\n        /* \"#utility.yul\":20417:20426   */\n      dup4\n        /* \"#utility.yul\":20413:20430   */\n      add\n        /* \"#utility.yul\":20406:20453   */\n      mstore\n        /* \"#utility.yul\":20470:20601   */\n      tag_496\n        /* \"#utility.yul\":20596:20600   */\n      dup2\n        /* \"#utility.yul\":20470:20601   */\n      tag_265\n      jump\t// in\n    tag_496:\n        /* \"#utility.yul\":20462:20601   */\n      swap1\n      pop\n        /* \"#utility.yul\":20189:20608   */\n      swap2\n      swap1\n      pop\n      jump\t// out\n        /* \"#utility.yul\":20614:20847   */\n    tag_134:\n        /* \"#utility.yul\":20653:20656   */\n      0x00\n        /* \"#utility.yul\":20676:20700   */\n      tag_498\n        /* \"#utility.yul\":20694:20699   */\n      dup3\n        /* \"#utility.yul\":20676:20700   */\n      tag_198\n      jump\t// in\n    tag_498:\n        /* \"#utility.yul\":20667:20700   */\n      swap2\n      pop\n        /* \"#utility.yul\":20722:20788   */\n      0xffffffffffffffffffffffffffffffffffffffffffffffffffffffffffffffff\n        /* \"#utility.yul\":20715:20720   */\n      dup3\n        /* \"#utility.yul\":20712:20789   */\n      sub\n        /* \"#utility.yul\":20709:20812   */\n      tag_499\n      jumpi\n        /* \"#utility.yul\":20792:20810   */\n      tag_500\n      tag_244\n      jump\t// in\n    tag_500:\n        /* \"#utility.yul\":20709:20812   */\n    tag_499:\n        /* \"#utility.yul\":20839:20840   */\n      0x01\n        /* \"#utility.yul\":20832:20837   */\n      dup3\n        /* \"#utility.yul\":20828:20841   */\n      add\n        /* \"#utility.yul\":20821:20841   */\n      swap1\n      pop\n        /* \"#utility.yul\":20614:20847   */\n      swap2\n      swap1\n      pop\n      jump\t// out\n        /* \"#utility.yul\":20853:21033   */\n    tag_266:\n        /* \"#utility.yul\":20901:20978   */\n      0x4e487b7100000000000000000000000000000000000000000000000000000000\n        /* \"#utility.yul\":20898:20899   */\n      0x00\n        /* \"#utility.yul\":20891:20979   */\n      mstore\n        /* \"#utility.yul\":20998:21002   */\n      0x12\n        /* \"#utility.yul\":20995:20996   */\n      0x04\n        /* \"#utility.yul\":20988:21003   */\n      mstore\n        /* \"#utility.yul\":21022:21026   */\n      0x24\n        /* \"#utility.yul\":21019:21020   */\n      0x00\n        /* \"#utility.yul\":21012:21027   */\n      revert\n        /* \"#utility.yul\":21039:21212   */\n    tag_150:\n        /* \"#utility.yul\":21070:21071   */\n      0x00\n        /* \"#utility.yul\":21087:21106   */\n      tag_503\n        /* \"#utility.yul\":21104:21105   */\n      dup3\n        /* \"#utility.yul\":21087:21106   */\n      tag_227\n      jump\t// in\n    tag_503:\n        /* \"#utility.yul\":21082:21106   */\n      swap2\n      pop\n        /* \"#utility.yul\":21120:21139   */\n      tag_504\n        /* \"#utility.yul\":21137:21138   */\n      dup4\n        /* \"#utility.yul\":21120:21139   */\n      tag_227\n      jump\t// in\n    tag_504:\n        /* \"#utility.yul\":21115:21139   */\n      swap3\n      pop\n        /* \"#utility.yul\":21158:21159   */\n      dup3\n        /* \"#utility.yul\":21148:21183   */\n      tag_505\n      jumpi\n        /* \"#utility.yul\":21163:21181   */\n      tag_506\n      tag_266\n      jump\t// in\n    tag_506:\n        /* \"#utility.yul\":21148:21183   */\n    tag_505:\n        /* \"#utility.yul\":21204:21205   */\n      dup3\n        /* \"#utility.yul\":21201:21202   */\n      dup3\n        /* \"#utility.yul\":21197:21206   */\n      mod\n        /* \"#utility.yul\":21192:21206   */\n      swap1\n      pop\n        /* \"#utility.yul\":21039:21212   */\n      swap3\n      swap2\n      pop\n      pop\n      jump\t// out\n        /* \"#utility.yul\":21218:21414   */\n    tag_152:\n        /* \"#utility.yul\":21257:21261   */\n      0x00\n        /* \"#utility.yul\":21277:21296   */\n      tag_508\n        /* \"#utility.yul\":21294:21295   */\n      dup3\n        /* \"#utility.yul\":21277:21296   */\n      tag_227\n      jump\t// in\n    tag_508:\n        /* \"#utility.yul\":21272:21296   */\n      swap2\n      pop\n        /* \"#utility.yul\":21310:21329   */\n      tag_509\n        /* \"#utility.yul\":21327:21328   */\n      dup4\n        /* \"#utility.yul\":21310:21329   */\n      tag_227\n      jump\t// in\n    tag_509:\n        /* \"#utility.yul\":21305:21329   */\n      swap3\n      pop\n        /* \"#utility.yul\":21353:21354   */\n      dup3\n        /* \"#utility.yul\":21350:21351   */\n      dup3\n        /* \"#utility.yul\":21346:21355   */\n      sub\n        /* \"#utility.yul\":21338:21355   */\n      swap1\n      pop\n        /* \"#utility.yul\":21377:21383   */\n      0xffff\n        /* \"#utility.yul\":21371:21375   */\n      dup2\n        /* \"#utility.yul\":21368:21384   */\n      gt\n        /* \"#utility.yul\":21365:21407   */\n      iszero\n      tag_510\n      jumpi\n        /* \"#utility.yul\":21387:21405   */\n      tag_511\n      tag_244\n      jump\t// in\n    tag_511:\n        /* \"#utility.yul\":21365:21407   */\n    tag_510:\n        /* \"#utility.yul\":21218:21414   */\n      swap3\n      swap2\n      pop\n      pop\n      jump\t// out\n        /* \"#utility.yul\":21420:21613   */\n    tag_174:\n        /* \"#utility.yul\":21459:21462   */\n      0x00\n        /* \"#utility.yul\":21478:21497   */\n      tag_513\n        /* \"#utility.yul\":21495:21496   */\n      dup3\n        /* \"#utility.yul\":21478:21497   */\n      tag_227\n      jump\t// in\n    tag_513:\n        /* \"#utility.yul\":21473:21497   */\n      swap2\n      pop\n        /* \"#utility.yul\":21511:21530   */\n      tag_514\n        /* \"#utility.yul\":21528:21529   */\n      dup4\n        /* \"#utility.yul\":21511:21530   */\n      tag_227\n      jump\t// in\n    tag_514:\n        /* \"#utility.yul\":21506:21530   */\n      swap3\n      pop\n        /* \"#utility.yul\":21553:21554   */\n      dup3\n        /* \"#utility.yul\":21550:21551   */\n      dup3\n        /* \"#utility.yul\":21546:21555   */\n      add\n        /* \"#utility.yul\":21539:21555   */\n      swap1\n      pop\n        /* \"#utility.yul\":21576:21582   */\n      0xffff\n        /* \"#utility.yul\":21571:21574   */\n      dup2\n        /* \"#utility.yul\":21568:21583   */\n      gt\n        /* \"#utility.yul\":21565:21606   */\n      iszero\n      tag_515\n      jumpi\n        /* \"#utility.yul\":21586:21604   */\n      tag_516\n      tag_244\n      jump\t// in\n    tag_516:\n        /* \"#utility.yul\":21565:21606   */\n    tag_515:\n        /* \"#utility.yul\":21420:21613   */\n      swap3\n      swap2\n      pop\n      pop\n      jump\t// out\n        /* \"#utility.yul\":21619:21767   */\n    tag_267:\n        /* \"#utility.yul\":21721:21732   */\n      0x00\n        /* \"#utility.yul\":21758:21761   */\n      dup2\n        /* \"#utility.yul\":21743:21761   */\n      swap1\n      pop\n        /* \"#utility.yul\":21619:21767   */\n      swap3\n      swap2\n      pop\n      pop\n      jump\t// out\n        /* \"#utility.yul\":21773:22163   */\n    tag_268:\n        /* \"#utility.yul\":21879:21882   */\n      0x00\n        /* \"#utility.yul\":21907:21946   */\n      tag_519\n        /* \"#utility.yul\":21940:21945   */\n      dup3\n        /* \"#utility.yul\":21907:21946   */\n      tag_222\n      jump\t// in\n    tag_519:\n        /* \"#utility.yul\":21962:22051   */\n      tag_520\n        /* \"#utility.yul\":22044:22050   */\n      dup2\n        /* \"#utility.yul\":22039:22042   */\n      dup6\n        /* \"#utility.yul\":21962:22051   */\n      tag_267\n      jump\t// in\n    tag_520:\n        /* \"#utility.yul\":21955:22051   */\n      swap4\n      pop\n        /* \"#utility.yul\":22060:22125   */\n      tag_521\n        /* \"#utility.yul\":22118:22124   */\n      dup2\n        /* \"#utility.yul\":22113:22116   */\n      dup6\n        /* \"#utility.yul\":22106:22110   */\n      0x20\n        /* \"#utility.yul\":22099:22104   */\n      dup7\n        /* \"#utility.yul\":22095:22111   */\n      add\n        /* \"#utility.yul\":22060:22125   */\n      tag_224\n      jump\t// in\n    tag_521:\n        /* \"#utility.yul\":22150:22156   */\n      dup1\n        /* \"#utility.yul\":22145:22148   */\n      dup5\n        /* \"#utility.yul\":22141:22157   */\n      add\n        /* \"#utility.yul\":22134:22157   */\n      swap2\n      pop\n        /* \"#utility.yul\":21883:22163   */\n      pop\n        /* \"#utility.yul\":21773:22163   */\n      swap3\n      swap2\n      pop\n      pop\n      jump\t// out\n        /* \"#utility.yul\":22169:22248   */\n    tag_269:\n        /* \"#utility.yul\":22208:22215   */\n      0x00\n        /* \"#utility.yul\":22237:22242   */\n      dup2\n        /* \"#utility.yul\":22226:22242   */\n      swap1\n      pop\n        /* \"#utility.yul\":22169:22248   */\n      swap2\n      swap1\n      pop\n      jump\t// out\n        /* \"#utility.yul\":22254:22411   */\n    tag_270:\n        /* \"#utility.yul\":22359:22404   */\n      tag_524\n        /* \"#utility.yul\":22379:22403   */\n      tag_525\n        /* \"#utility.yul\":22397:22402   */\n      dup3\n        /* \"#utility.yul\":22379:22403   */\n      tag_198\n      jump\t// in\n    tag_525:\n        /* \"#utility.yul\":22359:22404   */\n      tag_269\n      jump\t// in\n    tag_524:\n        /* \"#utility.yul\":22354:22357   */\n      dup3\n        /* \"#utility.yul\":22347:22405   */\n      mstore\n        /* \"#utility.yul\":22254:22411   */\n      pop\n      pop\n      jump\t// out\n        /* \"#utility.yul\":22417:22833   */\n    tag_178:\n        /* \"#utility.yul\":22577:22580   */\n      0x00\n        /* \"#utility.yul\":22599:22694   */\n      tag_527\n        /* \"#utility.yul\":22690:22693   */\n      dup3\n        /* \"#utility.yul\":22681:22687   */\n      dup6\n        /* \"#utility.yul\":22599:22694   */\n      tag_268\n      jump\t// in\n    tag_527:\n        /* \"#utility.yul\":22592:22694   */\n      swap2\n      pop\n        /* \"#utility.yul\":22704:22779   */\n      tag_528\n        /* \"#utility.yul\":22775:22778   */\n      dup3\n        /* \"#utility.yul\":22766:22772   */\n      dup5\n        /* \"#utility.yul\":22704:22779   */\n      tag_270\n      jump\t// in\n    tag_528:\n        /* \"#utility.yul\":22804:22806   */\n      0x20\n        /* \"#utility.yul\":22799:22802   */\n      dup3\n        /* \"#utility.yul\":22795:22807   */\n      add\n        /* \"#utility.yul\":22788:22807   */\n      swap2\n      pop\n        /* \"#utility.yul\":22824:22827   */\n      dup2\n        /* \"#utility.yul\":22817:22827   */\n      swap1\n      pop\n        /* \"#utility.yul\":22417:22833   */\n      swap4\n      swap3\n      pop\n      pop\n      pop\n      jump\t// out\n        /* \"#utility.yul\":22839:23015   */\n    tag_180:\n        /* \"#utility.yul\":22871:22872   */\n      0x00\n        /* \"#utility.yul\":22888:22908   */\n      tag_530\n        /* \"#utility.yul\":22906:22907   */\n      dup3\n        /* \"#utility.yul\":22888:22908   */\n      tag_198\n      jump\t// in\n    tag_530:\n        /* \"#utility.yul\":22883:22908   */\n      swap2\n      pop\n        /* \"#utility.yul\":22922:22942   */\n      tag_531\n        /* \"#utility.yul\":22940:22941   */\n      dup4\n        /* \"#utility.yul\":22922:22942   */\n      tag_198\n      jump\t// in\n    tag_531:\n        /* \"#utility.yul\":22917:22942   */\n      swap3\n      pop\n        /* \"#utility.yul\":22961:22962   */\n      dup3\n        /* \"#utility.yul\":22951:22986   */\n      tag_532\n      jumpi\n        /* \"#utility.yul\":22966:22984   */\n      tag_533\n      tag_266\n      jump\t// in\n    tag_533:\n        /* \"#utility.yul\":22951:22986   */\n    tag_532:\n        /* \"#utility.yul\":23007:23008   */\n      dup3\n        /* \"#utility.yul\":23004:23005   */\n      dup3\n        /* \"#utility.yul\":23000:23009   */\n      mod\n        /* \"#utility.yul\":22995:23009   */\n      swap1\n      pop\n        /* \"#utility.yul\":22839:23015   */\n      swap3\n      swap2\n      pop\n      pop\n      jump\t// out\n        /* \"#utility.yul\":23021:24416   */\n    tag_184:\n        /* \"#utility.yul\":23138:23175   */\n      tag_535\n        /* \"#utility.yul\":23171:23174   */\n      dup3\n        /* \"#utility.yul\":23138:23175   */\n      tag_222\n      jump\t// in\n    tag_535:\n        /* \"#utility.yul\":23240:23258   */\n      0xffffffffffffffff\n        /* \"#utility.yul\":23232:23238   */\n      dup2\n        /* \"#utility.yul\":23229:23259   */\n      gt\n        /* \"#utility.yul\":23226:23282   */\n      iszero\n      tag_536\n      jumpi\n        /* \"#utility.yul\":23262:23280   */\n      tag_537\n      tag_125\n      jump\t// in\n    tag_537:\n        /* \"#utility.yul\":23226:23282   */\n    tag_536:\n        /* \"#utility.yul\":23306:23344   */\n      tag_538\n        /* \"#utility.yul\":23338:23342   */\n      dup3\n        /* \"#utility.yul\":23332:23343   */\n      sload\n        /* \"#utility.yul\":23306:23344   */\n      tag_139\n      jump\t// in\n    tag_538:\n        /* \"#utility.yul\":23391:23458   */\n      tag_539\n        /* \"#utility.yul\":23451:23457   */\n      dup3\n        /* \"#utility.yul\":23443:23449   */\n      dup3\n        /* \"#utility.yul\":23437:23441   */\n      dup6\n        /* \"#utility.yul\":23391:23458   */\n      tag_260\n      jump\t// in\n    tag_539:\n        /* \"#utility.yul\":23485:23486   */\n      0x00\n        /* \"#utility.yul\":23509:23513   */\n      0x20\n        /* \"#utility.yul\":23496:23513   */\n      swap1\n      pop\n        /* \"#utility.yul\":23541:23543   */\n      0x1f\n        /* \"#utility.yul\":23533:23539   */\n      dup4\n        /* \"#utility.yul\":23530:23544   */\n      gt\n        /* \"#utility.yul\":23558:23559   */\n      0x01\n        /* \"#utility.yul\":23553:24171   */\n      dup2\n      eq\n      tag_541\n      jumpi\n        /* \"#utility.yul\":24215:24216   */\n      0x00\n        /* \"#utility.yul\":24232:24238   */\n      dup5\n        /* \"#utility.yul\":24229:24306   */\n      iszero\n      tag_542\n      jumpi\n        /* \"#utility.yul\":24281:24290   */\n      dup3\n        /* \"#utility.yul\":24276:24279   */\n      dup8\n        /* \"#utility.yul\":24272:24291   */\n      add\n        /* \"#utility.yul\":24266:24292   */\n      mload\n        /* \"#utility.yul\":24257:24292   */\n      swap1\n      pop\n        /* \"#utility.yul\":24229:24306   */\n    tag_542:\n        /* \"#utility.yul\":24332:24399   */\n      tag_543\n        /* \"#utility.yul\":24392:24398   */\n      dup6\n        /* \"#utility.yul\":24385:24390   */\n      dup3\n        /* \"#utility.yul\":24332:24399   */\n      tag_263\n      jump\t// in\n    tag_543:\n        /* \"#utility.yul\":24326:24330   */\n      dup7\n        /* \"#utility.yul\":24319:24400   */\n      sstore\n        /* \"#utility.yul\":24188:24410   */\n      pop\n        /* \"#utility.yul\":23523:24410   */\n      jump(tag_540)\n        /* \"#utility.yul\":23553:24171   */\n    tag_541:\n        /* \"#utility.yul\":23605:23609   */\n      0x1f\n        /* \"#utility.yul\":23601:23610   */\n      not\n        /* \"#utility.yul\":23593:23599   */\n      dup5\n        /* \"#utility.yul\":23589:23611   */\n      and\n        /* \"#utility.yul\":23639:23676   */\n      tag_544\n        /* \"#utility.yul\":23671:23675   */\n      dup7\n        /* \"#utility.yul\":23639:23676   */\n      tag_249\n      jump\t// in\n    tag_544:\n        /* \"#utility.yul\":23698:23699   */\n      0x00\n        /* \"#utility.yul\":23712:23920   */\n    tag_545:\n        /* \"#utility.yul\":23726:23733   */\n      dup3\n        /* \"#utility.yul\":23723:23724   */\n      dup2\n        /* \"#utility.yul\":23720:23734   */\n      lt\n        /* \"#utility.yul\":23712:23920   */\n      iszero\n      tag_547\n      jumpi\n        /* \"#utility.yul\":23805:23814   */\n      dup5\n        /* \"#utility.yul\":23800:23803   */\n      dup10\n        /* \"#utility.yul\":23796:23815   */\n      add\n        /* \"#utility.yul\":23790:23816   */\n      mload\n        /* \"#utility.yul\":23782:23788   */\n      dup3\n        /* \"#utility.yul\":23775:23817   */\n      sstore\n        /* \"#utility.yul\":23856:23857   */\n      0x01\n        /* \"#utility.yul\":23848:23854   */\n      dup3\n        /* \"#utility.yul\":23844:23858   */\n      add\n        /* \"#utility.yul\":23834:23858   */\n      swap2\n      pop\n        /* \"#utility.yul\":23903:23905   */\n      0x20\n        /* \"#utility.yul\":23892:23901   */\n      dup6\n        /* \"#utility.yul\":23888:23906   */\n      add\n        /* \"#utility.yul\":23875:23906   */\n      swap5\n      pop\n        /* \"#utility.yul\":23749:23753   */\n      0x20\n        /* \"#utility.yul\":23746:23747   */\n      dup2\n        /* \"#utility.yul\":23742:23754   */\n      add\n        /* \"#utility.yul\":23737:23754   */\n      swap1\n      pop\n        /* \"#utility.yul\":23712:23920   */\n      jump(tag_545)\n    tag_547:\n        /* \"#utility.yul\":23948:23954   */\n      dup7\n        /* \"#utility.yul\":23939:23946   */\n      dup4\n        /* \"#utility.yul\":23936:23955   */\n      lt\n        /* \"#utility.yul\":23933:24112   */\n      iszero\n      tag_548\n      jumpi\n        /* \"#utility.yul\":24006:24015   */\n      dup5\n        /* \"#utility.yul\":24001:24004   */\n      dup10\n        /* \"#utility.yul\":23997:24016   */\n      add\n        /* \"#utility.yul\":23991:24017   */\n      mload\n        /* \"#utility.yul\":24049:24097   */\n      tag_549\n        /* \"#utility.yul\":24091:24095   */\n      0x1f\n        /* \"#utility.yul\":24083:24089   */\n      dup10\n        /* \"#utility.yul\":24079:24096   */\n      and\n        /* \"#utility.yul\":24068:24077   */\n      dup3\n        /* \"#utility.yul\":24049:24097   */\n      tag_262\n      jump\t// in\n    tag_549:\n        /* \"#utility.yul\":24041:24047   */\n      dup4\n        /* \"#utility.yul\":24034:24098   */\n      sstore\n        /* \"#utility.yul\":23956:24112   */\n      pop\n        /* \"#utility.yul\":23933:24112   */\n    tag_548:\n        /* \"#utility.yul\":24158:24159   */\n      0x01\n        /* \"#utility.yul\":24154:24155   */\n      0x02\n        /* \"#utility.yul\":24146:24152   */\n      dup9\n        /* \"#utility.yul\":24142:24156   */\n      mul\n        /* \"#utility.yul\":24138:24160   */\n      add\n        /* \"#utility.yul\":24132:24136   */\n      dup9\n        /* \"#utility.yul\":24125:24161   */\n      sstore\n        /* \"#utility.yul\":23560:24171   */\n      pop\n      pop\n      pop\n        /* \"#utility.yul\":23523:24410   */\n    tag_540:\n      pop\n        /* \"#utility.yul\":23113:24416   */\n      pop\n      pop\n      pop\n        /* \"#utility.yul\":23021:24416   */\n      pop\n      pop\n      jump\t// out\n        /* \"#utility.yul\":24422:24616   */\n    tag_186:\n        /* \"#utility.yul\":24462:24466   */\n      0x00\n        /* \"#utility.yul\":24482:24502   */\n      tag_551\n        /* \"#utility.yul\":24500:24501   */\n      dup3\n        /* \"#utility.yul\":24482:24502   */\n      tag_198\n      jump\t// in\n    tag_551:\n        /* \"#utility.yul\":24477:24502   */\n      swap2\n      pop\n        /* \"#utility.yul\":24516:24536   */\n      tag_552\n        /* \"#utility.yul\":24534:24535   */\n      dup4\n        /* \"#utility.yul\":24516:24536   */\n      tag_198\n      jump\t// in\n    tag_552:\n        /* \"#utility.yul\":24511:24536   */\n      swap3\n      pop\n        /* \"#utility.yul\":24560:24561   */\n      dup3\n        /* \"#utility.yul\":24557:24558   */\n      dup3\n        /* \"#utility.yul\":24553:24562   */\n      sub\n        /* \"#utility.yul\":24545:24562   */\n      swap1\n      pop\n        /* \"#utility.yul\":24584:24585   */\n      dup2\n        /* \"#utility.yul\":24578:24582   */\n      dup2\n        /* \"#utility.yul\":24575:24586   */\n      gt\n        /* \"#utility.yul\":24572:24609   */\n      iszero\n      tag_553\n      jumpi\n        /* \"#utility.yul\":24589:24607   */\n      tag_554\n      tag_244\n      jump\t// in\n    tag_554:\n        /* \"#utility.yul\":24572:24609   */\n    tag_553:\n        /* \"#utility.yul\":24422:24616   */\n      swap3\n      swap2\n      pop\n      pop\n      jump\t// out\n        /* \"#utility.yul\":24622:24762   */\n    tag_271:\n        /* \"#utility.yul\":24671:24680   */\n      0x00\n        /* \"#utility.yul\":24704:24756   */\n      tag_556\n        /* \"#utility.yul\":24722:24755   */\n      tag_557\n        /* \"#utility.yul\":24731:24754   */\n      tag_558\n        /* \"#utility.yul\":24748:24753   */\n      dup5\n        /* \"#utility.yul\":24731:24754   */\n      tag_227\n      jump\t// in\n    tag_558:\n        /* \"#utility.yul\":24722:24755   */\n      tag_253\n      jump\t// in\n    tag_557:\n        /* \"#utility.yul\":24704:24756   */\n      tag_198\n      jump\t// in\n    tag_556:\n        /* \"#utility.yul\":24691:24756   */\n      swap1\n      pop\n        /* \"#utility.yul\":24622:24762   */\n      swap2\n      swap1\n      pop\n      jump\t// out\n        /* \"#utility.yul\":24768:24897   */\n    tag_272:\n        /* \"#utility.yul\":24854:24890   */\n      tag_560\n        /* \"#utility.yul\":24884:24889   */\n      dup2\n        /* \"#utility.yul\":24854:24890   */\n      tag_271\n      jump\t// in\n    tag_560:\n        /* \"#utility.yul\":24849:24852   */\n      dup3\n        /* \"#utility.yul\":24842:24891   */\n      mstore\n        /* \"#utility.yul\":24768:24897   */\n      pop\n      pop\n      jump\t// out\n        /* \"#utility.yul\":24903:25434   */\n    tag_191:\n        /* \"#utility.yul\":25071:25075   */\n      0x00\n        /* \"#utility.yul\":25109:25111   */\n      0x60\n        /* \"#utility.yul\":25098:25107   */\n      dup3\n        /* \"#utility.yul\":25094:25112   */\n      add\n        /* \"#utility.yul\":25086:25112   */\n      swap1\n      pop\n        /* \"#utility.yul\":25122:25193   */\n      tag_562\n        /* \"#utility.yul\":25190:25191   */\n      0x00\n        /* \"#utility.yul\":25179:25188   */\n      dup4\n        /* \"#utility.yul\":25175:25192   */\n      add\n        /* \"#utility.yul\":25166:25172   */\n      dup7\n        /* \"#utility.yul\":25122:25193   */\n      tag_199\n      jump\t// in\n    tag_562:\n        /* \"#utility.yul\":25240:25249   */\n      dup2\n        /* \"#utility.yul\":25234:25238   */\n      dup2\n        /* \"#utility.yul\":25230:25250   */\n      sub\n        /* \"#utility.yul\":25225:25227   */\n      0x20\n        /* \"#utility.yul\":25214:25223   */\n      dup4\n        /* \"#utility.yul\":25210:25228   */\n      add\n        /* \"#utility.yul\":25203:25251   */\n      mstore\n        /* \"#utility.yul\":25268:25346   */\n      tag_563\n        /* \"#utility.yul\":25341:25345   */\n      dup2\n        /* \"#utility.yul\":25332:25338   */\n      dup6\n        /* \"#utility.yul\":25268:25346   */\n      tag_226\n      jump\t// in\n    tag_563:\n        /* \"#utility.yul\":25260:25346   */\n      swap1\n      pop\n        /* \"#utility.yul\":25356:25427   */\n      tag_564\n        /* \"#utility.yul\":25423:25425   */\n      0x40\n        /* \"#utility.yul\":25412:25421   */\n      dup4\n        /* \"#utility.yul\":25408:25426   */\n      add\n        /* \"#utility.yul\":25399:25405   */\n      dup5\n        /* \"#utility.yul\":25356:25427   */\n      tag_272\n      jump\t// in\n    tag_564:\n        /* \"#utility.yul\":24903:25434   */\n      swap5\n      swap4\n      pop\n      pop\n      pop\n      pop\n      jump\t// out\n        /* \"#utility.yul\":25440:25631   */\n    tag_194:\n        /* \"#utility.yul\":25480:25483   */\n      0x00\n        /* \"#utility.yul\":25499:25519   */\n      tag_566\n        /* \"#utility.yul\":25517:25518   */\n      dup3\n        /* \"#utility.yul\":25499:25519   */\n      tag_198\n      jump\t// in\n    tag_566:\n        /* \"#utility.yul\":25494:25519   */\n      swap2\n      pop\n        /* \"#utility.yul\":25533:25553   */\n      tag_567\n        /* \"#utility.yul\":25551:25552   */\n      dup4\n        /* \"#utility.yul\":25533:25553   */\n      tag_198\n      jump\t// in\n    tag_567:\n        /* \"#utility.yul\":25528:25553   */\n      swap3\n      pop\n        /* \"#utility.yul\":25576:25577   */\n      dup3\n        /* \"#utility.yul\":25573:25574   */\n      dup3\n        /* \"#utility.yul\":25569:25578   */\n      add\n        /* \"#utility.yul\":25562:25578   */\n      swap1\n      pop\n        /* \"#utility.yul\":25597:25600   */\n      dup1\n        /* \"#utility.yul\":25594:25595   */\n      dup3\n        /* \"#utility.yul\":25591:25601   */\n      gt\n        /* \"#utility.yul\":25588:25624   */\n      iszero\n      tag_568\n      jumpi\n        /* \"#utility.yul\":25604:25622   */\n      tag_569\n      tag_244\n      jump\t// in\n    tag_569:\n        /* \"#utility.yul\":25588:25624   */\n    tag_568:\n        /* \"#utility.yul\":25440:25631   */\n      swap3\n      swap2\n      pop\n      pop\n      jump\t// out\n        /* \"#utility.yul\":25637:25817   */\n    tag_197:\n        /* \"#utility.yul\":25685:25762   */\n      0x4e487b7100000000000000000000000000000000000000000000000000000000\n        /* \"#utility.yul\":25682:25683   */\n      0x00\n        /* \"#utility.yul\":25675:25763   */\n      mstore\n        /* \"#utility.yul\":25782:25786   */\n      0x01\n        /* \"#utility.yul\":25779:25780   */\n      0x04\n        /* \"#utility.yul\":25772:25787   */\n      mstore\n        /* \"#utility.yul\":25806:25810   */\n      0x24\n        /* \"#utility.yul\":25803:25804   */\n      0x00\n        /* \"#utility.yul\":25796:25811   */\n      revert\n\n    auxdata: 0xa2646970667358221220b90c17c7fbfece919079c2b9e163f553dbb798240136df0b2d0d36113572679164736f6c63430008110033\n}\n",
				"bytecode": {
					"linkReferences": {},
					"object": "608060405260008060146101000a81548160ff0219169083151502179055506010600155600154600a6200003491906200023a565b60025562015180600355662386f26fc10000600455600060055566038d7ea4c68000600a553480156200006657600080fd5b50336000806101000a81548173ffffffffffffffffffffffffffffffffffffffff021916908373ffffffffffffffffffffffffffffffffffffffff1602179055506200028b565b7f4e487b7100000000000000000000000000000000000000000000000000000000600052601160045260246000fd5b60008160011c9050919050565b6000808291508390505b60018511156200013b57808604811115620001135762000112620000ad565b5b6001851615620001235780820291505b80810290506200013385620000dc565b9450620000f3565b94509492505050565b60008262000156576001905062000229565b8162000166576000905062000229565b81600181146200017f57600281146200018a57620001c0565b600191505062000229565b60ff8411156200019f576200019e620000ad565b5b8360020a915084821115620001b957620001b8620000ad565b5b5062000229565b5060208310610133831016604e8410600b8410161715620001fa5782820a905083811115620001f457620001f3620000ad565b5b62000229565b620002098484846001620000e9565b92509050818404811115620002235762000222620000ad565b5b81810290505b9392505050565b6000819050919050565b6000620002478262000230565b9150620002548362000230565b9250620002837fffffffffffffffffffffffffffffffffffffffffffffffffffffffffffffffff848462000144565b905092915050565b611f06806200029b6000396000f3fe6080604052600436106100e85760003560e01c80635e0b86541161008a578063b319c6b711610059578063b319c6b7146102ec578063e7eb121414610317578063f2fde38b14610340578063f94f059314610369576100e8565b80635e0b8654146102195780636de2e36c1461025b5780638da5cb5b14610298578063a38d7e5b146102c3576100e8565b8063270dc9fd116100c6578063270dc9fd1461015f5780633a42c900146101885780633ece8f6f146101b157806343d5d022146101dc576100e8565b806302f4db2f146100ed578063206c8db414610118578063227c59e614610143575b600080fd5b3480156100f957600080fd5b50610102610385565b60405161010f9190611049565b60405180910390f35b34801561012457600080fd5b5061012d61038b565b60405161013a919061107f565b60405180910390f35b61015d600480360381019061015891906110da565b61039e565b005b34801561016b57600080fd5b506101866004803603810190610181919061116c565b61044a565b005b34801561019457600080fd5b506101af60048036038101906101aa91906110da565b6105aa565b005b3480156101bd57600080fd5b506101c6610642565b6040516101d39190611049565b60405180910390f35b3480156101e857600080fd5b5061020360048036038101906101fe919061122a565b610648565b6040516102109190611315565b60405180910390f35b34801561022557600080fd5b50610240600480360381019061023b91906110da565b61079a565b60405161025296959493929190611403565b60405180910390f35b34801561026757600080fd5b50610282600480360381019061027d91906110da565b6108b8565b60405161028f919061147a565b60405180910390f35b3480156102a457600080fd5b506102ad6108eb565b6040516102ba919061147a565b60405180910390f35b3480156102cf57600080fd5b506102ea60048036038101906102e591906115c5565b61090f565b005b3480156102f857600080fd5b506103016109c6565b60405161030e9190611049565b60405180910390f35b34801561032357600080fd5b5061033e600480360381019061033991906110da565b6109cc565b005b34801561034c57600080fd5b506103676004803603810190610362919061164c565b610a64565b005b610383600480360381019061037e91906115c5565b610c1e565b005b60055481565b600060149054906101000a900460ff1681565b600a543410156103e3576040517f08c379a00000000000000000000000000000000000000000000000000000000081526004016103da906116c5565b60405180910390fd5b600681815481106103f7576103f66116e5565b5b9060005260206000209060020201600101600681819054906101000a900463ffffffff168092919061042890611743565b91906101000a81548163ffffffff021916908363ffffffff1602179055505050565b6002818160068281548110610462576104616116e5565b5b906000526020600020906002020160010160069054906101000a900463ffffffff1663ffffffff1610156104cb576040517f08c379a00000000000000000000000000000000000000000000000000000000081526004016104c2906117bb565b60405180910390fd5b826007600082815260200190815260200160002060009054906101000a900473ffffffffffffffffffffffffffffffffffffffff1673ffffffffffffffffffffffffffffffffffffffff163373ffffffffffffffffffffffffffffffffffffffff161461056d576040517f08c379a0000000000000000000000000000000000000000000000000000000008152600401610564906117bb565b60405180910390fd5b858560068681548110610583576105826116e5565b5b906000526020600020906002020160000191826105a19291906119f2565b50505050505050565b60008054906101000a900473ffffffffffffffffffffffffffffffffffffffff1673ffffffffffffffffffffffffffffffffffffffff163373ffffffffffffffffffffffffffffffffffffffff1614610638576040517f08c379a000000000000000000000000000000000000000000000000000000000815260040161062f90611b0e565b60405180910390fd5b80600a8190555050565b60045481565b60606000600860008473ffffffffffffffffffffffffffffffffffffffff1673ffffffffffffffffffffffffffffffffffffffff1681526020019081526020016000205467ffffffffffffffff8111156106a5576106a461149a565b5b6040519080825280602002602001820160405280156106d35781602001602082028036833780820191505090505b5090506000805b60068054905081101561078f578473ffffffffffffffffffffffffffffffffffffffff166007600083815260200190815260200160002060009054906101000a900473ffffffffffffffffffffffffffffffffffffffff1673ffffffffffffffffffffffffffffffffffffffff160361077c5780838381518110610761576107606116e5565b5b602002602001018181525050818061077890611b2e565b9250505b808061078790611b2e565b9150506106da565b508192505050919050565b600681815481106107aa57600080fd5b90600052602060002090600202016000915090508060000180546107cd90611815565b80601f01602080910402602001604051908101604052809291908181526020018280546107f990611815565b80156108465780601f1061081b57610100808354040283529160200191610846565b820191906000526020600020905b81548152906001019060200180831161082957829003601f168201915b5050505050908060010160009054906101000a900461ffff16908060010160029054906101000a900461ffff16908060010160049054906101000a900461ffff16908060010160069054906101000a900463ffffffff169080600101600a9054906101000a900463ffffffff16905086565b60076020528060005260406000206000915054906101000a900473ffffffffffffffffffffffffffffffffffffffff1681565b60008054906101000a900473ffffffffffffffffffffffffffffffffffffffff1681565b6000600860003373ffffffffffffffffffffffffffffffffffffffff1673ffffffffffffffffffffffffffffffffffffffff1681526020019081526020016000205414610991576040517f08c379a0000000000000000000000000000000000000000000000000000000008152600401610988906117bb565b60405180910390fd5b600061099c82610d25565b9050600a816109ab9190611ba5565b816109b69190611bd6565b90506109c28282610d67565b5050565b60035481565b60008054906101000a900473ffffffffffffffffffffffffffffffffffffffff1673ffffffffffffffffffffffffffffffffffffffff163373ffffffffffffffffffffffffffffffffffffffff1614610a5a576040517f08c379a0000000000000000000000000000000000000000000000000000000008152600401610a5190611b0e565b60405180910390fd5b8060048190555050565b60008054906101000a900473ffffffffffffffffffffffffffffffffffffffff1673ffffffffffffffffffffffffffffffffffffffff163373ffffffffffffffffffffffffffffffffffffffff1614610af2576040517f08c379a0000000000000000000000000000000000000000000000000000000008152600401610ae990611b0e565b60405180910390fd5b600073ffffffffffffffffffffffffffffffffffffffff168173ffffffffffffffffffffffffffffffffffffffff1603610b61576040517f08c379a0000000000000000000000000000000000000000000000000000000008152600401610b5890611b0e565b60405180910390fd5b8073ffffffffffffffffffffffffffffffffffffffff1660008054906101000a900473ffffffffffffffffffffffffffffffffffffffff1673ffffffffffffffffffffffffffffffffffffffff167f8be0079c531659141344cd1fd0a4f28419497f9722a3daafe3b4186f6b6457e060405160405180910390a3806000806101000a81548173ffffffffffffffffffffffffffffffffffffffff021916908373ffffffffffffffffffffffffffffffffffffffff16021790555050565b6000600860003373ffffffffffffffffffffffffffffffffffffffff1673ffffffffffffffffffffffffffffffffffffffff1681526020019081526020016000205411610ca0576040517f08c379a0000000000000000000000000000000000000000000000000000000008152600401610c97906117bb565b60405180910390fd5b6004543411610ce4576040517f08c379a0000000000000000000000000000000000000000000000000000000008152600401610cdb906117bb565b60405180910390fd5b6000610cef82610d25565b90506001600a82610d009190611ba5565b82610d0b9190611bd6565b610d159190611c0c565b9050610d218282610d67565b5050565b60006002548242604051602001610d3d929190611c9f565b6040516020818303038152906040528051906020012060001c610d609190611cc7565b9050919050565b60066040518060c001604052808481526020018361ffff168152602001600061ffff168152602001600061ffff168152602001600163ffffffff168152602001600063ffffffff1681525090806001815401808255809150506001900390600052602060002090600202016000909190919091506000820151816000019081610df09190611cf8565b5060208201518160010160006101000a81548161ffff021916908361ffff16021790555060408201518160010160026101000a81548161ffff021916908361ffff16021790555060608201518160010160046101000a81548161ffff021916908361ffff16021790555060808201518160010160066101000a81548163ffffffff021916908363ffffffff16021790555060a082015181600101600a6101000a81548163ffffffff021916908363ffffffff160217905550505060006001600680549050610ebe9190611dca565b9050336007600083815260200190815260200160002060006101000a81548173ffffffffffffffffffffffffffffffffffffffff021916908373ffffffffffffffffffffffffffffffffffffffff160217905550610f656001600860003373ffffffffffffffffffffffffffffffffffffffff1673ffffffffffffffffffffffffffffffffffffffff1681526020019081526020016000205461100490919063ffffffff16565b600860003373ffffffffffffffffffffffffffffffffffffffff1673ffffffffffffffffffffffffffffffffffffffff16815260200190815260200160002081905550610fbe600160055461100490919063ffffffff16565b6005819055507fffb2fb18e6d3ec7ef368d2f329ef22f9431aaebe0fcbc9282d7770949ac8cd31818484604051610ff793929190611e2f565b60405180910390a1505050565b60008082846110139190611e6d565b90508381101561102657611025611ea1565b5b8091505092915050565b6000819050919050565b61104381611030565b82525050565b600060208201905061105e600083018461103a565b92915050565b60008115159050919050565b61107981611064565b82525050565b60006020820190506110946000830184611070565b92915050565b6000604051905090565b600080fd5b600080fd5b6110b781611030565b81146110c257600080fd5b50565b6000813590506110d4816110ae565b92915050565b6000602082840312156110f0576110ef6110a4565b5b60006110fe848285016110c5565b91505092915050565b600080fd5b600080fd5b600080fd5b60008083601f84011261112c5761112b611107565b5b8235905067ffffffffffffffff8111156111495761114861110c565b5b60208301915083600182028301111561116557611164611111565b5b9250929050565b600080600060408486031215611185576111846110a4565b5b600084013567ffffffffffffffff8111156111a3576111a26110a9565b5b6111af86828701611116565b935093505060206111c2868287016110c5565b9150509250925092565b600073ffffffffffffffffffffffffffffffffffffffff82169050919050565b60006111f7826111cc565b9050919050565b611207816111ec565b811461121257600080fd5b50565b600081359050611224816111fe565b92915050565b6000602082840312156112405761123f6110a4565b5b600061124e84828501611215565b91505092915050565b600081519050919050565b600082825260208201905092915050565b6000819050602082019050919050565b61128c81611030565b82525050565b600061129e8383611283565b60208301905092915050565b6000602082019050919050565b60006112c282611257565b6112cc8185611262565b93506112d783611273565b8060005b838110156113085781516112ef8882611292565b97506112fa836112aa565b9250506001810190506112db565b5085935050505092915050565b6000602082019050818103600083015261132f81846112b7565b905092915050565b600081519050919050565b600082825260208201905092915050565b60005b83811015611371578082015181840152602081019050611356565b60008484015250505050565b6000601f19601f8301169050919050565b600061139982611337565b6113a38185611342565b93506113b3818560208601611353565b6113bc8161137d565b840191505092915050565b600061ffff82169050919050565b6113de816113c7565b82525050565b600063ffffffff82169050919050565b6113fd816113e4565b82525050565b600060c082019050818103600083015261141d818961138e565b905061142c60208301886113d5565b61143960408301876113d5565b61144660608301866113d5565b61145360808301856113f4565b61146060a08301846113f4565b979650505050505050565b611474816111ec565b82525050565b600060208201905061148f600083018461146b565b92915050565b600080fd5b7f4e487b7100000000000000000000000000000000000000000000000000000000600052604160045260246000fd5b6114d28261137d565b810181811067ffffffffffffffff821117156114f1576114f061149a565b5b80604052505050565b600061150461109a565b905061151082826114c9565b919050565b600067ffffffffffffffff8211156115305761152f61149a565b5b6115398261137d565b9050602081019050919050565b82818337600083830152505050565b600061156861156384611515565b6114fa565b90508281526020810184848401111561158457611583611495565b5b61158f848285611546565b509392505050565b600082601f8301126115ac576115ab611107565b5b81356115bc848260208601611555565b91505092915050565b6000602082840312156115db576115da6110a4565b5b600082013567ffffffffffffffff8111156115f9576115f86110a9565b5b61160584828501611597565b91505092915050565b6000611619826111cc565b9050919050565b6116298161160e565b811461163457600080fd5b50565b60008135905061164681611620565b92915050565b600060208284031215611662576116616110a4565b5b600061167084828501611637565b91505092915050565b7f7364660000000000000000000000000000000000000000000000000000000000600082015250565b60006116af600383611342565b91506116ba82611679565b602082019050919050565b600060208201905081810360008301526116de816116a2565b9050919050565b7f4e487b7100000000000000000000000000000000000000000000000000000000600052603260045260246000fd5b7f4e487b7100000000000000000000000000000000000000000000000000000000600052601160045260246000fd5b600061174e826113e4565b915063ffffffff820361176457611763611714565b5b600182019050919050565b7f6572726f72000000000000000000000000000000000000000000000000000000600082015250565b60006117a5600583611342565b91506117b08261176f565b602082019050919050565b600060208201905081810360008301526117d481611798565b9050919050565b600082905092915050565b7f4e487b7100000000000000000000000000000000000000000000000000000000600052602260045260246000fd5b6000600282049050600182168061182d57607f821691505b6020821081036118405761183f6117e6565b5b50919050565b60008190508160005260206000209050919050565b60006020601f8301049050919050565b600082821b905092915050565b6000600883026118a87fffffffffffffffffffffffffffffffffffffffffffffffffffffffffffffffff8261186b565b6118b2868361186b565b95508019841693508086168417925050509392505050565b6000819050919050565b60006118ef6118ea6118e584611030565b6118ca565b611030565b9050919050565b6000819050919050565b611909836118d4565b61191d611915826118f6565b848454611878565b825550505050565b600090565b611932611925565b61193d818484611900565b505050565b5b818110156119615761195660008261192a565b600181019050611943565b5050565b601f8211156119a65761197781611846565b6119808461185b565b8101602085101561198f578190505b6119a361199b8561185b565b830182611942565b50505b505050565b600082821c905092915050565b60006119c9600019846008026119ab565b1980831691505092915050565b60006119e283836119b8565b9150826002028217905092915050565b6119fc83836117db565b67ffffffffffffffff811115611a1557611a1461149a565b5b611a1f8254611815565b611a2a828285611965565b6000601f831160018114611a595760008415611a47578287013590505b611a5185826119d6565b865550611ab9565b601f198416611a6786611846565b60005b82811015611a8f57848901358255600182019150602085019450602081019050611a6a565b86831015611aac5784890135611aa8601f8916826119b8565b8355505b6001600288020188555050505b50505050505050565b7f4d75737420636f6e7472616374206f776e657200000000000000000000000000600082015250565b6000611af8601383611342565b9150611b0382611ac2565b602082019050919050565b60006020820190508181036000830152611b2781611aeb565b9050919050565b6000611b3982611030565b91507fffffffffffffffffffffffffffffffffffffffffffffffffffffffffffffffff8203611b6b57611b6a611714565b5b600182019050919050565b7f4e487b7100000000000000000000000000000000000000000000000000000000600052601260045260246000fd5b6000611bb0826113c7565b9150611bbb836113c7565b925082611bcb57611bca611b76565b5b828206905092915050565b6000611be1826113c7565b9150611bec836113c7565b9250828203905061ffff811115611c0657611c05611714565b5b92915050565b6000611c17826113c7565b9150611c22836113c7565b9250828201905061ffff811115611c3c57611c3b611714565b5b92915050565b600081905092915050565b6000611c5882611337565b611c628185611c42565b9350611c72818560208601611353565b80840191505092915050565b6000819050919050565b611c99611c9482611030565b611c7e565b82525050565b6000611cab8285611c4d565b9150611cb78284611c88565b6020820191508190509392505050565b6000611cd282611030565b9150611cdd83611030565b925082611ced57611cec611b76565b5b828206905092915050565b611d0182611337565b67ffffffffffffffff811115611d1a57611d1961149a565b5b611d248254611815565b611d2f828285611965565b600060209050601f831160018114611d625760008415611d50578287015190505b611d5a85826119d6565b865550611dc2565b601f198416611d7086611846565b60005b82811015611d9857848901518255600182019150602085019450602081019050611d73565b86831015611db55784890151611db1601f8916826119b8565b8355505b6001600288020188555050505b505050505050565b6000611dd582611030565b9150611de083611030565b9250828203905081811115611df857611df7611714565b5b92915050565b6000611e19611e14611e0f846113c7565b6118ca565b611030565b9050919050565b611e2981611dfe565b82525050565b6000606082019050611e44600083018661103a565b8181036020830152611e56818561138e565b9050611e656040830184611e20565b949350505050565b6000611e7882611030565b9150611e8383611030565b9250828201905080821115611e9b57611e9a611714565b5b92915050565b7f4e487b7100000000000000000000000000000000000000000000000000000000600052600160045260246000fdfea2646970667358221220b90c17c7fbfece919079c2b9e163f553dbb798240136df0b2d0d36113572679164736f6c63430008110033",
					"opcodes": "PUSH1 0x80 PUSH1 0x40 MSTORE PUSH1 0x0 DUP1 PUSH1 0x14 PUSH2 0x100 EXP DUP2 SLOAD DUP2 PUSH1 0xFF MUL NOT AND SWAP1 DUP4 ISZERO ISZERO MUL OR SWAP1 SSTORE POP PUSH1 0x10 PUSH1 0x1 SSTORE PUSH1 0x1 SLOAD PUSH1 0xA PUSH3 0x34 SWAP2 SWAP1 PUSH3 0x23A JUMP JUMPDEST PUSH1 0x2 SSTORE PUSH3 0x15180 PUSH1 0x3 SSTORE PUSH7 0x2386F26FC10000 PUSH1 0x4 SSTORE PUSH1 0x0 PUSH1 0x5 SSTORE PUSH7 0x38D7EA4C68000 PUSH1 0xA SSTORE CALLVALUE DUP1 ISZERO PUSH3 0x66 JUMPI PUSH1 0x0 DUP1 REVERT JUMPDEST POP CALLER PUSH1 0x0 DUP1 PUSH2 0x100 EXP DUP2 SLOAD DUP2 PUSH20 0xFFFFFFFFFFFFFFFFFFFFFFFFFFFFFFFFFFFFFFFF MUL NOT AND SWAP1 DUP4 PUSH20 0xFFFFFFFFFFFFFFFFFFFFFFFFFFFFFFFFFFFFFFFF AND MUL OR SWAP1 SSTORE POP PUSH3 0x28B JUMP JUMPDEST PUSH32 0x4E487B7100000000000000000000000000000000000000000000000000000000 PUSH1 0x0 MSTORE PUSH1 0x11 PUSH1 0x4 MSTORE PUSH1 0x24 PUSH1 0x0 REVERT JUMPDEST PUSH1 0x0 DUP2 PUSH1 0x1 SHR SWAP1 POP SWAP2 SWAP1 POP JUMP JUMPDEST PUSH1 0x0 DUP1 DUP3 SWAP2 POP DUP4 SWAP1 POP JUMPDEST PUSH1 0x1 DUP6 GT ISZERO PUSH3 0x13B JUMPI DUP1 DUP7 DIV DUP2 GT ISZERO PUSH3 0x113 JUMPI PUSH3 0x112 PUSH3 0xAD JUMP JUMPDEST JUMPDEST PUSH1 0x1 DUP6 AND ISZERO PUSH3 0x123 JUMPI DUP1 DUP3 MUL SWAP2 POP JUMPDEST DUP1 DUP2 MUL SWAP1 POP PUSH3 0x133 DUP6 PUSH3 0xDC JUMP JUMPDEST SWAP5 POP PUSH3 0xF3 JUMP JUMPDEST SWAP5 POP SWAP5 SWAP3 POP POP POP JUMP JUMPDEST PUSH1 0x0 DUP3 PUSH3 0x156 JUMPI PUSH1 0x1 SWAP1 POP PUSH3 0x229 JUMP JUMPDEST DUP2 PUSH3 0x166 JUMPI PUSH1 0x0 SWAP1 POP PUSH3 0x229 JUMP JUMPDEST DUP2 PUSH1 0x1 DUP2 EQ PUSH3 0x17F JUMPI PUSH1 0x2 DUP2 EQ PUSH3 0x18A JUMPI PUSH3 0x1C0 JUMP JUMPDEST PUSH1 0x1 SWAP2 POP POP PUSH3 0x229 JUMP JUMPDEST PUSH1 0xFF DUP5 GT ISZERO PUSH3 0x19F JUMPI PUSH3 0x19E PUSH3 0xAD JUMP JUMPDEST JUMPDEST DUP4 PUSH1 0x2 EXP SWAP2 POP DUP5 DUP3 GT ISZERO PUSH3 0x1B9 JUMPI PUSH3 0x1B8 PUSH3 0xAD JUMP JUMPDEST JUMPDEST POP PUSH3 0x229 JUMP JUMPDEST POP PUSH1 0x20 DUP4 LT PUSH2 0x133 DUP4 LT AND PUSH1 0x4E DUP5 LT PUSH1 0xB DUP5 LT AND OR ISZERO PUSH3 0x1FA JUMPI DUP3 DUP3 EXP SWAP1 POP DUP4 DUP2 GT ISZERO PUSH3 0x1F4 JUMPI PUSH3 0x1F3 PUSH3 0xAD JUMP JUMPDEST JUMPDEST PUSH3 0x229 JUMP JUMPDEST PUSH3 0x209 DUP5 DUP5 DUP5 PUSH1 0x1 PUSH3 0xE9 JUMP JUMPDEST SWAP3 POP SWAP1 POP DUP2 DUP5 DIV DUP2 GT ISZERO PUSH3 0x223 JUMPI PUSH3 0x222 PUSH3 0xAD JUMP JUMPDEST JUMPDEST DUP2 DUP2 MUL SWAP1 POP JUMPDEST SWAP4 SWAP3 POP POP POP JUMP JUMPDEST PUSH1 0x0 DUP2 SWAP1 POP SWAP2 SWAP1 POP JUMP JUMPDEST PUSH1 0x0 PUSH3 0x247 DUP3 PUSH3 0x230 JUMP JUMPDEST SWAP2 POP PUSH3 0x254 DUP4 PUSH3 0x230 JUMP JUMPDEST SWAP3 POP PUSH3 0x283 PUSH32 0xFFFFFFFFFFFFFFFFFFFFFFFFFFFFFFFFFFFFFFFFFFFFFFFFFFFFFFFFFFFFFFFF DUP5 DUP5 PUSH3 0x144 JUMP JUMPDEST SWAP1 POP SWAP3 SWAP2 POP POP JUMP JUMPDEST PUSH2 0x1F06 DUP1 PUSH3 0x29B PUSH1 0x0 CODECOPY PUSH1 0x0 RETURN INVALID PUSH1 0x80 PUSH1 0x40 MSTORE PUSH1 0x4 CALLDATASIZE LT PUSH2 0xE8 JUMPI PUSH1 0x0 CALLDATALOAD PUSH1 0xE0 SHR DUP1 PUSH4 0x5E0B8654 GT PUSH2 0x8A JUMPI DUP1 PUSH4 0xB319C6B7 GT PUSH2 0x59 JUMPI DUP1 PUSH4 0xB319C6B7 EQ PUSH2 0x2EC JUMPI DUP1 PUSH4 0xE7EB1214 EQ PUSH2 0x317 JUMPI DUP1 PUSH4 0xF2FDE38B EQ PUSH2 0x340 JUMPI DUP1 PUSH4 0xF94F0593 EQ PUSH2 0x369 JUMPI PUSH2 0xE8 JUMP JUMPDEST DUP1 PUSH4 0x5E0B8654 EQ PUSH2 0x219 JUMPI DUP1 PUSH4 0x6DE2E36C EQ PUSH2 0x25B JUMPI DUP1 PUSH4 0x8DA5CB5B EQ PUSH2 0x298 JUMPI DUP1 PUSH4 0xA38D7E5B EQ PUSH2 0x2C3 JUMPI PUSH2 0xE8 JUMP JUMPDEST DUP1 PUSH4 0x270DC9FD GT PUSH2 0xC6 JUMPI DUP1 PUSH4 0x270DC9FD EQ PUSH2 0x15F JUMPI DUP1 PUSH4 0x3A42C900 EQ PUSH2 0x188 JUMPI DUP1 PUSH4 0x3ECE8F6F EQ PUSH2 0x1B1 JUMPI DUP1 PUSH4 0x43D5D022 EQ PUSH2 0x1DC JUMPI PUSH2 0xE8 JUMP JUMPDEST DUP1 PUSH4 0x2F4DB2F EQ PUSH2 0xED JUMPI DUP1 PUSH4 0x206C8DB4 EQ PUSH2 0x118 JUMPI DUP1 PUSH4 0x227C59E6 EQ PUSH2 0x143 JUMPI JUMPDEST PUSH1 0x0 DUP1 REVERT JUMPDEST CALLVALUE DUP1 ISZERO PUSH2 0xF9 JUMPI PUSH1 0x0 DUP1 REVERT JUMPDEST POP PUSH2 0x102 PUSH2 0x385 JUMP JUMPDEST PUSH1 0x40 MLOAD PUSH2 0x10F SWAP2 SWAP1 PUSH2 0x1049 JUMP JUMPDEST PUSH1 0x40 MLOAD DUP1 SWAP2 SUB SWAP1 RETURN JUMPDEST CALLVALUE DUP1 ISZERO PUSH2 0x124 JUMPI PUSH1 0x0 DUP1 REVERT JUMPDEST POP PUSH2 0x12D PUSH2 0x38B JUMP JUMPDEST PUSH1 0x40 MLOAD PUSH2 0x13A SWAP2 SWAP1 PUSH2 0x107F JUMP JUMPDEST PUSH1 0x40 MLOAD DUP1 SWAP2 SUB SWAP1 RETURN JUMPDEST PUSH2 0x15D PUSH1 0x4 DUP1 CALLDATASIZE SUB DUP2 ADD SWAP1 PUSH2 0x158 SWAP2 SWAP1 PUSH2 0x10DA JUMP JUMPDEST PUSH2 0x39E JUMP JUMPDEST STOP JUMPDEST CALLVALUE DUP1 ISZERO PUSH2 0x16B JUMPI PUSH1 0x0 DUP1 REVERT JUMPDEST POP PUSH2 0x186 PUSH1 0x4 DUP1 CALLDATASIZE SUB DUP2 ADD SWAP1 PUSH2 0x181 SWAP2 SWAP1 PUSH2 0x116C JUMP JUMPDEST PUSH2 0x44A JUMP JUMPDEST STOP JUMPDEST CALLVALUE DUP1 ISZERO PUSH2 0x194 JUMPI PUSH1 0x0 DUP1 REVERT JUMPDEST POP PUSH2 0x1AF PUSH1 0x4 DUP1 CALLDATASIZE SUB DUP2 ADD SWAP1 PUSH2 0x1AA SWAP2 SWAP1 PUSH2 0x10DA JUMP JUMPDEST PUSH2 0x5AA JUMP JUMPDEST STOP JUMPDEST CALLVALUE DUP1 ISZERO PUSH2 0x1BD JUMPI PUSH1 0x0 DUP1 REVERT JUMPDEST POP PUSH2 0x1C6 PUSH2 0x642 JUMP JUMPDEST PUSH1 0x40 MLOAD PUSH2 0x1D3 SWAP2 SWAP1 PUSH2 0x1049 JUMP JUMPDEST PUSH1 0x40 MLOAD DUP1 SWAP2 SUB SWAP1 RETURN JUMPDEST CALLVALUE DUP1 ISZERO PUSH2 0x1E8 JUMPI PUSH1 0x0 DUP1 REVERT JUMPDEST POP PUSH2 0x203 PUSH1 0x4 DUP1 CALLDATASIZE SUB DUP2 ADD SWAP1 PUSH2 0x1FE SWAP2 SWAP1 PUSH2 0x122A JUMP JUMPDEST PUSH2 0x648 JUMP JUMPDEST PUSH1 0x40 MLOAD PUSH2 0x210 SWAP2 SWAP1 PUSH2 0x1315 JUMP JUMPDEST PUSH1 0x40 MLOAD DUP1 SWAP2 SUB SWAP1 RETURN JUMPDEST CALLVALUE DUP1 ISZERO PUSH2 0x225 JUMPI PUSH1 0x0 DUP1 REVERT JUMPDEST POP PUSH2 0x240 PUSH1 0x4 DUP1 CALLDATASIZE SUB DUP2 ADD SWAP1 PUSH2 0x23B SWAP2 SWAP1 PUSH2 0x10DA JUMP JUMPDEST PUSH2 0x79A JUMP JUMPDEST PUSH1 0x40 MLOAD PUSH2 0x252 SWAP7 SWAP6 SWAP5 SWAP4 SWAP3 SWAP2 SWAP1 PUSH2 0x1403 JUMP JUMPDEST PUSH1 0x40 MLOAD DUP1 SWAP2 SUB SWAP1 RETURN JUMPDEST CALLVALUE DUP1 ISZERO PUSH2 0x267 JUMPI PUSH1 0x0 DUP1 REVERT JUMPDEST POP PUSH2 0x282 PUSH1 0x4 DUP1 CALLDATASIZE SUB DUP2 ADD SWAP1 PUSH2 0x27D SWAP2 SWAP1 PUSH2 0x10DA JUMP JUMPDEST PUSH2 0x8B8 JUMP JUMPDEST PUSH1 0x40 MLOAD PUSH2 0x28F SWAP2 SWAP1 PUSH2 0x147A JUMP JUMPDEST PUSH1 0x40 MLOAD DUP1 SWAP2 SUB SWAP1 RETURN JUMPDEST CALLVALUE DUP1 ISZERO PUSH2 0x2A4 JUMPI PUSH1 0x0 DUP1 REVERT JUMPDEST POP PUSH2 0x2AD PUSH2 0x8EB JUMP JUMPDEST PUSH1 0x40 MLOAD PUSH2 0x2BA SWAP2 SWAP1 PUSH2 0x147A JUMP JUMPDEST PUSH1 0x40 MLOAD DUP1 SWAP2 SUB SWAP1 RETURN JUMPDEST CALLVALUE DUP1 ISZERO PUSH2 0x2CF JUMPI PUSH1 0x0 DUP1 REVERT JUMPDEST POP PUSH2 0x2EA PUSH1 0x4 DUP1 CALLDATASIZE SUB DUP2 ADD SWAP1 PUSH2 0x2E5 SWAP2 SWAP1 PUSH2 0x15C5 JUMP JUMPDEST PUSH2 0x90F JUMP JUMPDEST STOP JUMPDEST CALLVALUE DUP1 ISZERO PUSH2 0x2F8 JUMPI PUSH1 0x0 DUP1 REVERT JUMPDEST POP PUSH2 0x301 PUSH2 0x9C6 JUMP JUMPDEST PUSH1 0x40 MLOAD PUSH2 0x30E SWAP2 SWAP1 PUSH2 0x1049 JUMP JUMPDEST PUSH1 0x40 MLOAD DUP1 SWAP2 SUB SWAP1 RETURN JUMPDEST CALLVALUE DUP1 ISZERO PUSH2 0x323 JUMPI PUSH1 0x0 DUP1 REVERT JUMPDEST POP PUSH2 0x33E PUSH1 0x4 DUP1 CALLDATASIZE SUB DUP2 ADD SWAP1 PUSH2 0x339 SWAP2 SWAP1 PUSH2 0x10DA JUMP JUMPDEST PUSH2 0x9CC JUMP JUMPDEST STOP JUMPDEST CALLVALUE DUP1 ISZERO PUSH2 0x34C JUMPI PUSH1 0x0 DUP1 REVERT JUMPDEST POP PUSH2 0x367 PUSH1 0x4 DUP1 CALLDATASIZE SUB DUP2 ADD SWAP1 PUSH2 0x362 SWAP2 SWAP1 PUSH2 0x164C JUMP JUMPDEST PUSH2 0xA64 JUMP JUMPDEST STOP JUMPDEST PUSH2 0x383 PUSH1 0x4 DUP1 CALLDATASIZE SUB DUP2 ADD SWAP1 PUSH2 0x37E SWAP2 SWAP1 PUSH2 0x15C5 JUMP JUMPDEST PUSH2 0xC1E JUMP JUMPDEST STOP JUMPDEST PUSH1 0x5 SLOAD DUP2 JUMP JUMPDEST PUSH1 0x0 PUSH1 0x14 SWAP1 SLOAD SWAP1 PUSH2 0x100 EXP SWAP1 DIV PUSH1 0xFF AND DUP2 JUMP JUMPDEST PUSH1 0xA SLOAD CALLVALUE LT ISZERO PUSH2 0x3E3 JUMPI PUSH1 0x40 MLOAD PUSH32 0x8C379A000000000000000000000000000000000000000000000000000000000 DUP2 MSTORE PUSH1 0x4 ADD PUSH2 0x3DA SWAP1 PUSH2 0x16C5 JUMP JUMPDEST PUSH1 0x40 MLOAD DUP1 SWAP2 SUB SWAP1 REVERT JUMPDEST PUSH1 0x6 DUP2 DUP2 SLOAD DUP2 LT PUSH2 0x3F7 JUMPI PUSH2 0x3F6 PUSH2 0x16E5 JUMP JUMPDEST JUMPDEST SWAP1 PUSH1 0x0 MSTORE PUSH1 0x20 PUSH1 0x0 KECCAK256 SWAP1 PUSH1 0x2 MUL ADD PUSH1 0x1 ADD PUSH1 0x6 DUP2 DUP2 SWAP1 SLOAD SWAP1 PUSH2 0x100 EXP SWAP1 DIV PUSH4 0xFFFFFFFF AND DUP1 SWAP3 SWAP2 SWAP1 PUSH2 0x428 SWAP1 PUSH2 0x1743 JUMP JUMPDEST SWAP2 SWAP1 PUSH2 0x100 EXP DUP2 SLOAD DUP2 PUSH4 0xFFFFFFFF MUL NOT AND SWAP1 DUP4 PUSH4 0xFFFFFFFF AND MUL OR SWAP1 SSTORE POP POP POP JUMP JUMPDEST PUSH1 0x2 DUP2 DUP2 PUSH1 0x6 DUP3 DUP2 SLOAD DUP2 LT PUSH2 0x462 JUMPI PUSH2 0x461 PUSH2 0x16E5 JUMP JUMPDEST JUMPDEST SWAP1 PUSH1 0x0 MSTORE PUSH1 0x20 PUSH1 0x0 KECCAK256 SWAP1 PUSH1 0x2 MUL ADD PUSH1 0x1 ADD PUSH1 0x6 SWAP1 SLOAD SWAP1 PUSH2 0x100 EXP SWAP1 DIV PUSH4 0xFFFFFFFF AND PUSH4 0xFFFFFFFF AND LT ISZERO PUSH2 0x4CB JUMPI PUSH1 0x40 MLOAD PUSH32 0x8C379A000000000000000000000000000000000000000000000000000000000 DUP2 MSTORE PUSH1 0x4 ADD PUSH2 0x4C2 SWAP1 PUSH2 0x17BB JUMP JUMPDEST PUSH1 0x40 MLOAD DUP1 SWAP2 SUB SWAP1 REVERT JUMPDEST DUP3 PUSH1 0x7 PUSH1 0x0 DUP3 DUP2 MSTORE PUSH1 0x20 ADD SWAP1 DUP2 MSTORE PUSH1 0x20 ADD PUSH1 0x0 KECCAK256 PUSH1 0x0 SWAP1 SLOAD SWAP1 PUSH2 0x100 EXP SWAP1 DIV PUSH20 0xFFFFFFFFFFFFFFFFFFFFFFFFFFFFFFFFFFFFFFFF AND PUSH20 0xFFFFFFFFFFFFFFFFFFFFFFFFFFFFFFFFFFFFFFFF AND CALLER PUSH20 0xFFFFFFFFFFFFFFFFFFFFFFFFFFFFFFFFFFFFFFFF AND EQ PUSH2 0x56D JUMPI PUSH1 0x40 MLOAD PUSH32 0x8C379A000000000000000000000000000000000000000000000000000000000 DUP2 MSTORE PUSH1 0x4 ADD PUSH2 0x564 SWAP1 PUSH2 0x17BB JUMP JUMPDEST PUSH1 0x40 MLOAD DUP1 SWAP2 SUB SWAP1 REVERT JUMPDEST DUP6 DUP6 PUSH1 0x6 DUP7 DUP2 SLOAD DUP2 LT PUSH2 0x583 JUMPI PUSH2 0x582 PUSH2 0x16E5 JUMP JUMPDEST JUMPDEST SWAP1 PUSH1 0x0 MSTORE PUSH1 0x20 PUSH1 0x0 KECCAK256 SWAP1 PUSH1 0x2 MUL ADD PUSH1 0x0 ADD SWAP2 DUP3 PUSH2 0x5A1 SWAP3 SWAP2 SWAP1 PUSH2 0x19F2 JUMP JUMPDEST POP POP POP POP POP POP POP JUMP JUMPDEST PUSH1 0x0 DUP1 SLOAD SWAP1 PUSH2 0x100 EXP SWAP1 DIV PUSH20 0xFFFFFFFFFFFFFFFFFFFFFFFFFFFFFFFFFFFFFFFF AND PUSH20 0xFFFFFFFFFFFFFFFFFFFFFFFFFFFFFFFFFFFFFFFF AND CALLER PUSH20 0xFFFFFFFFFFFFFFFFFFFFFFFFFFFFFFFFFFFFFFFF AND EQ PUSH2 0x638 JUMPI PUSH1 0x40 MLOAD PUSH32 0x8C379A000000000000000000000000000000000000000000000000000000000 DUP2 MSTORE PUSH1 0x4 ADD PUSH2 0x62F SWAP1 PUSH2 0x1B0E JUMP JUMPDEST PUSH1 0x40 MLOAD DUP1 SWAP2 SUB SWAP1 REVERT JUMPDEST DUP1 PUSH1 0xA DUP2 SWAP1 SSTORE POP POP JUMP JUMPDEST PUSH1 0x4 SLOAD DUP2 JUMP JUMPDEST PUSH1 0x60 PUSH1 0x0 PUSH1 0x8 PUSH1 0x0 DUP5 PUSH20 0xFFFFFFFFFFFFFFFFFFFFFFFFFFFFFFFFFFFFFFFF AND PUSH20 0xFFFFFFFFFFFFFFFFFFFFFFFFFFFFFFFFFFFFFFFF AND DUP2 MSTORE PUSH1 0x20 ADD SWAP1 DUP2 MSTORE PUSH1 0x20 ADD PUSH1 0x0 KECCAK256 SLOAD PUSH8 0xFFFFFFFFFFFFFFFF DUP2 GT ISZERO PUSH2 0x6A5 JUMPI PUSH2 0x6A4 PUSH2 0x149A JUMP JUMPDEST JUMPDEST PUSH1 0x40 MLOAD SWAP1 DUP1 DUP3 MSTORE DUP1 PUSH1 0x20 MUL PUSH1 0x20 ADD DUP3 ADD PUSH1 0x40 MSTORE DUP1 ISZERO PUSH2 0x6D3 JUMPI DUP2 PUSH1 0x20 ADD PUSH1 0x20 DUP3 MUL DUP1 CALLDATASIZE DUP4 CALLDATACOPY DUP1 DUP3 ADD SWAP2 POP POP SWAP1 POP JUMPDEST POP SWAP1 POP PUSH1 0x0 DUP1 JUMPDEST PUSH1 0x6 DUP1 SLOAD SWAP1 POP DUP2 LT ISZERO PUSH2 0x78F JUMPI DUP5 PUSH20 0xFFFFFFFFFFFFFFFFFFFFFFFFFFFFFFFFFFFFFFFF AND PUSH1 0x7 PUSH1 0x0 DUP4 DUP2 MSTORE PUSH1 0x20 ADD SWAP1 DUP2 MSTORE PUSH1 0x20 ADD PUSH1 0x0 KECCAK256 PUSH1 0x0 SWAP1 SLOAD SWAP1 PUSH2 0x100 EXP SWAP1 DIV PUSH20 0xFFFFFFFFFFFFFFFFFFFFFFFFFFFFFFFFFFFFFFFF AND PUSH20 0xFFFFFFFFFFFFFFFFFFFFFFFFFFFFFFFFFFFFFFFF AND SUB PUSH2 0x77C JUMPI DUP1 DUP4 DUP4 DUP2 MLOAD DUP2 LT PUSH2 0x761 JUMPI PUSH2 0x760 PUSH2 0x16E5 JUMP JUMPDEST JUMPDEST PUSH1 0x20 MUL PUSH1 0x20 ADD ADD DUP2 DUP2 MSTORE POP POP DUP2 DUP1 PUSH2 0x778 SWAP1 PUSH2 0x1B2E JUMP JUMPDEST SWAP3 POP POP JUMPDEST DUP1 DUP1 PUSH2 0x787 SWAP1 PUSH2 0x1B2E JUMP JUMPDEST SWAP2 POP POP PUSH2 0x6DA JUMP JUMPDEST POP DUP2 SWAP3 POP POP POP SWAP2 SWAP1 POP JUMP JUMPDEST PUSH1 0x6 DUP2 DUP2 SLOAD DUP2 LT PUSH2 0x7AA JUMPI PUSH1 0x0 DUP1 REVERT JUMPDEST SWAP1 PUSH1 0x0 MSTORE PUSH1 0x20 PUSH1 0x0 KECCAK256 SWAP1 PUSH1 0x2 MUL ADD PUSH1 0x0 SWAP2 POP SWAP1 POP DUP1 PUSH1 0x0 ADD DUP1 SLOAD PUSH2 0x7CD SWAP1 PUSH2 0x1815 JUMP JUMPDEST DUP1 PUSH1 0x1F ADD PUSH1 0x20 DUP1 SWAP2 DIV MUL PUSH1 0x20 ADD PUSH1 0x40 MLOAD SWAP1 DUP2 ADD PUSH1 0x40 MSTORE DUP1 SWAP3 SWAP2 SWAP1 DUP2 DUP2 MSTORE PUSH1 0x20 ADD DUP3 DUP1 SLOAD PUSH2 0x7F9 SWAP1 PUSH2 0x1815 JUMP JUMPDEST DUP1 ISZERO PUSH2 0x846 JUMPI DUP1 PUSH1 0x1F LT PUSH2 0x81B JUMPI PUSH2 0x100 DUP1 DUP4 SLOAD DIV MUL DUP4 MSTORE SWAP2 PUSH1 0x20 ADD SWAP2 PUSH2 0x846 JUMP JUMPDEST DUP3 ADD SWAP2 SWAP1 PUSH1 0x0 MSTORE PUSH1 0x20 PUSH1 0x0 KECCAK256 SWAP1 JUMPDEST DUP2 SLOAD DUP2 MSTORE SWAP1 PUSH1 0x1 ADD SWAP1 PUSH1 0x20 ADD DUP1 DUP4 GT PUSH2 0x829 JUMPI DUP3 SWAP1 SUB PUSH1 0x1F AND DUP3 ADD SWAP2 JUMPDEST POP POP POP POP POP SWAP1 DUP1 PUSH1 0x1 ADD PUSH1 0x0 SWAP1 SLOAD SWAP1 PUSH2 0x100 EXP SWAP1 DIV PUSH2 0xFFFF AND SWAP1 DUP1 PUSH1 0x1 ADD PUSH1 0x2 SWAP1 SLOAD SWAP1 PUSH2 0x100 EXP SWAP1 DIV PUSH2 0xFFFF AND SWAP1 DUP1 PUSH1 0x1 ADD PUSH1 0x4 SWAP1 SLOAD SWAP1 PUSH2 0x100 EXP SWAP1 DIV PUSH2 0xFFFF AND SWAP1 DUP1 PUSH1 0x1 ADD PUSH1 0x6 SWAP1 SLOAD SWAP1 PUSH2 0x100 EXP SWAP1 DIV PUSH4 0xFFFFFFFF AND SWAP1 DUP1 PUSH1 0x1 ADD PUSH1 0xA SWAP1 SLOAD SWAP1 PUSH2 0x100 EXP SWAP1 DIV PUSH4 0xFFFFFFFF AND SWAP1 POP DUP7 JUMP JUMPDEST PUSH1 0x7 PUSH1 0x20 MSTORE DUP1 PUSH1 0x0 MSTORE PUSH1 0x40 PUSH1 0x0 KECCAK256 PUSH1 0x0 SWAP2 POP SLOAD SWAP1 PUSH2 0x100 EXP SWAP1 DIV PUSH20 0xFFFFFFFFFFFFFFFFFFFFFFFFFFFFFFFFFFFFFFFF AND DUP2 JUMP JUMPDEST PUSH1 0x0 DUP1 SLOAD SWAP1 PUSH2 0x100 EXP SWAP1 DIV PUSH20 0xFFFFFFFFFFFFFFFFFFFFFFFFFFFFFFFFFFFFFFFF AND DUP2 JUMP JUMPDEST PUSH1 0x0 PUSH1 0x8 PUSH1 0x0 CALLER PUSH20 0xFFFFFFFFFFFFFFFFFFFFFFFFFFFFFFFFFFFFFFFF AND PUSH20 0xFFFFFFFFFFFFFFFFFFFFFFFFFFFFFFFFFFFFFFFF AND DUP2 MSTORE PUSH1 0x20 ADD SWAP1 DUP2 MSTORE PUSH1 0x20 ADD PUSH1 0x0 KECCAK256 SLOAD EQ PUSH2 0x991 JUMPI PUSH1 0x40 MLOAD PUSH32 0x8C379A000000000000000000000000000000000000000000000000000000000 DUP2 MSTORE PUSH1 0x4 ADD PUSH2 0x988 SWAP1 PUSH2 0x17BB JUMP JUMPDEST PUSH1 0x40 MLOAD DUP1 SWAP2 SUB SWAP1 REVERT JUMPDEST PUSH1 0x0 PUSH2 0x99C DUP3 PUSH2 0xD25 JUMP JUMPDEST SWAP1 POP PUSH1 0xA DUP2 PUSH2 0x9AB SWAP2 SWAP1 PUSH2 0x1BA5 JUMP JUMPDEST DUP2 PUSH2 0x9B6 SWAP2 SWAP1 PUSH2 0x1BD6 JUMP JUMPDEST SWAP1 POP PUSH2 0x9C2 DUP3 DUP3 PUSH2 0xD67 JUMP JUMPDEST POP POP JUMP JUMPDEST PUSH1 0x3 SLOAD DUP2 JUMP JUMPDEST PUSH1 0x0 DUP1 SLOAD SWAP1 PUSH2 0x100 EXP SWAP1 DIV PUSH20 0xFFFFFFFFFFFFFFFFFFFFFFFFFFFFFFFFFFFFFFFF AND PUSH20 0xFFFFFFFFFFFFFFFFFFFFFFFFFFFFFFFFFFFFFFFF AND CALLER PUSH20 0xFFFFFFFFFFFFFFFFFFFFFFFFFFFFFFFFFFFFFFFF AND EQ PUSH2 0xA5A JUMPI PUSH1 0x40 MLOAD PUSH32 0x8C379A000000000000000000000000000000000000000000000000000000000 DUP2 MSTORE PUSH1 0x4 ADD PUSH2 0xA51 SWAP1 PUSH2 0x1B0E JUMP JUMPDEST PUSH1 0x40 MLOAD DUP1 SWAP2 SUB SWAP1 REVERT JUMPDEST DUP1 PUSH1 0x4 DUP2 SWAP1 SSTORE POP POP JUMP JUMPDEST PUSH1 0x0 DUP1 SLOAD SWAP1 PUSH2 0x100 EXP SWAP1 DIV PUSH20 0xFFFFFFFFFFFFFFFFFFFFFFFFFFFFFFFFFFFFFFFF AND PUSH20 0xFFFFFFFFFFFFFFFFFFFFFFFFFFFFFFFFFFFFFFFF AND CALLER PUSH20 0xFFFFFFFFFFFFFFFFFFFFFFFFFFFFFFFFFFFFFFFF AND EQ PUSH2 0xAF2 JUMPI PUSH1 0x40 MLOAD PUSH32 0x8C379A000000000000000000000000000000000000000000000000000000000 DUP2 MSTORE PUSH1 0x4 ADD PUSH2 0xAE9 SWAP1 PUSH2 0x1B0E JUMP JUMPDEST PUSH1 0x40 MLOAD DUP1 SWAP2 SUB SWAP1 REVERT JUMPDEST PUSH1 0x0 PUSH20 0xFFFFFFFFFFFFFFFFFFFFFFFFFFFFFFFFFFFFFFFF AND DUP2 PUSH20 0xFFFFFFFFFFFFFFFFFFFFFFFFFFFFFFFFFFFFFFFF AND SUB PUSH2 0xB61 JUMPI PUSH1 0x40 MLOAD PUSH32 0x8C379A000000000000000000000000000000000000000000000000000000000 DUP2 MSTORE PUSH1 0x4 ADD PUSH2 0xB58 SWAP1 PUSH2 0x1B0E JUMP JUMPDEST PUSH1 0x40 MLOAD DUP1 SWAP2 SUB SWAP1 REVERT JUMPDEST DUP1 PUSH20 0xFFFFFFFFFFFFFFFFFFFFFFFFFFFFFFFFFFFFFFFF AND PUSH1 0x0 DUP1 SLOAD SWAP1 PUSH2 0x100 EXP SWAP1 DIV PUSH20 0xFFFFFFFFFFFFFFFFFFFFFFFFFFFFFFFFFFFFFFFF AND PUSH20 0xFFFFFFFFFFFFFFFFFFFFFFFFFFFFFFFFFFFFFFFF AND PUSH32 0x8BE0079C531659141344CD1FD0A4F28419497F9722A3DAAFE3B4186F6B6457E0 PUSH1 0x40 MLOAD PUSH1 0x40 MLOAD DUP1 SWAP2 SUB SWAP1 LOG3 DUP1 PUSH1 0x0 DUP1 PUSH2 0x100 EXP DUP2 SLOAD DUP2 PUSH20 0xFFFFFFFFFFFFFFFFFFFFFFFFFFFFFFFFFFFFFFFF MUL NOT AND SWAP1 DUP4 PUSH20 0xFFFFFFFFFFFFFFFFFFFFFFFFFFFFFFFFFFFFFFFF AND MUL OR SWAP1 SSTORE POP POP JUMP JUMPDEST PUSH1 0x0 PUSH1 0x8 PUSH1 0x0 CALLER PUSH20 0xFFFFFFFFFFFFFFFFFFFFFFFFFFFFFFFFFFFFFFFF AND PUSH20 0xFFFFFFFFFFFFFFFFFFFFFFFFFFFFFFFFFFFFFFFF AND DUP2 MSTORE PUSH1 0x20 ADD SWAP1 DUP2 MSTORE PUSH1 0x20 ADD PUSH1 0x0 KECCAK256 SLOAD GT PUSH2 0xCA0 JUMPI PUSH1 0x40 MLOAD PUSH32 0x8C379A000000000000000000000000000000000000000000000000000000000 DUP2 MSTORE PUSH1 0x4 ADD PUSH2 0xC97 SWAP1 PUSH2 0x17BB JUMP JUMPDEST PUSH1 0x40 MLOAD DUP1 SWAP2 SUB SWAP1 REVERT JUMPDEST PUSH1 0x4 SLOAD CALLVALUE GT PUSH2 0xCE4 JUMPI PUSH1 0x40 MLOAD PUSH32 0x8C379A000000000000000000000000000000000000000000000000000000000 DUP2 MSTORE PUSH1 0x4 ADD PUSH2 0xCDB SWAP1 PUSH2 0x17BB JUMP JUMPDEST PUSH1 0x40 MLOAD DUP1 SWAP2 SUB SWAP1 REVERT JUMPDEST PUSH1 0x0 PUSH2 0xCEF DUP3 PUSH2 0xD25 JUMP JUMPDEST SWAP1 POP PUSH1 0x1 PUSH1 0xA DUP3 PUSH2 0xD00 SWAP2 SWAP1 PUSH2 0x1BA5 JUMP JUMPDEST DUP3 PUSH2 0xD0B SWAP2 SWAP1 PUSH2 0x1BD6 JUMP JUMPDEST PUSH2 0xD15 SWAP2 SWAP1 PUSH2 0x1C0C JUMP JUMPDEST SWAP1 POP PUSH2 0xD21 DUP3 DUP3 PUSH2 0xD67 JUMP JUMPDEST POP POP JUMP JUMPDEST PUSH1 0x0 PUSH1 0x2 SLOAD DUP3 TIMESTAMP PUSH1 0x40 MLOAD PUSH1 0x20 ADD PUSH2 0xD3D SWAP3 SWAP2 SWAP1 PUSH2 0x1C9F JUMP JUMPDEST PUSH1 0x40 MLOAD PUSH1 0x20 DUP2 DUP4 SUB SUB DUP2 MSTORE SWAP1 PUSH1 0x40 MSTORE DUP1 MLOAD SWAP1 PUSH1 0x20 ADD KECCAK256 PUSH1 0x0 SHR PUSH2 0xD60 SWAP2 SWAP1 PUSH2 0x1CC7 JUMP JUMPDEST SWAP1 POP SWAP2 SWAP1 POP JUMP JUMPDEST PUSH1 0x6 PUSH1 0x40 MLOAD DUP1 PUSH1 0xC0 ADD PUSH1 0x40 MSTORE DUP1 DUP5 DUP2 MSTORE PUSH1 0x20 ADD DUP4 PUSH2 0xFFFF AND DUP2 MSTORE PUSH1 0x20 ADD PUSH1 0x0 PUSH2 0xFFFF AND DUP2 MSTORE PUSH1 0x20 ADD PUSH1 0x0 PUSH2 0xFFFF AND DUP2 MSTORE PUSH1 0x20 ADD PUSH1 0x1 PUSH4 0xFFFFFFFF AND DUP2 MSTORE PUSH1 0x20 ADD PUSH1 0x0 PUSH4 0xFFFFFFFF AND DUP2 MSTORE POP SWAP1 DUP1 PUSH1 0x1 DUP2 SLOAD ADD DUP1 DUP3 SSTORE DUP1 SWAP2 POP POP PUSH1 0x1 SWAP1 SUB SWAP1 PUSH1 0x0 MSTORE PUSH1 0x20 PUSH1 0x0 KECCAK256 SWAP1 PUSH1 0x2 MUL ADD PUSH1 0x0 SWAP1 SWAP2 SWAP1 SWAP2 SWAP1 SWAP2 POP PUSH1 0x0 DUP3 ADD MLOAD DUP2 PUSH1 0x0 ADD SWAP1 DUP2 PUSH2 0xDF0 SWAP2 SWAP1 PUSH2 0x1CF8 JUMP JUMPDEST POP PUSH1 0x20 DUP3 ADD MLOAD DUP2 PUSH1 0x1 ADD PUSH1 0x0 PUSH2 0x100 EXP DUP2 SLOAD DUP2 PUSH2 0xFFFF MUL NOT AND SWAP1 DUP4 PUSH2 0xFFFF AND MUL OR SWAP1 SSTORE POP PUSH1 0x40 DUP3 ADD MLOAD DUP2 PUSH1 0x1 ADD PUSH1 0x2 PUSH2 0x100 EXP DUP2 SLOAD DUP2 PUSH2 0xFFFF MUL NOT AND SWAP1 DUP4 PUSH2 0xFFFF AND MUL OR SWAP1 SSTORE POP PUSH1 0x60 DUP3 ADD MLOAD DUP2 PUSH1 0x1 ADD PUSH1 0x4 PUSH2 0x100 EXP DUP2 SLOAD DUP2 PUSH2 0xFFFF MUL NOT AND SWAP1 DUP4 PUSH2 0xFFFF AND MUL OR SWAP1 SSTORE POP PUSH1 0x80 DUP3 ADD MLOAD DUP2 PUSH1 0x1 ADD PUSH1 0x6 PUSH2 0x100 EXP DUP2 SLOAD DUP2 PUSH4 0xFFFFFFFF MUL NOT AND SWAP1 DUP4 PUSH4 0xFFFFFFFF AND MUL OR SWAP1 SSTORE POP PUSH1 0xA0 DUP3 ADD MLOAD DUP2 PUSH1 0x1 ADD PUSH1 0xA PUSH2 0x100 EXP DUP2 SLOAD DUP2 PUSH4 0xFFFFFFFF MUL NOT AND SWAP1 DUP4 PUSH4 0xFFFFFFFF AND MUL OR SWAP1 SSTORE POP POP POP PUSH1 0x0 PUSH1 0x1 PUSH1 0x6 DUP1 SLOAD SWAP1 POP PUSH2 0xEBE SWAP2 SWAP1 PUSH2 0x1DCA JUMP JUMPDEST SWAP1 POP CALLER PUSH1 0x7 PUSH1 0x0 DUP4 DUP2 MSTORE PUSH1 0x20 ADD SWAP1 DUP2 MSTORE PUSH1 0x20 ADD PUSH1 0x0 KECCAK256 PUSH1 0x0 PUSH2 0x100 EXP DUP2 SLOAD DUP2 PUSH20 0xFFFFFFFFFFFFFFFFFFFFFFFFFFFFFFFFFFFFFFFF MUL NOT AND SWAP1 DUP4 PUSH20 0xFFFFFFFFFFFFFFFFFFFFFFFFFFFFFFFFFFFFFFFF AND MUL OR SWAP1 SSTORE POP PUSH2 0xF65 PUSH1 0x1 PUSH1 0x8 PUSH1 0x0 CALLER PUSH20 0xFFFFFFFFFFFFFFFFFFFFFFFFFFFFFFFFFFFFFFFF AND PUSH20 0xFFFFFFFFFFFFFFFFFFFFFFFFFFFFFFFFFFFFFFFF AND DUP2 MSTORE PUSH1 0x20 ADD SWAP1 DUP2 MSTORE PUSH1 0x20 ADD PUSH1 0x0 KECCAK256 SLOAD PUSH2 0x1004 SWAP1 SWAP2 SWAP1 PUSH4 0xFFFFFFFF AND JUMP JUMPDEST PUSH1 0x8 PUSH1 0x0 CALLER PUSH20 0xFFFFFFFFFFFFFFFFFFFFFFFFFFFFFFFFFFFFFFFF AND PUSH20 0xFFFFFFFFFFFFFFFFFFFFFFFFFFFFFFFFFFFFFFFF AND DUP2 MSTORE PUSH1 0x20 ADD SWAP1 DUP2 MSTORE PUSH1 0x20 ADD PUSH1 0x0 KECCAK256 DUP2 SWAP1 SSTORE POP PUSH2 0xFBE PUSH1 0x1 PUSH1 0x5 SLOAD PUSH2 0x1004 SWAP1 SWAP2 SWAP1 PUSH4 0xFFFFFFFF AND JUMP JUMPDEST PUSH1 0x5 DUP2 SWAP1 SSTORE POP PUSH32 0xFFB2FB18E6D3EC7EF368D2F329EF22F9431AAEBE0FCBC9282D7770949AC8CD31 DUP2 DUP5 DUP5 PUSH1 0x40 MLOAD PUSH2 0xFF7 SWAP4 SWAP3 SWAP2 SWAP1 PUSH2 0x1E2F JUMP JUMPDEST PUSH1 0x40 MLOAD DUP1 SWAP2 SUB SWAP1 LOG1 POP POP POP JUMP JUMPDEST PUSH1 0x0 DUP1 DUP3 DUP5 PUSH2 0x1013 SWAP2 SWAP1 PUSH2 0x1E6D JUMP JUMPDEST SWAP1 POP DUP4 DUP2 LT ISZERO PUSH2 0x1026 JUMPI PUSH2 0x1025 PUSH2 0x1EA1 JUMP JUMPDEST JUMPDEST DUP1 SWAP2 POP POP SWAP3 SWAP2 POP POP JUMP JUMPDEST PUSH1 0x0 DUP2 SWAP1 POP SWAP2 SWAP1 POP JUMP JUMPDEST PUSH2 0x1043 DUP2 PUSH2 0x1030 JUMP JUMPDEST DUP3 MSTORE POP POP JUMP JUMPDEST PUSH1 0x0 PUSH1 0x20 DUP3 ADD SWAP1 POP PUSH2 0x105E PUSH1 0x0 DUP4 ADD DUP5 PUSH2 0x103A JUMP JUMPDEST SWAP3 SWAP2 POP POP JUMP JUMPDEST PUSH1 0x0 DUP2 ISZERO ISZERO SWAP1 POP SWAP2 SWAP1 POP JUMP JUMPDEST PUSH2 0x1079 DUP2 PUSH2 0x1064 JUMP JUMPDEST DUP3 MSTORE POP POP JUMP JUMPDEST PUSH1 0x0 PUSH1 0x20 DUP3 ADD SWAP1 POP PUSH2 0x1094 PUSH1 0x0 DUP4 ADD DUP5 PUSH2 0x1070 JUMP JUMPDEST SWAP3 SWAP2 POP POP JUMP JUMPDEST PUSH1 0x0 PUSH1 0x40 MLOAD SWAP1 POP SWAP1 JUMP JUMPDEST PUSH1 0x0 DUP1 REVERT JUMPDEST PUSH1 0x0 DUP1 REVERT JUMPDEST PUSH2 0x10B7 DUP2 PUSH2 0x1030 JUMP JUMPDEST DUP2 EQ PUSH2 0x10C2 JUMPI PUSH1 0x0 DUP1 REVERT JUMPDEST POP JUMP JUMPDEST PUSH1 0x0 DUP2 CALLDATALOAD SWAP1 POP PUSH2 0x10D4 DUP2 PUSH2 0x10AE JUMP JUMPDEST SWAP3 SWAP2 POP POP JUMP JUMPDEST PUSH1 0x0 PUSH1 0x20 DUP3 DUP5 SUB SLT ISZERO PUSH2 0x10F0 JUMPI PUSH2 0x10EF PUSH2 0x10A4 JUMP JUMPDEST JUMPDEST PUSH1 0x0 PUSH2 0x10FE DUP5 DUP3 DUP6 ADD PUSH2 0x10C5 JUMP JUMPDEST SWAP2 POP POP SWAP3 SWAP2 POP POP JUMP JUMPDEST PUSH1 0x0 DUP1 REVERT JUMPDEST PUSH1 0x0 DUP1 REVERT JUMPDEST PUSH1 0x0 DUP1 REVERT JUMPDEST PUSH1 0x0 DUP1 DUP4 PUSH1 0x1F DUP5 ADD SLT PUSH2 0x112C JUMPI PUSH2 0x112B PUSH2 0x1107 JUMP JUMPDEST JUMPDEST DUP3 CALLDATALOAD SWAP1 POP PUSH8 0xFFFFFFFFFFFFFFFF DUP2 GT ISZERO PUSH2 0x1149 JUMPI PUSH2 0x1148 PUSH2 0x110C JUMP JUMPDEST JUMPDEST PUSH1 0x20 DUP4 ADD SWAP2 POP DUP4 PUSH1 0x1 DUP3 MUL DUP4 ADD GT ISZERO PUSH2 0x1165 JUMPI PUSH2 0x1164 PUSH2 0x1111 JUMP JUMPDEST JUMPDEST SWAP3 POP SWAP3 SWAP1 POP JUMP JUMPDEST PUSH1 0x0 DUP1 PUSH1 0x0 PUSH1 0x40 DUP5 DUP7 SUB SLT ISZERO PUSH2 0x1185 JUMPI PUSH2 0x1184 PUSH2 0x10A4 JUMP JUMPDEST JUMPDEST PUSH1 0x0 DUP5 ADD CALLDATALOAD PUSH8 0xFFFFFFFFFFFFFFFF DUP2 GT ISZERO PUSH2 0x11A3 JUMPI PUSH2 0x11A2 PUSH2 0x10A9 JUMP JUMPDEST JUMPDEST PUSH2 0x11AF DUP7 DUP3 DUP8 ADD PUSH2 0x1116 JUMP JUMPDEST SWAP4 POP SWAP4 POP POP PUSH1 0x20 PUSH2 0x11C2 DUP7 DUP3 DUP8 ADD PUSH2 0x10C5 JUMP JUMPDEST SWAP2 POP POP SWAP3 POP SWAP3 POP SWAP3 JUMP JUMPDEST PUSH1 0x0 PUSH20 0xFFFFFFFFFFFFFFFFFFFFFFFFFFFFFFFFFFFFFFFF DUP3 AND SWAP1 POP SWAP2 SWAP1 POP JUMP JUMPDEST PUSH1 0x0 PUSH2 0x11F7 DUP3 PUSH2 0x11CC JUMP JUMPDEST SWAP1 POP SWAP2 SWAP1 POP JUMP JUMPDEST PUSH2 0x1207 DUP2 PUSH2 0x11EC JUMP JUMPDEST DUP2 EQ PUSH2 0x1212 JUMPI PUSH1 0x0 DUP1 REVERT JUMPDEST POP JUMP JUMPDEST PUSH1 0x0 DUP2 CALLDATALOAD SWAP1 POP PUSH2 0x1224 DUP2 PUSH2 0x11FE JUMP JUMPDEST SWAP3 SWAP2 POP POP JUMP JUMPDEST PUSH1 0x0 PUSH1 0x20 DUP3 DUP5 SUB SLT ISZERO PUSH2 0x1240 JUMPI PUSH2 0x123F PUSH2 0x10A4 JUMP JUMPDEST JUMPDEST PUSH1 0x0 PUSH2 0x124E DUP5 DUP3 DUP6 ADD PUSH2 0x1215 JUMP JUMPDEST SWAP2 POP POP SWAP3 SWAP2 POP POP JUMP JUMPDEST PUSH1 0x0 DUP2 MLOAD SWAP1 POP SWAP2 SWAP1 POP JUMP JUMPDEST PUSH1 0x0 DUP3 DUP3 MSTORE PUSH1 0x20 DUP3 ADD SWAP1 POP SWAP3 SWAP2 POP POP JUMP JUMPDEST PUSH1 0x0 DUP2 SWAP1 POP PUSH1 0x20 DUP3 ADD SWAP1 POP SWAP2 SWAP1 POP JUMP JUMPDEST PUSH2 0x128C DUP2 PUSH2 0x1030 JUMP JUMPDEST DUP3 MSTORE POP POP JUMP JUMPDEST PUSH1 0x0 PUSH2 0x129E DUP4 DUP4 PUSH2 0x1283 JUMP JUMPDEST PUSH1 0x20 DUP4 ADD SWAP1 POP SWAP3 SWAP2 POP POP JUMP JUMPDEST PUSH1 0x0 PUSH1 0x20 DUP3 ADD SWAP1 POP SWAP2 SWAP1 POP JUMP JUMPDEST PUSH1 0x0 PUSH2 0x12C2 DUP3 PUSH2 0x1257 JUMP JUMPDEST PUSH2 0x12CC DUP2 DUP6 PUSH2 0x1262 JUMP JUMPDEST SWAP4 POP PUSH2 0x12D7 DUP4 PUSH2 0x1273 JUMP JUMPDEST DUP1 PUSH1 0x0 JUMPDEST DUP4 DUP2 LT ISZERO PUSH2 0x1308 JUMPI DUP2 MLOAD PUSH2 0x12EF DUP9 DUP3 PUSH2 0x1292 JUMP JUMPDEST SWAP8 POP PUSH2 0x12FA DUP4 PUSH2 0x12AA JUMP JUMPDEST SWAP3 POP POP PUSH1 0x1 DUP2 ADD SWAP1 POP PUSH2 0x12DB JUMP JUMPDEST POP DUP6 SWAP4 POP POP POP POP SWAP3 SWAP2 POP POP JUMP JUMPDEST PUSH1 0x0 PUSH1 0x20 DUP3 ADD SWAP1 POP DUP2 DUP2 SUB PUSH1 0x0 DUP4 ADD MSTORE PUSH2 0x132F DUP2 DUP5 PUSH2 0x12B7 JUMP JUMPDEST SWAP1 POP SWAP3 SWAP2 POP POP JUMP JUMPDEST PUSH1 0x0 DUP2 MLOAD SWAP1 POP SWAP2 SWAP1 POP JUMP JUMPDEST PUSH1 0x0 DUP3 DUP3 MSTORE PUSH1 0x20 DUP3 ADD SWAP1 POP SWAP3 SWAP2 POP POP JUMP JUMPDEST PUSH1 0x0 JUMPDEST DUP4 DUP2 LT ISZERO PUSH2 0x1371 JUMPI DUP1 DUP3 ADD MLOAD DUP2 DUP5 ADD MSTORE PUSH1 0x20 DUP2 ADD SWAP1 POP PUSH2 0x1356 JUMP JUMPDEST PUSH1 0x0 DUP5 DUP5 ADD MSTORE POP POP POP POP JUMP JUMPDEST PUSH1 0x0 PUSH1 0x1F NOT PUSH1 0x1F DUP4 ADD AND SWAP1 POP SWAP2 SWAP1 POP JUMP JUMPDEST PUSH1 0x0 PUSH2 0x1399 DUP3 PUSH2 0x1337 JUMP JUMPDEST PUSH2 0x13A3 DUP2 DUP6 PUSH2 0x1342 JUMP JUMPDEST SWAP4 POP PUSH2 0x13B3 DUP2 DUP6 PUSH1 0x20 DUP7 ADD PUSH2 0x1353 JUMP JUMPDEST PUSH2 0x13BC DUP2 PUSH2 0x137D JUMP JUMPDEST DUP5 ADD SWAP2 POP POP SWAP3 SWAP2 POP POP JUMP JUMPDEST PUSH1 0x0 PUSH2 0xFFFF DUP3 AND SWAP1 POP SWAP2 SWAP1 POP JUMP JUMPDEST PUSH2 0x13DE DUP2 PUSH2 0x13C7 JUMP JUMPDEST DUP3 MSTORE POP POP JUMP JUMPDEST PUSH1 0x0 PUSH4 0xFFFFFFFF DUP3 AND SWAP1 POP SWAP2 SWAP1 POP JUMP JUMPDEST PUSH2 0x13FD DUP2 PUSH2 0x13E4 JUMP JUMPDEST DUP3 MSTORE POP POP JUMP JUMPDEST PUSH1 0x0 PUSH1 0xC0 DUP3 ADD SWAP1 POP DUP2 DUP2 SUB PUSH1 0x0 DUP4 ADD MSTORE PUSH2 0x141D DUP2 DUP10 PUSH2 0x138E JUMP JUMPDEST SWAP1 POP PUSH2 0x142C PUSH1 0x20 DUP4 ADD DUP9 PUSH2 0x13D5 JUMP JUMPDEST PUSH2 0x1439 PUSH1 0x40 DUP4 ADD DUP8 PUSH2 0x13D5 JUMP JUMPDEST PUSH2 0x1446 PUSH1 0x60 DUP4 ADD DUP7 PUSH2 0x13D5 JUMP JUMPDEST PUSH2 0x1453 PUSH1 0x80 DUP4 ADD DUP6 PUSH2 0x13F4 JUMP JUMPDEST PUSH2 0x1460 PUSH1 0xA0 DUP4 ADD DUP5 PUSH2 0x13F4 JUMP JUMPDEST SWAP8 SWAP7 POP POP POP POP POP POP POP JUMP JUMPDEST PUSH2 0x1474 DUP2 PUSH2 0x11EC JUMP JUMPDEST DUP3 MSTORE POP POP JUMP JUMPDEST PUSH1 0x0 PUSH1 0x20 DUP3 ADD SWAP1 POP PUSH2 0x148F PUSH1 0x0 DUP4 ADD DUP5 PUSH2 0x146B JUMP JUMPDEST SWAP3 SWAP2 POP POP JUMP JUMPDEST PUSH1 0x0 DUP1 REVERT JUMPDEST PUSH32 0x4E487B7100000000000000000000000000000000000000000000000000000000 PUSH1 0x0 MSTORE PUSH1 0x41 PUSH1 0x4 MSTORE PUSH1 0x24 PUSH1 0x0 REVERT JUMPDEST PUSH2 0x14D2 DUP3 PUSH2 0x137D JUMP JUMPDEST DUP2 ADD DUP2 DUP2 LT PUSH8 0xFFFFFFFFFFFFFFFF DUP3 GT OR ISZERO PUSH2 0x14F1 JUMPI PUSH2 0x14F0 PUSH2 0x149A JUMP JUMPDEST JUMPDEST DUP1 PUSH1 0x40 MSTORE POP POP POP JUMP JUMPDEST PUSH1 0x0 PUSH2 0x1504 PUSH2 0x109A JUMP JUMPDEST SWAP1 POP PUSH2 0x1510 DUP3 DUP3 PUSH2 0x14C9 JUMP JUMPDEST SWAP2 SWAP1 POP JUMP JUMPDEST PUSH1 0x0 PUSH8 0xFFFFFFFFFFFFFFFF DUP3 GT ISZERO PUSH2 0x1530 JUMPI PUSH2 0x152F PUSH2 0x149A JUMP JUMPDEST JUMPDEST PUSH2 0x1539 DUP3 PUSH2 0x137D JUMP JUMPDEST SWAP1 POP PUSH1 0x20 DUP2 ADD SWAP1 POP SWAP2 SWAP1 POP JUMP JUMPDEST DUP3 DUP2 DUP4 CALLDATACOPY PUSH1 0x0 DUP4 DUP4 ADD MSTORE POP POP POP JUMP JUMPDEST PUSH1 0x0 PUSH2 0x1568 PUSH2 0x1563 DUP5 PUSH2 0x1515 JUMP JUMPDEST PUSH2 0x14FA JUMP JUMPDEST SWAP1 POP DUP3 DUP2 MSTORE PUSH1 0x20 DUP2 ADD DUP5 DUP5 DUP5 ADD GT ISZERO PUSH2 0x1584 JUMPI PUSH2 0x1583 PUSH2 0x1495 JUMP JUMPDEST JUMPDEST PUSH2 0x158F DUP5 DUP3 DUP6 PUSH2 0x1546 JUMP JUMPDEST POP SWAP4 SWAP3 POP POP POP JUMP JUMPDEST PUSH1 0x0 DUP3 PUSH1 0x1F DUP4 ADD SLT PUSH2 0x15AC JUMPI PUSH2 0x15AB PUSH2 0x1107 JUMP JUMPDEST JUMPDEST DUP2 CALLDATALOAD PUSH2 0x15BC DUP5 DUP3 PUSH1 0x20 DUP7 ADD PUSH2 0x1555 JUMP JUMPDEST SWAP2 POP POP SWAP3 SWAP2 POP POP JUMP JUMPDEST PUSH1 0x0 PUSH1 0x20 DUP3 DUP5 SUB SLT ISZERO PUSH2 0x15DB JUMPI PUSH2 0x15DA PUSH2 0x10A4 JUMP JUMPDEST JUMPDEST PUSH1 0x0 DUP3 ADD CALLDATALOAD PUSH8 0xFFFFFFFFFFFFFFFF DUP2 GT ISZERO PUSH2 0x15F9 JUMPI PUSH2 0x15F8 PUSH2 0x10A9 JUMP JUMPDEST JUMPDEST PUSH2 0x1605 DUP5 DUP3 DUP6 ADD PUSH2 0x1597 JUMP JUMPDEST SWAP2 POP POP SWAP3 SWAP2 POP POP JUMP JUMPDEST PUSH1 0x0 PUSH2 0x1619 DUP3 PUSH2 0x11CC JUMP JUMPDEST SWAP1 POP SWAP2 SWAP1 POP JUMP JUMPDEST PUSH2 0x1629 DUP2 PUSH2 0x160E JUMP JUMPDEST DUP2 EQ PUSH2 0x1634 JUMPI PUSH1 0x0 DUP1 REVERT JUMPDEST POP JUMP JUMPDEST PUSH1 0x0 DUP2 CALLDATALOAD SWAP1 POP PUSH2 0x1646 DUP2 PUSH2 0x1620 JUMP JUMPDEST SWAP3 SWAP2 POP POP JUMP JUMPDEST PUSH1 0x0 PUSH1 0x20 DUP3 DUP5 SUB SLT ISZERO PUSH2 0x1662 JUMPI PUSH2 0x1661 PUSH2 0x10A4 JUMP JUMPDEST JUMPDEST PUSH1 0x0 PUSH2 0x1670 DUP5 DUP3 DUP6 ADD PUSH2 0x1637 JUMP JUMPDEST SWAP2 POP POP SWAP3 SWAP2 POP POP JUMP JUMPDEST PUSH32 0x7364660000000000000000000000000000000000000000000000000000000000 PUSH1 0x0 DUP3 ADD MSTORE POP JUMP JUMPDEST PUSH1 0x0 PUSH2 0x16AF PUSH1 0x3 DUP4 PUSH2 0x1342 JUMP JUMPDEST SWAP2 POP PUSH2 0x16BA DUP3 PUSH2 0x1679 JUMP JUMPDEST PUSH1 0x20 DUP3 ADD SWAP1 POP SWAP2 SWAP1 POP JUMP JUMPDEST PUSH1 0x0 PUSH1 0x20 DUP3 ADD SWAP1 POP DUP2 DUP2 SUB PUSH1 0x0 DUP4 ADD MSTORE PUSH2 0x16DE DUP2 PUSH2 0x16A2 JUMP JUMPDEST SWAP1 POP SWAP2 SWAP1 POP JUMP JUMPDEST PUSH32 0x4E487B7100000000000000000000000000000000000000000000000000000000 PUSH1 0x0 MSTORE PUSH1 0x32 PUSH1 0x4 MSTORE PUSH1 0x24 PUSH1 0x0 REVERT JUMPDEST PUSH32 0x4E487B7100000000000000000000000000000000000000000000000000000000 PUSH1 0x0 MSTORE PUSH1 0x11 PUSH1 0x4 MSTORE PUSH1 0x24 PUSH1 0x0 REVERT JUMPDEST PUSH1 0x0 PUSH2 0x174E DUP3 PUSH2 0x13E4 JUMP JUMPDEST SWAP2 POP PUSH4 0xFFFFFFFF DUP3 SUB PUSH2 0x1764 JUMPI PUSH2 0x1763 PUSH2 0x1714 JUMP JUMPDEST JUMPDEST PUSH1 0x1 DUP3 ADD SWAP1 POP SWAP2 SWAP1 POP JUMP JUMPDEST PUSH32 0x6572726F72000000000000000000000000000000000000000000000000000000 PUSH1 0x0 DUP3 ADD MSTORE POP JUMP JUMPDEST PUSH1 0x0 PUSH2 0x17A5 PUSH1 0x5 DUP4 PUSH2 0x1342 JUMP JUMPDEST SWAP2 POP PUSH2 0x17B0 DUP3 PUSH2 0x176F JUMP JUMPDEST PUSH1 0x20 DUP3 ADD SWAP1 POP SWAP2 SWAP1 POP JUMP JUMPDEST PUSH1 0x0 PUSH1 0x20 DUP3 ADD SWAP1 POP DUP2 DUP2 SUB PUSH1 0x0 DUP4 ADD MSTORE PUSH2 0x17D4 DUP2 PUSH2 0x1798 JUMP JUMPDEST SWAP1 POP SWAP2 SWAP1 POP JUMP JUMPDEST PUSH1 0x0 DUP3 SWAP1 POP SWAP3 SWAP2 POP POP JUMP JUMPDEST PUSH32 0x4E487B7100000000000000000000000000000000000000000000000000000000 PUSH1 0x0 MSTORE PUSH1 0x22 PUSH1 0x4 MSTORE PUSH1 0x24 PUSH1 0x0 REVERT JUMPDEST PUSH1 0x0 PUSH1 0x2 DUP3 DIV SWAP1 POP PUSH1 0x1 DUP3 AND DUP1 PUSH2 0x182D JUMPI PUSH1 0x7F DUP3 AND SWAP2 POP JUMPDEST PUSH1 0x20 DUP3 LT DUP2 SUB PUSH2 0x1840 JUMPI PUSH2 0x183F PUSH2 0x17E6 JUMP JUMPDEST JUMPDEST POP SWAP2 SWAP1 POP JUMP JUMPDEST PUSH1 0x0 DUP2 SWAP1 POP DUP2 PUSH1 0x0 MSTORE PUSH1 0x20 PUSH1 0x0 KECCAK256 SWAP1 POP SWAP2 SWAP1 POP JUMP JUMPDEST PUSH1 0x0 PUSH1 0x20 PUSH1 0x1F DUP4 ADD DIV SWAP1 POP SWAP2 SWAP1 POP JUMP JUMPDEST PUSH1 0x0 DUP3 DUP3 SHL SWAP1 POP SWAP3 SWAP2 POP POP JUMP JUMPDEST PUSH1 0x0 PUSH1 0x8 DUP4 MUL PUSH2 0x18A8 PUSH32 0xFFFFFFFFFFFFFFFFFFFFFFFFFFFFFFFFFFFFFFFFFFFFFFFFFFFFFFFFFFFFFFFF DUP3 PUSH2 0x186B JUMP JUMPDEST PUSH2 0x18B2 DUP7 DUP4 PUSH2 0x186B JUMP JUMPDEST SWAP6 POP DUP1 NOT DUP5 AND SWAP4 POP DUP1 DUP7 AND DUP5 OR SWAP3 POP POP POP SWAP4 SWAP3 POP POP POP JUMP JUMPDEST PUSH1 0x0 DUP2 SWAP1 POP SWAP2 SWAP1 POP JUMP JUMPDEST PUSH1 0x0 PUSH2 0x18EF PUSH2 0x18EA PUSH2 0x18E5 DUP5 PUSH2 0x1030 JUMP JUMPDEST PUSH2 0x18CA JUMP JUMPDEST PUSH2 0x1030 JUMP JUMPDEST SWAP1 POP SWAP2 SWAP1 POP JUMP JUMPDEST PUSH1 0x0 DUP2 SWAP1 POP SWAP2 SWAP1 POP JUMP JUMPDEST PUSH2 0x1909 DUP4 PUSH2 0x18D4 JUMP JUMPDEST PUSH2 0x191D PUSH2 0x1915 DUP3 PUSH2 0x18F6 JUMP JUMPDEST DUP5 DUP5 SLOAD PUSH2 0x1878 JUMP JUMPDEST DUP3 SSTORE POP POP POP POP JUMP JUMPDEST PUSH1 0x0 SWAP1 JUMP JUMPDEST PUSH2 0x1932 PUSH2 0x1925 JUMP JUMPDEST PUSH2 0x193D DUP2 DUP5 DUP5 PUSH2 0x1900 JUMP JUMPDEST POP POP POP JUMP JUMPDEST JUMPDEST DUP2 DUP2 LT ISZERO PUSH2 0x1961 JUMPI PUSH2 0x1956 PUSH1 0x0 DUP3 PUSH2 0x192A JUMP JUMPDEST PUSH1 0x1 DUP2 ADD SWAP1 POP PUSH2 0x1943 JUMP JUMPDEST POP POP JUMP JUMPDEST PUSH1 0x1F DUP3 GT ISZERO PUSH2 0x19A6 JUMPI PUSH2 0x1977 DUP2 PUSH2 0x1846 JUMP JUMPDEST PUSH2 0x1980 DUP5 PUSH2 0x185B JUMP JUMPDEST DUP2 ADD PUSH1 0x20 DUP6 LT ISZERO PUSH2 0x198F JUMPI DUP2 SWAP1 POP JUMPDEST PUSH2 0x19A3 PUSH2 0x199B DUP6 PUSH2 0x185B JUMP JUMPDEST DUP4 ADD DUP3 PUSH2 0x1942 JUMP JUMPDEST POP POP JUMPDEST POP POP POP JUMP JUMPDEST PUSH1 0x0 DUP3 DUP3 SHR SWAP1 POP SWAP3 SWAP2 POP POP JUMP JUMPDEST PUSH1 0x0 PUSH2 0x19C9 PUSH1 0x0 NOT DUP5 PUSH1 0x8 MUL PUSH2 0x19AB JUMP JUMPDEST NOT DUP1 DUP4 AND SWAP2 POP POP SWAP3 SWAP2 POP POP JUMP JUMPDEST PUSH1 0x0 PUSH2 0x19E2 DUP4 DUP4 PUSH2 0x19B8 JUMP JUMPDEST SWAP2 POP DUP3 PUSH1 0x2 MUL DUP3 OR SWAP1 POP SWAP3 SWAP2 POP POP JUMP JUMPDEST PUSH2 0x19FC DUP4 DUP4 PUSH2 0x17DB JUMP JUMPDEST PUSH8 0xFFFFFFFFFFFFFFFF DUP2 GT ISZERO PUSH2 0x1A15 JUMPI PUSH2 0x1A14 PUSH2 0x149A JUMP JUMPDEST JUMPDEST PUSH2 0x1A1F DUP3 SLOAD PUSH2 0x1815 JUMP JUMPDEST PUSH2 0x1A2A DUP3 DUP3 DUP6 PUSH2 0x1965 JUMP JUMPDEST PUSH1 0x0 PUSH1 0x1F DUP4 GT PUSH1 0x1 DUP2 EQ PUSH2 0x1A59 JUMPI PUSH1 0x0 DUP5 ISZERO PUSH2 0x1A47 JUMPI DUP3 DUP8 ADD CALLDATALOAD SWAP1 POP JUMPDEST PUSH2 0x1A51 DUP6 DUP3 PUSH2 0x19D6 JUMP JUMPDEST DUP7 SSTORE POP PUSH2 0x1AB9 JUMP JUMPDEST PUSH1 0x1F NOT DUP5 AND PUSH2 0x1A67 DUP7 PUSH2 0x1846 JUMP JUMPDEST PUSH1 0x0 JUMPDEST DUP3 DUP2 LT ISZERO PUSH2 0x1A8F JUMPI DUP5 DUP10 ADD CALLDATALOAD DUP3 SSTORE PUSH1 0x1 DUP3 ADD SWAP2 POP PUSH1 0x20 DUP6 ADD SWAP5 POP PUSH1 0x20 DUP2 ADD SWAP1 POP PUSH2 0x1A6A JUMP JUMPDEST DUP7 DUP4 LT ISZERO PUSH2 0x1AAC JUMPI DUP5 DUP10 ADD CALLDATALOAD PUSH2 0x1AA8 PUSH1 0x1F DUP10 AND DUP3 PUSH2 0x19B8 JUMP JUMPDEST DUP4 SSTORE POP JUMPDEST PUSH1 0x1 PUSH1 0x2 DUP9 MUL ADD DUP9 SSTORE POP POP POP JUMPDEST POP POP POP POP POP POP POP JUMP JUMPDEST PUSH32 0x4D75737420636F6E7472616374206F776E657200000000000000000000000000 PUSH1 0x0 DUP3 ADD MSTORE POP JUMP JUMPDEST PUSH1 0x0 PUSH2 0x1AF8 PUSH1 0x13 DUP4 PUSH2 0x1342 JUMP JUMPDEST SWAP2 POP PUSH2 0x1B03 DUP3 PUSH2 0x1AC2 JUMP JUMPDEST PUSH1 0x20 DUP3 ADD SWAP1 POP SWAP2 SWAP1 POP JUMP JUMPDEST PUSH1 0x0 PUSH1 0x20 DUP3 ADD SWAP1 POP DUP2 DUP2 SUB PUSH1 0x0 DUP4 ADD MSTORE PUSH2 0x1B27 DUP2 PUSH2 0x1AEB JUMP JUMPDEST SWAP1 POP SWAP2 SWAP1 POP JUMP JUMPDEST PUSH1 0x0 PUSH2 0x1B39 DUP3 PUSH2 0x1030 JUMP JUMPDEST SWAP2 POP PUSH32 0xFFFFFFFFFFFFFFFFFFFFFFFFFFFFFFFFFFFFFFFFFFFFFFFFFFFFFFFFFFFFFFFF DUP3 SUB PUSH2 0x1B6B JUMPI PUSH2 0x1B6A PUSH2 0x1714 JUMP JUMPDEST JUMPDEST PUSH1 0x1 DUP3 ADD SWAP1 POP SWAP2 SWAP1 POP JUMP JUMPDEST PUSH32 0x4E487B7100000000000000000000000000000000000000000000000000000000 PUSH1 0x0 MSTORE PUSH1 0x12 PUSH1 0x4 MSTORE PUSH1 0x24 PUSH1 0x0 REVERT JUMPDEST PUSH1 0x0 PUSH2 0x1BB0 DUP3 PUSH2 0x13C7 JUMP JUMPDEST SWAP2 POP PUSH2 0x1BBB DUP4 PUSH2 0x13C7 JUMP JUMPDEST SWAP3 POP DUP3 PUSH2 0x1BCB JUMPI PUSH2 0x1BCA PUSH2 0x1B76 JUMP JUMPDEST JUMPDEST DUP3 DUP3 MOD SWAP1 POP SWAP3 SWAP2 POP POP JUMP JUMPDEST PUSH1 0x0 PUSH2 0x1BE1 DUP3 PUSH2 0x13C7 JUMP JUMPDEST SWAP2 POP PUSH2 0x1BEC DUP4 PUSH2 0x13C7 JUMP JUMPDEST SWAP3 POP DUP3 DUP3 SUB SWAP1 POP PUSH2 0xFFFF DUP2 GT ISZERO PUSH2 0x1C06 JUMPI PUSH2 0x1C05 PUSH2 0x1714 JUMP JUMPDEST JUMPDEST SWAP3 SWAP2 POP POP JUMP JUMPDEST PUSH1 0x0 PUSH2 0x1C17 DUP3 PUSH2 0x13C7 JUMP JUMPDEST SWAP2 POP PUSH2 0x1C22 DUP4 PUSH2 0x13C7 JUMP JUMPDEST SWAP3 POP DUP3 DUP3 ADD SWAP1 POP PUSH2 0xFFFF DUP2 GT ISZERO PUSH2 0x1C3C JUMPI PUSH2 0x1C3B PUSH2 0x1714 JUMP JUMPDEST JUMPDEST SWAP3 SWAP2 POP POP JUMP JUMPDEST PUSH1 0x0 DUP2 SWAP1 POP SWAP3 SWAP2 POP POP JUMP JUMPDEST PUSH1 0x0 PUSH2 0x1C58 DUP3 PUSH2 0x1337 JUMP JUMPDEST PUSH2 0x1C62 DUP2 DUP6 PUSH2 0x1C42 JUMP JUMPDEST SWAP4 POP PUSH2 0x1C72 DUP2 DUP6 PUSH1 0x20 DUP7 ADD PUSH2 0x1353 JUMP JUMPDEST DUP1 DUP5 ADD SWAP2 POP POP SWAP3 SWAP2 POP POP JUMP JUMPDEST PUSH1 0x0 DUP2 SWAP1 POP SWAP2 SWAP1 POP JUMP JUMPDEST PUSH2 0x1C99 PUSH2 0x1C94 DUP3 PUSH2 0x1030 JUMP JUMPDEST PUSH2 0x1C7E JUMP JUMPDEST DUP3 MSTORE POP POP JUMP JUMPDEST PUSH1 0x0 PUSH2 0x1CAB DUP3 DUP6 PUSH2 0x1C4D JUMP JUMPDEST SWAP2 POP PUSH2 0x1CB7 DUP3 DUP5 PUSH2 0x1C88 JUMP JUMPDEST PUSH1 0x20 DUP3 ADD SWAP2 POP DUP2 SWAP1 POP SWAP4 SWAP3 POP POP POP JUMP JUMPDEST PUSH1 0x0 PUSH2 0x1CD2 DUP3 PUSH2 0x1030 JUMP JUMPDEST SWAP2 POP PUSH2 0x1CDD DUP4 PUSH2 0x1030 JUMP JUMPDEST SWAP3 POP DUP3 PUSH2 0x1CED JUMPI PUSH2 0x1CEC PUSH2 0x1B76 JUMP JUMPDEST JUMPDEST DUP3 DUP3 MOD SWAP1 POP SWAP3 SWAP2 POP POP JUMP JUMPDEST PUSH2 0x1D01 DUP3 PUSH2 0x1337 JUMP JUMPDEST PUSH8 0xFFFFFFFFFFFFFFFF DUP2 GT ISZERO PUSH2 0x1D1A JUMPI PUSH2 0x1D19 PUSH2 0x149A JUMP JUMPDEST JUMPDEST PUSH2 0x1D24 DUP3 SLOAD PUSH2 0x1815 JUMP JUMPDEST PUSH2 0x1D2F DUP3 DUP3 DUP6 PUSH2 0x1965 JUMP JUMPDEST PUSH1 0x0 PUSH1 0x20 SWAP1 POP PUSH1 0x1F DUP4 GT PUSH1 0x1 DUP2 EQ PUSH2 0x1D62 JUMPI PUSH1 0x0 DUP5 ISZERO PUSH2 0x1D50 JUMPI DUP3 DUP8 ADD MLOAD SWAP1 POP JUMPDEST PUSH2 0x1D5A DUP6 DUP3 PUSH2 0x19D6 JUMP JUMPDEST DUP7 SSTORE POP PUSH2 0x1DC2 JUMP JUMPDEST PUSH1 0x1F NOT DUP5 AND PUSH2 0x1D70 DUP7 PUSH2 0x1846 JUMP JUMPDEST PUSH1 0x0 JUMPDEST DUP3 DUP2 LT ISZERO PUSH2 0x1D98 JUMPI DUP5 DUP10 ADD MLOAD DUP3 SSTORE PUSH1 0x1 DUP3 ADD SWAP2 POP PUSH1 0x20 DUP6 ADD SWAP5 POP PUSH1 0x20 DUP2 ADD SWAP1 POP PUSH2 0x1D73 JUMP JUMPDEST DUP7 DUP4 LT ISZERO PUSH2 0x1DB5 JUMPI DUP5 DUP10 ADD MLOAD PUSH2 0x1DB1 PUSH1 0x1F DUP10 AND DUP3 PUSH2 0x19B8 JUMP JUMPDEST DUP4 SSTORE POP JUMPDEST PUSH1 0x1 PUSH1 0x2 DUP9 MUL ADD DUP9 SSTORE POP POP POP JUMPDEST POP POP POP POP POP POP JUMP JUMPDEST PUSH1 0x0 PUSH2 0x1DD5 DUP3 PUSH2 0x1030 JUMP JUMPDEST SWAP2 POP PUSH2 0x1DE0 DUP4 PUSH2 0x1030 JUMP JUMPDEST SWAP3 POP DUP3 DUP3 SUB SWAP1 POP DUP2 DUP2 GT ISZERO PUSH2 0x1DF8 JUMPI PUSH2 0x1DF7 PUSH2 0x1714 JUMP JUMPDEST JUMPDEST SWAP3 SWAP2 POP POP JUMP JUMPDEST PUSH1 0x0 PUSH2 0x1E19 PUSH2 0x1E14 PUSH2 0x1E0F DUP5 PUSH2 0x13C7 JUMP JUMPDEST PUSH2 0x18CA JUMP JUMPDEST PUSH2 0x1030 JUMP JUMPDEST SWAP1 POP SWAP2 SWAP1 POP JUMP JUMPDEST PUSH2 0x1E29 DUP2 PUSH2 0x1DFE JUMP JUMPDEST DUP3 MSTORE POP POP JUMP JUMPDEST PUSH1 0x0 PUSH1 0x60 DUP3 ADD SWAP1 POP PUSH2 0x1E44 PUSH1 0x0 DUP4 ADD DUP7 PUSH2 0x103A JUMP JUMPDEST DUP2 DUP2 SUB PUSH1 0x20 DUP4 ADD MSTORE PUSH2 0x1E56 DUP2 DUP6 PUSH2 0x138E JUMP JUMPDEST SWAP1 POP PUSH2 0x1E65 PUSH1 0x40 DUP4 ADD DUP5 PUSH2 0x1E20 JUMP JUMPDEST SWAP5 SWAP4 POP POP POP POP JUMP JUMPDEST PUSH1 0x0 PUSH2 0x1E78 DUP3 PUSH2 0x1030 JUMP JUMPDEST SWAP2 POP PUSH2 0x1E83 DUP4 PUSH2 0x1030 JUMP JUMPDEST SWAP3 POP DUP3 DUP3 ADD SWAP1 POP DUP1 DUP3 GT ISZERO PUSH2 0x1E9B JUMPI PUSH2 0x1E9A PUSH2 0x1714 JUMP JUMPDEST JUMPDEST SWAP3 SWAP2 POP POP JUMP JUMPDEST PUSH32 0x4E487B7100000000000000000000000000000000000000000000000000000000 PUSH1 0x0 MSTORE PUSH1 0x1 PUSH1 0x4 MSTORE PUSH1 0x24 PUSH1 0x0 REVERT INVALID LOG2 PUSH5 0x6970667358 0x22 SLT KECCAK256 0xB9 0xC OR 0xC7 0xFB INVALID 0xCE SWAP2 SWAP1 PUSH26 0xC2B9E163F553DBB798240136DF0B2D0D36113572679164736F6C PUSH4 0x43000811 STOP CALLER "
				},
				"gasEstimates": {
					"creation": {
						"codeDepositCost": "1588400",
						"executionCost": "infinite",
						"totalCost": "infinite"
					},
					"external": {
						"buyZombic(string)": "infinite",
						"changeName(string,uint256)": "infinite",
						"checkDeployTest()": "2567",
						"cooldownTime()": "2451",
						"createZombic(string)": "infinite",
						"getZombicsByOwner(address)": "infinite",
						"leveUp(uint256)": "31427",
						"owner()": "2578",
						"setUpLevelFee(uint256)": "24732",
						"setZombicPrice(uint256)": "24731",
						"transferOwnership(address)": "30668",
						"zombicCount()": "2453",
						"zombicPrice()": "2496",
						"zombicToOwber(uint256)": "2884",
						"zombics(uint256)": "infinite"
					},
					"internal": {
						"_isReady(struct ZombicFactory.Zombic storage pointer)": "infinite",
						"muliply(uint256,uint256)": "infinite",
						"triggerCooldown(struct ZombicFactory.Zombic storage pointer)": "infinite"
					}
				},
				"methodIdentifiers": {
					"buyZombic(string)": "f94f0593",
					"changeName(string,uint256)": "270dc9fd",
					"checkDeployTest()": "206c8db4",
					"cooldownTime()": "b319c6b7",
					"createZombic(string)": "a38d7e5b",
					"getZombicsByOwner(address)": "43d5d022",
					"leveUp(uint256)": "227c59e6",
					"owner()": "8da5cb5b",
					"setUpLevelFee(uint256)": "3a42c900",
					"setZombicPrice(uint256)": "e7eb1214",
					"transferOwnership(address)": "f2fde38b",
					"zombicCount()": "02f4db2f",
					"zombicPrice()": "3ece8f6f",
					"zombicToOwber(uint256)": "6de2e36c",
					"zombics(uint256)": "5e0b8654"
				}
			},
			"storageLayout": {
				"storage": [
					{
						"astId": 4,
						"contract": "contracts/ZombicHelper.sol:ZombicHelper",
						"label": "owner",
						"offset": 0,
						"slot": "0",
						"type": "t_address"
					},
					{
						"astId": 177,
						"contract": "contracts/ZombicHelper.sol:ZombicHelper",
						"label": "checkDeployTest",
						"offset": 20,
						"slot": "0",
						"type": "t_bool"
					},
					{
						"astId": 180,
						"contract": "contracts/ZombicHelper.sol:ZombicHelper",
						"label": "dnaDigits",
						"offset": 0,
						"slot": "1",
						"type": "t_uint256"
					},
					{
						"astId": 185,
						"contract": "contracts/ZombicHelper.sol:ZombicHelper",
						"label": "dnaModulus",
						"offset": 0,
						"slot": "2",
						"type": "t_uint256"
					},
					{
						"astId": 188,
						"contract": "contracts/ZombicHelper.sol:ZombicHelper",
						"label": "cooldownTime",
						"offset": 0,
						"slot": "3",
						"type": "t_uint256"
					},
					{
						"astId": 191,
						"contract": "contracts/ZombicHelper.sol:ZombicHelper",
						"label": "zombicPrice",
						"offset": 0,
						"slot": "4",
						"type": "t_uint256"
					},
					{
						"astId": 194,
						"contract": "contracts/ZombicHelper.sol:ZombicHelper",
						"label": "zombicCount",
						"offset": 0,
						"slot": "5",
						"type": "t_uint256"
					},
					{
						"astId": 213,
						"contract": "contracts/ZombicHelper.sol:ZombicHelper",
						"label": "zombics",
						"offset": 0,
						"slot": "6",
						"type": "t_array(t_struct(Zombic)209_storage)dyn_storage"
					},
					{
						"astId": 218,
						"contract": "contracts/ZombicHelper.sol:ZombicHelper",
						"label": "zombicToOwber",
						"offset": 0,
						"slot": "7",
						"type": "t_mapping(t_uint256,t_address)"
					},
					{
						"astId": 223,
						"contract": "contracts/ZombicHelper.sol:ZombicHelper",
						"label": "ownerZombicCount",
						"offset": 0,
						"slot": "8",
						"type": "t_mapping(t_address,t_uint256)"
					},
					{
						"astId": 228,
						"contract": "contracts/ZombicHelper.sol:ZombicHelper",
						"label": "zombicFeedTimes",
						"offset": 0,
						"slot": "9",
						"type": "t_mapping(t_uint256,t_uint256)"
					},
					{
						"astId": 426,
						"contract": "contracts/ZombicHelper.sol:ZombicHelper",
						"label": "leveUpFee",
						"offset": 0,
						"slot": "10",
						"type": "t_uint256"
					}
				],
				"types": {
					"t_address": {
						"encoding": "inplace",
						"label": "address",
						"numberOfBytes": "20"
					},
					"t_array(t_struct(Zombic)209_storage)dyn_storage": {
						"base": "t_struct(Zombic)209_storage",
						"encoding": "dynamic_array",
						"label": "struct ZombicFactory.Zombic[]",
						"numberOfBytes": "32"
					},
					"t_bool": {
						"encoding": "inplace",
						"label": "bool",
						"numberOfBytes": "1"
					},
					"t_mapping(t_address,t_uint256)": {
						"encoding": "mapping",
						"key": "t_address",
						"label": "mapping(address => uint256)",
						"numberOfBytes": "32",
						"value": "t_uint256"
					},
					"t_mapping(t_uint256,t_address)": {
						"encoding": "mapping",
						"key": "t_uint256",
						"label": "mapping(uint256 => address)",
						"numberOfBytes": "32",
						"value": "t_address"
					},
					"t_mapping(t_uint256,t_uint256)": {
						"encoding": "mapping",
						"key": "t_uint256",
						"label": "mapping(uint256 => uint256)",
						"numberOfBytes": "32",
						"value": "t_uint256"
					},
					"t_string_storage": {
						"encoding": "bytes",
						"label": "string",
						"numberOfBytes": "32"
					},
					"t_struct(Zombic)209_storage": {
						"encoding": "inplace",
						"label": "struct ZombicFactory.Zombic",
						"members": [
							{
								"astId": 196,
								"contract": "contracts/ZombicHelper.sol:ZombicHelper",
								"label": "name",
								"offset": 0,
								"slot": "0",
								"type": "t_string_storage"
							},
							{
								"astId": 198,
								"contract": "contracts/ZombicHelper.sol:ZombicHelper",
								"label": "dna",
								"offset": 0,
								"slot": "1",
								"type": "t_uint16"
							},
							{
								"astId": 200,
								"contract": "contracts/ZombicHelper.sol:ZombicHelper",
								"label": "winCount",
								"offset": 2,
								"slot": "1",
								"type": "t_uint16"
							},
							{
								"astId": 202,
								"contract": "contracts/ZombicHelper.sol:ZombicHelper",
								"label": "loseCount",
								"offset": 4,
								"slot": "1",
								"type": "t_uint16"
							},
							{
								"astId": 205,
								"contract": "contracts/ZombicHelper.sol:ZombicHelper",
								"label": "level",
								"offset": 6,
								"slot": "1",
								"type": "t_uint32"
							},
							{
								"astId": 208,
								"contract": "contracts/ZombicHelper.sol:ZombicHelper",
								"label": "cooldownTime",
								"offset": 10,
								"slot": "1",
								"type": "t_uint32"
							}
						],
						"numberOfBytes": "64"
					},
					"t_uint16": {
						"encoding": "inplace",
						"label": "uint16",
						"numberOfBytes": "2"
					},
					"t_uint256": {
						"encoding": "inplace",
						"label": "uint256",
						"numberOfBytes": "32"
					},
					"t_uint32": {
						"encoding": "inplace",
						"label": "uint32",
						"numberOfBytes": "4"
					}
				}
			},
			"userdoc": {
				"kind": "user",
				"methods": {
					"changeName(string,uint256)": {
						"notice": "external 外部调用函数 必须使用 calldata 不能使用memory "
					},
					"zombicToOwber(uint256)": {
						"notice": "僵尸id=》拥有者 "
					}
				},
				"version": 1
			}
		}
	}
}