{
	"data": {
		"bytecode": {
			"linkReferences": {},
			"object": "608060405260008060146101000a81548160ff0219169083151502179055506010600155600154600a6200003491906200023a565b60025562015180600355662386f26fc10000600455600060055566038d7ea4c68000600a553480156200006657600080fd5b50336000806101000a81548173ffffffffffffffffffffffffffffffffffffffff021916908373ffffffffffffffffffffffffffffffffffffffff1602179055506200028b565b7f4e487b7100000000000000000000000000000000000000000000000000000000600052601160045260246000fd5b60008160011c9050919050565b6000808291508390505b60018511156200013b57808604811115620001135762000112620000ad565b5b6001851615620001235780820291505b80810290506200013385620000dc565b9450620000f3565b94509492505050565b60008262000156576001905062000229565b8162000166576000905062000229565b81600181146200017f57600281146200018a57620001c0565b600191505062000229565b60ff8411156200019f576200019e620000ad565b5b8360020a915084821115620001b957620001b8620000ad565b5b5062000229565b5060208310610133831016604e8410600b8410161715620001fa5782820a905083811115620001f457620001f3620000ad565b5b62000229565b620002098484846001620000e9565b92509050818404811115620002235762000222620000ad565b5b81810290505b9392505050565b6000819050919050565b6000620002478262000230565b9150620002548362000230565b9250620002837fffffffffffffffffffffffffffffffffffffffffffffffffffffffffffffffff848462000144565b905092915050565b6121d3806200029b6000396000f3fe6080604052600436106100fe5760003560e01c80636de2e36c11610095578063b319c6b711610064578063b319c6b71461032d578063e7eb121414610358578063f2fde38b14610381578063f59dfdfb146103aa578063f94f0593146103d3576100fe565b80636de2e36c146102715780638da5cb5b146102ae57806390ab0522146102d9578063a38d7e5b14610304576100fe565b80633a42c900116100d15780633a42c9001461019e5780633ece8f6f146101c757806343d5d022146101f25780635e0b86541461022f576100fe565b806302f4db2f14610103578063206c8db41461012e578063227c59e614610159578063270dc9fd14610175575b600080fd5b34801561010f57600080fd5b506101186103ef565b60405161012591906112de565b60405180910390f35b34801561013a57600080fd5b506101436103f5565b6040516101509190611314565b60405180910390f35b610173600480360381019061016e919061136f565b610408565b005b34801561018157600080fd5b5061019c60048036038101906101979190611401565b6104b4565b005b3480156101aa57600080fd5b506101c560048036038101906101c0919061136f565b610614565b005b3480156101d357600080fd5b506101dc6106ac565b6040516101e991906112de565b60405180910390f35b3480156101fe57600080fd5b50610219600480360381019061021491906114bf565b6106b2565b60405161022691906115aa565b60405180910390f35b34801561023b57600080fd5b506102566004803603810190610251919061136f565b610804565b60405161026896959493929190611698565b60405180910390f35b34801561027d57600080fd5b506102986004803603810190610293919061136f565b610922565b6040516102a5919061170f565b60405180910390f35b3480156102ba57600080fd5b506102c3610955565b6040516102d0919061170f565b60405180910390f35b3480156102e557600080fd5b506102ee610979565b6040516102fb91906112de565b60405180910390f35b34801561031057600080fd5b5061032b6004803603810190610326919061185a565b61097f565b005b34801561033957600080fd5b50610342610a36565b60405161034f91906112de565b60405180910390f35b34801561036457600080fd5b5061037f600480360381019061037a919061136f565b610a3c565b005b34801561038d57600080fd5b506103a860048036038101906103a391906118e1565b610ad4565b005b3480156103b657600080fd5b506103d160048036038101906103cc919061136f565b610c8e565b005b6103ed60048036038101906103e8919061185a565b610e5a565b005b60055481565b600060149054906101000a900460ff1681565b600a5434101561044d576040517f08c379a00000000000000000000000000000000000000000000000000000000081526004016104449061195a565b60405180910390fd5b600681815481106104615761046061197a565b5b9060005260206000209060020201600101600681819054906101000a900463ffffffff1680929190610492906119d8565b91906101000a81548163ffffffff021916908363ffffffff1602179055505050565b60028181600682815481106104cc576104cb61197a565b5b906000526020600020906002020160010160069054906101000a900463ffffffff1663ffffffff161015610535576040517f08c379a000000000000000000000000000000000000000000000000000000000815260040161052c90611a50565b60405180910390fd5b826007600082815260200190815260200160002060009054906101000a900473ffffffffffffffffffffffffffffffffffffffff1673ffffffffffffffffffffffffffffffffffffffff163373ffffffffffffffffffffffffffffffffffffffff16146105d7576040517f08c379a00000000000000000000000000000000000000000000000000000000081526004016105ce90611a50565b60405180910390fd5b8585600686815481106105ed576105ec61197a565b5b9060005260206000209060020201600001918261060b929190611c87565b50505050505050565b60008054906101000a900473ffffffffffffffffffffffffffffffffffffffff1673ffffffffffffffffffffffffffffffffffffffff163373ffffffffffffffffffffffffffffffffffffffff16146106a2576040517f08c379a000000000000000000000000000000000000000000000000000000000815260040161069990611da3565b60405180910390fd5b80600a8190555050565b60045481565b60606000600860008473ffffffffffffffffffffffffffffffffffffffff1673ffffffffffffffffffffffffffffffffffffffff1681526020019081526020016000205467ffffffffffffffff81111561070f5761070e61172f565b5b60405190808252806020026020018201604052801561073d5781602001602082028036833780820191505090505b5090506000805b6006805490508110156107f9578473ffffffffffffffffffffffffffffffffffffffff166007600083815260200190815260200160002060009054906101000a900473ffffffffffffffffffffffffffffffffffffffff1673ffffffffffffffffffffffffffffffffffffffff16036107e657808383815181106107cb576107ca61197a565b5b60200260200101818152505081806107e290611dc3565b9250505b80806107f190611dc3565b915050610744565b508192505050919050565b6006818154811061081457600080fd5b906000526020600020906002020160009150905080600001805461083790611aaa565b80601f016020809104026020016040519081016040528092919081815260200182805461086390611aaa565b80156108b05780601f10610885576101008083540402835291602001916108b0565b820191906000526020600020905b81548152906001019060200180831161089357829003601f168201915b5050505050908060010160009054906101000a900461ffff16908060010160029054906101000a900461ffff16908060010160049054906101000a900461ffff16908060010160069054906101000a900463ffffffff169080600101600a9054906101000a900463ffffffff16905086565b60076020528060005260406000206000915054906101000a900473ffffffffffffffffffffffffffffffffffffffff1681565b60008054906101000a900473ffffffffffffffffffffffffffffffffffffffff1681565b600a5481565b6000600860003373ffffffffffffffffffffffffffffffffffffffff1673ffffffffffffffffffffffffffffffffffffffff1681526020019081526020016000205414610a01576040517f08c379a00000000000000000000000000000000000000000000000000000000081526004016109f890611a50565b60405180910390fd5b6000610a0c82610f61565b9050600a81610a1b9190611e3a565b81610a269190611e6b565b9050610a328282610fa3565b5050565b60035481565b60008054906101000a900473ffffffffffffffffffffffffffffffffffffffff1673ffffffffffffffffffffffffffffffffffffffff163373ffffffffffffffffffffffffffffffffffffffff1614610aca576040517f08c379a0000000000000000000000000000000000000000000000000000000008152600401610ac190611da3565b60405180910390fd5b8060048190555050565b60008054906101000a900473ffffffffffffffffffffffffffffffffffffffff1673ffffffffffffffffffffffffffffffffffffffff163373ffffffffffffffffffffffffffffffffffffffff1614610b62576040517f08c379a0000000000000000000000000000000000000000000000000000000008152600401610b5990611da3565b60405180910390fd5b600073ffffffffffffffffffffffffffffffffffffffff168173ffffffffffffffffffffffffffffffffffffffff1603610bd1576040517f08c379a0000000000000000000000000000000000000000000000000000000008152600401610bc890611da3565b60405180910390fd5b8073ffffffffffffffffffffffffffffffffffffffff1660008054906101000a900473ffffffffffffffffffffffffffffffffffffffff1673ffffffffffffffffffffffffffffffffffffffff167f8be0079c531659141344cd1fd0a4f28419497f9722a3daafe3b4186f6b6457e060405160405180910390a3806000806101000a81548173ffffffffffffffffffffffffffffffffffffffff021916908373ffffffffffffffffffffffffffffffffffffffff16021790555050565b806007600082815260200190815260200160002060009054906101000a900473ffffffffffffffffffffffffffffffffffffffff1673ffffffffffffffffffffffffffffffffffffffff163373ffffffffffffffffffffffffffffffffffffffff1614610d30576040517f08c379a0000000000000000000000000000000000000000000000000000000008152600401610d2790611a50565b60405180910390fd5b600060068381548110610d4657610d4561197a565b5b90600052602060002090600202019050610d7d6001600960008681526020019081526020016000205461124090919063ffffffff16565b6009600085815260200190815260200160002081905550610d9d8161126c565b6000600a6009600086815260200190815260200160002054610dbf9190611ea1565b03610e555760006008600a8360010160009054906101000a900461ffff16610de79190611e3a565b8360010160009054906101000a900461ffff16610e049190611e6b565b610e0e9190611ed2565b61ffff169050610e536040518060400160405280600c81526020017f7a6f6d626963277320736f6e000000000000000000000000000000000000000081525082610fa3565b505b505050565b6000600860003373ffffffffffffffffffffffffffffffffffffffff1673ffffffffffffffffffffffffffffffffffffffff1681526020019081526020016000205411610edc576040517f08c379a0000000000000000000000000000000000000000000000000000000008152600401610ed390611a50565b60405180910390fd5b6004543411610f20576040517f08c379a0000000000000000000000000000000000000000000000000000000008152600401610f1790611a50565b60405180910390fd5b6000610f2b82610f61565b90506001600a82610f3c9190611e3a565b82610f479190611e6b565b610f519190611ed2565b9050610f5d8282610fa3565b5050565b60006002548242604051602001610f79929190611f65565b6040516020818303038152906040528051906020012060001c610f9c9190611ea1565b9050919050565b60066040518060c001604052808481526020018361ffff168152602001600061ffff168152602001600061ffff168152602001600163ffffffff168152602001600063ffffffff168152509080600181540180825580915050600190039060005260206000209060020201600090919091909150600082015181600001908161102c9190611f8d565b5060208201518160010160006101000a81548161ffff021916908361ffff16021790555060408201518160010160026101000a81548161ffff021916908361ffff16021790555060608201518160010160046101000a81548161ffff021916908361ffff16021790555060808201518160010160066101000a81548163ffffffff021916908363ffffffff16021790555060a082015181600101600a6101000a81548163ffffffff021916908363ffffffff1602179055505050600060016006805490506110fa919061205f565b9050336007600083815260200190815260200160002060006101000a81548173ffffffffffffffffffffffffffffffffffffffff021916908373ffffffffffffffffffffffffffffffffffffffff1602179055506111a16001600860003373ffffffffffffffffffffffffffffffffffffffff1673ffffffffffffffffffffffffffffffffffffffff1681526020019081526020016000205461124090919063ffffffff16565b600860003373ffffffffffffffffffffffffffffffffffffffff1673ffffffffffffffffffffffffffffffffffffffff168152602001908152602001600020819055506111fa600160055461124090919063ffffffff16565b6005819055507fffb2fb18e6d3ec7ef368d2f329ef22f9431aaebe0fcbc9282d7770949ac8cd31818484604051611233939291906120c4565b60405180910390a1505050565b600080828461124f9190612102565b90508381101561126257611261612136565b5b8091505092915050565b620151806003544261127e9190612102565b6112889190611ea1565b600354426112969190612102565b6112a09190612165565b81600101600a6101000a81548163ffffffff021916908363ffffffff16021790555050565b6000819050919050565b6112d8816112c5565b82525050565b60006020820190506112f360008301846112cf565b92915050565b60008115159050919050565b61130e816112f9565b82525050565b60006020820190506113296000830184611305565b92915050565b6000604051905090565b600080fd5b600080fd5b61134c816112c5565b811461135757600080fd5b50565b60008135905061136981611343565b92915050565b60006020828403121561138557611384611339565b5b60006113938482850161135a565b91505092915050565b600080fd5b600080fd5b600080fd5b60008083601f8401126113c1576113c061139c565b5b8235905067ffffffffffffffff8111156113de576113dd6113a1565b5b6020830191508360018202830111156113fa576113f96113a6565b5b9250929050565b60008060006040848603121561141a57611419611339565b5b600084013567ffffffffffffffff8111156114385761143761133e565b5b611444868287016113ab565b935093505060206114578682870161135a565b9150509250925092565b600073ffffffffffffffffffffffffffffffffffffffff82169050919050565b600061148c82611461565b9050919050565b61149c81611481565b81146114a757600080fd5b50565b6000813590506114b981611493565b92915050565b6000602082840312156114d5576114d4611339565b5b60006114e3848285016114aa565b91505092915050565b600081519050919050565b600082825260208201905092915050565b6000819050602082019050919050565b611521816112c5565b82525050565b60006115338383611518565b60208301905092915050565b6000602082019050919050565b6000611557826114ec565b61156181856114f7565b935061156c83611508565b8060005b8381101561159d5781516115848882611527565b975061158f8361153f565b925050600181019050611570565b5085935050505092915050565b600060208201905081810360008301526115c4818461154c565b905092915050565b600081519050919050565b600082825260208201905092915050565b60005b838110156116065780820151818401526020810190506115eb565b60008484015250505050565b6000601f19601f8301169050919050565b600061162e826115cc565b61163881856115d7565b93506116488185602086016115e8565b61165181611612565b840191505092915050565b600061ffff82169050919050565b6116738161165c565b82525050565b600063ffffffff82169050919050565b61169281611679565b82525050565b600060c08201905081810360008301526116b28189611623565b90506116c1602083018861166a565b6116ce604083018761166a565b6116db606083018661166a565b6116e86080830185611689565b6116f560a0830184611689565b979650505050505050565b61170981611481565b82525050565b60006020820190506117246000830184611700565b92915050565b600080fd5b7f4e487b7100000000000000000000000000000000000000000000000000000000600052604160045260246000fd5b61176782611612565b810181811067ffffffffffffffff821117156117865761178561172f565b5b80604052505050565b600061179961132f565b90506117a5828261175e565b919050565b600067ffffffffffffffff8211156117c5576117c461172f565b5b6117ce82611612565b9050602081019050919050565b82818337600083830152505050565b60006117fd6117f8846117aa565b61178f565b9050828152602081018484840111156118195761181861172a565b5b6118248482856117db565b509392505050565b600082601f8301126118415761184061139c565b5b81356118518482602086016117ea565b91505092915050565b6000602082840312156118705761186f611339565b5b600082013567ffffffffffffffff81111561188e5761188d61133e565b5b61189a8482850161182c565b91505092915050565b60006118ae82611461565b9050919050565b6118be816118a3565b81146118c957600080fd5b50565b6000813590506118db816118b5565b92915050565b6000602082840312156118f7576118f6611339565b5b6000611905848285016118cc565b91505092915050565b7f7364660000000000000000000000000000000000000000000000000000000000600082015250565b60006119446003836115d7565b915061194f8261190e565b602082019050919050565b6000602082019050818103600083015261197381611937565b9050919050565b7f4e487b7100000000000000000000000000000000000000000000000000000000600052603260045260246000fd5b7f4e487b7100000000000000000000000000000000000000000000000000000000600052601160045260246000fd5b60006119e382611679565b915063ffffffff82036119f9576119f86119a9565b5b600182019050919050565b7f6572726f72000000000000000000000000000000000000000000000000000000600082015250565b6000611a3a6005836115d7565b9150611a4582611a04565b602082019050919050565b60006020820190508181036000830152611a6981611a2d565b9050919050565b600082905092915050565b7f4e487b7100000000000000000000000000000000000000000000000000000000600052602260045260246000fd5b60006002820490506001821680611ac257607f821691505b602082108103611ad557611ad4611a7b565b5b50919050565b60008190508160005260206000209050919050565b60006020601f8301049050919050565b600082821b905092915050565b600060088302611b3d7fffffffffffffffffffffffffffffffffffffffffffffffffffffffffffffffff82611b00565b611b478683611b00565b95508019841693508086168417925050509392505050565b6000819050919050565b6000611b84611b7f611b7a846112c5565b611b5f565b6112c5565b9050919050565b6000819050919050565b611b9e83611b69565b611bb2611baa82611b8b565b848454611b0d565b825550505050565b600090565b611bc7611bba565b611bd2818484611b95565b505050565b5b81811015611bf657611beb600082611bbf565b600181019050611bd8565b5050565b601f821115611c3b57611c0c81611adb565b611c1584611af0565b81016020851015611c24578190505b611c38611c3085611af0565b830182611bd7565b50505b505050565b600082821c905092915050565b6000611c5e60001984600802611c40565b1980831691505092915050565b6000611c778383611c4d565b9150826002028217905092915050565b611c918383611a70565b67ffffffffffffffff811115611caa57611ca961172f565b5b611cb48254611aaa565b611cbf828285611bfa565b6000601f831160018114611cee5760008415611cdc578287013590505b611ce68582611c6b565b865550611d4e565b601f198416611cfc86611adb565b60005b82811015611d2457848901358255600182019150602085019450602081019050611cff565b86831015611d415784890135611d3d601f891682611c4d565b8355505b6001600288020188555050505b50505050505050565b7f4d75737420636f6e7472616374206f776e657200000000000000000000000000600082015250565b6000611d8d6013836115d7565b9150611d9882611d57565b602082019050919050565b60006020820190508181036000830152611dbc81611d80565b9050919050565b6000611dce826112c5565b91507fffffffffffffffffffffffffffffffffffffffffffffffffffffffffffffffff8203611e0057611dff6119a9565b5b600182019050919050565b7f4e487b7100000000000000000000000000000000000000000000000000000000600052601260045260246000fd5b6000611e458261165c565b9150611e508361165c565b925082611e6057611e5f611e0b565b5b828206905092915050565b6000611e768261165c565b9150611e818361165c565b9250828203905061ffff811115611e9b57611e9a6119a9565b5b92915050565b6000611eac826112c5565b9150611eb7836112c5565b925082611ec757611ec6611e0b565b5b828206905092915050565b6000611edd8261165c565b9150611ee88361165c565b9250828201905061ffff811115611f0257611f016119a9565b5b92915050565b600081905092915050565b6000611f1e826115cc565b611f288185611f08565b9350611f388185602086016115e8565b80840191505092915050565b6000819050919050565b611f5f611f5a826112c5565b611f44565b82525050565b6000611f718285611f13565b9150611f7d8284611f4e565b6020820191508190509392505050565b611f96826115cc565b67ffffffffffffffff811115611faf57611fae61172f565b5b611fb98254611aaa565b611fc4828285611bfa565b600060209050601f831160018114611ff75760008415611fe5578287015190505b611fef8582611c6b565b865550612057565b601f19841661200586611adb565b60005b8281101561202d57848901518255600182019150602085019450602081019050612008565b8683101561204a5784890151612046601f891682611c4d565b8355505b6001600288020188555050505b505050505050565b600061206a826112c5565b9150612075836112c5565b925082820390508181111561208d5761208c6119a9565b5b92915050565b60006120ae6120a96120a48461165c565b611b5f565b6112c5565b9050919050565b6120be81612093565b82525050565b60006060820190506120d960008301866112cf565b81810360208301526120eb8185611623565b90506120fa60408301846120b5565b949350505050565b600061210d826112c5565b9150612118836112c5565b92508282019050808211156121305761212f6119a9565b5b92915050565b7f4e487b7100000000000000000000000000000000000000000000000000000000600052600160045260246000fd5b600061217082611679565b915061217b83611679565b9250828203905063ffffffff811115612197576121966119a9565b5b9291505056fea26469706673582212204c3084036c68460dcaa7919d5dd65639a8d5d3d0156a25097d2bbc54c6e5c93864736f6c63430008110033",
			"opcodes": "PUSH1 0x80 PUSH1 0x40 MSTORE PUSH1 0x0 DUP1 PUSH1 0x14 PUSH2 0x100 EXP DUP2 SLOAD DUP2 PUSH1 0xFF MUL NOT AND SWAP1 DUP4 ISZERO ISZERO MUL OR SWAP1 SSTORE POP PUSH1 0x10 PUSH1 0x1 SSTORE PUSH1 0x1 SLOAD PUSH1 0xA PUSH3 0x34 SWAP2 SWAP1 PUSH3 0x23A JUMP JUMPDEST PUSH1 0x2 SSTORE PUSH3 0x15180 PUSH1 0x3 SSTORE PUSH7 0x2386F26FC10000 PUSH1 0x4 SSTORE PUSH1 0x0 PUSH1 0x5 SSTORE PUSH7 0x38D7EA4C68000 PUSH1 0xA SSTORE CALLVALUE DUP1 ISZERO PUSH3 0x66 JUMPI PUSH1 0x0 DUP1 REVERT JUMPDEST POP CALLER PUSH1 0x0 DUP1 PUSH2 0x100 EXP DUP2 SLOAD DUP2 PUSH20 0xFFFFFFFFFFFFFFFFFFFFFFFFFFFFFFFFFFFFFFFF MUL NOT AND SWAP1 DUP4 PUSH20 0xFFFFFFFFFFFFFFFFFFFFFFFFFFFFFFFFFFFFFFFF AND MUL OR SWAP1 SSTORE POP PUSH3 0x28B JUMP JUMPDEST PUSH32 0x4E487B7100000000000000000000000000000000000000000000000000000000 PUSH1 0x0 MSTORE PUSH1 0x11 PUSH1 0x4 MSTORE PUSH1 0x24 PUSH1 0x0 REVERT JUMPDEST PUSH1 0x0 DUP2 PUSH1 0x1 SHR SWAP1 POP SWAP2 SWAP1 POP JUMP JUMPDEST PUSH1 0x0 DUP1 DUP3 SWAP2 POP DUP4 SWAP1 POP JUMPDEST PUSH1 0x1 DUP6 GT ISZERO PUSH3 0x13B JUMPI DUP1 DUP7 DIV DUP2 GT ISZERO PUSH3 0x113 JUMPI PUSH3 0x112 PUSH3 0xAD JUMP JUMPDEST JUMPDEST PUSH1 0x1 DUP6 AND ISZERO PUSH3 0x123 JUMPI DUP1 DUP3 MUL SWAP2 POP JUMPDEST DUP1 DUP2 MUL SWAP1 POP PUSH3 0x133 DUP6 PUSH3 0xDC JUMP JUMPDEST SWAP5 POP PUSH3 0xF3 JUMP JUMPDEST SWAP5 POP SWAP5 SWAP3 POP POP POP JUMP JUMPDEST PUSH1 0x0 DUP3 PUSH3 0x156 JUMPI PUSH1 0x1 SWAP1 POP PUSH3 0x229 JUMP JUMPDEST DUP2 PUSH3 0x166 JUMPI PUSH1 0x0 SWAP1 POP PUSH3 0x229 JUMP JUMPDEST DUP2 PUSH1 0x1 DUP2 EQ PUSH3 0x17F JUMPI PUSH1 0x2 DUP2 EQ PUSH3 0x18A JUMPI PUSH3 0x1C0 JUMP JUMPDEST PUSH1 0x1 SWAP2 POP POP PUSH3 0x229 JUMP JUMPDEST PUSH1 0xFF DUP5 GT ISZERO PUSH3 0x19F JUMPI PUSH3 0x19E PUSH3 0xAD JUMP JUMPDEST JUMPDEST DUP4 PUSH1 0x2 EXP SWAP2 POP DUP5 DUP3 GT ISZERO PUSH3 0x1B9 JUMPI PUSH3 0x1B8 PUSH3 0xAD JUMP JUMPDEST JUMPDEST POP PUSH3 0x229 JUMP JUMPDEST POP PUSH1 0x20 DUP4 LT PUSH2 0x133 DUP4 LT AND PUSH1 0x4E DUP5 LT PUSH1 0xB DUP5 LT AND OR ISZERO PUSH3 0x1FA JUMPI DUP3 DUP3 EXP SWAP1 POP DUP4 DUP2 GT ISZERO PUSH3 0x1F4 JUMPI PUSH3 0x1F3 PUSH3 0xAD JUMP JUMPDEST JUMPDEST PUSH3 0x229 JUMP JUMPDEST PUSH3 0x209 DUP5 DUP5 DUP5 PUSH1 0x1 PUSH3 0xE9 JUMP JUMPDEST SWAP3 POP SWAP1 POP DUP2 DUP5 DIV DUP2 GT ISZERO PUSH3 0x223 JUMPI PUSH3 0x222 PUSH3 0xAD JUMP JUMPDEST JUMPDEST DUP2 DUP2 MUL SWAP1 POP JUMPDEST SWAP4 SWAP3 POP POP POP JUMP JUMPDEST PUSH1 0x0 DUP2 SWAP1 POP SWAP2 SWAP1 POP JUMP JUMPDEST PUSH1 0x0 PUSH3 0x247 DUP3 PUSH3 0x230 JUMP JUMPDEST SWAP2 POP PUSH3 0x254 DUP4 PUSH3 0x230 JUMP JUMPDEST SWAP3 POP PUSH3 0x283 PUSH32 0xFFFFFFFFFFFFFFFFFFFFFFFFFFFFFFFFFFFFFFFFFFFFFFFFFFFFFFFFFFFFFFFF DUP5 DUP5 PUSH3 0x144 JUMP JUMPDEST SWAP1 POP SWAP3 SWAP2 POP POP JUMP JUMPDEST PUSH2 0x21D3 DUP1 PUSH3 0x29B PUSH1 0x0 CODECOPY PUSH1 0x0 RETURN INVALID PUSH1 0x80 PUSH1 0x40 MSTORE PUSH1 0x4 CALLDATASIZE LT PUSH2 0xFE JUMPI PUSH1 0x0 CALLDATALOAD PUSH1 0xE0 SHR DUP1 PUSH4 0x6DE2E36C GT PUSH2 0x95 JUMPI DUP1 PUSH4 0xB319C6B7 GT PUSH2 0x64 JUMPI DUP1 PUSH4 0xB319C6B7 EQ PUSH2 0x32D JUMPI DUP1 PUSH4 0xE7EB1214 EQ PUSH2 0x358 JUMPI DUP1 PUSH4 0xF2FDE38B EQ PUSH2 0x381 JUMPI DUP1 PUSH4 0xF59DFDFB EQ PUSH2 0x3AA JUMPI DUP1 PUSH4 0xF94F0593 EQ PUSH2 0x3D3 JUMPI PUSH2 0xFE JUMP JUMPDEST DUP1 PUSH4 0x6DE2E36C EQ PUSH2 0x271 JUMPI DUP1 PUSH4 0x8DA5CB5B EQ PUSH2 0x2AE JUMPI DUP1 PUSH4 0x90AB0522 EQ PUSH2 0x2D9 JUMPI DUP1 PUSH4 0xA38D7E5B EQ PUSH2 0x304 JUMPI PUSH2 0xFE JUMP JUMPDEST DUP1 PUSH4 0x3A42C900 GT PUSH2 0xD1 JUMPI DUP1 PUSH4 0x3A42C900 EQ PUSH2 0x19E JUMPI DUP1 PUSH4 0x3ECE8F6F EQ PUSH2 0x1C7 JUMPI DUP1 PUSH4 0x43D5D022 EQ PUSH2 0x1F2 JUMPI DUP1 PUSH4 0x5E0B8654 EQ PUSH2 0x22F JUMPI PUSH2 0xFE JUMP JUMPDEST DUP1 PUSH4 0x2F4DB2F EQ PUSH2 0x103 JUMPI DUP1 PUSH4 0x206C8DB4 EQ PUSH2 0x12E JUMPI DUP1 PUSH4 0x227C59E6 EQ PUSH2 0x159 JUMPI DUP1 PUSH4 0x270DC9FD EQ PUSH2 0x175 JUMPI JUMPDEST PUSH1 0x0 DUP1 REVERT JUMPDEST CALLVALUE DUP1 ISZERO PUSH2 0x10F JUMPI PUSH1 0x0 DUP1 REVERT JUMPDEST POP PUSH2 0x118 PUSH2 0x3EF JUMP JUMPDEST PUSH1 0x40 MLOAD PUSH2 0x125 SWAP2 SWAP1 PUSH2 0x12DE JUMP JUMPDEST PUSH1 0x40 MLOAD DUP1 SWAP2 SUB SWAP1 RETURN JUMPDEST CALLVALUE DUP1 ISZERO PUSH2 0x13A JUMPI PUSH1 0x0 DUP1 REVERT JUMPDEST POP PUSH2 0x143 PUSH2 0x3F5 JUMP JUMPDEST PUSH1 0x40 MLOAD PUSH2 0x150 SWAP2 SWAP1 PUSH2 0x1314 JUMP JUMPDEST PUSH1 0x40 MLOAD DUP1 SWAP2 SUB SWAP1 RETURN JUMPDEST PUSH2 0x173 PUSH1 0x4 DUP1 CALLDATASIZE SUB DUP2 ADD SWAP1 PUSH2 0x16E SWAP2 SWAP1 PUSH2 0x136F JUMP JUMPDEST PUSH2 0x408 JUMP JUMPDEST STOP JUMPDEST CALLVALUE DUP1 ISZERO PUSH2 0x181 JUMPI PUSH1 0x0 DUP1 REVERT JUMPDEST POP PUSH2 0x19C PUSH1 0x4 DUP1 CALLDATASIZE SUB DUP2 ADD SWAP1 PUSH2 0x197 SWAP2 SWAP1 PUSH2 0x1401 JUMP JUMPDEST PUSH2 0x4B4 JUMP JUMPDEST STOP JUMPDEST CALLVALUE DUP1 ISZERO PUSH2 0x1AA JUMPI PUSH1 0x0 DUP1 REVERT JUMPDEST POP PUSH2 0x1C5 PUSH1 0x4 DUP1 CALLDATASIZE SUB DUP2 ADD SWAP1 PUSH2 0x1C0 SWAP2 SWAP1 PUSH2 0x136F JUMP JUMPDEST PUSH2 0x614 JUMP JUMPDEST STOP JUMPDEST CALLVALUE DUP1 ISZERO PUSH2 0x1D3 JUMPI PUSH1 0x0 DUP1 REVERT JUMPDEST POP PUSH2 0x1DC PUSH2 0x6AC JUMP JUMPDEST PUSH1 0x40 MLOAD PUSH2 0x1E9 SWAP2 SWAP1 PUSH2 0x12DE JUMP JUMPDEST PUSH1 0x40 MLOAD DUP1 SWAP2 SUB SWAP1 RETURN JUMPDEST CALLVALUE DUP1 ISZERO PUSH2 0x1FE JUMPI PUSH1 0x0 DUP1 REVERT JUMPDEST POP PUSH2 0x219 PUSH1 0x4 DUP1 CALLDATASIZE SUB DUP2 ADD SWAP1 PUSH2 0x214 SWAP2 SWAP1 PUSH2 0x14BF JUMP JUMPDEST PUSH2 0x6B2 JUMP JUMPDEST PUSH1 0x40 MLOAD PUSH2 0x226 SWAP2 SWAP1 PUSH2 0x15AA JUMP JUMPDEST PUSH1 0x40 MLOAD DUP1 SWAP2 SUB SWAP1 RETURN JUMPDEST CALLVALUE DUP1 ISZERO PUSH2 0x23B JUMPI PUSH1 0x0 DUP1 REVERT JUMPDEST POP PUSH2 0x256 PUSH1 0x4 DUP1 CALLDATASIZE SUB DUP2 ADD SWAP1 PUSH2 0x251 SWAP2 SWAP1 PUSH2 0x136F JUMP JUMPDEST PUSH2 0x804 JUMP JUMPDEST PUSH1 0x40 MLOAD PUSH2 0x268 SWAP7 SWAP6 SWAP5 SWAP4 SWAP3 SWAP2 SWAP1 PUSH2 0x1698 JUMP JUMPDEST PUSH1 0x40 MLOAD DUP1 SWAP2 SUB SWAP1 RETURN JUMPDEST CALLVALUE DUP1 ISZERO PUSH2 0x27D JUMPI PUSH1 0x0 DUP1 REVERT JUMPDEST POP PUSH2 0x298 PUSH1 0x4 DUP1 CALLDATASIZE SUB DUP2 ADD SWAP1 PUSH2 0x293 SWAP2 SWAP1 PUSH2 0x136F JUMP JUMPDEST PUSH2 0x922 JUMP JUMPDEST PUSH1 0x40 MLOAD PUSH2 0x2A5 SWAP2 SWAP1 PUSH2 0x170F JUMP JUMPDEST PUSH1 0x40 MLOAD DUP1 SWAP2 SUB SWAP1 RETURN JUMPDEST CALLVALUE DUP1 ISZERO PUSH2 0x2BA JUMPI PUSH1 0x0 DUP1 REVERT JUMPDEST POP PUSH2 0x2C3 PUSH2 0x955 JUMP JUMPDEST PUSH1 0x40 MLOAD PUSH2 0x2D0 SWAP2 SWAP1 PUSH2 0x170F JUMP JUMPDEST PUSH1 0x40 MLOAD DUP1 SWAP2 SUB SWAP1 RETURN JUMPDEST CALLVALUE DUP1 ISZERO PUSH2 0x2E5 JUMPI PUSH1 0x0 DUP1 REVERT JUMPDEST POP PUSH2 0x2EE PUSH2 0x979 JUMP JUMPDEST PUSH1 0x40 MLOAD PUSH2 0x2FB SWAP2 SWAP1 PUSH2 0x12DE JUMP JUMPDEST PUSH1 0x40 MLOAD DUP1 SWAP2 SUB SWAP1 RETURN JUMPDEST CALLVALUE DUP1 ISZERO PUSH2 0x310 JUMPI PUSH1 0x0 DUP1 REVERT JUMPDEST POP PUSH2 0x32B PUSH1 0x4 DUP1 CALLDATASIZE SUB DUP2 ADD SWAP1 PUSH2 0x326 SWAP2 SWAP1 PUSH2 0x185A JUMP JUMPDEST PUSH2 0x97F JUMP JUMPDEST STOP JUMPDEST CALLVALUE DUP1 ISZERO PUSH2 0x339 JUMPI PUSH1 0x0 DUP1 REVERT JUMPDEST POP PUSH2 0x342 PUSH2 0xA36 JUMP JUMPDEST PUSH1 0x40 MLOAD PUSH2 0x34F SWAP2 SWAP1 PUSH2 0x12DE JUMP JUMPDEST PUSH1 0x40 MLOAD DUP1 SWAP2 SUB SWAP1 RETURN JUMPDEST CALLVALUE DUP1 ISZERO PUSH2 0x364 JUMPI PUSH1 0x0 DUP1 REVERT JUMPDEST POP PUSH2 0x37F PUSH1 0x4 DUP1 CALLDATASIZE SUB DUP2 ADD SWAP1 PUSH2 0x37A SWAP2 SWAP1 PUSH2 0x136F JUMP JUMPDEST PUSH2 0xA3C JUMP JUMPDEST STOP JUMPDEST CALLVALUE DUP1 ISZERO PUSH2 0x38D JUMPI PUSH1 0x0 DUP1 REVERT JUMPDEST POP PUSH2 0x3A8 PUSH1 0x4 DUP1 CALLDATASIZE SUB DUP2 ADD SWAP1 PUSH2 0x3A3 SWAP2 SWAP1 PUSH2 0x18E1 JUMP JUMPDEST PUSH2 0xAD4 JUMP JUMPDEST STOP JUMPDEST CALLVALUE DUP1 ISZERO PUSH2 0x3B6 JUMPI PUSH1 0x0 DUP1 REVERT JUMPDEST POP PUSH2 0x3D1 PUSH1 0x4 DUP1 CALLDATASIZE SUB DUP2 ADD SWAP1 PUSH2 0x3CC SWAP2 SWAP1 PUSH2 0x136F JUMP JUMPDEST PUSH2 0xC8E JUMP JUMPDEST STOP JUMPDEST PUSH2 0x3ED PUSH1 0x4 DUP1 CALLDATASIZE SUB DUP2 ADD SWAP1 PUSH2 0x3E8 SWAP2 SWAP1 PUSH2 0x185A JUMP JUMPDEST PUSH2 0xE5A JUMP JUMPDEST STOP JUMPDEST PUSH1 0x5 SLOAD DUP2 JUMP JUMPDEST PUSH1 0x0 PUSH1 0x14 SWAP1 SLOAD SWAP1 PUSH2 0x100 EXP SWAP1 DIV PUSH1 0xFF AND DUP2 JUMP JUMPDEST PUSH1 0xA SLOAD CALLVALUE LT ISZERO PUSH2 0x44D JUMPI PUSH1 0x40 MLOAD PUSH32 0x8C379A000000000000000000000000000000000000000000000000000000000 DUP2 MSTORE PUSH1 0x4 ADD PUSH2 0x444 SWAP1 PUSH2 0x195A JUMP JUMPDEST PUSH1 0x40 MLOAD DUP1 SWAP2 SUB SWAP1 REVERT JUMPDEST PUSH1 0x6 DUP2 DUP2 SLOAD DUP2 LT PUSH2 0x461 JUMPI PUSH2 0x460 PUSH2 0x197A JUMP JUMPDEST JUMPDEST SWAP1 PUSH1 0x0 MSTORE PUSH1 0x20 PUSH1 0x0 KECCAK256 SWAP1 PUSH1 0x2 MUL ADD PUSH1 0x1 ADD PUSH1 0x6 DUP2 DUP2 SWAP1 SLOAD SWAP1 PUSH2 0x100 EXP SWAP1 DIV PUSH4 0xFFFFFFFF AND DUP1 SWAP3 SWAP2 SWAP1 PUSH2 0x492 SWAP1 PUSH2 0x19D8 JUMP JUMPDEST SWAP2 SWAP1 PUSH2 0x100 EXP DUP2 SLOAD DUP2 PUSH4 0xFFFFFFFF MUL NOT AND SWAP1 DUP4 PUSH4 0xFFFFFFFF AND MUL OR SWAP1 SSTORE POP POP POP JUMP JUMPDEST PUSH1 0x2 DUP2 DUP2 PUSH1 0x6 DUP3 DUP2 SLOAD DUP2 LT PUSH2 0x4CC JUMPI PUSH2 0x4CB PUSH2 0x197A JUMP JUMPDEST JUMPDEST SWAP1 PUSH1 0x0 MSTORE PUSH1 0x20 PUSH1 0x0 KECCAK256 SWAP1 PUSH1 0x2 MUL ADD PUSH1 0x1 ADD PUSH1 0x6 SWAP1 SLOAD SWAP1 PUSH2 0x100 EXP SWAP1 DIV PUSH4 0xFFFFFFFF AND PUSH4 0xFFFFFFFF AND LT ISZERO PUSH2 0x535 JUMPI PUSH1 0x40 MLOAD PUSH32 0x8C379A000000000000000000000000000000000000000000000000000000000 DUP2 MSTORE PUSH1 0x4 ADD PUSH2 0x52C SWAP1 PUSH2 0x1A50 JUMP JUMPDEST PUSH1 0x40 MLOAD DUP1 SWAP2 SUB SWAP1 REVERT JUMPDEST DUP3 PUSH1 0x7 PUSH1 0x0 DUP3 DUP2 MSTORE PUSH1 0x20 ADD SWAP1 DUP2 MSTORE PUSH1 0x20 ADD PUSH1 0x0 KECCAK256 PUSH1 0x0 SWAP1 SLOAD SWAP1 PUSH2 0x100 EXP SWAP1 DIV PUSH20 0xFFFFFFFFFFFFFFFFFFFFFFFFFFFFFFFFFFFFFFFF AND PUSH20 0xFFFFFFFFFFFFFFFFFFFFFFFFFFFFFFFFFFFFFFFF AND CALLER PUSH20 0xFFFFFFFFFFFFFFFFFFFFFFFFFFFFFFFFFFFFFFFF AND EQ PUSH2 0x5D7 JUMPI PUSH1 0x40 MLOAD PUSH32 0x8C379A000000000000000000000000000000000000000000000000000000000 DUP2 MSTORE PUSH1 0x4 ADD PUSH2 0x5CE SWAP1 PUSH2 0x1A50 JUMP JUMPDEST PUSH1 0x40 MLOAD DUP1 SWAP2 SUB SWAP1 REVERT JUMPDEST DUP6 DUP6 PUSH1 0x6 DUP7 DUP2 SLOAD DUP2 LT PUSH2 0x5ED JUMPI PUSH2 0x5EC PUSH2 0x197A JUMP JUMPDEST JUMPDEST SWAP1 PUSH1 0x0 MSTORE PUSH1 0x20 PUSH1 0x0 KECCAK256 SWAP1 PUSH1 0x2 MUL ADD PUSH1 0x0 ADD SWAP2 DUP3 PUSH2 0x60B SWAP3 SWAP2 SWAP1 PUSH2 0x1C87 JUMP JUMPDEST POP POP POP POP POP POP POP JUMP JUMPDEST PUSH1 0x0 DUP1 SLOAD SWAP1 PUSH2 0x100 EXP SWAP1 DIV PUSH20 0xFFFFFFFFFFFFFFFFFFFFFFFFFFFFFFFFFFFFFFFF AND PUSH20 0xFFFFFFFFFFFFFFFFFFFFFFFFFFFFFFFFFFFFFFFF AND CALLER PUSH20 0xFFFFFFFFFFFFFFFFFFFFFFFFFFFFFFFFFFFFFFFF AND EQ PUSH2 0x6A2 JUMPI PUSH1 0x40 MLOAD PUSH32 0x8C379A000000000000000000000000000000000000000000000000000000000 DUP2 MSTORE PUSH1 0x4 ADD PUSH2 0x699 SWAP1 PUSH2 0x1DA3 JUMP JUMPDEST PUSH1 0x40 MLOAD DUP1 SWAP2 SUB SWAP1 REVERT JUMPDEST DUP1 PUSH1 0xA DUP2 SWAP1 SSTORE POP POP JUMP JUMPDEST PUSH1 0x4 SLOAD DUP2 JUMP JUMPDEST PUSH1 0x60 PUSH1 0x0 PUSH1 0x8 PUSH1 0x0 DUP5 PUSH20 0xFFFFFFFFFFFFFFFFFFFFFFFFFFFFFFFFFFFFFFFF AND PUSH20 0xFFFFFFFFFFFFFFFFFFFFFFFFFFFFFFFFFFFFFFFF AND DUP2 MSTORE PUSH1 0x20 ADD SWAP1 DUP2 MSTORE PUSH1 0x20 ADD PUSH1 0x0 KECCAK256 SLOAD PUSH8 0xFFFFFFFFFFFFFFFF DUP2 GT ISZERO PUSH2 0x70F JUMPI PUSH2 0x70E PUSH2 0x172F JUMP JUMPDEST JUMPDEST PUSH1 0x40 MLOAD SWAP1 DUP1 DUP3 MSTORE DUP1 PUSH1 0x20 MUL PUSH1 0x20 ADD DUP3 ADD PUSH1 0x40 MSTORE DUP1 ISZERO PUSH2 0x73D JUMPI DUP2 PUSH1 0x20 ADD PUSH1 0x20 DUP3 MUL DUP1 CALLDATASIZE DUP4 CALLDATACOPY DUP1 DUP3 ADD SWAP2 POP POP SWAP1 POP JUMPDEST POP SWAP1 POP PUSH1 0x0 DUP1 JUMPDEST PUSH1 0x6 DUP1 SLOAD SWAP1 POP DUP2 LT ISZERO PUSH2 0x7F9 JUMPI DUP5 PUSH20 0xFFFFFFFFFFFFFFFFFFFFFFFFFFFFFFFFFFFFFFFF AND PUSH1 0x7 PUSH1 0x0 DUP4 DUP2 MSTORE PUSH1 0x20 ADD SWAP1 DUP2 MSTORE PUSH1 0x20 ADD PUSH1 0x0 KECCAK256 PUSH1 0x0 SWAP1 SLOAD SWAP1 PUSH2 0x100 EXP SWAP1 DIV PUSH20 0xFFFFFFFFFFFFFFFFFFFFFFFFFFFFFFFFFFFFFFFF AND PUSH20 0xFFFFFFFFFFFFFFFFFFFFFFFFFFFFFFFFFFFFFFFF AND SUB PUSH2 0x7E6 JUMPI DUP1 DUP4 DUP4 DUP2 MLOAD DUP2 LT PUSH2 0x7CB JUMPI PUSH2 0x7CA PUSH2 0x197A JUMP JUMPDEST JUMPDEST PUSH1 0x20 MUL PUSH1 0x20 ADD ADD DUP2 DUP2 MSTORE POP POP DUP2 DUP1 PUSH2 0x7E2 SWAP1 PUSH2 0x1DC3 JUMP JUMPDEST SWAP3 POP POP JUMPDEST DUP1 DUP1 PUSH2 0x7F1 SWAP1 PUSH2 0x1DC3 JUMP JUMPDEST SWAP2 POP POP PUSH2 0x744 JUMP JUMPDEST POP DUP2 SWAP3 POP POP POP SWAP2 SWAP1 POP JUMP JUMPDEST PUSH1 0x6 DUP2 DUP2 SLOAD DUP2 LT PUSH2 0x814 JUMPI PUSH1 0x0 DUP1 REVERT JUMPDEST SWAP1 PUSH1 0x0 MSTORE PUSH1 0x20 PUSH1 0x0 KECCAK256 SWAP1 PUSH1 0x2 MUL ADD PUSH1 0x0 SWAP2 POP SWAP1 POP DUP1 PUSH1 0x0 ADD DUP1 SLOAD PUSH2 0x837 SWAP1 PUSH2 0x1AAA JUMP JUMPDEST DUP1 PUSH1 0x1F ADD PUSH1 0x20 DUP1 SWAP2 DIV MUL PUSH1 0x20 ADD PUSH1 0x40 MLOAD SWAP1 DUP2 ADD PUSH1 0x40 MSTORE DUP1 SWAP3 SWAP2 SWAP1 DUP2 DUP2 MSTORE PUSH1 0x20 ADD DUP3 DUP1 SLOAD PUSH2 0x863 SWAP1 PUSH2 0x1AAA JUMP JUMPDEST DUP1 ISZERO PUSH2 0x8B0 JUMPI DUP1 PUSH1 0x1F LT PUSH2 0x885 JUMPI PUSH2 0x100 DUP1 DUP4 SLOAD DIV MUL DUP4 MSTORE SWAP2 PUSH1 0x20 ADD SWAP2 PUSH2 0x8B0 JUMP JUMPDEST DUP3 ADD SWAP2 SWAP1 PUSH1 0x0 MSTORE PUSH1 0x20 PUSH1 0x0 KECCAK256 SWAP1 JUMPDEST DUP2 SLOAD DUP2 MSTORE SWAP1 PUSH1 0x1 ADD SWAP1 PUSH1 0x20 ADD DUP1 DUP4 GT PUSH2 0x893 JUMPI DUP3 SWAP1 SUB PUSH1 0x1F AND DUP3 ADD SWAP2 JUMPDEST POP POP POP POP POP SWAP1 DUP1 PUSH1 0x1 ADD PUSH1 0x0 SWAP1 SLOAD SWAP1 PUSH2 0x100 EXP SWAP1 DIV PUSH2 0xFFFF AND SWAP1 DUP1 PUSH1 0x1 ADD PUSH1 0x2 SWAP1 SLOAD SWAP1 PUSH2 0x100 EXP SWAP1 DIV PUSH2 0xFFFF AND SWAP1 DUP1 PUSH1 0x1 ADD PUSH1 0x4 SWAP1 SLOAD SWAP1 PUSH2 0x100 EXP SWAP1 DIV PUSH2 0xFFFF AND SWAP1 DUP1 PUSH1 0x1 ADD PUSH1 0x6 SWAP1 SLOAD SWAP1 PUSH2 0x100 EXP SWAP1 DIV PUSH4 0xFFFFFFFF AND SWAP1 DUP1 PUSH1 0x1 ADD PUSH1 0xA SWAP1 SLOAD SWAP1 PUSH2 0x100 EXP SWAP1 DIV PUSH4 0xFFFFFFFF AND SWAP1 POP DUP7 JUMP JUMPDEST PUSH1 0x7 PUSH1 0x20 MSTORE DUP1 PUSH1 0x0 MSTORE PUSH1 0x40 PUSH1 0x0 KECCAK256 PUSH1 0x0 SWAP2 POP SLOAD SWAP1 PUSH2 0x100 EXP SWAP1 DIV PUSH20 0xFFFFFFFFFFFFFFFFFFFFFFFFFFFFFFFFFFFFFFFF AND DUP2 JUMP JUMPDEST PUSH1 0x0 DUP1 SLOAD SWAP1 PUSH2 0x100 EXP SWAP1 DIV PUSH20 0xFFFFFFFFFFFFFFFFFFFFFFFFFFFFFFFFFFFFFFFF AND DUP2 JUMP JUMPDEST PUSH1 0xA SLOAD DUP2 JUMP JUMPDEST PUSH1 0x0 PUSH1 0x8 PUSH1 0x0 CALLER PUSH20 0xFFFFFFFFFFFFFFFFFFFFFFFFFFFFFFFFFFFFFFFF AND PUSH20 0xFFFFFFFFFFFFFFFFFFFFFFFFFFFFFFFFFFFFFFFF AND DUP2 MSTORE PUSH1 0x20 ADD SWAP1 DUP2 MSTORE PUSH1 0x20 ADD PUSH1 0x0 KECCAK256 SLOAD EQ PUSH2 0xA01 JUMPI PUSH1 0x40 MLOAD PUSH32 0x8C379A000000000000000000000000000000000000000000000000000000000 DUP2 MSTORE PUSH1 0x4 ADD PUSH2 0x9F8 SWAP1 PUSH2 0x1A50 JUMP JUMPDEST PUSH1 0x40 MLOAD DUP1 SWAP2 SUB SWAP1 REVERT JUMPDEST PUSH1 0x0 PUSH2 0xA0C DUP3 PUSH2 0xF61 JUMP JUMPDEST SWAP1 POP PUSH1 0xA DUP2 PUSH2 0xA1B SWAP2 SWAP1 PUSH2 0x1E3A JUMP JUMPDEST DUP2 PUSH2 0xA26 SWAP2 SWAP1 PUSH2 0x1E6B JUMP JUMPDEST SWAP1 POP PUSH2 0xA32 DUP3 DUP3 PUSH2 0xFA3 JUMP JUMPDEST POP POP JUMP JUMPDEST PUSH1 0x3 SLOAD DUP2 JUMP JUMPDEST PUSH1 0x0 DUP1 SLOAD SWAP1 PUSH2 0x100 EXP SWAP1 DIV PUSH20 0xFFFFFFFFFFFFFFFFFFFFFFFFFFFFFFFFFFFFFFFF AND PUSH20 0xFFFFFFFFFFFFFFFFFFFFFFFFFFFFFFFFFFFFFFFF AND CALLER PUSH20 0xFFFFFFFFFFFFFFFFFFFFFFFFFFFFFFFFFFFFFFFF AND EQ PUSH2 0xACA JUMPI PUSH1 0x40 MLOAD PUSH32 0x8C379A000000000000000000000000000000000000000000000000000000000 DUP2 MSTORE PUSH1 0x4 ADD PUSH2 0xAC1 SWAP1 PUSH2 0x1DA3 JUMP JUMPDEST PUSH1 0x40 MLOAD DUP1 SWAP2 SUB SWAP1 REVERT JUMPDEST DUP1 PUSH1 0x4 DUP2 SWAP1 SSTORE POP POP JUMP JUMPDEST PUSH1 0x0 DUP1 SLOAD SWAP1 PUSH2 0x100 EXP SWAP1 DIV PUSH20 0xFFFFFFFFFFFFFFFFFFFFFFFFFFFFFFFFFFFFFFFF AND PUSH20 0xFFFFFFFFFFFFFFFFFFFFFFFFFFFFFFFFFFFFFFFF AND CALLER PUSH20 0xFFFFFFFFFFFFFFFFFFFFFFFFFFFFFFFFFFFFFFFF AND EQ PUSH2 0xB62 JUMPI PUSH1 0x40 MLOAD PUSH32 0x8C379A000000000000000000000000000000000000000000000000000000000 DUP2 MSTORE PUSH1 0x4 ADD PUSH2 0xB59 SWAP1 PUSH2 0x1DA3 JUMP JUMPDEST PUSH1 0x40 MLOAD DUP1 SWAP2 SUB SWAP1 REVERT JUMPDEST PUSH1 0x0 PUSH20 0xFFFFFFFFFFFFFFFFFFFFFFFFFFFFFFFFFFFFFFFF AND DUP2 PUSH20 0xFFFFFFFFFFFFFFFFFFFFFFFFFFFFFFFFFFFFFFFF AND SUB PUSH2 0xBD1 JUMPI PUSH1 0x40 MLOAD PUSH32 0x8C379A000000000000000000000000000000000000000000000000000000000 DUP2 MSTORE PUSH1 0x4 ADD PUSH2 0xBC8 SWAP1 PUSH2 0x1DA3 JUMP JUMPDEST PUSH1 0x40 MLOAD DUP1 SWAP2 SUB SWAP1 REVERT JUMPDEST DUP1 PUSH20 0xFFFFFFFFFFFFFFFFFFFFFFFFFFFFFFFFFFFFFFFF AND PUSH1 0x0 DUP1 SLOAD SWAP1 PUSH2 0x100 EXP SWAP1 DIV PUSH20 0xFFFFFFFFFFFFFFFFFFFFFFFFFFFFFFFFFFFFFFFF AND PUSH20 0xFFFFFFFFFFFFFFFFFFFFFFFFFFFFFFFFFFFFFFFF AND PUSH32 0x8BE0079C531659141344CD1FD0A4F28419497F9722A3DAAFE3B4186F6B6457E0 PUSH1 0x40 MLOAD PUSH1 0x40 MLOAD DUP1 SWAP2 SUB SWAP1 LOG3 DUP1 PUSH1 0x0 DUP1 PUSH2 0x100 EXP DUP2 SLOAD DUP2 PUSH20 0xFFFFFFFFFFFFFFFFFFFFFFFFFFFFFFFFFFFFFFFF MUL NOT AND SWAP1 DUP4 PUSH20 0xFFFFFFFFFFFFFFFFFFFFFFFFFFFFFFFFFFFFFFFF AND MUL OR SWAP1 SSTORE POP POP JUMP JUMPDEST DUP1 PUSH1 0x7 PUSH1 0x0 DUP3 DUP2 MSTORE PUSH1 0x20 ADD SWAP1 DUP2 MSTORE PUSH1 0x20 ADD PUSH1 0x0 KECCAK256 PUSH1 0x0 SWAP1 SLOAD SWAP1 PUSH2 0x100 EXP SWAP1 DIV PUSH20 0xFFFFFFFFFFFFFFFFFFFFFFFFFFFFFFFFFFFFFFFF AND PUSH20 0xFFFFFFFFFFFFFFFFFFFFFFFFFFFFFFFFFFFFFFFF AND CALLER PUSH20 0xFFFFFFFFFFFFFFFFFFFFFFFFFFFFFFFFFFFFFFFF AND EQ PUSH2 0xD30 JUMPI PUSH1 0x40 MLOAD PUSH32 0x8C379A000000000000000000000000000000000000000000000000000000000 DUP2 MSTORE PUSH1 0x4 ADD PUSH2 0xD27 SWAP1 PUSH2 0x1A50 JUMP JUMPDEST PUSH1 0x40 MLOAD DUP1 SWAP2 SUB SWAP1 REVERT JUMPDEST PUSH1 0x0 PUSH1 0x6 DUP4 DUP2 SLOAD DUP2 LT PUSH2 0xD46 JUMPI PUSH2 0xD45 PUSH2 0x197A JUMP JUMPDEST JUMPDEST SWAP1 PUSH1 0x0 MSTORE PUSH1 0x20 PUSH1 0x0 KECCAK256 SWAP1 PUSH1 0x2 MUL ADD SWAP1 POP PUSH2 0xD7D PUSH1 0x1 PUSH1 0x9 PUSH1 0x0 DUP7 DUP2 MSTORE PUSH1 0x20 ADD SWAP1 DUP2 MSTORE PUSH1 0x20 ADD PUSH1 0x0 KECCAK256 SLOAD PUSH2 0x1240 SWAP1 SWAP2 SWAP1 PUSH4 0xFFFFFFFF AND JUMP JUMPDEST PUSH1 0x9 PUSH1 0x0 DUP6 DUP2 MSTORE PUSH1 0x20 ADD SWAP1 DUP2 MSTORE PUSH1 0x20 ADD PUSH1 0x0 KECCAK256 DUP2 SWAP1 SSTORE POP PUSH2 0xD9D DUP2 PUSH2 0x126C JUMP JUMPDEST PUSH1 0x0 PUSH1 0xA PUSH1 0x9 PUSH1 0x0 DUP7 DUP2 MSTORE PUSH1 0x20 ADD SWAP1 DUP2 MSTORE PUSH1 0x20 ADD PUSH1 0x0 KECCAK256 SLOAD PUSH2 0xDBF SWAP2 SWAP1 PUSH2 0x1EA1 JUMP JUMPDEST SUB PUSH2 0xE55 JUMPI PUSH1 0x0 PUSH1 0x8 PUSH1 0xA DUP4 PUSH1 0x1 ADD PUSH1 0x0 SWAP1 SLOAD SWAP1 PUSH2 0x100 EXP SWAP1 DIV PUSH2 0xFFFF AND PUSH2 0xDE7 SWAP2 SWAP1 PUSH2 0x1E3A JUMP JUMPDEST DUP4 PUSH1 0x1 ADD PUSH1 0x0 SWAP1 SLOAD SWAP1 PUSH2 0x100 EXP SWAP1 DIV PUSH2 0xFFFF AND PUSH2 0xE04 SWAP2 SWAP1 PUSH2 0x1E6B JUMP JUMPDEST PUSH2 0xE0E SWAP2 SWAP1 PUSH2 0x1ED2 JUMP JUMPDEST PUSH2 0xFFFF AND SWAP1 POP PUSH2 0xE53 PUSH1 0x40 MLOAD DUP1 PUSH1 0x40 ADD PUSH1 0x40 MSTORE DUP1 PUSH1 0xC DUP2 MSTORE PUSH1 0x20 ADD PUSH32 0x7A6F6D626963277320736F6E0000000000000000000000000000000000000000 DUP2 MSTORE POP DUP3 PUSH2 0xFA3 JUMP JUMPDEST POP JUMPDEST POP POP POP JUMP JUMPDEST PUSH1 0x0 PUSH1 0x8 PUSH1 0x0 CALLER PUSH20 0xFFFFFFFFFFFFFFFFFFFFFFFFFFFFFFFFFFFFFFFF AND PUSH20 0xFFFFFFFFFFFFFFFFFFFFFFFFFFFFFFFFFFFFFFFF AND DUP2 MSTORE PUSH1 0x20 ADD SWAP1 DUP2 MSTORE PUSH1 0x20 ADD PUSH1 0x0 KECCAK256 SLOAD GT PUSH2 0xEDC JUMPI PUSH1 0x40 MLOAD PUSH32 0x8C379A000000000000000000000000000000000000000000000000000000000 DUP2 MSTORE PUSH1 0x4 ADD PUSH2 0xED3 SWAP1 PUSH2 0x1A50 JUMP JUMPDEST PUSH1 0x40 MLOAD DUP1 SWAP2 SUB SWAP1 REVERT JUMPDEST PUSH1 0x4 SLOAD CALLVALUE GT PUSH2 0xF20 JUMPI PUSH1 0x40 MLOAD PUSH32 0x8C379A000000000000000000000000000000000000000000000000000000000 DUP2 MSTORE PUSH1 0x4 ADD PUSH2 0xF17 SWAP1 PUSH2 0x1A50 JUMP JUMPDEST PUSH1 0x40 MLOAD DUP1 SWAP2 SUB SWAP1 REVERT JUMPDEST PUSH1 0x0 PUSH2 0xF2B DUP3 PUSH2 0xF61 JUMP JUMPDEST SWAP1 POP PUSH1 0x1 PUSH1 0xA DUP3 PUSH2 0xF3C SWAP2 SWAP1 PUSH2 0x1E3A JUMP JUMPDEST DUP3 PUSH2 0xF47 SWAP2 SWAP1 PUSH2 0x1E6B JUMP JUMPDEST PUSH2 0xF51 SWAP2 SWAP1 PUSH2 0x1ED2 JUMP JUMPDEST SWAP1 POP PUSH2 0xF5D DUP3 DUP3 PUSH2 0xFA3 JUMP JUMPDEST POP POP JUMP JUMPDEST PUSH1 0x0 PUSH1 0x2 SLOAD DUP3 TIMESTAMP PUSH1 0x40 MLOAD PUSH1 0x20 ADD PUSH2 0xF79 SWAP3 SWAP2 SWAP1 PUSH2 0x1F65 JUMP JUMPDEST PUSH1 0x40 MLOAD PUSH1 0x20 DUP2 DUP4 SUB SUB DUP2 MSTORE SWAP1 PUSH1 0x40 MSTORE DUP1 MLOAD SWAP1 PUSH1 0x20 ADD KECCAK256 PUSH1 0x0 SHR PUSH2 0xF9C SWAP2 SWAP1 PUSH2 0x1EA1 JUMP JUMPDEST SWAP1 POP SWAP2 SWAP1 POP JUMP JUMPDEST PUSH1 0x6 PUSH1 0x40 MLOAD DUP1 PUSH1 0xC0 ADD PUSH1 0x40 MSTORE DUP1 DUP5 DUP2 MSTORE PUSH1 0x20 ADD DUP4 PUSH2 0xFFFF AND DUP2 MSTORE PUSH1 0x20 ADD PUSH1 0x0 PUSH2 0xFFFF AND DUP2 MSTORE PUSH1 0x20 ADD PUSH1 0x0 PUSH2 0xFFFF AND DUP2 MSTORE PUSH1 0x20 ADD PUSH1 0x1 PUSH4 0xFFFFFFFF AND DUP2 MSTORE PUSH1 0x20 ADD PUSH1 0x0 PUSH4 0xFFFFFFFF AND DUP2 MSTORE POP SWAP1 DUP1 PUSH1 0x1 DUP2 SLOAD ADD DUP1 DUP3 SSTORE DUP1 SWAP2 POP POP PUSH1 0x1 SWAP1 SUB SWAP1 PUSH1 0x0 MSTORE PUSH1 0x20 PUSH1 0x0 KECCAK256 SWAP1 PUSH1 0x2 MUL ADD PUSH1 0x0 SWAP1 SWAP2 SWAP1 SWAP2 SWAP1 SWAP2 POP PUSH1 0x0 DUP3 ADD MLOAD DUP2 PUSH1 0x0 ADD SWAP1 DUP2 PUSH2 0x102C SWAP2 SWAP1 PUSH2 0x1F8D JUMP JUMPDEST POP PUSH1 0x20 DUP3 ADD MLOAD DUP2 PUSH1 0x1 ADD PUSH1 0x0 PUSH2 0x100 EXP DUP2 SLOAD DUP2 PUSH2 0xFFFF MUL NOT AND SWAP1 DUP4 PUSH2 0xFFFF AND MUL OR SWAP1 SSTORE POP PUSH1 0x40 DUP3 ADD MLOAD DUP2 PUSH1 0x1 ADD PUSH1 0x2 PUSH2 0x100 EXP DUP2 SLOAD DUP2 PUSH2 0xFFFF MUL NOT AND SWAP1 DUP4 PUSH2 0xFFFF AND MUL OR SWAP1 SSTORE POP PUSH1 0x60 DUP3 ADD MLOAD DUP2 PUSH1 0x1 ADD PUSH1 0x4 PUSH2 0x100 EXP DUP2 SLOAD DUP2 PUSH2 0xFFFF MUL NOT AND SWAP1 DUP4 PUSH2 0xFFFF AND MUL OR SWAP1 SSTORE POP PUSH1 0x80 DUP3 ADD MLOAD DUP2 PUSH1 0x1 ADD PUSH1 0x6 PUSH2 0x100 EXP DUP2 SLOAD DUP2 PUSH4 0xFFFFFFFF MUL NOT AND SWAP1 DUP4 PUSH4 0xFFFFFFFF AND MUL OR SWAP1 SSTORE POP PUSH1 0xA0 DUP3 ADD MLOAD DUP2 PUSH1 0x1 ADD PUSH1 0xA PUSH2 0x100 EXP DUP2 SLOAD DUP2 PUSH4 0xFFFFFFFF MUL NOT AND SWAP1 DUP4 PUSH4 0xFFFFFFFF AND MUL OR SWAP1 SSTORE POP POP POP PUSH1 0x0 PUSH1 0x1 PUSH1 0x6 DUP1 SLOAD SWAP1 POP PUSH2 0x10FA SWAP2 SWAP1 PUSH2 0x205F JUMP JUMPDEST SWAP1 POP CALLER PUSH1 0x7 PUSH1 0x0 DUP4 DUP2 MSTORE PUSH1 0x20 ADD SWAP1 DUP2 MSTORE PUSH1 0x20 ADD PUSH1 0x0 KECCAK256 PUSH1 0x0 PUSH2 0x100 EXP DUP2 SLOAD DUP2 PUSH20 0xFFFFFFFFFFFFFFFFFFFFFFFFFFFFFFFFFFFFFFFF MUL NOT AND SWAP1 DUP4 PUSH20 0xFFFFFFFFFFFFFFFFFFFFFFFFFFFFFFFFFFFFFFFF AND MUL OR SWAP1 SSTORE POP PUSH2 0x11A1 PUSH1 0x1 PUSH1 0x8 PUSH1 0x0 CALLER PUSH20 0xFFFFFFFFFFFFFFFFFFFFFFFFFFFFFFFFFFFFFFFF AND PUSH20 0xFFFFFFFFFFFFFFFFFFFFFFFFFFFFFFFFFFFFFFFF AND DUP2 MSTORE PUSH1 0x20 ADD SWAP1 DUP2 MSTORE PUSH1 0x20 ADD PUSH1 0x0 KECCAK256 SLOAD PUSH2 0x1240 SWAP1 SWAP2 SWAP1 PUSH4 0xFFFFFFFF AND JUMP JUMPDEST PUSH1 0x8 PUSH1 0x0 CALLER PUSH20 0xFFFFFFFFFFFFFFFFFFFFFFFFFFFFFFFFFFFFFFFF AND PUSH20 0xFFFFFFFFFFFFFFFFFFFFFFFFFFFFFFFFFFFFFFFF AND DUP2 MSTORE PUSH1 0x20 ADD SWAP1 DUP2 MSTORE PUSH1 0x20 ADD PUSH1 0x0 KECCAK256 DUP2 SWAP1 SSTORE POP PUSH2 0x11FA PUSH1 0x1 PUSH1 0x5 SLOAD PUSH2 0x1240 SWAP1 SWAP2 SWAP1 PUSH4 0xFFFFFFFF AND JUMP JUMPDEST PUSH1 0x5 DUP2 SWAP1 SSTORE POP PUSH32 0xFFB2FB18E6D3EC7EF368D2F329EF22F9431AAEBE0FCBC9282D7770949AC8CD31 DUP2 DUP5 DUP5 PUSH1 0x40 MLOAD PUSH2 0x1233 SWAP4 SWAP3 SWAP2 SWAP1 PUSH2 0x20C4 JUMP JUMPDEST PUSH1 0x40 MLOAD DUP1 SWAP2 SUB SWAP1 LOG1 POP POP POP JUMP JUMPDEST PUSH1 0x0 DUP1 DUP3 DUP5 PUSH2 0x124F SWAP2 SWAP1 PUSH2 0x2102 JUMP JUMPDEST SWAP1 POP DUP4 DUP2 LT ISZERO PUSH2 0x1262 JUMPI PUSH2 0x1261 PUSH2 0x2136 JUMP JUMPDEST JUMPDEST DUP1 SWAP2 POP POP SWAP3 SWAP2 POP POP JUMP JUMPDEST PUSH3 0x15180 PUSH1 0x3 SLOAD TIMESTAMP PUSH2 0x127E SWAP2 SWAP1 PUSH2 0x2102 JUMP JUMPDEST PUSH2 0x1288 SWAP2 SWAP1 PUSH2 0x1EA1 JUMP JUMPDEST PUSH1 0x3 SLOAD TIMESTAMP PUSH2 0x1296 SWAP2 SWAP1 PUSH2 0x2102 JUMP JUMPDEST PUSH2 0x12A0 SWAP2 SWAP1 PUSH2 0x2165 JUMP JUMPDEST DUP2 PUSH1 0x1 ADD PUSH1 0xA PUSH2 0x100 EXP DUP2 SLOAD DUP2 PUSH4 0xFFFFFFFF MUL NOT AND SWAP1 DUP4 PUSH4 0xFFFFFFFF AND MUL OR SWAP1 SSTORE POP POP JUMP JUMPDEST PUSH1 0x0 DUP2 SWAP1 POP SWAP2 SWAP1 POP JUMP JUMPDEST PUSH2 0x12D8 DUP2 PUSH2 0x12C5 JUMP JUMPDEST DUP3 MSTORE POP POP JUMP JUMPDEST PUSH1 0x0 PUSH1 0x20 DUP3 ADD SWAP1 POP PUSH2 0x12F3 PUSH1 0x0 DUP4 ADD DUP5 PUSH2 0x12CF JUMP JUMPDEST SWAP3 SWAP2 POP POP JUMP JUMPDEST PUSH1 0x0 DUP2 ISZERO ISZERO SWAP1 POP SWAP2 SWAP1 POP JUMP JUMPDEST PUSH2 0x130E DUP2 PUSH2 0x12F9 JUMP JUMPDEST DUP3 MSTORE POP POP JUMP JUMPDEST PUSH1 0x0 PUSH1 0x20 DUP3 ADD SWAP1 POP PUSH2 0x1329 PUSH1 0x0 DUP4 ADD DUP5 PUSH2 0x1305 JUMP JUMPDEST SWAP3 SWAP2 POP POP JUMP JUMPDEST PUSH1 0x0 PUSH1 0x40 MLOAD SWAP1 POP SWAP1 JUMP JUMPDEST PUSH1 0x0 DUP1 REVERT JUMPDEST PUSH1 0x0 DUP1 REVERT JUMPDEST PUSH2 0x134C DUP2 PUSH2 0x12C5 JUMP JUMPDEST DUP2 EQ PUSH2 0x1357 JUMPI PUSH1 0x0 DUP1 REVERT JUMPDEST POP JUMP JUMPDEST PUSH1 0x0 DUP2 CALLDATALOAD SWAP1 POP PUSH2 0x1369 DUP2 PUSH2 0x1343 JUMP JUMPDEST SWAP3 SWAP2 POP POP JUMP JUMPDEST PUSH1 0x0 PUSH1 0x20 DUP3 DUP5 SUB SLT ISZERO PUSH2 0x1385 JUMPI PUSH2 0x1384 PUSH2 0x1339 JUMP JUMPDEST JUMPDEST PUSH1 0x0 PUSH2 0x1393 DUP5 DUP3 DUP6 ADD PUSH2 0x135A JUMP JUMPDEST SWAP2 POP POP SWAP3 SWAP2 POP POP JUMP JUMPDEST PUSH1 0x0 DUP1 REVERT JUMPDEST PUSH1 0x0 DUP1 REVERT JUMPDEST PUSH1 0x0 DUP1 REVERT JUMPDEST PUSH1 0x0 DUP1 DUP4 PUSH1 0x1F DUP5 ADD SLT PUSH2 0x13C1 JUMPI PUSH2 0x13C0 PUSH2 0x139C JUMP JUMPDEST JUMPDEST DUP3 CALLDATALOAD SWAP1 POP PUSH8 0xFFFFFFFFFFFFFFFF DUP2 GT ISZERO PUSH2 0x13DE JUMPI PUSH2 0x13DD PUSH2 0x13A1 JUMP JUMPDEST JUMPDEST PUSH1 0x20 DUP4 ADD SWAP2 POP DUP4 PUSH1 0x1 DUP3 MUL DUP4 ADD GT ISZERO PUSH2 0x13FA JUMPI PUSH2 0x13F9 PUSH2 0x13A6 JUMP JUMPDEST JUMPDEST SWAP3 POP SWAP3 SWAP1 POP JUMP JUMPDEST PUSH1 0x0 DUP1 PUSH1 0x0 PUSH1 0x40 DUP5 DUP7 SUB SLT ISZERO PUSH2 0x141A JUMPI PUSH2 0x1419 PUSH2 0x1339 JUMP JUMPDEST JUMPDEST PUSH1 0x0 DUP5 ADD CALLDATALOAD PUSH8 0xFFFFFFFFFFFFFFFF DUP2 GT ISZERO PUSH2 0x1438 JUMPI PUSH2 0x1437 PUSH2 0x133E JUMP JUMPDEST JUMPDEST PUSH2 0x1444 DUP7 DUP3 DUP8 ADD PUSH2 0x13AB JUMP JUMPDEST SWAP4 POP SWAP4 POP POP PUSH1 0x20 PUSH2 0x1457 DUP7 DUP3 DUP8 ADD PUSH2 0x135A JUMP JUMPDEST SWAP2 POP POP SWAP3 POP SWAP3 POP SWAP3 JUMP JUMPDEST PUSH1 0x0 PUSH20 0xFFFFFFFFFFFFFFFFFFFFFFFFFFFFFFFFFFFFFFFF DUP3 AND SWAP1 POP SWAP2 SWAP1 POP JUMP JUMPDEST PUSH1 0x0 PUSH2 0x148C DUP3 PUSH2 0x1461 JUMP JUMPDEST SWAP1 POP SWAP2 SWAP1 POP JUMP JUMPDEST PUSH2 0x149C DUP2 PUSH2 0x1481 JUMP JUMPDEST DUP2 EQ PUSH2 0x14A7 JUMPI PUSH1 0x0 DUP1 REVERT JUMPDEST POP JUMP JUMPDEST PUSH1 0x0 DUP2 CALLDATALOAD SWAP1 POP PUSH2 0x14B9 DUP2 PUSH2 0x1493 JUMP JUMPDEST SWAP3 SWAP2 POP POP JUMP JUMPDEST PUSH1 0x0 PUSH1 0x20 DUP3 DUP5 SUB SLT ISZERO PUSH2 0x14D5 JUMPI PUSH2 0x14D4 PUSH2 0x1339 JUMP JUMPDEST JUMPDEST PUSH1 0x0 PUSH2 0x14E3 DUP5 DUP3 DUP6 ADD PUSH2 0x14AA JUMP JUMPDEST SWAP2 POP POP SWAP3 SWAP2 POP POP JUMP JUMPDEST PUSH1 0x0 DUP2 MLOAD SWAP1 POP SWAP2 SWAP1 POP JUMP JUMPDEST PUSH1 0x0 DUP3 DUP3 MSTORE PUSH1 0x20 DUP3 ADD SWAP1 POP SWAP3 SWAP2 POP POP JUMP JUMPDEST PUSH1 0x0 DUP2 SWAP1 POP PUSH1 0x20 DUP3 ADD SWAP1 POP SWAP2 SWAP1 POP JUMP JUMPDEST PUSH2 0x1521 DUP2 PUSH2 0x12C5 JUMP JUMPDEST DUP3 MSTORE POP POP JUMP JUMPDEST PUSH1 0x0 PUSH2 0x1533 DUP4 DUP4 PUSH2 0x1518 JUMP JUMPDEST PUSH1 0x20 DUP4 ADD SWAP1 POP SWAP3 SWAP2 POP POP JUMP JUMPDEST PUSH1 0x0 PUSH1 0x20 DUP3 ADD SWAP1 POP SWAP2 SWAP1 POP JUMP JUMPDEST PUSH1 0x0 PUSH2 0x1557 DUP3 PUSH2 0x14EC JUMP JUMPDEST PUSH2 0x1561 DUP2 DUP6 PUSH2 0x14F7 JUMP JUMPDEST SWAP4 POP PUSH2 0x156C DUP4 PUSH2 0x1508 JUMP JUMPDEST DUP1 PUSH1 0x0 JUMPDEST DUP4 DUP2 LT ISZERO PUSH2 0x159D JUMPI DUP2 MLOAD PUSH2 0x1584 DUP9 DUP3 PUSH2 0x1527 JUMP JUMPDEST SWAP8 POP PUSH2 0x158F DUP4 PUSH2 0x153F JUMP JUMPDEST SWAP3 POP POP PUSH1 0x1 DUP2 ADD SWAP1 POP PUSH2 0x1570 JUMP JUMPDEST POP DUP6 SWAP4 POP POP POP POP SWAP3 SWAP2 POP POP JUMP JUMPDEST PUSH1 0x0 PUSH1 0x20 DUP3 ADD SWAP1 POP DUP2 DUP2 SUB PUSH1 0x0 DUP4 ADD MSTORE PUSH2 0x15C4 DUP2 DUP5 PUSH2 0x154C JUMP JUMPDEST SWAP1 POP SWAP3 SWAP2 POP POP JUMP JUMPDEST PUSH1 0x0 DUP2 MLOAD SWAP1 POP SWAP2 SWAP1 POP JUMP JUMPDEST PUSH1 0x0 DUP3 DUP3 MSTORE PUSH1 0x20 DUP3 ADD SWAP1 POP SWAP3 SWAP2 POP POP JUMP JUMPDEST PUSH1 0x0 JUMPDEST DUP4 DUP2 LT ISZERO PUSH2 0x1606 JUMPI DUP1 DUP3 ADD MLOAD DUP2 DUP5 ADD MSTORE PUSH1 0x20 DUP2 ADD SWAP1 POP PUSH2 0x15EB JUMP JUMPDEST PUSH1 0x0 DUP5 DUP5 ADD MSTORE POP POP POP POP JUMP JUMPDEST PUSH1 0x0 PUSH1 0x1F NOT PUSH1 0x1F DUP4 ADD AND SWAP1 POP SWAP2 SWAP1 POP JUMP JUMPDEST PUSH1 0x0 PUSH2 0x162E DUP3 PUSH2 0x15CC JUMP JUMPDEST PUSH2 0x1638 DUP2 DUP6 PUSH2 0x15D7 JUMP JUMPDEST SWAP4 POP PUSH2 0x1648 DUP2 DUP6 PUSH1 0x20 DUP7 ADD PUSH2 0x15E8 JUMP JUMPDEST PUSH2 0x1651 DUP2 PUSH2 0x1612 JUMP JUMPDEST DUP5 ADD SWAP2 POP POP SWAP3 SWAP2 POP POP JUMP JUMPDEST PUSH1 0x0 PUSH2 0xFFFF DUP3 AND SWAP1 POP SWAP2 SWAP1 POP JUMP JUMPDEST PUSH2 0x1673 DUP2 PUSH2 0x165C JUMP JUMPDEST DUP3 MSTORE POP POP JUMP JUMPDEST PUSH1 0x0 PUSH4 0xFFFFFFFF DUP3 AND SWAP1 POP SWAP2 SWAP1 POP JUMP JUMPDEST PUSH2 0x1692 DUP2 PUSH2 0x1679 JUMP JUMPDEST DUP3 MSTORE POP POP JUMP JUMPDEST PUSH1 0x0 PUSH1 0xC0 DUP3 ADD SWAP1 POP DUP2 DUP2 SUB PUSH1 0x0 DUP4 ADD MSTORE PUSH2 0x16B2 DUP2 DUP10 PUSH2 0x1623 JUMP JUMPDEST SWAP1 POP PUSH2 0x16C1 PUSH1 0x20 DUP4 ADD DUP9 PUSH2 0x166A JUMP JUMPDEST PUSH2 0x16CE PUSH1 0x40 DUP4 ADD DUP8 PUSH2 0x166A JUMP JUMPDEST PUSH2 0x16DB PUSH1 0x60 DUP4 ADD DUP7 PUSH2 0x166A JUMP JUMPDEST PUSH2 0x16E8 PUSH1 0x80 DUP4 ADD DUP6 PUSH2 0x1689 JUMP JUMPDEST PUSH2 0x16F5 PUSH1 0xA0 DUP4 ADD DUP5 PUSH2 0x1689 JUMP JUMPDEST SWAP8 SWAP7 POP POP POP POP POP POP POP JUMP JUMPDEST PUSH2 0x1709 DUP2 PUSH2 0x1481 JUMP JUMPDEST DUP3 MSTORE POP POP JUMP JUMPDEST PUSH1 0x0 PUSH1 0x20 DUP3 ADD SWAP1 POP PUSH2 0x1724 PUSH1 0x0 DUP4 ADD DUP5 PUSH2 0x1700 JUMP JUMPDEST SWAP3 SWAP2 POP POP JUMP JUMPDEST PUSH1 0x0 DUP1 REVERT JUMPDEST PUSH32 0x4E487B7100000000000000000000000000000000000000000000000000000000 PUSH1 0x0 MSTORE PUSH1 0x41 PUSH1 0x4 MSTORE PUSH1 0x24 PUSH1 0x0 REVERT JUMPDEST PUSH2 0x1767 DUP3 PUSH2 0x1612 JUMP JUMPDEST DUP2 ADD DUP2 DUP2 LT PUSH8 0xFFFFFFFFFFFFFFFF DUP3 GT OR ISZERO PUSH2 0x1786 JUMPI PUSH2 0x1785 PUSH2 0x172F JUMP JUMPDEST JUMPDEST DUP1 PUSH1 0x40 MSTORE POP POP POP JUMP JUMPDEST PUSH1 0x0 PUSH2 0x1799 PUSH2 0x132F JUMP JUMPDEST SWAP1 POP PUSH2 0x17A5 DUP3 DUP3 PUSH2 0x175E JUMP JUMPDEST SWAP2 SWAP1 POP JUMP JUMPDEST PUSH1 0x0 PUSH8 0xFFFFFFFFFFFFFFFF DUP3 GT ISZERO PUSH2 0x17C5 JUMPI PUSH2 0x17C4 PUSH2 0x172F JUMP JUMPDEST JUMPDEST PUSH2 0x17CE DUP3 PUSH2 0x1612 JUMP JUMPDEST SWAP1 POP PUSH1 0x20 DUP2 ADD SWAP1 POP SWAP2 SWAP1 POP JUMP JUMPDEST DUP3 DUP2 DUP4 CALLDATACOPY PUSH1 0x0 DUP4 DUP4 ADD MSTORE POP POP POP JUMP JUMPDEST PUSH1 0x0 PUSH2 0x17FD PUSH2 0x17F8 DUP5 PUSH2 0x17AA JUMP JUMPDEST PUSH2 0x178F JUMP JUMPDEST SWAP1 POP DUP3 DUP2 MSTORE PUSH1 0x20 DUP2 ADD DUP5 DUP5 DUP5 ADD GT ISZERO PUSH2 0x1819 JUMPI PUSH2 0x1818 PUSH2 0x172A JUMP JUMPDEST JUMPDEST PUSH2 0x1824 DUP5 DUP3 DUP6 PUSH2 0x17DB JUMP JUMPDEST POP SWAP4 SWAP3 POP POP POP JUMP JUMPDEST PUSH1 0x0 DUP3 PUSH1 0x1F DUP4 ADD SLT PUSH2 0x1841 JUMPI PUSH2 0x1840 PUSH2 0x139C JUMP JUMPDEST JUMPDEST DUP2 CALLDATALOAD PUSH2 0x1851 DUP5 DUP3 PUSH1 0x20 DUP7 ADD PUSH2 0x17EA JUMP JUMPDEST SWAP2 POP POP SWAP3 SWAP2 POP POP JUMP JUMPDEST PUSH1 0x0 PUSH1 0x20 DUP3 DUP5 SUB SLT ISZERO PUSH2 0x1870 JUMPI PUSH2 0x186F PUSH2 0x1339 JUMP JUMPDEST JUMPDEST PUSH1 0x0 DUP3 ADD CALLDATALOAD PUSH8 0xFFFFFFFFFFFFFFFF DUP2 GT ISZERO PUSH2 0x188E JUMPI PUSH2 0x188D PUSH2 0x133E JUMP JUMPDEST JUMPDEST PUSH2 0x189A DUP5 DUP3 DUP6 ADD PUSH2 0x182C JUMP JUMPDEST SWAP2 POP POP SWAP3 SWAP2 POP POP JUMP JUMPDEST PUSH1 0x0 PUSH2 0x18AE DUP3 PUSH2 0x1461 JUMP JUMPDEST SWAP1 POP SWAP2 SWAP1 POP JUMP JUMPDEST PUSH2 0x18BE DUP2 PUSH2 0x18A3 JUMP JUMPDEST DUP2 EQ PUSH2 0x18C9 JUMPI PUSH1 0x0 DUP1 REVERT JUMPDEST POP JUMP JUMPDEST PUSH1 0x0 DUP2 CALLDATALOAD SWAP1 POP PUSH2 0x18DB DUP2 PUSH2 0x18B5 JUMP JUMPDEST SWAP3 SWAP2 POP POP JUMP JUMPDEST PUSH1 0x0 PUSH1 0x20 DUP3 DUP5 SUB SLT ISZERO PUSH2 0x18F7 JUMPI PUSH2 0x18F6 PUSH2 0x1339 JUMP JUMPDEST JUMPDEST PUSH1 0x0 PUSH2 0x1905 DUP5 DUP3 DUP6 ADD PUSH2 0x18CC JUMP JUMPDEST SWAP2 POP POP SWAP3 SWAP2 POP POP JUMP JUMPDEST PUSH32 0x7364660000000000000000000000000000000000000000000000000000000000 PUSH1 0x0 DUP3 ADD MSTORE POP JUMP JUMPDEST PUSH1 0x0 PUSH2 0x1944 PUSH1 0x3 DUP4 PUSH2 0x15D7 JUMP JUMPDEST SWAP2 POP PUSH2 0x194F DUP3 PUSH2 0x190E JUMP JUMPDEST PUSH1 0x20 DUP3 ADD SWAP1 POP SWAP2 SWAP1 POP JUMP JUMPDEST PUSH1 0x0 PUSH1 0x20 DUP3 ADD SWAP1 POP DUP2 DUP2 SUB PUSH1 0x0 DUP4 ADD MSTORE PUSH2 0x1973 DUP2 PUSH2 0x1937 JUMP JUMPDEST SWAP1 POP SWAP2 SWAP1 POP JUMP JUMPDEST PUSH32 0x4E487B7100000000000000000000000000000000000000000000000000000000 PUSH1 0x0 MSTORE PUSH1 0x32 PUSH1 0x4 MSTORE PUSH1 0x24 PUSH1 0x0 REVERT JUMPDEST PUSH32 0x4E487B7100000000000000000000000000000000000000000000000000000000 PUSH1 0x0 MSTORE PUSH1 0x11 PUSH1 0x4 MSTORE PUSH1 0x24 PUSH1 0x0 REVERT JUMPDEST PUSH1 0x0 PUSH2 0x19E3 DUP3 PUSH2 0x1679 JUMP JUMPDEST SWAP2 POP PUSH4 0xFFFFFFFF DUP3 SUB PUSH2 0x19F9 JUMPI PUSH2 0x19F8 PUSH2 0x19A9 JUMP JUMPDEST JUMPDEST PUSH1 0x1 DUP3 ADD SWAP1 POP SWAP2 SWAP1 POP JUMP JUMPDEST PUSH32 0x6572726F72000000000000000000000000000000000000000000000000000000 PUSH1 0x0 DUP3 ADD MSTORE POP JUMP JUMPDEST PUSH1 0x0 PUSH2 0x1A3A PUSH1 0x5 DUP4 PUSH2 0x15D7 JUMP JUMPDEST SWAP2 POP PUSH2 0x1A45 DUP3 PUSH2 0x1A04 JUMP JUMPDEST PUSH1 0x20 DUP3 ADD SWAP1 POP SWAP2 SWAP1 POP JUMP JUMPDEST PUSH1 0x0 PUSH1 0x20 DUP3 ADD SWAP1 POP DUP2 DUP2 SUB PUSH1 0x0 DUP4 ADD MSTORE PUSH2 0x1A69 DUP2 PUSH2 0x1A2D JUMP JUMPDEST SWAP1 POP SWAP2 SWAP1 POP JUMP JUMPDEST PUSH1 0x0 DUP3 SWAP1 POP SWAP3 SWAP2 POP POP JUMP JUMPDEST PUSH32 0x4E487B7100000000000000000000000000000000000000000000000000000000 PUSH1 0x0 MSTORE PUSH1 0x22 PUSH1 0x4 MSTORE PUSH1 0x24 PUSH1 0x0 REVERT JUMPDEST PUSH1 0x0 PUSH1 0x2 DUP3 DIV SWAP1 POP PUSH1 0x1 DUP3 AND DUP1 PUSH2 0x1AC2 JUMPI PUSH1 0x7F DUP3 AND SWAP2 POP JUMPDEST PUSH1 0x20 DUP3 LT DUP2 SUB PUSH2 0x1AD5 JUMPI PUSH2 0x1AD4 PUSH2 0x1A7B JUMP JUMPDEST JUMPDEST POP SWAP2 SWAP1 POP JUMP JUMPDEST PUSH1 0x0 DUP2 SWAP1 POP DUP2 PUSH1 0x0 MSTORE PUSH1 0x20 PUSH1 0x0 KECCAK256 SWAP1 POP SWAP2 SWAP1 POP JUMP JUMPDEST PUSH1 0x0 PUSH1 0x20 PUSH1 0x1F DUP4 ADD DIV SWAP1 POP SWAP2 SWAP1 POP JUMP JUMPDEST PUSH1 0x0 DUP3 DUP3 SHL SWAP1 POP SWAP3 SWAP2 POP POP JUMP JUMPDEST PUSH1 0x0 PUSH1 0x8 DUP4 MUL PUSH2 0x1B3D PUSH32 0xFFFFFFFFFFFFFFFFFFFFFFFFFFFFFFFFFFFFFFFFFFFFFFFFFFFFFFFFFFFFFFFF DUP3 PUSH2 0x1B00 JUMP JUMPDEST PUSH2 0x1B47 DUP7 DUP4 PUSH2 0x1B00 JUMP JUMPDEST SWAP6 POP DUP1 NOT DUP5 AND SWAP4 POP DUP1 DUP7 AND DUP5 OR SWAP3 POP POP POP SWAP4 SWAP3 POP POP POP JUMP JUMPDEST PUSH1 0x0 DUP2 SWAP1 POP SWAP2 SWAP1 POP JUMP JUMPDEST PUSH1 0x0 PUSH2 0x1B84 PUSH2 0x1B7F PUSH2 0x1B7A DUP5 PUSH2 0x12C5 JUMP JUMPDEST PUSH2 0x1B5F JUMP JUMPDEST PUSH2 0x12C5 JUMP JUMPDEST SWAP1 POP SWAP2 SWAP1 POP JUMP JUMPDEST PUSH1 0x0 DUP2 SWAP1 POP SWAP2 SWAP1 POP JUMP JUMPDEST PUSH2 0x1B9E DUP4 PUSH2 0x1B69 JUMP JUMPDEST PUSH2 0x1BB2 PUSH2 0x1BAA DUP3 PUSH2 0x1B8B JUMP JUMPDEST DUP5 DUP5 SLOAD PUSH2 0x1B0D JUMP JUMPDEST DUP3 SSTORE POP POP POP POP JUMP JUMPDEST PUSH1 0x0 SWAP1 JUMP JUMPDEST PUSH2 0x1BC7 PUSH2 0x1BBA JUMP JUMPDEST PUSH2 0x1BD2 DUP2 DUP5 DUP5 PUSH2 0x1B95 JUMP JUMPDEST POP POP POP JUMP JUMPDEST JUMPDEST DUP2 DUP2 LT ISZERO PUSH2 0x1BF6 JUMPI PUSH2 0x1BEB PUSH1 0x0 DUP3 PUSH2 0x1BBF JUMP JUMPDEST PUSH1 0x1 DUP2 ADD SWAP1 POP PUSH2 0x1BD8 JUMP JUMPDEST POP POP JUMP JUMPDEST PUSH1 0x1F DUP3 GT ISZERO PUSH2 0x1C3B JUMPI PUSH2 0x1C0C DUP2 PUSH2 0x1ADB JUMP JUMPDEST PUSH2 0x1C15 DUP5 PUSH2 0x1AF0 JUMP JUMPDEST DUP2 ADD PUSH1 0x20 DUP6 LT ISZERO PUSH2 0x1C24 JUMPI DUP2 SWAP1 POP JUMPDEST PUSH2 0x1C38 PUSH2 0x1C30 DUP6 PUSH2 0x1AF0 JUMP JUMPDEST DUP4 ADD DUP3 PUSH2 0x1BD7 JUMP JUMPDEST POP POP JUMPDEST POP POP POP JUMP JUMPDEST PUSH1 0x0 DUP3 DUP3 SHR SWAP1 POP SWAP3 SWAP2 POP POP JUMP JUMPDEST PUSH1 0x0 PUSH2 0x1C5E PUSH1 0x0 NOT DUP5 PUSH1 0x8 MUL PUSH2 0x1C40 JUMP JUMPDEST NOT DUP1 DUP4 AND SWAP2 POP POP SWAP3 SWAP2 POP POP JUMP JUMPDEST PUSH1 0x0 PUSH2 0x1C77 DUP4 DUP4 PUSH2 0x1C4D JUMP JUMPDEST SWAP2 POP DUP3 PUSH1 0x2 MUL DUP3 OR SWAP1 POP SWAP3 SWAP2 POP POP JUMP JUMPDEST PUSH2 0x1C91 DUP4 DUP4 PUSH2 0x1A70 JUMP JUMPDEST PUSH8 0xFFFFFFFFFFFFFFFF DUP2 GT ISZERO PUSH2 0x1CAA JUMPI PUSH2 0x1CA9 PUSH2 0x172F JUMP JUMPDEST JUMPDEST PUSH2 0x1CB4 DUP3 SLOAD PUSH2 0x1AAA JUMP JUMPDEST PUSH2 0x1CBF DUP3 DUP3 DUP6 PUSH2 0x1BFA JUMP JUMPDEST PUSH1 0x0 PUSH1 0x1F DUP4 GT PUSH1 0x1 DUP2 EQ PUSH2 0x1CEE JUMPI PUSH1 0x0 DUP5 ISZERO PUSH2 0x1CDC JUMPI DUP3 DUP8 ADD CALLDATALOAD SWAP1 POP JUMPDEST PUSH2 0x1CE6 DUP6 DUP3 PUSH2 0x1C6B JUMP JUMPDEST DUP7 SSTORE POP PUSH2 0x1D4E JUMP JUMPDEST PUSH1 0x1F NOT DUP5 AND PUSH2 0x1CFC DUP7 PUSH2 0x1ADB JUMP JUMPDEST PUSH1 0x0 JUMPDEST DUP3 DUP2 LT ISZERO PUSH2 0x1D24 JUMPI DUP5 DUP10 ADD CALLDATALOAD DUP3 SSTORE PUSH1 0x1 DUP3 ADD SWAP2 POP PUSH1 0x20 DUP6 ADD SWAP5 POP PUSH1 0x20 DUP2 ADD SWAP1 POP PUSH2 0x1CFF JUMP JUMPDEST DUP7 DUP4 LT ISZERO PUSH2 0x1D41 JUMPI DUP5 DUP10 ADD CALLDATALOAD PUSH2 0x1D3D PUSH1 0x1F DUP10 AND DUP3 PUSH2 0x1C4D JUMP JUMPDEST DUP4 SSTORE POP JUMPDEST PUSH1 0x1 PUSH1 0x2 DUP9 MUL ADD DUP9 SSTORE POP POP POP JUMPDEST POP POP POP POP POP POP POP JUMP JUMPDEST PUSH32 0x4D75737420636F6E7472616374206F776E657200000000000000000000000000 PUSH1 0x0 DUP3 ADD MSTORE POP JUMP JUMPDEST PUSH1 0x0 PUSH2 0x1D8D PUSH1 0x13 DUP4 PUSH2 0x15D7 JUMP JUMPDEST SWAP2 POP PUSH2 0x1D98 DUP3 PUSH2 0x1D57 JUMP JUMPDEST PUSH1 0x20 DUP3 ADD SWAP1 POP SWAP2 SWAP1 POP JUMP JUMPDEST PUSH1 0x0 PUSH1 0x20 DUP3 ADD SWAP1 POP DUP2 DUP2 SUB PUSH1 0x0 DUP4 ADD MSTORE PUSH2 0x1DBC DUP2 PUSH2 0x1D80 JUMP JUMPDEST SWAP1 POP SWAP2 SWAP1 POP JUMP JUMPDEST PUSH1 0x0 PUSH2 0x1DCE DUP3 PUSH2 0x12C5 JUMP JUMPDEST SWAP2 POP PUSH32 0xFFFFFFFFFFFFFFFFFFFFFFFFFFFFFFFFFFFFFFFFFFFFFFFFFFFFFFFFFFFFFFFF DUP3 SUB PUSH2 0x1E00 JUMPI PUSH2 0x1DFF PUSH2 0x19A9 JUMP JUMPDEST JUMPDEST PUSH1 0x1 DUP3 ADD SWAP1 POP SWAP2 SWAP1 POP JUMP JUMPDEST PUSH32 0x4E487B7100000000000000000000000000000000000000000000000000000000 PUSH1 0x0 MSTORE PUSH1 0x12 PUSH1 0x4 MSTORE PUSH1 0x24 PUSH1 0x0 REVERT JUMPDEST PUSH1 0x0 PUSH2 0x1E45 DUP3 PUSH2 0x165C JUMP JUMPDEST SWAP2 POP PUSH2 0x1E50 DUP4 PUSH2 0x165C JUMP JUMPDEST SWAP3 POP DUP3 PUSH2 0x1E60 JUMPI PUSH2 0x1E5F PUSH2 0x1E0B JUMP JUMPDEST JUMPDEST DUP3 DUP3 MOD SWAP1 POP SWAP3 SWAP2 POP POP JUMP JUMPDEST PUSH1 0x0 PUSH2 0x1E76 DUP3 PUSH2 0x165C JUMP JUMPDEST SWAP2 POP PUSH2 0x1E81 DUP4 PUSH2 0x165C JUMP JUMPDEST SWAP3 POP DUP3 DUP3 SUB SWAP1 POP PUSH2 0xFFFF DUP2 GT ISZERO PUSH2 0x1E9B JUMPI PUSH2 0x1E9A PUSH2 0x19A9 JUMP JUMPDEST JUMPDEST SWAP3 SWAP2 POP POP JUMP JUMPDEST PUSH1 0x0 PUSH2 0x1EAC DUP3 PUSH2 0x12C5 JUMP JUMPDEST SWAP2 POP PUSH2 0x1EB7 DUP4 PUSH2 0x12C5 JUMP JUMPDEST SWAP3 POP DUP3 PUSH2 0x1EC7 JUMPI PUSH2 0x1EC6 PUSH2 0x1E0B JUMP JUMPDEST JUMPDEST DUP3 DUP3 MOD SWAP1 POP SWAP3 SWAP2 POP POP JUMP JUMPDEST PUSH1 0x0 PUSH2 0x1EDD DUP3 PUSH2 0x165C JUMP JUMPDEST SWAP2 POP PUSH2 0x1EE8 DUP4 PUSH2 0x165C JUMP JUMPDEST SWAP3 POP DUP3 DUP3 ADD SWAP1 POP PUSH2 0xFFFF DUP2 GT ISZERO PUSH2 0x1F02 JUMPI PUSH2 0x1F01 PUSH2 0x19A9 JUMP JUMPDEST JUMPDEST SWAP3 SWAP2 POP POP JUMP JUMPDEST PUSH1 0x0 DUP2 SWAP1 POP SWAP3 SWAP2 POP POP JUMP JUMPDEST PUSH1 0x0 PUSH2 0x1F1E DUP3 PUSH2 0x15CC JUMP JUMPDEST PUSH2 0x1F28 DUP2 DUP6 PUSH2 0x1F08 JUMP JUMPDEST SWAP4 POP PUSH2 0x1F38 DUP2 DUP6 PUSH1 0x20 DUP7 ADD PUSH2 0x15E8 JUMP JUMPDEST DUP1 DUP5 ADD SWAP2 POP POP SWAP3 SWAP2 POP POP JUMP JUMPDEST PUSH1 0x0 DUP2 SWAP1 POP SWAP2 SWAP1 POP JUMP JUMPDEST PUSH2 0x1F5F PUSH2 0x1F5A DUP3 PUSH2 0x12C5 JUMP JUMPDEST PUSH2 0x1F44 JUMP JUMPDEST DUP3 MSTORE POP POP JUMP JUMPDEST PUSH1 0x0 PUSH2 0x1F71 DUP3 DUP6 PUSH2 0x1F13 JUMP JUMPDEST SWAP2 POP PUSH2 0x1F7D DUP3 DUP5 PUSH2 0x1F4E JUMP JUMPDEST PUSH1 0x20 DUP3 ADD SWAP2 POP DUP2 SWAP1 POP SWAP4 SWAP3 POP POP POP JUMP JUMPDEST PUSH2 0x1F96 DUP3 PUSH2 0x15CC JUMP JUMPDEST PUSH8 0xFFFFFFFFFFFFFFFF DUP2 GT ISZERO PUSH2 0x1FAF JUMPI PUSH2 0x1FAE PUSH2 0x172F JUMP JUMPDEST JUMPDEST PUSH2 0x1FB9 DUP3 SLOAD PUSH2 0x1AAA JUMP JUMPDEST PUSH2 0x1FC4 DUP3 DUP3 DUP6 PUSH2 0x1BFA JUMP JUMPDEST PUSH1 0x0 PUSH1 0x20 SWAP1 POP PUSH1 0x1F DUP4 GT PUSH1 0x1 DUP2 EQ PUSH2 0x1FF7 JUMPI PUSH1 0x0 DUP5 ISZERO PUSH2 0x1FE5 JUMPI DUP3 DUP8 ADD MLOAD SWAP1 POP JUMPDEST PUSH2 0x1FEF DUP6 DUP3 PUSH2 0x1C6B JUMP JUMPDEST DUP7 SSTORE POP PUSH2 0x2057 JUMP JUMPDEST PUSH1 0x1F NOT DUP5 AND PUSH2 0x2005 DUP7 PUSH2 0x1ADB JUMP JUMPDEST PUSH1 0x0 JUMPDEST DUP3 DUP2 LT ISZERO PUSH2 0x202D JUMPI DUP5 DUP10 ADD MLOAD DUP3 SSTORE PUSH1 0x1 DUP3 ADD SWAP2 POP PUSH1 0x20 DUP6 ADD SWAP5 POP PUSH1 0x20 DUP2 ADD SWAP1 POP PUSH2 0x2008 JUMP JUMPDEST DUP7 DUP4 LT ISZERO PUSH2 0x204A JUMPI DUP5 DUP10 ADD MLOAD PUSH2 0x2046 PUSH1 0x1F DUP10 AND DUP3 PUSH2 0x1C4D JUMP JUMPDEST DUP4 SSTORE POP JUMPDEST PUSH1 0x1 PUSH1 0x2 DUP9 MUL ADD DUP9 SSTORE POP POP POP JUMPDEST POP POP POP POP POP POP JUMP JUMPDEST PUSH1 0x0 PUSH2 0x206A DUP3 PUSH2 0x12C5 JUMP JUMPDEST SWAP2 POP PUSH2 0x2075 DUP4 PUSH2 0x12C5 JUMP JUMPDEST SWAP3 POP DUP3 DUP3 SUB SWAP1 POP DUP2 DUP2 GT ISZERO PUSH2 0x208D JUMPI PUSH2 0x208C PUSH2 0x19A9 JUMP JUMPDEST JUMPDEST SWAP3 SWAP2 POP POP JUMP JUMPDEST PUSH1 0x0 PUSH2 0x20AE PUSH2 0x20A9 PUSH2 0x20A4 DUP5 PUSH2 0x165C JUMP JUMPDEST PUSH2 0x1B5F JUMP JUMPDEST PUSH2 0x12C5 JUMP JUMPDEST SWAP1 POP SWAP2 SWAP1 POP JUMP JUMPDEST PUSH2 0x20BE DUP2 PUSH2 0x2093 JUMP JUMPDEST DUP3 MSTORE POP POP JUMP JUMPDEST PUSH1 0x0 PUSH1 0x60 DUP3 ADD SWAP1 POP PUSH2 0x20D9 PUSH1 0x0 DUP4 ADD DUP7 PUSH2 0x12CF JUMP JUMPDEST DUP2 DUP2 SUB PUSH1 0x20 DUP4 ADD MSTORE PUSH2 0x20EB DUP2 DUP6 PUSH2 0x1623 JUMP JUMPDEST SWAP1 POP PUSH2 0x20FA PUSH1 0x40 DUP4 ADD DUP5 PUSH2 0x20B5 JUMP JUMPDEST SWAP5 SWAP4 POP POP POP POP JUMP JUMPDEST PUSH1 0x0 PUSH2 0x210D DUP3 PUSH2 0x12C5 JUMP JUMPDEST SWAP2 POP PUSH2 0x2118 DUP4 PUSH2 0x12C5 JUMP JUMPDEST SWAP3 POP DUP3 DUP3 ADD SWAP1 POP DUP1 DUP3 GT ISZERO PUSH2 0x2130 JUMPI PUSH2 0x212F PUSH2 0x19A9 JUMP JUMPDEST JUMPDEST SWAP3 SWAP2 POP POP JUMP JUMPDEST PUSH32 0x4E487B7100000000000000000000000000000000000000000000000000000000 PUSH1 0x0 MSTORE PUSH1 0x1 PUSH1 0x4 MSTORE PUSH1 0x24 PUSH1 0x0 REVERT JUMPDEST PUSH1 0x0 PUSH2 0x2170 DUP3 PUSH2 0x1679 JUMP JUMPDEST SWAP2 POP PUSH2 0x217B DUP4 PUSH2 0x1679 JUMP JUMPDEST SWAP3 POP DUP3 DUP3 SUB SWAP1 POP PUSH4 0xFFFFFFFF DUP2 GT ISZERO PUSH2 0x2197 JUMPI PUSH2 0x2196 PUSH2 0x19A9 JUMP JUMPDEST JUMPDEST SWAP3 SWAP2 POP POP JUMP INVALID LOG2 PUSH5 0x6970667358 0x22 SLT KECCAK256 0x4C ADDRESS DUP5 SUB PUSH13 0x68460DCAA7919D5DD65639A8D5 0xD3 0xD0 ISZERO PUSH11 0x25097D2BBC54C6E5C93864 PUSH20 0x6F6C634300081100330000000000000000000000 "
		},
		"gasEstimates": {
			"creation": {
				"codeDepositCost": "1731800",
				"executionCost": "infinite",
				"totalCost": "infinite"
			},
			"external": {
				"buyZombic(string)": "infinite",
				"changeName(string,uint256)": "infinite",
				"checkDeployTest()": "2567",
				"cooldownTime()": "2451",
				"createZombic(string)": "infinite",
				"feed(uint256)": "infinite",
				"getZombicsByOwner(address)": "infinite",
				"leveUp(uint256)": "31427",
				"leveUpFee()": "2496",
				"owner()": "2556",
				"setUpLevelFee(uint256)": "24710",
				"setZombicPrice(uint256)": "24731",
				"transferOwnership(address)": "30668",
				"zombicCount()": "2453",
				"zombicPrice()": "2474",
				"zombicToOwber(uint256)": "2862",
				"zombics(uint256)": "infinite"
			}
		},
		"methodIdentifiers": {
			"buyZombic(string)": "f94f0593",
			"changeName(string,uint256)": "270dc9fd",
			"checkDeployTest()": "206c8db4",
			"cooldownTime()": "b319c6b7",
			"createZombic(string)": "a38d7e5b",
			"feed(uint256)": "f59dfdfb",
			"getZombicsByOwner(address)": "43d5d022",
			"leveUp(uint256)": "227c59e6",
			"leveUpFee()": "90ab0522",
			"owner()": "8da5cb5b",
			"setUpLevelFee(uint256)": "3a42c900",
			"setZombicPrice(uint256)": "e7eb1214",
			"transferOwnership(address)": "f2fde38b",
			"zombicCount()": "02f4db2f",
			"zombicPrice()": "3ece8f6f",
			"zombicToOwber(uint256)": "6de2e36c",
			"zombics(uint256)": "5e0b8654"
		}
	},
	"abi": [
		{
			"anonymous": false,
			"inputs": [
				{
					"indexed": false,
					"internalType": "uint256",
					"name": "zombicId",
					"type": "uint256"
				},
				{
					"indexed": false,
					"internalType": "string",
					"name": "name",
					"type": "string"
				},
				{
					"indexed": false,
					"internalType": "uint256",
					"name": "dna",
					"type": "uint256"
				}
			],
			"name": "NewZombic",
			"type": "event"
		},
		{
			"anonymous": false,
			"inputs": [
				{
					"indexed": true,
					"internalType": "address",
					"name": "previousOwner",
					"type": "address"
				},
				{
					"indexed": true,
					"internalType": "address",
					"name": "newOwner",
					"type": "address"
				}
			],
			"name": "OwnershipTransferred",
			"type": "event"
		},
		{
			"inputs": [
				{
					"internalType": "string",
					"name": "_name",
					"type": "string"
				}
			],
			"name": "buyZombic",
			"outputs": [],
			"stateMutability": "payable",
			"type": "function"
		},
		{
			"inputs": [
				{
					"internalType": "string",
					"name": "_name",
					"type": "string"
				},
				{
					"internalType": "uint256",
					"name": "_zombicId",
					"type": "uint256"
				}
			],
			"name": "changeName",
			"outputs": [],
			"stateMutability": "nonpayable",
			"type": "function"
		},
		{
			"inputs": [],
			"name": "checkDeployTest",
			"outputs": [
				{
					"internalType": "bool",
					"name": "",
					"type": "bool"
				}
			],
			"stateMutability": "view",
			"type": "function"
		},
		{
			"inputs": [],
			"name": "cooldownTime",
			"outputs": [
				{
					"internalType": "uint256",
					"name": "",
					"type": "uint256"
				}
			],
			"stateMutability": "view",
			"type": "function"
		},
		{
			"inputs": [
				{
					"internalType": "string",
					"name": "_name",
					"type": "string"
				}
			],
			"name": "createZombic",
			"outputs": [],
			"stateMutability": "nonpayable",
			"type": "function"
		},
		{
			"inputs": [
				{
					"internalType": "uint256",
					"name": "_zombicId",
					"type": "uint256"
				}
			],
			"name": "feed",
			"outputs": [],
			"stateMutability": "nonpayable",
			"type": "function"
		},
		{
			"inputs": [
				{
					"internalType": "address",
					"name": "_owner",
					"type": "address"
				}
			],
			"name": "getZombicsByOwner",
			"outputs": [
				{
					"internalType": "uint256[]",
					"name": "",
					"type": "uint256[]"
				}
			],
			"stateMutability": "view",
			"type": "function"
		},
		{
			"inputs": [
				{
					"internalType": "uint256",
					"name": "_zombicId",
					"type": "uint256"
				}
			],
			"name": "leveUp",
			"outputs": [],
			"stateMutability": "payable",
			"type": "function"
		},
		{
			"inputs": [],
			"name": "leveUpFee",
			"outputs": [
				{
					"internalType": "uint256",
					"name": "",
					"type": "uint256"
				}
			],
			"stateMutability": "view",
			"type": "function"
		},
		{
			"inputs": [],
			"name": "owner",
			"outputs": [
				{
					"internalType": "address",
					"name": "",
					"type": "address"
				}
			],
			"stateMutability": "view",
			"type": "function"
		},
		{
			"inputs": [
				{
					"internalType": "uint256",
					"name": "_fee",
					"type": "uint256"
				}
			],
			"name": "setUpLevelFee",
			"outputs": [],
			"stateMutability": "nonpayable",
			"type": "function"
		},
		{
			"inputs": [
				{
					"internalType": "uint256",
					"name": "_price",
					"type": "uint256"
				}
			],
			"name": "setZombicPrice",
			"outputs": [],
			"stateMutability": "nonpayable",
			"type": "function"
		},
		{
			"inputs": [
				{
					"internalType": "address payable",
					"name": "newOwner",
					"type": "address"
				}
			],
			"name": "transferOwnership",
			"outputs": [],
			"stateMutability": "nonpayable",
			"type": "function"
		},
		{
			"inputs": [],
			"name": "zombicCount",
			"outputs": [
				{
					"internalType": "uint256",
					"name": "",
					"type": "uint256"
				}
			],
			"stateMutability": "view",
			"type": "function"
		},
		{
			"inputs": [],
			"name": "zombicPrice",
			"outputs": [
				{
					"internalType": "uint256",
					"name": "",
					"type": "uint256"
				}
			],
			"stateMutability": "view",
			"type": "function"
		},
		{
			"inputs": [
				{
					"internalType": "uint256",
					"name": "",
					"type": "uint256"
				}
			],
			"name": "zombicToOwber",
			"outputs": [
				{
					"internalType": "address",
					"name": "",
					"type": "address"
				}
			],
			"stateMutability": "view",
			"type": "function"
		},
		{
			"inputs": [
				{
					"internalType": "uint256",
					"name": "",
					"type": "uint256"
				}
			],
			"name": "zombics",
			"outputs": [
				{
					"internalType": "string",
					"name": "name",
					"type": "string"
				},
				{
					"internalType": "uint16",
					"name": "dna",
					"type": "uint16"
				},
				{
					"internalType": "uint16",
					"name": "winCount",
					"type": "uint16"
				},
				{
					"internalType": "uint16",
					"name": "loseCount",
					"type": "uint16"
				},
				{
					"internalType": "uint32",
					"name": "level",
					"type": "uint32"
				},
				{
					"internalType": "uint32",
					"name": "cooldownTime",
					"type": "uint32"
				}
			],
			"stateMutability": "view",
			"type": "function"
		}
	]
}