{
	"data": {
		"bytecode": {
			"linkReferences": {},
			"object": "608060405260008060146101000a81548160ff0219169083151502179055506010600155600154600a62000034919062000244565b60025562015180600355662386f26fc10000600455600060055566038d7ea4c68000600a556000600b556046600c553480156200007057600080fd5b50336000806101000a81548173ffffffffffffffffffffffffffffffffffffffff021916908373ffffffffffffffffffffffffffffffffffffffff16021790555062000295565b7f4e487b7100000000000000000000000000000000000000000000000000000000600052601160045260246000fd5b60008160011c9050919050565b6000808291508390505b600185111562000145578086048111156200011d576200011c620000b7565b5b60018516156200012d5780820291505b80810290506200013d85620000e6565b9450620000fd565b94509492505050565b60008262000160576001905062000233565b8162000170576000905062000233565b81600181146200018957600281146200019457620001ca565b600191505062000233565b60ff841115620001a957620001a8620000b7565b5b8360020a915084821115620001c357620001c2620000b7565b5b5062000233565b5060208310610133831016604e8410600b8410161715620002045782820a905083811115620001fe57620001fd620000b7565b5b62000233565b620002138484846001620000f3565b925090508184048111156200022d576200022c620000b7565b5b81810290505b9392505050565b6000819050919050565b600062000251826200023a565b91506200025e836200023a565b92506200028d7fffffffffffffffffffffffffffffffffffffffffffffffffffffffffffffffff84846200014e565b905092915050565b61260780620002a56000396000f3fe6080604052600436106100fe5760003560e01c80636de2e36c11610095578063b319c6b711610064578063b319c6b71461032d578063e1fa763814610358578063e7eb121414610381578063f2fde38b146103aa578063f94f0593146103d3576100fe565b80636de2e36c146102715780638da5cb5b146102ae57806390ab0522146102d9578063a38d7e5b14610304576100fe565b80633a42c900116100d15780633a42c9001461019e5780633ece8f6f146101c757806343d5d022146101f25780635e0b86541461022f576100fe565b806302f4db2f14610103578063206c8db41461012e578063227c59e614610159578063270dc9fd14610175575b600080fd5b34801561010f57600080fd5b506101186103ef565b60405161012591906115f2565b60405180910390f35b34801561013a57600080fd5b506101436103f5565b6040516101509190611628565b60405180910390f35b610173600480360381019061016e9190611683565b610408565b005b34801561018157600080fd5b5061019c60048036038101906101979190611715565b6104b4565b005b3480156101aa57600080fd5b506101c560048036038101906101c09190611683565b610614565b005b3480156101d357600080fd5b506101dc6106ac565b6040516101e991906115f2565b60405180910390f35b3480156101fe57600080fd5b50610219600480360381019061021491906117d3565b6106b2565b60405161022691906118be565b60405180910390f35b34801561023b57600080fd5b5061025660048036038101906102519190611683565b610804565b604051610268969594939291906119ac565b60405180910390f35b34801561027d57600080fd5b5061029860048036038101906102939190611683565b610922565b6040516102a59190611a23565b60405180910390f35b3480156102ba57600080fd5b506102c3610955565b6040516102d09190611a23565b60405180910390f35b3480156102e557600080fd5b506102ee610979565b6040516102fb91906115f2565b60405180910390f35b34801561031057600080fd5b5061032b60048036038101906103269190611b6e565b61097f565b005b34801561033957600080fd5b50610342610a36565b60405161034f91906115f2565b60405180910390f35b34801561036457600080fd5b5061037f600480360381019061037a9190611bb7565b610a3c565b005b34801561038d57600080fd5b506103a860048036038101906103a39190611683565b610caf565b005b3480156103b657600080fd5b506103d160048036038101906103cc9190611c35565b610d47565b005b6103ed60048036038101906103e89190611b6e565b610f01565b005b60055481565b600060149054906101000a900460ff1681565b600a5434101561044d576040517f08c379a000000000000000000000000000000000000000000000000000000000815260040161044490611cae565b60405180910390fd5b6006818154811061046157610460611cce565b5b9060005260206000209060020201600101600681819054906101000a900463ffffffff168092919061049290611d2c565b91906101000a81548163ffffffff021916908363ffffffff1602179055505050565b60028181600682815481106104cc576104cb611cce565b5b906000526020600020906002020160010160069054906101000a900463ffffffff1663ffffffff161015610535576040517f08c379a000000000000000000000000000000000000000000000000000000000815260040161052c90611da4565b60405180910390fd5b826007600082815260200190815260200160002060009054906101000a900473ffffffffffffffffffffffffffffffffffffffff1673ffffffffffffffffffffffffffffffffffffffff163373ffffffffffffffffffffffffffffffffffffffff16146105d7576040517f08c379a00000000000000000000000000000000000000000000000000000000081526004016105ce90611da4565b60405180910390fd5b8585600686815481106105ed576105ec611cce565b5b9060005260206000209060020201600001918261060b929190611fdb565b50505050505050565b60008054906101000a900473ffffffffffffffffffffffffffffffffffffffff1673ffffffffffffffffffffffffffffffffffffffff163373ffffffffffffffffffffffffffffffffffffffff16146106a2576040517f08c379a0000000000000000000000000000000000000000000000000000000008152600401610699906120f7565b60405180910390fd5b80600a8190555050565b60045481565b60606000600860008473ffffffffffffffffffffffffffffffffffffffff1673ffffffffffffffffffffffffffffffffffffffff1681526020019081526020016000205467ffffffffffffffff81111561070f5761070e611a43565b5b60405190808252806020026020018201604052801561073d5781602001602082028036833780820191505090505b5090506000805b6006805490508110156107f9578473ffffffffffffffffffffffffffffffffffffffff166007600083815260200190815260200160002060009054906101000a900473ffffffffffffffffffffffffffffffffffffffff1673ffffffffffffffffffffffffffffffffffffffff16036107e657808383815181106107cb576107ca611cce565b5b60200260200101818152505081806107e290612117565b9250505b80806107f190612117565b915050610744565b508192505050919050565b6006818154811061081457600080fd5b906000526020600020906002020160009150905080600001805461083790611dfe565b80601f016020809104026020016040519081016040528092919081815260200182805461086390611dfe565b80156108b05780601f10610885576101008083540402835291602001916108b0565b820191906000526020600020905b81548152906001019060200180831161089357829003601f168201915b5050505050908060010160009054906101000a900461ffff16908060010160029054906101000a900461ffff16908060010160049054906101000a900461ffff16908060010160069054906101000a900463ffffffff169080600101600a9054906101000a900463ffffffff16905086565b60076020528060005260406000206000915054906101000a900473ffffffffffffffffffffffffffffffffffffffff1681565b60008054906101000a900473ffffffffffffffffffffffffffffffffffffffff1681565b600a5481565b6000600860003373ffffffffffffffffffffffffffffffffffffffff1673ffffffffffffffffffffffffffffffffffffffff1681526020019081526020016000205414610a01576040517f08c379a00000000000000000000000000000000000000000000000000000000081526004016109f890611da4565b60405180910390fd5b6000610a0c82611008565b9050600a81610a1b919061218e565b81610a2691906121bf565b9050610a32828261104a565b5050565b60035481565b816007600082815260200190815260200160002060009054906101000a900473ffffffffffffffffffffffffffffffffffffffff1673ffffffffffffffffffffffffffffffffffffffff163373ffffffffffffffffffffffffffffffffffffffff1614610ade576040517f08c379a0000000000000000000000000000000000000000000000000000000008152600401610ad590611da4565b60405180910390fd5b600060068481548110610af457610af3611cce565b5b90600052602060002090600202019050600060068481548110610b1a57610b19611cce565b5b906000526020600020906002020190506000610b3660646112e7565b9050600c548111610c235782600101600681819054906101000a900463ffffffff1680929190610b6590611d2c565b91906101000a81548163ffffffff021916908363ffffffff1602179055505082600101600281819054906101000a900461ffff1680929190610ba6906121f5565b91906101000a81548161ffff021916908361ffff1602179055505081600101600481819054906101000a900461ffff1680929190610be3906121f5565b91906101000a81548161ffff021916908361ffff16021790555050610c1e868360010160009054906101000a900461ffff1661ffff16611343565b610ca7565b82600101600481819054906101000a900461ffff1680929190610c45906121f5565b91906101000a81548161ffff021916908361ffff1602179055505081600101600281819054906101000a900461ffff1680929190610c82906121f5565b91906101000a81548161ffff021916908361ffff16021790555050610ca68361152d565b5b505050505050565b60008054906101000a900473ffffffffffffffffffffffffffffffffffffffff1673ffffffffffffffffffffffffffffffffffffffff163373ffffffffffffffffffffffffffffffffffffffff1614610d3d576040517f08c379a0000000000000000000000000000000000000000000000000000000008152600401610d34906120f7565b60405180910390fd5b8060048190555050565b60008054906101000a900473ffffffffffffffffffffffffffffffffffffffff1673ffffffffffffffffffffffffffffffffffffffff163373ffffffffffffffffffffffffffffffffffffffff1614610dd5576040517f08c379a0000000000000000000000000000000000000000000000000000000008152600401610dcc906120f7565b60405180910390fd5b600073ffffffffffffffffffffffffffffffffffffffff168173ffffffffffffffffffffffffffffffffffffffff1603610e44576040517f08c379a0000000000000000000000000000000000000000000000000000000008152600401610e3b906120f7565b60405180910390fd5b8073ffffffffffffffffffffffffffffffffffffffff1660008054906101000a900473ffffffffffffffffffffffffffffffffffffffff1673ffffffffffffffffffffffffffffffffffffffff167f8be0079c531659141344cd1fd0a4f28419497f9722a3daafe3b4186f6b6457e060405160405180910390a3806000806101000a81548173ffffffffffffffffffffffffffffffffffffffff021916908373ffffffffffffffffffffffffffffffffffffffff16021790555050565b6000600860003373ffffffffffffffffffffffffffffffffffffffff1673ffffffffffffffffffffffffffffffffffffffff1681526020019081526020016000205411610f83576040517f08c379a0000000000000000000000000000000000000000000000000000000008152600401610f7a90611da4565b60405180910390fd5b6004543411610fc7576040517f08c379a0000000000000000000000000000000000000000000000000000000008152600401610fbe90611da4565b60405180910390fd5b6000610fd282611008565b90506001600a82610fe3919061218e565b82610fee91906121bf565b610ff8919061221f565b9050611004828261104a565b5050565b600060025482426040516020016110209291906122b2565b6040516020818303038152906040528051906020012060001c61104391906122da565b9050919050565b60066040518060c001604052808481526020018361ffff168152602001600061ffff168152602001600061ffff168152602001600163ffffffff168152602001600063ffffffff16815250908060018154018082558091505060019003906000526020600020906002020160009091909190915060008201518160000190816110d3919061230b565b5060208201518160010160006101000a81548161ffff021916908361ffff16021790555060408201518160010160026101000a81548161ffff021916908361ffff16021790555060608201518160010160046101000a81548161ffff021916908361ffff16021790555060808201518160010160066101000a81548163ffffffff021916908363ffffffff16021790555060a082015181600101600a6101000a81548163ffffffff021916908363ffffffff1602179055505050600060016006805490506111a191906123dd565b9050336007600083815260200190815260200160002060006101000a81548173ffffffffffffffffffffffffffffffffffffffff021916908373ffffffffffffffffffffffffffffffffffffffff1602179055506112486001600860003373ffffffffffffffffffffffffffffffffffffffff1673ffffffffffffffffffffffffffffffffffffffff1681526020019081526020016000205461158690919063ffffffff16565b600860003373ffffffffffffffffffffffffffffffffffffffff1673ffffffffffffffffffffffffffffffffffffffff168152602001908152602001600020819055506112a1600160055461158690919063ffffffff16565b6005819055507fffb2fb18e6d3ec7ef368d2f329ef22f9431aaebe0fcbc9282d7770949ac8cd318184846040516112da93929190612442565b60405180910390a1505050565b6000600b60008154809291906112fc90612117565b9190505550814233600b54604051602001611319939291906124c8565b6040516020818303038152906040528051906020012060001c61133c91906122da565b9050919050565b816007600082815260200190815260200160002060009054906101000a900473ffffffffffffffffffffffffffffffffffffffff1673ffffffffffffffffffffffffffffffffffffffff163373ffffffffffffffffffffffffffffffffffffffff16146113e5576040517f08c379a00000000000000000000000000000000000000000000000000000000081526004016113dc90611da4565b60405180910390fd5b600683815481106113f9576113f8611cce565b5b9060005260206000209060020201611410816115b2565b61144f576040517f08c379a000000000000000000000000000000000000000000000000000000000815260040161144690611da4565b60405180910390fd5b60006006858154811061146557611464611cce565b5b906000526020600020906002020190506002548461148391906122da565b935060006002858360010160009054906101000a900461ffff1661ffff166114ab9190612505565b6114b59190612539565b90506009600a826114c691906122da565b826114d191906123dd565b6114db9190612505565b905061151c6040518060400160405280600681526020017f4e6f4e616d6500000000000000000000000000000000000000000000000000008152508261104a565b6115258261152d565b505050505050565b620151806003544261153f9190612505565b61154991906122da565b600354426115579190612505565b611561919061256a565b81600101600a6101000a81548163ffffffff021916908363ffffffff16021790555050565b60008082846115959190612505565b9050838110156115a8576115a76125a2565b5b8091505092915050565b60004282600101600a9054906101000a900463ffffffff1663ffffffff1611159050919050565b6000819050919050565b6115ec816115d9565b82525050565b600060208201905061160760008301846115e3565b92915050565b60008115159050919050565b6116228161160d565b82525050565b600060208201905061163d6000830184611619565b92915050565b6000604051905090565b600080fd5b600080fd5b611660816115d9565b811461166b57600080fd5b50565b60008135905061167d81611657565b92915050565b6000602082840312156116995761169861164d565b5b60006116a78482850161166e565b91505092915050565b600080fd5b600080fd5b600080fd5b60008083601f8401126116d5576116d46116b0565b5b8235905067ffffffffffffffff8111156116f2576116f16116b5565b5b60208301915083600182028301111561170e5761170d6116ba565b5b9250929050565b60008060006040848603121561172e5761172d61164d565b5b600084013567ffffffffffffffff81111561174c5761174b611652565b5b611758868287016116bf565b9350935050602061176b8682870161166e565b9150509250925092565b600073ffffffffffffffffffffffffffffffffffffffff82169050919050565b60006117a082611775565b9050919050565b6117b081611795565b81146117bb57600080fd5b50565b6000813590506117cd816117a7565b92915050565b6000602082840312156117e9576117e861164d565b5b60006117f7848285016117be565b91505092915050565b600081519050919050565b600082825260208201905092915050565b6000819050602082019050919050565b611835816115d9565b82525050565b6000611847838361182c565b60208301905092915050565b6000602082019050919050565b600061186b82611800565b611875818561180b565b93506118808361181c565b8060005b838110156118b1578151611898888261183b565b97506118a383611853565b925050600181019050611884565b5085935050505092915050565b600060208201905081810360008301526118d88184611860565b905092915050565b600081519050919050565b600082825260208201905092915050565b60005b8381101561191a5780820151818401526020810190506118ff565b60008484015250505050565b6000601f19601f8301169050919050565b6000611942826118e0565b61194c81856118eb565b935061195c8185602086016118fc565b61196581611926565b840191505092915050565b600061ffff82169050919050565b61198781611970565b82525050565b600063ffffffff82169050919050565b6119a68161198d565b82525050565b600060c08201905081810360008301526119c68189611937565b90506119d5602083018861197e565b6119e2604083018761197e565b6119ef606083018661197e565b6119fc608083018561199d565b611a0960a083018461199d565b979650505050505050565b611a1d81611795565b82525050565b6000602082019050611a386000830184611a14565b92915050565b600080fd5b7f4e487b7100000000000000000000000000000000000000000000000000000000600052604160045260246000fd5b611a7b82611926565b810181811067ffffffffffffffff82111715611a9a57611a99611a43565b5b80604052505050565b6000611aad611643565b9050611ab98282611a72565b919050565b600067ffffffffffffffff821115611ad957611ad8611a43565b5b611ae282611926565b9050602081019050919050565b82818337600083830152505050565b6000611b11611b0c84611abe565b611aa3565b905082815260208101848484011115611b2d57611b2c611a3e565b5b611b38848285611aef565b509392505050565b600082601f830112611b5557611b546116b0565b5b8135611b65848260208601611afe565b91505092915050565b600060208284031215611b8457611b8361164d565b5b600082013567ffffffffffffffff811115611ba257611ba1611652565b5b611bae84828501611b40565b91505092915050565b60008060408385031215611bce57611bcd61164d565b5b6000611bdc8582860161166e565b9250506020611bed8582860161166e565b9150509250929050565b6000611c0282611775565b9050919050565b611c1281611bf7565b8114611c1d57600080fd5b50565b600081359050611c2f81611c09565b92915050565b600060208284031215611c4b57611c4a61164d565b5b6000611c5984828501611c20565b91505092915050565b7f7364660000000000000000000000000000000000000000000000000000000000600082015250565b6000611c986003836118eb565b9150611ca382611c62565b602082019050919050565b60006020820190508181036000830152611cc781611c8b565b9050919050565b7f4e487b7100000000000000000000000000000000000000000000000000000000600052603260045260246000fd5b7f4e487b7100000000000000000000000000000000000000000000000000000000600052601160045260246000fd5b6000611d378261198d565b915063ffffffff8203611d4d57611d4c611cfd565b5b600182019050919050565b7f6572726f72000000000000000000000000000000000000000000000000000000600082015250565b6000611d8e6005836118eb565b9150611d9982611d58565b602082019050919050565b60006020820190508181036000830152611dbd81611d81565b9050919050565b600082905092915050565b7f4e487b7100000000000000000000000000000000000000000000000000000000600052602260045260246000fd5b60006002820490506001821680611e1657607f821691505b602082108103611e2957611e28611dcf565b5b50919050565b60008190508160005260206000209050919050565b60006020601f8301049050919050565b600082821b905092915050565b600060088302611e917fffffffffffffffffffffffffffffffffffffffffffffffffffffffffffffffff82611e54565b611e9b8683611e54565b95508019841693508086168417925050509392505050565b6000819050919050565b6000611ed8611ed3611ece846115d9565b611eb3565b6115d9565b9050919050565b6000819050919050565b611ef283611ebd565b611f06611efe82611edf565b848454611e61565b825550505050565b600090565b611f1b611f0e565b611f26818484611ee9565b505050565b5b81811015611f4a57611f3f600082611f13565b600181019050611f2c565b5050565b601f821115611f8f57611f6081611e2f565b611f6984611e44565b81016020851015611f78578190505b611f8c611f8485611e44565b830182611f2b565b50505b505050565b600082821c905092915050565b6000611fb260001984600802611f94565b1980831691505092915050565b6000611fcb8383611fa1565b9150826002028217905092915050565b611fe58383611dc4565b67ffffffffffffffff811115611ffe57611ffd611a43565b5b6120088254611dfe565b612013828285611f4e565b6000601f8311600181146120425760008415612030578287013590505b61203a8582611fbf565b8655506120a2565b601f19841661205086611e2f565b60005b8281101561207857848901358255600182019150602085019450602081019050612053565b868310156120955784890135612091601f891682611fa1565b8355505b6001600288020188555050505b50505050505050565b7f4d75737420636f6e7472616374206f776e657200000000000000000000000000600082015250565b60006120e16013836118eb565b91506120ec826120ab565b602082019050919050565b60006020820190508181036000830152612110816120d4565b9050919050565b6000612122826115d9565b91507fffffffffffffffffffffffffffffffffffffffffffffffffffffffffffffffff820361215457612153611cfd565b5b600182019050919050565b7f4e487b7100000000000000000000000000000000000000000000000000000000600052601260045260246000fd5b600061219982611970565b91506121a483611970565b9250826121b4576121b361215f565b5b828206905092915050565b60006121ca82611970565b91506121d583611970565b9250828203905061ffff8111156121ef576121ee611cfd565b5b92915050565b600061220082611970565b915061ffff820361221457612213611cfd565b5b600182019050919050565b600061222a82611970565b915061223583611970565b9250828201905061ffff81111561224f5761224e611cfd565b5b92915050565b600081905092915050565b600061226b826118e0565b6122758185612255565b93506122858185602086016118fc565b80840191505092915050565b6000819050919050565b6122ac6122a7826115d9565b612291565b82525050565b60006122be8285612260565b91506122ca828461229b565b6020820191508190509392505050565b60006122e5826115d9565b91506122f0836115d9565b925082612300576122ff61215f565b5b828206905092915050565b612314826118e0565b67ffffffffffffffff81111561232d5761232c611a43565b5b6123378254611dfe565b612342828285611f4e565b600060209050601f8311600181146123755760008415612363578287015190505b61236d8582611fbf565b8655506123d5565b601f19841661238386611e2f565b60005b828110156123ab57848901518255600182019150602085019450602081019050612386565b868310156123c857848901516123c4601f891682611fa1565b8355505b6001600288020188555050505b505050505050565b60006123e8826115d9565b91506123f3836115d9565b925082820390508181111561240b5761240a611cfd565b5b92915050565b600061242c61242761242284611970565b611eb3565b6115d9565b9050919050565b61243c81612411565b82525050565b600060608201905061245760008301866115e3565b81810360208301526124698185611937565b90506124786040830184612433565b949350505050565b60008160601b9050919050565b600061249882612480565b9050919050565b60006124aa8261248d565b9050919050565b6124c26124bd82611795565b61249f565b82525050565b60006124d4828661229b565b6020820191506124e482856124b1565b6014820191506124f4828461229b565b602082019150819050949350505050565b6000612510826115d9565b915061251b836115d9565b925082820190508082111561253357612532611cfd565b5b92915050565b6000612544826115d9565b915061254f836115d9565b92508261255f5761255e61215f565b5b828204905092915050565b60006125758261198d565b91506125808361198d565b9250828203905063ffffffff81111561259c5761259b611cfd565b5b92915050565b7f4e487b7100000000000000000000000000000000000000000000000000000000600052600160045260246000fdfea2646970667358221220121af98a21468c69f3bb19a8f0855e2a7341c3a516eb193e875892288d342d4864736f6c63430008120033",
			"opcodes": "PUSH1 0x80 PUSH1 0x40 MSTORE PUSH1 0x0 DUP1 PUSH1 0x14 PUSH2 0x100 EXP DUP2 SLOAD DUP2 PUSH1 0xFF MUL NOT AND SWAP1 DUP4 ISZERO ISZERO MUL OR SWAP1 SSTORE POP PUSH1 0x10 PUSH1 0x1 SSTORE PUSH1 0x1 SLOAD PUSH1 0xA PUSH3 0x34 SWAP2 SWAP1 PUSH3 0x244 JUMP JUMPDEST PUSH1 0x2 SSTORE PUSH3 0x15180 PUSH1 0x3 SSTORE PUSH7 0x2386F26FC10000 PUSH1 0x4 SSTORE PUSH1 0x0 PUSH1 0x5 SSTORE PUSH7 0x38D7EA4C68000 PUSH1 0xA SSTORE PUSH1 0x0 PUSH1 0xB SSTORE PUSH1 0x46 PUSH1 0xC SSTORE CALLVALUE DUP1 ISZERO PUSH3 0x70 JUMPI PUSH1 0x0 DUP1 REVERT JUMPDEST POP CALLER PUSH1 0x0 DUP1 PUSH2 0x100 EXP DUP2 SLOAD DUP2 PUSH20 0xFFFFFFFFFFFFFFFFFFFFFFFFFFFFFFFFFFFFFFFF MUL NOT AND SWAP1 DUP4 PUSH20 0xFFFFFFFFFFFFFFFFFFFFFFFFFFFFFFFFFFFFFFFF AND MUL OR SWAP1 SSTORE POP PUSH3 0x295 JUMP JUMPDEST PUSH32 0x4E487B7100000000000000000000000000000000000000000000000000000000 PUSH1 0x0 MSTORE PUSH1 0x11 PUSH1 0x4 MSTORE PUSH1 0x24 PUSH1 0x0 REVERT JUMPDEST PUSH1 0x0 DUP2 PUSH1 0x1 SHR SWAP1 POP SWAP2 SWAP1 POP JUMP JUMPDEST PUSH1 0x0 DUP1 DUP3 SWAP2 POP DUP4 SWAP1 POP JUMPDEST PUSH1 0x1 DUP6 GT ISZERO PUSH3 0x145 JUMPI DUP1 DUP7 DIV DUP2 GT ISZERO PUSH3 0x11D JUMPI PUSH3 0x11C PUSH3 0xB7 JUMP JUMPDEST JUMPDEST PUSH1 0x1 DUP6 AND ISZERO PUSH3 0x12D JUMPI DUP1 DUP3 MUL SWAP2 POP JUMPDEST DUP1 DUP2 MUL SWAP1 POP PUSH3 0x13D DUP6 PUSH3 0xE6 JUMP JUMPDEST SWAP5 POP PUSH3 0xFD JUMP JUMPDEST SWAP5 POP SWAP5 SWAP3 POP POP POP JUMP JUMPDEST PUSH1 0x0 DUP3 PUSH3 0x160 JUMPI PUSH1 0x1 SWAP1 POP PUSH3 0x233 JUMP JUMPDEST DUP2 PUSH3 0x170 JUMPI PUSH1 0x0 SWAP1 POP PUSH3 0x233 JUMP JUMPDEST DUP2 PUSH1 0x1 DUP2 EQ PUSH3 0x189 JUMPI PUSH1 0x2 DUP2 EQ PUSH3 0x194 JUMPI PUSH3 0x1CA JUMP JUMPDEST PUSH1 0x1 SWAP2 POP POP PUSH3 0x233 JUMP JUMPDEST PUSH1 0xFF DUP5 GT ISZERO PUSH3 0x1A9 JUMPI PUSH3 0x1A8 PUSH3 0xB7 JUMP JUMPDEST JUMPDEST DUP4 PUSH1 0x2 EXP SWAP2 POP DUP5 DUP3 GT ISZERO PUSH3 0x1C3 JUMPI PUSH3 0x1C2 PUSH3 0xB7 JUMP JUMPDEST JUMPDEST POP PUSH3 0x233 JUMP JUMPDEST POP PUSH1 0x20 DUP4 LT PUSH2 0x133 DUP4 LT AND PUSH1 0x4E DUP5 LT PUSH1 0xB DUP5 LT AND OR ISZERO PUSH3 0x204 JUMPI DUP3 DUP3 EXP SWAP1 POP DUP4 DUP2 GT ISZERO PUSH3 0x1FE JUMPI PUSH3 0x1FD PUSH3 0xB7 JUMP JUMPDEST JUMPDEST PUSH3 0x233 JUMP JUMPDEST PUSH3 0x213 DUP5 DUP5 DUP5 PUSH1 0x1 PUSH3 0xF3 JUMP JUMPDEST SWAP3 POP SWAP1 POP DUP2 DUP5 DIV DUP2 GT ISZERO PUSH3 0x22D JUMPI PUSH3 0x22C PUSH3 0xB7 JUMP JUMPDEST JUMPDEST DUP2 DUP2 MUL SWAP1 POP JUMPDEST SWAP4 SWAP3 POP POP POP JUMP JUMPDEST PUSH1 0x0 DUP2 SWAP1 POP SWAP2 SWAP1 POP JUMP JUMPDEST PUSH1 0x0 PUSH3 0x251 DUP3 PUSH3 0x23A JUMP JUMPDEST SWAP2 POP PUSH3 0x25E DUP4 PUSH3 0x23A JUMP JUMPDEST SWAP3 POP PUSH3 0x28D PUSH32 0xFFFFFFFFFFFFFFFFFFFFFFFFFFFFFFFFFFFFFFFFFFFFFFFFFFFFFFFFFFFFFFFF DUP5 DUP5 PUSH3 0x14E JUMP JUMPDEST SWAP1 POP SWAP3 SWAP2 POP POP JUMP JUMPDEST PUSH2 0x2607 DUP1 PUSH3 0x2A5 PUSH1 0x0 CODECOPY PUSH1 0x0 RETURN INVALID PUSH1 0x80 PUSH1 0x40 MSTORE PUSH1 0x4 CALLDATASIZE LT PUSH2 0xFE JUMPI PUSH1 0x0 CALLDATALOAD PUSH1 0xE0 SHR DUP1 PUSH4 0x6DE2E36C GT PUSH2 0x95 JUMPI DUP1 PUSH4 0xB319C6B7 GT PUSH2 0x64 JUMPI DUP1 PUSH4 0xB319C6B7 EQ PUSH2 0x32D JUMPI DUP1 PUSH4 0xE1FA7638 EQ PUSH2 0x358 JUMPI DUP1 PUSH4 0xE7EB1214 EQ PUSH2 0x381 JUMPI DUP1 PUSH4 0xF2FDE38B EQ PUSH2 0x3AA JUMPI DUP1 PUSH4 0xF94F0593 EQ PUSH2 0x3D3 JUMPI PUSH2 0xFE JUMP JUMPDEST DUP1 PUSH4 0x6DE2E36C EQ PUSH2 0x271 JUMPI DUP1 PUSH4 0x8DA5CB5B EQ PUSH2 0x2AE JUMPI DUP1 PUSH4 0x90AB0522 EQ PUSH2 0x2D9 JUMPI DUP1 PUSH4 0xA38D7E5B EQ PUSH2 0x304 JUMPI PUSH2 0xFE JUMP JUMPDEST DUP1 PUSH4 0x3A42C900 GT PUSH2 0xD1 JUMPI DUP1 PUSH4 0x3A42C900 EQ PUSH2 0x19E JUMPI DUP1 PUSH4 0x3ECE8F6F EQ PUSH2 0x1C7 JUMPI DUP1 PUSH4 0x43D5D022 EQ PUSH2 0x1F2 JUMPI DUP1 PUSH4 0x5E0B8654 EQ PUSH2 0x22F JUMPI PUSH2 0xFE JUMP JUMPDEST DUP1 PUSH4 0x2F4DB2F EQ PUSH2 0x103 JUMPI DUP1 PUSH4 0x206C8DB4 EQ PUSH2 0x12E JUMPI DUP1 PUSH4 0x227C59E6 EQ PUSH2 0x159 JUMPI DUP1 PUSH4 0x270DC9FD EQ PUSH2 0x175 JUMPI JUMPDEST PUSH1 0x0 DUP1 REVERT JUMPDEST CALLVALUE DUP1 ISZERO PUSH2 0x10F JUMPI PUSH1 0x0 DUP1 REVERT JUMPDEST POP PUSH2 0x118 PUSH2 0x3EF JUMP JUMPDEST PUSH1 0x40 MLOAD PUSH2 0x125 SWAP2 SWAP1 PUSH2 0x15F2 JUMP JUMPDEST PUSH1 0x40 MLOAD DUP1 SWAP2 SUB SWAP1 RETURN JUMPDEST CALLVALUE DUP1 ISZERO PUSH2 0x13A JUMPI PUSH1 0x0 DUP1 REVERT JUMPDEST POP PUSH2 0x143 PUSH2 0x3F5 JUMP JUMPDEST PUSH1 0x40 MLOAD PUSH2 0x150 SWAP2 SWAP1 PUSH2 0x1628 JUMP JUMPDEST PUSH1 0x40 MLOAD DUP1 SWAP2 SUB SWAP1 RETURN JUMPDEST PUSH2 0x173 PUSH1 0x4 DUP1 CALLDATASIZE SUB DUP2 ADD SWAP1 PUSH2 0x16E SWAP2 SWAP1 PUSH2 0x1683 JUMP JUMPDEST PUSH2 0x408 JUMP JUMPDEST STOP JUMPDEST CALLVALUE DUP1 ISZERO PUSH2 0x181 JUMPI PUSH1 0x0 DUP1 REVERT JUMPDEST POP PUSH2 0x19C PUSH1 0x4 DUP1 CALLDATASIZE SUB DUP2 ADD SWAP1 PUSH2 0x197 SWAP2 SWAP1 PUSH2 0x1715 JUMP JUMPDEST PUSH2 0x4B4 JUMP JUMPDEST STOP JUMPDEST CALLVALUE DUP1 ISZERO PUSH2 0x1AA JUMPI PUSH1 0x0 DUP1 REVERT JUMPDEST POP PUSH2 0x1C5 PUSH1 0x4 DUP1 CALLDATASIZE SUB DUP2 ADD SWAP1 PUSH2 0x1C0 SWAP2 SWAP1 PUSH2 0x1683 JUMP JUMPDEST PUSH2 0x614 JUMP JUMPDEST STOP JUMPDEST CALLVALUE DUP1 ISZERO PUSH2 0x1D3 JUMPI PUSH1 0x0 DUP1 REVERT JUMPDEST POP PUSH2 0x1DC PUSH2 0x6AC JUMP JUMPDEST PUSH1 0x40 MLOAD PUSH2 0x1E9 SWAP2 SWAP1 PUSH2 0x15F2 JUMP JUMPDEST PUSH1 0x40 MLOAD DUP1 SWAP2 SUB SWAP1 RETURN JUMPDEST CALLVALUE DUP1 ISZERO PUSH2 0x1FE JUMPI PUSH1 0x0 DUP1 REVERT JUMPDEST POP PUSH2 0x219 PUSH1 0x4 DUP1 CALLDATASIZE SUB DUP2 ADD SWAP1 PUSH2 0x214 SWAP2 SWAP1 PUSH2 0x17D3 JUMP JUMPDEST PUSH2 0x6B2 JUMP JUMPDEST PUSH1 0x40 MLOAD PUSH2 0x226 SWAP2 SWAP1 PUSH2 0x18BE JUMP JUMPDEST PUSH1 0x40 MLOAD DUP1 SWAP2 SUB SWAP1 RETURN JUMPDEST CALLVALUE DUP1 ISZERO PUSH2 0x23B JUMPI PUSH1 0x0 DUP1 REVERT JUMPDEST POP PUSH2 0x256 PUSH1 0x4 DUP1 CALLDATASIZE SUB DUP2 ADD SWAP1 PUSH2 0x251 SWAP2 SWAP1 PUSH2 0x1683 JUMP JUMPDEST PUSH2 0x804 JUMP JUMPDEST PUSH1 0x40 MLOAD PUSH2 0x268 SWAP7 SWAP6 SWAP5 SWAP4 SWAP3 SWAP2 SWAP1 PUSH2 0x19AC JUMP JUMPDEST PUSH1 0x40 MLOAD DUP1 SWAP2 SUB SWAP1 RETURN JUMPDEST CALLVALUE DUP1 ISZERO PUSH2 0x27D JUMPI PUSH1 0x0 DUP1 REVERT JUMPDEST POP PUSH2 0x298 PUSH1 0x4 DUP1 CALLDATASIZE SUB DUP2 ADD SWAP1 PUSH2 0x293 SWAP2 SWAP1 PUSH2 0x1683 JUMP JUMPDEST PUSH2 0x922 JUMP JUMPDEST PUSH1 0x40 MLOAD PUSH2 0x2A5 SWAP2 SWAP1 PUSH2 0x1A23 JUMP JUMPDEST PUSH1 0x40 MLOAD DUP1 SWAP2 SUB SWAP1 RETURN JUMPDEST CALLVALUE DUP1 ISZERO PUSH2 0x2BA JUMPI PUSH1 0x0 DUP1 REVERT JUMPDEST POP PUSH2 0x2C3 PUSH2 0x955 JUMP JUMPDEST PUSH1 0x40 MLOAD PUSH2 0x2D0 SWAP2 SWAP1 PUSH2 0x1A23 JUMP JUMPDEST PUSH1 0x40 MLOAD DUP1 SWAP2 SUB SWAP1 RETURN JUMPDEST CALLVALUE DUP1 ISZERO PUSH2 0x2E5 JUMPI PUSH1 0x0 DUP1 REVERT JUMPDEST POP PUSH2 0x2EE PUSH2 0x979 JUMP JUMPDEST PUSH1 0x40 MLOAD PUSH2 0x2FB SWAP2 SWAP1 PUSH2 0x15F2 JUMP JUMPDEST PUSH1 0x40 MLOAD DUP1 SWAP2 SUB SWAP1 RETURN JUMPDEST CALLVALUE DUP1 ISZERO PUSH2 0x310 JUMPI PUSH1 0x0 DUP1 REVERT JUMPDEST POP PUSH2 0x32B PUSH1 0x4 DUP1 CALLDATASIZE SUB DUP2 ADD SWAP1 PUSH2 0x326 SWAP2 SWAP1 PUSH2 0x1B6E JUMP JUMPDEST PUSH2 0x97F JUMP JUMPDEST STOP JUMPDEST CALLVALUE DUP1 ISZERO PUSH2 0x339 JUMPI PUSH1 0x0 DUP1 REVERT JUMPDEST POP PUSH2 0x342 PUSH2 0xA36 JUMP JUMPDEST PUSH1 0x40 MLOAD PUSH2 0x34F SWAP2 SWAP1 PUSH2 0x15F2 JUMP JUMPDEST PUSH1 0x40 MLOAD DUP1 SWAP2 SUB SWAP1 RETURN JUMPDEST CALLVALUE DUP1 ISZERO PUSH2 0x364 JUMPI PUSH1 0x0 DUP1 REVERT JUMPDEST POP PUSH2 0x37F PUSH1 0x4 DUP1 CALLDATASIZE SUB DUP2 ADD SWAP1 PUSH2 0x37A SWAP2 SWAP1 PUSH2 0x1BB7 JUMP JUMPDEST PUSH2 0xA3C JUMP JUMPDEST STOP JUMPDEST CALLVALUE DUP1 ISZERO PUSH2 0x38D JUMPI PUSH1 0x0 DUP1 REVERT JUMPDEST POP PUSH2 0x3A8 PUSH1 0x4 DUP1 CALLDATASIZE SUB DUP2 ADD SWAP1 PUSH2 0x3A3 SWAP2 SWAP1 PUSH2 0x1683 JUMP JUMPDEST PUSH2 0xCAF JUMP JUMPDEST STOP JUMPDEST CALLVALUE DUP1 ISZERO PUSH2 0x3B6 JUMPI PUSH1 0x0 DUP1 REVERT JUMPDEST POP PUSH2 0x3D1 PUSH1 0x4 DUP1 CALLDATASIZE SUB DUP2 ADD SWAP1 PUSH2 0x3CC SWAP2 SWAP1 PUSH2 0x1C35 JUMP JUMPDEST PUSH2 0xD47 JUMP JUMPDEST STOP JUMPDEST PUSH2 0x3ED PUSH1 0x4 DUP1 CALLDATASIZE SUB DUP2 ADD SWAP1 PUSH2 0x3E8 SWAP2 SWAP1 PUSH2 0x1B6E JUMP JUMPDEST PUSH2 0xF01 JUMP JUMPDEST STOP JUMPDEST PUSH1 0x5 SLOAD DUP2 JUMP JUMPDEST PUSH1 0x0 PUSH1 0x14 SWAP1 SLOAD SWAP1 PUSH2 0x100 EXP SWAP1 DIV PUSH1 0xFF AND DUP2 JUMP JUMPDEST PUSH1 0xA SLOAD CALLVALUE LT ISZERO PUSH2 0x44D JUMPI PUSH1 0x40 MLOAD PUSH32 0x8C379A000000000000000000000000000000000000000000000000000000000 DUP2 MSTORE PUSH1 0x4 ADD PUSH2 0x444 SWAP1 PUSH2 0x1CAE JUMP JUMPDEST PUSH1 0x40 MLOAD DUP1 SWAP2 SUB SWAP1 REVERT JUMPDEST PUSH1 0x6 DUP2 DUP2 SLOAD DUP2 LT PUSH2 0x461 JUMPI PUSH2 0x460 PUSH2 0x1CCE JUMP JUMPDEST JUMPDEST SWAP1 PUSH1 0x0 MSTORE PUSH1 0x20 PUSH1 0x0 KECCAK256 SWAP1 PUSH1 0x2 MUL ADD PUSH1 0x1 ADD PUSH1 0x6 DUP2 DUP2 SWAP1 SLOAD SWAP1 PUSH2 0x100 EXP SWAP1 DIV PUSH4 0xFFFFFFFF AND DUP1 SWAP3 SWAP2 SWAP1 PUSH2 0x492 SWAP1 PUSH2 0x1D2C JUMP JUMPDEST SWAP2 SWAP1 PUSH2 0x100 EXP DUP2 SLOAD DUP2 PUSH4 0xFFFFFFFF MUL NOT AND SWAP1 DUP4 PUSH4 0xFFFFFFFF AND MUL OR SWAP1 SSTORE POP POP POP JUMP JUMPDEST PUSH1 0x2 DUP2 DUP2 PUSH1 0x6 DUP3 DUP2 SLOAD DUP2 LT PUSH2 0x4CC JUMPI PUSH2 0x4CB PUSH2 0x1CCE JUMP JUMPDEST JUMPDEST SWAP1 PUSH1 0x0 MSTORE PUSH1 0x20 PUSH1 0x0 KECCAK256 SWAP1 PUSH1 0x2 MUL ADD PUSH1 0x1 ADD PUSH1 0x6 SWAP1 SLOAD SWAP1 PUSH2 0x100 EXP SWAP1 DIV PUSH4 0xFFFFFFFF AND PUSH4 0xFFFFFFFF AND LT ISZERO PUSH2 0x535 JUMPI PUSH1 0x40 MLOAD PUSH32 0x8C379A000000000000000000000000000000000000000000000000000000000 DUP2 MSTORE PUSH1 0x4 ADD PUSH2 0x52C SWAP1 PUSH2 0x1DA4 JUMP JUMPDEST PUSH1 0x40 MLOAD DUP1 SWAP2 SUB SWAP1 REVERT JUMPDEST DUP3 PUSH1 0x7 PUSH1 0x0 DUP3 DUP2 MSTORE PUSH1 0x20 ADD SWAP1 DUP2 MSTORE PUSH1 0x20 ADD PUSH1 0x0 KECCAK256 PUSH1 0x0 SWAP1 SLOAD SWAP1 PUSH2 0x100 EXP SWAP1 DIV PUSH20 0xFFFFFFFFFFFFFFFFFFFFFFFFFFFFFFFFFFFFFFFF AND PUSH20 0xFFFFFFFFFFFFFFFFFFFFFFFFFFFFFFFFFFFFFFFF AND CALLER PUSH20 0xFFFFFFFFFFFFFFFFFFFFFFFFFFFFFFFFFFFFFFFF AND EQ PUSH2 0x5D7 JUMPI PUSH1 0x40 MLOAD PUSH32 0x8C379A000000000000000000000000000000000000000000000000000000000 DUP2 MSTORE PUSH1 0x4 ADD PUSH2 0x5CE SWAP1 PUSH2 0x1DA4 JUMP JUMPDEST PUSH1 0x40 MLOAD DUP1 SWAP2 SUB SWAP1 REVERT JUMPDEST DUP6 DUP6 PUSH1 0x6 DUP7 DUP2 SLOAD DUP2 LT PUSH2 0x5ED JUMPI PUSH2 0x5EC PUSH2 0x1CCE JUMP JUMPDEST JUMPDEST SWAP1 PUSH1 0x0 MSTORE PUSH1 0x20 PUSH1 0x0 KECCAK256 SWAP1 PUSH1 0x2 MUL ADD PUSH1 0x0 ADD SWAP2 DUP3 PUSH2 0x60B SWAP3 SWAP2 SWAP1 PUSH2 0x1FDB JUMP JUMPDEST POP POP POP POP POP POP POP JUMP JUMPDEST PUSH1 0x0 DUP1 SLOAD SWAP1 PUSH2 0x100 EXP SWAP1 DIV PUSH20 0xFFFFFFFFFFFFFFFFFFFFFFFFFFFFFFFFFFFFFFFF AND PUSH20 0xFFFFFFFFFFFFFFFFFFFFFFFFFFFFFFFFFFFFFFFF AND CALLER PUSH20 0xFFFFFFFFFFFFFFFFFFFFFFFFFFFFFFFFFFFFFFFF AND EQ PUSH2 0x6A2 JUMPI PUSH1 0x40 MLOAD PUSH32 0x8C379A000000000000000000000000000000000000000000000000000000000 DUP2 MSTORE PUSH1 0x4 ADD PUSH2 0x699 SWAP1 PUSH2 0x20F7 JUMP JUMPDEST PUSH1 0x40 MLOAD DUP1 SWAP2 SUB SWAP1 REVERT JUMPDEST DUP1 PUSH1 0xA DUP2 SWAP1 SSTORE POP POP JUMP JUMPDEST PUSH1 0x4 SLOAD DUP2 JUMP JUMPDEST PUSH1 0x60 PUSH1 0x0 PUSH1 0x8 PUSH1 0x0 DUP5 PUSH20 0xFFFFFFFFFFFFFFFFFFFFFFFFFFFFFFFFFFFFFFFF AND PUSH20 0xFFFFFFFFFFFFFFFFFFFFFFFFFFFFFFFFFFFFFFFF AND DUP2 MSTORE PUSH1 0x20 ADD SWAP1 DUP2 MSTORE PUSH1 0x20 ADD PUSH1 0x0 KECCAK256 SLOAD PUSH8 0xFFFFFFFFFFFFFFFF DUP2 GT ISZERO PUSH2 0x70F JUMPI PUSH2 0x70E PUSH2 0x1A43 JUMP JUMPDEST JUMPDEST PUSH1 0x40 MLOAD SWAP1 DUP1 DUP3 MSTORE DUP1 PUSH1 0x20 MUL PUSH1 0x20 ADD DUP3 ADD PUSH1 0x40 MSTORE DUP1 ISZERO PUSH2 0x73D JUMPI DUP2 PUSH1 0x20 ADD PUSH1 0x20 DUP3 MUL DUP1 CALLDATASIZE DUP4 CALLDATACOPY DUP1 DUP3 ADD SWAP2 POP POP SWAP1 POP JUMPDEST POP SWAP1 POP PUSH1 0x0 DUP1 JUMPDEST PUSH1 0x6 DUP1 SLOAD SWAP1 POP DUP2 LT ISZERO PUSH2 0x7F9 JUMPI DUP5 PUSH20 0xFFFFFFFFFFFFFFFFFFFFFFFFFFFFFFFFFFFFFFFF AND PUSH1 0x7 PUSH1 0x0 DUP4 DUP2 MSTORE PUSH1 0x20 ADD SWAP1 DUP2 MSTORE PUSH1 0x20 ADD PUSH1 0x0 KECCAK256 PUSH1 0x0 SWAP1 SLOAD SWAP1 PUSH2 0x100 EXP SWAP1 DIV PUSH20 0xFFFFFFFFFFFFFFFFFFFFFFFFFFFFFFFFFFFFFFFF AND PUSH20 0xFFFFFFFFFFFFFFFFFFFFFFFFFFFFFFFFFFFFFFFF AND SUB PUSH2 0x7E6 JUMPI DUP1 DUP4 DUP4 DUP2 MLOAD DUP2 LT PUSH2 0x7CB JUMPI PUSH2 0x7CA PUSH2 0x1CCE JUMP JUMPDEST JUMPDEST PUSH1 0x20 MUL PUSH1 0x20 ADD ADD DUP2 DUP2 MSTORE POP POP DUP2 DUP1 PUSH2 0x7E2 SWAP1 PUSH2 0x2117 JUMP JUMPDEST SWAP3 POP POP JUMPDEST DUP1 DUP1 PUSH2 0x7F1 SWAP1 PUSH2 0x2117 JUMP JUMPDEST SWAP2 POP POP PUSH2 0x744 JUMP JUMPDEST POP DUP2 SWAP3 POP POP POP SWAP2 SWAP1 POP JUMP JUMPDEST PUSH1 0x6 DUP2 DUP2 SLOAD DUP2 LT PUSH2 0x814 JUMPI PUSH1 0x0 DUP1 REVERT JUMPDEST SWAP1 PUSH1 0x0 MSTORE PUSH1 0x20 PUSH1 0x0 KECCAK256 SWAP1 PUSH1 0x2 MUL ADD PUSH1 0x0 SWAP2 POP SWAP1 POP DUP1 PUSH1 0x0 ADD DUP1 SLOAD PUSH2 0x837 SWAP1 PUSH2 0x1DFE JUMP JUMPDEST DUP1 PUSH1 0x1F ADD PUSH1 0x20 DUP1 SWAP2 DIV MUL PUSH1 0x20 ADD PUSH1 0x40 MLOAD SWAP1 DUP2 ADD PUSH1 0x40 MSTORE DUP1 SWAP3 SWAP2 SWAP1 DUP2 DUP2 MSTORE PUSH1 0x20 ADD DUP3 DUP1 SLOAD PUSH2 0x863 SWAP1 PUSH2 0x1DFE JUMP JUMPDEST DUP1 ISZERO PUSH2 0x8B0 JUMPI DUP1 PUSH1 0x1F LT PUSH2 0x885 JUMPI PUSH2 0x100 DUP1 DUP4 SLOAD DIV MUL DUP4 MSTORE SWAP2 PUSH1 0x20 ADD SWAP2 PUSH2 0x8B0 JUMP JUMPDEST DUP3 ADD SWAP2 SWAP1 PUSH1 0x0 MSTORE PUSH1 0x20 PUSH1 0x0 KECCAK256 SWAP1 JUMPDEST DUP2 SLOAD DUP2 MSTORE SWAP1 PUSH1 0x1 ADD SWAP1 PUSH1 0x20 ADD DUP1 DUP4 GT PUSH2 0x893 JUMPI DUP3 SWAP1 SUB PUSH1 0x1F AND DUP3 ADD SWAP2 JUMPDEST POP POP POP POP POP SWAP1 DUP1 PUSH1 0x1 ADD PUSH1 0x0 SWAP1 SLOAD SWAP1 PUSH2 0x100 EXP SWAP1 DIV PUSH2 0xFFFF AND SWAP1 DUP1 PUSH1 0x1 ADD PUSH1 0x2 SWAP1 SLOAD SWAP1 PUSH2 0x100 EXP SWAP1 DIV PUSH2 0xFFFF AND SWAP1 DUP1 PUSH1 0x1 ADD PUSH1 0x4 SWAP1 SLOAD SWAP1 PUSH2 0x100 EXP SWAP1 DIV PUSH2 0xFFFF AND SWAP1 DUP1 PUSH1 0x1 ADD PUSH1 0x6 SWAP1 SLOAD SWAP1 PUSH2 0x100 EXP SWAP1 DIV PUSH4 0xFFFFFFFF AND SWAP1 DUP1 PUSH1 0x1 ADD PUSH1 0xA SWAP1 SLOAD SWAP1 PUSH2 0x100 EXP SWAP1 DIV PUSH4 0xFFFFFFFF AND SWAP1 POP DUP7 JUMP JUMPDEST PUSH1 0x7 PUSH1 0x20 MSTORE DUP1 PUSH1 0x0 MSTORE PUSH1 0x40 PUSH1 0x0 KECCAK256 PUSH1 0x0 SWAP2 POP SLOAD SWAP1 PUSH2 0x100 EXP SWAP1 DIV PUSH20 0xFFFFFFFFFFFFFFFFFFFFFFFFFFFFFFFFFFFFFFFF AND DUP2 JUMP JUMPDEST PUSH1 0x0 DUP1 SLOAD SWAP1 PUSH2 0x100 EXP SWAP1 DIV PUSH20 0xFFFFFFFFFFFFFFFFFFFFFFFFFFFFFFFFFFFFFFFF AND DUP2 JUMP JUMPDEST PUSH1 0xA SLOAD DUP2 JUMP JUMPDEST PUSH1 0x0 PUSH1 0x8 PUSH1 0x0 CALLER PUSH20 0xFFFFFFFFFFFFFFFFFFFFFFFFFFFFFFFFFFFFFFFF AND PUSH20 0xFFFFFFFFFFFFFFFFFFFFFFFFFFFFFFFFFFFFFFFF AND DUP2 MSTORE PUSH1 0x20 ADD SWAP1 DUP2 MSTORE PUSH1 0x20 ADD PUSH1 0x0 KECCAK256 SLOAD EQ PUSH2 0xA01 JUMPI PUSH1 0x40 MLOAD PUSH32 0x8C379A000000000000000000000000000000000000000000000000000000000 DUP2 MSTORE PUSH1 0x4 ADD PUSH2 0x9F8 SWAP1 PUSH2 0x1DA4 JUMP JUMPDEST PUSH1 0x40 MLOAD DUP1 SWAP2 SUB SWAP1 REVERT JUMPDEST PUSH1 0x0 PUSH2 0xA0C DUP3 PUSH2 0x1008 JUMP JUMPDEST SWAP1 POP PUSH1 0xA DUP2 PUSH2 0xA1B SWAP2 SWAP1 PUSH2 0x218E JUMP JUMPDEST DUP2 PUSH2 0xA26 SWAP2 SWAP1 PUSH2 0x21BF JUMP JUMPDEST SWAP1 POP PUSH2 0xA32 DUP3 DUP3 PUSH2 0x104A JUMP JUMPDEST POP POP JUMP JUMPDEST PUSH1 0x3 SLOAD DUP2 JUMP JUMPDEST DUP2 PUSH1 0x7 PUSH1 0x0 DUP3 DUP2 MSTORE PUSH1 0x20 ADD SWAP1 DUP2 MSTORE PUSH1 0x20 ADD PUSH1 0x0 KECCAK256 PUSH1 0x0 SWAP1 SLOAD SWAP1 PUSH2 0x100 EXP SWAP1 DIV PUSH20 0xFFFFFFFFFFFFFFFFFFFFFFFFFFFFFFFFFFFFFFFF AND PUSH20 0xFFFFFFFFFFFFFFFFFFFFFFFFFFFFFFFFFFFFFFFF AND CALLER PUSH20 0xFFFFFFFFFFFFFFFFFFFFFFFFFFFFFFFFFFFFFFFF AND EQ PUSH2 0xADE JUMPI PUSH1 0x40 MLOAD PUSH32 0x8C379A000000000000000000000000000000000000000000000000000000000 DUP2 MSTORE PUSH1 0x4 ADD PUSH2 0xAD5 SWAP1 PUSH2 0x1DA4 JUMP JUMPDEST PUSH1 0x40 MLOAD DUP1 SWAP2 SUB SWAP1 REVERT JUMPDEST PUSH1 0x0 PUSH1 0x6 DUP5 DUP2 SLOAD DUP2 LT PUSH2 0xAF4 JUMPI PUSH2 0xAF3 PUSH2 0x1CCE JUMP JUMPDEST JUMPDEST SWAP1 PUSH1 0x0 MSTORE PUSH1 0x20 PUSH1 0x0 KECCAK256 SWAP1 PUSH1 0x2 MUL ADD SWAP1 POP PUSH1 0x0 PUSH1 0x6 DUP5 DUP2 SLOAD DUP2 LT PUSH2 0xB1A JUMPI PUSH2 0xB19 PUSH2 0x1CCE JUMP JUMPDEST JUMPDEST SWAP1 PUSH1 0x0 MSTORE PUSH1 0x20 PUSH1 0x0 KECCAK256 SWAP1 PUSH1 0x2 MUL ADD SWAP1 POP PUSH1 0x0 PUSH2 0xB36 PUSH1 0x64 PUSH2 0x12E7 JUMP JUMPDEST SWAP1 POP PUSH1 0xC SLOAD DUP2 GT PUSH2 0xC23 JUMPI DUP3 PUSH1 0x1 ADD PUSH1 0x6 DUP2 DUP2 SWAP1 SLOAD SWAP1 PUSH2 0x100 EXP SWAP1 DIV PUSH4 0xFFFFFFFF AND DUP1 SWAP3 SWAP2 SWAP1 PUSH2 0xB65 SWAP1 PUSH2 0x1D2C JUMP JUMPDEST SWAP2 SWAP1 PUSH2 0x100 EXP DUP2 SLOAD DUP2 PUSH4 0xFFFFFFFF MUL NOT AND SWAP1 DUP4 PUSH4 0xFFFFFFFF AND MUL OR SWAP1 SSTORE POP POP DUP3 PUSH1 0x1 ADD PUSH1 0x2 DUP2 DUP2 SWAP1 SLOAD SWAP1 PUSH2 0x100 EXP SWAP1 DIV PUSH2 0xFFFF AND DUP1 SWAP3 SWAP2 SWAP1 PUSH2 0xBA6 SWAP1 PUSH2 0x21F5 JUMP JUMPDEST SWAP2 SWAP1 PUSH2 0x100 EXP DUP2 SLOAD DUP2 PUSH2 0xFFFF MUL NOT AND SWAP1 DUP4 PUSH2 0xFFFF AND MUL OR SWAP1 SSTORE POP POP DUP2 PUSH1 0x1 ADD PUSH1 0x4 DUP2 DUP2 SWAP1 SLOAD SWAP1 PUSH2 0x100 EXP SWAP1 DIV PUSH2 0xFFFF AND DUP1 SWAP3 SWAP2 SWAP1 PUSH2 0xBE3 SWAP1 PUSH2 0x21F5 JUMP JUMPDEST SWAP2 SWAP1 PUSH2 0x100 EXP DUP2 SLOAD DUP2 PUSH2 0xFFFF MUL NOT AND SWAP1 DUP4 PUSH2 0xFFFF AND MUL OR SWAP1 SSTORE POP POP PUSH2 0xC1E DUP7 DUP4 PUSH1 0x1 ADD PUSH1 0x0 SWAP1 SLOAD SWAP1 PUSH2 0x100 EXP SWAP1 DIV PUSH2 0xFFFF AND PUSH2 0xFFFF AND PUSH2 0x1343 JUMP JUMPDEST PUSH2 0xCA7 JUMP JUMPDEST DUP3 PUSH1 0x1 ADD PUSH1 0x4 DUP2 DUP2 SWAP1 SLOAD SWAP1 PUSH2 0x100 EXP SWAP1 DIV PUSH2 0xFFFF AND DUP1 SWAP3 SWAP2 SWAP1 PUSH2 0xC45 SWAP1 PUSH2 0x21F5 JUMP JUMPDEST SWAP2 SWAP1 PUSH2 0x100 EXP DUP2 SLOAD DUP2 PUSH2 0xFFFF MUL NOT AND SWAP1 DUP4 PUSH2 0xFFFF AND MUL OR SWAP1 SSTORE POP POP DUP2 PUSH1 0x1 ADD PUSH1 0x2 DUP2 DUP2 SWAP1 SLOAD SWAP1 PUSH2 0x100 EXP SWAP1 DIV PUSH2 0xFFFF AND DUP1 SWAP3 SWAP2 SWAP1 PUSH2 0xC82 SWAP1 PUSH2 0x21F5 JUMP JUMPDEST SWAP2 SWAP1 PUSH2 0x100 EXP DUP2 SLOAD DUP2 PUSH2 0xFFFF MUL NOT AND SWAP1 DUP4 PUSH2 0xFFFF AND MUL OR SWAP1 SSTORE POP POP PUSH2 0xCA6 DUP4 PUSH2 0x152D JUMP JUMPDEST JUMPDEST POP POP POP POP POP POP JUMP JUMPDEST PUSH1 0x0 DUP1 SLOAD SWAP1 PUSH2 0x100 EXP SWAP1 DIV PUSH20 0xFFFFFFFFFFFFFFFFFFFFFFFFFFFFFFFFFFFFFFFF AND PUSH20 0xFFFFFFFFFFFFFFFFFFFFFFFFFFFFFFFFFFFFFFFF AND CALLER PUSH20 0xFFFFFFFFFFFFFFFFFFFFFFFFFFFFFFFFFFFFFFFF AND EQ PUSH2 0xD3D JUMPI PUSH1 0x40 MLOAD PUSH32 0x8C379A000000000000000000000000000000000000000000000000000000000 DUP2 MSTORE PUSH1 0x4 ADD PUSH2 0xD34 SWAP1 PUSH2 0x20F7 JUMP JUMPDEST PUSH1 0x40 MLOAD DUP1 SWAP2 SUB SWAP1 REVERT JUMPDEST DUP1 PUSH1 0x4 DUP2 SWAP1 SSTORE POP POP JUMP JUMPDEST PUSH1 0x0 DUP1 SLOAD SWAP1 PUSH2 0x100 EXP SWAP1 DIV PUSH20 0xFFFFFFFFFFFFFFFFFFFFFFFFFFFFFFFFFFFFFFFF AND PUSH20 0xFFFFFFFFFFFFFFFFFFFFFFFFFFFFFFFFFFFFFFFF AND CALLER PUSH20 0xFFFFFFFFFFFFFFFFFFFFFFFFFFFFFFFFFFFFFFFF AND EQ PUSH2 0xDD5 JUMPI PUSH1 0x40 MLOAD PUSH32 0x8C379A000000000000000000000000000000000000000000000000000000000 DUP2 MSTORE PUSH1 0x4 ADD PUSH2 0xDCC SWAP1 PUSH2 0x20F7 JUMP JUMPDEST PUSH1 0x40 MLOAD DUP1 SWAP2 SUB SWAP1 REVERT JUMPDEST PUSH1 0x0 PUSH20 0xFFFFFFFFFFFFFFFFFFFFFFFFFFFFFFFFFFFFFFFF AND DUP2 PUSH20 0xFFFFFFFFFFFFFFFFFFFFFFFFFFFFFFFFFFFFFFFF AND SUB PUSH2 0xE44 JUMPI PUSH1 0x40 MLOAD PUSH32 0x8C379A000000000000000000000000000000000000000000000000000000000 DUP2 MSTORE PUSH1 0x4 ADD PUSH2 0xE3B SWAP1 PUSH2 0x20F7 JUMP JUMPDEST PUSH1 0x40 MLOAD DUP1 SWAP2 SUB SWAP1 REVERT JUMPDEST DUP1 PUSH20 0xFFFFFFFFFFFFFFFFFFFFFFFFFFFFFFFFFFFFFFFF AND PUSH1 0x0 DUP1 SLOAD SWAP1 PUSH2 0x100 EXP SWAP1 DIV PUSH20 0xFFFFFFFFFFFFFFFFFFFFFFFFFFFFFFFFFFFFFFFF AND PUSH20 0xFFFFFFFFFFFFFFFFFFFFFFFFFFFFFFFFFFFFFFFF AND PUSH32 0x8BE0079C531659141344CD1FD0A4F28419497F9722A3DAAFE3B4186F6B6457E0 PUSH1 0x40 MLOAD PUSH1 0x40 MLOAD DUP1 SWAP2 SUB SWAP1 LOG3 DUP1 PUSH1 0x0 DUP1 PUSH2 0x100 EXP DUP2 SLOAD DUP2 PUSH20 0xFFFFFFFFFFFFFFFFFFFFFFFFFFFFFFFFFFFFFFFF MUL NOT AND SWAP1 DUP4 PUSH20 0xFFFFFFFFFFFFFFFFFFFFFFFFFFFFFFFFFFFFFFFF AND MUL OR SWAP1 SSTORE POP POP JUMP JUMPDEST PUSH1 0x0 PUSH1 0x8 PUSH1 0x0 CALLER PUSH20 0xFFFFFFFFFFFFFFFFFFFFFFFFFFFFFFFFFFFFFFFF AND PUSH20 0xFFFFFFFFFFFFFFFFFFFFFFFFFFFFFFFFFFFFFFFF AND DUP2 MSTORE PUSH1 0x20 ADD SWAP1 DUP2 MSTORE PUSH1 0x20 ADD PUSH1 0x0 KECCAK256 SLOAD GT PUSH2 0xF83 JUMPI PUSH1 0x40 MLOAD PUSH32 0x8C379A000000000000000000000000000000000000000000000000000000000 DUP2 MSTORE PUSH1 0x4 ADD PUSH2 0xF7A SWAP1 PUSH2 0x1DA4 JUMP JUMPDEST PUSH1 0x40 MLOAD DUP1 SWAP2 SUB SWAP1 REVERT JUMPDEST PUSH1 0x4 SLOAD CALLVALUE GT PUSH2 0xFC7 JUMPI PUSH1 0x40 MLOAD PUSH32 0x8C379A000000000000000000000000000000000000000000000000000000000 DUP2 MSTORE PUSH1 0x4 ADD PUSH2 0xFBE SWAP1 PUSH2 0x1DA4 JUMP JUMPDEST PUSH1 0x40 MLOAD DUP1 SWAP2 SUB SWAP1 REVERT JUMPDEST PUSH1 0x0 PUSH2 0xFD2 DUP3 PUSH2 0x1008 JUMP JUMPDEST SWAP1 POP PUSH1 0x1 PUSH1 0xA DUP3 PUSH2 0xFE3 SWAP2 SWAP1 PUSH2 0x218E JUMP JUMPDEST DUP3 PUSH2 0xFEE SWAP2 SWAP1 PUSH2 0x21BF JUMP JUMPDEST PUSH2 0xFF8 SWAP2 SWAP1 PUSH2 0x221F JUMP JUMPDEST SWAP1 POP PUSH2 0x1004 DUP3 DUP3 PUSH2 0x104A JUMP JUMPDEST POP POP JUMP JUMPDEST PUSH1 0x0 PUSH1 0x2 SLOAD DUP3 TIMESTAMP PUSH1 0x40 MLOAD PUSH1 0x20 ADD PUSH2 0x1020 SWAP3 SWAP2 SWAP1 PUSH2 0x22B2 JUMP JUMPDEST PUSH1 0x40 MLOAD PUSH1 0x20 DUP2 DUP4 SUB SUB DUP2 MSTORE SWAP1 PUSH1 0x40 MSTORE DUP1 MLOAD SWAP1 PUSH1 0x20 ADD KECCAK256 PUSH1 0x0 SHR PUSH2 0x1043 SWAP2 SWAP1 PUSH2 0x22DA JUMP JUMPDEST SWAP1 POP SWAP2 SWAP1 POP JUMP JUMPDEST PUSH1 0x6 PUSH1 0x40 MLOAD DUP1 PUSH1 0xC0 ADD PUSH1 0x40 MSTORE DUP1 DUP5 DUP2 MSTORE PUSH1 0x20 ADD DUP4 PUSH2 0xFFFF AND DUP2 MSTORE PUSH1 0x20 ADD PUSH1 0x0 PUSH2 0xFFFF AND DUP2 MSTORE PUSH1 0x20 ADD PUSH1 0x0 PUSH2 0xFFFF AND DUP2 MSTORE PUSH1 0x20 ADD PUSH1 0x1 PUSH4 0xFFFFFFFF AND DUP2 MSTORE PUSH1 0x20 ADD PUSH1 0x0 PUSH4 0xFFFFFFFF AND DUP2 MSTORE POP SWAP1 DUP1 PUSH1 0x1 DUP2 SLOAD ADD DUP1 DUP3 SSTORE DUP1 SWAP2 POP POP PUSH1 0x1 SWAP1 SUB SWAP1 PUSH1 0x0 MSTORE PUSH1 0x20 PUSH1 0x0 KECCAK256 SWAP1 PUSH1 0x2 MUL ADD PUSH1 0x0 SWAP1 SWAP2 SWAP1 SWAP2 SWAP1 SWAP2 POP PUSH1 0x0 DUP3 ADD MLOAD DUP2 PUSH1 0x0 ADD SWAP1 DUP2 PUSH2 0x10D3 SWAP2 SWAP1 PUSH2 0x230B JUMP JUMPDEST POP PUSH1 0x20 DUP3 ADD MLOAD DUP2 PUSH1 0x1 ADD PUSH1 0x0 PUSH2 0x100 EXP DUP2 SLOAD DUP2 PUSH2 0xFFFF MUL NOT AND SWAP1 DUP4 PUSH2 0xFFFF AND MUL OR SWAP1 SSTORE POP PUSH1 0x40 DUP3 ADD MLOAD DUP2 PUSH1 0x1 ADD PUSH1 0x2 PUSH2 0x100 EXP DUP2 SLOAD DUP2 PUSH2 0xFFFF MUL NOT AND SWAP1 DUP4 PUSH2 0xFFFF AND MUL OR SWAP1 SSTORE POP PUSH1 0x60 DUP3 ADD MLOAD DUP2 PUSH1 0x1 ADD PUSH1 0x4 PUSH2 0x100 EXP DUP2 SLOAD DUP2 PUSH2 0xFFFF MUL NOT AND SWAP1 DUP4 PUSH2 0xFFFF AND MUL OR SWAP1 SSTORE POP PUSH1 0x80 DUP3 ADD MLOAD DUP2 PUSH1 0x1 ADD PUSH1 0x6 PUSH2 0x100 EXP DUP2 SLOAD DUP2 PUSH4 0xFFFFFFFF MUL NOT AND SWAP1 DUP4 PUSH4 0xFFFFFFFF AND MUL OR SWAP1 SSTORE POP PUSH1 0xA0 DUP3 ADD MLOAD DUP2 PUSH1 0x1 ADD PUSH1 0xA PUSH2 0x100 EXP DUP2 SLOAD DUP2 PUSH4 0xFFFFFFFF MUL NOT AND SWAP1 DUP4 PUSH4 0xFFFFFFFF AND MUL OR SWAP1 SSTORE POP POP POP PUSH1 0x0 PUSH1 0x1 PUSH1 0x6 DUP1 SLOAD SWAP1 POP PUSH2 0x11A1 SWAP2 SWAP1 PUSH2 0x23DD JUMP JUMPDEST SWAP1 POP CALLER PUSH1 0x7 PUSH1 0x0 DUP4 DUP2 MSTORE PUSH1 0x20 ADD SWAP1 DUP2 MSTORE PUSH1 0x20 ADD PUSH1 0x0 KECCAK256 PUSH1 0x0 PUSH2 0x100 EXP DUP2 SLOAD DUP2 PUSH20 0xFFFFFFFFFFFFFFFFFFFFFFFFFFFFFFFFFFFFFFFF MUL NOT AND SWAP1 DUP4 PUSH20 0xFFFFFFFFFFFFFFFFFFFFFFFFFFFFFFFFFFFFFFFF AND MUL OR SWAP1 SSTORE POP PUSH2 0x1248 PUSH1 0x1 PUSH1 0x8 PUSH1 0x0 CALLER PUSH20 0xFFFFFFFFFFFFFFFFFFFFFFFFFFFFFFFFFFFFFFFF AND PUSH20 0xFFFFFFFFFFFFFFFFFFFFFFFFFFFFFFFFFFFFFFFF AND DUP2 MSTORE PUSH1 0x20 ADD SWAP1 DUP2 MSTORE PUSH1 0x20 ADD PUSH1 0x0 KECCAK256 SLOAD PUSH2 0x1586 SWAP1 SWAP2 SWAP1 PUSH4 0xFFFFFFFF AND JUMP JUMPDEST PUSH1 0x8 PUSH1 0x0 CALLER PUSH20 0xFFFFFFFFFFFFFFFFFFFFFFFFFFFFFFFFFFFFFFFF AND PUSH20 0xFFFFFFFFFFFFFFFFFFFFFFFFFFFFFFFFFFFFFFFF AND DUP2 MSTORE PUSH1 0x20 ADD SWAP1 DUP2 MSTORE PUSH1 0x20 ADD PUSH1 0x0 KECCAK256 DUP2 SWAP1 SSTORE POP PUSH2 0x12A1 PUSH1 0x1 PUSH1 0x5 SLOAD PUSH2 0x1586 SWAP1 SWAP2 SWAP1 PUSH4 0xFFFFFFFF AND JUMP JUMPDEST PUSH1 0x5 DUP2 SWAP1 SSTORE POP PUSH32 0xFFB2FB18E6D3EC7EF368D2F329EF22F9431AAEBE0FCBC9282D7770949AC8CD31 DUP2 DUP5 DUP5 PUSH1 0x40 MLOAD PUSH2 0x12DA SWAP4 SWAP3 SWAP2 SWAP1 PUSH2 0x2442 JUMP JUMPDEST PUSH1 0x40 MLOAD DUP1 SWAP2 SUB SWAP1 LOG1 POP POP POP JUMP JUMPDEST PUSH1 0x0 PUSH1 0xB PUSH1 0x0 DUP2 SLOAD DUP1 SWAP3 SWAP2 SWAP1 PUSH2 0x12FC SWAP1 PUSH2 0x2117 JUMP JUMPDEST SWAP2 SWAP1 POP SSTORE POP DUP2 TIMESTAMP CALLER PUSH1 0xB SLOAD PUSH1 0x40 MLOAD PUSH1 0x20 ADD PUSH2 0x1319 SWAP4 SWAP3 SWAP2 SWAP1 PUSH2 0x24C8 JUMP JUMPDEST PUSH1 0x40 MLOAD PUSH1 0x20 DUP2 DUP4 SUB SUB DUP2 MSTORE SWAP1 PUSH1 0x40 MSTORE DUP1 MLOAD SWAP1 PUSH1 0x20 ADD KECCAK256 PUSH1 0x0 SHR PUSH2 0x133C SWAP2 SWAP1 PUSH2 0x22DA JUMP JUMPDEST SWAP1 POP SWAP2 SWAP1 POP JUMP JUMPDEST DUP2 PUSH1 0x7 PUSH1 0x0 DUP3 DUP2 MSTORE PUSH1 0x20 ADD SWAP1 DUP2 MSTORE PUSH1 0x20 ADD PUSH1 0x0 KECCAK256 PUSH1 0x0 SWAP1 SLOAD SWAP1 PUSH2 0x100 EXP SWAP1 DIV PUSH20 0xFFFFFFFFFFFFFFFFFFFFFFFFFFFFFFFFFFFFFFFF AND PUSH20 0xFFFFFFFFFFFFFFFFFFFFFFFFFFFFFFFFFFFFFFFF AND CALLER PUSH20 0xFFFFFFFFFFFFFFFFFFFFFFFFFFFFFFFFFFFFFFFF AND EQ PUSH2 0x13E5 JUMPI PUSH1 0x40 MLOAD PUSH32 0x8C379A000000000000000000000000000000000000000000000000000000000 DUP2 MSTORE PUSH1 0x4 ADD PUSH2 0x13DC SWAP1 PUSH2 0x1DA4 JUMP JUMPDEST PUSH1 0x40 MLOAD DUP1 SWAP2 SUB SWAP1 REVERT JUMPDEST PUSH1 0x6 DUP4 DUP2 SLOAD DUP2 LT PUSH2 0x13F9 JUMPI PUSH2 0x13F8 PUSH2 0x1CCE JUMP JUMPDEST JUMPDEST SWAP1 PUSH1 0x0 MSTORE PUSH1 0x20 PUSH1 0x0 KECCAK256 SWAP1 PUSH1 0x2 MUL ADD PUSH2 0x1410 DUP2 PUSH2 0x15B2 JUMP JUMPDEST PUSH2 0x144F JUMPI PUSH1 0x40 MLOAD PUSH32 0x8C379A000000000000000000000000000000000000000000000000000000000 DUP2 MSTORE PUSH1 0x4 ADD PUSH2 0x1446 SWAP1 PUSH2 0x1DA4 JUMP JUMPDEST PUSH1 0x40 MLOAD DUP1 SWAP2 SUB SWAP1 REVERT JUMPDEST PUSH1 0x0 PUSH1 0x6 DUP6 DUP2 SLOAD DUP2 LT PUSH2 0x1465 JUMPI PUSH2 0x1464 PUSH2 0x1CCE JUMP JUMPDEST JUMPDEST SWAP1 PUSH1 0x0 MSTORE PUSH1 0x20 PUSH1 0x0 KECCAK256 SWAP1 PUSH1 0x2 MUL ADD SWAP1 POP PUSH1 0x2 SLOAD DUP5 PUSH2 0x1483 SWAP2 SWAP1 PUSH2 0x22DA JUMP JUMPDEST SWAP4 POP PUSH1 0x0 PUSH1 0x2 DUP6 DUP4 PUSH1 0x1 ADD PUSH1 0x0 SWAP1 SLOAD SWAP1 PUSH2 0x100 EXP SWAP1 DIV PUSH2 0xFFFF AND PUSH2 0xFFFF AND PUSH2 0x14AB SWAP2 SWAP1 PUSH2 0x2505 JUMP JUMPDEST PUSH2 0x14B5 SWAP2 SWAP1 PUSH2 0x2539 JUMP JUMPDEST SWAP1 POP PUSH1 0x9 PUSH1 0xA DUP3 PUSH2 0x14C6 SWAP2 SWAP1 PUSH2 0x22DA JUMP JUMPDEST DUP3 PUSH2 0x14D1 SWAP2 SWAP1 PUSH2 0x23DD JUMP JUMPDEST PUSH2 0x14DB SWAP2 SWAP1 PUSH2 0x2505 JUMP JUMPDEST SWAP1 POP PUSH2 0x151C PUSH1 0x40 MLOAD DUP1 PUSH1 0x40 ADD PUSH1 0x40 MSTORE DUP1 PUSH1 0x6 DUP2 MSTORE PUSH1 0x20 ADD PUSH32 0x4E6F4E616D650000000000000000000000000000000000000000000000000000 DUP2 MSTORE POP DUP3 PUSH2 0x104A JUMP JUMPDEST PUSH2 0x1525 DUP3 PUSH2 0x152D JUMP JUMPDEST POP POP POP POP POP POP JUMP JUMPDEST PUSH3 0x15180 PUSH1 0x3 SLOAD TIMESTAMP PUSH2 0x153F SWAP2 SWAP1 PUSH2 0x2505 JUMP JUMPDEST PUSH2 0x1549 SWAP2 SWAP1 PUSH2 0x22DA JUMP JUMPDEST PUSH1 0x3 SLOAD TIMESTAMP PUSH2 0x1557 SWAP2 SWAP1 PUSH2 0x2505 JUMP JUMPDEST PUSH2 0x1561 SWAP2 SWAP1 PUSH2 0x256A JUMP JUMPDEST DUP2 PUSH1 0x1 ADD PUSH1 0xA PUSH2 0x100 EXP DUP2 SLOAD DUP2 PUSH4 0xFFFFFFFF MUL NOT AND SWAP1 DUP4 PUSH4 0xFFFFFFFF AND MUL OR SWAP1 SSTORE POP POP JUMP JUMPDEST PUSH1 0x0 DUP1 DUP3 DUP5 PUSH2 0x1595 SWAP2 SWAP1 PUSH2 0x2505 JUMP JUMPDEST SWAP1 POP DUP4 DUP2 LT ISZERO PUSH2 0x15A8 JUMPI PUSH2 0x15A7 PUSH2 0x25A2 JUMP JUMPDEST JUMPDEST DUP1 SWAP2 POP POP SWAP3 SWAP2 POP POP JUMP JUMPDEST PUSH1 0x0 TIMESTAMP DUP3 PUSH1 0x1 ADD PUSH1 0xA SWAP1 SLOAD SWAP1 PUSH2 0x100 EXP SWAP1 DIV PUSH4 0xFFFFFFFF AND PUSH4 0xFFFFFFFF AND GT ISZERO SWAP1 POP SWAP2 SWAP1 POP JUMP JUMPDEST PUSH1 0x0 DUP2 SWAP1 POP SWAP2 SWAP1 POP JUMP JUMPDEST PUSH2 0x15EC DUP2 PUSH2 0x15D9 JUMP JUMPDEST DUP3 MSTORE POP POP JUMP JUMPDEST PUSH1 0x0 PUSH1 0x20 DUP3 ADD SWAP1 POP PUSH2 0x1607 PUSH1 0x0 DUP4 ADD DUP5 PUSH2 0x15E3 JUMP JUMPDEST SWAP3 SWAP2 POP POP JUMP JUMPDEST PUSH1 0x0 DUP2 ISZERO ISZERO SWAP1 POP SWAP2 SWAP1 POP JUMP JUMPDEST PUSH2 0x1622 DUP2 PUSH2 0x160D JUMP JUMPDEST DUP3 MSTORE POP POP JUMP JUMPDEST PUSH1 0x0 PUSH1 0x20 DUP3 ADD SWAP1 POP PUSH2 0x163D PUSH1 0x0 DUP4 ADD DUP5 PUSH2 0x1619 JUMP JUMPDEST SWAP3 SWAP2 POP POP JUMP JUMPDEST PUSH1 0x0 PUSH1 0x40 MLOAD SWAP1 POP SWAP1 JUMP JUMPDEST PUSH1 0x0 DUP1 REVERT JUMPDEST PUSH1 0x0 DUP1 REVERT JUMPDEST PUSH2 0x1660 DUP2 PUSH2 0x15D9 JUMP JUMPDEST DUP2 EQ PUSH2 0x166B JUMPI PUSH1 0x0 DUP1 REVERT JUMPDEST POP JUMP JUMPDEST PUSH1 0x0 DUP2 CALLDATALOAD SWAP1 POP PUSH2 0x167D DUP2 PUSH2 0x1657 JUMP JUMPDEST SWAP3 SWAP2 POP POP JUMP JUMPDEST PUSH1 0x0 PUSH1 0x20 DUP3 DUP5 SUB SLT ISZERO PUSH2 0x1699 JUMPI PUSH2 0x1698 PUSH2 0x164D JUMP JUMPDEST JUMPDEST PUSH1 0x0 PUSH2 0x16A7 DUP5 DUP3 DUP6 ADD PUSH2 0x166E JUMP JUMPDEST SWAP2 POP POP SWAP3 SWAP2 POP POP JUMP JUMPDEST PUSH1 0x0 DUP1 REVERT JUMPDEST PUSH1 0x0 DUP1 REVERT JUMPDEST PUSH1 0x0 DUP1 REVERT JUMPDEST PUSH1 0x0 DUP1 DUP4 PUSH1 0x1F DUP5 ADD SLT PUSH2 0x16D5 JUMPI PUSH2 0x16D4 PUSH2 0x16B0 JUMP JUMPDEST JUMPDEST DUP3 CALLDATALOAD SWAP1 POP PUSH8 0xFFFFFFFFFFFFFFFF DUP2 GT ISZERO PUSH2 0x16F2 JUMPI PUSH2 0x16F1 PUSH2 0x16B5 JUMP JUMPDEST JUMPDEST PUSH1 0x20 DUP4 ADD SWAP2 POP DUP4 PUSH1 0x1 DUP3 MUL DUP4 ADD GT ISZERO PUSH2 0x170E JUMPI PUSH2 0x170D PUSH2 0x16BA JUMP JUMPDEST JUMPDEST SWAP3 POP SWAP3 SWAP1 POP JUMP JUMPDEST PUSH1 0x0 DUP1 PUSH1 0x0 PUSH1 0x40 DUP5 DUP7 SUB SLT ISZERO PUSH2 0x172E JUMPI PUSH2 0x172D PUSH2 0x164D JUMP JUMPDEST JUMPDEST PUSH1 0x0 DUP5 ADD CALLDATALOAD PUSH8 0xFFFFFFFFFFFFFFFF DUP2 GT ISZERO PUSH2 0x174C JUMPI PUSH2 0x174B PUSH2 0x1652 JUMP JUMPDEST JUMPDEST PUSH2 0x1758 DUP7 DUP3 DUP8 ADD PUSH2 0x16BF JUMP JUMPDEST SWAP4 POP SWAP4 POP POP PUSH1 0x20 PUSH2 0x176B DUP7 DUP3 DUP8 ADD PUSH2 0x166E JUMP JUMPDEST SWAP2 POP POP SWAP3 POP SWAP3 POP SWAP3 JUMP JUMPDEST PUSH1 0x0 PUSH20 0xFFFFFFFFFFFFFFFFFFFFFFFFFFFFFFFFFFFFFFFF DUP3 AND SWAP1 POP SWAP2 SWAP1 POP JUMP JUMPDEST PUSH1 0x0 PUSH2 0x17A0 DUP3 PUSH2 0x1775 JUMP JUMPDEST SWAP1 POP SWAP2 SWAP1 POP JUMP JUMPDEST PUSH2 0x17B0 DUP2 PUSH2 0x1795 JUMP JUMPDEST DUP2 EQ PUSH2 0x17BB JUMPI PUSH1 0x0 DUP1 REVERT JUMPDEST POP JUMP JUMPDEST PUSH1 0x0 DUP2 CALLDATALOAD SWAP1 POP PUSH2 0x17CD DUP2 PUSH2 0x17A7 JUMP JUMPDEST SWAP3 SWAP2 POP POP JUMP JUMPDEST PUSH1 0x0 PUSH1 0x20 DUP3 DUP5 SUB SLT ISZERO PUSH2 0x17E9 JUMPI PUSH2 0x17E8 PUSH2 0x164D JUMP JUMPDEST JUMPDEST PUSH1 0x0 PUSH2 0x17F7 DUP5 DUP3 DUP6 ADD PUSH2 0x17BE JUMP JUMPDEST SWAP2 POP POP SWAP3 SWAP2 POP POP JUMP JUMPDEST PUSH1 0x0 DUP2 MLOAD SWAP1 POP SWAP2 SWAP1 POP JUMP JUMPDEST PUSH1 0x0 DUP3 DUP3 MSTORE PUSH1 0x20 DUP3 ADD SWAP1 POP SWAP3 SWAP2 POP POP JUMP JUMPDEST PUSH1 0x0 DUP2 SWAP1 POP PUSH1 0x20 DUP3 ADD SWAP1 POP SWAP2 SWAP1 POP JUMP JUMPDEST PUSH2 0x1835 DUP2 PUSH2 0x15D9 JUMP JUMPDEST DUP3 MSTORE POP POP JUMP JUMPDEST PUSH1 0x0 PUSH2 0x1847 DUP4 DUP4 PUSH2 0x182C JUMP JUMPDEST PUSH1 0x20 DUP4 ADD SWAP1 POP SWAP3 SWAP2 POP POP JUMP JUMPDEST PUSH1 0x0 PUSH1 0x20 DUP3 ADD SWAP1 POP SWAP2 SWAP1 POP JUMP JUMPDEST PUSH1 0x0 PUSH2 0x186B DUP3 PUSH2 0x1800 JUMP JUMPDEST PUSH2 0x1875 DUP2 DUP6 PUSH2 0x180B JUMP JUMPDEST SWAP4 POP PUSH2 0x1880 DUP4 PUSH2 0x181C JUMP JUMPDEST DUP1 PUSH1 0x0 JUMPDEST DUP4 DUP2 LT ISZERO PUSH2 0x18B1 JUMPI DUP2 MLOAD PUSH2 0x1898 DUP9 DUP3 PUSH2 0x183B JUMP JUMPDEST SWAP8 POP PUSH2 0x18A3 DUP4 PUSH2 0x1853 JUMP JUMPDEST SWAP3 POP POP PUSH1 0x1 DUP2 ADD SWAP1 POP PUSH2 0x1884 JUMP JUMPDEST POP DUP6 SWAP4 POP POP POP POP SWAP3 SWAP2 POP POP JUMP JUMPDEST PUSH1 0x0 PUSH1 0x20 DUP3 ADD SWAP1 POP DUP2 DUP2 SUB PUSH1 0x0 DUP4 ADD MSTORE PUSH2 0x18D8 DUP2 DUP5 PUSH2 0x1860 JUMP JUMPDEST SWAP1 POP SWAP3 SWAP2 POP POP JUMP JUMPDEST PUSH1 0x0 DUP2 MLOAD SWAP1 POP SWAP2 SWAP1 POP JUMP JUMPDEST PUSH1 0x0 DUP3 DUP3 MSTORE PUSH1 0x20 DUP3 ADD SWAP1 POP SWAP3 SWAP2 POP POP JUMP JUMPDEST PUSH1 0x0 JUMPDEST DUP4 DUP2 LT ISZERO PUSH2 0x191A JUMPI DUP1 DUP3 ADD MLOAD DUP2 DUP5 ADD MSTORE PUSH1 0x20 DUP2 ADD SWAP1 POP PUSH2 0x18FF JUMP JUMPDEST PUSH1 0x0 DUP5 DUP5 ADD MSTORE POP POP POP POP JUMP JUMPDEST PUSH1 0x0 PUSH1 0x1F NOT PUSH1 0x1F DUP4 ADD AND SWAP1 POP SWAP2 SWAP1 POP JUMP JUMPDEST PUSH1 0x0 PUSH2 0x1942 DUP3 PUSH2 0x18E0 JUMP JUMPDEST PUSH2 0x194C DUP2 DUP6 PUSH2 0x18EB JUMP JUMPDEST SWAP4 POP PUSH2 0x195C DUP2 DUP6 PUSH1 0x20 DUP7 ADD PUSH2 0x18FC JUMP JUMPDEST PUSH2 0x1965 DUP2 PUSH2 0x1926 JUMP JUMPDEST DUP5 ADD SWAP2 POP POP SWAP3 SWAP2 POP POP JUMP JUMPDEST PUSH1 0x0 PUSH2 0xFFFF DUP3 AND SWAP1 POP SWAP2 SWAP1 POP JUMP JUMPDEST PUSH2 0x1987 DUP2 PUSH2 0x1970 JUMP JUMPDEST DUP3 MSTORE POP POP JUMP JUMPDEST PUSH1 0x0 PUSH4 0xFFFFFFFF DUP3 AND SWAP1 POP SWAP2 SWAP1 POP JUMP JUMPDEST PUSH2 0x19A6 DUP2 PUSH2 0x198D JUMP JUMPDEST DUP3 MSTORE POP POP JUMP JUMPDEST PUSH1 0x0 PUSH1 0xC0 DUP3 ADD SWAP1 POP DUP2 DUP2 SUB PUSH1 0x0 DUP4 ADD MSTORE PUSH2 0x19C6 DUP2 DUP10 PUSH2 0x1937 JUMP JUMPDEST SWAP1 POP PUSH2 0x19D5 PUSH1 0x20 DUP4 ADD DUP9 PUSH2 0x197E JUMP JUMPDEST PUSH2 0x19E2 PUSH1 0x40 DUP4 ADD DUP8 PUSH2 0x197E JUMP JUMPDEST PUSH2 0x19EF PUSH1 0x60 DUP4 ADD DUP7 PUSH2 0x197E JUMP JUMPDEST PUSH2 0x19FC PUSH1 0x80 DUP4 ADD DUP6 PUSH2 0x199D JUMP JUMPDEST PUSH2 0x1A09 PUSH1 0xA0 DUP4 ADD DUP5 PUSH2 0x199D JUMP JUMPDEST SWAP8 SWAP7 POP POP POP POP POP POP POP JUMP JUMPDEST PUSH2 0x1A1D DUP2 PUSH2 0x1795 JUMP JUMPDEST DUP3 MSTORE POP POP JUMP JUMPDEST PUSH1 0x0 PUSH1 0x20 DUP3 ADD SWAP1 POP PUSH2 0x1A38 PUSH1 0x0 DUP4 ADD DUP5 PUSH2 0x1A14 JUMP JUMPDEST SWAP3 SWAP2 POP POP JUMP JUMPDEST PUSH1 0x0 DUP1 REVERT JUMPDEST PUSH32 0x4E487B7100000000000000000000000000000000000000000000000000000000 PUSH1 0x0 MSTORE PUSH1 0x41 PUSH1 0x4 MSTORE PUSH1 0x24 PUSH1 0x0 REVERT JUMPDEST PUSH2 0x1A7B DUP3 PUSH2 0x1926 JUMP JUMPDEST DUP2 ADD DUP2 DUP2 LT PUSH8 0xFFFFFFFFFFFFFFFF DUP3 GT OR ISZERO PUSH2 0x1A9A JUMPI PUSH2 0x1A99 PUSH2 0x1A43 JUMP JUMPDEST JUMPDEST DUP1 PUSH1 0x40 MSTORE POP POP POP JUMP JUMPDEST PUSH1 0x0 PUSH2 0x1AAD PUSH2 0x1643 JUMP JUMPDEST SWAP1 POP PUSH2 0x1AB9 DUP3 DUP3 PUSH2 0x1A72 JUMP JUMPDEST SWAP2 SWAP1 POP JUMP JUMPDEST PUSH1 0x0 PUSH8 0xFFFFFFFFFFFFFFFF DUP3 GT ISZERO PUSH2 0x1AD9 JUMPI PUSH2 0x1AD8 PUSH2 0x1A43 JUMP JUMPDEST JUMPDEST PUSH2 0x1AE2 DUP3 PUSH2 0x1926 JUMP JUMPDEST SWAP1 POP PUSH1 0x20 DUP2 ADD SWAP1 POP SWAP2 SWAP1 POP JUMP JUMPDEST DUP3 DUP2 DUP4 CALLDATACOPY PUSH1 0x0 DUP4 DUP4 ADD MSTORE POP POP POP JUMP JUMPDEST PUSH1 0x0 PUSH2 0x1B11 PUSH2 0x1B0C DUP5 PUSH2 0x1ABE JUMP JUMPDEST PUSH2 0x1AA3 JUMP JUMPDEST SWAP1 POP DUP3 DUP2 MSTORE PUSH1 0x20 DUP2 ADD DUP5 DUP5 DUP5 ADD GT ISZERO PUSH2 0x1B2D JUMPI PUSH2 0x1B2C PUSH2 0x1A3E JUMP JUMPDEST JUMPDEST PUSH2 0x1B38 DUP5 DUP3 DUP6 PUSH2 0x1AEF JUMP JUMPDEST POP SWAP4 SWAP3 POP POP POP JUMP JUMPDEST PUSH1 0x0 DUP3 PUSH1 0x1F DUP4 ADD SLT PUSH2 0x1B55 JUMPI PUSH2 0x1B54 PUSH2 0x16B0 JUMP JUMPDEST JUMPDEST DUP2 CALLDATALOAD PUSH2 0x1B65 DUP5 DUP3 PUSH1 0x20 DUP7 ADD PUSH2 0x1AFE JUMP JUMPDEST SWAP2 POP POP SWAP3 SWAP2 POP POP JUMP JUMPDEST PUSH1 0x0 PUSH1 0x20 DUP3 DUP5 SUB SLT ISZERO PUSH2 0x1B84 JUMPI PUSH2 0x1B83 PUSH2 0x164D JUMP JUMPDEST JUMPDEST PUSH1 0x0 DUP3 ADD CALLDATALOAD PUSH8 0xFFFFFFFFFFFFFFFF DUP2 GT ISZERO PUSH2 0x1BA2 JUMPI PUSH2 0x1BA1 PUSH2 0x1652 JUMP JUMPDEST JUMPDEST PUSH2 0x1BAE DUP5 DUP3 DUP6 ADD PUSH2 0x1B40 JUMP JUMPDEST SWAP2 POP POP SWAP3 SWAP2 POP POP JUMP JUMPDEST PUSH1 0x0 DUP1 PUSH1 0x40 DUP4 DUP6 SUB SLT ISZERO PUSH2 0x1BCE JUMPI PUSH2 0x1BCD PUSH2 0x164D JUMP JUMPDEST JUMPDEST PUSH1 0x0 PUSH2 0x1BDC DUP6 DUP3 DUP7 ADD PUSH2 0x166E JUMP JUMPDEST SWAP3 POP POP PUSH1 0x20 PUSH2 0x1BED DUP6 DUP3 DUP7 ADD PUSH2 0x166E JUMP JUMPDEST SWAP2 POP POP SWAP3 POP SWAP3 SWAP1 POP JUMP JUMPDEST PUSH1 0x0 PUSH2 0x1C02 DUP3 PUSH2 0x1775 JUMP JUMPDEST SWAP1 POP SWAP2 SWAP1 POP JUMP JUMPDEST PUSH2 0x1C12 DUP2 PUSH2 0x1BF7 JUMP JUMPDEST DUP2 EQ PUSH2 0x1C1D JUMPI PUSH1 0x0 DUP1 REVERT JUMPDEST POP JUMP JUMPDEST PUSH1 0x0 DUP2 CALLDATALOAD SWAP1 POP PUSH2 0x1C2F DUP2 PUSH2 0x1C09 JUMP JUMPDEST SWAP3 SWAP2 POP POP JUMP JUMPDEST PUSH1 0x0 PUSH1 0x20 DUP3 DUP5 SUB SLT ISZERO PUSH2 0x1C4B JUMPI PUSH2 0x1C4A PUSH2 0x164D JUMP JUMPDEST JUMPDEST PUSH1 0x0 PUSH2 0x1C59 DUP5 DUP3 DUP6 ADD PUSH2 0x1C20 JUMP JUMPDEST SWAP2 POP POP SWAP3 SWAP2 POP POP JUMP JUMPDEST PUSH32 0x7364660000000000000000000000000000000000000000000000000000000000 PUSH1 0x0 DUP3 ADD MSTORE POP JUMP JUMPDEST PUSH1 0x0 PUSH2 0x1C98 PUSH1 0x3 DUP4 PUSH2 0x18EB JUMP JUMPDEST SWAP2 POP PUSH2 0x1CA3 DUP3 PUSH2 0x1C62 JUMP JUMPDEST PUSH1 0x20 DUP3 ADD SWAP1 POP SWAP2 SWAP1 POP JUMP JUMPDEST PUSH1 0x0 PUSH1 0x20 DUP3 ADD SWAP1 POP DUP2 DUP2 SUB PUSH1 0x0 DUP4 ADD MSTORE PUSH2 0x1CC7 DUP2 PUSH2 0x1C8B JUMP JUMPDEST SWAP1 POP SWAP2 SWAP1 POP JUMP JUMPDEST PUSH32 0x4E487B7100000000000000000000000000000000000000000000000000000000 PUSH1 0x0 MSTORE PUSH1 0x32 PUSH1 0x4 MSTORE PUSH1 0x24 PUSH1 0x0 REVERT JUMPDEST PUSH32 0x4E487B7100000000000000000000000000000000000000000000000000000000 PUSH1 0x0 MSTORE PUSH1 0x11 PUSH1 0x4 MSTORE PUSH1 0x24 PUSH1 0x0 REVERT JUMPDEST PUSH1 0x0 PUSH2 0x1D37 DUP3 PUSH2 0x198D JUMP JUMPDEST SWAP2 POP PUSH4 0xFFFFFFFF DUP3 SUB PUSH2 0x1D4D JUMPI PUSH2 0x1D4C PUSH2 0x1CFD JUMP JUMPDEST JUMPDEST PUSH1 0x1 DUP3 ADD SWAP1 POP SWAP2 SWAP1 POP JUMP JUMPDEST PUSH32 0x6572726F72000000000000000000000000000000000000000000000000000000 PUSH1 0x0 DUP3 ADD MSTORE POP JUMP JUMPDEST PUSH1 0x0 PUSH2 0x1D8E PUSH1 0x5 DUP4 PUSH2 0x18EB JUMP JUMPDEST SWAP2 POP PUSH2 0x1D99 DUP3 PUSH2 0x1D58 JUMP JUMPDEST PUSH1 0x20 DUP3 ADD SWAP1 POP SWAP2 SWAP1 POP JUMP JUMPDEST PUSH1 0x0 PUSH1 0x20 DUP3 ADD SWAP1 POP DUP2 DUP2 SUB PUSH1 0x0 DUP4 ADD MSTORE PUSH2 0x1DBD DUP2 PUSH2 0x1D81 JUMP JUMPDEST SWAP1 POP SWAP2 SWAP1 POP JUMP JUMPDEST PUSH1 0x0 DUP3 SWAP1 POP SWAP3 SWAP2 POP POP JUMP JUMPDEST PUSH32 0x4E487B7100000000000000000000000000000000000000000000000000000000 PUSH1 0x0 MSTORE PUSH1 0x22 PUSH1 0x4 MSTORE PUSH1 0x24 PUSH1 0x0 REVERT JUMPDEST PUSH1 0x0 PUSH1 0x2 DUP3 DIV SWAP1 POP PUSH1 0x1 DUP3 AND DUP1 PUSH2 0x1E16 JUMPI PUSH1 0x7F DUP3 AND SWAP2 POP JUMPDEST PUSH1 0x20 DUP3 LT DUP2 SUB PUSH2 0x1E29 JUMPI PUSH2 0x1E28 PUSH2 0x1DCF JUMP JUMPDEST JUMPDEST POP SWAP2 SWAP1 POP JUMP JUMPDEST PUSH1 0x0 DUP2 SWAP1 POP DUP2 PUSH1 0x0 MSTORE PUSH1 0x20 PUSH1 0x0 KECCAK256 SWAP1 POP SWAP2 SWAP1 POP JUMP JUMPDEST PUSH1 0x0 PUSH1 0x20 PUSH1 0x1F DUP4 ADD DIV SWAP1 POP SWAP2 SWAP1 POP JUMP JUMPDEST PUSH1 0x0 DUP3 DUP3 SHL SWAP1 POP SWAP3 SWAP2 POP POP JUMP JUMPDEST PUSH1 0x0 PUSH1 0x8 DUP4 MUL PUSH2 0x1E91 PUSH32 0xFFFFFFFFFFFFFFFFFFFFFFFFFFFFFFFFFFFFFFFFFFFFFFFFFFFFFFFFFFFFFFFF DUP3 PUSH2 0x1E54 JUMP JUMPDEST PUSH2 0x1E9B DUP7 DUP4 PUSH2 0x1E54 JUMP JUMPDEST SWAP6 POP DUP1 NOT DUP5 AND SWAP4 POP DUP1 DUP7 AND DUP5 OR SWAP3 POP POP POP SWAP4 SWAP3 POP POP POP JUMP JUMPDEST PUSH1 0x0 DUP2 SWAP1 POP SWAP2 SWAP1 POP JUMP JUMPDEST PUSH1 0x0 PUSH2 0x1ED8 PUSH2 0x1ED3 PUSH2 0x1ECE DUP5 PUSH2 0x15D9 JUMP JUMPDEST PUSH2 0x1EB3 JUMP JUMPDEST PUSH2 0x15D9 JUMP JUMPDEST SWAP1 POP SWAP2 SWAP1 POP JUMP JUMPDEST PUSH1 0x0 DUP2 SWAP1 POP SWAP2 SWAP1 POP JUMP JUMPDEST PUSH2 0x1EF2 DUP4 PUSH2 0x1EBD JUMP JUMPDEST PUSH2 0x1F06 PUSH2 0x1EFE DUP3 PUSH2 0x1EDF JUMP JUMPDEST DUP5 DUP5 SLOAD PUSH2 0x1E61 JUMP JUMPDEST DUP3 SSTORE POP POP POP POP JUMP JUMPDEST PUSH1 0x0 SWAP1 JUMP JUMPDEST PUSH2 0x1F1B PUSH2 0x1F0E JUMP JUMPDEST PUSH2 0x1F26 DUP2 DUP5 DUP5 PUSH2 0x1EE9 JUMP JUMPDEST POP POP POP JUMP JUMPDEST JUMPDEST DUP2 DUP2 LT ISZERO PUSH2 0x1F4A JUMPI PUSH2 0x1F3F PUSH1 0x0 DUP3 PUSH2 0x1F13 JUMP JUMPDEST PUSH1 0x1 DUP2 ADD SWAP1 POP PUSH2 0x1F2C JUMP JUMPDEST POP POP JUMP JUMPDEST PUSH1 0x1F DUP3 GT ISZERO PUSH2 0x1F8F JUMPI PUSH2 0x1F60 DUP2 PUSH2 0x1E2F JUMP JUMPDEST PUSH2 0x1F69 DUP5 PUSH2 0x1E44 JUMP JUMPDEST DUP2 ADD PUSH1 0x20 DUP6 LT ISZERO PUSH2 0x1F78 JUMPI DUP2 SWAP1 POP JUMPDEST PUSH2 0x1F8C PUSH2 0x1F84 DUP6 PUSH2 0x1E44 JUMP JUMPDEST DUP4 ADD DUP3 PUSH2 0x1F2B JUMP JUMPDEST POP POP JUMPDEST POP POP POP JUMP JUMPDEST PUSH1 0x0 DUP3 DUP3 SHR SWAP1 POP SWAP3 SWAP2 POP POP JUMP JUMPDEST PUSH1 0x0 PUSH2 0x1FB2 PUSH1 0x0 NOT DUP5 PUSH1 0x8 MUL PUSH2 0x1F94 JUMP JUMPDEST NOT DUP1 DUP4 AND SWAP2 POP POP SWAP3 SWAP2 POP POP JUMP JUMPDEST PUSH1 0x0 PUSH2 0x1FCB DUP4 DUP4 PUSH2 0x1FA1 JUMP JUMPDEST SWAP2 POP DUP3 PUSH1 0x2 MUL DUP3 OR SWAP1 POP SWAP3 SWAP2 POP POP JUMP JUMPDEST PUSH2 0x1FE5 DUP4 DUP4 PUSH2 0x1DC4 JUMP JUMPDEST PUSH8 0xFFFFFFFFFFFFFFFF DUP2 GT ISZERO PUSH2 0x1FFE JUMPI PUSH2 0x1FFD PUSH2 0x1A43 JUMP JUMPDEST JUMPDEST PUSH2 0x2008 DUP3 SLOAD PUSH2 0x1DFE JUMP JUMPDEST PUSH2 0x2013 DUP3 DUP3 DUP6 PUSH2 0x1F4E JUMP JUMPDEST PUSH1 0x0 PUSH1 0x1F DUP4 GT PUSH1 0x1 DUP2 EQ PUSH2 0x2042 JUMPI PUSH1 0x0 DUP5 ISZERO PUSH2 0x2030 JUMPI DUP3 DUP8 ADD CALLDATALOAD SWAP1 POP JUMPDEST PUSH2 0x203A DUP6 DUP3 PUSH2 0x1FBF JUMP JUMPDEST DUP7 SSTORE POP PUSH2 0x20A2 JUMP JUMPDEST PUSH1 0x1F NOT DUP5 AND PUSH2 0x2050 DUP7 PUSH2 0x1E2F JUMP JUMPDEST PUSH1 0x0 JUMPDEST DUP3 DUP2 LT ISZERO PUSH2 0x2078 JUMPI DUP5 DUP10 ADD CALLDATALOAD DUP3 SSTORE PUSH1 0x1 DUP3 ADD SWAP2 POP PUSH1 0x20 DUP6 ADD SWAP5 POP PUSH1 0x20 DUP2 ADD SWAP1 POP PUSH2 0x2053 JUMP JUMPDEST DUP7 DUP4 LT ISZERO PUSH2 0x2095 JUMPI DUP5 DUP10 ADD CALLDATALOAD PUSH2 0x2091 PUSH1 0x1F DUP10 AND DUP3 PUSH2 0x1FA1 JUMP JUMPDEST DUP4 SSTORE POP JUMPDEST PUSH1 0x1 PUSH1 0x2 DUP9 MUL ADD DUP9 SSTORE POP POP POP JUMPDEST POP POP POP POP POP POP POP JUMP JUMPDEST PUSH32 0x4D75737420636F6E7472616374206F776E657200000000000000000000000000 PUSH1 0x0 DUP3 ADD MSTORE POP JUMP JUMPDEST PUSH1 0x0 PUSH2 0x20E1 PUSH1 0x13 DUP4 PUSH2 0x18EB JUMP JUMPDEST SWAP2 POP PUSH2 0x20EC DUP3 PUSH2 0x20AB JUMP JUMPDEST PUSH1 0x20 DUP3 ADD SWAP1 POP SWAP2 SWAP1 POP JUMP JUMPDEST PUSH1 0x0 PUSH1 0x20 DUP3 ADD SWAP1 POP DUP2 DUP2 SUB PUSH1 0x0 DUP4 ADD MSTORE PUSH2 0x2110 DUP2 PUSH2 0x20D4 JUMP JUMPDEST SWAP1 POP SWAP2 SWAP1 POP JUMP JUMPDEST PUSH1 0x0 PUSH2 0x2122 DUP3 PUSH2 0x15D9 JUMP JUMPDEST SWAP2 POP PUSH32 0xFFFFFFFFFFFFFFFFFFFFFFFFFFFFFFFFFFFFFFFFFFFFFFFFFFFFFFFFFFFFFFFF DUP3 SUB PUSH2 0x2154 JUMPI PUSH2 0x2153 PUSH2 0x1CFD JUMP JUMPDEST JUMPDEST PUSH1 0x1 DUP3 ADD SWAP1 POP SWAP2 SWAP1 POP JUMP JUMPDEST PUSH32 0x4E487B7100000000000000000000000000000000000000000000000000000000 PUSH1 0x0 MSTORE PUSH1 0x12 PUSH1 0x4 MSTORE PUSH1 0x24 PUSH1 0x0 REVERT JUMPDEST PUSH1 0x0 PUSH2 0x2199 DUP3 PUSH2 0x1970 JUMP JUMPDEST SWAP2 POP PUSH2 0x21A4 DUP4 PUSH2 0x1970 JUMP JUMPDEST SWAP3 POP DUP3 PUSH2 0x21B4 JUMPI PUSH2 0x21B3 PUSH2 0x215F JUMP JUMPDEST JUMPDEST DUP3 DUP3 MOD SWAP1 POP SWAP3 SWAP2 POP POP JUMP JUMPDEST PUSH1 0x0 PUSH2 0x21CA DUP3 PUSH2 0x1970 JUMP JUMPDEST SWAP2 POP PUSH2 0x21D5 DUP4 PUSH2 0x1970 JUMP JUMPDEST SWAP3 POP DUP3 DUP3 SUB SWAP1 POP PUSH2 0xFFFF DUP2 GT ISZERO PUSH2 0x21EF JUMPI PUSH2 0x21EE PUSH2 0x1CFD JUMP JUMPDEST JUMPDEST SWAP3 SWAP2 POP POP JUMP JUMPDEST PUSH1 0x0 PUSH2 0x2200 DUP3 PUSH2 0x1970 JUMP JUMPDEST SWAP2 POP PUSH2 0xFFFF DUP3 SUB PUSH2 0x2214 JUMPI PUSH2 0x2213 PUSH2 0x1CFD JUMP JUMPDEST JUMPDEST PUSH1 0x1 DUP3 ADD SWAP1 POP SWAP2 SWAP1 POP JUMP JUMPDEST PUSH1 0x0 PUSH2 0x222A DUP3 PUSH2 0x1970 JUMP JUMPDEST SWAP2 POP PUSH2 0x2235 DUP4 PUSH2 0x1970 JUMP JUMPDEST SWAP3 POP DUP3 DUP3 ADD SWAP1 POP PUSH2 0xFFFF DUP2 GT ISZERO PUSH2 0x224F JUMPI PUSH2 0x224E PUSH2 0x1CFD JUMP JUMPDEST JUMPDEST SWAP3 SWAP2 POP POP JUMP JUMPDEST PUSH1 0x0 DUP2 SWAP1 POP SWAP3 SWAP2 POP POP JUMP JUMPDEST PUSH1 0x0 PUSH2 0x226B DUP3 PUSH2 0x18E0 JUMP JUMPDEST PUSH2 0x2275 DUP2 DUP6 PUSH2 0x2255 JUMP JUMPDEST SWAP4 POP PUSH2 0x2285 DUP2 DUP6 PUSH1 0x20 DUP7 ADD PUSH2 0x18FC JUMP JUMPDEST DUP1 DUP5 ADD SWAP2 POP POP SWAP3 SWAP2 POP POP JUMP JUMPDEST PUSH1 0x0 DUP2 SWAP1 POP SWAP2 SWAP1 POP JUMP JUMPDEST PUSH2 0x22AC PUSH2 0x22A7 DUP3 PUSH2 0x15D9 JUMP JUMPDEST PUSH2 0x2291 JUMP JUMPDEST DUP3 MSTORE POP POP JUMP JUMPDEST PUSH1 0x0 PUSH2 0x22BE DUP3 DUP6 PUSH2 0x2260 JUMP JUMPDEST SWAP2 POP PUSH2 0x22CA DUP3 DUP5 PUSH2 0x229B JUMP JUMPDEST PUSH1 0x20 DUP3 ADD SWAP2 POP DUP2 SWAP1 POP SWAP4 SWAP3 POP POP POP JUMP JUMPDEST PUSH1 0x0 PUSH2 0x22E5 DUP3 PUSH2 0x15D9 JUMP JUMPDEST SWAP2 POP PUSH2 0x22F0 DUP4 PUSH2 0x15D9 JUMP JUMPDEST SWAP3 POP DUP3 PUSH2 0x2300 JUMPI PUSH2 0x22FF PUSH2 0x215F JUMP JUMPDEST JUMPDEST DUP3 DUP3 MOD SWAP1 POP SWAP3 SWAP2 POP POP JUMP JUMPDEST PUSH2 0x2314 DUP3 PUSH2 0x18E0 JUMP JUMPDEST PUSH8 0xFFFFFFFFFFFFFFFF DUP2 GT ISZERO PUSH2 0x232D JUMPI PUSH2 0x232C PUSH2 0x1A43 JUMP JUMPDEST JUMPDEST PUSH2 0x2337 DUP3 SLOAD PUSH2 0x1DFE JUMP JUMPDEST PUSH2 0x2342 DUP3 DUP3 DUP6 PUSH2 0x1F4E JUMP JUMPDEST PUSH1 0x0 PUSH1 0x20 SWAP1 POP PUSH1 0x1F DUP4 GT PUSH1 0x1 DUP2 EQ PUSH2 0x2375 JUMPI PUSH1 0x0 DUP5 ISZERO PUSH2 0x2363 JUMPI DUP3 DUP8 ADD MLOAD SWAP1 POP JUMPDEST PUSH2 0x236D DUP6 DUP3 PUSH2 0x1FBF JUMP JUMPDEST DUP7 SSTORE POP PUSH2 0x23D5 JUMP JUMPDEST PUSH1 0x1F NOT DUP5 AND PUSH2 0x2383 DUP7 PUSH2 0x1E2F JUMP JUMPDEST PUSH1 0x0 JUMPDEST DUP3 DUP2 LT ISZERO PUSH2 0x23AB JUMPI DUP5 DUP10 ADD MLOAD DUP3 SSTORE PUSH1 0x1 DUP3 ADD SWAP2 POP PUSH1 0x20 DUP6 ADD SWAP5 POP PUSH1 0x20 DUP2 ADD SWAP1 POP PUSH2 0x2386 JUMP JUMPDEST DUP7 DUP4 LT ISZERO PUSH2 0x23C8 JUMPI DUP5 DUP10 ADD MLOAD PUSH2 0x23C4 PUSH1 0x1F DUP10 AND DUP3 PUSH2 0x1FA1 JUMP JUMPDEST DUP4 SSTORE POP JUMPDEST PUSH1 0x1 PUSH1 0x2 DUP9 MUL ADD DUP9 SSTORE POP POP POP JUMPDEST POP POP POP POP POP POP JUMP JUMPDEST PUSH1 0x0 PUSH2 0x23E8 DUP3 PUSH2 0x15D9 JUMP JUMPDEST SWAP2 POP PUSH2 0x23F3 DUP4 PUSH2 0x15D9 JUMP JUMPDEST SWAP3 POP DUP3 DUP3 SUB SWAP1 POP DUP2 DUP2 GT ISZERO PUSH2 0x240B JUMPI PUSH2 0x240A PUSH2 0x1CFD JUMP JUMPDEST JUMPDEST SWAP3 SWAP2 POP POP JUMP JUMPDEST PUSH1 0x0 PUSH2 0x242C PUSH2 0x2427 PUSH2 0x2422 DUP5 PUSH2 0x1970 JUMP JUMPDEST PUSH2 0x1EB3 JUMP JUMPDEST PUSH2 0x15D9 JUMP JUMPDEST SWAP1 POP SWAP2 SWAP1 POP JUMP JUMPDEST PUSH2 0x243C DUP2 PUSH2 0x2411 JUMP JUMPDEST DUP3 MSTORE POP POP JUMP JUMPDEST PUSH1 0x0 PUSH1 0x60 DUP3 ADD SWAP1 POP PUSH2 0x2457 PUSH1 0x0 DUP4 ADD DUP7 PUSH2 0x15E3 JUMP JUMPDEST DUP2 DUP2 SUB PUSH1 0x20 DUP4 ADD MSTORE PUSH2 0x2469 DUP2 DUP6 PUSH2 0x1937 JUMP JUMPDEST SWAP1 POP PUSH2 0x2478 PUSH1 0x40 DUP4 ADD DUP5 PUSH2 0x2433 JUMP JUMPDEST SWAP5 SWAP4 POP POP POP POP JUMP JUMPDEST PUSH1 0x0 DUP2 PUSH1 0x60 SHL SWAP1 POP SWAP2 SWAP1 POP JUMP JUMPDEST PUSH1 0x0 PUSH2 0x2498 DUP3 PUSH2 0x2480 JUMP JUMPDEST SWAP1 POP SWAP2 SWAP1 POP JUMP JUMPDEST PUSH1 0x0 PUSH2 0x24AA DUP3 PUSH2 0x248D JUMP JUMPDEST SWAP1 POP SWAP2 SWAP1 POP JUMP JUMPDEST PUSH2 0x24C2 PUSH2 0x24BD DUP3 PUSH2 0x1795 JUMP JUMPDEST PUSH2 0x249F JUMP JUMPDEST DUP3 MSTORE POP POP JUMP JUMPDEST PUSH1 0x0 PUSH2 0x24D4 DUP3 DUP7 PUSH2 0x229B JUMP JUMPDEST PUSH1 0x20 DUP3 ADD SWAP2 POP PUSH2 0x24E4 DUP3 DUP6 PUSH2 0x24B1 JUMP JUMPDEST PUSH1 0x14 DUP3 ADD SWAP2 POP PUSH2 0x24F4 DUP3 DUP5 PUSH2 0x229B JUMP JUMPDEST PUSH1 0x20 DUP3 ADD SWAP2 POP DUP2 SWAP1 POP SWAP5 SWAP4 POP POP POP POP JUMP JUMPDEST PUSH1 0x0 PUSH2 0x2510 DUP3 PUSH2 0x15D9 JUMP JUMPDEST SWAP2 POP PUSH2 0x251B DUP4 PUSH2 0x15D9 JUMP JUMPDEST SWAP3 POP DUP3 DUP3 ADD SWAP1 POP DUP1 DUP3 GT ISZERO PUSH2 0x2533 JUMPI PUSH2 0x2532 PUSH2 0x1CFD JUMP JUMPDEST JUMPDEST SWAP3 SWAP2 POP POP JUMP JUMPDEST PUSH1 0x0 PUSH2 0x2544 DUP3 PUSH2 0x15D9 JUMP JUMPDEST SWAP2 POP PUSH2 0x254F DUP4 PUSH2 0x15D9 JUMP JUMPDEST SWAP3 POP DUP3 PUSH2 0x255F JUMPI PUSH2 0x255E PUSH2 0x215F JUMP JUMPDEST JUMPDEST DUP3 DUP3 DIV SWAP1 POP SWAP3 SWAP2 POP POP JUMP JUMPDEST PUSH1 0x0 PUSH2 0x2575 DUP3 PUSH2 0x198D JUMP JUMPDEST SWAP2 POP PUSH2 0x2580 DUP4 PUSH2 0x198D JUMP JUMPDEST SWAP3 POP DUP3 DUP3 SUB SWAP1 POP PUSH4 0xFFFFFFFF DUP2 GT ISZERO PUSH2 0x259C JUMPI PUSH2 0x259B PUSH2 0x1CFD JUMP JUMPDEST JUMPDEST SWAP3 SWAP2 POP POP JUMP JUMPDEST PUSH32 0x4E487B7100000000000000000000000000000000000000000000000000000000 PUSH1 0x0 MSTORE PUSH1 0x1 PUSH1 0x4 MSTORE PUSH1 0x24 PUSH1 0x0 REVERT INVALID LOG2 PUSH5 0x6970667358 0x22 SLT KECCAK256 SLT BYTE 0xF9 DUP11 0x21 CHAINID DUP13 PUSH10 0xF3BB19A8F0855E2A7341 0xC3 0xA5 AND 0xEB NOT RETURNDATACOPY DUP8 PC SWAP3 0x28 DUP14 CALLVALUE 0x2D BASEFEE PUSH5 0x736F6C6343 STOP ADDMOD SLT STOP CALLER "
		},
		"gasEstimates": {
			"creation": {
				"codeDepositCost": "1947000",
				"executionCost": "infinite",
				"totalCost": "infinite"
			},
			"external": {
				"attack(uint256,uint256)": "infinite",
				"buyZombic(string)": "infinite",
				"changeName(string,uint256)": "infinite",
				"checkDeployTest()": "2567",
				"cooldownTime()": "2451",
				"createZombic(string)": "infinite",
				"getZombicsByOwner(address)": "infinite",
				"leveUp(uint256)": "31427",
				"leveUpFee()": "2496",
				"owner()": "2556",
				"setUpLevelFee(uint256)": "24710",
				"setZombicPrice(uint256)": "24753",
				"transferOwnership(address)": "30690",
				"zombicCount()": "2453",
				"zombicPrice()": "2474",
				"zombicToOwber(uint256)": "2862",
				"zombics(uint256)": "infinite"
			},
			"internal": {
				"randMod(uint256)": "infinite"
			}
		},
		"methodIdentifiers": {
			"attack(uint256,uint256)": "e1fa7638",
			"buyZombic(string)": "f94f0593",
			"changeName(string,uint256)": "270dc9fd",
			"checkDeployTest()": "206c8db4",
			"cooldownTime()": "b319c6b7",
			"createZombic(string)": "a38d7e5b",
			"getZombicsByOwner(address)": "43d5d022",
			"leveUp(uint256)": "227c59e6",
			"leveUpFee()": "90ab0522",
			"owner()": "8da5cb5b",
			"setUpLevelFee(uint256)": "3a42c900",
			"setZombicPrice(uint256)": "e7eb1214",
			"transferOwnership(address)": "f2fde38b",
			"zombicCount()": "02f4db2f",
			"zombicPrice()": "3ece8f6f",
			"zombicToOwber(uint256)": "6de2e36c",
			"zombics(uint256)": "5e0b8654"
		}
	},
	"abi": [
		{
			"anonymous": false,
			"inputs": [
				{
					"indexed": false,
					"internalType": "uint256",
					"name": "zombicId",
					"type": "uint256"
				},
				{
					"indexed": false,
					"internalType": "string",
					"name": "name",
					"type": "string"
				},
				{
					"indexed": false,
					"internalType": "uint256",
					"name": "dna",
					"type": "uint256"
				}
			],
			"name": "NewZombic",
			"type": "event"
		},
		{
			"anonymous": false,
			"inputs": [
				{
					"indexed": true,
					"internalType": "address",
					"name": "previousOwner",
					"type": "address"
				},
				{
					"indexed": true,
					"internalType": "address",
					"name": "newOwner",
					"type": "address"
				}
			],
			"name": "OwnershipTransferred",
			"type": "event"
		},
		{
			"inputs": [
				{
					"internalType": "uint256",
					"name": "_zombicId",
					"type": "uint256"
				},
				{
					"internalType": "uint256",
					"name": "_targetId",
					"type": "uint256"
				}
			],
			"name": "attack",
			"outputs": [],
			"stateMutability": "nonpayable",
			"type": "function"
		},
		{
			"inputs": [
				{
					"internalType": "string",
					"name": "_name",
					"type": "string"
				}
			],
			"name": "buyZombic",
			"outputs": [],
			"stateMutability": "payable",
			"type": "function"
		},
		{
			"inputs": [
				{
					"internalType": "string",
					"name": "_name",
					"type": "string"
				},
				{
					"internalType": "uint256",
					"name": "_zombicId",
					"type": "uint256"
				}
			],
			"name": "changeName",
			"outputs": [],
			"stateMutability": "nonpayable",
			"type": "function"
		},
		{
			"inputs": [],
			"name": "checkDeployTest",
			"outputs": [
				{
					"internalType": "bool",
					"name": "",
					"type": "bool"
				}
			],
			"stateMutability": "view",
			"type": "function"
		},
		{
			"inputs": [],
			"name": "cooldownTime",
			"outputs": [
				{
					"internalType": "uint256",
					"name": "",
					"type": "uint256"
				}
			],
			"stateMutability": "view",
			"type": "function"
		},
		{
			"inputs": [
				{
					"internalType": "string",
					"name": "_name",
					"type": "string"
				}
			],
			"name": "createZombic",
			"outputs": [],
			"stateMutability": "nonpayable",
			"type": "function"
		},
		{
			"inputs": [
				{
					"internalType": "address",
					"name": "_owner",
					"type": "address"
				}
			],
			"name": "getZombicsByOwner",
			"outputs": [
				{
					"internalType": "uint256[]",
					"name": "",
					"type": "uint256[]"
				}
			],
			"stateMutability": "view",
			"type": "function"
		},
		{
			"inputs": [
				{
					"internalType": "uint256",
					"name": "_zombicId",
					"type": "uint256"
				}
			],
			"name": "leveUp",
			"outputs": [],
			"stateMutability": "payable",
			"type": "function"
		},
		{
			"inputs": [],
			"name": "leveUpFee",
			"outputs": [
				{
					"internalType": "uint256",
					"name": "",
					"type": "uint256"
				}
			],
			"stateMutability": "view",
			"type": "function"
		},
		{
			"inputs": [],
			"name": "owner",
			"outputs": [
				{
					"internalType": "address",
					"name": "",
					"type": "address"
				}
			],
			"stateMutability": "view",
			"type": "function"
		},
		{
			"inputs": [
				{
					"internalType": "uint256",
					"name": "_fee",
					"type": "uint256"
				}
			],
			"name": "setUpLevelFee",
			"outputs": [],
			"stateMutability": "nonpayable",
			"type": "function"
		},
		{
			"inputs": [
				{
					"internalType": "uint256",
					"name": "_price",
					"type": "uint256"
				}
			],
			"name": "setZombicPrice",
			"outputs": [],
			"stateMutability": "nonpayable",
			"type": "function"
		},
		{
			"inputs": [
				{
					"internalType": "address payable",
					"name": "newOwner",
					"type": "address"
				}
			],
			"name": "transferOwnership",
			"outputs": [],
			"stateMutability": "nonpayable",
			"type": "function"
		},
		{
			"inputs": [],
			"name": "zombicCount",
			"outputs": [
				{
					"internalType": "uint256",
					"name": "",
					"type": "uint256"
				}
			],
			"stateMutability": "view",
			"type": "function"
		},
		{
			"inputs": [],
			"name": "zombicPrice",
			"outputs": [
				{
					"internalType": "uint256",
					"name": "",
					"type": "uint256"
				}
			],
			"stateMutability": "view",
			"type": "function"
		},
		{
			"inputs": [
				{
					"internalType": "uint256",
					"name": "",
					"type": "uint256"
				}
			],
			"name": "zombicToOwber",
			"outputs": [
				{
					"internalType": "address",
					"name": "",
					"type": "address"
				}
			],
			"stateMutability": "view",
			"type": "function"
		},
		{
			"inputs": [
				{
					"internalType": "uint256",
					"name": "",
					"type": "uint256"
				}
			],
			"name": "zombics",
			"outputs": [
				{
					"internalType": "string",
					"name": "name",
					"type": "string"
				},
				{
					"internalType": "uint16",
					"name": "dna",
					"type": "uint16"
				},
				{
					"internalType": "uint16",
					"name": "winCount",
					"type": "uint16"
				},
				{
					"internalType": "uint16",
					"name": "loseCount",
					"type": "uint16"
				},
				{
					"internalType": "uint32",
					"name": "level",
					"type": "uint32"
				},
				{
					"internalType": "uint32",
					"name": "cooldownTime",
					"type": "uint32"
				}
			],
			"stateMutability": "view",
			"type": "function"
		}
	]
}