{
	"data": {
		"bytecode": {
			"linkReferences": {},
			"object": "608060405260008060146101000a81548160ff0219169083151502179055506010600155600154600a620000349190620002cc565b60025562015180600355662386f26fc10000600455600060055566038d7ea4c68000600a553480156200006657600080fd5b506040518060400160405280600f81526020017f5a6f6d6269634f776e65725368697000000000000000000000000000000000008152506040518060400160405280600381526020017f49544d0000000000000000000000000000000000000000000000000000000000815250336000806101000a81548173ffffffffffffffffffffffffffffffffffffffff021916908373ffffffffffffffffffffffffffffffffffffffff16021790555081600b90816200012491906200058d565b5080600c90816200013691906200058d565b50505062000674565b7f4e487b7100000000000000000000000000000000000000000000000000000000600052601160045260246000fd5b60008160011c9050919050565b6000808291508390505b6001851115620001cd57808604811115620001a557620001a46200013f565b5b6001851615620001b55780820291505b8081029050620001c5856200016e565b945062000185565b94509492505050565b600082620001e85760019050620002bb565b81620001f85760009050620002bb565b81600181146200021157600281146200021c5762000252565b6001915050620002bb565b60ff8411156200023157620002306200013f565b5b8360020a9150848211156200024b576200024a6200013f565b5b50620002bb565b5060208310610133831016604e8410600b84101617156200028c5782820a9050838111156200028657620002856200013f565b5b620002bb565b6200029b84848460016200017b565b92509050818404811115620002b557620002b46200013f565b5b81810290505b9392505050565b6000819050919050565b6000620002d982620002c2565b9150620002e683620002c2565b9250620003157fffffffffffffffffffffffffffffffffffffffffffffffffffffffffffffffff8484620001d6565b905092915050565b600081519050919050565b7f4e487b7100000000000000000000000000000000000000000000000000000000600052604160045260246000fd5b7f4e487b7100000000000000000000000000000000000000000000000000000000600052602260045260246000fd5b600060028204905060018216806200039f57607f821691505b602082108103620003b557620003b462000357565b5b50919050565b60008190508160005260206000209050919050565b60006020601f8301049050919050565b600082821b905092915050565b6000600883026200041f7fffffffffffffffffffffffffffffffffffffffffffffffffffffffffffffffff82620003e0565b6200042b8683620003e0565b95508019841693508086168417925050509392505050565b6000819050919050565b60006200046e620004686200046284620002c2565b62000443565b620002c2565b9050919050565b6000819050919050565b6200048a836200044d565b620004a2620004998262000475565b848454620003ed565b825550505050565b600090565b620004b9620004aa565b620004c68184846200047f565b505050565b5b81811015620004ee57620004e2600082620004af565b600181019050620004cc565b5050565b601f8211156200053d576200050781620003bb565b6200051284620003d0565b8101602085101562000522578190505b6200053a6200053185620003d0565b830182620004cb565b50505b505050565b600082821c905092915050565b6000620005626000198460080262000542565b1980831691505092915050565b60006200057d83836200054f565b9150826002028217905092915050565b62000598826200031d565b67ffffffffffffffff811115620005b457620005b362000328565b5b620005c0825462000386565b620005cd828285620004f2565b600060209050601f831160018114620006055760008415620005f0578287015190505b620005fc85826200056f565b8655506200066c565b601f1984166200061586620003bb565b60005b828110156200063f5784890151825560018201915060208501945060208101905062000618565b868310156200065f57848901516200065b601f8916826200054f565b8355505b6001600288020188555050505b505050505050565b613a7b80620006846000396000f3fe6080604052600436106101e35760003560e01c806370a0823111610102578063b319c6b711610095578063e985e9c511610064578063e985e9c51461070c578063ec0c175714610749578063f2fde38b14610786578063f94f0593146107af576101e3565b8063b319c6b714610652578063b88d4fde1461067d578063c87b56dd146106a6578063e7eb1214146106e3576101e3565b8063a22cb465116100d1578063a22cb465146105ae578063a38d7e5b146105d7578063a9059cbb14610600578063b2e6ceeb14610629576101e3565b806370a08231146104f05780638da5cb5b1461052d57806390ab05221461055857806395d89b4114610583576101e3565b8063270dc9fd1161017a57806343d5d0221161014957806343d5d022146103f75780635e0b8654146104345780636352211e146104765780636de2e36c146104b3576101e3565b8063270dc9fd146103515780633a42c9001461037a5780633ece8f6f146103a357806342842e0e146103ce576101e3565b8063095ea7b3116101b6578063095ea7b3146102b8578063206c8db4146102e1578063227c59e61461030c57806323b872dd14610328576101e3565b806301ffc9a7146101e857806302f4db2f1461022557806306fdde0314610250578063081812fc1461027b575b600080fd5b3480156101f457600080fd5b5061020f600480360381019061020a9190612604565b6107cb565b60405161021c919061264c565b60405180910390f35b34801561023157600080fd5b5061023a6108ad565b6040516102479190612680565b60405180910390f35b34801561025c57600080fd5b506102656108b3565b604051610272919061272b565b60405180910390f35b34801561028757600080fd5b506102a2600480360381019061029d9190612779565b610945565b6040516102af91906127e7565b60405180910390f35b3480156102c457600080fd5b506102df60048036038101906102da919061282e565b61098b565b005b3480156102ed57600080fd5b506102f6610add565b604051610303919061264c565b60405180910390f35b61032660048036038101906103219190612779565b610af0565b005b34801561033457600080fd5b5061034f600480360381019061034a919061286e565b610b9c565b005b34801561035d57600080fd5b5061037860048036038101906103739190612926565b610bfc565b005b34801561038657600080fd5b506103a1600480360381019061039c9190612779565b610d5c565b005b3480156103af57600080fd5b506103b8610df4565b6040516103c59190612680565b60405180910390f35b3480156103da57600080fd5b506103f560048036038101906103f0919061286e565b610dfa565b005b34801561040357600080fd5b5061041e60048036038101906104199190612986565b610e1a565b60405161042b9190612a71565b60405180910390f35b34801561044057600080fd5b5061045b60048036038101906104569190612779565b610f6c565b60405161046d96959493929190612acf565b60405180910390f35b34801561048257600080fd5b5061049d60048036038101906104989190612779565b61108a565b6040516104aa91906127e7565b60405180910390f35b3480156104bf57600080fd5b506104da60048036038101906104d59190612779565b6110c7565b6040516104e791906127e7565b60405180910390f35b3480156104fc57600080fd5b5061051760048036038101906105129190612986565b6110fa565b6040516105249190612680565b60405180910390f35b34801561053957600080fd5b50610542611143565b60405161054f91906127e7565b60405180910390f35b34801561056457600080fd5b5061056d611167565b60405161057a9190612680565b60405180910390f35b34801561058f57600080fd5b5061059861116d565b6040516105a5919061272b565b60405180910390f35b3480156105ba57600080fd5b506105d560048036038101906105d09190612b63565b6111ff565b005b3480156105e357600080fd5b506105fe60048036038101906105f99190612cd3565b611215565b005b34801561060c57600080fd5b506106276004803603810190610622919061282e565b6112cc565b005b34801561063557600080fd5b50610650600480360381019061064b9190612779565b6112db565b005b34801561065e57600080fd5b50610667611398565b6040516106749190612680565b60405180910390f35b34801561068957600080fd5b506106a4600480360381019061069f9190612dbd565b61139e565b005b3480156106b257600080fd5b506106cd60048036038101906106c89190612779565b611400565b6040516106da919061272b565b60405180910390f35b3480156106ef57600080fd5b5061070a60048036038101906107059190612779565b611468565b005b34801561071857600080fd5b50610733600480360381019061072e9190612e40565b611500565b604051610740919061264c565b60405180910390f35b34801561075557600080fd5b50610770600480360381019061076b9190612779565b611594565b60405161077d91906127e7565b60405180910390f35b34801561079257600080fd5b506107ad60048036038101906107a89190612ebe565b6115c7565b005b6107c960048036038101906107c49190612cd3565b611781565b005b60007f80ac58cd000000000000000000000000000000000000000000000000000000007bffffffffffffffffffffffffffffffffffffffffffffffffffffffff1916827bffffffffffffffffffffffffffffffffffffffffffffffffffffffff1916148061089657507f5b5e139f000000000000000000000000000000000000000000000000000000007bffffffffffffffffffffffffffffffffffffffffffffffffffffffff1916827bffffffffffffffffffffffffffffffffffffffffffffffffffffffff1916145b806108a657506108a582611888565b5b9050919050565b60055481565b6060600b80546108c290612f1a565b80601f01602080910402602001604051908101604052809291908181526020018280546108ee90612f1a565b801561093b5780601f106109105761010080835404028352916020019161093b565b820191906000526020600020905b81548152906001019060200180831161091e57829003601f168201915b5050505050905090565b6000610950826118f2565b600f600083815260200190815260200160002060009054906101000a900473ffffffffffffffffffffffffffffffffffffffff169050919050565b3373ffffffffffffffffffffffffffffffffffffffff166007600083815260200190815260200160002060009054906101000a900473ffffffffffffffffffffffffffffffffffffffff1673ffffffffffffffffffffffffffffffffffffffff1614610a2c576040517f08c379a0000000000000000000000000000000000000000000000000000000008152600401610a2390612f97565b60405180910390fd5b816011600083815260200190815260200160002060006101000a81548173ffffffffffffffffffffffffffffffffffffffff021916908373ffffffffffffffffffffffffffffffffffffffff160217905550808273ffffffffffffffffffffffffffffffffffffffff163373ffffffffffffffffffffffffffffffffffffffff167f8c5be1e5ebec7d5bd14f71427d1e84f3dd0314c0f7b2291e5b200ac8c7c3b92560405160405180910390a45050565b600060149054906101000a900460ff1681565b600a54341015610b35576040517f08c379a0000000000000000000000000000000000000000000000000000000008152600401610b2c90613003565b60405180910390fd5b60068181548110610b4957610b48613023565b5b9060005260206000209060020201600101600681819054906101000a900463ffffffff1680929190610b7a90613081565b91906101000a81548163ffffffff021916908363ffffffff1602179055505050565b610bad610ba761193d565b82611945565b610bec576040517f08c379a0000000000000000000000000000000000000000000000000000000008152600401610be39061311f565b60405180910390fd5b610bf78383836119da565b505050565b6002818160068281548110610c1457610c13613023565b5b906000526020600020906002020160010160069054906101000a900463ffffffff1663ffffffff161015610c7d576040517f08c379a0000000000000000000000000000000000000000000000000000000008152600401610c7490612f97565b60405180910390fd5b826007600082815260200190815260200160002060009054906101000a900473ffffffffffffffffffffffffffffffffffffffff1673ffffffffffffffffffffffffffffffffffffffff163373ffffffffffffffffffffffffffffffffffffffff1614610d1f576040517f08c379a0000000000000000000000000000000000000000000000000000000008152600401610d1690612f97565b60405180910390fd5b858560068681548110610d3557610d34613023565b5b90600052602060002090600202016000019182610d539291906132f6565b50505050505050565b60008054906101000a900473ffffffffffffffffffffffffffffffffffffffff1673ffffffffffffffffffffffffffffffffffffffff163373ffffffffffffffffffffffffffffffffffffffff1614610dea576040517f08c379a0000000000000000000000000000000000000000000000000000000008152600401610de190613412565b60405180910390fd5b80600a8190555050565b60045481565b610e158383836040518060200160405280600081525061139e565b505050565b60606000600860008473ffffffffffffffffffffffffffffffffffffffff1673ffffffffffffffffffffffffffffffffffffffff1681526020019081526020016000205467ffffffffffffffff811115610e7757610e76612ba8565b5b604051908082528060200260200182016040528015610ea55781602001602082028036833780820191505090505b5090506000805b600680549050811015610f61578473ffffffffffffffffffffffffffffffffffffffff166007600083815260200190815260200160002060009054906101000a900473ffffffffffffffffffffffffffffffffffffffff1673ffffffffffffffffffffffffffffffffffffffff1603610f4e5780838381518110610f3357610f32613023565b5b6020026020010181815250508180610f4a90613432565b9250505b8080610f5990613432565b915050610eac565b508192505050919050565b60068181548110610f7c57600080fd5b9060005260206000209060020201600091509050806000018054610f9f90612f1a565b80601f0160208091040260200160405190810160405280929190818152602001828054610fcb90612f1a565b80156110185780601f10610fed57610100808354040283529160200191611018565b820191906000526020600020905b815481529060010190602001808311610ffb57829003601f168201915b5050505050908060010160009054906101000a900461ffff16908060010160029054906101000a900461ffff16908060010160049054906101000a900461ffff16908060010160069054906101000a900463ffffffff169080600101600a9054906101000a900463ffffffff16905086565b60006007600083815260200190815260200160002060009054906101000a900473ffffffffffffffffffffffffffffffffffffffff169050919050565b60076020528060005260406000206000915054906101000a900473ffffffffffffffffffffffffffffffffffffffff1681565b6000600860008373ffffffffffffffffffffffffffffffffffffffff1673ffffffffffffffffffffffffffffffffffffffff168152602001908152602001600020549050919050565b60008054906101000a900473ffffffffffffffffffffffffffffffffffffffff1681565b600a5481565b6060600c805461117c90612f1a565b80601f01602080910402602001604051908101604052809291908181526020018280546111a890612f1a565b80156111f55780601f106111ca576101008083540402835291602001916111f5565b820191906000526020600020905b8154815290600101906020018083116111d857829003601f168201915b5050505050905090565b61121161120a61193d565b8383611bb8565b5050565b6000600860003373ffffffffffffffffffffffffffffffffffffffff1673ffffffffffffffffffffffffffffffffffffffff1681526020019081526020016000205414611297576040517f08c379a000000000000000000000000000000000000000000000000000000000815260040161128e90612f97565b60405180910390fd5b60006112a282611d24565b9050600a816112b191906134a9565b816112bc91906134da565b90506112c88282611d66565b5050565b6112d73383836119da565b5050565b3373ffffffffffffffffffffffffffffffffffffffff166011600083815260200190815260200160002060009054906101000a900473ffffffffffffffffffffffffffffffffffffffff1673ffffffffffffffffffffffffffffffffffffffff161461137c576040517f08c379a000000000000000000000000000000000000000000000000000000000815260040161137390612f97565b60405180910390fd5b60006113878261108a565b90506113948133846119da565b5050565b60035481565b6113af6113a961193d565b83611945565b6113ee576040517f08c379a00000000000000000000000000000000000000000000000000000000081526004016113e59061311f565b60405180910390fd5b6113fa84848484612003565b50505050565b606061140b826118f2565b600061141561205f565b905060008151116114355760405180602001604052806000815250611460565b8061143f84612076565b60405160200161145092919061354c565b6040516020818303038152906040525b915050919050565b60008054906101000a900473ffffffffffffffffffffffffffffffffffffffff1673ffffffffffffffffffffffffffffffffffffffff163373ffffffffffffffffffffffffffffffffffffffff16146114f6576040517f08c379a00000000000000000000000000000000000000000000000000000000081526004016114ed90613412565b60405180910390fd5b8060048190555050565b6000601060008473ffffffffffffffffffffffffffffffffffffffff1673ffffffffffffffffffffffffffffffffffffffff16815260200190815260200160002060008373ffffffffffffffffffffffffffffffffffffffff1673ffffffffffffffffffffffffffffffffffffffff16815260200190815260200160002060009054906101000a900460ff16905092915050565b60116020528060005260406000206000915054906101000a900473ffffffffffffffffffffffffffffffffffffffff1681565b60008054906101000a900473ffffffffffffffffffffffffffffffffffffffff1673ffffffffffffffffffffffffffffffffffffffff163373ffffffffffffffffffffffffffffffffffffffff1614611655576040517f08c379a000000000000000000000000000000000000000000000000000000000815260040161164c90613412565b60405180910390fd5b600073ffffffffffffffffffffffffffffffffffffffff168173ffffffffffffffffffffffffffffffffffffffff16036116c4576040517f08c379a00000000000000000000000000000000000000000000000000000000081526004016116bb90613412565b60405180910390fd5b8073ffffffffffffffffffffffffffffffffffffffff1660008054906101000a900473ffffffffffffffffffffffffffffffffffffffff1673ffffffffffffffffffffffffffffffffffffffff167f8be0079c531659141344cd1fd0a4f28419497f9722a3daafe3b4186f6b6457e060405160405180910390a3806000806101000a81548173ffffffffffffffffffffffffffffffffffffffff021916908373ffffffffffffffffffffffffffffffffffffffff16021790555050565b6000600860003373ffffffffffffffffffffffffffffffffffffffff1673ffffffffffffffffffffffffffffffffffffffff1681526020019081526020016000205411611803576040517f08c379a00000000000000000000000000000000000000000000000000000000081526004016117fa90612f97565b60405180910390fd5b6004543411611847576040517f08c379a000000000000000000000000000000000000000000000000000000000815260040161183e90612f97565b60405180910390fd5b600061185282611d24565b90506001600a8261186391906134a9565b8261186e91906134da565b6118789190613570565b90506118848282611d66565b5050565b60007f01ffc9a7000000000000000000000000000000000000000000000000000000007bffffffffffffffffffffffffffffffffffffffffffffffffffffffff1916827bffffffffffffffffffffffffffffffffffffffffffffffffffffffff1916149050919050565b6118fb81612144565b61193a576040517f08c379a0000000000000000000000000000000000000000000000000000000008152600401611931906135f2565b60405180910390fd5b50565b600033905090565b60008061195183612185565b90508073ffffffffffffffffffffffffffffffffffffffff168473ffffffffffffffffffffffffffffffffffffffff16148061199357506119928185611500565b5b806119d157508373ffffffffffffffffffffffffffffffffffffffff166119b984610945565b73ffffffffffffffffffffffffffffffffffffffff16145b91505092915050565b611a2d6001600860008573ffffffffffffffffffffffffffffffffffffffff1673ffffffffffffffffffffffffffffffffffffffff1681526020019081526020016000205461220b90919063ffffffff16565b600860008473ffffffffffffffffffffffffffffffffffffffff1673ffffffffffffffffffffffffffffffffffffffff16815260200190815260200160002081905550611ac36001600860008673ffffffffffffffffffffffffffffffffffffffff1673ffffffffffffffffffffffffffffffffffffffff1681526020019081526020016000205461223790919063ffffffff16565b600860008573ffffffffffffffffffffffffffffffffffffffff1673ffffffffffffffffffffffffffffffffffffffff16815260200190815260200160002081905550816007600083815260200190815260200160002060006101000a81548173ffffffffffffffffffffffffffffffffffffffff021916908373ffffffffffffffffffffffffffffffffffffffff160217905550808273ffffffffffffffffffffffffffffffffffffffff168473ffffffffffffffffffffffffffffffffffffffff167fddf252ad1be2c89b69c2b068fc378daa952ba7f163c4a11628f55a4df523b3ef60405160405180910390a4505050565b8173ffffffffffffffffffffffffffffffffffffffff168373ffffffffffffffffffffffffffffffffffffffff1603611c26576040517f08c379a0000000000000000000000000000000000000000000000000000000008152600401611c1d9061365e565b60405180910390fd5b80601060008573ffffffffffffffffffffffffffffffffffffffff1673ffffffffffffffffffffffffffffffffffffffff16815260200190815260200160002060008473ffffffffffffffffffffffffffffffffffffffff1673ffffffffffffffffffffffffffffffffffffffff16815260200190815260200160002060006101000a81548160ff0219169083151502179055508173ffffffffffffffffffffffffffffffffffffffff168373ffffffffffffffffffffffffffffffffffffffff167f17307eab39ab6107e8899845ad3d59bd9653f200f220920489ca2b5937696c3183604051611d17919061264c565b60405180910390a3505050565b60006002548242604051602001611d3c92919061369f565b6040516020818303038152906040528051906020012060001c611d5f91906136c7565b9050919050565b60066040518060c001604052808481526020018361ffff168152602001600061ffff168152602001600061ffff168152602001600163ffffffff168152602001600063ffffffff1681525090806001815401808255809150506001900390600052602060002090600202016000909190919091506000820151816000019081611def91906136f8565b5060208201518160010160006101000a81548161ffff021916908361ffff16021790555060408201518160010160026101000a81548161ffff021916908361ffff16021790555060608201518160010160046101000a81548161ffff021916908361ffff16021790555060808201518160010160066101000a81548163ffffffff021916908363ffffffff16021790555060a082015181600101600a6101000a81548163ffffffff021916908363ffffffff160217905550505060006001600680549050611ebd91906137ca565b9050336007600083815260200190815260200160002060006101000a81548173ffffffffffffffffffffffffffffffffffffffff021916908373ffffffffffffffffffffffffffffffffffffffff160217905550611f646001600860003373ffffffffffffffffffffffffffffffffffffffff1673ffffffffffffffffffffffffffffffffffffffff1681526020019081526020016000205461220b90919063ffffffff16565b600860003373ffffffffffffffffffffffffffffffffffffffff1673ffffffffffffffffffffffffffffffffffffffff16815260200190815260200160002081905550611fbd600160055461220b90919063ffffffff16565b6005819055507fffb2fb18e6d3ec7ef368d2f329ef22f9431aaebe0fcbc9282d7770949ac8cd31818484604051611ff69392919061382f565b60405180910390a1505050565b61200e8484846119da565b61201a8484848461225e565b612059576040517f08c379a0000000000000000000000000000000000000000000000000000000008152600401612050906138df565b60405180910390fd5b50505050565b606060405180602001604052806000815250905090565b606060006001612085846123e5565b01905060008167ffffffffffffffff8111156120a4576120a3612ba8565b5b6040519080825280601f01601f1916602001820160405280156120d65781602001600182028036833780820191505090505b509050600082602001820190505b600115612139578080600190039150507f3031323334353637383961626364656600000000000000000000000000000000600a86061a8153600a858161212d5761212c61347a565b5b049450600085036120e4575b819350505050919050565b60008073ffffffffffffffffffffffffffffffffffffffff1661216683612538565b73ffffffffffffffffffffffffffffffffffffffff1614159050919050565b60008061219183612538565b9050600073ffffffffffffffffffffffffffffffffffffffff168173ffffffffffffffffffffffffffffffffffffffff1603612202576040517f08c379a00000000000000000000000000000000000000000000000000000000081526004016121f9906135f2565b60405180910390fd5b80915050919050565b600080828461221a91906138ff565b90508381101561222d5761222c613933565b5b8091505092915050565b60008282111561224a57612249613933565b5b818361225691906137ca565b905092915050565b600061227f8473ffffffffffffffffffffffffffffffffffffffff16612575565b156123d8578373ffffffffffffffffffffffffffffffffffffffff1663150b7a026122a861193d565b8786866040518563ffffffff1660e01b81526004016122ca94939291906139b7565b6020604051808303816000875af192505050801561230657506040513d601f19601f820116820180604052508101906123039190613a18565b60015b612388573d8060008114612336576040519150601f19603f3d011682016040523d82523d6000602084013e61233b565b606091505b506000815103612380576040517f08c379a0000000000000000000000000000000000000000000000000000000008152600401612377906138df565b60405180910390fd5b805181602001fd5b63150b7a0260e01b7bffffffffffffffffffffffffffffffffffffffffffffffffffffffff1916817bffffffffffffffffffffffffffffffffffffffffffffffffffffffff1916149150506123dd565b600190505b949350505050565b600080600090507a184f03e93ff9f4daa797ed6e38ed64bf6a1f0100000000000000008310612443577a184f03e93ff9f4daa797ed6e38ed64bf6a1f01000000000000000083816124395761243861347a565b5b0492506040810190505b6d04ee2d6d415b85acef81000000008310612480576d04ee2d6d415b85acef810000000083816124765761247561347a565b5b0492506020810190505b662386f26fc1000083106124af57662386f26fc1000083816124a5576124a461347a565b5b0492506010810190505b6305f5e10083106124d8576305f5e10083816124ce576124cd61347a565b5b0492506008810190505b61271083106124fd5761271083816124f3576124f261347a565b5b0492506004810190505b6064831061252057606483816125165761251561347a565b5b0492506002810190505b600a831061252f576001810190505b80915050919050565b6000600d600083815260200190815260200160002060009054906101000a900473ffffffffffffffffffffffffffffffffffffffff169050919050565b6000808273ffffffffffffffffffffffffffffffffffffffff163b119050919050565b6000604051905090565b600080fd5b600080fd5b60007fffffffff0000000000000000000000000000000000000000000000000000000082169050919050565b6125e1816125ac565b81146125ec57600080fd5b50565b6000813590506125fe816125d8565b92915050565b60006020828403121561261a576126196125a2565b5b6000612628848285016125ef565b91505092915050565b60008115159050919050565b61264681612631565b82525050565b6000602082019050612661600083018461263d565b92915050565b6000819050919050565b61267a81612667565b82525050565b60006020820190506126956000830184612671565b92915050565b600081519050919050565b600082825260208201905092915050565b60005b838110156126d55780820151818401526020810190506126ba565b60008484015250505050565b6000601f19601f8301169050919050565b60006126fd8261269b565b61270781856126a6565b93506127178185602086016126b7565b612720816126e1565b840191505092915050565b6000602082019050818103600083015261274581846126f2565b905092915050565b61275681612667565b811461276157600080fd5b50565b6000813590506127738161274d565b92915050565b60006020828403121561278f5761278e6125a2565b5b600061279d84828501612764565b91505092915050565b600073ffffffffffffffffffffffffffffffffffffffff82169050919050565b60006127d1826127a6565b9050919050565b6127e1816127c6565b82525050565b60006020820190506127fc60008301846127d8565b92915050565b61280b816127c6565b811461281657600080fd5b50565b60008135905061282881612802565b92915050565b60008060408385031215612845576128446125a2565b5b600061285385828601612819565b925050602061286485828601612764565b9150509250929050565b600080600060608486031215612887576128866125a2565b5b600061289586828701612819565b93505060206128a686828701612819565b92505060406128b786828701612764565b9150509250925092565b600080fd5b600080fd5b600080fd5b60008083601f8401126128e6576128e56128c1565b5b8235905067ffffffffffffffff811115612903576129026128c6565b5b60208301915083600182028301111561291f5761291e6128cb565b5b9250929050565b60008060006040848603121561293f5761293e6125a2565b5b600084013567ffffffffffffffff81111561295d5761295c6125a7565b5b612969868287016128d0565b9350935050602061297c86828701612764565b9150509250925092565b60006020828403121561299c5761299b6125a2565b5b60006129aa84828501612819565b91505092915050565b600081519050919050565b600082825260208201905092915050565b6000819050602082019050919050565b6129e881612667565b82525050565b60006129fa83836129df565b60208301905092915050565b6000602082019050919050565b6000612a1e826129b3565b612a2881856129be565b9350612a33836129cf565b8060005b83811015612a64578151612a4b88826129ee565b9750612a5683612a06565b925050600181019050612a37565b5085935050505092915050565b60006020820190508181036000830152612a8b8184612a13565b905092915050565b600061ffff82169050919050565b612aaa81612a93565b82525050565b600063ffffffff82169050919050565b612ac981612ab0565b82525050565b600060c0820190508181036000830152612ae981896126f2565b9050612af86020830188612aa1565b612b056040830187612aa1565b612b126060830186612aa1565b612b1f6080830185612ac0565b612b2c60a0830184612ac0565b979650505050505050565b612b4081612631565b8114612b4b57600080fd5b50565b600081359050612b5d81612b37565b92915050565b60008060408385031215612b7a57612b796125a2565b5b6000612b8885828601612819565b9250506020612b9985828601612b4e565b9150509250929050565b600080fd5b7f4e487b7100000000000000000000000000000000000000000000000000000000600052604160045260246000fd5b612be0826126e1565b810181811067ffffffffffffffff82111715612bff57612bfe612ba8565b5b80604052505050565b6000612c12612598565b9050612c1e8282612bd7565b919050565b600067ffffffffffffffff821115612c3e57612c3d612ba8565b5b612c47826126e1565b9050602081019050919050565b82818337600083830152505050565b6000612c76612c7184612c23565b612c08565b905082815260208101848484011115612c9257612c91612ba3565b5b612c9d848285612c54565b509392505050565b600082601f830112612cba57612cb96128c1565b5b8135612cca848260208601612c63565b91505092915050565b600060208284031215612ce957612ce86125a2565b5b600082013567ffffffffffffffff811115612d0757612d066125a7565b5b612d1384828501612ca5565b91505092915050565b600067ffffffffffffffff821115612d3757612d36612ba8565b5b612d40826126e1565b9050602081019050919050565b6000612d60612d5b84612d1c565b612c08565b905082815260208101848484011115612d7c57612d7b612ba3565b5b612d87848285612c54565b509392505050565b600082601f830112612da457612da36128c1565b5b8135612db4848260208601612d4d565b91505092915050565b60008060008060808587031215612dd757612dd66125a2565b5b6000612de587828801612819565b9450506020612df687828801612819565b9350506040612e0787828801612764565b925050606085013567ffffffffffffffff811115612e2857612e276125a7565b5b612e3487828801612d8f565b91505092959194509250565b60008060408385031215612e5757612e566125a2565b5b6000612e6585828601612819565b9250506020612e7685828601612819565b9150509250929050565b6000612e8b826127a6565b9050919050565b612e9b81612e80565b8114612ea657600080fd5b50565b600081359050612eb881612e92565b92915050565b600060208284031215612ed457612ed36125a2565b5b6000612ee284828501612ea9565b91505092915050565b7f4e487b7100000000000000000000000000000000000000000000000000000000600052602260045260246000fd5b60006002820490506001821680612f3257607f821691505b602082108103612f4557612f44612eeb565b5b50919050565b7f6572726f72000000000000000000000000000000000000000000000000000000600082015250565b6000612f816005836126a6565b9150612f8c82612f4b565b602082019050919050565b60006020820190508181036000830152612fb081612f74565b9050919050565b7f7364660000000000000000000000000000000000000000000000000000000000600082015250565b6000612fed6003836126a6565b9150612ff882612fb7565b602082019050919050565b6000602082019050818103600083015261301c81612fe0565b9050919050565b7f4e487b7100000000000000000000000000000000000000000000000000000000600052603260045260246000fd5b7f4e487b7100000000000000000000000000000000000000000000000000000000600052601160045260246000fd5b600061308c82612ab0565b915063ffffffff82036130a2576130a1613052565b5b600182019050919050565b7f4552433732313a2063616c6c6572206973206e6f7420746f6b656e206f776e6560008201527f72206f7220617070726f76656400000000000000000000000000000000000000602082015250565b6000613109602d836126a6565b9150613114826130ad565b604082019050919050565b60006020820190508181036000830152613138816130fc565b9050919050565b600082905092915050565b60008190508160005260206000209050919050565b60006020601f8301049050919050565b600082821b905092915050565b6000600883026131ac7fffffffffffffffffffffffffffffffffffffffffffffffffffffffffffffffff8261316f565b6131b6868361316f565b95508019841693508086168417925050509392505050565b6000819050919050565b60006131f36131ee6131e984612667565b6131ce565b612667565b9050919050565b6000819050919050565b61320d836131d8565b613221613219826131fa565b84845461317c565b825550505050565b600090565b613236613229565b613241818484613204565b505050565b5b818110156132655761325a60008261322e565b600181019050613247565b5050565b601f8211156132aa5761327b8161314a565b6132848461315f565b81016020851015613293578190505b6132a761329f8561315f565b830182613246565b50505b505050565b600082821c905092915050565b60006132cd600019846008026132af565b1980831691505092915050565b60006132e683836132bc565b9150826002028217905092915050565b613300838361313f565b67ffffffffffffffff81111561331957613318612ba8565b5b6133238254612f1a565b61332e828285613269565b6000601f83116001811461335d576000841561334b578287013590505b61335585826132da565b8655506133bd565b601f19841661336b8661314a565b60005b828110156133935784890135825560018201915060208501945060208101905061336e565b868310156133b057848901356133ac601f8916826132bc565b8355505b6001600288020188555050505b50505050505050565b7f4d75737420636f6e7472616374206f776e657200000000000000000000000000600082015250565b60006133fc6013836126a6565b9150613407826133c6565b602082019050919050565b6000602082019050818103600083015261342b816133ef565b9050919050565b600061343d82612667565b91507fffffffffffffffffffffffffffffffffffffffffffffffffffffffffffffffff820361346f5761346e613052565b5b600182019050919050565b7f4e487b7100000000000000000000000000000000000000000000000000000000600052601260045260246000fd5b60006134b482612a93565b91506134bf83612a93565b9250826134cf576134ce61347a565b5b828206905092915050565b60006134e582612a93565b91506134f083612a93565b9250828203905061ffff81111561350a57613509613052565b5b92915050565b600081905092915050565b60006135268261269b565b6135308185613510565b93506135408185602086016126b7565b80840191505092915050565b6000613558828561351b565b9150613564828461351b565b91508190509392505050565b600061357b82612a93565b915061358683612a93565b9250828201905061ffff8111156135a05761359f613052565b5b92915050565b7f4552433732313a20696e76616c696420746f6b656e2049440000000000000000600082015250565b60006135dc6018836126a6565b91506135e7826135a6565b602082019050919050565b6000602082019050818103600083015261360b816135cf565b9050919050565b7f4552433732313a20617070726f766520746f2063616c6c657200000000000000600082015250565b60006136486019836126a6565b915061365382613612565b602082019050919050565b600060208201905081810360008301526136778161363b565b9050919050565b6000819050919050565b61369961369482612667565b61367e565b82525050565b60006136ab828561351b565b91506136b78284613688565b6020820191508190509392505050565b60006136d282612667565b91506136dd83612667565b9250826136ed576136ec61347a565b5b828206905092915050565b6137018261269b565b67ffffffffffffffff81111561371a57613719612ba8565b5b6137248254612f1a565b61372f828285613269565b600060209050601f8311600181146137625760008415613750578287015190505b61375a85826132da565b8655506137c2565b601f1984166137708661314a565b60005b8281101561379857848901518255600182019150602085019450602081019050613773565b868310156137b557848901516137b1601f8916826132bc565b8355505b6001600288020188555050505b505050505050565b60006137d582612667565b91506137e083612667565b92508282039050818111156137f8576137f7613052565b5b92915050565b600061381961381461380f84612a93565b6131ce565b612667565b9050919050565b613829816137fe565b82525050565b60006060820190506138446000830186612671565b818103602083015261385681856126f2565b90506138656040830184613820565b949350505050565b7f4552433732313a207472616e7366657220746f206e6f6e20455243373231526560008201527f63656976657220696d706c656d656e7465720000000000000000000000000000602082015250565b60006138c96032836126a6565b91506138d48261386d565b604082019050919050565b600060208201905081810360008301526138f8816138bc565b9050919050565b600061390a82612667565b915061391583612667565b925082820190508082111561392d5761392c613052565b5b92915050565b7f4e487b7100000000000000000000000000000000000000000000000000000000600052600160045260246000fd5b600081519050919050565b600082825260208201905092915050565b600061398982613962565b613993818561396d565b93506139a38185602086016126b7565b6139ac816126e1565b840191505092915050565b60006080820190506139cc60008301876127d8565b6139d960208301866127d8565b6139e66040830185612671565b81810360608301526139f8818461397e565b905095945050505050565b600081519050613a12816125d8565b92915050565b600060208284031215613a2e57613a2d6125a2565b5b6000613a3c84828501613a03565b9150509291505056fea2646970667358221220174bb8dda5e79195be98a39d40b9df1deb309aef76ceb66bf7ec8a6d6d3b217c64736f6c63430008110033",
			"opcodes": "PUSH1 0x80 PUSH1 0x40 MSTORE PUSH1 0x0 DUP1 PUSH1 0x14 PUSH2 0x100 EXP DUP2 SLOAD DUP2 PUSH1 0xFF MUL NOT AND SWAP1 DUP4 ISZERO ISZERO MUL OR SWAP1 SSTORE POP PUSH1 0x10 PUSH1 0x1 SSTORE PUSH1 0x1 SLOAD PUSH1 0xA PUSH3 0x34 SWAP2 SWAP1 PUSH3 0x2CC JUMP JUMPDEST PUSH1 0x2 SSTORE PUSH3 0x15180 PUSH1 0x3 SSTORE PUSH7 0x2386F26FC10000 PUSH1 0x4 SSTORE PUSH1 0x0 PUSH1 0x5 SSTORE PUSH7 0x38D7EA4C68000 PUSH1 0xA SSTORE CALLVALUE DUP1 ISZERO PUSH3 0x66 JUMPI PUSH1 0x0 DUP1 REVERT JUMPDEST POP PUSH1 0x40 MLOAD DUP1 PUSH1 0x40 ADD PUSH1 0x40 MSTORE DUP1 PUSH1 0xF DUP2 MSTORE PUSH1 0x20 ADD PUSH32 0x5A6F6D6269634F776E6572536869700000000000000000000000000000000000 DUP2 MSTORE POP PUSH1 0x40 MLOAD DUP1 PUSH1 0x40 ADD PUSH1 0x40 MSTORE DUP1 PUSH1 0x3 DUP2 MSTORE PUSH1 0x20 ADD PUSH32 0x49544D0000000000000000000000000000000000000000000000000000000000 DUP2 MSTORE POP CALLER PUSH1 0x0 DUP1 PUSH2 0x100 EXP DUP2 SLOAD DUP2 PUSH20 0xFFFFFFFFFFFFFFFFFFFFFFFFFFFFFFFFFFFFFFFF MUL NOT AND SWAP1 DUP4 PUSH20 0xFFFFFFFFFFFFFFFFFFFFFFFFFFFFFFFFFFFFFFFF AND MUL OR SWAP1 SSTORE POP DUP2 PUSH1 0xB SWAP1 DUP2 PUSH3 0x124 SWAP2 SWAP1 PUSH3 0x58D JUMP JUMPDEST POP DUP1 PUSH1 0xC SWAP1 DUP2 PUSH3 0x136 SWAP2 SWAP1 PUSH3 0x58D JUMP JUMPDEST POP POP POP PUSH3 0x674 JUMP JUMPDEST PUSH32 0x4E487B7100000000000000000000000000000000000000000000000000000000 PUSH1 0x0 MSTORE PUSH1 0x11 PUSH1 0x4 MSTORE PUSH1 0x24 PUSH1 0x0 REVERT JUMPDEST PUSH1 0x0 DUP2 PUSH1 0x1 SHR SWAP1 POP SWAP2 SWAP1 POP JUMP JUMPDEST PUSH1 0x0 DUP1 DUP3 SWAP2 POP DUP4 SWAP1 POP JUMPDEST PUSH1 0x1 DUP6 GT ISZERO PUSH3 0x1CD JUMPI DUP1 DUP7 DIV DUP2 GT ISZERO PUSH3 0x1A5 JUMPI PUSH3 0x1A4 PUSH3 0x13F JUMP JUMPDEST JUMPDEST PUSH1 0x1 DUP6 AND ISZERO PUSH3 0x1B5 JUMPI DUP1 DUP3 MUL SWAP2 POP JUMPDEST DUP1 DUP2 MUL SWAP1 POP PUSH3 0x1C5 DUP6 PUSH3 0x16E JUMP JUMPDEST SWAP5 POP PUSH3 0x185 JUMP JUMPDEST SWAP5 POP SWAP5 SWAP3 POP POP POP JUMP JUMPDEST PUSH1 0x0 DUP3 PUSH3 0x1E8 JUMPI PUSH1 0x1 SWAP1 POP PUSH3 0x2BB JUMP JUMPDEST DUP2 PUSH3 0x1F8 JUMPI PUSH1 0x0 SWAP1 POP PUSH3 0x2BB JUMP JUMPDEST DUP2 PUSH1 0x1 DUP2 EQ PUSH3 0x211 JUMPI PUSH1 0x2 DUP2 EQ PUSH3 0x21C JUMPI PUSH3 0x252 JUMP JUMPDEST PUSH1 0x1 SWAP2 POP POP PUSH3 0x2BB JUMP JUMPDEST PUSH1 0xFF DUP5 GT ISZERO PUSH3 0x231 JUMPI PUSH3 0x230 PUSH3 0x13F JUMP JUMPDEST JUMPDEST DUP4 PUSH1 0x2 EXP SWAP2 POP DUP5 DUP3 GT ISZERO PUSH3 0x24B JUMPI PUSH3 0x24A PUSH3 0x13F JUMP JUMPDEST JUMPDEST POP PUSH3 0x2BB JUMP JUMPDEST POP PUSH1 0x20 DUP4 LT PUSH2 0x133 DUP4 LT AND PUSH1 0x4E DUP5 LT PUSH1 0xB DUP5 LT AND OR ISZERO PUSH3 0x28C JUMPI DUP3 DUP3 EXP SWAP1 POP DUP4 DUP2 GT ISZERO PUSH3 0x286 JUMPI PUSH3 0x285 PUSH3 0x13F JUMP JUMPDEST JUMPDEST PUSH3 0x2BB JUMP JUMPDEST PUSH3 0x29B DUP5 DUP5 DUP5 PUSH1 0x1 PUSH3 0x17B JUMP JUMPDEST SWAP3 POP SWAP1 POP DUP2 DUP5 DIV DUP2 GT ISZERO PUSH3 0x2B5 JUMPI PUSH3 0x2B4 PUSH3 0x13F JUMP JUMPDEST JUMPDEST DUP2 DUP2 MUL SWAP1 POP JUMPDEST SWAP4 SWAP3 POP POP POP JUMP JUMPDEST PUSH1 0x0 DUP2 SWAP1 POP SWAP2 SWAP1 POP JUMP JUMPDEST PUSH1 0x0 PUSH3 0x2D9 DUP3 PUSH3 0x2C2 JUMP JUMPDEST SWAP2 POP PUSH3 0x2E6 DUP4 PUSH3 0x2C2 JUMP JUMPDEST SWAP3 POP PUSH3 0x315 PUSH32 0xFFFFFFFFFFFFFFFFFFFFFFFFFFFFFFFFFFFFFFFFFFFFFFFFFFFFFFFFFFFFFFFF DUP5 DUP5 PUSH3 0x1D6 JUMP JUMPDEST SWAP1 POP SWAP3 SWAP2 POP POP JUMP JUMPDEST PUSH1 0x0 DUP2 MLOAD SWAP1 POP SWAP2 SWAP1 POP JUMP JUMPDEST PUSH32 0x4E487B7100000000000000000000000000000000000000000000000000000000 PUSH1 0x0 MSTORE PUSH1 0x41 PUSH1 0x4 MSTORE PUSH1 0x24 PUSH1 0x0 REVERT JUMPDEST PUSH32 0x4E487B7100000000000000000000000000000000000000000000000000000000 PUSH1 0x0 MSTORE PUSH1 0x22 PUSH1 0x4 MSTORE PUSH1 0x24 PUSH1 0x0 REVERT JUMPDEST PUSH1 0x0 PUSH1 0x2 DUP3 DIV SWAP1 POP PUSH1 0x1 DUP3 AND DUP1 PUSH3 0x39F JUMPI PUSH1 0x7F DUP3 AND SWAP2 POP JUMPDEST PUSH1 0x20 DUP3 LT DUP2 SUB PUSH3 0x3B5 JUMPI PUSH3 0x3B4 PUSH3 0x357 JUMP JUMPDEST JUMPDEST POP SWAP2 SWAP1 POP JUMP JUMPDEST PUSH1 0x0 DUP2 SWAP1 POP DUP2 PUSH1 0x0 MSTORE PUSH1 0x20 PUSH1 0x0 KECCAK256 SWAP1 POP SWAP2 SWAP1 POP JUMP JUMPDEST PUSH1 0x0 PUSH1 0x20 PUSH1 0x1F DUP4 ADD DIV SWAP1 POP SWAP2 SWAP1 POP JUMP JUMPDEST PUSH1 0x0 DUP3 DUP3 SHL SWAP1 POP SWAP3 SWAP2 POP POP JUMP JUMPDEST PUSH1 0x0 PUSH1 0x8 DUP4 MUL PUSH3 0x41F PUSH32 0xFFFFFFFFFFFFFFFFFFFFFFFFFFFFFFFFFFFFFFFFFFFFFFFFFFFFFFFFFFFFFFFF DUP3 PUSH3 0x3E0 JUMP JUMPDEST PUSH3 0x42B DUP7 DUP4 PUSH3 0x3E0 JUMP JUMPDEST SWAP6 POP DUP1 NOT DUP5 AND SWAP4 POP DUP1 DUP7 AND DUP5 OR SWAP3 POP POP POP SWAP4 SWAP3 POP POP POP JUMP JUMPDEST PUSH1 0x0 DUP2 SWAP1 POP SWAP2 SWAP1 POP JUMP JUMPDEST PUSH1 0x0 PUSH3 0x46E PUSH3 0x468 PUSH3 0x462 DUP5 PUSH3 0x2C2 JUMP JUMPDEST PUSH3 0x443 JUMP JUMPDEST PUSH3 0x2C2 JUMP JUMPDEST SWAP1 POP SWAP2 SWAP1 POP JUMP JUMPDEST PUSH1 0x0 DUP2 SWAP1 POP SWAP2 SWAP1 POP JUMP JUMPDEST PUSH3 0x48A DUP4 PUSH3 0x44D JUMP JUMPDEST PUSH3 0x4A2 PUSH3 0x499 DUP3 PUSH3 0x475 JUMP JUMPDEST DUP5 DUP5 SLOAD PUSH3 0x3ED JUMP JUMPDEST DUP3 SSTORE POP POP POP POP JUMP JUMPDEST PUSH1 0x0 SWAP1 JUMP JUMPDEST PUSH3 0x4B9 PUSH3 0x4AA JUMP JUMPDEST PUSH3 0x4C6 DUP2 DUP5 DUP5 PUSH3 0x47F JUMP JUMPDEST POP POP POP JUMP JUMPDEST JUMPDEST DUP2 DUP2 LT ISZERO PUSH3 0x4EE JUMPI PUSH3 0x4E2 PUSH1 0x0 DUP3 PUSH3 0x4AF JUMP JUMPDEST PUSH1 0x1 DUP2 ADD SWAP1 POP PUSH3 0x4CC JUMP JUMPDEST POP POP JUMP JUMPDEST PUSH1 0x1F DUP3 GT ISZERO PUSH3 0x53D JUMPI PUSH3 0x507 DUP2 PUSH3 0x3BB JUMP JUMPDEST PUSH3 0x512 DUP5 PUSH3 0x3D0 JUMP JUMPDEST DUP2 ADD PUSH1 0x20 DUP6 LT ISZERO PUSH3 0x522 JUMPI DUP2 SWAP1 POP JUMPDEST PUSH3 0x53A PUSH3 0x531 DUP6 PUSH3 0x3D0 JUMP JUMPDEST DUP4 ADD DUP3 PUSH3 0x4CB JUMP JUMPDEST POP POP JUMPDEST POP POP POP JUMP JUMPDEST PUSH1 0x0 DUP3 DUP3 SHR SWAP1 POP SWAP3 SWAP2 POP POP JUMP JUMPDEST PUSH1 0x0 PUSH3 0x562 PUSH1 0x0 NOT DUP5 PUSH1 0x8 MUL PUSH3 0x542 JUMP JUMPDEST NOT DUP1 DUP4 AND SWAP2 POP POP SWAP3 SWAP2 POP POP JUMP JUMPDEST PUSH1 0x0 PUSH3 0x57D DUP4 DUP4 PUSH3 0x54F JUMP JUMPDEST SWAP2 POP DUP3 PUSH1 0x2 MUL DUP3 OR SWAP1 POP SWAP3 SWAP2 POP POP JUMP JUMPDEST PUSH3 0x598 DUP3 PUSH3 0x31D JUMP JUMPDEST PUSH8 0xFFFFFFFFFFFFFFFF DUP2 GT ISZERO PUSH3 0x5B4 JUMPI PUSH3 0x5B3 PUSH3 0x328 JUMP JUMPDEST JUMPDEST PUSH3 0x5C0 DUP3 SLOAD PUSH3 0x386 JUMP JUMPDEST PUSH3 0x5CD DUP3 DUP3 DUP6 PUSH3 0x4F2 JUMP JUMPDEST PUSH1 0x0 PUSH1 0x20 SWAP1 POP PUSH1 0x1F DUP4 GT PUSH1 0x1 DUP2 EQ PUSH3 0x605 JUMPI PUSH1 0x0 DUP5 ISZERO PUSH3 0x5F0 JUMPI DUP3 DUP8 ADD MLOAD SWAP1 POP JUMPDEST PUSH3 0x5FC DUP6 DUP3 PUSH3 0x56F JUMP JUMPDEST DUP7 SSTORE POP PUSH3 0x66C JUMP JUMPDEST PUSH1 0x1F NOT DUP5 AND PUSH3 0x615 DUP7 PUSH3 0x3BB JUMP JUMPDEST PUSH1 0x0 JUMPDEST DUP3 DUP2 LT ISZERO PUSH3 0x63F JUMPI DUP5 DUP10 ADD MLOAD DUP3 SSTORE PUSH1 0x1 DUP3 ADD SWAP2 POP PUSH1 0x20 DUP6 ADD SWAP5 POP PUSH1 0x20 DUP2 ADD SWAP1 POP PUSH3 0x618 JUMP JUMPDEST DUP7 DUP4 LT ISZERO PUSH3 0x65F JUMPI DUP5 DUP10 ADD MLOAD PUSH3 0x65B PUSH1 0x1F DUP10 AND DUP3 PUSH3 0x54F JUMP JUMPDEST DUP4 SSTORE POP JUMPDEST PUSH1 0x1 PUSH1 0x2 DUP9 MUL ADD DUP9 SSTORE POP POP POP JUMPDEST POP POP POP POP POP POP JUMP JUMPDEST PUSH2 0x3A7B DUP1 PUSH3 0x684 PUSH1 0x0 CODECOPY PUSH1 0x0 RETURN INVALID PUSH1 0x80 PUSH1 0x40 MSTORE PUSH1 0x4 CALLDATASIZE LT PUSH2 0x1E3 JUMPI PUSH1 0x0 CALLDATALOAD PUSH1 0xE0 SHR DUP1 PUSH4 0x70A08231 GT PUSH2 0x102 JUMPI DUP1 PUSH4 0xB319C6B7 GT PUSH2 0x95 JUMPI DUP1 PUSH4 0xE985E9C5 GT PUSH2 0x64 JUMPI DUP1 PUSH4 0xE985E9C5 EQ PUSH2 0x70C JUMPI DUP1 PUSH4 0xEC0C1757 EQ PUSH2 0x749 JUMPI DUP1 PUSH4 0xF2FDE38B EQ PUSH2 0x786 JUMPI DUP1 PUSH4 0xF94F0593 EQ PUSH2 0x7AF JUMPI PUSH2 0x1E3 JUMP JUMPDEST DUP1 PUSH4 0xB319C6B7 EQ PUSH2 0x652 JUMPI DUP1 PUSH4 0xB88D4FDE EQ PUSH2 0x67D JUMPI DUP1 PUSH4 0xC87B56DD EQ PUSH2 0x6A6 JUMPI DUP1 PUSH4 0xE7EB1214 EQ PUSH2 0x6E3 JUMPI PUSH2 0x1E3 JUMP JUMPDEST DUP1 PUSH4 0xA22CB465 GT PUSH2 0xD1 JUMPI DUP1 PUSH4 0xA22CB465 EQ PUSH2 0x5AE JUMPI DUP1 PUSH4 0xA38D7E5B EQ PUSH2 0x5D7 JUMPI DUP1 PUSH4 0xA9059CBB EQ PUSH2 0x600 JUMPI DUP1 PUSH4 0xB2E6CEEB EQ PUSH2 0x629 JUMPI PUSH2 0x1E3 JUMP JUMPDEST DUP1 PUSH4 0x70A08231 EQ PUSH2 0x4F0 JUMPI DUP1 PUSH4 0x8DA5CB5B EQ PUSH2 0x52D JUMPI DUP1 PUSH4 0x90AB0522 EQ PUSH2 0x558 JUMPI DUP1 PUSH4 0x95D89B41 EQ PUSH2 0x583 JUMPI PUSH2 0x1E3 JUMP JUMPDEST DUP1 PUSH4 0x270DC9FD GT PUSH2 0x17A JUMPI DUP1 PUSH4 0x43D5D022 GT PUSH2 0x149 JUMPI DUP1 PUSH4 0x43D5D022 EQ PUSH2 0x3F7 JUMPI DUP1 PUSH4 0x5E0B8654 EQ PUSH2 0x434 JUMPI DUP1 PUSH4 0x6352211E EQ PUSH2 0x476 JUMPI DUP1 PUSH4 0x6DE2E36C EQ PUSH2 0x4B3 JUMPI PUSH2 0x1E3 JUMP JUMPDEST DUP1 PUSH4 0x270DC9FD EQ PUSH2 0x351 JUMPI DUP1 PUSH4 0x3A42C900 EQ PUSH2 0x37A JUMPI DUP1 PUSH4 0x3ECE8F6F EQ PUSH2 0x3A3 JUMPI DUP1 PUSH4 0x42842E0E EQ PUSH2 0x3CE JUMPI PUSH2 0x1E3 JUMP JUMPDEST DUP1 PUSH4 0x95EA7B3 GT PUSH2 0x1B6 JUMPI DUP1 PUSH4 0x95EA7B3 EQ PUSH2 0x2B8 JUMPI DUP1 PUSH4 0x206C8DB4 EQ PUSH2 0x2E1 JUMPI DUP1 PUSH4 0x227C59E6 EQ PUSH2 0x30C JUMPI DUP1 PUSH4 0x23B872DD EQ PUSH2 0x328 JUMPI PUSH2 0x1E3 JUMP JUMPDEST DUP1 PUSH4 0x1FFC9A7 EQ PUSH2 0x1E8 JUMPI DUP1 PUSH4 0x2F4DB2F EQ PUSH2 0x225 JUMPI DUP1 PUSH4 0x6FDDE03 EQ PUSH2 0x250 JUMPI DUP1 PUSH4 0x81812FC EQ PUSH2 0x27B JUMPI JUMPDEST PUSH1 0x0 DUP1 REVERT JUMPDEST CALLVALUE DUP1 ISZERO PUSH2 0x1F4 JUMPI PUSH1 0x0 DUP1 REVERT JUMPDEST POP PUSH2 0x20F PUSH1 0x4 DUP1 CALLDATASIZE SUB DUP2 ADD SWAP1 PUSH2 0x20A SWAP2 SWAP1 PUSH2 0x2604 JUMP JUMPDEST PUSH2 0x7CB JUMP JUMPDEST PUSH1 0x40 MLOAD PUSH2 0x21C SWAP2 SWAP1 PUSH2 0x264C JUMP JUMPDEST PUSH1 0x40 MLOAD DUP1 SWAP2 SUB SWAP1 RETURN JUMPDEST CALLVALUE DUP1 ISZERO PUSH2 0x231 JUMPI PUSH1 0x0 DUP1 REVERT JUMPDEST POP PUSH2 0x23A PUSH2 0x8AD JUMP JUMPDEST PUSH1 0x40 MLOAD PUSH2 0x247 SWAP2 SWAP1 PUSH2 0x2680 JUMP JUMPDEST PUSH1 0x40 MLOAD DUP1 SWAP2 SUB SWAP1 RETURN JUMPDEST CALLVALUE DUP1 ISZERO PUSH2 0x25C JUMPI PUSH1 0x0 DUP1 REVERT JUMPDEST POP PUSH2 0x265 PUSH2 0x8B3 JUMP JUMPDEST PUSH1 0x40 MLOAD PUSH2 0x272 SWAP2 SWAP1 PUSH2 0x272B JUMP JUMPDEST PUSH1 0x40 MLOAD DUP1 SWAP2 SUB SWAP1 RETURN JUMPDEST CALLVALUE DUP1 ISZERO PUSH2 0x287 JUMPI PUSH1 0x0 DUP1 REVERT JUMPDEST POP PUSH2 0x2A2 PUSH1 0x4 DUP1 CALLDATASIZE SUB DUP2 ADD SWAP1 PUSH2 0x29D SWAP2 SWAP1 PUSH2 0x2779 JUMP JUMPDEST PUSH2 0x945 JUMP JUMPDEST PUSH1 0x40 MLOAD PUSH2 0x2AF SWAP2 SWAP1 PUSH2 0x27E7 JUMP JUMPDEST PUSH1 0x40 MLOAD DUP1 SWAP2 SUB SWAP1 RETURN JUMPDEST CALLVALUE DUP1 ISZERO PUSH2 0x2C4 JUMPI PUSH1 0x0 DUP1 REVERT JUMPDEST POP PUSH2 0x2DF PUSH1 0x4 DUP1 CALLDATASIZE SUB DUP2 ADD SWAP1 PUSH2 0x2DA SWAP2 SWAP1 PUSH2 0x282E JUMP JUMPDEST PUSH2 0x98B JUMP JUMPDEST STOP JUMPDEST CALLVALUE DUP1 ISZERO PUSH2 0x2ED JUMPI PUSH1 0x0 DUP1 REVERT JUMPDEST POP PUSH2 0x2F6 PUSH2 0xADD JUMP JUMPDEST PUSH1 0x40 MLOAD PUSH2 0x303 SWAP2 SWAP1 PUSH2 0x264C JUMP JUMPDEST PUSH1 0x40 MLOAD DUP1 SWAP2 SUB SWAP1 RETURN JUMPDEST PUSH2 0x326 PUSH1 0x4 DUP1 CALLDATASIZE SUB DUP2 ADD SWAP1 PUSH2 0x321 SWAP2 SWAP1 PUSH2 0x2779 JUMP JUMPDEST PUSH2 0xAF0 JUMP JUMPDEST STOP JUMPDEST CALLVALUE DUP1 ISZERO PUSH2 0x334 JUMPI PUSH1 0x0 DUP1 REVERT JUMPDEST POP PUSH2 0x34F PUSH1 0x4 DUP1 CALLDATASIZE SUB DUP2 ADD SWAP1 PUSH2 0x34A SWAP2 SWAP1 PUSH2 0x286E JUMP JUMPDEST PUSH2 0xB9C JUMP JUMPDEST STOP JUMPDEST CALLVALUE DUP1 ISZERO PUSH2 0x35D JUMPI PUSH1 0x0 DUP1 REVERT JUMPDEST POP PUSH2 0x378 PUSH1 0x4 DUP1 CALLDATASIZE SUB DUP2 ADD SWAP1 PUSH2 0x373 SWAP2 SWAP1 PUSH2 0x2926 JUMP JUMPDEST PUSH2 0xBFC JUMP JUMPDEST STOP JUMPDEST CALLVALUE DUP1 ISZERO PUSH2 0x386 JUMPI PUSH1 0x0 DUP1 REVERT JUMPDEST POP PUSH2 0x3A1 PUSH1 0x4 DUP1 CALLDATASIZE SUB DUP2 ADD SWAP1 PUSH2 0x39C SWAP2 SWAP1 PUSH2 0x2779 JUMP JUMPDEST PUSH2 0xD5C JUMP JUMPDEST STOP JUMPDEST CALLVALUE DUP1 ISZERO PUSH2 0x3AF JUMPI PUSH1 0x0 DUP1 REVERT JUMPDEST POP PUSH2 0x3B8 PUSH2 0xDF4 JUMP JUMPDEST PUSH1 0x40 MLOAD PUSH2 0x3C5 SWAP2 SWAP1 PUSH2 0x2680 JUMP JUMPDEST PUSH1 0x40 MLOAD DUP1 SWAP2 SUB SWAP1 RETURN JUMPDEST CALLVALUE DUP1 ISZERO PUSH2 0x3DA JUMPI PUSH1 0x0 DUP1 REVERT JUMPDEST POP PUSH2 0x3F5 PUSH1 0x4 DUP1 CALLDATASIZE SUB DUP2 ADD SWAP1 PUSH2 0x3F0 SWAP2 SWAP1 PUSH2 0x286E JUMP JUMPDEST PUSH2 0xDFA JUMP JUMPDEST STOP JUMPDEST CALLVALUE DUP1 ISZERO PUSH2 0x403 JUMPI PUSH1 0x0 DUP1 REVERT JUMPDEST POP PUSH2 0x41E PUSH1 0x4 DUP1 CALLDATASIZE SUB DUP2 ADD SWAP1 PUSH2 0x419 SWAP2 SWAP1 PUSH2 0x2986 JUMP JUMPDEST PUSH2 0xE1A JUMP JUMPDEST PUSH1 0x40 MLOAD PUSH2 0x42B SWAP2 SWAP1 PUSH2 0x2A71 JUMP JUMPDEST PUSH1 0x40 MLOAD DUP1 SWAP2 SUB SWAP1 RETURN JUMPDEST CALLVALUE DUP1 ISZERO PUSH2 0x440 JUMPI PUSH1 0x0 DUP1 REVERT JUMPDEST POP PUSH2 0x45B PUSH1 0x4 DUP1 CALLDATASIZE SUB DUP2 ADD SWAP1 PUSH2 0x456 SWAP2 SWAP1 PUSH2 0x2779 JUMP JUMPDEST PUSH2 0xF6C JUMP JUMPDEST PUSH1 0x40 MLOAD PUSH2 0x46D SWAP7 SWAP6 SWAP5 SWAP4 SWAP3 SWAP2 SWAP1 PUSH2 0x2ACF JUMP JUMPDEST PUSH1 0x40 MLOAD DUP1 SWAP2 SUB SWAP1 RETURN JUMPDEST CALLVALUE DUP1 ISZERO PUSH2 0x482 JUMPI PUSH1 0x0 DUP1 REVERT JUMPDEST POP PUSH2 0x49D PUSH1 0x4 DUP1 CALLDATASIZE SUB DUP2 ADD SWAP1 PUSH2 0x498 SWAP2 SWAP1 PUSH2 0x2779 JUMP JUMPDEST PUSH2 0x108A JUMP JUMPDEST PUSH1 0x40 MLOAD PUSH2 0x4AA SWAP2 SWAP1 PUSH2 0x27E7 JUMP JUMPDEST PUSH1 0x40 MLOAD DUP1 SWAP2 SUB SWAP1 RETURN JUMPDEST CALLVALUE DUP1 ISZERO PUSH2 0x4BF JUMPI PUSH1 0x0 DUP1 REVERT JUMPDEST POP PUSH2 0x4DA PUSH1 0x4 DUP1 CALLDATASIZE SUB DUP2 ADD SWAP1 PUSH2 0x4D5 SWAP2 SWAP1 PUSH2 0x2779 JUMP JUMPDEST PUSH2 0x10C7 JUMP JUMPDEST PUSH1 0x40 MLOAD PUSH2 0x4E7 SWAP2 SWAP1 PUSH2 0x27E7 JUMP JUMPDEST PUSH1 0x40 MLOAD DUP1 SWAP2 SUB SWAP1 RETURN JUMPDEST CALLVALUE DUP1 ISZERO PUSH2 0x4FC JUMPI PUSH1 0x0 DUP1 REVERT JUMPDEST POP PUSH2 0x517 PUSH1 0x4 DUP1 CALLDATASIZE SUB DUP2 ADD SWAP1 PUSH2 0x512 SWAP2 SWAP1 PUSH2 0x2986 JUMP JUMPDEST PUSH2 0x10FA JUMP JUMPDEST PUSH1 0x40 MLOAD PUSH2 0x524 SWAP2 SWAP1 PUSH2 0x2680 JUMP JUMPDEST PUSH1 0x40 MLOAD DUP1 SWAP2 SUB SWAP1 RETURN JUMPDEST CALLVALUE DUP1 ISZERO PUSH2 0x539 JUMPI PUSH1 0x0 DUP1 REVERT JUMPDEST POP PUSH2 0x542 PUSH2 0x1143 JUMP JUMPDEST PUSH1 0x40 MLOAD PUSH2 0x54F SWAP2 SWAP1 PUSH2 0x27E7 JUMP JUMPDEST PUSH1 0x40 MLOAD DUP1 SWAP2 SUB SWAP1 RETURN JUMPDEST CALLVALUE DUP1 ISZERO PUSH2 0x564 JUMPI PUSH1 0x0 DUP1 REVERT JUMPDEST POP PUSH2 0x56D PUSH2 0x1167 JUMP JUMPDEST PUSH1 0x40 MLOAD PUSH2 0x57A SWAP2 SWAP1 PUSH2 0x2680 JUMP JUMPDEST PUSH1 0x40 MLOAD DUP1 SWAP2 SUB SWAP1 RETURN JUMPDEST CALLVALUE DUP1 ISZERO PUSH2 0x58F JUMPI PUSH1 0x0 DUP1 REVERT JUMPDEST POP PUSH2 0x598 PUSH2 0x116D JUMP JUMPDEST PUSH1 0x40 MLOAD PUSH2 0x5A5 SWAP2 SWAP1 PUSH2 0x272B JUMP JUMPDEST PUSH1 0x40 MLOAD DUP1 SWAP2 SUB SWAP1 RETURN JUMPDEST CALLVALUE DUP1 ISZERO PUSH2 0x5BA JUMPI PUSH1 0x0 DUP1 REVERT JUMPDEST POP PUSH2 0x5D5 PUSH1 0x4 DUP1 CALLDATASIZE SUB DUP2 ADD SWAP1 PUSH2 0x5D0 SWAP2 SWAP1 PUSH2 0x2B63 JUMP JUMPDEST PUSH2 0x11FF JUMP JUMPDEST STOP JUMPDEST CALLVALUE DUP1 ISZERO PUSH2 0x5E3 JUMPI PUSH1 0x0 DUP1 REVERT JUMPDEST POP PUSH2 0x5FE PUSH1 0x4 DUP1 CALLDATASIZE SUB DUP2 ADD SWAP1 PUSH2 0x5F9 SWAP2 SWAP1 PUSH2 0x2CD3 JUMP JUMPDEST PUSH2 0x1215 JUMP JUMPDEST STOP JUMPDEST CALLVALUE DUP1 ISZERO PUSH2 0x60C JUMPI PUSH1 0x0 DUP1 REVERT JUMPDEST POP PUSH2 0x627 PUSH1 0x4 DUP1 CALLDATASIZE SUB DUP2 ADD SWAP1 PUSH2 0x622 SWAP2 SWAP1 PUSH2 0x282E JUMP JUMPDEST PUSH2 0x12CC JUMP JUMPDEST STOP JUMPDEST CALLVALUE DUP1 ISZERO PUSH2 0x635 JUMPI PUSH1 0x0 DUP1 REVERT JUMPDEST POP PUSH2 0x650 PUSH1 0x4 DUP1 CALLDATASIZE SUB DUP2 ADD SWAP1 PUSH2 0x64B SWAP2 SWAP1 PUSH2 0x2779 JUMP JUMPDEST PUSH2 0x12DB JUMP JUMPDEST STOP JUMPDEST CALLVALUE DUP1 ISZERO PUSH2 0x65E JUMPI PUSH1 0x0 DUP1 REVERT JUMPDEST POP PUSH2 0x667 PUSH2 0x1398 JUMP JUMPDEST PUSH1 0x40 MLOAD PUSH2 0x674 SWAP2 SWAP1 PUSH2 0x2680 JUMP JUMPDEST PUSH1 0x40 MLOAD DUP1 SWAP2 SUB SWAP1 RETURN JUMPDEST CALLVALUE DUP1 ISZERO PUSH2 0x689 JUMPI PUSH1 0x0 DUP1 REVERT JUMPDEST POP PUSH2 0x6A4 PUSH1 0x4 DUP1 CALLDATASIZE SUB DUP2 ADD SWAP1 PUSH2 0x69F SWAP2 SWAP1 PUSH2 0x2DBD JUMP JUMPDEST PUSH2 0x139E JUMP JUMPDEST STOP JUMPDEST CALLVALUE DUP1 ISZERO PUSH2 0x6B2 JUMPI PUSH1 0x0 DUP1 REVERT JUMPDEST POP PUSH2 0x6CD PUSH1 0x4 DUP1 CALLDATASIZE SUB DUP2 ADD SWAP1 PUSH2 0x6C8 SWAP2 SWAP1 PUSH2 0x2779 JUMP JUMPDEST PUSH2 0x1400 JUMP JUMPDEST PUSH1 0x40 MLOAD PUSH2 0x6DA SWAP2 SWAP1 PUSH2 0x272B JUMP JUMPDEST PUSH1 0x40 MLOAD DUP1 SWAP2 SUB SWAP1 RETURN JUMPDEST CALLVALUE DUP1 ISZERO PUSH2 0x6EF JUMPI PUSH1 0x0 DUP1 REVERT JUMPDEST POP PUSH2 0x70A PUSH1 0x4 DUP1 CALLDATASIZE SUB DUP2 ADD SWAP1 PUSH2 0x705 SWAP2 SWAP1 PUSH2 0x2779 JUMP JUMPDEST PUSH2 0x1468 JUMP JUMPDEST STOP JUMPDEST CALLVALUE DUP1 ISZERO PUSH2 0x718 JUMPI PUSH1 0x0 DUP1 REVERT JUMPDEST POP PUSH2 0x733 PUSH1 0x4 DUP1 CALLDATASIZE SUB DUP2 ADD SWAP1 PUSH2 0x72E SWAP2 SWAP1 PUSH2 0x2E40 JUMP JUMPDEST PUSH2 0x1500 JUMP JUMPDEST PUSH1 0x40 MLOAD PUSH2 0x740 SWAP2 SWAP1 PUSH2 0x264C JUMP JUMPDEST PUSH1 0x40 MLOAD DUP1 SWAP2 SUB SWAP1 RETURN JUMPDEST CALLVALUE DUP1 ISZERO PUSH2 0x755 JUMPI PUSH1 0x0 DUP1 REVERT JUMPDEST POP PUSH2 0x770 PUSH1 0x4 DUP1 CALLDATASIZE SUB DUP2 ADD SWAP1 PUSH2 0x76B SWAP2 SWAP1 PUSH2 0x2779 JUMP JUMPDEST PUSH2 0x1594 JUMP JUMPDEST PUSH1 0x40 MLOAD PUSH2 0x77D SWAP2 SWAP1 PUSH2 0x27E7 JUMP JUMPDEST PUSH1 0x40 MLOAD DUP1 SWAP2 SUB SWAP1 RETURN JUMPDEST CALLVALUE DUP1 ISZERO PUSH2 0x792 JUMPI PUSH1 0x0 DUP1 REVERT JUMPDEST POP PUSH2 0x7AD PUSH1 0x4 DUP1 CALLDATASIZE SUB DUP2 ADD SWAP1 PUSH2 0x7A8 SWAP2 SWAP1 PUSH2 0x2EBE JUMP JUMPDEST PUSH2 0x15C7 JUMP JUMPDEST STOP JUMPDEST PUSH2 0x7C9 PUSH1 0x4 DUP1 CALLDATASIZE SUB DUP2 ADD SWAP1 PUSH2 0x7C4 SWAP2 SWAP1 PUSH2 0x2CD3 JUMP JUMPDEST PUSH2 0x1781 JUMP JUMPDEST STOP JUMPDEST PUSH1 0x0 PUSH32 0x80AC58CD00000000000000000000000000000000000000000000000000000000 PUSH28 0xFFFFFFFFFFFFFFFFFFFFFFFFFFFFFFFFFFFFFFFFFFFFFFFFFFFFFFFF NOT AND DUP3 PUSH28 0xFFFFFFFFFFFFFFFFFFFFFFFFFFFFFFFFFFFFFFFFFFFFFFFFFFFFFFFF NOT AND EQ DUP1 PUSH2 0x896 JUMPI POP PUSH32 0x5B5E139F00000000000000000000000000000000000000000000000000000000 PUSH28 0xFFFFFFFFFFFFFFFFFFFFFFFFFFFFFFFFFFFFFFFFFFFFFFFFFFFFFFFF NOT AND DUP3 PUSH28 0xFFFFFFFFFFFFFFFFFFFFFFFFFFFFFFFFFFFFFFFFFFFFFFFFFFFFFFFF NOT AND EQ JUMPDEST DUP1 PUSH2 0x8A6 JUMPI POP PUSH2 0x8A5 DUP3 PUSH2 0x1888 JUMP JUMPDEST JUMPDEST SWAP1 POP SWAP2 SWAP1 POP JUMP JUMPDEST PUSH1 0x5 SLOAD DUP2 JUMP JUMPDEST PUSH1 0x60 PUSH1 0xB DUP1 SLOAD PUSH2 0x8C2 SWAP1 PUSH2 0x2F1A JUMP JUMPDEST DUP1 PUSH1 0x1F ADD PUSH1 0x20 DUP1 SWAP2 DIV MUL PUSH1 0x20 ADD PUSH1 0x40 MLOAD SWAP1 DUP2 ADD PUSH1 0x40 MSTORE DUP1 SWAP3 SWAP2 SWAP1 DUP2 DUP2 MSTORE PUSH1 0x20 ADD DUP3 DUP1 SLOAD PUSH2 0x8EE SWAP1 PUSH2 0x2F1A JUMP JUMPDEST DUP1 ISZERO PUSH2 0x93B JUMPI DUP1 PUSH1 0x1F LT PUSH2 0x910 JUMPI PUSH2 0x100 DUP1 DUP4 SLOAD DIV MUL DUP4 MSTORE SWAP2 PUSH1 0x20 ADD SWAP2 PUSH2 0x93B JUMP JUMPDEST DUP3 ADD SWAP2 SWAP1 PUSH1 0x0 MSTORE PUSH1 0x20 PUSH1 0x0 KECCAK256 SWAP1 JUMPDEST DUP2 SLOAD DUP2 MSTORE SWAP1 PUSH1 0x1 ADD SWAP1 PUSH1 0x20 ADD DUP1 DUP4 GT PUSH2 0x91E JUMPI DUP3 SWAP1 SUB PUSH1 0x1F AND DUP3 ADD SWAP2 JUMPDEST POP POP POP POP POP SWAP1 POP SWAP1 JUMP JUMPDEST PUSH1 0x0 PUSH2 0x950 DUP3 PUSH2 0x18F2 JUMP JUMPDEST PUSH1 0xF PUSH1 0x0 DUP4 DUP2 MSTORE PUSH1 0x20 ADD SWAP1 DUP2 MSTORE PUSH1 0x20 ADD PUSH1 0x0 KECCAK256 PUSH1 0x0 SWAP1 SLOAD SWAP1 PUSH2 0x100 EXP SWAP1 DIV PUSH20 0xFFFFFFFFFFFFFFFFFFFFFFFFFFFFFFFFFFFFFFFF AND SWAP1 POP SWAP2 SWAP1 POP JUMP JUMPDEST CALLER PUSH20 0xFFFFFFFFFFFFFFFFFFFFFFFFFFFFFFFFFFFFFFFF AND PUSH1 0x7 PUSH1 0x0 DUP4 DUP2 MSTORE PUSH1 0x20 ADD SWAP1 DUP2 MSTORE PUSH1 0x20 ADD PUSH1 0x0 KECCAK256 PUSH1 0x0 SWAP1 SLOAD SWAP1 PUSH2 0x100 EXP SWAP1 DIV PUSH20 0xFFFFFFFFFFFFFFFFFFFFFFFFFFFFFFFFFFFFFFFF AND PUSH20 0xFFFFFFFFFFFFFFFFFFFFFFFFFFFFFFFFFFFFFFFF AND EQ PUSH2 0xA2C JUMPI PUSH1 0x40 MLOAD PUSH32 0x8C379A000000000000000000000000000000000000000000000000000000000 DUP2 MSTORE PUSH1 0x4 ADD PUSH2 0xA23 SWAP1 PUSH2 0x2F97 JUMP JUMPDEST PUSH1 0x40 MLOAD DUP1 SWAP2 SUB SWAP1 REVERT JUMPDEST DUP2 PUSH1 0x11 PUSH1 0x0 DUP4 DUP2 MSTORE PUSH1 0x20 ADD SWAP1 DUP2 MSTORE PUSH1 0x20 ADD PUSH1 0x0 KECCAK256 PUSH1 0x0 PUSH2 0x100 EXP DUP2 SLOAD DUP2 PUSH20 0xFFFFFFFFFFFFFFFFFFFFFFFFFFFFFFFFFFFFFFFF MUL NOT AND SWAP1 DUP4 PUSH20 0xFFFFFFFFFFFFFFFFFFFFFFFFFFFFFFFFFFFFFFFF AND MUL OR SWAP1 SSTORE POP DUP1 DUP3 PUSH20 0xFFFFFFFFFFFFFFFFFFFFFFFFFFFFFFFFFFFFFFFF AND CALLER PUSH20 0xFFFFFFFFFFFFFFFFFFFFFFFFFFFFFFFFFFFFFFFF AND PUSH32 0x8C5BE1E5EBEC7D5BD14F71427D1E84F3DD0314C0F7B2291E5B200AC8C7C3B925 PUSH1 0x40 MLOAD PUSH1 0x40 MLOAD DUP1 SWAP2 SUB SWAP1 LOG4 POP POP JUMP JUMPDEST PUSH1 0x0 PUSH1 0x14 SWAP1 SLOAD SWAP1 PUSH2 0x100 EXP SWAP1 DIV PUSH1 0xFF AND DUP2 JUMP JUMPDEST PUSH1 0xA SLOAD CALLVALUE LT ISZERO PUSH2 0xB35 JUMPI PUSH1 0x40 MLOAD PUSH32 0x8C379A000000000000000000000000000000000000000000000000000000000 DUP2 MSTORE PUSH1 0x4 ADD PUSH2 0xB2C SWAP1 PUSH2 0x3003 JUMP JUMPDEST PUSH1 0x40 MLOAD DUP1 SWAP2 SUB SWAP1 REVERT JUMPDEST PUSH1 0x6 DUP2 DUP2 SLOAD DUP2 LT PUSH2 0xB49 JUMPI PUSH2 0xB48 PUSH2 0x3023 JUMP JUMPDEST JUMPDEST SWAP1 PUSH1 0x0 MSTORE PUSH1 0x20 PUSH1 0x0 KECCAK256 SWAP1 PUSH1 0x2 MUL ADD PUSH1 0x1 ADD PUSH1 0x6 DUP2 DUP2 SWAP1 SLOAD SWAP1 PUSH2 0x100 EXP SWAP1 DIV PUSH4 0xFFFFFFFF AND DUP1 SWAP3 SWAP2 SWAP1 PUSH2 0xB7A SWAP1 PUSH2 0x3081 JUMP JUMPDEST SWAP2 SWAP1 PUSH2 0x100 EXP DUP2 SLOAD DUP2 PUSH4 0xFFFFFFFF MUL NOT AND SWAP1 DUP4 PUSH4 0xFFFFFFFF AND MUL OR SWAP1 SSTORE POP POP POP JUMP JUMPDEST PUSH2 0xBAD PUSH2 0xBA7 PUSH2 0x193D JUMP JUMPDEST DUP3 PUSH2 0x1945 JUMP JUMPDEST PUSH2 0xBEC JUMPI PUSH1 0x40 MLOAD PUSH32 0x8C379A000000000000000000000000000000000000000000000000000000000 DUP2 MSTORE PUSH1 0x4 ADD PUSH2 0xBE3 SWAP1 PUSH2 0x311F JUMP JUMPDEST PUSH1 0x40 MLOAD DUP1 SWAP2 SUB SWAP1 REVERT JUMPDEST PUSH2 0xBF7 DUP4 DUP4 DUP4 PUSH2 0x19DA JUMP JUMPDEST POP POP POP JUMP JUMPDEST PUSH1 0x2 DUP2 DUP2 PUSH1 0x6 DUP3 DUP2 SLOAD DUP2 LT PUSH2 0xC14 JUMPI PUSH2 0xC13 PUSH2 0x3023 JUMP JUMPDEST JUMPDEST SWAP1 PUSH1 0x0 MSTORE PUSH1 0x20 PUSH1 0x0 KECCAK256 SWAP1 PUSH1 0x2 MUL ADD PUSH1 0x1 ADD PUSH1 0x6 SWAP1 SLOAD SWAP1 PUSH2 0x100 EXP SWAP1 DIV PUSH4 0xFFFFFFFF AND PUSH4 0xFFFFFFFF AND LT ISZERO PUSH2 0xC7D JUMPI PUSH1 0x40 MLOAD PUSH32 0x8C379A000000000000000000000000000000000000000000000000000000000 DUP2 MSTORE PUSH1 0x4 ADD PUSH2 0xC74 SWAP1 PUSH2 0x2F97 JUMP JUMPDEST PUSH1 0x40 MLOAD DUP1 SWAP2 SUB SWAP1 REVERT JUMPDEST DUP3 PUSH1 0x7 PUSH1 0x0 DUP3 DUP2 MSTORE PUSH1 0x20 ADD SWAP1 DUP2 MSTORE PUSH1 0x20 ADD PUSH1 0x0 KECCAK256 PUSH1 0x0 SWAP1 SLOAD SWAP1 PUSH2 0x100 EXP SWAP1 DIV PUSH20 0xFFFFFFFFFFFFFFFFFFFFFFFFFFFFFFFFFFFFFFFF AND PUSH20 0xFFFFFFFFFFFFFFFFFFFFFFFFFFFFFFFFFFFFFFFF AND CALLER PUSH20 0xFFFFFFFFFFFFFFFFFFFFFFFFFFFFFFFFFFFFFFFF AND EQ PUSH2 0xD1F JUMPI PUSH1 0x40 MLOAD PUSH32 0x8C379A000000000000000000000000000000000000000000000000000000000 DUP2 MSTORE PUSH1 0x4 ADD PUSH2 0xD16 SWAP1 PUSH2 0x2F97 JUMP JUMPDEST PUSH1 0x40 MLOAD DUP1 SWAP2 SUB SWAP1 REVERT JUMPDEST DUP6 DUP6 PUSH1 0x6 DUP7 DUP2 SLOAD DUP2 LT PUSH2 0xD35 JUMPI PUSH2 0xD34 PUSH2 0x3023 JUMP JUMPDEST JUMPDEST SWAP1 PUSH1 0x0 MSTORE PUSH1 0x20 PUSH1 0x0 KECCAK256 SWAP1 PUSH1 0x2 MUL ADD PUSH1 0x0 ADD SWAP2 DUP3 PUSH2 0xD53 SWAP3 SWAP2 SWAP1 PUSH2 0x32F6 JUMP JUMPDEST POP POP POP POP POP POP POP JUMP JUMPDEST PUSH1 0x0 DUP1 SLOAD SWAP1 PUSH2 0x100 EXP SWAP1 DIV PUSH20 0xFFFFFFFFFFFFFFFFFFFFFFFFFFFFFFFFFFFFFFFF AND PUSH20 0xFFFFFFFFFFFFFFFFFFFFFFFFFFFFFFFFFFFFFFFF AND CALLER PUSH20 0xFFFFFFFFFFFFFFFFFFFFFFFFFFFFFFFFFFFFFFFF AND EQ PUSH2 0xDEA JUMPI PUSH1 0x40 MLOAD PUSH32 0x8C379A000000000000000000000000000000000000000000000000000000000 DUP2 MSTORE PUSH1 0x4 ADD PUSH2 0xDE1 SWAP1 PUSH2 0x3412 JUMP JUMPDEST PUSH1 0x40 MLOAD DUP1 SWAP2 SUB SWAP1 REVERT JUMPDEST DUP1 PUSH1 0xA DUP2 SWAP1 SSTORE POP POP JUMP JUMPDEST PUSH1 0x4 SLOAD DUP2 JUMP JUMPDEST PUSH2 0xE15 DUP4 DUP4 DUP4 PUSH1 0x40 MLOAD DUP1 PUSH1 0x20 ADD PUSH1 0x40 MSTORE DUP1 PUSH1 0x0 DUP2 MSTORE POP PUSH2 0x139E JUMP JUMPDEST POP POP POP JUMP JUMPDEST PUSH1 0x60 PUSH1 0x0 PUSH1 0x8 PUSH1 0x0 DUP5 PUSH20 0xFFFFFFFFFFFFFFFFFFFFFFFFFFFFFFFFFFFFFFFF AND PUSH20 0xFFFFFFFFFFFFFFFFFFFFFFFFFFFFFFFFFFFFFFFF AND DUP2 MSTORE PUSH1 0x20 ADD SWAP1 DUP2 MSTORE PUSH1 0x20 ADD PUSH1 0x0 KECCAK256 SLOAD PUSH8 0xFFFFFFFFFFFFFFFF DUP2 GT ISZERO PUSH2 0xE77 JUMPI PUSH2 0xE76 PUSH2 0x2BA8 JUMP JUMPDEST JUMPDEST PUSH1 0x40 MLOAD SWAP1 DUP1 DUP3 MSTORE DUP1 PUSH1 0x20 MUL PUSH1 0x20 ADD DUP3 ADD PUSH1 0x40 MSTORE DUP1 ISZERO PUSH2 0xEA5 JUMPI DUP2 PUSH1 0x20 ADD PUSH1 0x20 DUP3 MUL DUP1 CALLDATASIZE DUP4 CALLDATACOPY DUP1 DUP3 ADD SWAP2 POP POP SWAP1 POP JUMPDEST POP SWAP1 POP PUSH1 0x0 DUP1 JUMPDEST PUSH1 0x6 DUP1 SLOAD SWAP1 POP DUP2 LT ISZERO PUSH2 0xF61 JUMPI DUP5 PUSH20 0xFFFFFFFFFFFFFFFFFFFFFFFFFFFFFFFFFFFFFFFF AND PUSH1 0x7 PUSH1 0x0 DUP4 DUP2 MSTORE PUSH1 0x20 ADD SWAP1 DUP2 MSTORE PUSH1 0x20 ADD PUSH1 0x0 KECCAK256 PUSH1 0x0 SWAP1 SLOAD SWAP1 PUSH2 0x100 EXP SWAP1 DIV PUSH20 0xFFFFFFFFFFFFFFFFFFFFFFFFFFFFFFFFFFFFFFFF AND PUSH20 0xFFFFFFFFFFFFFFFFFFFFFFFFFFFFFFFFFFFFFFFF AND SUB PUSH2 0xF4E JUMPI DUP1 DUP4 DUP4 DUP2 MLOAD DUP2 LT PUSH2 0xF33 JUMPI PUSH2 0xF32 PUSH2 0x3023 JUMP JUMPDEST JUMPDEST PUSH1 0x20 MUL PUSH1 0x20 ADD ADD DUP2 DUP2 MSTORE POP POP DUP2 DUP1 PUSH2 0xF4A SWAP1 PUSH2 0x3432 JUMP JUMPDEST SWAP3 POP POP JUMPDEST DUP1 DUP1 PUSH2 0xF59 SWAP1 PUSH2 0x3432 JUMP JUMPDEST SWAP2 POP POP PUSH2 0xEAC JUMP JUMPDEST POP DUP2 SWAP3 POP POP POP SWAP2 SWAP1 POP JUMP JUMPDEST PUSH1 0x6 DUP2 DUP2 SLOAD DUP2 LT PUSH2 0xF7C JUMPI PUSH1 0x0 DUP1 REVERT JUMPDEST SWAP1 PUSH1 0x0 MSTORE PUSH1 0x20 PUSH1 0x0 KECCAK256 SWAP1 PUSH1 0x2 MUL ADD PUSH1 0x0 SWAP2 POP SWAP1 POP DUP1 PUSH1 0x0 ADD DUP1 SLOAD PUSH2 0xF9F SWAP1 PUSH2 0x2F1A JUMP JUMPDEST DUP1 PUSH1 0x1F ADD PUSH1 0x20 DUP1 SWAP2 DIV MUL PUSH1 0x20 ADD PUSH1 0x40 MLOAD SWAP1 DUP2 ADD PUSH1 0x40 MSTORE DUP1 SWAP3 SWAP2 SWAP1 DUP2 DUP2 MSTORE PUSH1 0x20 ADD DUP3 DUP1 SLOAD PUSH2 0xFCB SWAP1 PUSH2 0x2F1A JUMP JUMPDEST DUP1 ISZERO PUSH2 0x1018 JUMPI DUP1 PUSH1 0x1F LT PUSH2 0xFED JUMPI PUSH2 0x100 DUP1 DUP4 SLOAD DIV MUL DUP4 MSTORE SWAP2 PUSH1 0x20 ADD SWAP2 PUSH2 0x1018 JUMP JUMPDEST DUP3 ADD SWAP2 SWAP1 PUSH1 0x0 MSTORE PUSH1 0x20 PUSH1 0x0 KECCAK256 SWAP1 JUMPDEST DUP2 SLOAD DUP2 MSTORE SWAP1 PUSH1 0x1 ADD SWAP1 PUSH1 0x20 ADD DUP1 DUP4 GT PUSH2 0xFFB JUMPI DUP3 SWAP1 SUB PUSH1 0x1F AND DUP3 ADD SWAP2 JUMPDEST POP POP POP POP POP SWAP1 DUP1 PUSH1 0x1 ADD PUSH1 0x0 SWAP1 SLOAD SWAP1 PUSH2 0x100 EXP SWAP1 DIV PUSH2 0xFFFF AND SWAP1 DUP1 PUSH1 0x1 ADD PUSH1 0x2 SWAP1 SLOAD SWAP1 PUSH2 0x100 EXP SWAP1 DIV PUSH2 0xFFFF AND SWAP1 DUP1 PUSH1 0x1 ADD PUSH1 0x4 SWAP1 SLOAD SWAP1 PUSH2 0x100 EXP SWAP1 DIV PUSH2 0xFFFF AND SWAP1 DUP1 PUSH1 0x1 ADD PUSH1 0x6 SWAP1 SLOAD SWAP1 PUSH2 0x100 EXP SWAP1 DIV PUSH4 0xFFFFFFFF AND SWAP1 DUP1 PUSH1 0x1 ADD PUSH1 0xA SWAP1 SLOAD SWAP1 PUSH2 0x100 EXP SWAP1 DIV PUSH4 0xFFFFFFFF AND SWAP1 POP DUP7 JUMP JUMPDEST PUSH1 0x0 PUSH1 0x7 PUSH1 0x0 DUP4 DUP2 MSTORE PUSH1 0x20 ADD SWAP1 DUP2 MSTORE PUSH1 0x20 ADD PUSH1 0x0 KECCAK256 PUSH1 0x0 SWAP1 SLOAD SWAP1 PUSH2 0x100 EXP SWAP1 DIV PUSH20 0xFFFFFFFFFFFFFFFFFFFFFFFFFFFFFFFFFFFFFFFF AND SWAP1 POP SWAP2 SWAP1 POP JUMP JUMPDEST PUSH1 0x7 PUSH1 0x20 MSTORE DUP1 PUSH1 0x0 MSTORE PUSH1 0x40 PUSH1 0x0 KECCAK256 PUSH1 0x0 SWAP2 POP SLOAD SWAP1 PUSH2 0x100 EXP SWAP1 DIV PUSH20 0xFFFFFFFFFFFFFFFFFFFFFFFFFFFFFFFFFFFFFFFF AND DUP2 JUMP JUMPDEST PUSH1 0x0 PUSH1 0x8 PUSH1 0x0 DUP4 PUSH20 0xFFFFFFFFFFFFFFFFFFFFFFFFFFFFFFFFFFFFFFFF AND PUSH20 0xFFFFFFFFFFFFFFFFFFFFFFFFFFFFFFFFFFFFFFFF AND DUP2 MSTORE PUSH1 0x20 ADD SWAP1 DUP2 MSTORE PUSH1 0x20 ADD PUSH1 0x0 KECCAK256 SLOAD SWAP1 POP SWAP2 SWAP1 POP JUMP JUMPDEST PUSH1 0x0 DUP1 SLOAD SWAP1 PUSH2 0x100 EXP SWAP1 DIV PUSH20 0xFFFFFFFFFFFFFFFFFFFFFFFFFFFFFFFFFFFFFFFF AND DUP2 JUMP JUMPDEST PUSH1 0xA SLOAD DUP2 JUMP JUMPDEST PUSH1 0x60 PUSH1 0xC DUP1 SLOAD PUSH2 0x117C SWAP1 PUSH2 0x2F1A JUMP JUMPDEST DUP1 PUSH1 0x1F ADD PUSH1 0x20 DUP1 SWAP2 DIV MUL PUSH1 0x20 ADD PUSH1 0x40 MLOAD SWAP1 DUP2 ADD PUSH1 0x40 MSTORE DUP1 SWAP3 SWAP2 SWAP1 DUP2 DUP2 MSTORE PUSH1 0x20 ADD DUP3 DUP1 SLOAD PUSH2 0x11A8 SWAP1 PUSH2 0x2F1A JUMP JUMPDEST DUP1 ISZERO PUSH2 0x11F5 JUMPI DUP1 PUSH1 0x1F LT PUSH2 0x11CA JUMPI PUSH2 0x100 DUP1 DUP4 SLOAD DIV MUL DUP4 MSTORE SWAP2 PUSH1 0x20 ADD SWAP2 PUSH2 0x11F5 JUMP JUMPDEST DUP3 ADD SWAP2 SWAP1 PUSH1 0x0 MSTORE PUSH1 0x20 PUSH1 0x0 KECCAK256 SWAP1 JUMPDEST DUP2 SLOAD DUP2 MSTORE SWAP1 PUSH1 0x1 ADD SWAP1 PUSH1 0x20 ADD DUP1 DUP4 GT PUSH2 0x11D8 JUMPI DUP3 SWAP1 SUB PUSH1 0x1F AND DUP3 ADD SWAP2 JUMPDEST POP POP POP POP POP SWAP1 POP SWAP1 JUMP JUMPDEST PUSH2 0x1211 PUSH2 0x120A PUSH2 0x193D JUMP JUMPDEST DUP4 DUP4 PUSH2 0x1BB8 JUMP JUMPDEST POP POP JUMP JUMPDEST PUSH1 0x0 PUSH1 0x8 PUSH1 0x0 CALLER PUSH20 0xFFFFFFFFFFFFFFFFFFFFFFFFFFFFFFFFFFFFFFFF AND PUSH20 0xFFFFFFFFFFFFFFFFFFFFFFFFFFFFFFFFFFFFFFFF AND DUP2 MSTORE PUSH1 0x20 ADD SWAP1 DUP2 MSTORE PUSH1 0x20 ADD PUSH1 0x0 KECCAK256 SLOAD EQ PUSH2 0x1297 JUMPI PUSH1 0x40 MLOAD PUSH32 0x8C379A000000000000000000000000000000000000000000000000000000000 DUP2 MSTORE PUSH1 0x4 ADD PUSH2 0x128E SWAP1 PUSH2 0x2F97 JUMP JUMPDEST PUSH1 0x40 MLOAD DUP1 SWAP2 SUB SWAP1 REVERT JUMPDEST PUSH1 0x0 PUSH2 0x12A2 DUP3 PUSH2 0x1D24 JUMP JUMPDEST SWAP1 POP PUSH1 0xA DUP2 PUSH2 0x12B1 SWAP2 SWAP1 PUSH2 0x34A9 JUMP JUMPDEST DUP2 PUSH2 0x12BC SWAP2 SWAP1 PUSH2 0x34DA JUMP JUMPDEST SWAP1 POP PUSH2 0x12C8 DUP3 DUP3 PUSH2 0x1D66 JUMP JUMPDEST POP POP JUMP JUMPDEST PUSH2 0x12D7 CALLER DUP4 DUP4 PUSH2 0x19DA JUMP JUMPDEST POP POP JUMP JUMPDEST CALLER PUSH20 0xFFFFFFFFFFFFFFFFFFFFFFFFFFFFFFFFFFFFFFFF AND PUSH1 0x11 PUSH1 0x0 DUP4 DUP2 MSTORE PUSH1 0x20 ADD SWAP1 DUP2 MSTORE PUSH1 0x20 ADD PUSH1 0x0 KECCAK256 PUSH1 0x0 SWAP1 SLOAD SWAP1 PUSH2 0x100 EXP SWAP1 DIV PUSH20 0xFFFFFFFFFFFFFFFFFFFFFFFFFFFFFFFFFFFFFFFF AND PUSH20 0xFFFFFFFFFFFFFFFFFFFFFFFFFFFFFFFFFFFFFFFF AND EQ PUSH2 0x137C JUMPI PUSH1 0x40 MLOAD PUSH32 0x8C379A000000000000000000000000000000000000000000000000000000000 DUP2 MSTORE PUSH1 0x4 ADD PUSH2 0x1373 SWAP1 PUSH2 0x2F97 JUMP JUMPDEST PUSH1 0x40 MLOAD DUP1 SWAP2 SUB SWAP1 REVERT JUMPDEST PUSH1 0x0 PUSH2 0x1387 DUP3 PUSH2 0x108A JUMP JUMPDEST SWAP1 POP PUSH2 0x1394 DUP2 CALLER DUP5 PUSH2 0x19DA JUMP JUMPDEST POP POP JUMP JUMPDEST PUSH1 0x3 SLOAD DUP2 JUMP JUMPDEST PUSH2 0x13AF PUSH2 0x13A9 PUSH2 0x193D JUMP JUMPDEST DUP4 PUSH2 0x1945 JUMP JUMPDEST PUSH2 0x13EE JUMPI PUSH1 0x40 MLOAD PUSH32 0x8C379A000000000000000000000000000000000000000000000000000000000 DUP2 MSTORE PUSH1 0x4 ADD PUSH2 0x13E5 SWAP1 PUSH2 0x311F JUMP JUMPDEST PUSH1 0x40 MLOAD DUP1 SWAP2 SUB SWAP1 REVERT JUMPDEST PUSH2 0x13FA DUP5 DUP5 DUP5 DUP5 PUSH2 0x2003 JUMP JUMPDEST POP POP POP POP JUMP JUMPDEST PUSH1 0x60 PUSH2 0x140B DUP3 PUSH2 0x18F2 JUMP JUMPDEST PUSH1 0x0 PUSH2 0x1415 PUSH2 0x205F JUMP JUMPDEST SWAP1 POP PUSH1 0x0 DUP2 MLOAD GT PUSH2 0x1435 JUMPI PUSH1 0x40 MLOAD DUP1 PUSH1 0x20 ADD PUSH1 0x40 MSTORE DUP1 PUSH1 0x0 DUP2 MSTORE POP PUSH2 0x1460 JUMP JUMPDEST DUP1 PUSH2 0x143F DUP5 PUSH2 0x2076 JUMP JUMPDEST PUSH1 0x40 MLOAD PUSH1 0x20 ADD PUSH2 0x1450 SWAP3 SWAP2 SWAP1 PUSH2 0x354C JUMP JUMPDEST PUSH1 0x40 MLOAD PUSH1 0x20 DUP2 DUP4 SUB SUB DUP2 MSTORE SWAP1 PUSH1 0x40 MSTORE JUMPDEST SWAP2 POP POP SWAP2 SWAP1 POP JUMP JUMPDEST PUSH1 0x0 DUP1 SLOAD SWAP1 PUSH2 0x100 EXP SWAP1 DIV PUSH20 0xFFFFFFFFFFFFFFFFFFFFFFFFFFFFFFFFFFFFFFFF AND PUSH20 0xFFFFFFFFFFFFFFFFFFFFFFFFFFFFFFFFFFFFFFFF AND CALLER PUSH20 0xFFFFFFFFFFFFFFFFFFFFFFFFFFFFFFFFFFFFFFFF AND EQ PUSH2 0x14F6 JUMPI PUSH1 0x40 MLOAD PUSH32 0x8C379A000000000000000000000000000000000000000000000000000000000 DUP2 MSTORE PUSH1 0x4 ADD PUSH2 0x14ED SWAP1 PUSH2 0x3412 JUMP JUMPDEST PUSH1 0x40 MLOAD DUP1 SWAP2 SUB SWAP1 REVERT JUMPDEST DUP1 PUSH1 0x4 DUP2 SWAP1 SSTORE POP POP JUMP JUMPDEST PUSH1 0x0 PUSH1 0x10 PUSH1 0x0 DUP5 PUSH20 0xFFFFFFFFFFFFFFFFFFFFFFFFFFFFFFFFFFFFFFFF AND PUSH20 0xFFFFFFFFFFFFFFFFFFFFFFFFFFFFFFFFFFFFFFFF AND DUP2 MSTORE PUSH1 0x20 ADD SWAP1 DUP2 MSTORE PUSH1 0x20 ADD PUSH1 0x0 KECCAK256 PUSH1 0x0 DUP4 PUSH20 0xFFFFFFFFFFFFFFFFFFFFFFFFFFFFFFFFFFFFFFFF AND PUSH20 0xFFFFFFFFFFFFFFFFFFFFFFFFFFFFFFFFFFFFFFFF AND DUP2 MSTORE PUSH1 0x20 ADD SWAP1 DUP2 MSTORE PUSH1 0x20 ADD PUSH1 0x0 KECCAK256 PUSH1 0x0 SWAP1 SLOAD SWAP1 PUSH2 0x100 EXP SWAP1 DIV PUSH1 0xFF AND SWAP1 POP SWAP3 SWAP2 POP POP JUMP JUMPDEST PUSH1 0x11 PUSH1 0x20 MSTORE DUP1 PUSH1 0x0 MSTORE PUSH1 0x40 PUSH1 0x0 KECCAK256 PUSH1 0x0 SWAP2 POP SLOAD SWAP1 PUSH2 0x100 EXP SWAP1 DIV PUSH20 0xFFFFFFFFFFFFFFFFFFFFFFFFFFFFFFFFFFFFFFFF AND DUP2 JUMP JUMPDEST PUSH1 0x0 DUP1 SLOAD SWAP1 PUSH2 0x100 EXP SWAP1 DIV PUSH20 0xFFFFFFFFFFFFFFFFFFFFFFFFFFFFFFFFFFFFFFFF AND PUSH20 0xFFFFFFFFFFFFFFFFFFFFFFFFFFFFFFFFFFFFFFFF AND CALLER PUSH20 0xFFFFFFFFFFFFFFFFFFFFFFFFFFFFFFFFFFFFFFFF AND EQ PUSH2 0x1655 JUMPI PUSH1 0x40 MLOAD PUSH32 0x8C379A000000000000000000000000000000000000000000000000000000000 DUP2 MSTORE PUSH1 0x4 ADD PUSH2 0x164C SWAP1 PUSH2 0x3412 JUMP JUMPDEST PUSH1 0x40 MLOAD DUP1 SWAP2 SUB SWAP1 REVERT JUMPDEST PUSH1 0x0 PUSH20 0xFFFFFFFFFFFFFFFFFFFFFFFFFFFFFFFFFFFFFFFF AND DUP2 PUSH20 0xFFFFFFFFFFFFFFFFFFFFFFFFFFFFFFFFFFFFFFFF AND SUB PUSH2 0x16C4 JUMPI PUSH1 0x40 MLOAD PUSH32 0x8C379A000000000000000000000000000000000000000000000000000000000 DUP2 MSTORE PUSH1 0x4 ADD PUSH2 0x16BB SWAP1 PUSH2 0x3412 JUMP JUMPDEST PUSH1 0x40 MLOAD DUP1 SWAP2 SUB SWAP1 REVERT JUMPDEST DUP1 PUSH20 0xFFFFFFFFFFFFFFFFFFFFFFFFFFFFFFFFFFFFFFFF AND PUSH1 0x0 DUP1 SLOAD SWAP1 PUSH2 0x100 EXP SWAP1 DIV PUSH20 0xFFFFFFFFFFFFFFFFFFFFFFFFFFFFFFFFFFFFFFFF AND PUSH20 0xFFFFFFFFFFFFFFFFFFFFFFFFFFFFFFFFFFFFFFFF AND PUSH32 0x8BE0079C531659141344CD1FD0A4F28419497F9722A3DAAFE3B4186F6B6457E0 PUSH1 0x40 MLOAD PUSH1 0x40 MLOAD DUP1 SWAP2 SUB SWAP1 LOG3 DUP1 PUSH1 0x0 DUP1 PUSH2 0x100 EXP DUP2 SLOAD DUP2 PUSH20 0xFFFFFFFFFFFFFFFFFFFFFFFFFFFFFFFFFFFFFFFF MUL NOT AND SWAP1 DUP4 PUSH20 0xFFFFFFFFFFFFFFFFFFFFFFFFFFFFFFFFFFFFFFFF AND MUL OR SWAP1 SSTORE POP POP JUMP JUMPDEST PUSH1 0x0 PUSH1 0x8 PUSH1 0x0 CALLER PUSH20 0xFFFFFFFFFFFFFFFFFFFFFFFFFFFFFFFFFFFFFFFF AND PUSH20 0xFFFFFFFFFFFFFFFFFFFFFFFFFFFFFFFFFFFFFFFF AND DUP2 MSTORE PUSH1 0x20 ADD SWAP1 DUP2 MSTORE PUSH1 0x20 ADD PUSH1 0x0 KECCAK256 SLOAD GT PUSH2 0x1803 JUMPI PUSH1 0x40 MLOAD PUSH32 0x8C379A000000000000000000000000000000000000000000000000000000000 DUP2 MSTORE PUSH1 0x4 ADD PUSH2 0x17FA SWAP1 PUSH2 0x2F97 JUMP JUMPDEST PUSH1 0x40 MLOAD DUP1 SWAP2 SUB SWAP1 REVERT JUMPDEST PUSH1 0x4 SLOAD CALLVALUE GT PUSH2 0x1847 JUMPI PUSH1 0x40 MLOAD PUSH32 0x8C379A000000000000000000000000000000000000000000000000000000000 DUP2 MSTORE PUSH1 0x4 ADD PUSH2 0x183E SWAP1 PUSH2 0x2F97 JUMP JUMPDEST PUSH1 0x40 MLOAD DUP1 SWAP2 SUB SWAP1 REVERT JUMPDEST PUSH1 0x0 PUSH2 0x1852 DUP3 PUSH2 0x1D24 JUMP JUMPDEST SWAP1 POP PUSH1 0x1 PUSH1 0xA DUP3 PUSH2 0x1863 SWAP2 SWAP1 PUSH2 0x34A9 JUMP JUMPDEST DUP3 PUSH2 0x186E SWAP2 SWAP1 PUSH2 0x34DA JUMP JUMPDEST PUSH2 0x1878 SWAP2 SWAP1 PUSH2 0x3570 JUMP JUMPDEST SWAP1 POP PUSH2 0x1884 DUP3 DUP3 PUSH2 0x1D66 JUMP JUMPDEST POP POP JUMP JUMPDEST PUSH1 0x0 PUSH32 0x1FFC9A700000000000000000000000000000000000000000000000000000000 PUSH28 0xFFFFFFFFFFFFFFFFFFFFFFFFFFFFFFFFFFFFFFFFFFFFFFFFFFFFFFFF NOT AND DUP3 PUSH28 0xFFFFFFFFFFFFFFFFFFFFFFFFFFFFFFFFFFFFFFFFFFFFFFFFFFFFFFFF NOT AND EQ SWAP1 POP SWAP2 SWAP1 POP JUMP JUMPDEST PUSH2 0x18FB DUP2 PUSH2 0x2144 JUMP JUMPDEST PUSH2 0x193A JUMPI PUSH1 0x40 MLOAD PUSH32 0x8C379A000000000000000000000000000000000000000000000000000000000 DUP2 MSTORE PUSH1 0x4 ADD PUSH2 0x1931 SWAP1 PUSH2 0x35F2 JUMP JUMPDEST PUSH1 0x40 MLOAD DUP1 SWAP2 SUB SWAP1 REVERT JUMPDEST POP JUMP JUMPDEST PUSH1 0x0 CALLER SWAP1 POP SWAP1 JUMP JUMPDEST PUSH1 0x0 DUP1 PUSH2 0x1951 DUP4 PUSH2 0x2185 JUMP JUMPDEST SWAP1 POP DUP1 PUSH20 0xFFFFFFFFFFFFFFFFFFFFFFFFFFFFFFFFFFFFFFFF AND DUP5 PUSH20 0xFFFFFFFFFFFFFFFFFFFFFFFFFFFFFFFFFFFFFFFF AND EQ DUP1 PUSH2 0x1993 JUMPI POP PUSH2 0x1992 DUP2 DUP6 PUSH2 0x1500 JUMP JUMPDEST JUMPDEST DUP1 PUSH2 0x19D1 JUMPI POP DUP4 PUSH20 0xFFFFFFFFFFFFFFFFFFFFFFFFFFFFFFFFFFFFFFFF AND PUSH2 0x19B9 DUP5 PUSH2 0x945 JUMP JUMPDEST PUSH20 0xFFFFFFFFFFFFFFFFFFFFFFFFFFFFFFFFFFFFFFFF AND EQ JUMPDEST SWAP2 POP POP SWAP3 SWAP2 POP POP JUMP JUMPDEST PUSH2 0x1A2D PUSH1 0x1 PUSH1 0x8 PUSH1 0x0 DUP6 PUSH20 0xFFFFFFFFFFFFFFFFFFFFFFFFFFFFFFFFFFFFFFFF AND PUSH20 0xFFFFFFFFFFFFFFFFFFFFFFFFFFFFFFFFFFFFFFFF AND DUP2 MSTORE PUSH1 0x20 ADD SWAP1 DUP2 MSTORE PUSH1 0x20 ADD PUSH1 0x0 KECCAK256 SLOAD PUSH2 0x220B SWAP1 SWAP2 SWAP1 PUSH4 0xFFFFFFFF AND JUMP JUMPDEST PUSH1 0x8 PUSH1 0x0 DUP5 PUSH20 0xFFFFFFFFFFFFFFFFFFFFFFFFFFFFFFFFFFFFFFFF AND PUSH20 0xFFFFFFFFFFFFFFFFFFFFFFFFFFFFFFFFFFFFFFFF AND DUP2 MSTORE PUSH1 0x20 ADD SWAP1 DUP2 MSTORE PUSH1 0x20 ADD PUSH1 0x0 KECCAK256 DUP2 SWAP1 SSTORE POP PUSH2 0x1AC3 PUSH1 0x1 PUSH1 0x8 PUSH1 0x0 DUP7 PUSH20 0xFFFFFFFFFFFFFFFFFFFFFFFFFFFFFFFFFFFFFFFF AND PUSH20 0xFFFFFFFFFFFFFFFFFFFFFFFFFFFFFFFFFFFFFFFF AND DUP2 MSTORE PUSH1 0x20 ADD SWAP1 DUP2 MSTORE PUSH1 0x20 ADD PUSH1 0x0 KECCAK256 SLOAD PUSH2 0x2237 SWAP1 SWAP2 SWAP1 PUSH4 0xFFFFFFFF AND JUMP JUMPDEST PUSH1 0x8 PUSH1 0x0 DUP6 PUSH20 0xFFFFFFFFFFFFFFFFFFFFFFFFFFFFFFFFFFFFFFFF AND PUSH20 0xFFFFFFFFFFFFFFFFFFFFFFFFFFFFFFFFFFFFFFFF AND DUP2 MSTORE PUSH1 0x20 ADD SWAP1 DUP2 MSTORE PUSH1 0x20 ADD PUSH1 0x0 KECCAK256 DUP2 SWAP1 SSTORE POP DUP2 PUSH1 0x7 PUSH1 0x0 DUP4 DUP2 MSTORE PUSH1 0x20 ADD SWAP1 DUP2 MSTORE PUSH1 0x20 ADD PUSH1 0x0 KECCAK256 PUSH1 0x0 PUSH2 0x100 EXP DUP2 SLOAD DUP2 PUSH20 0xFFFFFFFFFFFFFFFFFFFFFFFFFFFFFFFFFFFFFFFF MUL NOT AND SWAP1 DUP4 PUSH20 0xFFFFFFFFFFFFFFFFFFFFFFFFFFFFFFFFFFFFFFFF AND MUL OR SWAP1 SSTORE POP DUP1 DUP3 PUSH20 0xFFFFFFFFFFFFFFFFFFFFFFFFFFFFFFFFFFFFFFFF AND DUP5 PUSH20 0xFFFFFFFFFFFFFFFFFFFFFFFFFFFFFFFFFFFFFFFF AND PUSH32 0xDDF252AD1BE2C89B69C2B068FC378DAA952BA7F163C4A11628F55A4DF523B3EF PUSH1 0x40 MLOAD PUSH1 0x40 MLOAD DUP1 SWAP2 SUB SWAP1 LOG4 POP POP POP JUMP JUMPDEST DUP2 PUSH20 0xFFFFFFFFFFFFFFFFFFFFFFFFFFFFFFFFFFFFFFFF AND DUP4 PUSH20 0xFFFFFFFFFFFFFFFFFFFFFFFFFFFFFFFFFFFFFFFF AND SUB PUSH2 0x1C26 JUMPI PUSH1 0x40 MLOAD PUSH32 0x8C379A000000000000000000000000000000000000000000000000000000000 DUP2 MSTORE PUSH1 0x4 ADD PUSH2 0x1C1D SWAP1 PUSH2 0x365E JUMP JUMPDEST PUSH1 0x40 MLOAD DUP1 SWAP2 SUB SWAP1 REVERT JUMPDEST DUP1 PUSH1 0x10 PUSH1 0x0 DUP6 PUSH20 0xFFFFFFFFFFFFFFFFFFFFFFFFFFFFFFFFFFFFFFFF AND PUSH20 0xFFFFFFFFFFFFFFFFFFFFFFFFFFFFFFFFFFFFFFFF AND DUP2 MSTORE PUSH1 0x20 ADD SWAP1 DUP2 MSTORE PUSH1 0x20 ADD PUSH1 0x0 KECCAK256 PUSH1 0x0 DUP5 PUSH20 0xFFFFFFFFFFFFFFFFFFFFFFFFFFFFFFFFFFFFFFFF AND PUSH20 0xFFFFFFFFFFFFFFFFFFFFFFFFFFFFFFFFFFFFFFFF AND DUP2 MSTORE PUSH1 0x20 ADD SWAP1 DUP2 MSTORE PUSH1 0x20 ADD PUSH1 0x0 KECCAK256 PUSH1 0x0 PUSH2 0x100 EXP DUP2 SLOAD DUP2 PUSH1 0xFF MUL NOT AND SWAP1 DUP4 ISZERO ISZERO MUL OR SWAP1 SSTORE POP DUP2 PUSH20 0xFFFFFFFFFFFFFFFFFFFFFFFFFFFFFFFFFFFFFFFF AND DUP4 PUSH20 0xFFFFFFFFFFFFFFFFFFFFFFFFFFFFFFFFFFFFFFFF AND PUSH32 0x17307EAB39AB6107E8899845AD3D59BD9653F200F220920489CA2B5937696C31 DUP4 PUSH1 0x40 MLOAD PUSH2 0x1D17 SWAP2 SWAP1 PUSH2 0x264C JUMP JUMPDEST PUSH1 0x40 MLOAD DUP1 SWAP2 SUB SWAP1 LOG3 POP POP POP JUMP JUMPDEST PUSH1 0x0 PUSH1 0x2 SLOAD DUP3 TIMESTAMP PUSH1 0x40 MLOAD PUSH1 0x20 ADD PUSH2 0x1D3C SWAP3 SWAP2 SWAP1 PUSH2 0x369F JUMP JUMPDEST PUSH1 0x40 MLOAD PUSH1 0x20 DUP2 DUP4 SUB SUB DUP2 MSTORE SWAP1 PUSH1 0x40 MSTORE DUP1 MLOAD SWAP1 PUSH1 0x20 ADD KECCAK256 PUSH1 0x0 SHR PUSH2 0x1D5F SWAP2 SWAP1 PUSH2 0x36C7 JUMP JUMPDEST SWAP1 POP SWAP2 SWAP1 POP JUMP JUMPDEST PUSH1 0x6 PUSH1 0x40 MLOAD DUP1 PUSH1 0xC0 ADD PUSH1 0x40 MSTORE DUP1 DUP5 DUP2 MSTORE PUSH1 0x20 ADD DUP4 PUSH2 0xFFFF AND DUP2 MSTORE PUSH1 0x20 ADD PUSH1 0x0 PUSH2 0xFFFF AND DUP2 MSTORE PUSH1 0x20 ADD PUSH1 0x0 PUSH2 0xFFFF AND DUP2 MSTORE PUSH1 0x20 ADD PUSH1 0x1 PUSH4 0xFFFFFFFF AND DUP2 MSTORE PUSH1 0x20 ADD PUSH1 0x0 PUSH4 0xFFFFFFFF AND DUP2 MSTORE POP SWAP1 DUP1 PUSH1 0x1 DUP2 SLOAD ADD DUP1 DUP3 SSTORE DUP1 SWAP2 POP POP PUSH1 0x1 SWAP1 SUB SWAP1 PUSH1 0x0 MSTORE PUSH1 0x20 PUSH1 0x0 KECCAK256 SWAP1 PUSH1 0x2 MUL ADD PUSH1 0x0 SWAP1 SWAP2 SWAP1 SWAP2 SWAP1 SWAP2 POP PUSH1 0x0 DUP3 ADD MLOAD DUP2 PUSH1 0x0 ADD SWAP1 DUP2 PUSH2 0x1DEF SWAP2 SWAP1 PUSH2 0x36F8 JUMP JUMPDEST POP PUSH1 0x20 DUP3 ADD MLOAD DUP2 PUSH1 0x1 ADD PUSH1 0x0 PUSH2 0x100 EXP DUP2 SLOAD DUP2 PUSH2 0xFFFF MUL NOT AND SWAP1 DUP4 PUSH2 0xFFFF AND MUL OR SWAP1 SSTORE POP PUSH1 0x40 DUP3 ADD MLOAD DUP2 PUSH1 0x1 ADD PUSH1 0x2 PUSH2 0x100 EXP DUP2 SLOAD DUP2 PUSH2 0xFFFF MUL NOT AND SWAP1 DUP4 PUSH2 0xFFFF AND MUL OR SWAP1 SSTORE POP PUSH1 0x60 DUP3 ADD MLOAD DUP2 PUSH1 0x1 ADD PUSH1 0x4 PUSH2 0x100 EXP DUP2 SLOAD DUP2 PUSH2 0xFFFF MUL NOT AND SWAP1 DUP4 PUSH2 0xFFFF AND MUL OR SWAP1 SSTORE POP PUSH1 0x80 DUP3 ADD MLOAD DUP2 PUSH1 0x1 ADD PUSH1 0x6 PUSH2 0x100 EXP DUP2 SLOAD DUP2 PUSH4 0xFFFFFFFF MUL NOT AND SWAP1 DUP4 PUSH4 0xFFFFFFFF AND MUL OR SWAP1 SSTORE POP PUSH1 0xA0 DUP3 ADD MLOAD DUP2 PUSH1 0x1 ADD PUSH1 0xA PUSH2 0x100 EXP DUP2 SLOAD DUP2 PUSH4 0xFFFFFFFF MUL NOT AND SWAP1 DUP4 PUSH4 0xFFFFFFFF AND MUL OR SWAP1 SSTORE POP POP POP PUSH1 0x0 PUSH1 0x1 PUSH1 0x6 DUP1 SLOAD SWAP1 POP PUSH2 0x1EBD SWAP2 SWAP1 PUSH2 0x37CA JUMP JUMPDEST SWAP1 POP CALLER PUSH1 0x7 PUSH1 0x0 DUP4 DUP2 MSTORE PUSH1 0x20 ADD SWAP1 DUP2 MSTORE PUSH1 0x20 ADD PUSH1 0x0 KECCAK256 PUSH1 0x0 PUSH2 0x100 EXP DUP2 SLOAD DUP2 PUSH20 0xFFFFFFFFFFFFFFFFFFFFFFFFFFFFFFFFFFFFFFFF MUL NOT AND SWAP1 DUP4 PUSH20 0xFFFFFFFFFFFFFFFFFFFFFFFFFFFFFFFFFFFFFFFF AND MUL OR SWAP1 SSTORE POP PUSH2 0x1F64 PUSH1 0x1 PUSH1 0x8 PUSH1 0x0 CALLER PUSH20 0xFFFFFFFFFFFFFFFFFFFFFFFFFFFFFFFFFFFFFFFF AND PUSH20 0xFFFFFFFFFFFFFFFFFFFFFFFFFFFFFFFFFFFFFFFF AND DUP2 MSTORE PUSH1 0x20 ADD SWAP1 DUP2 MSTORE PUSH1 0x20 ADD PUSH1 0x0 KECCAK256 SLOAD PUSH2 0x220B SWAP1 SWAP2 SWAP1 PUSH4 0xFFFFFFFF AND JUMP JUMPDEST PUSH1 0x8 PUSH1 0x0 CALLER PUSH20 0xFFFFFFFFFFFFFFFFFFFFFFFFFFFFFFFFFFFFFFFF AND PUSH20 0xFFFFFFFFFFFFFFFFFFFFFFFFFFFFFFFFFFFFFFFF AND DUP2 MSTORE PUSH1 0x20 ADD SWAP1 DUP2 MSTORE PUSH1 0x20 ADD PUSH1 0x0 KECCAK256 DUP2 SWAP1 SSTORE POP PUSH2 0x1FBD PUSH1 0x1 PUSH1 0x5 SLOAD PUSH2 0x220B SWAP1 SWAP2 SWAP1 PUSH4 0xFFFFFFFF AND JUMP JUMPDEST PUSH1 0x5 DUP2 SWAP1 SSTORE POP PUSH32 0xFFB2FB18E6D3EC7EF368D2F329EF22F9431AAEBE0FCBC9282D7770949AC8CD31 DUP2 DUP5 DUP5 PUSH1 0x40 MLOAD PUSH2 0x1FF6 SWAP4 SWAP3 SWAP2 SWAP1 PUSH2 0x382F JUMP JUMPDEST PUSH1 0x40 MLOAD DUP1 SWAP2 SUB SWAP1 LOG1 POP POP POP JUMP JUMPDEST PUSH2 0x200E DUP5 DUP5 DUP5 PUSH2 0x19DA JUMP JUMPDEST PUSH2 0x201A DUP5 DUP5 DUP5 DUP5 PUSH2 0x225E JUMP JUMPDEST PUSH2 0x2059 JUMPI PUSH1 0x40 MLOAD PUSH32 0x8C379A000000000000000000000000000000000000000000000000000000000 DUP2 MSTORE PUSH1 0x4 ADD PUSH2 0x2050 SWAP1 PUSH2 0x38DF JUMP JUMPDEST PUSH1 0x40 MLOAD DUP1 SWAP2 SUB SWAP1 REVERT JUMPDEST POP POP POP POP JUMP JUMPDEST PUSH1 0x60 PUSH1 0x40 MLOAD DUP1 PUSH1 0x20 ADD PUSH1 0x40 MSTORE DUP1 PUSH1 0x0 DUP2 MSTORE POP SWAP1 POP SWAP1 JUMP JUMPDEST PUSH1 0x60 PUSH1 0x0 PUSH1 0x1 PUSH2 0x2085 DUP5 PUSH2 0x23E5 JUMP JUMPDEST ADD SWAP1 POP PUSH1 0x0 DUP2 PUSH8 0xFFFFFFFFFFFFFFFF DUP2 GT ISZERO PUSH2 0x20A4 JUMPI PUSH2 0x20A3 PUSH2 0x2BA8 JUMP JUMPDEST JUMPDEST PUSH1 0x40 MLOAD SWAP1 DUP1 DUP3 MSTORE DUP1 PUSH1 0x1F ADD PUSH1 0x1F NOT AND PUSH1 0x20 ADD DUP3 ADD PUSH1 0x40 MSTORE DUP1 ISZERO PUSH2 0x20D6 JUMPI DUP2 PUSH1 0x20 ADD PUSH1 0x1 DUP3 MUL DUP1 CALLDATASIZE DUP4 CALLDATACOPY DUP1 DUP3 ADD SWAP2 POP POP SWAP1 POP JUMPDEST POP SWAP1 POP PUSH1 0x0 DUP3 PUSH1 0x20 ADD DUP3 ADD SWAP1 POP JUMPDEST PUSH1 0x1 ISZERO PUSH2 0x2139 JUMPI DUP1 DUP1 PUSH1 0x1 SWAP1 SUB SWAP2 POP POP PUSH32 0x3031323334353637383961626364656600000000000000000000000000000000 PUSH1 0xA DUP7 MOD BYTE DUP2 MSTORE8 PUSH1 0xA DUP6 DUP2 PUSH2 0x212D JUMPI PUSH2 0x212C PUSH2 0x347A JUMP JUMPDEST JUMPDEST DIV SWAP5 POP PUSH1 0x0 DUP6 SUB PUSH2 0x20E4 JUMPI JUMPDEST DUP2 SWAP4 POP POP POP POP SWAP2 SWAP1 POP JUMP JUMPDEST PUSH1 0x0 DUP1 PUSH20 0xFFFFFFFFFFFFFFFFFFFFFFFFFFFFFFFFFFFFFFFF AND PUSH2 0x2166 DUP4 PUSH2 0x2538 JUMP JUMPDEST PUSH20 0xFFFFFFFFFFFFFFFFFFFFFFFFFFFFFFFFFFFFFFFF AND EQ ISZERO SWAP1 POP SWAP2 SWAP1 POP JUMP JUMPDEST PUSH1 0x0 DUP1 PUSH2 0x2191 DUP4 PUSH2 0x2538 JUMP JUMPDEST SWAP1 POP PUSH1 0x0 PUSH20 0xFFFFFFFFFFFFFFFFFFFFFFFFFFFFFFFFFFFFFFFF AND DUP2 PUSH20 0xFFFFFFFFFFFFFFFFFFFFFFFFFFFFFFFFFFFFFFFF AND SUB PUSH2 0x2202 JUMPI PUSH1 0x40 MLOAD PUSH32 0x8C379A000000000000000000000000000000000000000000000000000000000 DUP2 MSTORE PUSH1 0x4 ADD PUSH2 0x21F9 SWAP1 PUSH2 0x35F2 JUMP JUMPDEST PUSH1 0x40 MLOAD DUP1 SWAP2 SUB SWAP1 REVERT JUMPDEST DUP1 SWAP2 POP POP SWAP2 SWAP1 POP JUMP JUMPDEST PUSH1 0x0 DUP1 DUP3 DUP5 PUSH2 0x221A SWAP2 SWAP1 PUSH2 0x38FF JUMP JUMPDEST SWAP1 POP DUP4 DUP2 LT ISZERO PUSH2 0x222D JUMPI PUSH2 0x222C PUSH2 0x3933 JUMP JUMPDEST JUMPDEST DUP1 SWAP2 POP POP SWAP3 SWAP2 POP POP JUMP JUMPDEST PUSH1 0x0 DUP3 DUP3 GT ISZERO PUSH2 0x224A JUMPI PUSH2 0x2249 PUSH2 0x3933 JUMP JUMPDEST JUMPDEST DUP2 DUP4 PUSH2 0x2256 SWAP2 SWAP1 PUSH2 0x37CA JUMP JUMPDEST SWAP1 POP SWAP3 SWAP2 POP POP JUMP JUMPDEST PUSH1 0x0 PUSH2 0x227F DUP5 PUSH20 0xFFFFFFFFFFFFFFFFFFFFFFFFFFFFFFFFFFFFFFFF AND PUSH2 0x2575 JUMP JUMPDEST ISZERO PUSH2 0x23D8 JUMPI DUP4 PUSH20 0xFFFFFFFFFFFFFFFFFFFFFFFFFFFFFFFFFFFFFFFF AND PUSH4 0x150B7A02 PUSH2 0x22A8 PUSH2 0x193D JUMP JUMPDEST DUP8 DUP7 DUP7 PUSH1 0x40 MLOAD DUP6 PUSH4 0xFFFFFFFF AND PUSH1 0xE0 SHL DUP2 MSTORE PUSH1 0x4 ADD PUSH2 0x22CA SWAP5 SWAP4 SWAP3 SWAP2 SWAP1 PUSH2 0x39B7 JUMP JUMPDEST PUSH1 0x20 PUSH1 0x40 MLOAD DUP1 DUP4 SUB DUP2 PUSH1 0x0 DUP8 GAS CALL SWAP3 POP POP POP DUP1 ISZERO PUSH2 0x2306 JUMPI POP PUSH1 0x40 MLOAD RETURNDATASIZE PUSH1 0x1F NOT PUSH1 0x1F DUP3 ADD AND DUP3 ADD DUP1 PUSH1 0x40 MSTORE POP DUP2 ADD SWAP1 PUSH2 0x2303 SWAP2 SWAP1 PUSH2 0x3A18 JUMP JUMPDEST PUSH1 0x1 JUMPDEST PUSH2 0x2388 JUMPI RETURNDATASIZE DUP1 PUSH1 0x0 DUP2 EQ PUSH2 0x2336 JUMPI PUSH1 0x40 MLOAD SWAP2 POP PUSH1 0x1F NOT PUSH1 0x3F RETURNDATASIZE ADD AND DUP3 ADD PUSH1 0x40 MSTORE RETURNDATASIZE DUP3 MSTORE RETURNDATASIZE PUSH1 0x0 PUSH1 0x20 DUP5 ADD RETURNDATACOPY PUSH2 0x233B JUMP JUMPDEST PUSH1 0x60 SWAP2 POP JUMPDEST POP PUSH1 0x0 DUP2 MLOAD SUB PUSH2 0x2380 JUMPI PUSH1 0x40 MLOAD PUSH32 0x8C379A000000000000000000000000000000000000000000000000000000000 DUP2 MSTORE PUSH1 0x4 ADD PUSH2 0x2377 SWAP1 PUSH2 0x38DF JUMP JUMPDEST PUSH1 0x40 MLOAD DUP1 SWAP2 SUB SWAP1 REVERT JUMPDEST DUP1 MLOAD DUP2 PUSH1 0x20 ADD REVERT JUMPDEST PUSH4 0x150B7A02 PUSH1 0xE0 SHL PUSH28 0xFFFFFFFFFFFFFFFFFFFFFFFFFFFFFFFFFFFFFFFFFFFFFFFFFFFFFFFF NOT AND DUP2 PUSH28 0xFFFFFFFFFFFFFFFFFFFFFFFFFFFFFFFFFFFFFFFFFFFFFFFFFFFFFFFF NOT AND EQ SWAP2 POP POP PUSH2 0x23DD JUMP JUMPDEST PUSH1 0x1 SWAP1 POP JUMPDEST SWAP5 SWAP4 POP POP POP POP JUMP JUMPDEST PUSH1 0x0 DUP1 PUSH1 0x0 SWAP1 POP PUSH27 0x184F03E93FF9F4DAA797ED6E38ED64BF6A1F010000000000000000 DUP4 LT PUSH2 0x2443 JUMPI PUSH27 0x184F03E93FF9F4DAA797ED6E38ED64BF6A1F010000000000000000 DUP4 DUP2 PUSH2 0x2439 JUMPI PUSH2 0x2438 PUSH2 0x347A JUMP JUMPDEST JUMPDEST DIV SWAP3 POP PUSH1 0x40 DUP2 ADD SWAP1 POP JUMPDEST PUSH14 0x4EE2D6D415B85ACEF8100000000 DUP4 LT PUSH2 0x2480 JUMPI PUSH14 0x4EE2D6D415B85ACEF8100000000 DUP4 DUP2 PUSH2 0x2476 JUMPI PUSH2 0x2475 PUSH2 0x347A JUMP JUMPDEST JUMPDEST DIV SWAP3 POP PUSH1 0x20 DUP2 ADD SWAP1 POP JUMPDEST PUSH7 0x2386F26FC10000 DUP4 LT PUSH2 0x24AF JUMPI PUSH7 0x2386F26FC10000 DUP4 DUP2 PUSH2 0x24A5 JUMPI PUSH2 0x24A4 PUSH2 0x347A JUMP JUMPDEST JUMPDEST DIV SWAP3 POP PUSH1 0x10 DUP2 ADD SWAP1 POP JUMPDEST PUSH4 0x5F5E100 DUP4 LT PUSH2 0x24D8 JUMPI PUSH4 0x5F5E100 DUP4 DUP2 PUSH2 0x24CE JUMPI PUSH2 0x24CD PUSH2 0x347A JUMP JUMPDEST JUMPDEST DIV SWAP3 POP PUSH1 0x8 DUP2 ADD SWAP1 POP JUMPDEST PUSH2 0x2710 DUP4 LT PUSH2 0x24FD JUMPI PUSH2 0x2710 DUP4 DUP2 PUSH2 0x24F3 JUMPI PUSH2 0x24F2 PUSH2 0x347A JUMP JUMPDEST JUMPDEST DIV SWAP3 POP PUSH1 0x4 DUP2 ADD SWAP1 POP JUMPDEST PUSH1 0x64 DUP4 LT PUSH2 0x2520 JUMPI PUSH1 0x64 DUP4 DUP2 PUSH2 0x2516 JUMPI PUSH2 0x2515 PUSH2 0x347A JUMP JUMPDEST JUMPDEST DIV SWAP3 POP PUSH1 0x2 DUP2 ADD SWAP1 POP JUMPDEST PUSH1 0xA DUP4 LT PUSH2 0x252F JUMPI PUSH1 0x1 DUP2 ADD SWAP1 POP JUMPDEST DUP1 SWAP2 POP POP SWAP2 SWAP1 POP JUMP JUMPDEST PUSH1 0x0 PUSH1 0xD PUSH1 0x0 DUP4 DUP2 MSTORE PUSH1 0x20 ADD SWAP1 DUP2 MSTORE PUSH1 0x20 ADD PUSH1 0x0 KECCAK256 PUSH1 0x0 SWAP1 SLOAD SWAP1 PUSH2 0x100 EXP SWAP1 DIV PUSH20 0xFFFFFFFFFFFFFFFFFFFFFFFFFFFFFFFFFFFFFFFF AND SWAP1 POP SWAP2 SWAP1 POP JUMP JUMPDEST PUSH1 0x0 DUP1 DUP3 PUSH20 0xFFFFFFFFFFFFFFFFFFFFFFFFFFFFFFFFFFFFFFFF AND EXTCODESIZE GT SWAP1 POP SWAP2 SWAP1 POP JUMP JUMPDEST PUSH1 0x0 PUSH1 0x40 MLOAD SWAP1 POP SWAP1 JUMP JUMPDEST PUSH1 0x0 DUP1 REVERT JUMPDEST PUSH1 0x0 DUP1 REVERT JUMPDEST PUSH1 0x0 PUSH32 0xFFFFFFFF00000000000000000000000000000000000000000000000000000000 DUP3 AND SWAP1 POP SWAP2 SWAP1 POP JUMP JUMPDEST PUSH2 0x25E1 DUP2 PUSH2 0x25AC JUMP JUMPDEST DUP2 EQ PUSH2 0x25EC JUMPI PUSH1 0x0 DUP1 REVERT JUMPDEST POP JUMP JUMPDEST PUSH1 0x0 DUP2 CALLDATALOAD SWAP1 POP PUSH2 0x25FE DUP2 PUSH2 0x25D8 JUMP JUMPDEST SWAP3 SWAP2 POP POP JUMP JUMPDEST PUSH1 0x0 PUSH1 0x20 DUP3 DUP5 SUB SLT ISZERO PUSH2 0x261A JUMPI PUSH2 0x2619 PUSH2 0x25A2 JUMP JUMPDEST JUMPDEST PUSH1 0x0 PUSH2 0x2628 DUP5 DUP3 DUP6 ADD PUSH2 0x25EF JUMP JUMPDEST SWAP2 POP POP SWAP3 SWAP2 POP POP JUMP JUMPDEST PUSH1 0x0 DUP2 ISZERO ISZERO SWAP1 POP SWAP2 SWAP1 POP JUMP JUMPDEST PUSH2 0x2646 DUP2 PUSH2 0x2631 JUMP JUMPDEST DUP3 MSTORE POP POP JUMP JUMPDEST PUSH1 0x0 PUSH1 0x20 DUP3 ADD SWAP1 POP PUSH2 0x2661 PUSH1 0x0 DUP4 ADD DUP5 PUSH2 0x263D JUMP JUMPDEST SWAP3 SWAP2 POP POP JUMP JUMPDEST PUSH1 0x0 DUP2 SWAP1 POP SWAP2 SWAP1 POP JUMP JUMPDEST PUSH2 0x267A DUP2 PUSH2 0x2667 JUMP JUMPDEST DUP3 MSTORE POP POP JUMP JUMPDEST PUSH1 0x0 PUSH1 0x20 DUP3 ADD SWAP1 POP PUSH2 0x2695 PUSH1 0x0 DUP4 ADD DUP5 PUSH2 0x2671 JUMP JUMPDEST SWAP3 SWAP2 POP POP JUMP JUMPDEST PUSH1 0x0 DUP2 MLOAD SWAP1 POP SWAP2 SWAP1 POP JUMP JUMPDEST PUSH1 0x0 DUP3 DUP3 MSTORE PUSH1 0x20 DUP3 ADD SWAP1 POP SWAP3 SWAP2 POP POP JUMP JUMPDEST PUSH1 0x0 JUMPDEST DUP4 DUP2 LT ISZERO PUSH2 0x26D5 JUMPI DUP1 DUP3 ADD MLOAD DUP2 DUP5 ADD MSTORE PUSH1 0x20 DUP2 ADD SWAP1 POP PUSH2 0x26BA JUMP JUMPDEST PUSH1 0x0 DUP5 DUP5 ADD MSTORE POP POP POP POP JUMP JUMPDEST PUSH1 0x0 PUSH1 0x1F NOT PUSH1 0x1F DUP4 ADD AND SWAP1 POP SWAP2 SWAP1 POP JUMP JUMPDEST PUSH1 0x0 PUSH2 0x26FD DUP3 PUSH2 0x269B JUMP JUMPDEST PUSH2 0x2707 DUP2 DUP6 PUSH2 0x26A6 JUMP JUMPDEST SWAP4 POP PUSH2 0x2717 DUP2 DUP6 PUSH1 0x20 DUP7 ADD PUSH2 0x26B7 JUMP JUMPDEST PUSH2 0x2720 DUP2 PUSH2 0x26E1 JUMP JUMPDEST DUP5 ADD SWAP2 POP POP SWAP3 SWAP2 POP POP JUMP JUMPDEST PUSH1 0x0 PUSH1 0x20 DUP3 ADD SWAP1 POP DUP2 DUP2 SUB PUSH1 0x0 DUP4 ADD MSTORE PUSH2 0x2745 DUP2 DUP5 PUSH2 0x26F2 JUMP JUMPDEST SWAP1 POP SWAP3 SWAP2 POP POP JUMP JUMPDEST PUSH2 0x2756 DUP2 PUSH2 0x2667 JUMP JUMPDEST DUP2 EQ PUSH2 0x2761 JUMPI PUSH1 0x0 DUP1 REVERT JUMPDEST POP JUMP JUMPDEST PUSH1 0x0 DUP2 CALLDATALOAD SWAP1 POP PUSH2 0x2773 DUP2 PUSH2 0x274D JUMP JUMPDEST SWAP3 SWAP2 POP POP JUMP JUMPDEST PUSH1 0x0 PUSH1 0x20 DUP3 DUP5 SUB SLT ISZERO PUSH2 0x278F JUMPI PUSH2 0x278E PUSH2 0x25A2 JUMP JUMPDEST JUMPDEST PUSH1 0x0 PUSH2 0x279D DUP5 DUP3 DUP6 ADD PUSH2 0x2764 JUMP JUMPDEST SWAP2 POP POP SWAP3 SWAP2 POP POP JUMP JUMPDEST PUSH1 0x0 PUSH20 0xFFFFFFFFFFFFFFFFFFFFFFFFFFFFFFFFFFFFFFFF DUP3 AND SWAP1 POP SWAP2 SWAP1 POP JUMP JUMPDEST PUSH1 0x0 PUSH2 0x27D1 DUP3 PUSH2 0x27A6 JUMP JUMPDEST SWAP1 POP SWAP2 SWAP1 POP JUMP JUMPDEST PUSH2 0x27E1 DUP2 PUSH2 0x27C6 JUMP JUMPDEST DUP3 MSTORE POP POP JUMP JUMPDEST PUSH1 0x0 PUSH1 0x20 DUP3 ADD SWAP1 POP PUSH2 0x27FC PUSH1 0x0 DUP4 ADD DUP5 PUSH2 0x27D8 JUMP JUMPDEST SWAP3 SWAP2 POP POP JUMP JUMPDEST PUSH2 0x280B DUP2 PUSH2 0x27C6 JUMP JUMPDEST DUP2 EQ PUSH2 0x2816 JUMPI PUSH1 0x0 DUP1 REVERT JUMPDEST POP JUMP JUMPDEST PUSH1 0x0 DUP2 CALLDATALOAD SWAP1 POP PUSH2 0x2828 DUP2 PUSH2 0x2802 JUMP JUMPDEST SWAP3 SWAP2 POP POP JUMP JUMPDEST PUSH1 0x0 DUP1 PUSH1 0x40 DUP4 DUP6 SUB SLT ISZERO PUSH2 0x2845 JUMPI PUSH2 0x2844 PUSH2 0x25A2 JUMP JUMPDEST JUMPDEST PUSH1 0x0 PUSH2 0x2853 DUP6 DUP3 DUP7 ADD PUSH2 0x2819 JUMP JUMPDEST SWAP3 POP POP PUSH1 0x20 PUSH2 0x2864 DUP6 DUP3 DUP7 ADD PUSH2 0x2764 JUMP JUMPDEST SWAP2 POP POP SWAP3 POP SWAP3 SWAP1 POP JUMP JUMPDEST PUSH1 0x0 DUP1 PUSH1 0x0 PUSH1 0x60 DUP5 DUP7 SUB SLT ISZERO PUSH2 0x2887 JUMPI PUSH2 0x2886 PUSH2 0x25A2 JUMP JUMPDEST JUMPDEST PUSH1 0x0 PUSH2 0x2895 DUP7 DUP3 DUP8 ADD PUSH2 0x2819 JUMP JUMPDEST SWAP4 POP POP PUSH1 0x20 PUSH2 0x28A6 DUP7 DUP3 DUP8 ADD PUSH2 0x2819 JUMP JUMPDEST SWAP3 POP POP PUSH1 0x40 PUSH2 0x28B7 DUP7 DUP3 DUP8 ADD PUSH2 0x2764 JUMP JUMPDEST SWAP2 POP POP SWAP3 POP SWAP3 POP SWAP3 JUMP JUMPDEST PUSH1 0x0 DUP1 REVERT JUMPDEST PUSH1 0x0 DUP1 REVERT JUMPDEST PUSH1 0x0 DUP1 REVERT JUMPDEST PUSH1 0x0 DUP1 DUP4 PUSH1 0x1F DUP5 ADD SLT PUSH2 0x28E6 JUMPI PUSH2 0x28E5 PUSH2 0x28C1 JUMP JUMPDEST JUMPDEST DUP3 CALLDATALOAD SWAP1 POP PUSH8 0xFFFFFFFFFFFFFFFF DUP2 GT ISZERO PUSH2 0x2903 JUMPI PUSH2 0x2902 PUSH2 0x28C6 JUMP JUMPDEST JUMPDEST PUSH1 0x20 DUP4 ADD SWAP2 POP DUP4 PUSH1 0x1 DUP3 MUL DUP4 ADD GT ISZERO PUSH2 0x291F JUMPI PUSH2 0x291E PUSH2 0x28CB JUMP JUMPDEST JUMPDEST SWAP3 POP SWAP3 SWAP1 POP JUMP JUMPDEST PUSH1 0x0 DUP1 PUSH1 0x0 PUSH1 0x40 DUP5 DUP7 SUB SLT ISZERO PUSH2 0x293F JUMPI PUSH2 0x293E PUSH2 0x25A2 JUMP JUMPDEST JUMPDEST PUSH1 0x0 DUP5 ADD CALLDATALOAD PUSH8 0xFFFFFFFFFFFFFFFF DUP2 GT ISZERO PUSH2 0x295D JUMPI PUSH2 0x295C PUSH2 0x25A7 JUMP JUMPDEST JUMPDEST PUSH2 0x2969 DUP7 DUP3 DUP8 ADD PUSH2 0x28D0 JUMP JUMPDEST SWAP4 POP SWAP4 POP POP PUSH1 0x20 PUSH2 0x297C DUP7 DUP3 DUP8 ADD PUSH2 0x2764 JUMP JUMPDEST SWAP2 POP POP SWAP3 POP SWAP3 POP SWAP3 JUMP JUMPDEST PUSH1 0x0 PUSH1 0x20 DUP3 DUP5 SUB SLT ISZERO PUSH2 0x299C JUMPI PUSH2 0x299B PUSH2 0x25A2 JUMP JUMPDEST JUMPDEST PUSH1 0x0 PUSH2 0x29AA DUP5 DUP3 DUP6 ADD PUSH2 0x2819 JUMP JUMPDEST SWAP2 POP POP SWAP3 SWAP2 POP POP JUMP JUMPDEST PUSH1 0x0 DUP2 MLOAD SWAP1 POP SWAP2 SWAP1 POP JUMP JUMPDEST PUSH1 0x0 DUP3 DUP3 MSTORE PUSH1 0x20 DUP3 ADD SWAP1 POP SWAP3 SWAP2 POP POP JUMP JUMPDEST PUSH1 0x0 DUP2 SWAP1 POP PUSH1 0x20 DUP3 ADD SWAP1 POP SWAP2 SWAP1 POP JUMP JUMPDEST PUSH2 0x29E8 DUP2 PUSH2 0x2667 JUMP JUMPDEST DUP3 MSTORE POP POP JUMP JUMPDEST PUSH1 0x0 PUSH2 0x29FA DUP4 DUP4 PUSH2 0x29DF JUMP JUMPDEST PUSH1 0x20 DUP4 ADD SWAP1 POP SWAP3 SWAP2 POP POP JUMP JUMPDEST PUSH1 0x0 PUSH1 0x20 DUP3 ADD SWAP1 POP SWAP2 SWAP1 POP JUMP JUMPDEST PUSH1 0x0 PUSH2 0x2A1E DUP3 PUSH2 0x29B3 JUMP JUMPDEST PUSH2 0x2A28 DUP2 DUP6 PUSH2 0x29BE JUMP JUMPDEST SWAP4 POP PUSH2 0x2A33 DUP4 PUSH2 0x29CF JUMP JUMPDEST DUP1 PUSH1 0x0 JUMPDEST DUP4 DUP2 LT ISZERO PUSH2 0x2A64 JUMPI DUP2 MLOAD PUSH2 0x2A4B DUP9 DUP3 PUSH2 0x29EE JUMP JUMPDEST SWAP8 POP PUSH2 0x2A56 DUP4 PUSH2 0x2A06 JUMP JUMPDEST SWAP3 POP POP PUSH1 0x1 DUP2 ADD SWAP1 POP PUSH2 0x2A37 JUMP JUMPDEST POP DUP6 SWAP4 POP POP POP POP SWAP3 SWAP2 POP POP JUMP JUMPDEST PUSH1 0x0 PUSH1 0x20 DUP3 ADD SWAP1 POP DUP2 DUP2 SUB PUSH1 0x0 DUP4 ADD MSTORE PUSH2 0x2A8B DUP2 DUP5 PUSH2 0x2A13 JUMP JUMPDEST SWAP1 POP SWAP3 SWAP2 POP POP JUMP JUMPDEST PUSH1 0x0 PUSH2 0xFFFF DUP3 AND SWAP1 POP SWAP2 SWAP1 POP JUMP JUMPDEST PUSH2 0x2AAA DUP2 PUSH2 0x2A93 JUMP JUMPDEST DUP3 MSTORE POP POP JUMP JUMPDEST PUSH1 0x0 PUSH4 0xFFFFFFFF DUP3 AND SWAP1 POP SWAP2 SWAP1 POP JUMP JUMPDEST PUSH2 0x2AC9 DUP2 PUSH2 0x2AB0 JUMP JUMPDEST DUP3 MSTORE POP POP JUMP JUMPDEST PUSH1 0x0 PUSH1 0xC0 DUP3 ADD SWAP1 POP DUP2 DUP2 SUB PUSH1 0x0 DUP4 ADD MSTORE PUSH2 0x2AE9 DUP2 DUP10 PUSH2 0x26F2 JUMP JUMPDEST SWAP1 POP PUSH2 0x2AF8 PUSH1 0x20 DUP4 ADD DUP9 PUSH2 0x2AA1 JUMP JUMPDEST PUSH2 0x2B05 PUSH1 0x40 DUP4 ADD DUP8 PUSH2 0x2AA1 JUMP JUMPDEST PUSH2 0x2B12 PUSH1 0x60 DUP4 ADD DUP7 PUSH2 0x2AA1 JUMP JUMPDEST PUSH2 0x2B1F PUSH1 0x80 DUP4 ADD DUP6 PUSH2 0x2AC0 JUMP JUMPDEST PUSH2 0x2B2C PUSH1 0xA0 DUP4 ADD DUP5 PUSH2 0x2AC0 JUMP JUMPDEST SWAP8 SWAP7 POP POP POP POP POP POP POP JUMP JUMPDEST PUSH2 0x2B40 DUP2 PUSH2 0x2631 JUMP JUMPDEST DUP2 EQ PUSH2 0x2B4B JUMPI PUSH1 0x0 DUP1 REVERT JUMPDEST POP JUMP JUMPDEST PUSH1 0x0 DUP2 CALLDATALOAD SWAP1 POP PUSH2 0x2B5D DUP2 PUSH2 0x2B37 JUMP JUMPDEST SWAP3 SWAP2 POP POP JUMP JUMPDEST PUSH1 0x0 DUP1 PUSH1 0x40 DUP4 DUP6 SUB SLT ISZERO PUSH2 0x2B7A JUMPI PUSH2 0x2B79 PUSH2 0x25A2 JUMP JUMPDEST JUMPDEST PUSH1 0x0 PUSH2 0x2B88 DUP6 DUP3 DUP7 ADD PUSH2 0x2819 JUMP JUMPDEST SWAP3 POP POP PUSH1 0x20 PUSH2 0x2B99 DUP6 DUP3 DUP7 ADD PUSH2 0x2B4E JUMP JUMPDEST SWAP2 POP POP SWAP3 POP SWAP3 SWAP1 POP JUMP JUMPDEST PUSH1 0x0 DUP1 REVERT JUMPDEST PUSH32 0x4E487B7100000000000000000000000000000000000000000000000000000000 PUSH1 0x0 MSTORE PUSH1 0x41 PUSH1 0x4 MSTORE PUSH1 0x24 PUSH1 0x0 REVERT JUMPDEST PUSH2 0x2BE0 DUP3 PUSH2 0x26E1 JUMP JUMPDEST DUP2 ADD DUP2 DUP2 LT PUSH8 0xFFFFFFFFFFFFFFFF DUP3 GT OR ISZERO PUSH2 0x2BFF JUMPI PUSH2 0x2BFE PUSH2 0x2BA8 JUMP JUMPDEST JUMPDEST DUP1 PUSH1 0x40 MSTORE POP POP POP JUMP JUMPDEST PUSH1 0x0 PUSH2 0x2C12 PUSH2 0x2598 JUMP JUMPDEST SWAP1 POP PUSH2 0x2C1E DUP3 DUP3 PUSH2 0x2BD7 JUMP JUMPDEST SWAP2 SWAP1 POP JUMP JUMPDEST PUSH1 0x0 PUSH8 0xFFFFFFFFFFFFFFFF DUP3 GT ISZERO PUSH2 0x2C3E JUMPI PUSH2 0x2C3D PUSH2 0x2BA8 JUMP JUMPDEST JUMPDEST PUSH2 0x2C47 DUP3 PUSH2 0x26E1 JUMP JUMPDEST SWAP1 POP PUSH1 0x20 DUP2 ADD SWAP1 POP SWAP2 SWAP1 POP JUMP JUMPDEST DUP3 DUP2 DUP4 CALLDATACOPY PUSH1 0x0 DUP4 DUP4 ADD MSTORE POP POP POP JUMP JUMPDEST PUSH1 0x0 PUSH2 0x2C76 PUSH2 0x2C71 DUP5 PUSH2 0x2C23 JUMP JUMPDEST PUSH2 0x2C08 JUMP JUMPDEST SWAP1 POP DUP3 DUP2 MSTORE PUSH1 0x20 DUP2 ADD DUP5 DUP5 DUP5 ADD GT ISZERO PUSH2 0x2C92 JUMPI PUSH2 0x2C91 PUSH2 0x2BA3 JUMP JUMPDEST JUMPDEST PUSH2 0x2C9D DUP5 DUP3 DUP6 PUSH2 0x2C54 JUMP JUMPDEST POP SWAP4 SWAP3 POP POP POP JUMP JUMPDEST PUSH1 0x0 DUP3 PUSH1 0x1F DUP4 ADD SLT PUSH2 0x2CBA JUMPI PUSH2 0x2CB9 PUSH2 0x28C1 JUMP JUMPDEST JUMPDEST DUP2 CALLDATALOAD PUSH2 0x2CCA DUP5 DUP3 PUSH1 0x20 DUP7 ADD PUSH2 0x2C63 JUMP JUMPDEST SWAP2 POP POP SWAP3 SWAP2 POP POP JUMP JUMPDEST PUSH1 0x0 PUSH1 0x20 DUP3 DUP5 SUB SLT ISZERO PUSH2 0x2CE9 JUMPI PUSH2 0x2CE8 PUSH2 0x25A2 JUMP JUMPDEST JUMPDEST PUSH1 0x0 DUP3 ADD CALLDATALOAD PUSH8 0xFFFFFFFFFFFFFFFF DUP2 GT ISZERO PUSH2 0x2D07 JUMPI PUSH2 0x2D06 PUSH2 0x25A7 JUMP JUMPDEST JUMPDEST PUSH2 0x2D13 DUP5 DUP3 DUP6 ADD PUSH2 0x2CA5 JUMP JUMPDEST SWAP2 POP POP SWAP3 SWAP2 POP POP JUMP JUMPDEST PUSH1 0x0 PUSH8 0xFFFFFFFFFFFFFFFF DUP3 GT ISZERO PUSH2 0x2D37 JUMPI PUSH2 0x2D36 PUSH2 0x2BA8 JUMP JUMPDEST JUMPDEST PUSH2 0x2D40 DUP3 PUSH2 0x26E1 JUMP JUMPDEST SWAP1 POP PUSH1 0x20 DUP2 ADD SWAP1 POP SWAP2 SWAP1 POP JUMP JUMPDEST PUSH1 0x0 PUSH2 0x2D60 PUSH2 0x2D5B DUP5 PUSH2 0x2D1C JUMP JUMPDEST PUSH2 0x2C08 JUMP JUMPDEST SWAP1 POP DUP3 DUP2 MSTORE PUSH1 0x20 DUP2 ADD DUP5 DUP5 DUP5 ADD GT ISZERO PUSH2 0x2D7C JUMPI PUSH2 0x2D7B PUSH2 0x2BA3 JUMP JUMPDEST JUMPDEST PUSH2 0x2D87 DUP5 DUP3 DUP6 PUSH2 0x2C54 JUMP JUMPDEST POP SWAP4 SWAP3 POP POP POP JUMP JUMPDEST PUSH1 0x0 DUP3 PUSH1 0x1F DUP4 ADD SLT PUSH2 0x2DA4 JUMPI PUSH2 0x2DA3 PUSH2 0x28C1 JUMP JUMPDEST JUMPDEST DUP2 CALLDATALOAD PUSH2 0x2DB4 DUP5 DUP3 PUSH1 0x20 DUP7 ADD PUSH2 0x2D4D JUMP JUMPDEST SWAP2 POP POP SWAP3 SWAP2 POP POP JUMP JUMPDEST PUSH1 0x0 DUP1 PUSH1 0x0 DUP1 PUSH1 0x80 DUP6 DUP8 SUB SLT ISZERO PUSH2 0x2DD7 JUMPI PUSH2 0x2DD6 PUSH2 0x25A2 JUMP JUMPDEST JUMPDEST PUSH1 0x0 PUSH2 0x2DE5 DUP8 DUP3 DUP9 ADD PUSH2 0x2819 JUMP JUMPDEST SWAP5 POP POP PUSH1 0x20 PUSH2 0x2DF6 DUP8 DUP3 DUP9 ADD PUSH2 0x2819 JUMP JUMPDEST SWAP4 POP POP PUSH1 0x40 PUSH2 0x2E07 DUP8 DUP3 DUP9 ADD PUSH2 0x2764 JUMP JUMPDEST SWAP3 POP POP PUSH1 0x60 DUP6 ADD CALLDATALOAD PUSH8 0xFFFFFFFFFFFFFFFF DUP2 GT ISZERO PUSH2 0x2E28 JUMPI PUSH2 0x2E27 PUSH2 0x25A7 JUMP JUMPDEST JUMPDEST PUSH2 0x2E34 DUP8 DUP3 DUP9 ADD PUSH2 0x2D8F JUMP JUMPDEST SWAP2 POP POP SWAP3 SWAP6 SWAP2 SWAP5 POP SWAP3 POP JUMP JUMPDEST PUSH1 0x0 DUP1 PUSH1 0x40 DUP4 DUP6 SUB SLT ISZERO PUSH2 0x2E57 JUMPI PUSH2 0x2E56 PUSH2 0x25A2 JUMP JUMPDEST JUMPDEST PUSH1 0x0 PUSH2 0x2E65 DUP6 DUP3 DUP7 ADD PUSH2 0x2819 JUMP JUMPDEST SWAP3 POP POP PUSH1 0x20 PUSH2 0x2E76 DUP6 DUP3 DUP7 ADD PUSH2 0x2819 JUMP JUMPDEST SWAP2 POP POP SWAP3 POP SWAP3 SWAP1 POP JUMP JUMPDEST PUSH1 0x0 PUSH2 0x2E8B DUP3 PUSH2 0x27A6 JUMP JUMPDEST SWAP1 POP SWAP2 SWAP1 POP JUMP JUMPDEST PUSH2 0x2E9B DUP2 PUSH2 0x2E80 JUMP JUMPDEST DUP2 EQ PUSH2 0x2EA6 JUMPI PUSH1 0x0 DUP1 REVERT JUMPDEST POP JUMP JUMPDEST PUSH1 0x0 DUP2 CALLDATALOAD SWAP1 POP PUSH2 0x2EB8 DUP2 PUSH2 0x2E92 JUMP JUMPDEST SWAP3 SWAP2 POP POP JUMP JUMPDEST PUSH1 0x0 PUSH1 0x20 DUP3 DUP5 SUB SLT ISZERO PUSH2 0x2ED4 JUMPI PUSH2 0x2ED3 PUSH2 0x25A2 JUMP JUMPDEST JUMPDEST PUSH1 0x0 PUSH2 0x2EE2 DUP5 DUP3 DUP6 ADD PUSH2 0x2EA9 JUMP JUMPDEST SWAP2 POP POP SWAP3 SWAP2 POP POP JUMP JUMPDEST PUSH32 0x4E487B7100000000000000000000000000000000000000000000000000000000 PUSH1 0x0 MSTORE PUSH1 0x22 PUSH1 0x4 MSTORE PUSH1 0x24 PUSH1 0x0 REVERT JUMPDEST PUSH1 0x0 PUSH1 0x2 DUP3 DIV SWAP1 POP PUSH1 0x1 DUP3 AND DUP1 PUSH2 0x2F32 JUMPI PUSH1 0x7F DUP3 AND SWAP2 POP JUMPDEST PUSH1 0x20 DUP3 LT DUP2 SUB PUSH2 0x2F45 JUMPI PUSH2 0x2F44 PUSH2 0x2EEB JUMP JUMPDEST JUMPDEST POP SWAP2 SWAP1 POP JUMP JUMPDEST PUSH32 0x6572726F72000000000000000000000000000000000000000000000000000000 PUSH1 0x0 DUP3 ADD MSTORE POP JUMP JUMPDEST PUSH1 0x0 PUSH2 0x2F81 PUSH1 0x5 DUP4 PUSH2 0x26A6 JUMP JUMPDEST SWAP2 POP PUSH2 0x2F8C DUP3 PUSH2 0x2F4B JUMP JUMPDEST PUSH1 0x20 DUP3 ADD SWAP1 POP SWAP2 SWAP1 POP JUMP JUMPDEST PUSH1 0x0 PUSH1 0x20 DUP3 ADD SWAP1 POP DUP2 DUP2 SUB PUSH1 0x0 DUP4 ADD MSTORE PUSH2 0x2FB0 DUP2 PUSH2 0x2F74 JUMP JUMPDEST SWAP1 POP SWAP2 SWAP1 POP JUMP JUMPDEST PUSH32 0x7364660000000000000000000000000000000000000000000000000000000000 PUSH1 0x0 DUP3 ADD MSTORE POP JUMP JUMPDEST PUSH1 0x0 PUSH2 0x2FED PUSH1 0x3 DUP4 PUSH2 0x26A6 JUMP JUMPDEST SWAP2 POP PUSH2 0x2FF8 DUP3 PUSH2 0x2FB7 JUMP JUMPDEST PUSH1 0x20 DUP3 ADD SWAP1 POP SWAP2 SWAP1 POP JUMP JUMPDEST PUSH1 0x0 PUSH1 0x20 DUP3 ADD SWAP1 POP DUP2 DUP2 SUB PUSH1 0x0 DUP4 ADD MSTORE PUSH2 0x301C DUP2 PUSH2 0x2FE0 JUMP JUMPDEST SWAP1 POP SWAP2 SWAP1 POP JUMP JUMPDEST PUSH32 0x4E487B7100000000000000000000000000000000000000000000000000000000 PUSH1 0x0 MSTORE PUSH1 0x32 PUSH1 0x4 MSTORE PUSH1 0x24 PUSH1 0x0 REVERT JUMPDEST PUSH32 0x4E487B7100000000000000000000000000000000000000000000000000000000 PUSH1 0x0 MSTORE PUSH1 0x11 PUSH1 0x4 MSTORE PUSH1 0x24 PUSH1 0x0 REVERT JUMPDEST PUSH1 0x0 PUSH2 0x308C DUP3 PUSH2 0x2AB0 JUMP JUMPDEST SWAP2 POP PUSH4 0xFFFFFFFF DUP3 SUB PUSH2 0x30A2 JUMPI PUSH2 0x30A1 PUSH2 0x3052 JUMP JUMPDEST JUMPDEST PUSH1 0x1 DUP3 ADD SWAP1 POP SWAP2 SWAP1 POP JUMP JUMPDEST PUSH32 0x4552433732313A2063616C6C6572206973206E6F7420746F6B656E206F776E65 PUSH1 0x0 DUP3 ADD MSTORE PUSH32 0x72206F7220617070726F76656400000000000000000000000000000000000000 PUSH1 0x20 DUP3 ADD MSTORE POP JUMP JUMPDEST PUSH1 0x0 PUSH2 0x3109 PUSH1 0x2D DUP4 PUSH2 0x26A6 JUMP JUMPDEST SWAP2 POP PUSH2 0x3114 DUP3 PUSH2 0x30AD JUMP JUMPDEST PUSH1 0x40 DUP3 ADD SWAP1 POP SWAP2 SWAP1 POP JUMP JUMPDEST PUSH1 0x0 PUSH1 0x20 DUP3 ADD SWAP1 POP DUP2 DUP2 SUB PUSH1 0x0 DUP4 ADD MSTORE PUSH2 0x3138 DUP2 PUSH2 0x30FC JUMP JUMPDEST SWAP1 POP SWAP2 SWAP1 POP JUMP JUMPDEST PUSH1 0x0 DUP3 SWAP1 POP SWAP3 SWAP2 POP POP JUMP JUMPDEST PUSH1 0x0 DUP2 SWAP1 POP DUP2 PUSH1 0x0 MSTORE PUSH1 0x20 PUSH1 0x0 KECCAK256 SWAP1 POP SWAP2 SWAP1 POP JUMP JUMPDEST PUSH1 0x0 PUSH1 0x20 PUSH1 0x1F DUP4 ADD DIV SWAP1 POP SWAP2 SWAP1 POP JUMP JUMPDEST PUSH1 0x0 DUP3 DUP3 SHL SWAP1 POP SWAP3 SWAP2 POP POP JUMP JUMPDEST PUSH1 0x0 PUSH1 0x8 DUP4 MUL PUSH2 0x31AC PUSH32 0xFFFFFFFFFFFFFFFFFFFFFFFFFFFFFFFFFFFFFFFFFFFFFFFFFFFFFFFFFFFFFFFF DUP3 PUSH2 0x316F JUMP JUMPDEST PUSH2 0x31B6 DUP7 DUP4 PUSH2 0x316F JUMP JUMPDEST SWAP6 POP DUP1 NOT DUP5 AND SWAP4 POP DUP1 DUP7 AND DUP5 OR SWAP3 POP POP POP SWAP4 SWAP3 POP POP POP JUMP JUMPDEST PUSH1 0x0 DUP2 SWAP1 POP SWAP2 SWAP1 POP JUMP JUMPDEST PUSH1 0x0 PUSH2 0x31F3 PUSH2 0x31EE PUSH2 0x31E9 DUP5 PUSH2 0x2667 JUMP JUMPDEST PUSH2 0x31CE JUMP JUMPDEST PUSH2 0x2667 JUMP JUMPDEST SWAP1 POP SWAP2 SWAP1 POP JUMP JUMPDEST PUSH1 0x0 DUP2 SWAP1 POP SWAP2 SWAP1 POP JUMP JUMPDEST PUSH2 0x320D DUP4 PUSH2 0x31D8 JUMP JUMPDEST PUSH2 0x3221 PUSH2 0x3219 DUP3 PUSH2 0x31FA JUMP JUMPDEST DUP5 DUP5 SLOAD PUSH2 0x317C JUMP JUMPDEST DUP3 SSTORE POP POP POP POP JUMP JUMPDEST PUSH1 0x0 SWAP1 JUMP JUMPDEST PUSH2 0x3236 PUSH2 0x3229 JUMP JUMPDEST PUSH2 0x3241 DUP2 DUP5 DUP5 PUSH2 0x3204 JUMP JUMPDEST POP POP POP JUMP JUMPDEST JUMPDEST DUP2 DUP2 LT ISZERO PUSH2 0x3265 JUMPI PUSH2 0x325A PUSH1 0x0 DUP3 PUSH2 0x322E JUMP JUMPDEST PUSH1 0x1 DUP2 ADD SWAP1 POP PUSH2 0x3247 JUMP JUMPDEST POP POP JUMP JUMPDEST PUSH1 0x1F DUP3 GT ISZERO PUSH2 0x32AA JUMPI PUSH2 0x327B DUP2 PUSH2 0x314A JUMP JUMPDEST PUSH2 0x3284 DUP5 PUSH2 0x315F JUMP JUMPDEST DUP2 ADD PUSH1 0x20 DUP6 LT ISZERO PUSH2 0x3293 JUMPI DUP2 SWAP1 POP JUMPDEST PUSH2 0x32A7 PUSH2 0x329F DUP6 PUSH2 0x315F JUMP JUMPDEST DUP4 ADD DUP3 PUSH2 0x3246 JUMP JUMPDEST POP POP JUMPDEST POP POP POP JUMP JUMPDEST PUSH1 0x0 DUP3 DUP3 SHR SWAP1 POP SWAP3 SWAP2 POP POP JUMP JUMPDEST PUSH1 0x0 PUSH2 0x32CD PUSH1 0x0 NOT DUP5 PUSH1 0x8 MUL PUSH2 0x32AF JUMP JUMPDEST NOT DUP1 DUP4 AND SWAP2 POP POP SWAP3 SWAP2 POP POP JUMP JUMPDEST PUSH1 0x0 PUSH2 0x32E6 DUP4 DUP4 PUSH2 0x32BC JUMP JUMPDEST SWAP2 POP DUP3 PUSH1 0x2 MUL DUP3 OR SWAP1 POP SWAP3 SWAP2 POP POP JUMP JUMPDEST PUSH2 0x3300 DUP4 DUP4 PUSH2 0x313F JUMP JUMPDEST PUSH8 0xFFFFFFFFFFFFFFFF DUP2 GT ISZERO PUSH2 0x3319 JUMPI PUSH2 0x3318 PUSH2 0x2BA8 JUMP JUMPDEST JUMPDEST PUSH2 0x3323 DUP3 SLOAD PUSH2 0x2F1A JUMP JUMPDEST PUSH2 0x332E DUP3 DUP3 DUP6 PUSH2 0x3269 JUMP JUMPDEST PUSH1 0x0 PUSH1 0x1F DUP4 GT PUSH1 0x1 DUP2 EQ PUSH2 0x335D JUMPI PUSH1 0x0 DUP5 ISZERO PUSH2 0x334B JUMPI DUP3 DUP8 ADD CALLDATALOAD SWAP1 POP JUMPDEST PUSH2 0x3355 DUP6 DUP3 PUSH2 0x32DA JUMP JUMPDEST DUP7 SSTORE POP PUSH2 0x33BD JUMP JUMPDEST PUSH1 0x1F NOT DUP5 AND PUSH2 0x336B DUP7 PUSH2 0x314A JUMP JUMPDEST PUSH1 0x0 JUMPDEST DUP3 DUP2 LT ISZERO PUSH2 0x3393 JUMPI DUP5 DUP10 ADD CALLDATALOAD DUP3 SSTORE PUSH1 0x1 DUP3 ADD SWAP2 POP PUSH1 0x20 DUP6 ADD SWAP5 POP PUSH1 0x20 DUP2 ADD SWAP1 POP PUSH2 0x336E JUMP JUMPDEST DUP7 DUP4 LT ISZERO PUSH2 0x33B0 JUMPI DUP5 DUP10 ADD CALLDATALOAD PUSH2 0x33AC PUSH1 0x1F DUP10 AND DUP3 PUSH2 0x32BC JUMP JUMPDEST DUP4 SSTORE POP JUMPDEST PUSH1 0x1 PUSH1 0x2 DUP9 MUL ADD DUP9 SSTORE POP POP POP JUMPDEST POP POP POP POP POP POP POP JUMP JUMPDEST PUSH32 0x4D75737420636F6E7472616374206F776E657200000000000000000000000000 PUSH1 0x0 DUP3 ADD MSTORE POP JUMP JUMPDEST PUSH1 0x0 PUSH2 0x33FC PUSH1 0x13 DUP4 PUSH2 0x26A6 JUMP JUMPDEST SWAP2 POP PUSH2 0x3407 DUP3 PUSH2 0x33C6 JUMP JUMPDEST PUSH1 0x20 DUP3 ADD SWAP1 POP SWAP2 SWAP1 POP JUMP JUMPDEST PUSH1 0x0 PUSH1 0x20 DUP3 ADD SWAP1 POP DUP2 DUP2 SUB PUSH1 0x0 DUP4 ADD MSTORE PUSH2 0x342B DUP2 PUSH2 0x33EF JUMP JUMPDEST SWAP1 POP SWAP2 SWAP1 POP JUMP JUMPDEST PUSH1 0x0 PUSH2 0x343D DUP3 PUSH2 0x2667 JUMP JUMPDEST SWAP2 POP PUSH32 0xFFFFFFFFFFFFFFFFFFFFFFFFFFFFFFFFFFFFFFFFFFFFFFFFFFFFFFFFFFFFFFFF DUP3 SUB PUSH2 0x346F JUMPI PUSH2 0x346E PUSH2 0x3052 JUMP JUMPDEST JUMPDEST PUSH1 0x1 DUP3 ADD SWAP1 POP SWAP2 SWAP1 POP JUMP JUMPDEST PUSH32 0x4E487B7100000000000000000000000000000000000000000000000000000000 PUSH1 0x0 MSTORE PUSH1 0x12 PUSH1 0x4 MSTORE PUSH1 0x24 PUSH1 0x0 REVERT JUMPDEST PUSH1 0x0 PUSH2 0x34B4 DUP3 PUSH2 0x2A93 JUMP JUMPDEST SWAP2 POP PUSH2 0x34BF DUP4 PUSH2 0x2A93 JUMP JUMPDEST SWAP3 POP DUP3 PUSH2 0x34CF JUMPI PUSH2 0x34CE PUSH2 0x347A JUMP JUMPDEST JUMPDEST DUP3 DUP3 MOD SWAP1 POP SWAP3 SWAP2 POP POP JUMP JUMPDEST PUSH1 0x0 PUSH2 0x34E5 DUP3 PUSH2 0x2A93 JUMP JUMPDEST SWAP2 POP PUSH2 0x34F0 DUP4 PUSH2 0x2A93 JUMP JUMPDEST SWAP3 POP DUP3 DUP3 SUB SWAP1 POP PUSH2 0xFFFF DUP2 GT ISZERO PUSH2 0x350A JUMPI PUSH2 0x3509 PUSH2 0x3052 JUMP JUMPDEST JUMPDEST SWAP3 SWAP2 POP POP JUMP JUMPDEST PUSH1 0x0 DUP2 SWAP1 POP SWAP3 SWAP2 POP POP JUMP JUMPDEST PUSH1 0x0 PUSH2 0x3526 DUP3 PUSH2 0x269B JUMP JUMPDEST PUSH2 0x3530 DUP2 DUP6 PUSH2 0x3510 JUMP JUMPDEST SWAP4 POP PUSH2 0x3540 DUP2 DUP6 PUSH1 0x20 DUP7 ADD PUSH2 0x26B7 JUMP JUMPDEST DUP1 DUP5 ADD SWAP2 POP POP SWAP3 SWAP2 POP POP JUMP JUMPDEST PUSH1 0x0 PUSH2 0x3558 DUP3 DUP6 PUSH2 0x351B JUMP JUMPDEST SWAP2 POP PUSH2 0x3564 DUP3 DUP5 PUSH2 0x351B JUMP JUMPDEST SWAP2 POP DUP2 SWAP1 POP SWAP4 SWAP3 POP POP POP JUMP JUMPDEST PUSH1 0x0 PUSH2 0x357B DUP3 PUSH2 0x2A93 JUMP JUMPDEST SWAP2 POP PUSH2 0x3586 DUP4 PUSH2 0x2A93 JUMP JUMPDEST SWAP3 POP DUP3 DUP3 ADD SWAP1 POP PUSH2 0xFFFF DUP2 GT ISZERO PUSH2 0x35A0 JUMPI PUSH2 0x359F PUSH2 0x3052 JUMP JUMPDEST JUMPDEST SWAP3 SWAP2 POP POP JUMP JUMPDEST PUSH32 0x4552433732313A20696E76616C696420746F6B656E2049440000000000000000 PUSH1 0x0 DUP3 ADD MSTORE POP JUMP JUMPDEST PUSH1 0x0 PUSH2 0x35DC PUSH1 0x18 DUP4 PUSH2 0x26A6 JUMP JUMPDEST SWAP2 POP PUSH2 0x35E7 DUP3 PUSH2 0x35A6 JUMP JUMPDEST PUSH1 0x20 DUP3 ADD SWAP1 POP SWAP2 SWAP1 POP JUMP JUMPDEST PUSH1 0x0 PUSH1 0x20 DUP3 ADD SWAP1 POP DUP2 DUP2 SUB PUSH1 0x0 DUP4 ADD MSTORE PUSH2 0x360B DUP2 PUSH2 0x35CF JUMP JUMPDEST SWAP1 POP SWAP2 SWAP1 POP JUMP JUMPDEST PUSH32 0x4552433732313A20617070726F766520746F2063616C6C657200000000000000 PUSH1 0x0 DUP3 ADD MSTORE POP JUMP JUMPDEST PUSH1 0x0 PUSH2 0x3648 PUSH1 0x19 DUP4 PUSH2 0x26A6 JUMP JUMPDEST SWAP2 POP PUSH2 0x3653 DUP3 PUSH2 0x3612 JUMP JUMPDEST PUSH1 0x20 DUP3 ADD SWAP1 POP SWAP2 SWAP1 POP JUMP JUMPDEST PUSH1 0x0 PUSH1 0x20 DUP3 ADD SWAP1 POP DUP2 DUP2 SUB PUSH1 0x0 DUP4 ADD MSTORE PUSH2 0x3677 DUP2 PUSH2 0x363B JUMP JUMPDEST SWAP1 POP SWAP2 SWAP1 POP JUMP JUMPDEST PUSH1 0x0 DUP2 SWAP1 POP SWAP2 SWAP1 POP JUMP JUMPDEST PUSH2 0x3699 PUSH2 0x3694 DUP3 PUSH2 0x2667 JUMP JUMPDEST PUSH2 0x367E JUMP JUMPDEST DUP3 MSTORE POP POP JUMP JUMPDEST PUSH1 0x0 PUSH2 0x36AB DUP3 DUP6 PUSH2 0x351B JUMP JUMPDEST SWAP2 POP PUSH2 0x36B7 DUP3 DUP5 PUSH2 0x3688 JUMP JUMPDEST PUSH1 0x20 DUP3 ADD SWAP2 POP DUP2 SWAP1 POP SWAP4 SWAP3 POP POP POP JUMP JUMPDEST PUSH1 0x0 PUSH2 0x36D2 DUP3 PUSH2 0x2667 JUMP JUMPDEST SWAP2 POP PUSH2 0x36DD DUP4 PUSH2 0x2667 JUMP JUMPDEST SWAP3 POP DUP3 PUSH2 0x36ED JUMPI PUSH2 0x36EC PUSH2 0x347A JUMP JUMPDEST JUMPDEST DUP3 DUP3 MOD SWAP1 POP SWAP3 SWAP2 POP POP JUMP JUMPDEST PUSH2 0x3701 DUP3 PUSH2 0x269B JUMP JUMPDEST PUSH8 0xFFFFFFFFFFFFFFFF DUP2 GT ISZERO PUSH2 0x371A JUMPI PUSH2 0x3719 PUSH2 0x2BA8 JUMP JUMPDEST JUMPDEST PUSH2 0x3724 DUP3 SLOAD PUSH2 0x2F1A JUMP JUMPDEST PUSH2 0x372F DUP3 DUP3 DUP6 PUSH2 0x3269 JUMP JUMPDEST PUSH1 0x0 PUSH1 0x20 SWAP1 POP PUSH1 0x1F DUP4 GT PUSH1 0x1 DUP2 EQ PUSH2 0x3762 JUMPI PUSH1 0x0 DUP5 ISZERO PUSH2 0x3750 JUMPI DUP3 DUP8 ADD MLOAD SWAP1 POP JUMPDEST PUSH2 0x375A DUP6 DUP3 PUSH2 0x32DA JUMP JUMPDEST DUP7 SSTORE POP PUSH2 0x37C2 JUMP JUMPDEST PUSH1 0x1F NOT DUP5 AND PUSH2 0x3770 DUP7 PUSH2 0x314A JUMP JUMPDEST PUSH1 0x0 JUMPDEST DUP3 DUP2 LT ISZERO PUSH2 0x3798 JUMPI DUP5 DUP10 ADD MLOAD DUP3 SSTORE PUSH1 0x1 DUP3 ADD SWAP2 POP PUSH1 0x20 DUP6 ADD SWAP5 POP PUSH1 0x20 DUP2 ADD SWAP1 POP PUSH2 0x3773 JUMP JUMPDEST DUP7 DUP4 LT ISZERO PUSH2 0x37B5 JUMPI DUP5 DUP10 ADD MLOAD PUSH2 0x37B1 PUSH1 0x1F DUP10 AND DUP3 PUSH2 0x32BC JUMP JUMPDEST DUP4 SSTORE POP JUMPDEST PUSH1 0x1 PUSH1 0x2 DUP9 MUL ADD DUP9 SSTORE POP POP POP JUMPDEST POP POP POP POP POP POP JUMP JUMPDEST PUSH1 0x0 PUSH2 0x37D5 DUP3 PUSH2 0x2667 JUMP JUMPDEST SWAP2 POP PUSH2 0x37E0 DUP4 PUSH2 0x2667 JUMP JUMPDEST SWAP3 POP DUP3 DUP3 SUB SWAP1 POP DUP2 DUP2 GT ISZERO PUSH2 0x37F8 JUMPI PUSH2 0x37F7 PUSH2 0x3052 JUMP JUMPDEST JUMPDEST SWAP3 SWAP2 POP POP JUMP JUMPDEST PUSH1 0x0 PUSH2 0x3819 PUSH2 0x3814 PUSH2 0x380F DUP5 PUSH2 0x2A93 JUMP JUMPDEST PUSH2 0x31CE JUMP JUMPDEST PUSH2 0x2667 JUMP JUMPDEST SWAP1 POP SWAP2 SWAP1 POP JUMP JUMPDEST PUSH2 0x3829 DUP2 PUSH2 0x37FE JUMP JUMPDEST DUP3 MSTORE POP POP JUMP JUMPDEST PUSH1 0x0 PUSH1 0x60 DUP3 ADD SWAP1 POP PUSH2 0x3844 PUSH1 0x0 DUP4 ADD DUP7 PUSH2 0x2671 JUMP JUMPDEST DUP2 DUP2 SUB PUSH1 0x20 DUP4 ADD MSTORE PUSH2 0x3856 DUP2 DUP6 PUSH2 0x26F2 JUMP JUMPDEST SWAP1 POP PUSH2 0x3865 PUSH1 0x40 DUP4 ADD DUP5 PUSH2 0x3820 JUMP JUMPDEST SWAP5 SWAP4 POP POP POP POP JUMP JUMPDEST PUSH32 0x4552433732313A207472616E7366657220746F206E6F6E204552433732315265 PUSH1 0x0 DUP3 ADD MSTORE PUSH32 0x63656976657220696D706C656D656E7465720000000000000000000000000000 PUSH1 0x20 DUP3 ADD MSTORE POP JUMP JUMPDEST PUSH1 0x0 PUSH2 0x38C9 PUSH1 0x32 DUP4 PUSH2 0x26A6 JUMP JUMPDEST SWAP2 POP PUSH2 0x38D4 DUP3 PUSH2 0x386D JUMP JUMPDEST PUSH1 0x40 DUP3 ADD SWAP1 POP SWAP2 SWAP1 POP JUMP JUMPDEST PUSH1 0x0 PUSH1 0x20 DUP3 ADD SWAP1 POP DUP2 DUP2 SUB PUSH1 0x0 DUP4 ADD MSTORE PUSH2 0x38F8 DUP2 PUSH2 0x38BC JUMP JUMPDEST SWAP1 POP SWAP2 SWAP1 POP JUMP JUMPDEST PUSH1 0x0 PUSH2 0x390A DUP3 PUSH2 0x2667 JUMP JUMPDEST SWAP2 POP PUSH2 0x3915 DUP4 PUSH2 0x2667 JUMP JUMPDEST SWAP3 POP DUP3 DUP3 ADD SWAP1 POP DUP1 DUP3 GT ISZERO PUSH2 0x392D JUMPI PUSH2 0x392C PUSH2 0x3052 JUMP JUMPDEST JUMPDEST SWAP3 SWAP2 POP POP JUMP JUMPDEST PUSH32 0x4E487B7100000000000000000000000000000000000000000000000000000000 PUSH1 0x0 MSTORE PUSH1 0x1 PUSH1 0x4 MSTORE PUSH1 0x24 PUSH1 0x0 REVERT JUMPDEST PUSH1 0x0 DUP2 MLOAD SWAP1 POP SWAP2 SWAP1 POP JUMP JUMPDEST PUSH1 0x0 DUP3 DUP3 MSTORE PUSH1 0x20 DUP3 ADD SWAP1 POP SWAP3 SWAP2 POP POP JUMP JUMPDEST PUSH1 0x0 PUSH2 0x3989 DUP3 PUSH2 0x3962 JUMP JUMPDEST PUSH2 0x3993 DUP2 DUP6 PUSH2 0x396D JUMP JUMPDEST SWAP4 POP PUSH2 0x39A3 DUP2 DUP6 PUSH1 0x20 DUP7 ADD PUSH2 0x26B7 JUMP JUMPDEST PUSH2 0x39AC DUP2 PUSH2 0x26E1 JUMP JUMPDEST DUP5 ADD SWAP2 POP POP SWAP3 SWAP2 POP POP JUMP JUMPDEST PUSH1 0x0 PUSH1 0x80 DUP3 ADD SWAP1 POP PUSH2 0x39CC PUSH1 0x0 DUP4 ADD DUP8 PUSH2 0x27D8 JUMP JUMPDEST PUSH2 0x39D9 PUSH1 0x20 DUP4 ADD DUP7 PUSH2 0x27D8 JUMP JUMPDEST PUSH2 0x39E6 PUSH1 0x40 DUP4 ADD DUP6 PUSH2 0x2671 JUMP JUMPDEST DUP2 DUP2 SUB PUSH1 0x60 DUP4 ADD MSTORE PUSH2 0x39F8 DUP2 DUP5 PUSH2 0x397E JUMP JUMPDEST SWAP1 POP SWAP6 SWAP5 POP POP POP POP POP JUMP JUMPDEST PUSH1 0x0 DUP2 MLOAD SWAP1 POP PUSH2 0x3A12 DUP2 PUSH2 0x25D8 JUMP JUMPDEST SWAP3 SWAP2 POP POP JUMP JUMPDEST PUSH1 0x0 PUSH1 0x20 DUP3 DUP5 SUB SLT ISZERO PUSH2 0x3A2E JUMPI PUSH2 0x3A2D PUSH2 0x25A2 JUMP JUMPDEST JUMPDEST PUSH1 0x0 PUSH2 0x3A3C DUP5 DUP3 DUP6 ADD PUSH2 0x3A03 JUMP JUMPDEST SWAP2 POP POP SWAP3 SWAP2 POP POP JUMP INVALID LOG2 PUSH5 0x6970667358 0x22 SLT KECCAK256 OR 0x4B 0xB8 0xDD 0xA5 0xE7 SWAP2 SWAP6 0xBE SWAP9 LOG3 SWAP14 BLOCKHASH 0xB9 0xDF SAR 0xEB ADDRESS SWAP11 0xEF PUSH23 0xCEB66BF7EC8A6D6D3B217C64736F6C6343000811003300 "
		},
		"gasEstimates": {
			"creation": {
				"codeDepositCost": "2994200",
				"executionCost": "infinite",
				"totalCost": "infinite"
			},
			"external": {
				"approve(address,uint256)": "29189",
				"balanceOf(address)": "2887",
				"buyZombic(string)": "infinite",
				"changeName(string,uint256)": "infinite",
				"checkDeployTest()": "2589",
				"cooldownTime()": "2474",
				"createZombic(string)": "infinite",
				"getApproved(uint256)": "5345",
				"getZombicsByOwner(address)": "infinite",
				"isApprovedForAll(address,address)": "infinite",
				"leveUp(uint256)": "31449",
				"leveUpFee()": "2519",
				"name()": "infinite",
				"owner()": "2579",
				"ownerOf(uint256)": "2954",
				"safeTransferFrom(address,address,uint256)": "infinite",
				"safeTransferFrom(address,address,uint256,bytes)": "infinite",
				"setApprovalForAll(address,bool)": "infinite",
				"setUpLevelFee(uint256)": "24755",
				"setZombicPrice(uint256)": "24798",
				"supportsInterface(bytes4)": "820",
				"symbol()": "infinite",
				"takeOwnership(uint256)": "infinite",
				"tokenURI(uint256)": "3482",
				"transfer(address,uint256)": "infinite",
				"transferFrom(address,address,uint256)": "infinite",
				"transferOwnership(address)": "30690",
				"zombicApprovals(uint256)": "2905",
				"zombicCount()": "2498",
				"zombicPrice()": "2519",
				"zombicToOwber(uint256)": "2950",
				"zombics(uint256)": "infinite"
			},
			"internal": {
				"_transfer(address,address,uint256)": "infinite"
			}
		},
		"methodIdentifiers": {
			"approve(address,uint256)": "095ea7b3",
			"balanceOf(address)": "70a08231",
			"buyZombic(string)": "f94f0593",
			"changeName(string,uint256)": "270dc9fd",
			"checkDeployTest()": "206c8db4",
			"cooldownTime()": "b319c6b7",
			"createZombic(string)": "a38d7e5b",
			"getApproved(uint256)": "081812fc",
			"getZombicsByOwner(address)": "43d5d022",
			"isApprovedForAll(address,address)": "e985e9c5",
			"leveUp(uint256)": "227c59e6",
			"leveUpFee()": "90ab0522",
			"name()": "06fdde03",
			"owner()": "8da5cb5b",
			"ownerOf(uint256)": "6352211e",
			"safeTransferFrom(address,address,uint256)": "42842e0e",
			"safeTransferFrom(address,address,uint256,bytes)": "b88d4fde",
			"setApprovalForAll(address,bool)": "a22cb465",
			"setUpLevelFee(uint256)": "3a42c900",
			"setZombicPrice(uint256)": "e7eb1214",
			"supportsInterface(bytes4)": "01ffc9a7",
			"symbol()": "95d89b41",
			"takeOwnership(uint256)": "b2e6ceeb",
			"tokenURI(uint256)": "c87b56dd",
			"transfer(address,uint256)": "a9059cbb",
			"transferFrom(address,address,uint256)": "23b872dd",
			"transferOwnership(address)": "f2fde38b",
			"zombicApprovals(uint256)": "ec0c1757",
			"zombicCount()": "02f4db2f",
			"zombicPrice()": "3ece8f6f",
			"zombicToOwber(uint256)": "6de2e36c",
			"zombics(uint256)": "5e0b8654"
		}
	},
	"abi": [
		{
			"inputs": [],
			"stateMutability": "nonpayable",
			"type": "constructor"
		},
		{
			"anonymous": false,
			"inputs": [
				{
					"indexed": true,
					"internalType": "address",
					"name": "owner",
					"type": "address"
				},
				{
					"indexed": true,
					"internalType": "address",
					"name": "approved",
					"type": "address"
				},
				{
					"indexed": true,
					"internalType": "uint256",
					"name": "tokenId",
					"type": "uint256"
				}
			],
			"name": "Approval",
			"type": "event"
		},
		{
			"anonymous": false,
			"inputs": [
				{
					"indexed": true,
					"internalType": "address",
					"name": "owner",
					"type": "address"
				},
				{
					"indexed": true,
					"internalType": "address",
					"name": "operator",
					"type": "address"
				},
				{
					"indexed": false,
					"internalType": "bool",
					"name": "approved",
					"type": "bool"
				}
			],
			"name": "ApprovalForAll",
			"type": "event"
		},
		{
			"anonymous": false,
			"inputs": [
				{
					"indexed": false,
					"internalType": "uint256",
					"name": "zombicId",
					"type": "uint256"
				},
				{
					"indexed": false,
					"internalType": "string",
					"name": "name",
					"type": "string"
				},
				{
					"indexed": false,
					"internalType": "uint256",
					"name": "dna",
					"type": "uint256"
				}
			],
			"name": "NewZombic",
			"type": "event"
		},
		{
			"anonymous": false,
			"inputs": [
				{
					"indexed": true,
					"internalType": "address",
					"name": "previousOwner",
					"type": "address"
				},
				{
					"indexed": true,
					"internalType": "address",
					"name": "newOwner",
					"type": "address"
				}
			],
			"name": "OwnershipTransferred",
			"type": "event"
		},
		{
			"anonymous": false,
			"inputs": [
				{
					"indexed": true,
					"internalType": "address",
					"name": "from",
					"type": "address"
				},
				{
					"indexed": true,
					"internalType": "address",
					"name": "to",
					"type": "address"
				},
				{
					"indexed": true,
					"internalType": "uint256",
					"name": "tokenId",
					"type": "uint256"
				}
			],
			"name": "Transfer",
			"type": "event"
		},
		{
			"inputs": [
				{
					"internalType": "address",
					"name": "_to",
					"type": "address"
				},
				{
					"internalType": "uint256",
					"name": "_tokenId",
					"type": "uint256"
				}
			],
			"name": "approve",
			"outputs": [],
			"stateMutability": "nonpayable",
			"type": "function"
		},
		{
			"inputs": [
				{
					"internalType": "address",
					"name": "_owner",
					"type": "address"
				}
			],
			"name": "balanceOf",
			"outputs": [
				{
					"internalType": "uint256",
					"name": "_balance",
					"type": "uint256"
				}
			],
			"stateMutability": "view",
			"type": "function"
		},
		{
			"inputs": [
				{
					"internalType": "string",
					"name": "_name",
					"type": "string"
				}
			],
			"name": "buyZombic",
			"outputs": [],
			"stateMutability": "payable",
			"type": "function"
		},
		{
			"inputs": [
				{
					"internalType": "string",
					"name": "_name",
					"type": "string"
				},
				{
					"internalType": "uint256",
					"name": "_zombicId",
					"type": "uint256"
				}
			],
			"name": "changeName",
			"outputs": [],
			"stateMutability": "nonpayable",
			"type": "function"
		},
		{
			"inputs": [],
			"name": "checkDeployTest",
			"outputs": [
				{
					"internalType": "bool",
					"name": "",
					"type": "bool"
				}
			],
			"stateMutability": "view",
			"type": "function"
		},
		{
			"inputs": [],
			"name": "cooldownTime",
			"outputs": [
				{
					"internalType": "uint256",
					"name": "",
					"type": "uint256"
				}
			],
			"stateMutability": "view",
			"type": "function"
		},
		{
			"inputs": [
				{
					"internalType": "string",
					"name": "_name",
					"type": "string"
				}
			],
			"name": "createZombic",
			"outputs": [],
			"stateMutability": "nonpayable",
			"type": "function"
		},
		{
			"inputs": [
				{
					"internalType": "uint256",
					"name": "tokenId",
					"type": "uint256"
				}
			],
			"name": "getApproved",
			"outputs": [
				{
					"internalType": "address",
					"name": "",
					"type": "address"
				}
			],
			"stateMutability": "view",
			"type": "function"
		},
		{
			"inputs": [
				{
					"internalType": "address",
					"name": "_owner",
					"type": "address"
				}
			],
			"name": "getZombicsByOwner",
			"outputs": [
				{
					"internalType": "uint256[]",
					"name": "",
					"type": "uint256[]"
				}
			],
			"stateMutability": "view",
			"type": "function"
		},
		{
			"inputs": [
				{
					"internalType": "address",
					"name": "owner",
					"type": "address"
				},
				{
					"internalType": "address",
					"name": "operator",
					"type": "address"
				}
			],
			"name": "isApprovedForAll",
			"outputs": [
				{
					"internalType": "bool",
					"name": "",
					"type": "bool"
				}
			],
			"stateMutability": "view",
			"type": "function"
		},
		{
			"inputs": [
				{
					"internalType": "uint256",
					"name": "_zombicId",
					"type": "uint256"
				}
			],
			"name": "leveUp",
			"outputs": [],
			"stateMutability": "payable",
			"type": "function"
		},
		{
			"inputs": [],
			"name": "leveUpFee",
			"outputs": [
				{
					"internalType": "uint256",
					"name": "",
					"type": "uint256"
				}
			],
			"stateMutability": "view",
			"type": "function"
		},
		{
			"inputs": [],
			"name": "name",
			"outputs": [
				{
					"internalType": "string",
					"name": "",
					"type": "string"
				}
			],
			"stateMutability": "view",
			"type": "function"
		},
		{
			"inputs": [],
			"name": "owner",
			"outputs": [
				{
					"internalType": "address",
					"name": "",
					"type": "address"
				}
			],
			"stateMutability": "view",
			"type": "function"
		},
		{
			"inputs": [
				{
					"internalType": "uint256",
					"name": "_tokenId",
					"type": "uint256"
				}
			],
			"name": "ownerOf",
			"outputs": [
				{
					"internalType": "address",
					"name": "_owner",
					"type": "address"
				}
			],
			"stateMutability": "view",
			"type": "function"
		},
		{
			"inputs": [
				{
					"internalType": "address",
					"name": "from",
					"type": "address"
				},
				{
					"internalType": "address",
					"name": "to",
					"type": "address"
				},
				{
					"internalType": "uint256",
					"name": "tokenId",
					"type": "uint256"
				}
			],
			"name": "safeTransferFrom",
			"outputs": [],
			"stateMutability": "nonpayable",
			"type": "function"
		},
		{
			"inputs": [
				{
					"internalType": "address",
					"name": "from",
					"type": "address"
				},
				{
					"internalType": "address",
					"name": "to",
					"type": "address"
				},
				{
					"internalType": "uint256",
					"name": "tokenId",
					"type": "uint256"
				},
				{
					"internalType": "bytes",
					"name": "data",
					"type": "bytes"
				}
			],
			"name": "safeTransferFrom",
			"outputs": [],
			"stateMutability": "nonpayable",
			"type": "function"
		},
		{
			"inputs": [
				{
					"internalType": "address",
					"name": "operator",
					"type": "address"
				},
				{
					"internalType": "bool",
					"name": "approved",
					"type": "bool"
				}
			],
			"name": "setApprovalForAll",
			"outputs": [],
			"stateMutability": "nonpayable",
			"type": "function"
		},
		{
			"inputs": [
				{
					"internalType": "uint256",
					"name": "_fee",
					"type": "uint256"
				}
			],
			"name": "setUpLevelFee",
			"outputs": [],
			"stateMutability": "nonpayable",
			"type": "function"
		},
		{
			"inputs": [
				{
					"internalType": "uint256",
					"name": "_price",
					"type": "uint256"
				}
			],
			"name": "setZombicPrice",
			"outputs": [],
			"stateMutability": "nonpayable",
			"type": "function"
		},
		{
			"inputs": [
				{
					"internalType": "bytes4",
					"name": "interfaceId",
					"type": "bytes4"
				}
			],
			"name": "supportsInterface",
			"outputs": [
				{
					"internalType": "bool",
					"name": "",
					"type": "bool"
				}
			],
			"stateMutability": "view",
			"type": "function"
		},
		{
			"inputs": [],
			"name": "symbol",
			"outputs": [
				{
					"internalType": "string",
					"name": "",
					"type": "string"
				}
			],
			"stateMutability": "view",
			"type": "function"
		},
		{
			"inputs": [
				{
					"internalType": "uint256",
					"name": "_tokenId",
					"type": "uint256"
				}
			],
			"name": "takeOwnership",
			"outputs": [],
			"stateMutability": "nonpayable",
			"type": "function"
		},
		{
			"inputs": [
				{
					"internalType": "uint256",
					"name": "tokenId",
					"type": "uint256"
				}
			],
			"name": "tokenURI",
			"outputs": [
				{
					"internalType": "string",
					"name": "",
					"type": "string"
				}
			],
			"stateMutability": "view",
			"type": "function"
		},
		{
			"inputs": [
				{
					"internalType": "address",
					"name": "_to",
					"type": "address"
				},
				{
					"internalType": "uint256",
					"name": "_tokenId",
					"type": "uint256"
				}
			],
			"name": "transfer",
			"outputs": [],
			"stateMutability": "nonpayable",
			"type": "function"
		},
		{
			"inputs": [
				{
					"internalType": "address",
					"name": "from",
					"type": "address"
				},
				{
					"internalType": "address",
					"name": "to",
					"type": "address"
				},
				{
					"internalType": "uint256",
					"name": "tokenId",
					"type": "uint256"
				}
			],
			"name": "transferFrom",
			"outputs": [],
			"stateMutability": "nonpayable",
			"type": "function"
		},
		{
			"inputs": [
				{
					"internalType": "address payable",
					"name": "newOwner",
					"type": "address"
				}
			],
			"name": "transferOwnership",
			"outputs": [],
			"stateMutability": "nonpayable",
			"type": "function"
		},
		{
			"inputs": [
				{
					"internalType": "uint256",
					"name": "",
					"type": "uint256"
				}
			],
			"name": "zombicApprovals",
			"outputs": [
				{
					"internalType": "address",
					"name": "",
					"type": "address"
				}
			],
			"stateMutability": "view",
			"type": "function"
		},
		{
			"inputs": [],
			"name": "zombicCount",
			"outputs": [
				{
					"internalType": "uint256",
					"name": "",
					"type": "uint256"
				}
			],
			"stateMutability": "view",
			"type": "function"
		},
		{
			"inputs": [],
			"name": "zombicPrice",
			"outputs": [
				{
					"internalType": "uint256",
					"name": "",
					"type": "uint256"
				}
			],
			"stateMutability": "view",
			"type": "function"
		},
		{
			"inputs": [
				{
					"internalType": "uint256",
					"name": "",
					"type": "uint256"
				}
			],
			"name": "zombicToOwber",
			"outputs": [
				{
					"internalType": "address",
					"name": "",
					"type": "address"
				}
			],
			"stateMutability": "view",
			"type": "function"
		},
		{
			"inputs": [
				{
					"internalType": "uint256",
					"name": "",
					"type": "uint256"
				}
			],
			"name": "zombics",
			"outputs": [
				{
					"internalType": "string",
					"name": "name",
					"type": "string"
				},
				{
					"internalType": "uint16",
					"name": "dna",
					"type": "uint16"
				},
				{
					"internalType": "uint16",
					"name": "winCount",
					"type": "uint16"
				},
				{
					"internalType": "uint16",
					"name": "loseCount",
					"type": "uint16"
				},
				{
					"internalType": "uint32",
					"name": "level",
					"type": "uint32"
				},
				{
					"internalType": "uint32",
					"name": "cooldownTime",
					"type": "uint32"
				}
			],
			"stateMutability": "view",
			"type": "function"
		}
	]
}