{
  "_format": "hh-sol-artifact-1",
  "contractName": "ZombicFactory",
  "sourceName": "contracts/ZombieFactory.sol",
  "abi": [
    {
      "anonymous": false,
      "inputs": [
        {
          "indexed": true,
          "internalType": "address",
          "name": "previousOwner",
          "type": "address"
        },
        {
          "indexed": true,
          "internalType": "address",
          "name": "newOwner",
          "type": "address"
        }
      ],
      "name": "OwnershipTransferred",
      "type": "event"
    },
    {
      "inputs": [],
      "name": "checkDeployTest",
      "outputs": [
        {
          "internalType": "bool",
          "name": "",
          "type": "bool"
        }
      ],
      "stateMutability": "view",
      "type": "function"
    },
    {
      "inputs": [],
      "name": "cooldownTime",
      "outputs": [
        {
          "internalType": "uint256",
          "name": "",
          "type": "uint256"
        }
      ],
      "stateMutability": "view",
      "type": "function"
    },
    {
      "inputs": [
        {
          "internalType": "string",
          "name": "_name",
          "type": "string"
        }
      ],
      "name": "createZombic",
      "outputs": [],
      "stateMutability": "nonpayable",
      "type": "function"
    },
    {
      "inputs": [],
      "name": "owner",
      "outputs": [
        {
          "internalType": "address",
          "name": "",
          "type": "address"
        }
      ],
      "stateMutability": "view",
      "type": "function"
    },
    {
      "inputs": [
        {
          "internalType": "address payable",
          "name": "newOwner",
          "type": "address"
        }
      ],
      "name": "transferOwnership",
      "outputs": [],
      "stateMutability": "nonpayable",
      "type": "function"
    },
    {
      "inputs": [],
      "name": "zombicCount",
      "outputs": [
        {
          "internalType": "uint256",
          "name": "",
          "type": "uint256"
        }
      ],
      "stateMutability": "view",
      "type": "function"
    },
    {
      "inputs": [],
      "name": "zombicPrice",
      "outputs": [
        {
          "internalType": "uint256",
          "name": "",
          "type": "uint256"
        }
      ],
      "stateMutability": "view",
      "type": "function"
    },
    {
      "inputs": [
        {
          "internalType": "uint256",
          "name": "",
          "type": "uint256"
        }
      ],
      "name": "zombicToOwber",
      "outputs": [
        {
          "internalType": "address",
          "name": "",
          "type": "address"
        }
      ],
      "stateMutability": "view",
      "type": "function"
    },
    {
      "inputs": [
        {
          "internalType": "uint256",
          "name": "",
          "type": "uint256"
        }
      ],
      "name": "zombics",
      "outputs": [
        {
          "internalType": "string",
          "name": "name",
          "type": "string"
        },
        {
          "internalType": "uint16",
          "name": "dna",
          "type": "uint16"
        },
        {
          "internalType": "uint16",
          "name": "winCount",
          "type": "uint16"
        },
        {
          "internalType": "uint16",
          "name": "loseCount",
          "type": "uint16"
        },
        {
          "internalType": "uint32",
          "name": "level",
          "type": "uint32"
        },
        {
          "internalType": "uint32",
          "name": "cooldownTime",
          "type": "uint32"
        }
      ],
      "stateMutability": "view",
      "type": "function"
    }
  ],
  "bytecode": "0x608060405260008060146101000a81548160ff0219169083151502179055506010600155600154600a6200003491906200022f565b60025562015180600355662386f26fc1000060045560006005553480156200005b57600080fd5b50336000806101000a81548173ffffffffffffffffffffffffffffffffffffffff021916908373ffffffffffffffffffffffffffffffffffffffff16021790555062000280565b7f4e487b7100000000000000000000000000000000000000000000000000000000600052601160045260246000fd5b60008160011c9050919050565b6000808291508390505b60018511156200013057808604811115620001085762000107620000a2565b5b6001851615620001185780820291505b80810290506200012885620000d1565b9450620000e8565b94509492505050565b6000826200014b57600190506200021e565b816200015b57600090506200021e565b81600181146200017457600281146200017f57620001b5565b60019150506200021e565b60ff841115620001945762000193620000a2565b5b8360020a915084821115620001ae57620001ad620000a2565b5b506200021e565b5060208310610133831016604e8410600b8410161715620001ef5782820a905083811115620001e957620001e8620000a2565b5b6200021e565b620001fe8484846001620000de565b92509050818404811115620002185762000217620000a2565b5b81810290505b9392505050565b6000819050919050565b60006200023c8262000225565b9150620002498362000225565b9250620002787fffffffffffffffffffffffffffffffffffffffffffffffffffffffffffffffff848462000139565b905092915050565b6112d480620002906000396000f3fe608060405234801561001057600080fd5b50600436106100935760003560e01c80636de2e36c116100665780636de2e36c146101275780638da5cb5b14610157578063a38d7e5b14610175578063b319c6b714610191578063f2fde38b146101af57610093565b806302f4db2f14610098578063206c8db4146100b65780633ece8f6f146100d45780635e0b8654146100f2575b600080fd5b6100a06101cb565b6040516100ad919061089f565b60405180910390f35b6100be6101d1565b6040516100cb91906108d5565b60405180910390f35b6100dc6101e4565b6040516100e9919061089f565b60405180910390f35b61010c60048036038101906101079190610930565b6101ea565b60405161011e96959493929190610a29565b60405180910390f35b610141600480360381019061013c9190610930565b610308565b60405161014e9190610ad2565b60405180910390f35b61015f61033b565b60405161016c9190610ad2565b60405180910390f35b61018f600480360381019061018a9190610c22565b61035f565b005b61019961069a565b6040516101a6919061089f565b60405180910390f35b6101c960048036038101906101c49190610ca9565b6106a0565b005b60055481565b600060149054906101000a900460ff1681565b60045481565b600681815481106101fa57600080fd5b906000526020600020906002020160009150905080600001805461021d90610d05565b80601f016020809104026020016040519081016040528092919081815260200182805461024990610d05565b80156102965780601f1061026b57610100808354040283529160200191610296565b820191906000526020600020905b81548152906001019060200180831161027957829003601f168201915b5050505050908060010160009054906101000a900461ffff16908060010160029054906101000a900461ffff16908060010160049054906101000a900461ffff16908060010160069054906101000a900463ffffffff169080600101600a9054906101000a900463ffffffff16905086565b60076020528060005260406000206000915054906101000a900473ffffffffffffffffffffffffffffffffffffffff1681565b60008054906101000a900473ffffffffffffffffffffffffffffffffffffffff1681565b6000600860003373ffffffffffffffffffffffffffffffffffffffff1673ffffffffffffffffffffffffffffffffffffffff16815260200190815260200160002054036103e1576040517f08c379a00000000000000000000000000000000000000000000000000000000081526004016103d890610d82565b60405180910390fd5b600060025482426040516020016103f9929190610dff565b6040516020818303038152906040528051906020012060001c61041c9190610e56565b9050600a8161042b9190610e87565b816104369190610ee7565b905060066040518060c001604052808481526020018361ffff168152602001600061ffff168152602001600061ffff168152602001600163ffffffff168152602001600063ffffffff16815250908060018154018082558091505060019003906000526020600020906002020160009091909190915060008201518160000190816104c191906110c9565b5060208201518160010160006101000a81548161ffff021916908361ffff16021790555060408201518160010160026101000a81548161ffff021916908361ffff16021790555060608201518160010160046101000a81548161ffff021916908361ffff16021790555060808201518160010160066101000a81548163ffffffff021916908363ffffffff16021790555060a082015181600101600a6101000a81548163ffffffff021916908363ffffffff16021790555050506000600160068054905061058f919061119b565b9050336007600083815260200190815260200160002060006101000a81548173ffffffffffffffffffffffffffffffffffffffff021916908373ffffffffffffffffffffffffffffffffffffffff1602179055506106366001600860003373ffffffffffffffffffffffffffffffffffffffff1673ffffffffffffffffffffffffffffffffffffffff1681526020019081526020016000205461085a90919063ffffffff16565b600860003373ffffffffffffffffffffffffffffffffffffffff1673ffffffffffffffffffffffffffffffffffffffff1681526020019081526020016000208190555061068f600160055461085a90919063ffffffff16565b600581905550505050565b60035481565b60008054906101000a900473ffffffffffffffffffffffffffffffffffffffff1673ffffffffffffffffffffffffffffffffffffffff163373ffffffffffffffffffffffffffffffffffffffff161461072e576040517f08c379a00000000000000000000000000000000000000000000000000000000081526004016107259061121b565b60405180910390fd5b600073ffffffffffffffffffffffffffffffffffffffff168173ffffffffffffffffffffffffffffffffffffffff160361079d576040517f08c379a00000000000000000000000000000000000000000000000000000000081526004016107949061121b565b60405180910390fd5b8073ffffffffffffffffffffffffffffffffffffffff1660008054906101000a900473ffffffffffffffffffffffffffffffffffffffff1673ffffffffffffffffffffffffffffffffffffffff167f8be0079c531659141344cd1fd0a4f28419497f9722a3daafe3b4186f6b6457e060405160405180910390a3806000806101000a81548173ffffffffffffffffffffffffffffffffffffffff021916908373ffffffffffffffffffffffffffffffffffffffff16021790555050565b6000808284610869919061123b565b90508381101561087c5761087b61126f565b5b8091505092915050565b6000819050919050565b61089981610886565b82525050565b60006020820190506108b46000830184610890565b92915050565b60008115159050919050565b6108cf816108ba565b82525050565b60006020820190506108ea60008301846108c6565b92915050565b6000604051905090565b600080fd5b600080fd5b61090d81610886565b811461091857600080fd5b50565b60008135905061092a81610904565b92915050565b600060208284031215610946576109456108fa565b5b60006109548482850161091b565b91505092915050565b600081519050919050565b600082825260208201905092915050565b60005b8381101561099757808201518184015260208101905061097c565b60008484015250505050565b6000601f19601f8301169050919050565b60006109bf8261095d565b6109c98185610968565b93506109d9818560208601610979565b6109e2816109a3565b840191505092915050565b600061ffff82169050919050565b610a04816109ed565b82525050565b600063ffffffff82169050919050565b610a2381610a0a565b82525050565b600060c0820190508181036000830152610a4381896109b4565b9050610a5260208301886109fb565b610a5f60408301876109fb565b610a6c60608301866109fb565b610a796080830185610a1a565b610a8660a0830184610a1a565b979650505050505050565b600073ffffffffffffffffffffffffffffffffffffffff82169050919050565b6000610abc82610a91565b9050919050565b610acc81610ab1565b82525050565b6000602082019050610ae76000830184610ac3565b92915050565b600080fd5b600080fd5b7f4e487b7100000000000000000000000000000000000000000000000000000000600052604160045260246000fd5b610b2f826109a3565b810181811067ffffffffffffffff82111715610b4e57610b4d610af7565b5b80604052505050565b6000610b616108f0565b9050610b6d8282610b26565b919050565b600067ffffffffffffffff821115610b8d57610b8c610af7565b5b610b96826109a3565b9050602081019050919050565b82818337600083830152505050565b6000610bc5610bc084610b72565b610b57565b905082815260208101848484011115610be157610be0610af2565b5b610bec848285610ba3565b509392505050565b600082601f830112610c0957610c08610aed565b5b8135610c19848260208601610bb2565b91505092915050565b600060208284031215610c3857610c376108fa565b5b600082013567ffffffffffffffff811115610c5657610c556108ff565b5b610c6284828501610bf4565b91505092915050565b6000610c7682610a91565b9050919050565b610c8681610c6b565b8114610c9157600080fd5b50565b600081359050610ca381610c7d565b92915050565b600060208284031215610cbf57610cbe6108fa565b5b6000610ccd84828501610c94565b91505092915050565b7f4e487b7100000000000000000000000000000000000000000000000000000000600052602260045260246000fd5b60006002820490506001821680610d1d57607f821691505b602082108103610d3057610d2f610cd6565b5b50919050565b7f6572726f72000000000000000000000000000000000000000000000000000000600082015250565b6000610d6c600583610968565b9150610d7782610d36565b602082019050919050565b60006020820190508181036000830152610d9b81610d5f565b9050919050565b600081905092915050565b6000610db88261095d565b610dc28185610da2565b9350610dd2818560208601610979565b80840191505092915050565b6000819050919050565b610df9610df482610886565b610dde565b82525050565b6000610e0b8285610dad565b9150610e178284610de8565b6020820191508190509392505050565b7f4e487b7100000000000000000000000000000000000000000000000000000000600052601260045260246000fd5b6000610e6182610886565b9150610e6c83610886565b925082610e7c57610e7b610e27565b5b828206905092915050565b6000610e92826109ed565b9150610e9d836109ed565b925082610ead57610eac610e27565b5b828206905092915050565b7f4e487b7100000000000000000000000000000000000000000000000000000000600052601160045260246000fd5b6000610ef2826109ed565b9150610efd836109ed565b9250828203905061ffff811115610f1757610f16610eb8565b5b92915050565b60008190508160005260206000209050919050565b60006020601f8301049050919050565b600082821b905092915050565b600060088302610f7f7fffffffffffffffffffffffffffffffffffffffffffffffffffffffffffffffff82610f42565b610f898683610f42565b95508019841693508086168417925050509392505050565b6000819050919050565b6000610fc6610fc1610fbc84610886565b610fa1565b610886565b9050919050565b6000819050919050565b610fe083610fab565b610ff4610fec82610fcd565b848454610f4f565b825550505050565b600090565b611009610ffc565b611014818484610fd7565b505050565b5b818110156110385761102d600082611001565b60018101905061101a565b5050565b601f82111561107d5761104e81610f1d565b61105784610f32565b81016020851015611066578190505b61107a61107285610f32565b830182611019565b50505b505050565b600082821c905092915050565b60006110a060001984600802611082565b1980831691505092915050565b60006110b9838361108f565b9150826002028217905092915050565b6110d28261095d565b67ffffffffffffffff8111156110eb576110ea610af7565b5b6110f58254610d05565b61110082828561103c565b600060209050601f8311600181146111335760008415611121578287015190505b61112b85826110ad565b865550611193565b601f19841661114186610f1d565b60005b8281101561116957848901518255600182019150602085019450602081019050611144565b868310156111865784890151611182601f89168261108f565b8355505b6001600288020188555050505b505050505050565b60006111a682610886565b91506111b183610886565b92508282039050818111156111c9576111c8610eb8565b5b92915050565b7f4d75737420636f6e7472616374206f776e657200000000000000000000000000600082015250565b6000611205601383610968565b9150611210826111cf565b602082019050919050565b60006020820190508181036000830152611234816111f8565b9050919050565b600061124682610886565b915061125183610886565b925082820190508082111561126957611268610eb8565b5b92915050565b7f4e487b7100000000000000000000000000000000000000000000000000000000600052600160045260246000fdfea26469706673582212205d0b82791c7f7abc4c64ddc5551fdf7aa0274ef31a668dfd68a0795922def6c864736f6c63430008110033",
  "linkReferences": {},
  "deployedLinkReferences": {}
}